{
	"contracts/AccessLog.sol": {
		"AccessLog": {
			"abi": [
				{
					"anonymous": false,
					"inputs": [
						{
							"indexed": true,
							"internalType": "bytes32",
							"name": "fileHash",
							"type": "bytes32"
						},
						{
							"indexed": true,
							"internalType": "address",
							"name": "accessor",
							"type": "address"
						}
					],
					"name": "Accessed",
					"type": "event"
				},
				{
					"inputs": [
						{
							"internalType": "bytes32",
							"name": "",
							"type": "bytes32"
						},
						{
							"internalType": "uint256",
							"name": "",
							"type": "uint256"
						}
					],
					"name": "accessLog",
					"outputs": [
						{
							"internalType": "address",
							"name": "",
							"type": "address"
						}
					],
					"stateMutability": "view",
					"type": "function"
				},
				{
					"inputs": [
						{
							"internalType": "bytes32",
							"name": "fileHash",
							"type": "bytes32"
						}
					],
					"name": "getAccessors",
					"outputs": [
						{
							"internalType": "address[]",
							"name": "",
							"type": "address[]"
						}
					],
					"stateMutability": "view",
					"type": "function"
				},
				{
					"inputs": [
						{
							"internalType": "bytes32",
							"name": "fileHash",
							"type": "bytes32"
						}
					],
					"name": "logAccess",
					"outputs": [],
					"stateMutability": "nonpayable",
					"type": "function"
				}
			],
			"devdoc": {
				"details": "A simple contract to log which addresses have accessed a file, identified by its hash. For EasyA x Polkadot Harvard Hackathon.",
				"kind": "dev",
				"methods": {
					"getAccessors(bytes32)": {
						"details": "Retrieves the list of addresses that logged access for a given file hash.",
						"params": {
							"fileHash": "The bytes32 hash of the file."
						},
						"returns": {
							"_0": "An array of accessor addresses."
						}
					},
					"logAccess(bytes32)": {
						"details": "Logs that the caller (msg.sender) has accessed the file with the given hash. Does not prevent duplicate entries for simplicity in hackathon scope.",
						"params": {
							"fileHash": "The bytes32 hash of the file (e.g., IPFS CID hash)."
						}
					}
				},
				"title": "AccessLog",
				"version": 1
			},
			"userdoc": {
				"kind": "user",
				"methods": {},
				"version": 1
			},
			"storageLayout": {
				"storage": [
					{
						"astId": 7,
						"contract": "contracts/AccessLog.sol:AccessLog",
						"label": "accessLog",
						"offset": 0,
						"slot": "0",
						"type": "t_mapping(t_bytes32,t_array(t_address)dyn_storage)"
					}
				],
				"types": {
					"t_address": {
						"encoding": "inplace",
						"label": "address",
						"numberOfBytes": "20"
					},
					"t_array(t_address)dyn_storage": {
						"base": "t_address",
						"encoding": "dynamic_array",
						"label": "address[]",
						"numberOfBytes": "32"
					},
					"t_bytes32": {
						"encoding": "inplace",
						"label": "bytes32",
						"numberOfBytes": "32"
					},
					"t_mapping(t_bytes32,t_array(t_address)dyn_storage)": {
						"encoding": "mapping",
						"key": "t_bytes32",
						"label": "mapping(bytes32 => address[])",
						"numberOfBytes": "32",
						"value": "t_array(t_address)dyn_storage"
					}
				}
			},
			"evm": {
				"assembly": "// RO data = 0/0 bytes\n// RW data = 32/65584 bytes\n// Stack size = 16384 bytes\n\n// Instructions = 4774\n// Code size = 14800 bytes\n\n      : @0 (gas: 2)\n     0: i32 a2 = a0 >> 0x10\n     3: jump @6 if a2 != 0\n      : @1 (gas: 2)\n     6: a2 = 0x10001\n    11: jump @6 if a1 >=u a2\n      : @2 (gas: 4)\n    14: a1 = a1 + a0\n    17: i32 a1 = a1 + 0x1f\n    20: a1 = a1 & 0xffffffffffffffe0\n    23: jump @7 if a1 >=u 65537\n      : @3 (gas: 2)\n    29: a3 = i32 [0x20020]\n    34: jump @5 if a3 >=u a1\n      : @4 (gas: 4)\n    37: u32 [0x20020] = a1\n    42: a1 = 0x20030\n    47: a0 = a0 + a1\n    50: ret\n      : @5 (gas: 3)\n    52: a1 = 0x20030\n    57: a0 = a0 + a1\n    60: ret\n      : @6 (gas: 1)\n    62: trap\n      : @7 (gas: 1)\n    63: trap\n      : @8 (gas: 13)\n    64: sp = sp + 0xffffffffffffffd8\n    67: u64 [sp + 0x20] = ra\n    70: u64 [sp + 0x18] = s0\n    73: u64 [sp + 0x10] = s1\n    76: a2 = u64 [a1]\n    78: u64 [sp + 0x8] = a2\n    81: a2 = u64 [a1 + 0x8]\n    84: u64 [sp] = a2\n    86: s0 = u64 [a1 + 0x10]\n    89: s1 = u64 [a1 + 0x18]\n    92: i32 a0 = a0 + 0\n    94: a1 = 0x20\n    97: ra = 2, jump @0\n      : @9 [@dyn 1] (gas: 71)\n   101: a1 = reverse s1\n   103: a2 = reverse s0\n   105: a3 = u64 [sp]\n   107: a3 = reverse a3\n   109: a4 = u64 [sp + 0x8]\n   112: a4 = reverse a4\n   114: u8 [a0 + 0x18] = a4\n   117: u8 [a0 + 0x10] = a3\n   120: u8 [a0 + 0x8] = a2\n   123: u8 [a0] = a1\n   125: a5 = a4 >> 0x38\n   128: u8 [a0 + 0x1f] = a5\n   131: a5 = a4 >> 0x30\n   134: u8 [a0 + 0x1e] = a5\n   137: a5 = a4 >> 0x28\n   140: u8 [a0 + 0x1d] = a5\n   143: a5 = a4 >> 0x20\n   146: u8 [a0 + 0x1c] = a5\n   149: a5 = a4 >> 0x18\n   152: u8 [a0 + 0x1b] = a5\n   155: a5 = a4 >> 0x10\n   158: u8 [a0 + 0x1a] = a5\n   161: a4 = a4 >> 0x8\n   164: u8 [a0 + 0x19] = a4\n   167: a4 = a3 >> 0x38\n   170: u8 [a0 + 0x17] = a4\n   173: a4 = a3 >> 0x30\n   176: u8 [a0 + 0x16] = a4\n   179: a4 = a3 >> 0x28\n   182: u8 [a0 + 0x15] = a4\n   185: a4 = a3 >> 0x20\n   188: u8 [a0 + 0x14] = a4\n   191: a4 = a3 >> 0x18\n   194: u8 [a0 + 0x13] = a4\n   197: a4 = a3 >> 0x10\n   200: u8 [a0 + 0x12] = a4\n   203: a3 = a3 >> 0x8\n   206: u8 [a0 + 0x11] = a3\n   209: a3 = a2 >> 0x38\n   212: u8 [a0 + 0xf] = a3\n   215: a3 = a2 >> 0x30\n   218: u8 [a0 + 0xe] = a3\n   221: a3 = a2 >> 0x28\n   224: u8 [a0 + 0xd] = a3\n   227: a3 = a2 >> 0x20\n   230: u8 [a0 + 0xc] = a3\n   233: a3 = a2 >> 0x18\n   236: u8 [a0 + 0xb] = a3\n   239: a3 = a2 >> 0x10\n   242: u8 [a0 + 0xa] = a3\n   245: a2 = a2 >> 0x8\n   248: u8 [a0 + 0x9] = a2\n   251: a2 = a1 >> 0x38\n   254: u8 [a0 + 0x7] = a2\n   257: a2 = a1 >> 0x30\n   260: u8 [a0 + 0x6] = a2\n   263: a2 = a1 >> 0x28\n   266: u8 [a0 + 0x5] = a2\n   269: a2 = a1 >> 0x20\n   272: u8 [a0 + 0x4] = a2\n   275: a2 = a1 >> 0x18\n   278: u8 [a0 + 0x3] = a2\n   281: a2 = a1 >> 0x10\n   284: u8 [a0 + 0x2] = a2\n   287: a1 = a1 >> 0x8\n   290: u8 [a0 + 0x1] = a1\n   293: ra = u64 [sp + 0x20]\n   296: s0 = u64 [sp + 0x18]\n   299: s1 = u64 [sp + 0x10]\n   302: sp = sp + 0x28\n   305: ret\n      : @10 (gas: 6)\n   307: sp = sp + 0xfffffffffffffff0\n   310: u64 [sp + 0x8] = ra\n   313: u64 [sp] = s0\n   315: s0 = a0 & 0x1\n   318: ecalli 2 // 'call_data_size'\n   320: fallthrough\n      : @11 (gas: 2)\n   321: u32 [0x20024] = a0\n   326: jump @13 if s0 == 0\n      : @12 (gas: 1)\n   329: ra = 4, jump @14\n      : @13 [@dyn 2] (gas: 1)\n   333: ra = 6, jump @28\n      : @14 [@dyn 3] (gas: 9)\n   338: sp = sp + 0xffffffffffffffc0\n   341: u64 [sp + 0x38] = ra\n   344: u64 [sp + 0x30] = s0\n   347: u64 [sp + 0x28] = s1\n   350: s0 = sp + 0x40\n   353: sp = sp & 0xffffffffffffffe0\n   356: a0 = 0x40\n   359: a1 = 0x20\n   362: ra = 8, jump @0\n      : @15 [@dyn 4] (gas: 39)\n   367: u8 [a0 + 31] = 0x80\n   372: u8 [a0 + 30] = 0\n   375: u8 [a0 + 29] = 0\n   378: u8 [a0 + 28] = 0\n   381: u8 [a0 + 27] = 0\n   384: u8 [a0 + 26] = 0\n   387: u8 [a0 + 25] = 0\n   390: u8 [a0 + 24] = 0\n   393: u8 [a0 + 23] = 0\n   396: u8 [a0 + 22] = 0\n   399: u8 [a0 + 21] = 0\n   402: u8 [a0 + 20] = 0\n   405: u8 [a0 + 19] = 0\n   408: u8 [a0 + 18] = 0\n   411: u8 [a0 + 17] = 0\n   414: u8 [a0 + 16] = 0\n   417: u8 [a0 + 15] = 0\n   420: u8 [a0 + 14] = 0\n   423: u8 [a0 + 13] = 0\n   426: u8 [a0 + 12] = 0\n   429: u8 [a0 + 11] = 0\n   432: u8 [a0 + 10] = 0\n   435: u8 [a0 + 9] = 0\n   438: u8 [a0 + 8] = 0\n   441: u8 [a0 + 7] = 0\n   444: u8 [a0 + 6] = 0\n   447: u8 [a0 + 5] = 0\n   450: u8 [a0 + 4] = 0\n   453: u8 [a0 + 3] = 0\n   456: u8 [a0 + 2] = 0\n   459: u8 [a0 + 1] = 0\n   462: u8 [a0 + 0] = 0\n   464: u64 [sp + 24] = 0\n   467: u64 [sp + 0] = 0\n   469: u64 [sp + 8] = 0\n   472: u64 [sp + 16] = 0\n   475: i32 a0 = sp + 0\n   477: ecalli 10 // 'value_transferred'\n   479: fallthrough\n      : @16 (gas: 8)\n   480: a0 = u64 [sp + 0x10]\n   483: a1 = u64 [sp + 0x18]\n   486: a2 = u64 [sp + 0x8]\n   489: a3 = u64 [sp]\n   491: a1 = a1 | a2\n   494: a0 = a0 | a3\n   497: a0 = a0 | a1\n   500: jump @20 if a0 != 0\n      : @17 (gas: 3)\n   504: a0 = 0x40\n   507: a1 = 0x20\n   510: ra = 10, jump @0\n      : @18 [@dyn 5] (gas: 100)\n   515: a1 = u8 [a0 + 0x11]\n   518: a2 = u8 [a0 + 0x10]\n   521: a3 = u8 [a0 + 0x12]\n   524: a4 = u8 [a0 + 0x13]\n   527: a1 = a1 << 0x8\n   530: a1 = a1 | a2\n   533: a3 = a3 << 0x10\n   536: a4 = a4 << 0x18\n   539: a3 = a3 | a4\n   542: a1 = a1 | a3\n   545: a2 = u8 [a0 + 0x15]\n   548: a3 = u8 [a0 + 0x14]\n   551: a4 = u8 [a0 + 0x16]\n   554: a5 = u8 [a0 + 0x17]\n   557: a2 = a2 << 0x8\n   560: a2 = a2 | a3\n   563: a4 = a4 << 0x10\n   566: a5 = a5 << 0x18\n   569: a4 = a4 | a5\n   572: a2 = a2 | a4\n   575: a2 = a2 << 0x20\n   578: t0 = a2 | a1\n   581: a2 = u8 [a0 + 0x1]\n   584: a3 = u8 [a0]\n   586: a4 = u8 [a0 + 0x2]\n   589: a5 = u8 [a0 + 0x3]\n   592: a2 = a2 << 0x8\n   595: a2 = a2 | a3\n   598: a4 = a4 << 0x10\n   601: a5 = a5 << 0x18\n   604: a4 = a4 | a5\n   607: a2 = a2 | a4\n   610: a3 = u8 [a0 + 0x5]\n   613: a4 = u8 [a0 + 0x4]\n   616: a5 = u8 [a0 + 0x6]\n   619: s1 = u8 [a0 + 0x7]\n   622: a3 = a3 << 0x8\n   625: a3 = a3 | a4\n   628: a5 = a5 << 0x10\n   631: s1 = s1 << 0x18\n   634: a5 = a5 | s1\n   637: a3 = a3 | a5\n   640: a3 = a3 << 0x20\n   643: a2 = a2 | a3\n   646: a3 = u8 [a0 + 0x19]\n   649: a4 = u8 [a0 + 0x18]\n   652: a5 = u8 [a0 + 0x1a]\n   655: s1 = u8 [a0 + 0x1b]\n   658: a3 = a3 << 0x8\n   661: a3 = a3 | a4\n   664: a5 = a5 << 0x10\n   667: s1 = s1 << 0x18\n   670: a5 = a5 | s1\n   673: a3 = a3 | a5\n   676: a4 = u8 [a0 + 0x1d]\n   679: a5 = u8 [a0 + 0x1c]\n   682: s1 = u8 [a0 + 0x1e]\n   685: a1 = u8 [a0 + 0x1f]\n   688: a4 = a4 << 0x8\n   691: a4 = a4 | a5\n   694: s1 = s1 << 0x10\n   697: a1 = a1 << 0x18\n   700: a1 = a1 | s1\n   703: a1 = a1 | a4\n   706: a1 = a1 << 0x20\n   709: a3 = a3 | a1\n   712: a1 = u8 [a0 + 0x9]\n   715: a4 = u8 [a0 + 0x8]\n   718: a5 = u8 [a0 + 0xa]\n   721: s1 = u8 [a0 + 0xb]\n   724: a1 = a1 << 0x8\n   727: a1 = a1 | a4\n   730: a5 = a5 << 0x10\n   733: s1 = s1 << 0x18\n   736: a5 = a5 | s1\n   739: a1 = a1 | a5\n   742: a4 = u8 [a0 + 0xd]\n   745: a5 = u8 [a0 + 0xc]\n   748: s1 = u8 [a0 + 0xe]\n   751: a0 = u8 [a0 + 0xf]\n   754: a4 = a4 << 0x8\n   757: a4 = a4 | a5\n   760: s1 = s1 << 0x10\n   763: a0 = a0 << 0x18\n   766: a0 = a0 | s1\n   769: a0 = a0 | a4\n   772: a0 = a0 << 0x20\n   775: a0 = a0 | a1\n   778: a0 = reverse a0\n   780: s1 = reverse a3\n   782: a1 = reverse a2\n   784: a2 = reverse t0\n   786: a1 = a1 | a2\n   789: a2 = s1 | a0\n   792: a2 = a2 | a1\n   795: a2 = a2 >> 0x20\n   798: a0 = a0 | a1\n   801: a0 = a0 << 0x20\n   804: a0 = a0 | a2\n   807: jump @22 if a0 == 0\n      : @19 (gas: 1)\n   810: trap\n      : @20 (gas: 3)\n   811: a0 = 0\n   813: a1 = 0\n   815: ra = 12, jump @0\n      : @21 [@dyn 6] (gas: 5)\n   820: i32 a1 = a0 + 0\n   822: a0 = 0x1\n   825: a2 = 0\n   827: ecalli 7 // 'seal_return'\n   829: fallthrough\n      : @22 (gas: 4)\n   830: i32 s1 = s1 + 0\n   832: a0 = s1\n   834: a1 = 0\n   836: ra = 14, jump @0\n      : @23 [@dyn 7] (gas: 5)\n   841: i32 a0 = a0 + 0\n   843: a1 = 0\n   845: a2 = 0\n   847: ecalli 0 // 'call_data_copy'\n   848: fallthrough\n      : @24 (gas: 2)\n   849: a1 = i32 [0x20028]\n   854: jump @26 if a1 == 0\n      : @25 (gas: 4)\n   857: a0 = 0x30030\n   862: i32 a0 = a0 + 0\n   864: ecalli 8 // 'set_immutable_data'\n   866: fallthrough\n      : @26 (gas: 3)\n   867: a0 = s1\n   869: a1 = 0\n   871: ra = 16, jump @0\n      : @27 [@dyn 8] (gas: 6)\n   876: i32 a1 = a0 + 0\n   878: a0 = 0\n   880: a2 = 0\n   882: ra = 0x12\n   885: ecalli 7 // 'seal_return'\n   887: fallthrough\n      : @28 [@dyn 9] (gas: 8)\n   888: sp = sp + 0xffffffffffffffc0\n   891: u64 [sp + 0x38] = ra\n   894: u64 [sp + 0x30] = s0\n   897: s0 = sp + 0x40\n   900: sp = sp & 0xffffffffffffffe0\n   903: a0 = 0x40\n   906: a1 = 0x20\n   909: ra = 20, jump @0\n      : @29 [@dyn 10] (gas: 34)\n   914: u8 [a0 + 31] = 0x80\n   919: u8 [a0 + 30] = 0\n   922: u8 [a0 + 29] = 0\n   925: u8 [a0 + 28] = 0\n   928: u8 [a0 + 27] = 0\n   931: u8 [a0 + 26] = 0\n   934: u8 [a0 + 25] = 0\n   937: u8 [a0 + 24] = 0\n   940: u8 [a0 + 23] = 0\n   943: u8 [a0 + 22] = 0\n   946: u8 [a0 + 21] = 0\n   949: u8 [a0 + 20] = 0\n   952: u8 [a0 + 19] = 0\n   955: u8 [a0 + 18] = 0\n   958: u8 [a0 + 17] = 0\n   961: u8 [a0 + 16] = 0\n   964: u8 [a0 + 15] = 0\n   967: u8 [a0 + 14] = 0\n   970: u8 [a0 + 13] = 0\n   973: u8 [a0 + 12] = 0\n   976: u8 [a0 + 11] = 0\n   979: u8 [a0 + 10] = 0\n   982: u8 [a0 + 9] = 0\n   985: u8 [a0 + 8] = 0\n   988: u8 [a0 + 7] = 0\n   991: u8 [a0 + 3] = 0\n   994: u8 [a0 + 2] = 0\n   997: u8 [a0 + 1] = 0\n  1000: u8 [a0 + 0] = 0\n  1002: a1 = i32 [0x20024]\n  1007: u8 [a0 + 6] = 0\n  1010: u8 [a0 + 5] = 0\n  1013: u8 [a0 + 4] = 0\n  1016: jump @35 if a1 <u 4\n      : @30 (gas: 4)\n  1020: i32 a0 = sp + 0\n  1022: a1 = 0\n  1024: ecalli 1 // 'call_data_load'\n  1026: fallthrough\n      : @31 (gas: 2)\n  1027: a0 = i32 [sp + 0x1c]\n  1030: jump @37 if a0 == 2943375316\n      : @32 (gas: 1)\n  1038: jump @36 if a0 == 379747387\n      : @33 (gas: 1)\n  1045: jump @35 if a0 != 1581212348\n      : @34 (gas: 14)\n  1052: ra = 0x16\n  1055: sp = sp + 0xfffffffffffffea0\n  1059: u64 [sp + 0x158] = ra\n  1063: u64 [sp + 0x150] = s0\n  1067: u64 [sp + 0x148] = s1\n  1071: s0 = sp + 0x160\n  1075: sp = sp & 0xffffffffffffffe0\n  1078: u64 [sp + 280] = 0\n  1082: u64 [sp + 272] = 0\n  1086: u64 [sp + 264] = 0\n  1090: u64 [sp + 256] = 0\n  1094: i32 a0 = sp + 0x100\n  1098: ecalli 10 // 'value_transferred'\n  1100: jump @93\n      : @35 [@dyn 11] (gas: 1)\n  1103: ra = 24, jump @120\n      : @36 [@dyn 12] (gas: 14)\n  1108: ra = 0x1a\n  1111: sp = sp + 0xffffffffffffff20\n  1115: u64 [sp + 0xd8] = ra\n  1119: u64 [sp + 0xd0] = s0\n  1123: u64 [sp + 0xc8] = s1\n  1127: s0 = sp + 0xe0\n  1131: sp = sp & 0xffffffffffffffe0\n  1134: u64 [sp + 152] = 0\n  1138: u64 [sp + 144] = 0\n  1142: u64 [sp + 136] = 0\n  1146: u64 [sp + 128] = 0\n  1150: i32 a0 = sp + 0x80\n  1154: ecalli 10 // 'value_transferred'\n  1156: jump @59\n      : @37 [@dyn 13] (gas: 13)\n  1159: ra = 0x1c\n  1162: sp = sp + 0xffffffffffffff80\n  1165: u64 [sp + 0x78] = ra\n  1168: u64 [sp + 0x70] = s0\n  1171: s0 = sp + 0x80\n  1175: sp = sp & 0xffffffffffffffe0\n  1178: u64 [sp + 56] = 0\n  1181: u64 [sp + 48] = 0\n  1184: u64 [sp + 40] = 0\n  1187: u64 [sp + 32] = 0\n  1190: i32 a0 = sp + 0x20\n  1193: ecalli 10 // 'value_transferred'\n  1195: jump @110\n      : @38 [@dyn 14] (gas: 7)\n  1198: sp = sp + 0xfffffffffffffff0\n  1201: u64 [sp + 0x8] = ra\n  1204: u64 [sp] = s0\n  1206: s0 = a0\n  1208: a0 = 0x40\n  1211: a1 = 0x20\n  1214: ra = 30, jump @0\n      : @39 [@dyn 15] (gas: 100)\n  1219: a1 = u8 [a0 + 0x1]\n  1222: a2 = u8 [a0]\n  1224: a3 = u8 [a0 + 0x2]\n  1227: a4 = u8 [a0 + 0x3]\n  1230: a1 = a1 << 0x8\n  1233: a1 = a1 | a2\n  1236: a3 = a3 << 0x10\n  1239: a4 = a4 << 0x18\n  1242: a3 = a3 | a4\n  1245: a1 = a1 | a3\n  1248: a2 = u8 [a0 + 0x5]\n  1251: a3 = u8 [a0 + 0x4]\n  1254: a4 = u8 [a0 + 0x6]\n  1257: a5 = u8 [a0 + 0x7]\n  1260: a2 = a2 << 0x8\n  1263: a2 = a2 | a3\n  1266: a4 = a4 << 0x10\n  1269: a5 = a5 << 0x18\n  1272: a4 = a4 | a5\n  1275: a2 = a2 | a4\n  1278: a2 = a2 << 0x20\n  1281: t0 = a2 | a1\n  1284: a2 = u8 [a0 + 0x9]\n  1287: a3 = u8 [a0 + 0x8]\n  1290: a4 = u8 [a0 + 0xa]\n  1293: a5 = u8 [a0 + 0xb]\n  1296: a2 = a2 << 0x8\n  1299: a2 = a2 | a3\n  1302: a4 = a4 << 0x10\n  1305: a5 = a5 << 0x18\n  1308: a4 = a4 | a5\n  1311: a2 = a2 | a4\n  1314: a3 = u8 [a0 + 0xd]\n  1317: a4 = u8 [a0 + 0xc]\n  1320: a5 = u8 [a0 + 0xe]\n  1323: a1 = u8 [a0 + 0xf]\n  1326: a3 = a3 << 0x8\n  1329: a3 = a3 | a4\n  1332: a5 = a5 << 0x10\n  1335: a1 = a1 << 0x18\n  1338: a1 = a1 | a5\n  1341: a1 = a1 | a3\n  1344: a1 = a1 << 0x20\n  1347: t1 = a1 | a2\n  1350: a1 = u8 [a0 + 0x11]\n  1353: a3 = u8 [a0 + 0x10]\n  1356: a4 = u8 [a0 + 0x12]\n  1359: a5 = u8 [a0 + 0x13]\n  1362: a1 = a1 << 0x8\n  1365: a1 = a1 | a3\n  1368: a4 = a4 << 0x10\n  1371: a5 = a5 << 0x18\n  1374: a4 = a4 | a5\n  1377: a1 = a1 | a4\n  1380: a3 = u8 [a0 + 0x15]\n  1383: a4 = u8 [a0 + 0x14]\n  1386: a5 = u8 [a0 + 0x16]\n  1389: a2 = u8 [a0 + 0x17]\n  1392: a3 = a3 << 0x8\n  1395: a3 = a3 | a4\n  1398: a5 = a5 << 0x10\n  1401: a2 = a2 << 0x18\n  1404: a2 = a2 | a5\n  1407: a2 = a2 | a3\n  1410: a2 = a2 << 0x20\n  1413: a3 = a2 | a1\n  1416: a1 = u8 [a0 + 0x19]\n  1419: a2 = u8 [a0 + 0x18]\n  1422: a4 = u8 [a0 + 0x1a]\n  1425: a5 = u8 [a0 + 0x1b]\n  1428: a1 = a1 << 0x8\n  1431: a1 = a1 | a2\n  1434: a4 = a4 << 0x10\n  1437: a5 = a5 << 0x18\n  1440: a4 = a4 | a5\n  1443: a1 = a1 | a4\n  1446: a2 = u8 [a0 + 0x1d]\n  1449: a4 = u8 [a0 + 0x1c]\n  1452: a5 = u8 [a0 + 0x1e]\n  1455: a0 = u8 [a0 + 0x1f]\n  1458: a2 = a2 << 0x8\n  1461: a2 = a2 | a4\n  1464: a5 = a5 << 0x10\n  1467: a0 = a0 << 0x18\n  1470: a0 = a0 | a5\n  1473: a0 = a0 | a2\n  1476: a0 = a0 << 0x20\n  1479: a0 = a0 | a1\n  1482: a0 = reverse a0\n  1484: a1 = reverse a3\n  1486: a2 = reverse t1\n  1488: a3 = reverse t0\n  1490: u64 [s0 + 0x18] = a3\n  1493: u64 [s0 + 0x10] = a2\n  1496: u64 [s0 + 0x8] = a1\n  1499: u64 [s0] = a0\n  1501: ra = u64 [sp + 0x8]\n  1504: s0 = u64 [sp]\n  1506: sp = sp + 0x10\n  1509: ret\n      : @40 (gas: 38)\n  1511: sp = sp + 0xfffffffffffffee0\n  1515: u64 [sp + 0x118] = ra\n  1519: u64 [sp + 0x110] = s0\n  1523: u64 [sp + 0x108] = s1\n  1527: s0 = sp + 0x120\n  1531: sp = sp & 0xffffffffffffffe0\n  1534: u64 [sp + 0x40] = a0\n  1537: a0 = u64 [a2]\n  1539: u64 [sp + 0x48] = a0\n  1542: a0 = u64 [a2 + 0x8]\n  1545: u64 [sp + 0x50] = a0\n  1548: a0 = u64 [a2 + 0x10]\n  1551: u64 [sp + 0x58] = a0\n  1554: s1 = u64 [a2 + 0x18]\n  1557: a4 = u64 [a1 + 0x18]\n  1560: a3 = u64 [a1 + 0x10]\n  1563: a2 = u64 [a1 + 0x8]\n  1566: a0 = u64 [a1]\n  1568: u64 [sp + 0x18] = a4\n  1571: u64 [sp + 0xb8] = a4\n  1575: u64 [sp + 0x20] = a3\n  1578: u64 [sp + 0xb0] = a3\n  1582: u64 [sp + 0x28] = a2\n  1585: u64 [sp + 0xa8] = a2\n  1589: u64 [sp + 0x30] = a0\n  1592: u64 [sp + 0xa0] = a0\n  1596: u64 [sp + 248] = 0\n  1600: u64 [sp + 240] = 0\n  1604: u64 [sp + 232] = 0\n  1608: u64 [sp + 224] = 0\n  1612: u32 [sp + 192] = 0x20\n  1617: i32 a1 = sp + 0xa0\n  1621: i32 a3 = sp + 0xe0\n  1625: i32 a4 = sp + 0xc0\n  1629: a2 = 0xffffffffffffffff\n  1632: a0 = 0\n  1634: ecalli 5 // 'get_storage'\n  1636: fallthrough\n      : @41 (gas: 20)\n  1637: a0 = u64 [sp + 0xf8]\n  1641: t0 = u64 [sp + 0xe0]\n  1645: a2 = u64 [sp + 0xf0]\n  1649: a3 = u64 [sp + 0xe8]\n  1653: a4 = a0 ^ s1\n  1656: u64 [sp + 0x38] = s1\n  1659: a1 = s1 <u a0\n  1662: a0 = u64 [sp + 0x58]\n  1665: a5 = a0 <u a2\n  1668: a5 = a1 if a4 != 0\n  1671: a1 = u64 [sp + 0x50]\n  1674: t1 = a3 ^ a1\n  1677: a3 = a1 <u a3\n  1680: a1 = u64 [sp + 0x48]\n  1683: a1 = a1 <u t0\n  1686: a1 = a3 if t1 != 0\n  1689: a0 = a0 ^ a2\n  1692: a0 = a0 | a4\n  1695: a1 = a5 if a0 != 0\n  1698: jump @45 if a1 == 0\n      : @42 (gas: 3)\n  1702: a1 = 0x20\n  1705: a0 = 0\n  1707: ra = 32, jump @0\n      : @43 [@dyn 16] (gas: 71)\n  1712: a1 = u64 [sp + 0x18]\n  1715: a1 = reverse a1\n  1717: a2 = u64 [sp + 0x20]\n  1720: a2 = reverse a2\n  1722: a3 = u64 [sp + 0x28]\n  1725: a3 = reverse a3\n  1727: a4 = u64 [sp + 0x30]\n  1730: a4 = reverse a4\n  1732: a5 = a4 >> 0x38\n  1735: u8 [a0 + 0x1f] = a5\n  1738: a5 = a4 >> 0x30\n  1741: u8 [a0 + 0x1e] = a5\n  1744: a5 = a4 >> 0x28\n  1747: u8 [a0 + 0x1d] = a5\n  1750: a5 = a4 >> 0x20\n  1753: u8 [a0 + 0x1c] = a5\n  1756: a5 = a4 >> 0x18\n  1759: u8 [a0 + 0x1b] = a5\n  1762: a5 = a4 >> 0x10\n  1765: u8 [a0 + 0x1a] = a5\n  1768: a5 = a4 >> 0x8\n  1771: u8 [a0 + 0x19] = a5\n  1774: u8 [a0 + 0x18] = a4\n  1777: u8 [a0 + 0x10] = a3\n  1780: a4 = a3 >> 0x38\n  1783: u8 [a0 + 0x17] = a4\n  1786: a4 = a3 >> 0x30\n  1789: u8 [a0 + 0x16] = a4\n  1792: a4 = a3 >> 0x28\n  1795: u8 [a0 + 0x15] = a4\n  1798: a4 = a3 >> 0x20\n  1801: u8 [a0 + 0x14] = a4\n  1804: a4 = a3 >> 0x18\n  1807: u8 [a0 + 0x13] = a4\n  1810: a4 = a3 >> 0x10\n  1813: u8 [a0 + 0x12] = a4\n  1816: a3 = a3 >> 0x8\n  1819: u8 [a0 + 0x11] = a3\n  1822: u8 [a0 + 0x8] = a2\n  1825: a3 = a2 >> 0x38\n  1828: u8 [a0 + 0xf] = a3\n  1831: a3 = a2 >> 0x30\n  1834: u8 [a0 + 0xe] = a3\n  1837: a3 = a2 >> 0x28\n  1840: u8 [a0 + 0xd] = a3\n  1843: a3 = a2 >> 0x20\n  1846: u8 [a0 + 0xc] = a3\n  1849: a3 = a2 >> 0x18\n  1852: u8 [a0 + 0xb] = a3\n  1855: a3 = a2 >> 0x10\n  1858: u8 [a0 + 0xa] = a3\n  1861: a2 = a2 >> 0x8\n  1864: u8 [a0 + 0x9] = a2\n  1867: u8 [a0] = a1\n  1869: a2 = a1 >> 0x38\n  1872: u8 [a0 + 0x7] = a2\n  1875: a2 = a1 >> 0x30\n  1878: u8 [a0 + 0x6] = a2\n  1881: a2 = a1 >> 0x28\n  1884: u8 [a0 + 0x5] = a2\n  1887: a2 = a1 >> 0x20\n  1890: u8 [a0 + 0x4] = a2\n  1893: a2 = a1 >> 0x18\n  1896: u8 [a0 + 0x3] = a2\n  1899: a2 = a1 >> 0x10\n  1902: u8 [a0 + 0x2] = a2\n  1905: a1 = a1 >> 0x8\n  1908: u8 [a0 + 0x1] = a1\n  1911: a1 = 0x20\n  1914: a0 = 0\n  1916: ra = 34, jump @0\n      : @44 [@dyn 17] (gas: 45)\n  1921: i32 a0 = a0 + 0\n  1923: i32 a2 = sp + 0xe0\n  1927: a1 = 0x20\n  1930: ecalli 6 // 'hash_keccak_256'\n  1932: a0 = u64 [sp + 0xe0]\n  1936: a1 = u64 [sp + 0xe8]\n  1940: a2 = u64 [sp + 0xf8]\n  1944: a3 = u64 [sp + 0xf0]\n  1948: t0 = reverse a0\n  1950: a1 = reverse a1\n  1952: a2 = reverse a2\n  1954: a3 = reverse a3\n  1956: a4 = u64 [sp + 0x50]\n  1959: a4 = a4 + a3\n  1962: a5 = u64 [sp + 0x48]\n  1965: a5 = a5 + a2\n  1968: a2 = a5 <u a2\n  1971: a4 = a4 + a2\n  1974: s1 = a4 ^ a3\n  1977: a3 = a4 <u a3\n  1980: a3 = a2 if s1 == 0\n  1983: a2 = u64 [sp + 0x58]\n  1986: a2 = a2 + a1\n  1989: a3 = a3 + a2\n  1992: s1 = a3 <u a2\n  1995: a0 = u64 [sp + 0x38]\n  1998: a0 = a0 + t0\n  2001: a1 = a2 <u a1\n  2004: a0 = a0 + a1\n  2007: a0 = a0 + s1\n  2010: a1 = u64 [sp + 0x40]\n  2013: u64 [a1 + 56] = 0\n  2016: u64 [a1 + 48] = 0\n  2019: u64 [a1 + 40] = 0\n  2022: u64 [a1 + 32] = 0\n  2025: u64 [a1] = a5\n  2027: u64 [a1 + 0x8] = a4\n  2030: u64 [a1 + 0x10] = a3\n  2033: u64 [a1 + 0x18] = a0\n  2036: sp = s0 + 0xfffffffffffffee0\n  2040: ra = u64 [sp + 0x118]\n  2044: s0 = u64 [sp + 0x110]\n  2048: s1 = u64 [sp + 0x108]\n  2052: sp = sp + 0x120\n  2056: ret\n      : @45 (gas: 8)\n  2058: u64 [sp + 144] = 0\n  2062: u64 [sp + 136] = 0\n  2066: u64 [sp + 128] = 0\n  2070: a0 = 0x4e487b7100000000\n  2080: a1 = sp + 0x80\n  2084: u64 [sp + 0x98] = a0\n  2088: a0 = 0\n  2090: ra = 36, jump @8\n      : @46 [@dyn 18] (gas: 7)\n  2095: u64 [sp + 120] = 0\n  2098: u64 [sp + 112] = 0\n  2101: u64 [sp + 96] = 0x32\n  2105: a0 = 0x4\n  2108: a1 = sp + 0x60\n  2111: u64 [sp + 104] = 0\n  2114: ra = 38, jump @8\n      : @47 [@dyn 19] (gas: 3)\n  2119: a1 = 0x24\n  2122: a0 = 0\n  2124: ra = 40, jump @0\n      : @48 [@dyn 20] (gas: 6)\n  2129: i32 a1 = a0 + 0\n  2131: a0 = 0x1\n  2134: a2 = 0x24\n  2137: ra = 0x2a\n  2140: ecalli 7 // 'seal_return'\n  2142: fallthrough\n      : @49 [@dyn 21] (gas: 236)\n  2143: sp = sp + 0xffffffffffffffa0\n  2146: u64 [sp + 0x58] = ra\n  2149: u64 [sp + 0x50] = s0\n  2152: u64 [sp + 0x48] = s1\n  2155: u64 [sp] = a0\n  2157: t0 = u64 [a1]\n  2159: t1 = u64 [a2]\n  2161: a0 = u64 [a2 + 0x8]\n  2164: a3 = u64 [a2 + 0x10]\n  2167: a4 = u64 [a1 + 0x18]\n  2170: s0 = u64 [a1 + 0x10]\n  2173: a2 = u64 [a2 + 0x18]\n  2176: a1 = u64 [a1 + 0x8]\n  2179: t2 = a4 >u 0\n  2181: s1 = s0 >u 0\n  2183: s1 = t2 if a4 != 0\n  2186: ra = a1 >u 0\n  2188: a5 = t0 <u 0x100\n  2192: t2 = a5 ^ 0x1\n  2195: t2 = ra if a1 != 0\n  2198: a4 = a4 | s0\n  2201: t2 = s1 if a4 != 0\n  2204: u8 [sp + 71] = 0\n  2207: u8 [sp + 70] = 0\n  2210: u8 [sp + 69] = 0\n  2213: u8 [sp + 68] = 0\n  2216: u8 [sp + 67] = 0\n  2219: u8 [sp + 66] = 0\n  2222: u8 [sp + 65] = 0\n  2225: u8 [sp + 64] = 0\n  2228: u8 [sp + 63] = 0\n  2231: u8 [sp + 62] = 0\n  2234: u8 [sp + 61] = 0\n  2237: u8 [sp + 60] = 0\n  2240: u8 [sp + 59] = 0\n  2243: u8 [sp + 58] = 0\n  2246: u8 [sp + 57] = 0\n  2249: u8 [sp + 56] = 0\n  2252: u8 [sp + 55] = 0\n  2255: u8 [sp + 54] = 0\n  2258: u8 [sp + 53] = 0\n  2261: u8 [sp + 52] = 0\n  2264: u8 [sp + 51] = 0\n  2267: u8 [sp + 50] = 0\n  2270: u8 [sp + 49] = 0\n  2273: u8 [sp + 48] = 0\n  2276: u8 [sp + 47] = 0\n  2279: u8 [sp + 46] = 0\n  2282: u8 [sp + 45] = 0\n  2285: u8 [sp + 44] = 0\n  2288: u8 [sp + 43] = 0\n  2291: u8 [sp + 42] = 0\n  2294: u8 [sp + 41] = 0\n  2297: u8 [sp + 40] = 0\n  2300: u8 [sp + 0x20] = a2\n  2303: u8 [sp + 0x18] = a3\n  2306: u8 [sp + 0x10] = a0\n  2309: u8 [sp + 0x8] = t1\n  2312: a1 = a2 >> 0x38\n  2315: u8 [sp + 0x27] = a1\n  2318: a1 = a2 >> 0x30\n  2321: u8 [sp + 0x26] = a1\n  2324: a1 = a2 >> 0x28\n  2327: u8 [sp + 0x25] = a1\n  2330: a1 = a2 >> 0x20\n  2333: u8 [sp + 0x24] = a1\n  2336: a1 = a2 >> 0x18\n  2339: u8 [sp + 0x23] = a1\n  2342: a1 = a2 >> 0x10\n  2345: u8 [sp + 0x22] = a1\n  2348: a2 = a2 >> 0x8\n  2351: u8 [sp + 0x21] = a2\n  2354: a1 = a3 >> 0x38\n  2357: u8 [sp + 0x1f] = a1\n  2360: a1 = a3 >> 0x30\n  2363: u8 [sp + 0x1e] = a1\n  2366: a1 = a3 >> 0x28\n  2369: u8 [sp + 0x1d] = a1\n  2372: a1 = a3 >> 0x20\n  2375: u8 [sp + 0x1c] = a1\n  2378: a1 = a3 >> 0x18\n  2381: u8 [sp + 0x1b] = a1\n  2384: a1 = a3 >> 0x10\n  2387: u8 [sp + 0x1a] = a1\n  2390: a3 = a3 >> 0x8\n  2393: u8 [sp + 0x19] = a3\n  2396: a1 = a0 >> 0x38\n  2399: u8 [sp + 0x17] = a1\n  2402: a1 = a0 >> 0x30\n  2405: u8 [sp + 0x16] = a1\n  2408: a1 = a0 >> 0x28\n  2411: u8 [sp + 0x15] = a1\n  2414: a1 = a0 >> 0x20\n  2417: u8 [sp + 0x14] = a1\n  2420: a1 = a0 >> 0x18\n  2423: u8 [sp + 0x13] = a1\n  2426: a1 = a0 >> 0x10\n  2429: u8 [sp + 0x12] = a1\n  2432: a0 = a0 >> 0x8\n  2435: u8 [sp + 0x11] = a0\n  2438: a0 = t1 >> 0x38\n  2441: u8 [sp + 0xf] = a0\n  2444: a0 = t1 >> 0x30\n  2447: u8 [sp + 0xe] = a0\n  2450: a0 = t1 >> 0x28\n  2453: u8 [sp + 0xd] = a0\n  2456: a0 = t1 >> 0x20\n  2459: u8 [sp + 0xc] = a0\n  2462: a0 = t1 >> 0x18\n  2465: u8 [sp + 0xb] = a0\n  2468: a0 = t1 >> 0x10\n  2471: u8 [sp + 0xa] = a0\n  2474: a0 = t1 >> 0x8\n  2477: u8 [sp + 0x9] = a0\n  2480: a0 = t0 << 0x38\n  2483: a0 = a0 >> 0x3b\n  2486: a2 = sp + 0x8\n  2489: a2 = a2 + a0\n  2492: a0 = u8 [a2 + 0x11]\n  2495: a1 = u8 [a2 + 0x10]\n  2498: a3 = u8 [a2 + 0x12]\n  2501: a4 = u8 [a2 + 0x13]\n  2504: a0 = a0 << 0x8\n  2507: a0 = a0 | a1\n  2510: a3 = a3 << 0x10\n  2513: a4 = a4 << 0x18\n  2516: a3 = a3 | a4\n  2519: a0 = a0 | a3\n  2522: a1 = u8 [a2 + 0x15]\n  2525: a3 = u8 [a2 + 0x14]\n  2528: a4 = u8 [a2 + 0x16]\n  2531: a5 = u8 [a2 + 0x17]\n  2534: a1 = a1 << 0x8\n  2537: a1 = a1 | a3\n  2540: a4 = a4 << 0x10\n  2543: a5 = a5 << 0x18\n  2546: a4 = a4 | a5\n  2549: a1 = a1 | a4\n  2552: a1 = a1 << 0x20\n  2555: ra = a1 | a0\n  2558: a3 = t0 & 0x7\n  2561: a1 = ra >> a3\n  2564: a0 = u8 [a2 + 0x19]\n  2567: a4 = u8 [a2 + 0x18]\n  2570: s1 = u8 [a2 + 0x1a]\n  2573: s0 = u8 [a2 + 0x1b]\n  2576: a0 = a0 << 0x8\n  2579: a0 = a0 | a4\n  2582: s1 = s1 << 0x10\n  2585: s0 = s0 << 0x18\n  2588: s0 = s0 | s1\n  2591: a0 = a0 | s0\n  2594: a4 = u8 [a2 + 0x1d]\n  2597: s1 = u8 [a2 + 0x1c]\n  2600: s0 = u8 [a2 + 0x1e]\n  2603: a5 = u8 [a2 + 0x1f]\n  2606: a4 = a4 << 0x8\n  2609: a4 = a4 | s1\n  2612: s0 = s0 << 0x10\n  2615: a5 = a5 << 0x18\n  2618: a5 = a5 | s0\n  2621: a4 = a4 | a5\n  2624: a4 = a4 << 0x20\n  2627: t0 = a4 | a0\n  2630: a0 = t0 << 0x1\n  2633: t1 = a3 ^ 0x3f\n  2636: a4 = a0 << t1\n  2639: a4 = a4 | a1\n  2642: a0 = u8 [a2 + 0x9]\n  2645: a1 = u8 [a2 + 0x8]\n  2648: a5 = u8 [a2 + 0xa]\n  2651: s0 = u8 [a2 + 0xb]\n  2654: a0 = a0 << 0x8\n  2657: a0 = a0 | a1\n  2660: a5 = a5 << 0x10\n  2663: s0 = s0 << 0x18\n  2666: a5 = a5 | s0\n  2669: a0 = a0 | a5\n  2672: a1 = u8 [a2 + 0xd]\n  2675: a5 = u8 [a2 + 0xc]\n  2678: s0 = u8 [a2 + 0xe]\n  2681: s1 = u8 [a2 + 0xf]\n  2684: a1 = a1 << 0x8\n  2687: a1 = a1 | a5\n  2690: s0 = s0 << 0x10\n  2693: s1 = s1 << 0x18\n  2696: s0 = s0 | s1\n  2699: a1 = a1 | s0\n  2702: a1 = a1 << 0x20\n  2705: a1 = a1 | a0\n  2708: a0 = a1 >> a3\n  2711: ra = ra << 0x1\n  2714: a5 = a3 ^ 0xffffffffffffffff\n  2717: a5 = ra << a5\n  2720: ra = a0 | a5\n  2723: a0 = u8 [a2 + 0x1]\n  2726: s0 = u8 [a2]\n  2728: s1 = u8 [a2 + 0x2]\n  2731: a5 = u8 [a2 + 0x3]\n  2734: a0 = a0 << 0x8\n  2737: a0 = a0 | s0\n  2740: s1 = s1 << 0x10\n  2743: a5 = a5 << 0x18\n  2746: a5 = a5 | s1\n  2749: a0 = a0 | a5\n  2752: a5 = u8 [a2 + 0x5]\n  2755: s0 = u8 [a2 + 0x4]\n  2758: s1 = u8 [a2 + 0x6]\n  2761: a2 = u8 [a2 + 0x7]\n  2764: a5 = a5 << 0x8\n  2767: a5 = a5 | s0\n  2770: s1 = s1 << 0x10\n  2773: a2 = a2 << 0x18\n  2776: a2 = a2 | s1\n  2779: a2 = a2 | a5\n  2782: a2 = a2 << 0x20\n  2785: a0 = a0 | a2\n  2788: a0 = a0 >> a3\n  2791: a1 = a1 << 0x1\n  2794: a1 = a1 << t1\n  2797: a0 = a0 | a1\n  2800: a1 = t0 >> a3\n  2803: a0 = 0 if t2 != 0\n  2805: ra = 0 if t2 != 0\n  2807: a4 = 0 if t2 != 0\n  2809: a1 = 0 if t2 != 0\n  2811: a2 = u64 [sp]\n  2813: u64 [a2 + 0x18] = a1\n  2816: u64 [a2 + 0x10] = a4\n  2819: u64 [a2 + 0x8] = ra\n  2822: u64 [a2] = a0\n  2824: ra = u64 [sp + 0x58]\n  2827: s0 = u64 [sp + 0x50]\n  2830: s1 = u64 [sp + 0x48]\n  2833: sp = sp + 0x60\n  2836: ret\n      : @50 [@dyn 22] (gas: 70)\n  2838: a1 = reverse s1\n  2840: a2 = u64 [sp + 0x20]\n  2843: a2 = reverse a2\n  2845: a3 = u64 [sp + 0x28]\n  2848: a3 = reverse a3\n  2850: a4 = u64 [sp + 0x30]\n  2853: a4 = reverse a4\n  2855: a5 = a4 >> 0x38\n  2858: u8 [a0 + 0x1f] = a5\n  2861: a5 = a4 >> 0x30\n  2864: u8 [a0 + 0x1e] = a5\n  2867: a5 = a4 >> 0x28\n  2870: u8 [a0 + 0x1d] = a5\n  2873: a5 = a4 >> 0x20\n  2876: u8 [a0 + 0x1c] = a5\n  2879: a5 = a4 >> 0x18\n  2882: u8 [a0 + 0x1b] = a5\n  2885: a5 = a4 >> 0x10\n  2888: u8 [a0 + 0x1a] = a5\n  2891: a5 = a4 >> 0x8\n  2894: u8 [a0 + 0x19] = a5\n  2897: u8 [a0 + 0x18] = a4\n  2900: a4 = a3 >> 0x38\n  2903: u8 [a0 + 0x17] = a4\n  2906: a4 = a3 >> 0x30\n  2909: u8 [a0 + 0x16] = a4\n  2912: a4 = a3 >> 0x28\n  2915: u8 [a0 + 0x15] = a4\n  2918: a4 = a3 >> 0x20\n  2921: u8 [a0 + 0x14] = a4\n  2924: a4 = a3 >> 0x18\n  2927: u8 [a0 + 0x13] = a4\n  2930: a4 = a3 >> 0x10\n  2933: u8 [a0 + 0x12] = a4\n  2936: a4 = a3 >> 0x8\n  2939: u8 [a0 + 0x11] = a4\n  2942: u8 [a0 + 0x10] = a3\n  2945: a3 = a2 >> 0x38\n  2948: u8 [a0 + 0xf] = a3\n  2951: a3 = a2 >> 0x30\n  2954: u8 [a0 + 0xe] = a3\n  2957: a3 = a2 >> 0x28\n  2960: u8 [a0 + 0xd] = a3\n  2963: a3 = a2 >> 0x20\n  2966: u8 [a0 + 0xc] = a3\n  2969: a3 = a2 >> 0x18\n  2972: u8 [a0 + 0xb] = a3\n  2975: a3 = a2 >> 0x10\n  2978: u8 [a0 + 0xa] = a3\n  2981: a3 = a2 >> 0x8\n  2984: u8 [a0 + 0x9] = a3\n  2987: u8 [a0 + 0x8] = a2\n  2990: a2 = a1 >> 0x38\n  2993: u8 [a0 + 0x7] = a2\n  2996: a2 = a1 >> 0x30\n  2999: u8 [a0 + 0x6] = a2\n  3002: a2 = a1 >> 0x28\n  3005: u8 [a0 + 0x5] = a2\n  3008: a2 = a1 >> 0x20\n  3011: u8 [a0 + 0x4] = a2\n  3014: a2 = a1 >> 0x18\n  3017: u8 [a0 + 0x3] = a2\n  3020: a2 = a1 >> 0x10\n  3023: u8 [a0 + 0x2] = a2\n  3026: a2 = a1 >> 0x8\n  3029: u8 [a0 + 0x1] = a2\n  3032: u8 [a0] = a1\n  3034: a0 = 0x20\n  3037: a1 = 0x20\n  3040: ra = 46, jump @0\n      : @51 [@dyn 23] (gas: 35)\n  3045: u8 [a0 + 31] = 0\n  3048: u8 [a0 + 30] = 0\n  3051: u8 [a0 + 29] = 0\n  3054: u8 [a0 + 28] = 0\n  3057: u8 [a0 + 27] = 0\n  3060: u8 [a0 + 26] = 0\n  3063: u8 [a0 + 25] = 0\n  3066: u8 [a0 + 24] = 0\n  3069: u8 [a0 + 23] = 0\n  3072: u8 [a0 + 22] = 0\n  3075: u8 [a0 + 21] = 0\n  3078: u8 [a0 + 20] = 0\n  3081: u8 [a0 + 19] = 0\n  3084: u8 [a0 + 18] = 0\n  3087: u8 [a0 + 17] = 0\n  3090: u8 [a0 + 16] = 0\n  3093: u8 [a0 + 15] = 0\n  3096: u8 [a0 + 14] = 0\n  3099: u8 [a0 + 13] = 0\n  3102: u8 [a0 + 12] = 0\n  3105: u8 [a0 + 11] = 0\n  3108: u8 [a0 + 10] = 0\n  3111: u8 [a0 + 9] = 0\n  3114: u8 [a0 + 8] = 0\n  3117: u8 [a0 + 7] = 0\n  3120: u8 [a0 + 6] = 0\n  3123: u8 [a0 + 5] = 0\n  3126: u8 [a0 + 4] = 0\n  3129: u8 [a0 + 3] = 0\n  3132: u8 [a0 + 2] = 0\n  3135: u8 [a0 + 1] = 0\n  3138: u8 [a0 + 0] = 0\n  3140: a1 = 0x40\n  3143: a0 = 0\n  3145: ra = 48, jump @0\n      : @52 [@dyn 24] (gas: 32)\n  3150: i32 a0 = a0 + 0\n  3152: i32 a2 = sp + 0x140\n  3156: a1 = 0x40\n  3159: ecalli 6 // 'hash_keccak_256'\n  3161: a0 = u64 [sp + 0x158]\n  3165: a1 = u64 [sp + 0x150]\n  3169: a2 = u64 [sp + 0x148]\n  3173: a3 = u64 [sp + 0x140]\n  3177: a5 = reverse a0\n  3179: a4 = reverse a1\n  3181: a1 = reverse a2\n  3183: a0 = reverse a3\n  3185: u64 [sp + 0x30] = a0\n  3188: u64 [sp + 0x138] = a0\n  3192: u64 [sp + 0x28] = a1\n  3195: u64 [sp + 0x130] = a1\n  3199: u64 [sp + 0x20] = a4\n  3202: u64 [sp + 0x128] = a4\n  3206: u64 [sp + 0x18] = a5\n  3209: u64 [sp + 0x120] = a5\n  3213: u64 [sp + 344] = 0\n  3217: u64 [sp + 336] = 0\n  3221: u64 [sp + 328] = 0\n  3225: u64 [sp + 320] = 0\n  3229: u32 [sp + 352] = 0x20\n  3234: i32 a1 = sp + 0x120\n  3238: i32 a3 = sp + 0x140\n  3242: i32 a4 = sp + 0x160\n  3246: a2 = 0xffffffffffffffff\n  3249: a0 = 0\n  3251: ecalli 5 // 'get_storage'\n  3253: fallthrough\n      : @53 (gas: 20)\n  3254: t1 = u64 [sp + 0x48]\n  3257: t2 = u64 [sp + 0x40]\n  3260: t0 = u64 [sp + 0x38]\n  3263: a0 = u64 [sp + 0x158]\n  3267: a1 = u64 [sp + 0x140]\n  3271: s1 = u64 [sp + 0x150]\n  3275: a3 = u64 [sp + 0x148]\n  3279: a4 = a0 ^ t0\n  3282: a0 = t0 <u a0\n  3285: a2 = u64 [sp + 0x50]\n  3288: a5 = a2 <u s1\n  3291: a5 = a0 if a4 != 0\n  3294: a0 = a3 ^ t2\n  3297: a3 = t2 <u a3\n  3300: a1 = t1 <u a1\n  3303: a1 = a3 if a0 != 0\n  3306: a0 = s1 ^ a2\n  3309: a0 = a0 | a4\n  3312: a1 = a5 if a0 != 0\n  3315: jump @56 if a1 == 0\n      : @54 (gas: 16)\n  3319: u64 [sp + 0xa0] = t1\n  3323: a0 = u64 [sp + 0x18]\n  3326: u64 [sp + 0xc0] = a0\n  3330: u64 [sp + 0xa8] = t2\n  3334: a0 = u64 [sp + 0x20]\n  3337: u64 [sp + 0xc8] = a0\n  3341: u64 [sp + 0xb0] = a2\n  3345: a0 = u64 [sp + 0x28]\n  3348: u64 [sp + 0xd0] = a0\n  3352: u64 [sp + 0xb8] = t0\n  3356: a0 = sp + 0xe0\n  3360: a1 = sp + 0xc0\n  3364: a2 = sp + 0xa0\n  3368: a3 = u64 [sp + 0x30]\n  3371: u64 [sp + 0xd8] = a3\n  3375: ra = 50, jump @40\n      : @55 [@dyn 25] (gas: 215)\n  3380: a0 = u64 [sp + 0x118]\n  3384: u64 [sp + 0x50] = a0\n  3387: a0 = u64 [sp + 0x110]\n  3391: u64 [sp + 0x48] = a0\n  3394: s1 = u64 [sp + 0x108]\n  3398: a0 = u64 [sp + 0x100]\n  3402: u64 [sp + 0x40] = a0\n  3405: a0 = u64 [sp + 0xf8]\n  3409: a1 = u64 [sp + 0xf0]\n  3413: a2 = u64 [sp + 0xe8]\n  3417: a3 = u64 [sp + 0xe0]\n  3421: u64 [sp + 0x138] = a0\n  3425: u64 [sp + 0x130] = a1\n  3429: u64 [sp + 0x128] = a2\n  3433: u64 [sp + 0x120] = a3\n  3437: u64 [sp + 344] = 0\n  3441: u64 [sp + 336] = 0\n  3445: u64 [sp + 328] = 0\n  3449: u64 [sp + 320] = 0\n  3453: u32 [sp + 352] = 0x20\n  3458: i32 a1 = sp + 0x120\n  3462: i32 a3 = sp + 0x140\n  3466: i32 a4 = sp + 0x160\n  3470: a2 = 0xffffffffffffffff\n  3473: a0 = 0\n  3475: ecalli 5 // 'get_storage'\n  3477: a1 = u64 [sp + 0x140]\n  3481: a2 = u64 [sp + 0x148]\n  3485: t1 = u64 [sp + 0x40]\n  3488: a0 = t1 >> 0x3d\n  3491: a3 = s1 << 0x3\n  3494: a3 = a3 | a0\n  3497: s1 = s1 >> 0x3d\n  3500: a4 = u64 [sp + 0x48]\n  3503: a0 = a4 << 0x3\n  3506: s1 = s1 | a0\n  3509: a0 = a4 >> 0x3d\n  3512: a4 = u64 [sp + 0x50]\n  3515: a4 = a4 << 0x3\n  3518: a4 = a4 | a0\n  3521: a0 = t1 << 0x3\n  3524: a5 = a3 >u 0\n  3526: a0 = a0 <u 0x100\n  3530: t0 = a0 ^ 0x1\n  3533: t0 = a5 if a3 != 0\n  3536: a3 = a4 >u 0\n  3538: a5 = s1 >u 0\n  3540: a5 = a3 if a4 != 0\n  3543: a3 = u64 [sp + 0x150]\n  3547: s1 = s1 | a4\n  3550: a4 = u64 [sp + 0x158]\n  3554: t0 = a5 if s1 != 0\n  3557: u8 [sp + 159] = 0\n  3561: u8 [sp + 158] = 0\n  3565: u8 [sp + 157] = 0\n  3569: u8 [sp + 156] = 0\n  3573: u8 [sp + 155] = 0\n  3577: u8 [sp + 154] = 0\n  3581: u8 [sp + 153] = 0\n  3585: u8 [sp + 152] = 0\n  3589: u8 [sp + 151] = 0\n  3593: u8 [sp + 150] = 0\n  3597: u8 [sp + 149] = 0\n  3601: u8 [sp + 148] = 0\n  3605: u8 [sp + 147] = 0\n  3609: u8 [sp + 146] = 0\n  3613: u8 [sp + 145] = 0\n  3617: u8 [sp + 144] = 0\n  3621: u8 [sp + 143] = 0\n  3625: u8 [sp + 142] = 0\n  3629: u8 [sp + 141] = 0\n  3633: u8 [sp + 140] = 0\n  3637: u8 [sp + 139] = 0\n  3641: u8 [sp + 138] = 0\n  3645: u8 [sp + 137] = 0\n  3649: u8 [sp + 136] = 0\n  3653: u8 [sp + 135] = 0\n  3657: u8 [sp + 134] = 0\n  3661: u8 [sp + 133] = 0\n  3665: u8 [sp + 132] = 0\n  3669: u8 [sp + 131] = 0\n  3673: u8 [sp + 130] = 0\n  3677: u8 [sp + 129] = 0\n  3681: u8 [sp + 128] = 0\n  3685: u8 [sp + 0x78] = a4\n  3688: u8 [sp + 0x70] = a3\n  3691: u8 [sp + 0x68] = a2\n  3694: u8 [sp + 0x60] = a1\n  3697: a5 = a4 >> 0x38\n  3700: u8 [sp + 0x7f] = a5\n  3703: a5 = a4 >> 0x30\n  3706: u8 [sp + 0x7e] = a5\n  3709: a5 = a4 >> 0x28\n  3712: u8 [sp + 0x7d] = a5\n  3715: a5 = a4 >> 0x20\n  3718: u8 [sp + 0x7c] = a5\n  3721: a5 = a4 >> 0x18\n  3724: u8 [sp + 0x7b] = a5\n  3727: a5 = a4 >> 0x10\n  3730: u8 [sp + 0x7a] = a5\n  3733: a4 = a4 >> 0x8\n  3736: u8 [sp + 0x79] = a4\n  3739: a4 = a3 >> 0x38\n  3742: u8 [sp + 0x77] = a4\n  3745: a4 = a3 >> 0x30\n  3748: u8 [sp + 0x76] = a4\n  3751: a4 = a3 >> 0x28\n  3754: u8 [sp + 0x75] = a4\n  3757: a4 = a3 >> 0x20\n  3760: u8 [sp + 0x74] = a4\n  3763: a4 = a3 >> 0x18\n  3766: u8 [sp + 0x73] = a4\n  3769: a4 = a3 >> 0x10\n  3772: u8 [sp + 0x72] = a4\n  3775: a3 = a3 >> 0x8\n  3778: u8 [sp + 0x71] = a3\n  3781: a3 = a2 >> 0x38\n  3784: u8 [sp + 0x6f] = a3\n  3787: a3 = a2 >> 0x30\n  3790: u8 [sp + 0x6e] = a3\n  3793: a3 = a2 >> 0x28\n  3796: u8 [sp + 0x6d] = a3\n  3799: a3 = a2 >> 0x20\n  3802: u8 [sp + 0x6c] = a3\n  3805: a3 = a2 >> 0x18\n  3808: u8 [sp + 0x6b] = a3\n  3811: a3 = a2 >> 0x10\n  3814: u8 [sp + 0x6a] = a3\n  3817: a2 = a2 >> 0x8\n  3820: u8 [sp + 0x69] = a2\n  3823: a2 = a1 >> 0x38\n  3826: u8 [sp + 0x67] = a2\n  3829: a2 = a1 >> 0x30\n  3832: u8 [sp + 0x66] = a2\n  3835: a2 = a1 >> 0x28\n  3838: u8 [sp + 0x65] = a2\n  3841: a2 = a1 >> 0x20\n  3844: u8 [sp + 0x64] = a2\n  3847: a2 = a1 >> 0x18\n  3850: u8 [sp + 0x63] = a2\n  3853: a2 = a1 >> 0x10\n  3856: u8 [sp + 0x62] = a2\n  3859: a1 = a1 >> 0x8\n  3862: u8 [sp + 0x61] = a1\n  3865: a1 = t1 & 0x1f\n  3868: a2 = sp + 0x60\n  3871: a1 = a1 + a2\n  3874: a2 = u8 [a1 + 0x9]\n  3877: a3 = u8 [a1 + 0x8]\n  3880: a4 = u8 [a1 + 0xa]\n  3883: a5 = u8 [a1 + 0xb]\n  3886: a2 = a2 << 0x8\n  3889: a2 = a2 | a3\n  3892: a4 = a4 << 0x10\n  3895: a5 = a5 << 0x18\n  3898: a4 = a4 | a5\n  3901: a2 = a2 | a4\n  3904: a3 = u8 [a1 + 0xd]\n  3907: a4 = u8 [a1 + 0xc]\n  3910: a5 = u8 [a1 + 0xe]\n  3913: s1 = u8 [a1 + 0xf]\n  3916: a3 = a3 << 0x8\n  3919: a3 = a3 | a4\n  3922: a5 = a5 << 0x10\n  3925: s1 = s1 << 0x18\n  3928: a5 = a5 | s1\n  3931: a3 = a3 | a5\n  3934: a3 = a3 << 0x20\n  3937: a2 = a2 | a3\n  3940: a3 = u8 [a1 + 0x1]\n  3943: a4 = u8 [a1]\n  3945: a5 = u8 [a1 + 0x2]\n  3948: s1 = u8 [a1 + 0x3]\n  3951: a3 = a3 << 0x8\n  3954: a3 = a3 | a4\n  3957: a5 = a5 << 0x10\n  3960: s1 = s1 << 0x18\n  3963: a5 = a5 | s1\n  3966: a3 = a3 | a5\n  3969: a4 = u8 [a1 + 0x5]\n  3972: a5 = u8 [a1 + 0x4]\n  3975: s1 = u8 [a1 + 0x6]\n  3978: a0 = u8 [a1 + 0x7]\n  3981: a4 = a4 << 0x8\n  3984: a4 = a4 | a5\n  3987: s1 = s1 << 0x10\n  3990: a0 = a0 << 0x18\n  3993: a0 = a0 | s1\n  3996: a0 = a0 | a4\n  3999: a0 = a0 << 0x20\n  4002: a3 = a3 | a0\n  4005: a0 = u8 [a1 + 0x11]\n  4008: a4 = u8 [a1 + 0x10]\n  4011: a5 = u8 [a1 + 0x12]\n  4014: a1 = u8 [a1 + 0x13]\n  4017: a0 = a0 << 0x8\n  4020: a0 = a0 | a4\n  4023: a5 = a5 << 0x10\n  4026: a1 = a1 << 0x18\n  4029: a1 = a1 | a5\n  4032: a0 = a0 | a1\n  4035: a3 = 0 if t0 != 0\n  4037: a2 = 0 if t0 != 0\n  4039: a0 = 0 if t0 != 0\n  4041: a1 = u64 [sp + 0x58]\n  4044: u64 [a1 + 0x10] = a0\n  4047: u64 [a1 + 0x8] = a2\n  4050: u64 [a1] = a3\n  4052: u64 [a1 + 24] = 0\n  4055: sp = s0 + 0xfffffffffffffe80\n  4059: ra = u64 [sp + 0x178]\n  4063: s0 = u64 [sp + 0x170]\n  4067: s1 = u64 [sp + 0x168]\n  4071: sp = sp + 0x180\n  4075: ret\n      : @56 (gas: 2)\n  4077: a0 = 0\n  4079: ra = 52, jump @0\n      : @57 [@dyn 26] (gas: 6)\n  4084: i32 a1 = a0 + 0\n  4086: a0 = 0x1\n  4089: a2 = 0\n  4091: ra = 0x36\n  4094: ecalli 7 // 'seal_return'\n  4096: fallthrough\n      : @58 [@dyn 27] (gas: 8)\n  4097: a2 = u32 [a1 + 0x10]\n  4100: a3 = u64 [a1 + 0x8]\n  4103: a1 = u64 [a1]\n  4105: u64 [a0 + 24] = 0\n  4108: u64 [a0 + 0x10] = a2\n  4111: u64 [a0 + 0x8] = a3\n  4114: u64 [a0] = a1\n  4116: ret\n      : @59 (gas: 8)\n  4118: a0 = u64 [sp + 0x90]\n  4122: a1 = u64 [sp + 0x98]\n  4126: a2 = u64 [sp + 0x88]\n  4130: a3 = u64 [sp + 0x80]\n  4134: a1 = a1 | a2\n  4137: a0 = a0 | a3\n  4140: a0 = a0 | a1\n  4143: jump @65 if a0 != 0\n      : @60 (gas: 2)\n  4147: a0 = i32 [0x20024]\n  4152: jump @65 if a0 <=u 67\n      : @61 (gas: 58)\n  4157: i32 a0 = sp + 0xa0\n  4161: a1 = 0x4\n  4164: ecalli 1 // 'call_data_load'\n  4166: a0 = u64 [sp + 0xa0]\n  4170: u64 [sp + 0x18] = a0\n  4173: a0 = u64 [sp + 0xa8]\n  4177: u64 [sp + 0x10] = a0\n  4180: a0 = u64 [sp + 0xb0]\n  4184: u64 [sp + 0x8] = a0\n  4187: s1 = u64 [sp + 0xb8]\n  4191: i32 a0 = sp + 0xa0\n  4195: a1 = 0x24\n  4198: ecalli 1 // 'call_data_load'\n  4200: a0 = u64 [sp + 0xa0]\n  4204: a1 = u64 [sp + 0xa8]\n  4208: a2 = u64 [sp + 0xb0]\n  4212: a3 = u64 [sp + 0xb8]\n  4216: u64 [sp + 0x38] = a3\n  4219: u64 [sp + 0x30] = a2\n  4222: u64 [sp + 0x28] = a1\n  4225: u64 [sp + 0x20] = a0\n  4228: u64 [sp + 0x58] = s1\n  4231: a0 = u64 [sp + 0x8]\n  4234: u64 [sp + 0x50] = a0\n  4237: a0 = u64 [sp + 0x10]\n  4240: u64 [sp + 0x48] = a0\n  4243: a0 = sp + 0x60\n  4246: a1 = sp + 0x40\n  4249: a2 = sp + 0x20\n  4252: a3 = u64 [sp + 0x18]\n  4255: u64 [sp + 0x40] = a3\n  4258: ra = 0x38\n  4261: sp = sp + 0xfffffffffffffe80\n  4265: u64 [sp + 0x178] = ra\n  4269: u64 [sp + 0x170] = s0\n  4273: u64 [sp + 0x168] = s1\n  4277: s0 = sp + 0x180\n  4281: sp = sp & 0xffffffffffffffe0\n  4284: a3 = u64 [a2]\n  4286: u64 [sp + 0x48] = a3\n  4289: a3 = u64 [a2 + 0x8]\n  4292: u64 [sp + 0x40] = a3\n  4295: a3 = u64 [a2 + 0x10]\n  4298: u64 [sp + 0x50] = a3\n  4301: a2 = u64 [a2 + 0x18]\n  4304: u64 [sp + 0x38] = a2\n  4307: a2 = u64 [a1]\n  4309: u64 [sp + 0x30] = a2\n  4312: a2 = u64 [a1 + 0x8]\n  4315: u64 [sp + 0x28] = a2\n  4318: a2 = u64 [a1 + 0x10]\n  4321: u64 [sp + 0x20] = a2\n  4324: s1 = u64 [a1 + 0x18]\n  4327: u64 [sp + 0x58] = a0\n  4330: a1 = 0x20\n  4333: a0 = 0\n  4335: ra = 0x2c\n  4338: jump @0\n      : @62 [@dyn 28] (gas: 11)\n  4341: a0 = u64 [sp + 0x78]\n  4344: u64 [sp] = a0\n  4346: a0 = u64 [sp + 0x70]\n  4349: u64 [sp + 0x8] = a0\n  4352: a0 = u64 [sp + 0x68]\n  4355: u64 [sp + 0x10] = a0\n  4358: a0 = u64 [sp + 0x60]\n  4361: u64 [sp + 0x18] = a0\n  4364: a0 = 0x40\n  4367: a1 = 0x20\n  4370: ra = 58, jump @0\n      : @63 [@dyn 29] (gas: 100)\n  4375: a1 = u8 [a0 + 0x11]\n  4378: a2 = u8 [a0 + 0x10]\n  4381: a3 = u8 [a0 + 0x12]\n  4384: a4 = u8 [a0 + 0x13]\n  4387: a1 = a1 << 0x8\n  4390: a1 = a1 | a2\n  4393: a3 = a3 << 0x10\n  4396: a4 = a4 << 0x18\n  4399: a3 = a3 | a4\n  4402: a1 = a1 | a3\n  4405: a2 = u8 [a0 + 0x15]\n  4408: a3 = u8 [a0 + 0x14]\n  4411: a4 = u8 [a0 + 0x16]\n  4414: a5 = u8 [a0 + 0x17]\n  4417: a2 = a2 << 0x8\n  4420: a2 = a2 | a3\n  4423: a4 = a4 << 0x10\n  4426: a5 = a5 << 0x18\n  4429: a4 = a4 | a5\n  4432: a2 = a2 | a4\n  4435: a2 = a2 << 0x20\n  4438: t0 = a2 | a1\n  4441: a2 = u8 [a0 + 0x1]\n  4444: a3 = u8 [a0]\n  4446: a4 = u8 [a0 + 0x2]\n  4449: a5 = u8 [a0 + 0x3]\n  4452: a2 = a2 << 0x8\n  4455: a2 = a2 | a3\n  4458: a4 = a4 << 0x10\n  4461: a5 = a5 << 0x18\n  4464: a4 = a4 | a5\n  4467: a2 = a2 | a4\n  4470: a3 = u8 [a0 + 0x5]\n  4473: a4 = u8 [a0 + 0x4]\n  4476: a5 = u8 [a0 + 0x6]\n  4479: s1 = u8 [a0 + 0x7]\n  4482: a3 = a3 << 0x8\n  4485: a3 = a3 | a4\n  4488: a5 = a5 << 0x10\n  4491: s1 = s1 << 0x18\n  4494: a5 = a5 | s1\n  4497: a3 = a3 | a5\n  4500: a3 = a3 << 0x20\n  4503: a2 = a2 | a3\n  4506: a3 = u8 [a0 + 0x19]\n  4509: a4 = u8 [a0 + 0x18]\n  4512: a5 = u8 [a0 + 0x1a]\n  4515: s1 = u8 [a0 + 0x1b]\n  4518: a3 = a3 << 0x8\n  4521: a3 = a3 | a4\n  4524: a5 = a5 << 0x10\n  4527: s1 = s1 << 0x18\n  4530: a5 = a5 | s1\n  4533: a3 = a3 | a5\n  4536: a4 = u8 [a0 + 0x1d]\n  4539: a5 = u8 [a0 + 0x1c]\n  4542: s1 = u8 [a0 + 0x1e]\n  4545: a1 = u8 [a0 + 0x1f]\n  4548: a4 = a4 << 0x8\n  4551: a4 = a4 | a5\n  4554: s1 = s1 << 0x10\n  4557: a1 = a1 << 0x18\n  4560: a1 = a1 | s1\n  4563: a1 = a1 | a4\n  4566: a1 = a1 << 0x20\n  4569: a3 = a3 | a1\n  4572: a1 = u8 [a0 + 0x9]\n  4575: a4 = u8 [a0 + 0x8]\n  4578: a5 = u8 [a0 + 0xa]\n  4581: s1 = u8 [a0 + 0xb]\n  4584: a1 = a1 << 0x8\n  4587: a1 = a1 | a4\n  4590: a5 = a5 << 0x10\n  4593: s1 = s1 << 0x18\n  4596: a5 = a5 | s1\n  4599: a1 = a1 | a5\n  4602: a4 = u8 [a0 + 0xd]\n  4605: a5 = u8 [a0 + 0xc]\n  4608: s1 = u8 [a0 + 0xe]\n  4611: a0 = u8 [a0 + 0xf]\n  4614: a4 = a4 << 0x8\n  4617: a4 = a4 | a5\n  4620: s1 = s1 << 0x10\n  4623: a0 = a0 << 0x18\n  4626: a0 = a0 | s1\n  4629: a0 = a0 | a4\n  4632: a0 = a0 << 0x20\n  4635: a0 = a0 | a1\n  4638: a1 = reverse a0\n  4640: a0 = reverse a3\n  4642: a2 = reverse a2\n  4644: a3 = reverse t0\n  4646: a2 = a2 | a3\n  4649: a3 = a0 | a1\n  4652: a3 = a3 | a2\n  4655: a3 = a3 >> 0x20\n  4658: a1 = a1 | a2\n  4661: a1 = a1 << 0x20\n  4664: a1 = a1 | a3\n  4667: jump @67 if a1 == 0\n      : @64 (gas: 1)\n  4670: trap\n      : @65 (gas: 3)\n  4671: a0 = 0\n  4673: a1 = 0\n  4675: ra = 60, jump @0\n      : @66 [@dyn 30] (gas: 5)\n  4680: i32 a1 = a0 + 0\n  4682: a0 = 0x1\n  4685: a2 = 0\n  4687: ecalli 7 // 'seal_return'\n  4689: fallthrough\n      : @67 (gas: 4)\n  4690: i32 s1 = a0 + 0\n  4692: a1 = 0x20\n  4695: a0 = s1\n  4697: ra = 62, jump @0\n      : @68 [@dyn 31] (gas: 71)\n  4702: a1 = u64 [sp]\n  4704: a1 = reverse a1\n  4706: a2 = u64 [sp + 0x8]\n  4709: a2 = reverse a2\n  4711: a3 = u64 [sp + 0x10]\n  4714: a3 = reverse a3\n  4716: a4 = u64 [sp + 0x18]\n  4719: a4 = reverse a4\n  4721: a5 = a4 >> 0x38\n  4724: u8 [a0 + 0x1f] = a5\n  4727: a5 = a4 >> 0x30\n  4730: u8 [a0 + 0x1e] = a5\n  4733: a5 = a4 >> 0x28\n  4736: u8 [a0 + 0x1d] = a5\n  4739: a5 = a4 >> 0x20\n  4742: u8 [a0 + 0x1c] = a5\n  4745: a5 = a4 >> 0x18\n  4748: u8 [a0 + 0x1b] = a5\n  4751: a5 = a4 >> 0x10\n  4754: u8 [a0 + 0x1a] = a5\n  4757: a5 = a4 >> 0x8\n  4760: u8 [a0 + 0x19] = a5\n  4763: u8 [a0 + 0x18] = a4\n  4766: u8 [a0 + 0x10] = a3\n  4769: a4 = a3 >> 0x38\n  4772: u8 [a0 + 0x17] = a4\n  4775: a4 = a3 >> 0x30\n  4778: u8 [a0 + 0x16] = a4\n  4781: a4 = a3 >> 0x28\n  4784: u8 [a0 + 0x15] = a4\n  4787: a4 = a3 >> 0x20\n  4790: u8 [a0 + 0x14] = a4\n  4793: a4 = a3 >> 0x18\n  4796: u8 [a0 + 0x13] = a4\n  4799: a4 = a3 >> 0x10\n  4802: u8 [a0 + 0x12] = a4\n  4805: a3 = a3 >> 0x8\n  4808: u8 [a0 + 0x11] = a3\n  4811: u8 [a0 + 0x8] = a2\n  4814: a3 = a2 >> 0x38\n  4817: u8 [a0 + 0xf] = a3\n  4820: a3 = a2 >> 0x30\n  4823: u8 [a0 + 0xe] = a3\n  4826: a3 = a2 >> 0x28\n  4829: u8 [a0 + 0xd] = a3\n  4832: a3 = a2 >> 0x20\n  4835: u8 [a0 + 0xc] = a3\n  4838: a3 = a2 >> 0x18\n  4841: u8 [a0 + 0xb] = a3\n  4844: a3 = a2 >> 0x10\n  4847: u8 [a0 + 0xa] = a3\n  4850: a2 = a2 >> 0x8\n  4853: u8 [a0 + 0x9] = a2\n  4856: u8 [a0] = a1\n  4858: a2 = a1 >> 0x38\n  4861: u8 [a0 + 0x7] = a2\n  4864: a2 = a1 >> 0x30\n  4867: u8 [a0 + 0x6] = a2\n  4870: a2 = a1 >> 0x28\n  4873: u8 [a0 + 0x5] = a2\n  4876: a2 = a1 >> 0x20\n  4879: u8 [a0 + 0x4] = a2\n  4882: a2 = a1 >> 0x18\n  4885: u8 [a0 + 0x3] = a2\n  4888: a2 = a1 >> 0x10\n  4891: u8 [a0 + 0x2] = a2\n  4894: a1 = a1 >> 0x8\n  4897: u8 [a0 + 0x1] = a1\n  4900: a1 = 0x20\n  4903: a0 = s1\n  4905: ra = 64, jump @0\n      : @69 [@dyn 32] (gas: 6)\n  4910: i32 a1 = a0 + 0\n  4912: a2 = 0x20\n  4915: a0 = 0\n  4917: ra = 0x42\n  4920: ecalli 7 // 'seal_return'\n  4922: fallthrough\n      : @70 [@dyn 33] (gas: 52)\n  4923: sp = sp + 0xffffffffffffff80\n  4926: u64 [sp + 0x78] = ra\n  4929: u64 [sp + 0x70] = s0\n  4932: u64 [sp + 0x68] = s1\n  4935: s0 = sp + 0x80\n  4939: sp = sp & 0xffffffffffffffe0\n  4942: t2 = u64 [a1 + 0x10]\n  4945: a5 = u64 [a1 + 0x8]\n  4948: t0 = u64 [a2 + 0x8]\n  4951: s1 = u64 [a1]\n  4953: u64 [sp + 0x10] = s1\n  4956: a4 = u64 [a2]\n  4958: u64 [sp + 0x18] = a4\n  4961: ra = u64 [a2 + 0x10]\n  4964: a3 = t0 ^ a5\n  4967: u64 [sp + 0x38] = a3\n  4970: a3 = t0 <u a5\n  4973: a4 = a4 <u s1\n  4976: t1 = u64 [sp + 0x38]\n  4979: a3 = a4 if t1 == 0\n  4982: t1 = a4\n  4984: a1 = u64 [a1 + 0x18]\n  4987: u64 [sp + 0x38] = a1\n  4990: a1 = u64 [a2 + 0x18]\n  4993: u64 [sp + 0x20] = a1\n  4996: a1 = ra - t2\n  4999: a2 = a1 - a3\n  5002: u64 [sp + 0x28] = a2\n  5005: a2 = a1 <u a3\n  5008: u64 [sp + 0x30] = t2\n  5011: a3 = ra <u t2\n  5014: a1 = u64 [sp + 0x38]\n  5017: a4 = u64 [sp + 0x20]\n  5020: a1 = a4 - a1\n  5023: a1 = a1 - a3\n  5026: t2 = a1 - a2\n  5029: s1 = t0 - a5\n  5032: a2 = s1 - t1\n  5035: t0 = u64 [sp + 0x10]\n  5038: a1 = u64 [sp + 0x18]\n  5041: a3 = a1 - t0\n  5044: a4 = a2 >u 0\n  5046: a3 = a3 <u 0x20\n  5049: a3 = a3 ^ 0x1\n  5052: a3 = a4 if a2 != 0\n  5055: a2 = t2 >s 0\n  5057: a1 = u64 [sp + 0x28]\n  5060: a4 = a1 >u 0\n  5062: a4 = a2 if t2 != 0\n  5065: a1 = a1 | t2\n  5068: a3 = a4 if a1 != 0\n  5071: jump @74 if a3 == 0\n      : @71 (gas: 11)\n  5074: s1 = a0\n  5076: a2 = u64 [sp + 0x30]\n  5079: a0 = t0 | a2\n  5082: a1 = u64 [sp + 0x38]\n  5085: a1 = a1 | a5\n  5088: a0 = a0 | a1\n  5091: a0 = a0 >> 0x20\n  5094: a1 = a1 | a2\n  5097: a1 = a1 << 0x20\n  5100: a0 = a0 | a1\n  5103: jump @73 if a0 != 0\n      : @72 (gas: 17)\n  5106: i32 a1 = t0 + 0\n  5108: i32 a0 = sp + 0x40\n  5111: ecalli 1 // 'call_data_load'\n  5113: a0 = u64 [sp + 0x58]\n  5116: a1 = u64 [sp + 0x50]\n  5119: a2 = u64 [sp + 0x48]\n  5122: a3 = u64 [sp + 0x40]\n  5125: u64 [s1 + 0x18] = a0\n  5128: u64 [s1 + 0x10] = a1\n  5131: u64 [s1 + 0x8] = a2\n  5134: u64 [s1] = a3\n  5136: sp = s0 + 0xffffffffffffff80\n  5139: ra = u64 [sp + 0x78]\n  5142: s0 = u64 [sp + 0x70]\n  5145: s1 = u64 [sp + 0x68]\n  5148: sp = sp + 0x80\n  5152: ret\n      : @73 (gas: 1)\n  5154: trap\n      : @74 (gas: 3)\n  5155: a0 = 0\n  5157: a1 = 0\n  5159: ra = 68, jump @0\n      : @75 [@dyn 34] (gas: 6)\n  5164: i32 a1 = a0 + 0\n  5166: a0 = 0x1\n  5169: a2 = 0\n  5171: ra = 0x46\n  5174: ecalli 7 // 'seal_return'\n  5176: fallthrough\n      : @76 [@dyn 35] (gas: 12)\n  5177: a2 = u64 [a1 + 0x10]\n  5180: a3 = u64 [a1 + 0x18]\n  5183: a4 = u64 [a1 + 0x8]\n  5186: a1 = u64 [a1]\n  5188: a3 = a3 | a4\n  5191: a4 = a1 | a2\n  5194: a4 = a4 | a3\n  5197: a4 = a4 >> 0x20\n  5200: a2 = a2 | a3\n  5203: a2 = a2 << 0x20\n  5206: a2 = a2 | a4\n  5209: jump @79 if a2 != 0\n      : @77 (gas: 7)\n  5213: sp = sp + 0xfffffffffffffff0\n  5216: u64 [sp + 0x8] = ra\n  5219: u64 [sp] = s0\n  5221: s0 = a0\n  5223: i32 a0 = a1 + 0\n  5225: a1 = 0x20\n  5228: ra = 72, jump @0\n      : @78 [@dyn 36] (gas: 100)\n  5233: a1 = u8 [a0 + 0x1]\n  5236: a2 = u8 [a0]\n  5238: a3 = u8 [a0 + 0x2]\n  5241: a4 = u8 [a0 + 0x3]\n  5244: a1 = a1 << 0x8\n  5247: a1 = a1 | a2\n  5250: a3 = a3 << 0x10\n  5253: a4 = a4 << 0x18\n  5256: a3 = a3 | a4\n  5259: a1 = a1 | a3\n  5262: a2 = u8 [a0 + 0x5]\n  5265: a3 = u8 [a0 + 0x4]\n  5268: a4 = u8 [a0 + 0x6]\n  5271: a5 = u8 [a0 + 0x7]\n  5274: a2 = a2 << 0x8\n  5277: a2 = a2 | a3\n  5280: a4 = a4 << 0x10\n  5283: a5 = a5 << 0x18\n  5286: a4 = a4 | a5\n  5289: a2 = a2 | a4\n  5292: a2 = a2 << 0x20\n  5295: t0 = a2 | a1\n  5298: a2 = u8 [a0 + 0x9]\n  5301: a3 = u8 [a0 + 0x8]\n  5304: a4 = u8 [a0 + 0xa]\n  5307: a5 = u8 [a0 + 0xb]\n  5310: a2 = a2 << 0x8\n  5313: a2 = a2 | a3\n  5316: a4 = a4 << 0x10\n  5319: a5 = a5 << 0x18\n  5322: a4 = a4 | a5\n  5325: a2 = a2 | a4\n  5328: a3 = u8 [a0 + 0xd]\n  5331: a4 = u8 [a0 + 0xc]\n  5334: a5 = u8 [a0 + 0xe]\n  5337: a1 = u8 [a0 + 0xf]\n  5340: a3 = a3 << 0x8\n  5343: a3 = a3 | a4\n  5346: a5 = a5 << 0x10\n  5349: a1 = a1 << 0x18\n  5352: a1 = a1 | a5\n  5355: a1 = a1 | a3\n  5358: a1 = a1 << 0x20\n  5361: t1 = a1 | a2\n  5364: a1 = u8 [a0 + 0x11]\n  5367: a3 = u8 [a0 + 0x10]\n  5370: a4 = u8 [a0 + 0x12]\n  5373: a5 = u8 [a0 + 0x13]\n  5376: a1 = a1 << 0x8\n  5379: a1 = a1 | a3\n  5382: a4 = a4 << 0x10\n  5385: a5 = a5 << 0x18\n  5388: a4 = a4 | a5\n  5391: a1 = a1 | a4\n  5394: a3 = u8 [a0 + 0x15]\n  5397: a4 = u8 [a0 + 0x14]\n  5400: a5 = u8 [a0 + 0x16]\n  5403: a2 = u8 [a0 + 0x17]\n  5406: a3 = a3 << 0x8\n  5409: a3 = a3 | a4\n  5412: a5 = a5 << 0x10\n  5415: a2 = a2 << 0x18\n  5418: a2 = a2 | a5\n  5421: a2 = a2 | a3\n  5424: a2 = a2 << 0x20\n  5427: a3 = a2 | a1\n  5430: a1 = u8 [a0 + 0x19]\n  5433: a2 = u8 [a0 + 0x18]\n  5436: a4 = u8 [a0 + 0x1a]\n  5439: a5 = u8 [a0 + 0x1b]\n  5442: a1 = a1 << 0x8\n  5445: a1 = a1 | a2\n  5448: a4 = a4 << 0x10\n  5451: a5 = a5 << 0x18\n  5454: a4 = a4 | a5\n  5457: a1 = a1 | a4\n  5460: a2 = u8 [a0 + 0x1d]\n  5463: a4 = u8 [a0 + 0x1c]\n  5466: a5 = u8 [a0 + 0x1e]\n  5469: a0 = u8 [a0 + 0x1f]\n  5472: a2 = a2 << 0x8\n  5475: a2 = a2 | a4\n  5478: a5 = a5 << 0x10\n  5481: a0 = a0 << 0x18\n  5484: a0 = a0 | a5\n  5487: a0 = a0 | a2\n  5490: a0 = a0 << 0x20\n  5493: a0 = a0 | a1\n  5496: a0 = reverse a0\n  5498: a1 = reverse a3\n  5500: a2 = reverse t1\n  5502: a3 = reverse t0\n  5504: u64 [s0 + 0x18] = a3\n  5507: u64 [s0 + 0x10] = a2\n  5510: u64 [s0 + 0x8] = a1\n  5513: u64 [s0] = a0\n  5515: ra = u64 [sp + 0x8]\n  5518: s0 = u64 [sp]\n  5520: sp = sp + 0x10\n  5523: ret\n      : @79 (gas: 1)\n  5525: trap\n      : @80 (gas: 18)\n  5526: sp = sp + 0xfffffffffffffeb0\n  5530: u64 [sp + 0x148] = ra\n  5534: u64 [sp + 0x140] = s0\n  5538: u64 [sp + 0x138] = s1\n  5542: a4 = u64 [a1 + 0x10]\n  5545: a3 = u64 [a1 + 0x18]\n  5548: a5 = u64 [a1 + 0x8]\n  5551: s0 = u64 [a1]\n  5553: u64 [sp + 0xf0] = a5\n  5557: u64 [sp + 0x130] = a3\n  5561: a1 = a5 | a3\n  5564: a3 = s0 | a4\n  5567: a3 = a3 | a1\n  5570: a3 = a3 >> 0x20\n  5573: a1 = a1 | a4\n  5576: a1 = a1 << 0x20\n  5579: a1 = a1 | a3\n  5582: jump @92 if a1 != 0\n      : @81 (gas: 13)\n  5586: u64 [sp + 0xe8] = a4\n  5590: u64 [sp] = a0\n  5592: a0 = u64 [a2 + 0x18]\n  5595: u64 [sp + 0x110] = a0\n  5599: s1 = u64 [a2 + 0x10]\n  5602: a1 = u64 [a2 + 0x8]\n  5605: a0 = u64 [a2]\n  5607: u64 [sp + 0x118] = a0\n  5611: u64 [sp + 0xd8] = s0\n  5615: i32 a0 = s0 + 0\n  5617: s0 = a1\n  5619: a1 = 0x20\n  5622: ra = 74, jump @0\n      : @82 [@dyn 37] (gas: 12)\n  5627: t0 = u64 [sp + 0x118]\n  5631: a1 = t0 | s1\n  5634: u64 [sp + 0x108] = s0\n  5638: a2 = u64 [sp + 0x110]\n  5642: a2 = a2 | s0\n  5645: a1 = a1 | a2\n  5648: a1 = a1 >> 0x20\n  5651: u64 [sp + 0x100] = s1\n  5655: a2 = a2 | s1\n  5658: a2 = a2 << 0x20\n  5661: a1 = a1 | a2\n  5664: jump @92 if a1 != 0\n      : @83 (gas: 93)\n  5668: a1 = u8 [a0 + 0x19]\n  5671: a2 = u8 [a0 + 0x18]\n  5674: a3 = u8 [a0 + 0x1a]\n  5677: a4 = u8 [a0 + 0x1b]\n  5680: a1 = a1 << 0x8\n  5683: a1 = a1 | a2\n  5686: a3 = a3 << 0x10\n  5689: a4 = a4 << 0x18\n  5692: a3 = a3 | a4\n  5695: a1 = a1 | a3\n  5698: a2 = u8 [a0 + 0x1d]\n  5701: a3 = u8 [a0 + 0x1c]\n  5704: a4 = u8 [a0 + 0x1e]\n  5707: a5 = u8 [a0 + 0x1f]\n  5710: a2 = a2 << 0x8\n  5713: a2 = a2 | a3\n  5716: a4 = a4 << 0x10\n  5719: a5 = a5 << 0x18\n  5722: a4 = a4 | a5\n  5725: a2 = a2 | a4\n  5728: a2 = a2 << 0x20\n  5731: a1 = a1 | a2\n  5734: u64 [sp + 0x120] = a1\n  5738: a1 = u8 [a0 + 0x11]\n  5741: a2 = u8 [a0 + 0x10]\n  5744: a3 = u8 [a0 + 0x12]\n  5747: a4 = u8 [a0 + 0x13]\n  5750: a1 = a1 << 0x8\n  5753: a1 = a1 | a2\n  5756: a3 = a3 << 0x10\n  5759: a4 = a4 << 0x18\n  5762: a3 = a3 | a4\n  5765: a1 = a1 | a3\n  5768: a2 = u8 [a0 + 0x15]\n  5771: a3 = u8 [a0 + 0x14]\n  5774: a4 = u8 [a0 + 0x16]\n  5777: a5 = u8 [a0 + 0x17]\n  5780: a2 = a2 << 0x8\n  5783: a2 = a2 | a3\n  5786: a4 = a4 << 0x10\n  5789: a5 = a5 << 0x18\n  5792: a4 = a4 | a5\n  5795: a2 = a2 | a4\n  5798: a2 = a2 << 0x20\n  5801: a1 = a1 | a2\n  5804: u64 [sp + 0x128] = a1\n  5808: a1 = u8 [a0 + 0x9]\n  5811: a2 = u8 [a0 + 0x8]\n  5814: a3 = u8 [a0 + 0xa]\n  5817: a4 = u8 [a0 + 0xb]\n  5820: a1 = a1 << 0x8\n  5823: a1 = a1 | a2\n  5826: a3 = a3 << 0x10\n  5829: a4 = a4 << 0x18\n  5832: a3 = a3 | a4\n  5835: a1 = a1 | a3\n  5838: a2 = u8 [a0 + 0xd]\n  5841: a3 = u8 [a0 + 0xc]\n  5844: a4 = u8 [a0 + 0xe]\n  5847: a5 = u8 [a0 + 0xf]\n  5850: a2 = a2 << 0x8\n  5853: a2 = a2 | a3\n  5856: a4 = a4 << 0x10\n  5859: a5 = a5 << 0x18\n  5862: a4 = a4 | a5\n  5865: a2 = a2 | a4\n  5868: a2 = a2 << 0x20\n  5871: s0 = a2 | a1\n  5874: a1 = u8 [a0 + 0x1]\n  5877: a2 = u8 [a0]\n  5879: a3 = u8 [a0 + 0x2]\n  5882: a4 = u8 [a0 + 0x3]\n  5885: a1 = a1 << 0x8\n  5888: a1 = a1 | a2\n  5891: a3 = a3 << 0x10\n  5894: a4 = a4 << 0x18\n  5897: a3 = a3 | a4\n  5900: a1 = a1 | a3\n  5903: a2 = u8 [a0 + 0x5]\n  5906: a3 = u8 [a0 + 0x4]\n  5909: a4 = u8 [a0 + 0x6]\n  5912: a0 = u8 [a0 + 0x7]\n  5915: a2 = a2 << 0x8\n  5918: a2 = a2 | a3\n  5921: a4 = a4 << 0x10\n  5924: a0 = a0 << 0x18\n  5927: a0 = a0 | a4\n  5930: a0 = a0 | a2\n  5933: a0 = a0 << 0x20\n  5936: s1 = a0 | a1\n  5939: i32 a0 = t0 + 0\n  5941: a1 = 0x20\n  5944: ra = 76, jump @0\n      : @84 [@dyn 38] (gas: 82)\n  5949: a2 = u64 [sp + 0x128]\n  5953: u8 [a0 + 0x10] = a2\n  5956: a1 = s0 >> 0x38\n  5959: u8 [a0 + 0xf] = a1\n  5962: a1 = s0 >> 0x30\n  5965: u8 [a0 + 0xe] = a1\n  5968: a1 = s0 >> 0x28\n  5971: u8 [a0 + 0xd] = a1\n  5974: a1 = s0 >> 0x20\n  5977: u8 [a0 + 0xc] = a1\n  5980: a1 = s0 >> 0x18\n  5983: u8 [a0 + 0xb] = a1\n  5986: a1 = s0 >> 0x10\n  5989: u8 [a0 + 0xa] = a1\n  5992: a1 = s0 >> 0x8\n  5995: u8 [a0 + 0x9] = a1\n  5998: u8 [a0 + 0x8] = s0\n  6001: a1 = s1 >> 0x38\n  6004: u8 [a0 + 0x7] = a1\n  6007: a1 = s1 >> 0x30\n  6010: u8 [a0 + 0x6] = a1\n  6013: a1 = s1 >> 0x28\n  6016: u8 [a0 + 0x5] = a1\n  6019: a1 = s1 >> 0x20\n  6022: u8 [a0 + 0x4] = a1\n  6025: a1 = s1 >> 0x18\n  6028: u8 [a0 + 0x3] = a1\n  6031: a1 = s1 >> 0x10\n  6034: u8 [a0 + 0x2] = a1\n  6037: a1 = s1 >> 0x8\n  6040: u8 [a0 + 0x1] = a1\n  6043: u8 [a0] = s1\n  6045: a3 = u64 [sp + 0x120]\n  6049: u8 [a0 + 0x18] = a3\n  6052: a1 = a2 >> 0x38\n  6055: u8 [a0 + 0x17] = a1\n  6058: a1 = a2 >> 0x30\n  6061: u8 [a0 + 0x16] = a1\n  6064: a1 = a2 >> 0x28\n  6067: u8 [a0 + 0x15] = a1\n  6070: a1 = a2 >> 0x20\n  6073: u8 [a0 + 0x14] = a1\n  6076: a1 = a2 >> 0x18\n  6079: u8 [a0 + 0x13] = a1\n  6082: a1 = a2 >> 0x10\n  6085: u8 [a0 + 0x12] = a1\n  6088: a1 = a2 >> 0x8\n  6091: a4 = a2\n  6093: u8 [a0 + 0x11] = a1\n  6096: a1 = a3 >> 0x38\n  6099: u8 [a0 + 0x1f] = a1\n  6102: a1 = a3 >> 0x30\n  6105: u8 [a0 + 0x1e] = a1\n  6108: a1 = a3 >> 0x28\n  6111: u8 [a0 + 0x1d] = a1\n  6114: a1 = a3 >> 0x20\n  6117: u8 [a0 + 0x1c] = a1\n  6120: a1 = a3 >> 0x18\n  6123: u8 [a0 + 0x1b] = a1\n  6126: a1 = a3 >> 0x10\n  6129: u8 [a0 + 0x1a] = a1\n  6132: a1 = a3 >> 0x8\n  6135: u8 [a0 + 0x19] = a1\n  6138: a0 = u64 [sp + 0x118]\n  6142: t1 = a0 + 0x20\n  6145: a2 = t1 <u a0\n  6148: a0 = a3\n  6150: a3 = u64 [sp + 0x108]\n  6154: t2 = a3 + a2\n  6157: a3 = t2 <u a3\n  6160: a3 = a2 if a2 == 0\n  6163: a5 = u64 [sp + 0x100]\n  6167: ra = a5 + a3\n  6170: a3 = s1 | a4\n  6173: u64 [sp + 0xd0] = s0\n  6177: a4 = s0 | a0\n  6180: a4 = a4 | a3\n  6183: a3 = ra <u a5\n  6186: t0 = u64 [sp + 0x110]\n  6190: a5 = t0 + a3\n  6193: u64 [sp + 0xf8] = a5\n  6197: jump @91 if a4 == 0\n      : @85 (gas: 21)\n  6201: a0 = 0\n  6203: a1 = 0\n  6205: u64 [sp + 224] = 0\n  6209: a2 = 0\n  6211: a3 = reverse s1\n  6213: u64 [sp + 0x20] = a3\n  6216: a3 = u64 [sp + 0xd0]\n  6220: a3 = reverse a3\n  6222: u64 [sp + 0x18] = a3\n  6225: a3 = u64 [sp + 0x128]\n  6229: a3 = reverse a3\n  6231: u64 [sp + 0x10] = a3\n  6234: a3 = u64 [sp + 0x120]\n  6238: a3 = reverse a3\n  6240: u64 [sp + 0x8] = a3\n  6243: a4 = 0xffffffe0\n  6253: u64 [sp + 0x28] = a4\n  6256: t0 = u64 [sp + 0xe8]\n  6260: a3 = u64 [sp + 0xf0]\n  6264: s0 = u64 [sp + 0xd8]\n  6268: fallthrough\n      : @86 (gas: 16)\n  6269: u64 [sp + 0xc8] = a2\n  6273: u64 [sp + 0xd0] = a1\n  6277: u64 [sp + 0xd8] = a0\n  6281: a4 = u64 [sp + 0x130]\n  6285: a4 = t0 | a4\n  6288: s1 = u64 [sp + 0x28]\n  6291: a5 = s0 <u s1\n  6294: u64 [sp + 0xf0] = a3\n  6298: a5 = 0 if a3 != 0\n  6300: a5 = 0 if a4 != 0\n  6302: a0 = u64 [sp + 0xf8]\n  6306: u64 [sp + 0xc0] = a0\n  6310: u64 [sp + 0xb8] = ra\n  6314: u64 [sp + 0xb0] = t2\n  6318: u64 [sp + 0x128] = t1\n  6322: jump @92 if a5 == 0\n      : @87 (gas: 6)\n  6326: u64 [sp + 0xe8] = t0\n  6330: a0 = s0 + 0x20\n  6333: u64 [sp + 0x120] = a0\n  6337: i32 a0 = a0 + 0\n  6339: a1 = 0x20\n  6342: ra = 78, jump @0\n      : @88 [@dyn 39] (gas: 9)\n  6347: a1 = u64 [sp + 0x100]\n  6351: a2 = u64 [sp + 0x110]\n  6355: a1 = a1 | a2\n  6358: a2 = u64 [sp + 0x118]\n  6362: a2 = a2 <u s1\n  6365: a3 = u64 [sp + 0x108]\n  6369: a2 = 0 if a3 != 0\n  6371: a2 = 0 if a1 != 0\n  6373: jump @92 if a2 == 0\n      : @89 (gas: 58)\n  6377: a1 = u64 [sp + 0x120]\n  6381: a2 = a1 <u s0\n  6384: s0 = u64 [sp + 0xf0]\n  6388: a1 = s0 + a2\n  6391: u64 [sp + 0x118] = a1\n  6395: a1 = a1 <u s0\n  6398: a1 = a2 if a2 == 0\n  6401: a2 = u8 [a0 + 0xc]\n  6404: u64 [sp + 0x108] = a2\n  6408: a2 = u8 [a0 + 0xd]\n  6411: u64 [sp + 0x100] = a2\n  6415: a2 = u8 [a0 + 0xe]\n  6418: u64 [sp + 0xf8] = a2\n  6422: a2 = u8 [a0 + 0xf]\n  6425: u64 [sp + 0xf0] = a2\n  6429: a2 = u8 [a0 + 0x10]\n  6432: u64 [sp + 0xa8] = a2\n  6436: a2 = u8 [a0 + 0x11]\n  6439: u64 [sp + 0xa0] = a2\n  6443: a2 = u8 [a0 + 0x12]\n  6446: u64 [sp + 0x98] = a2\n  6450: a2 = u8 [a0 + 0x13]\n  6453: u64 [sp + 0x90] = a2\n  6457: a2 = u8 [a0 + 0x14]\n  6460: u64 [sp + 0x88] = a2\n  6464: a2 = u8 [a0 + 0x15]\n  6467: u64 [sp + 0x80] = a2\n  6471: a2 = u8 [a0 + 0x16]\n  6474: u64 [sp + 0x78] = a2\n  6477: a2 = u8 [a0 + 0x17]\n  6480: u64 [sp + 0x70] = a2\n  6483: a2 = u8 [a0 + 0x18]\n  6486: u64 [sp + 0x68] = a2\n  6489: a2 = u8 [a0 + 0x19]\n  6492: u64 [sp + 0x60] = a2\n  6495: a2 = u8 [a0 + 0x1a]\n  6498: u64 [sp + 0x58] = a2\n  6501: a2 = u8 [a0 + 0x1b]\n  6504: u64 [sp + 0x50] = a2\n  6507: a2 = u8 [a0 + 0x1c]\n  6510: u64 [sp + 0x48] = a2\n  6513: a2 = u8 [a0 + 0x1d]\n  6516: u64 [sp + 0x40] = a2\n  6519: a2 = u8 [a0 + 0x1e]\n  6522: u64 [sp + 0x38] = a2\n  6525: a0 = u8 [a0 + 0x1f]\n  6528: u64 [sp + 0x30] = a0\n  6531: s1 = u64 [sp + 0xe8]\n  6535: a1 = a1 + s1\n  6538: u64 [sp + 0x110] = a1\n  6542: a0 = a1 <u s1\n  6545: a1 = u64 [sp + 0x130]\n  6549: a1 = a1 + a0\n  6552: u64 [sp + 0x130] = a1\n  6556: s0 = u64 [sp + 0x128]\n  6560: i32 a0 = s0 + 0\n  6562: a1 = 0x20\n  6565: ra = 80, jump @0\n      : @90 [@dyn 40] (gas: 110)\n  6570: a1 = u64 [sp + 0x30]\n  6573: u8 [a0 + 0x1f] = a1\n  6576: a1 = u64 [sp + 0x38]\n  6579: u8 [a0 + 0x1e] = a1\n  6582: a1 = u64 [sp + 0x40]\n  6585: u8 [a0 + 0x1d] = a1\n  6588: a1 = u64 [sp + 0x48]\n  6591: u8 [a0 + 0x1c] = a1\n  6594: a1 = u64 [sp + 0x50]\n  6597: u8 [a0 + 0x1b] = a1\n  6600: a1 = u64 [sp + 0x58]\n  6603: u8 [a0 + 0x1a] = a1\n  6606: a1 = u64 [sp + 0x60]\n  6609: u8 [a0 + 0x19] = a1\n  6612: a1 = u64 [sp + 0x68]\n  6615: u8 [a0 + 0x18] = a1\n  6618: a1 = u64 [sp + 0x70]\n  6621: u8 [a0 + 0x17] = a1\n  6624: a1 = u64 [sp + 0x78]\n  6627: u8 [a0 + 0x16] = a1\n  6630: a1 = u64 [sp + 0x80]\n  6634: u8 [a0 + 0x15] = a1\n  6637: a1 = u64 [sp + 0x88]\n  6641: u8 [a0 + 0x14] = a1\n  6644: a1 = u64 [sp + 0x90]\n  6648: u8 [a0 + 0x13] = a1\n  6651: a1 = u64 [sp + 0x98]\n  6655: u8 [a0 + 0x12] = a1\n  6658: a1 = u64 [sp + 0xa0]\n  6662: u8 [a0 + 0x11] = a1\n  6665: a1 = u64 [sp + 0xa8]\n  6669: u8 [a0 + 0x10] = a1\n  6672: a1 = u64 [sp + 0xf0]\n  6676: u8 [a0 + 0xf] = a1\n  6679: a1 = u64 [sp + 0xf8]\n  6683: u8 [a0 + 0xe] = a1\n  6686: a1 = u64 [sp + 0x100]\n  6690: u8 [a0 + 0xd] = a1\n  6693: a1 = u64 [sp + 0x108]\n  6697: u8 [a0 + 0xc] = a1\n  6700: u8 [a0 + 11] = 0\n  6703: u8 [a0 + 10] = 0\n  6706: u8 [a0 + 9] = 0\n  6709: u8 [a0 + 8] = 0\n  6712: u8 [a0 + 7] = 0\n  6715: u8 [a0 + 6] = 0\n  6718: u8 [a0 + 5] = 0\n  6721: u8 [a0 + 4] = 0\n  6724: u8 [a0 + 3] = 0\n  6727: u8 [a0 + 2] = 0\n  6730: u8 [a0 + 1] = 0\n  6733: u8 [a0 + 0] = 0\n  6735: t1 = u64 [sp + 0xd8]\n  6739: t1 = t1 + 0x1\n  6742: a0 = t1 <u 0x1\n  6745: t2 = u64 [sp + 0xd0]\n  6749: t2 = t2 + a0\n  6752: a0 = t1 | t2\n  6755: a4 = a0 <u 0x1\n  6758: a0 = u64 [sp + 0xe0]\n  6762: a4 = a4 + a0\n  6765: a0 = a4 <u a0\n  6768: ra = u64 [sp + 0xc8]\n  6772: ra = ra + a0\n  6775: a0 = u64 [sp + 0x8]\n  6778: a0 = t1 <u a0\n  6781: a2 = u64 [sp + 0x10]\n  6784: a1 = t2 ^ a2\n  6787: a2 = t2 <u a2\n  6790: a2 = a0 if a1 == 0\n  6793: a0 = u64 [sp + 0x18]\n  6796: s1 = a4 <u a0\n  6799: a3 = u64 [sp + 0x20]\n  6802: a1 = ra ^ a3\n  6805: a5 = ra <u a3\n  6808: a5 = s1 if a1 == 0\n  6811: a0 = a0 ^ a4\n  6814: a1 = a1 | a0\n  6817: a0 = s0 + 0x20\n  6820: u64 [sp + 0xf0] = a0\n  6824: a5 = a2 if a1 == 0\n  6827: a2 = a0 <u s0\n  6830: s1 = u64 [sp + 0xb0]\n  6834: a0 = s1 + a2\n  6837: u64 [sp + 0xe8] = a0\n  6841: a3 = a0 <u s1\n  6844: a3 = a2 if a2 == 0\n  6847: a1 = u64 [sp + 0xb8]\n  6851: a3 = a3 + a1\n  6854: u64 [sp + 0xd8] = a3\n  6858: a3 = a3 <u a1\n  6861: a0 = u64 [sp + 0xc0]\n  6865: a3 = a3 + a0\n  6868: u64 [sp + 0xf8] = a3\n  6872: u64 [sp + 0xe0] = a4\n  6876: s0 = u64 [sp + 0x120]\n  6880: a3 = u64 [sp + 0x118]\n  6884: t0 = u64 [sp + 0x110]\n  6888: a2 = u64 [sp + 0x128]\n  6892: u64 [sp + 0x118] = a2\n  6896: u64 [sp + 0x108] = s1\n  6900: u64 [sp + 0x100] = a1\n  6904: u64 [sp + 0x110] = a0\n  6908: a0 = t1\n  6910: t1 = u64 [sp + 0xf0]\n  6914: a1 = t2\n  6916: t2 = u64 [sp + 0xe8]\n  6920: a2 = ra\n  6922: ra = u64 [sp + 0xd8]\n  6926: jump @86 if a5 != 0\n      : @91 (gas: 11)\n  6930: a4 = u64 [sp]\n  6932: u64 [a4] = t1\n  6934: u64 [a4 + 0x8] = t2\n  6937: u64 [a4 + 0x10] = ra\n  6940: a0 = u64 [sp + 0xf8]\n  6944: u64 [a4 + 0x18] = a0\n  6947: ra = u64 [sp + 0x148]\n  6951: s0 = u64 [sp + 0x140]\n  6955: s1 = u64 [sp + 0x138]\n  6959: sp = sp + 0x150\n  6963: ret\n      : @92 (gas: 1)\n  6965: trap\n      : @93 (gas: 8)\n  6966: a0 = u64 [sp + 0x110]\n  6970: a1 = u64 [sp + 0x118]\n  6974: a2 = u64 [sp + 0x108]\n  6978: a3 = u64 [sp + 0x100]\n  6982: a1 = a1 | a2\n  6985: a0 = a0 | a3\n  6988: a0 = a0 | a1\n  6991: jump @105 if a0 != 0\n      : @94 (gas: 2)\n  6995: a0 = i32 [0x20024]\n  7000: jump @105 if a0 <=u 35\n      : @95 (gas: 13)\n  7005: i32 a0 = sp + 0x120\n  7009: a1 = 0x4\n  7012: ecalli 1 // 'call_data_load'\n  7014: a0 = u64 [sp + 0x120]\n  7018: u64 [sp + 0x58] = a0\n  7021: a0 = u64 [sp + 0x128]\n  7025: u64 [sp + 0x50] = a0\n  7028: a0 = u64 [sp + 0x130]\n  7032: u64 [sp + 0x48] = a0\n  7035: s1 = u64 [sp + 0x138]\n  7039: a1 = 0x20\n  7042: a0 = 0\n  7044: ra = 82, jump @0\n      : @96 [@dyn 41] (gas: 70)\n  7049: a1 = reverse s1\n  7051: a2 = u64 [sp + 0x48]\n  7054: a2 = reverse a2\n  7056: a3 = u64 [sp + 0x50]\n  7059: a3 = reverse a3\n  7061: a4 = u64 [sp + 0x58]\n  7064: a4 = reverse a4\n  7066: a5 = a4 >> 0x38\n  7069: u8 [a0 + 0x1f] = a5\n  7072: a5 = a4 >> 0x30\n  7075: u8 [a0 + 0x1e] = a5\n  7078: a5 = a4 >> 0x28\n  7081: u8 [a0 + 0x1d] = a5\n  7084: a5 = a4 >> 0x20\n  7087: u8 [a0 + 0x1c] = a5\n  7090: a5 = a4 >> 0x18\n  7093: u8 [a0 + 0x1b] = a5\n  7096: a5 = a4 >> 0x10\n  7099: u8 [a0 + 0x1a] = a5\n  7102: a5 = a4 >> 0x8\n  7105: u8 [a0 + 0x19] = a5\n  7108: u8 [a0 + 0x18] = a4\n  7111: a4 = a3 >> 0x38\n  7114: u8 [a0 + 0x17] = a4\n  7117: a4 = a3 >> 0x30\n  7120: u8 [a0 + 0x16] = a4\n  7123: a4 = a3 >> 0x28\n  7126: u8 [a0 + 0x15] = a4\n  7129: a4 = a3 >> 0x20\n  7132: u8 [a0 + 0x14] = a4\n  7135: a4 = a3 >> 0x18\n  7138: u8 [a0 + 0x13] = a4\n  7141: a4 = a3 >> 0x10\n  7144: u8 [a0 + 0x12] = a4\n  7147: a4 = a3 >> 0x8\n  7150: u8 [a0 + 0x11] = a4\n  7153: u8 [a0 + 0x10] = a3\n  7156: a3 = a2 >> 0x38\n  7159: u8 [a0 + 0xf] = a3\n  7162: a3 = a2 >> 0x30\n  7165: u8 [a0 + 0xe] = a3\n  7168: a3 = a2 >> 0x28\n  7171: u8 [a0 + 0xd] = a3\n  7174: a3 = a2 >> 0x20\n  7177: u8 [a0 + 0xc] = a3\n  7180: a3 = a2 >> 0x18\n  7183: u8 [a0 + 0xb] = a3\n  7186: a3 = a2 >> 0x10\n  7189: u8 [a0 + 0xa] = a3\n  7192: a3 = a2 >> 0x8\n  7195: u8 [a0 + 0x9] = a3\n  7198: u8 [a0 + 0x8] = a2\n  7201: a2 = a1 >> 0x38\n  7204: u8 [a0 + 0x7] = a2\n  7207: a2 = a1 >> 0x30\n  7210: u8 [a0 + 0x6] = a2\n  7213: a2 = a1 >> 0x28\n  7216: u8 [a0 + 0x5] = a2\n  7219: a2 = a1 >> 0x20\n  7222: u8 [a0 + 0x4] = a2\n  7225: a2 = a1 >> 0x18\n  7228: u8 [a0 + 0x3] = a2\n  7231: a2 = a1 >> 0x10\n  7234: u8 [a0 + 0x2] = a2\n  7237: a2 = a1 >> 0x8\n  7240: u8 [a0 + 0x1] = a2\n  7243: u8 [a0] = a1\n  7245: a0 = 0x20\n  7248: a1 = 0x20\n  7251: ra = 84, jump @0\n      : @97 [@dyn 42] (gas: 35)\n  7256: u8 [a0 + 31] = 0\n  7259: u8 [a0 + 30] = 0\n  7262: u8 [a0 + 29] = 0\n  7265: u8 [a0 + 28] = 0\n  7268: u8 [a0 + 27] = 0\n  7271: u8 [a0 + 26] = 0\n  7274: u8 [a0 + 25] = 0\n  7277: u8 [a0 + 24] = 0\n  7280: u8 [a0 + 23] = 0\n  7283: u8 [a0 + 22] = 0\n  7286: u8 [a0 + 21] = 0\n  7289: u8 [a0 + 20] = 0\n  7292: u8 [a0 + 19] = 0\n  7295: u8 [a0 + 18] = 0\n  7298: u8 [a0 + 17] = 0\n  7301: u8 [a0 + 16] = 0\n  7304: u8 [a0 + 15] = 0\n  7307: u8 [a0 + 14] = 0\n  7310: u8 [a0 + 13] = 0\n  7313: u8 [a0 + 12] = 0\n  7316: u8 [a0 + 11] = 0\n  7319: u8 [a0 + 10] = 0\n  7322: u8 [a0 + 9] = 0\n  7325: u8 [a0 + 8] = 0\n  7328: u8 [a0 + 7] = 0\n  7331: u8 [a0 + 6] = 0\n  7334: u8 [a0 + 5] = 0\n  7337: u8 [a0 + 4] = 0\n  7340: u8 [a0 + 3] = 0\n  7343: u8 [a0 + 2] = 0\n  7346: u8 [a0 + 1] = 0\n  7349: u8 [a0 + 0] = 0\n  7351: a1 = 0x40\n  7354: a0 = 0\n  7356: ra = 86, jump @0\n      : @98 [@dyn 43] (gas: 19)\n  7361: i32 a0 = a0 + 0\n  7363: i32 a2 = sp + 0x120\n  7367: a1 = 0x40\n  7370: ecalli 6 // 'hash_keccak_256'\n  7372: a0 = u64 [sp + 0x138]\n  7376: a1 = u64 [sp + 0x130]\n  7380: a2 = u64 [sp + 0x128]\n  7384: a3 = u64 [sp + 0x120]\n  7388: a4 = reverse a0\n  7390: a0 = reverse a1\n  7392: a1 = reverse a2\n  7394: a2 = reverse a3\n  7396: u64 [sp + 0xd8] = a2\n  7400: u64 [sp + 0xd0] = a1\n  7404: u64 [sp + 0xc8] = a0\n  7408: a0 = sp + 0xe0\n  7412: a1 = sp + 0xc0\n  7416: u64 [sp + 0xc0] = a4\n  7420: ra = 88, jump @142\n      : @99 [@dyn 44] (gas: 11)\n  7425: a0 = u64 [sp + 0xf8]\n  7429: u64 [sp + 0x40] = a0\n  7432: a0 = u64 [sp + 0xf0]\n  7436: u64 [sp + 0x48] = a0\n  7439: a0 = u64 [sp + 0xe8]\n  7443: u64 [sp + 0x50] = a0\n  7446: a0 = u64 [sp + 0xe0]\n  7450: u64 [sp + 0x58] = a0\n  7453: a0 = 0x40\n  7456: a1 = 0x20\n  7459: ra = 90, jump @0\n      : @100 [@dyn 45] (gas: 100)\n  7464: a1 = u8 [a0 + 0x11]\n  7467: a2 = u8 [a0 + 0x10]\n  7470: a3 = u8 [a0 + 0x12]\n  7473: a4 = u8 [a0 + 0x13]\n  7476: a1 = a1 << 0x8\n  7479: a1 = a1 | a2\n  7482: a3 = a3 << 0x10\n  7485: a4 = a4 << 0x18\n  7488: a3 = a3 | a4\n  7491: a1 = a1 | a3\n  7494: a2 = u8 [a0 + 0x15]\n  7497: a3 = u8 [a0 + 0x14]\n  7500: a4 = u8 [a0 + 0x16]\n  7503: a5 = u8 [a0 + 0x17]\n  7506: a2 = a2 << 0x8\n  7509: a2 = a2 | a3\n  7512: a4 = a4 << 0x10\n  7515: a5 = a5 << 0x18\n  7518: a4 = a4 | a5\n  7521: a2 = a2 | a4\n  7524: a2 = a2 << 0x20\n  7527: t0 = a2 | a1\n  7530: a2 = u8 [a0 + 0x1]\n  7533: a3 = u8 [a0]\n  7535: a4 = u8 [a0 + 0x2]\n  7538: a5 = u8 [a0 + 0x3]\n  7541: a2 = a2 << 0x8\n  7544: a2 = a2 | a3\n  7547: a4 = a4 << 0x10\n  7550: a5 = a5 << 0x18\n  7553: a4 = a4 | a5\n  7556: a2 = a2 | a4\n  7559: a3 = u8 [a0 + 0x5]\n  7562: a4 = u8 [a0 + 0x4]\n  7565: a5 = u8 [a0 + 0x6]\n  7568: s1 = u8 [a0 + 0x7]\n  7571: a3 = a3 << 0x8\n  7574: a3 = a3 | a4\n  7577: a5 = a5 << 0x10\n  7580: s1 = s1 << 0x18\n  7583: a5 = a5 | s1\n  7586: a3 = a3 | a5\n  7589: a3 = a3 << 0x20\n  7592: a2 = a2 | a3\n  7595: a3 = u8 [a0 + 0x19]\n  7598: a4 = u8 [a0 + 0x18]\n  7601: a5 = u8 [a0 + 0x1a]\n  7604: s1 = u8 [a0 + 0x1b]\n  7607: a3 = a3 << 0x8\n  7610: a3 = a3 | a4\n  7613: a5 = a5 << 0x10\n  7616: s1 = s1 << 0x18\n  7619: a5 = a5 | s1\n  7622: a3 = a3 | a5\n  7625: a4 = u8 [a0 + 0x1d]\n  7628: a5 = u8 [a0 + 0x1c]\n  7631: s1 = u8 [a0 + 0x1e]\n  7634: a1 = u8 [a0 + 0x1f]\n  7637: a4 = a4 << 0x8\n  7640: a4 = a4 | a5\n  7643: s1 = s1 << 0x10\n  7646: a1 = a1 << 0x18\n  7649: a1 = a1 | s1\n  7652: a1 = a1 | a4\n  7655: a1 = a1 << 0x20\n  7658: a3 = a3 | a1\n  7661: a1 = u8 [a0 + 0x9]\n  7664: a4 = u8 [a0 + 0x8]\n  7667: a5 = u8 [a0 + 0xa]\n  7670: s1 = u8 [a0 + 0xb]\n  7673: a1 = a1 << 0x8\n  7676: a1 = a1 | a4\n  7679: a5 = a5 << 0x10\n  7682: s1 = s1 << 0x18\n  7685: a5 = a5 | s1\n  7688: a1 = a1 | a5\n  7691: a4 = u8 [a0 + 0xd]\n  7694: a5 = u8 [a0 + 0xc]\n  7697: s1 = u8 [a0 + 0xe]\n  7700: a0 = u8 [a0 + 0xf]\n  7703: a4 = a4 << 0x8\n  7706: a4 = a4 | a5\n  7709: s1 = s1 << 0x10\n  7712: a0 = a0 << 0x18\n  7715: a0 = a0 | s1\n  7718: a0 = a0 | a4\n  7721: a0 = a0 << 0x20\n  7724: a0 = a0 | a1\n  7727: s1 = reverse a0\n  7729: a3 = reverse a3\n  7731: a4 = reverse a2\n  7733: a2 = reverse t0\n  7735: a0 = a2 | a4\n  7738: a1 = a3 | s1\n  7741: a1 = a1 | a0\n  7744: a1 = a1 >> 0x20\n  7747: a0 = a0 | s1\n  7750: a0 = a0 << 0x20\n  7753: a0 = a0 | a1\n  7756: jump @104 if a0 != 0\n      : @101 (gas: 19)\n  7760: a0 = a3 + 0x20\n  7763: u64 [sp + 0x18] = a0\n  7766: a0 = a0 <u a3\n  7769: a1 = a2 + a0\n  7772: u64 [sp + 0x8] = a1\n  7775: a1 = a1 <u a2\n  7778: a1 = a0 if a0 == 0\n  7781: a1 = a1 + s1\n  7784: u64 [sp + 0x10] = a1\n  7787: a0 = a1 <u s1\n  7790: a0 = a0 + a4\n  7793: u64 [sp + 0x20] = a0\n  7796: i32 a0 = a3 + 0\n  7798: a1 = 0x20\n  7801: u64 [sp] = a0\n  7803: u64 [sp + 0x30] = a3\n  7806: u64 [sp + 0x28] = a2\n  7809: u64 [sp + 0x38] = a4\n  7812: ra = 92, jump @0\n      : @102 [@dyn 46] (gas: 52)\n  7817: u8 [a0 + 31] = 0x20\n  7821: u8 [a0 + 30] = 0\n  7824: u8 [a0 + 29] = 0\n  7827: u8 [a0 + 28] = 0\n  7830: u8 [a0 + 27] = 0\n  7833: u8 [a0 + 26] = 0\n  7836: u8 [a0 + 25] = 0\n  7839: u8 [a0 + 24] = 0\n  7842: u8 [a0 + 23] = 0\n  7845: u8 [a0 + 22] = 0\n  7848: u8 [a0 + 21] = 0\n  7851: u8 [a0 + 20] = 0\n  7854: u8 [a0 + 19] = 0\n  7857: u8 [a0 + 18] = 0\n  7860: u8 [a0 + 17] = 0\n  7863: u8 [a0 + 16] = 0\n  7866: u8 [a0 + 15] = 0\n  7869: u8 [a0 + 14] = 0\n  7872: u8 [a0 + 13] = 0\n  7875: u8 [a0 + 12] = 0\n  7878: u8 [a0 + 11] = 0\n  7881: u8 [a0 + 10] = 0\n  7884: u8 [a0 + 9] = 0\n  7887: u8 [a0 + 8] = 0\n  7890: u8 [a0 + 7] = 0\n  7893: u8 [a0 + 6] = 0\n  7896: u8 [a0 + 5] = 0\n  7899: u8 [a0 + 4] = 0\n  7902: u8 [a0 + 3] = 0\n  7905: u8 [a0 + 2] = 0\n  7908: u8 [a0 + 1] = 0\n  7911: u8 [a0 + 0] = 0\n  7913: a0 = u64 [sp + 0x8]\n  7916: u64 [sp + 0x68] = a0\n  7919: a0 = u64 [sp + 0x18]\n  7922: u64 [sp + 0x60] = a0\n  7925: a0 = u64 [sp + 0x40]\n  7928: u64 [sp + 0x98] = a0\n  7932: a0 = u64 [sp + 0x48]\n  7935: u64 [sp + 0x90] = a0\n  7939: a0 = u64 [sp + 0x50]\n  7942: u64 [sp + 0x88] = a0\n  7946: a0 = u64 [sp + 0x58]\n  7949: u64 [sp + 0x80] = a0\n  7953: a0 = u64 [sp + 0x10]\n  7956: u64 [sp + 0x70] = a0\n  7959: a0 = sp + 0xa0\n  7963: a1 = sp + 0x80\n  7967: a2 = sp + 0x60\n  7970: a3 = u64 [sp + 0x20]\n  7973: u64 [sp + 0x78] = a3\n  7976: ra = 94, jump @80\n      : @103 [@dyn 47] (gas: 30)\n  7981: a0 = u64 [sp + 0xa8]\n  7985: t0 = u64 [sp + 0xb8]\n  7989: t1 = u64 [sp + 0xa0]\n  7993: a3 = u64 [sp + 0xb0]\n  7997: a1 = u64 [sp + 0x28]\n  8000: a4 = a0 ^ a1\n  8003: a5 = a0 <u a1\n  8006: t2 = a1\n  8008: a2 = u64 [sp + 0x30]\n  8011: a1 = t1 <u a2\n  8014: a5 = a1 if a4 == 0\n  8017: a4 = a3 - s1\n  8020: a3 = a3 <u s1\n  8023: s1 = u64 [sp + 0x38]\n  8026: s1 = t0 - s1\n  8029: s1 = s1 - a3\n  8032: a3 = a4 <u a5\n  8035: s1 = s1 - a3\n  8038: a4 = a4 - a5\n  8041: a0 = a0 - t2\n  8044: a1 = a0 - a1\n  8047: a0 = t1 - a2\n  8050: a1 = a1 | s1\n  8053: a2 = a0 | a4\n  8056: a2 = a2 | a1\n  8059: a1 = a1 | a4\n  8062: a2 = a2 >> 0x20\n  8065: a1 = a1 << 0x20\n  8068: a1 = a1 | a2\n  8071: jump @107 if a1 == 0\n      : @104 (gas: 1)\n  8074: trap\n      : @105 (gas: 3)\n  8075: a0 = 0\n  8077: a1 = 0\n  8079: ra = 96, jump @0\n      : @106 [@dyn 48] (gas: 5)\n  8084: i32 a1 = a0 + 0\n  8086: a0 = 0x1\n  8089: a2 = 0\n  8091: ecalli 7 // 'seal_return'\n  8093: fallthrough\n      : @107 (gas: 4)\n  8094: i32 s1 = a0 + 0\n  8096: a0 = u64 [sp]\n  8098: a1 = s1\n  8100: ra = 98, jump @0\n      : @108 [@dyn 49] (gas: 6)\n  8105: i32 a1 = a0 + 0\n  8107: a0 = 0\n  8109: a2 = s1\n  8111: ra = 0x64\n  8114: ecalli 7 // 'seal_return'\n  8116: fallthrough\n      : @109 [@dyn 50] (gas: 9)\n  8117: a2 = u64 [a1 + 0x18]\n  8120: a3 = u64 [a1 + 0x10]\n  8123: a4 = u64 [a1 + 0x8]\n  8126: a1 = u64 [a1]\n  8128: u64 [a0 + 0x18] = a2\n  8131: u64 [a0 + 0x10] = a3\n  8134: u64 [a0 + 0x8] = a4\n  8137: u64 [a0] = a1\n  8139: ret\n      : @110 (gas: 8)\n  8141: a0 = u64 [sp + 0x30]\n  8144: a1 = u64 [sp + 0x38]\n  8147: a2 = u64 [sp + 0x28]\n  8150: a3 = u64 [sp + 0x20]\n  8153: a1 = a1 | a2\n  8156: a0 = a0 | a3\n  8159: a0 = a0 | a1\n  8162: jump @116 if a0 != 0\n      : @111 (gas: 2)\n  8166: a0 = i32 [0x20024]\n  8171: jump @116 if a0 <=u 35\n      : @112 (gas: 13)\n  8176: i32 a0 = sp + 0x40\n  8179: a1 = 0x4\n  8182: ecalli 1 // 'call_data_load'\n  8184: a1 = u64 [sp + 0x40]\n  8187: a0 = u64 [sp + 0x48]\n  8190: a2 = u64 [sp + 0x50]\n  8193: a3 = u64 [sp + 0x58]\n  8196: u64 [sp + 0x18] = a3\n  8199: u64 [sp + 0x10] = a2\n  8202: u64 [sp + 0x8] = a0\n  8205: a0 = sp\n  8207: u64 [sp] = a1\n  8209: ra = 102, jump @161\n      : @113 [@dyn 51] (gas: 3)\n  8214: a0 = 0x40\n  8217: a1 = 0x20\n  8220: ra = 104, jump @0\n      : @114 [@dyn 52] (gas: 100)\n  8225: a1 = u8 [a0 + 0x11]\n  8228: a2 = u8 [a0 + 0x10]\n  8231: a3 = u8 [a0 + 0x12]\n  8234: a4 = u8 [a0 + 0x13]\n  8237: a1 = a1 << 0x8\n  8240: a1 = a1 | a2\n  8243: a3 = a3 << 0x10\n  8246: a4 = a4 << 0x18\n  8249: a3 = a3 | a4\n  8252: a1 = a1 | a3\n  8255: a2 = u8 [a0 + 0x15]\n  8258: a3 = u8 [a0 + 0x14]\n  8261: a4 = u8 [a0 + 0x16]\n  8264: a5 = u8 [a0 + 0x17]\n  8267: a2 = a2 << 0x8\n  8270: a2 = a2 | a3\n  8273: a4 = a4 << 0x10\n  8276: a5 = a5 << 0x18\n  8279: a4 = a4 | a5\n  8282: a2 = a2 | a4\n  8285: a2 = a2 << 0x20\n  8288: t0 = a2 | a1\n  8291: a2 = u8 [a0 + 0x1]\n  8294: a3 = u8 [a0]\n  8296: a4 = u8 [a0 + 0x2]\n  8299: a5 = u8 [a0 + 0x3]\n  8302: a2 = a2 << 0x8\n  8305: a2 = a2 | a3\n  8308: a4 = a4 << 0x10\n  8311: a5 = a5 << 0x18\n  8314: a4 = a4 | a5\n  8317: a2 = a2 | a4\n  8320: a3 = u8 [a0 + 0x5]\n  8323: a4 = u8 [a0 + 0x4]\n  8326: a5 = u8 [a0 + 0x6]\n  8329: a1 = u8 [a0 + 0x7]\n  8332: a3 = a3 << 0x8\n  8335: a3 = a3 | a4\n  8338: a5 = a5 << 0x10\n  8341: a1 = a1 << 0x18\n  8344: a1 = a1 | a5\n  8347: a1 = a1 | a3\n  8350: a1 = a1 << 0x20\n  8353: t1 = a1 | a2\n  8356: a1 = u8 [a0 + 0x19]\n  8359: a3 = u8 [a0 + 0x18]\n  8362: a4 = u8 [a0 + 0x1a]\n  8365: a5 = u8 [a0 + 0x1b]\n  8368: a1 = a1 << 0x8\n  8371: a1 = a1 | a3\n  8374: a4 = a4 << 0x10\n  8377: a5 = a5 << 0x18\n  8380: a4 = a4 | a5\n  8383: a1 = a1 | a4\n  8386: a3 = u8 [a0 + 0x1d]\n  8389: a4 = u8 [a0 + 0x1c]\n  8392: a5 = u8 [a0 + 0x1e]\n  8395: a2 = u8 [a0 + 0x1f]\n  8398: a3 = a3 << 0x8\n  8401: a3 = a3 | a4\n  8404: a5 = a5 << 0x10\n  8407: a2 = a2 << 0x18\n  8410: a2 = a2 | a5\n  8413: a2 = a2 | a3\n  8416: a2 = a2 << 0x20\n  8419: a3 = a2 | a1\n  8422: a1 = u8 [a0 + 0x9]\n  8425: a2 = u8 [a0 + 0x8]\n  8428: a4 = u8 [a0 + 0xa]\n  8431: a5 = u8 [a0 + 0xb]\n  8434: a1 = a1 << 0x8\n  8437: a1 = a1 | a2\n  8440: a4 = a4 << 0x10\n  8443: a5 = a5 << 0x18\n  8446: a4 = a4 | a5\n  8449: a1 = a1 | a4\n  8452: a2 = u8 [a0 + 0xd]\n  8455: a4 = u8 [a0 + 0xc]\n  8458: a5 = u8 [a0 + 0xe]\n  8461: a0 = u8 [a0 + 0xf]\n  8464: a2 = a2 << 0x8\n  8467: a2 = a2 | a4\n  8470: a5 = a5 << 0x10\n  8473: a0 = a0 << 0x18\n  8476: a0 = a0 | a5\n  8479: a0 = a0 | a2\n  8482: a0 = a0 << 0x20\n  8485: a0 = a0 | a1\n  8488: a1 = reverse a0\n  8490: a0 = reverse a3\n  8492: a2 = reverse t1\n  8494: a3 = reverse t0\n  8496: a2 = a2 | a3\n  8499: a3 = a0 | a1\n  8502: a3 = a3 | a2\n  8505: a3 = a3 >> 0x20\n  8508: a1 = a1 | a2\n  8511: a1 = a1 << 0x20\n  8514: a1 = a1 | a3\n  8517: jump @118 if a1 == 0\n      : @115 (gas: 1)\n  8520: trap\n      : @116 (gas: 3)\n  8521: a0 = 0\n  8523: a1 = 0\n  8525: ra = 106, jump @0\n      : @117 [@dyn 53] (gas: 7)\n  8530: i32 a1 = a0 + 0\n  8532: a0 = 0x1\n  8535: a2 = 0\n  8537: ecalli 7 // 'seal_return'\n  8539: i32 a0 = a0 + 0\n  8541: ra = 0x6c\n  8544: jump @0\n      : @118 (gas: 2)\n  8547: i32 a0 = a0 + 0\n  8549: ra = 108, jump @0\n      : @119 [@dyn 54] (gas: 6)\n  8554: i32 a1 = a0 + 0\n  8556: a0 = 0\n  8558: a2 = 0\n  8560: ra = 0x6e\n  8563: ecalli 7 // 'seal_return'\n  8565: fallthrough\n      : @120 [@dyn 55] (gas: 5)\n  8566: sp = sp + 0xfffffffffffffff8\n  8569: u64 [sp] = ra\n  8571: a0 = 0\n  8573: a1 = 0\n  8575: ra = 112, jump @0\n      : @121 [@dyn 56] (gas: 6)\n  8580: i32 a1 = a0 + 0\n  8582: a0 = 0x1\n  8585: a2 = 0\n  8587: ra = 0x72\n  8590: ecalli 7 // 'seal_return'\n  8592: fallthrough\n      : @122 [@dyn 57] (gas: 6)\n  8593: u64 [a0 + 24] = 0\n  8596: u64 [a0 + 16] = 0\n  8599: u64 [a0 + 8] = 0\n  8602: a1 = 0x60\n  8605: u64 [a0] = a1\n  8607: ret\n      : @123 (gas: 20)\n  8609: sp = sp + 0xffffffffffffffb0\n  8612: u64 [sp + 0x48] = ra\n  8615: u64 [sp + 0x40] = s0\n  8618: u64 [sp + 0x38] = s1\n  8621: a4 = u64 [a1 + 0x10]\n  8624: a3 = u64 [a1 + 0x18]\n  8627: a5 = u64 [a1 + 0x8]\n  8630: s0 = u64 [a1]\n  8632: u64 [sp + 0x28] = a3\n  8635: u64 [sp + 0x20] = a5\n  8638: a1 = a5 | a3\n  8641: a3 = s0 | a4\n  8644: a3 = a3 | a1\n  8647: a3 = a3 >> 0x20\n  8650: u64 [sp + 0x30] = a4\n  8653: a1 = a1 | a4\n  8656: a1 = a1 << 0x20\n  8659: a1 = a1 | a3\n  8662: u64 [sp + 0x18] = a0\n  8665: jump @126 if a1 != 0\n      : @124 (gas: 10)\n  8669: a0 = u64 [a2 + 0x18]\n  8672: u64 [sp] = a0\n  8674: s1 = u64 [a2 + 0x10]\n  8677: a0 = u64 [a2 + 0x8]\n  8680: u64 [sp + 0x8] = a0\n  8683: a0 = u64 [a2]\n  8685: u64 [sp + 0x10] = a0\n  8688: i32 a0 = s0 + 0\n  8690: a1 = 0x20\n  8693: ra = 116, jump @0\n      : @125 [@dyn 58] (gas: 88)\n  8698: a1 = u64 [sp]\n  8700: a1 = reverse a1\n  8702: a2 = reverse s1\n  8704: a3 = u64 [sp + 0x8]\n  8707: a3 = reverse a3\n  8709: a4 = u64 [sp + 0x10]\n  8712: a4 = reverse a4\n  8714: a5 = a4 >> 0x38\n  8717: u8 [a0 + 0x1f] = a5\n  8720: a5 = a4 >> 0x30\n  8723: u8 [a0 + 0x1e] = a5\n  8726: a5 = a4 >> 0x28\n  8729: u8 [a0 + 0x1d] = a5\n  8732: a5 = a4 >> 0x20\n  8735: u8 [a0 + 0x1c] = a5\n  8738: a5 = a4 >> 0x18\n  8741: u8 [a0 + 0x1b] = a5\n  8744: a5 = a4 >> 0x10\n  8747: u8 [a0 + 0x1a] = a5\n  8750: a5 = a4 >> 0x8\n  8753: u8 [a0 + 0x19] = a5\n  8756: u8 [a0 + 0x18] = a4\n  8759: u8 [a0 + 0x10] = a3\n  8762: a4 = a3 >> 0x38\n  8765: u8 [a0 + 0x17] = a4\n  8768: a4 = a3 >> 0x30\n  8771: u8 [a0 + 0x16] = a4\n  8774: a4 = a3 >> 0x28\n  8777: u8 [a0 + 0x15] = a4\n  8780: a4 = a3 >> 0x20\n  8783: u8 [a0 + 0x14] = a4\n  8786: a4 = a3 >> 0x18\n  8789: u8 [a0 + 0x13] = a4\n  8792: a4 = a3 >> 0x10\n  8795: u8 [a0 + 0x12] = a4\n  8798: a3 = a3 >> 0x8\n  8801: u8 [a0 + 0x11] = a3\n  8804: u8 [a0 + 0x8] = a2\n  8807: a3 = a2 >> 0x38\n  8810: u8 [a0 + 0xf] = a3\n  8813: a3 = a2 >> 0x30\n  8816: u8 [a0 + 0xe] = a3\n  8819: a3 = a2 >> 0x28\n  8822: u8 [a0 + 0xd] = a3\n  8825: a3 = a2 >> 0x20\n  8828: u8 [a0 + 0xc] = a3\n  8831: a3 = a2 >> 0x18\n  8834: u8 [a0 + 0xb] = a3\n  8837: a3 = a2 >> 0x10\n  8840: u8 [a0 + 0xa] = a3\n  8843: a2 = a2 >> 0x8\n  8846: u8 [a0 + 0x9] = a2\n  8849: u8 [a0] = a1\n  8851: a2 = a1 >> 0x38\n  8854: u8 [a0 + 0x7] = a2\n  8857: a2 = a1 >> 0x30\n  8860: u8 [a0 + 0x6] = a2\n  8863: a2 = a1 >> 0x28\n  8866: u8 [a0 + 0x5] = a2\n  8869: a2 = a1 >> 0x20\n  8872: u8 [a0 + 0x4] = a2\n  8875: a2 = a1 >> 0x18\n  8878: u8 [a0 + 0x3] = a2\n  8881: a2 = a1 >> 0x10\n  8884: u8 [a0 + 0x2] = a2\n  8887: a1 = a1 >> 0x8\n  8890: u8 [a0 + 0x1] = a1\n  8893: a0 = s0 + 0x20\n  8896: a1 = a0 <u s0\n  8899: a3 = u64 [sp + 0x20]\n  8902: a2 = a3 + a1\n  8905: a3 = a2 <u a3\n  8908: a3 = a1 if a1 == 0\n  8911: a1 = u64 [sp + 0x30]\n  8914: a3 = a3 + a1\n  8917: a1 = a3 <u a1\n  8920: a4 = u64 [sp + 0x28]\n  8923: a1 = a1 + a4\n  8926: a4 = u64 [sp + 0x18]\n  8929: u64 [a4] = a0\n  8931: u64 [a4 + 0x8] = a2\n  8934: u64 [a4 + 0x10] = a3\n  8937: u64 [a4 + 0x18] = a1\n  8940: ra = u64 [sp + 0x48]\n  8943: s0 = u64 [sp + 0x40]\n  8946: s1 = u64 [sp + 0x38]\n  8949: sp = sp + 0x50\n  8952: ret\n      : @126 (gas: 1)\n  8954: trap\n      : @127 (gas: 12)\n  8955: a0 = u64 [sp + 0x70]\n  8958: a1 = u64 [sp + 0x78]\n  8961: a0 = a0 | a1\n  8964: a1 = u64 [sp + 0x98]\n  8968: a1 = a1 | s1\n  8971: a1 = a1 | a0\n  8974: a1 = a1 >> 0x20\n  8977: u64 [sp + 0x68] = s1\n  8980: a0 = a0 | s1\n  8983: a0 = a0 << 0x20\n  8986: a0 = a0 | a1\n  8989: jump @141 if a0 != 0\n      : @128 (gas: 11)\n  8993: s1 = u64 [sp + 0xd8]\n  8997: u64 [sp + 0x80] = s1\n  9001: a0 = u64 [sp + 0xd0]\n  9005: u64 [sp + 0x90] = a0\n  9009: a0 = u64 [sp + 0xc8]\n  9013: u64 [sp + 0x60] = a0\n  9016: a0 = u64 [sp + 0xc0]\n  9020: u64 [sp + 0x88] = a0\n  9024: a0 = i32 [sp + 0x98]\n  9028: a1 = 0x20\n  9031: ra = 118, jump @0\n      : @129 [@dyn 59] (gas: 70)\n  9036: a1 = reverse s1\n  9038: a2 = u64 [sp + 0x90]\n  9042: a2 = reverse a2\n  9044: s1 = u64 [sp + 0x60]\n  9047: a3 = reverse s1\n  9049: a4 = u64 [sp + 0x88]\n  9053: a4 = reverse a4\n  9055: a5 = a4 >> 0x38\n  9058: u8 [a0 + 0x1f] = a5\n  9061: a5 = a4 >> 0x30\n  9064: u8 [a0 + 0x1e] = a5\n  9067: a5 = a4 >> 0x28\n  9070: u8 [a0 + 0x1d] = a5\n  9073: a5 = a4 >> 0x20\n  9076: u8 [a0 + 0x1c] = a5\n  9079: a5 = a4 >> 0x18\n  9082: u8 [a0 + 0x1b] = a5\n  9085: a5 = a4 >> 0x10\n  9088: u8 [a0 + 0x1a] = a5\n  9091: a5 = a4 >> 0x8\n  9094: u8 [a0 + 0x19] = a5\n  9097: u8 [a0 + 0x18] = a4\n  9100: u8 [a0 + 0x10] = a3\n  9103: a4 = a3 >> 0x38\n  9106: u8 [a0 + 0x17] = a4\n  9109: a4 = a3 >> 0x30\n  9112: u8 [a0 + 0x16] = a4\n  9115: a4 = a3 >> 0x28\n  9118: u8 [a0 + 0x15] = a4\n  9121: a4 = a3 >> 0x20\n  9124: u8 [a0 + 0x14] = a4\n  9127: a4 = a3 >> 0x18\n  9130: u8 [a0 + 0x13] = a4\n  9133: a4 = a3 >> 0x10\n  9136: u8 [a0 + 0x12] = a4\n  9139: a3 = a3 >> 0x8\n  9142: u8 [a0 + 0x11] = a3\n  9145: u8 [a0 + 0x8] = a2\n  9148: a3 = a2 >> 0x38\n  9151: u8 [a0 + 0xf] = a3\n  9154: a3 = a2 >> 0x30\n  9157: u8 [a0 + 0xe] = a3\n  9160: a3 = a2 >> 0x28\n  9163: u8 [a0 + 0xd] = a3\n  9166: a3 = a2 >> 0x20\n  9169: u8 [a0 + 0xc] = a3\n  9172: a3 = a2 >> 0x18\n  9175: u8 [a0 + 0xb] = a3\n  9178: a3 = a2 >> 0x10\n  9181: u8 [a0 + 0xa] = a3\n  9184: a2 = a2 >> 0x8\n  9187: u8 [a0 + 0x9] = a2\n  9190: u8 [a0] = a1\n  9192: a2 = a1 >> 0x38\n  9195: u8 [a0 + 0x7] = a2\n  9198: a2 = a1 >> 0x30\n  9201: u8 [a0 + 0x6] = a2\n  9204: a2 = a1 >> 0x28\n  9207: u8 [a0 + 0x5] = a2\n  9210: a2 = a1 >> 0x20\n  9213: u8 [a0 + 0x4] = a2\n  9216: a2 = a1 >> 0x18\n  9219: u8 [a0 + 0x3] = a2\n  9222: a2 = a1 >> 0x10\n  9225: u8 [a0 + 0x2] = a2\n  9228: a1 = a1 >> 0x8\n  9231: u8 [a0 + 0x1] = a1\n  9234: a1 = 0x20\n  9237: a0 = 0\n  9239: ra = 120, jump @0\n      : @130 [@dyn 60] (gas: 71)\n  9244: a1 = u64 [sp + 0x40]\n  9247: a1 = reverse a1\n  9249: a2 = u64 [sp + 0x48]\n  9252: a2 = reverse a2\n  9254: a3 = u64 [sp + 0x50]\n  9257: a3 = reverse a3\n  9259: a4 = u64 [sp + 0x58]\n  9262: a4 = reverse a4\n  9264: a5 = a4 >> 0x38\n  9267: u8 [a0 + 0x1f] = a5\n  9270: a5 = a4 >> 0x30\n  9273: u8 [a0 + 0x1e] = a5\n  9276: a5 = a4 >> 0x28\n  9279: u8 [a0 + 0x1d] = a5\n  9282: a5 = a4 >> 0x20\n  9285: u8 [a0 + 0x1c] = a5\n  9288: a5 = a4 >> 0x18\n  9291: u8 [a0 + 0x1b] = a5\n  9294: a5 = a4 >> 0x10\n  9297: u8 [a0 + 0x1a] = a5\n  9300: a5 = a4 >> 0x8\n  9303: u8 [a0 + 0x19] = a5\n  9306: u8 [a0 + 0x18] = a4\n  9309: a4 = a3 >> 0x38\n  9312: u8 [a0 + 0x17] = a4\n  9315: a4 = a3 >> 0x30\n  9318: u8 [a0 + 0x16] = a4\n  9321: a4 = a3 >> 0x28\n  9324: u8 [a0 + 0x15] = a4\n  9327: a4 = a3 >> 0x20\n  9330: u8 [a0 + 0x14] = a4\n  9333: a4 = a3 >> 0x18\n  9336: u8 [a0 + 0x13] = a4\n  9339: a4 = a3 >> 0x10\n  9342: u8 [a0 + 0x12] = a4\n  9345: a4 = a3 >> 0x8\n  9348: u8 [a0 + 0x11] = a4\n  9351: u8 [a0 + 0x10] = a3\n  9354: a3 = a2 >> 0x38\n  9357: u8 [a0 + 0xf] = a3\n  9360: a3 = a2 >> 0x30\n  9363: u8 [a0 + 0xe] = a3\n  9366: a3 = a2 >> 0x28\n  9369: u8 [a0 + 0xd] = a3\n  9372: a3 = a2 >> 0x20\n  9375: u8 [a0 + 0xc] = a3\n  9378: a3 = a2 >> 0x18\n  9381: u8 [a0 + 0xb] = a3\n  9384: a3 = a2 >> 0x10\n  9387: u8 [a0 + 0xa] = a3\n  9390: a3 = a2 >> 0x8\n  9393: u8 [a0 + 0x9] = a3\n  9396: u8 [a0 + 0x8] = a2\n  9399: a2 = a1 >> 0x38\n  9402: u8 [a0 + 0x7] = a2\n  9405: a2 = a1 >> 0x30\n  9408: u8 [a0 + 0x6] = a2\n  9411: a2 = a1 >> 0x28\n  9414: u8 [a0 + 0x5] = a2\n  9417: a2 = a1 >> 0x20\n  9420: u8 [a0 + 0x4] = a2\n  9423: a2 = a1 >> 0x18\n  9426: u8 [a0 + 0x3] = a2\n  9429: a2 = a1 >> 0x10\n  9432: u8 [a0 + 0x2] = a2\n  9435: a2 = a1 >> 0x8\n  9438: u8 [a0 + 0x1] = a2\n  9441: u8 [a0] = a1\n  9443: a1 = 0x20\n  9446: a0 = 0\n  9448: ra = 122, jump @0\n      : @131 [@dyn 61] (gas: 5)\n  9453: i32 a0 = a0 + 0\n  9455: i32 a2 = sp + 0xc0\n  9459: a1 = 0x20\n  9462: ecalli 6 // 'hash_keccak_256'\n  9464: fallthrough\n      : @132 (gas: 20)\n  9465: a1 = u64 [sp + 0x98]\n  9469: a0 = a1 + 0x20\n  9472: u64 [sp + 0x50] = a0\n  9475: a2 = a0 <u a1\n  9478: a1 = u64 [sp + 0x78]\n  9481: t2 = a1 + a2\n  9484: a3 = t2 <u a1\n  9487: a3 = a2 if a2 == 0\n  9490: a2 = u64 [sp + 0x68]\n  9493: ra = a2 + a3\n  9496: a0 = u64 [sp + 0x90]\n  9500: a3 = u64 [sp + 0x88]\n  9504: a3 = a3 | a0\n  9507: a0 = u64 [sp + 0x80]\n  9511: a4 = s1 | a0\n  9514: a4 = a4 | a3\n  9517: a3 = ra <u a2\n  9520: t1 = u64 [sp + 0x70]\n  9523: a3 = a3 + t1\n  9526: jump @139 if a4 == 0\n      : @133 (gas: 161)\n  9530: a0 = 0xffffffe0\n  9540: a4 = u64 [sp + 0x98]\n  9544: s1 = a0 <u a4\n  9547: u64 [sp + 0x40] = s1\n  9550: a5 = a1 >u 0\n  9552: a5 = s1 if a1 == 0\n  9555: s1 = -a2\n  9557: a1 = s1 - a5\n  9560: u64 [sp + 0x58] = a1\n  9563: t0 = a1 >u 0\n  9565: a5 = s1 <u a5\n  9568: s1 = a2 >u 0\n  9570: s1 = s1 + t1\n  9573: s1 = -s1\n  9575: s1 = s1 - a5\n  9578: t1 = s1 >u 0\n  9580: t1 = t0 if s1 == 0\n  9583: a2 = s1\n  9585: u64 [sp + 0x48] = s1\n  9588: t0 = a0 - a4\n  9591: a1 = u64 [sp + 0x78]\n  9594: a5 = -a1\n  9596: a1 = u64 [sp + 0x40]\n  9599: a4 = a5 - a1\n  9602: u64 [sp + 0x40] = a0\n  9605: s1 = a0 <u t0\n  9608: a5 = a4 >u 0\n  9610: a5 = s1 if a4 == 0\n  9613: a1 = u64 [sp + 0x58]\n  9616: s1 = a1 | a2\n  9619: a5 = t1 if s1 != 0\n  9622: t0 = 0 if a5 != 0\n  9624: a0 = t0 + 0x1f\n  9627: s1 = a0 <u t0\n  9630: a4 = 0 if a5 != 0\n  9632: t0 = a4 + s1\n  9635: a4 = t0 <u a4\n  9638: a4 = s1 if s1 == 0\n  9641: a1 = 0 if a5 != 0\n  9643: u64 [sp + 0x58] = a1\n  9646: a1 = a1 + a4\n  9649: u64 [sp + 0x8] = a1\n  9652: a4 = a1 << 0x3b\n  9655: s1 = t0 >> 0x5\n  9658: t1 = s1 | a4\n  9661: t0 = t0 << 0x3b\n  9664: a4 = a0 >> 0x5\n  9667: s1 = a4 | t0\n  9670: u64 [sp + 0x38] = s1\n  9673: a1 = u64 [sp + 0x88]\n  9677: a4 = a1 <u 0x1\n  9680: t0 = u64 [sp + 0x60]\n  9683: a0 = t0 - a4\n  9686: u64 [sp + 0x20] = a0\n  9689: a2 = a1 + 0xffffffffffffffff\n  9692: u64 [sp + 0x30] = a2\n  9695: u64 [sp + 0x28] = t1\n  9698: a4 = a0 ^ t1\n  9701: t1 = a0 <u t1\n  9704: a0 = a2 <u s1\n  9707: a0 = t1 if a4 != 0\n  9710: u64 [sp + 0x10] = a0\n  9713: a4 = a1 | t0\n  9716: a4 = a4 <u 0x1\n  9719: a0 = u64 [sp + 0x90]\n  9723: t1 = a0 <u a4\n  9726: a1 = u64 [sp + 0x80]\n  9730: a1 = a1 - t1\n  9733: a0 = a0 - a4\n  9736: a2 = u64 [sp + 0x48]\n  9739: a2 = 0 if a5 != 0\n  9741: a4 = u64 [sp + 0x8]\n  9744: a5 = u64 [sp + 0x58]\n  9747: a5 = a4 <u a5\n  9750: a2 = a2 + a5\n  9753: t1 = a4 >> 0x5\n  9756: a5 = a2 << 0x3b\n  9759: t1 = t1 | a5\n  9762: a5 = a2 >> 0x5\n  9765: a2 = a0 <u t1\n  9768: t0 = a1 ^ a5\n  9771: a4 = a1 <u a5\n  9774: a4 = a2 if t0 == 0\n  9777: s1 = a0 ^ t1\n  9780: s1 = s1 | t0\n  9783: a2 = u64 [sp + 0x10]\n  9786: a4 = a2 if s1 == 0\n  9789: a1 = a5 if a4 == 0\n  9792: u64 [sp + 0x90] = a1\n  9796: a0 = t1 if a4 == 0\n  9799: a1 = u64 [sp + 0x20]\n  9802: a2 = u64 [sp + 0x28]\n  9805: a1 = a2 if a4 == 0\n  9808: a2 = u64 [sp + 0x30]\n  9811: a5 = u64 [sp + 0x38]\n  9814: a2 = a5 if a4 == 0\n  9817: a4 = a2 >> 0x3b\n  9820: a5 = a1 << 0x5\n  9823: t1 = a1\n  9825: a4 = a4 | a5\n  9828: a5 = a2 << 0x5\n  9831: s1 = u64 [sp + 0x78]\n  9834: s1 = s1 + a4\n  9837: a1 = u64 [sp + 0x98]\n  9841: a5 = a5 + a1\n  9844: u64 [sp + 0x60] = a5\n  9847: a4 = a5 <u a1\n  9850: s1 = s1 + a4\n  9853: a1 = u64 [sp + 0x78]\n  9856: t0 = s1 ^ a1\n  9859: a1 = u64 [sp + 0x78]\n  9862: a5 = s1 <u a1\n  9865: a5 = a4 if t0 == 0\n  9868: a1 = u64 [sp + 0xd0]\n  9872: u64 [sp + 0x88] = a1\n  9876: t1 = t1 >> 0x3b\n  9879: a4 = a0 << 0x5\n  9882: t1 = a4 | t1\n  9885: a1 = u64 [sp + 0xc8]\n  9889: u64 [sp + 0x80] = a1\n  9893: a0 = a0 >> 0x3b\n  9896: t0 = u64 [sp + 0x90]\n  9900: t0 = t0 << 0x5\n  9903: a4 = t0 | a0\n  9906: a2 = u64 [sp + 0x68]\n  9909: t0 = u64 [sp + 0x70]\n  9912: t0 = t0 + a4\n  9915: t1 = t1 + a2\n  9918: a4 = t1 <u a2\n  9921: t0 = t0 + a4\n  9924: a5 = a5 + t1\n  9927: a4 = a5 <u t1\n  9930: a1 = u64 [sp + 0x70]\n  9933: t0 = t0 + a4\n  9936: a4 = u64 [sp + 0x60]\n  9939: a0 = a4 + 0x20\n  9942: u64 [sp + 0x38] = a0\n  9945: a4 = a0 <u a4\n  9948: a0 = s1 + a4\n  9951: u64 [sp + 0x30] = a0\n  9954: s1 = a0 <u s1\n  9957: s1 = a4 if a4 == 0\n  9960: a0 = u64 [sp + 0xc0]\n  9964: s1 = s1 + a5\n  9967: u64 [sp + 0x28] = s1\n  9970: a5 = s1 <u a5\n  9973: a5 = a5 + t0\n  9976: u64 [sp + 0x20] = a5\n  9979: a4 = u64 [sp + 0x78]\n  9982: a5 = u64 [sp + 0xd8]\n  9986: a0 = reverse a0\n  9988: u64 [sp + 0x90] = a0\n  9992: a0 = u64 [sp + 0x80]\n  9996: t0 = reverse a0\n  9998: a0 = u64 [sp + 0x88]\n 10002: a0 = reverse a0\n 10004: u64 [sp + 0x88] = a0\n 10008: a0 = reverse a5\n 10010: u64 [sp + 0x80] = a0\n 10014: t1 = u64 [sp + 0x50]\n 10017: fallthrough\n      : @134 (gas: 29)\n 10018: u64 [sp + 0x60] = a1\n 10021: u64 [sp + 0x58] = a2\n 10024: s1 = a4\n 10026: a0 = u64 [sp + 0x98]\n 10030: u64 [sp + 0x50] = a0\n 10033: u64 [sp + 0x70] = a3\n 10036: u64 [sp + 0x68] = ra\n 10039: u64 [sp + 0x78] = t2\n 10042: u64 [sp + 0x98] = t1\n 10046: u64 [sp + 0x48] = t0\n 10049: u64 [sp + 0xb0] = t0\n 10053: a0 = u64 [sp + 0x88]\n 10057: u64 [sp + 0xa8] = a0\n 10061: a0 = u64 [sp + 0x80]\n 10065: u64 [sp + 0xa0] = a0\n 10069: a0 = u64 [sp + 0x90]\n 10073: u64 [sp + 0xb8] = a0\n 10077: u64 [sp + 216] = 0\n 10081: u64 [sp + 208] = 0\n 10085: u64 [sp + 200] = 0\n 10089: u64 [sp + 192] = 0\n 10093: u32 [sp + 224] = 0x20\n 10098: i32 a1 = sp + 0xa0\n 10102: i32 a3 = sp + 0xc0\n 10106: i32 a4 = sp + 0xe0\n 10110: a2 = 0xffffffffffffffff\n 10113: a0 = 0\n 10115: ecalli 5 // 'get_storage'\n 10117: fallthrough\n      : @135 (gas: 9)\n 10118: a0 = u64 [sp + 0x60]\n 10121: a1 = u64 [sp + 0x58]\n 10124: a0 = a0 | a1\n 10127: a1 = u64 [sp + 0x40]\n 10130: a2 = u64 [sp + 0x50]\n 10133: a1 = a2 <u a1\n 10136: a1 = 0 if s1 != 0\n 10138: a1 = 0 if a0 != 0\n 10140: jump @141 if a1 == 0\n      : @136 (gas: 10)\n 10144: a0 = u64 [sp + 0xd0]\n 10148: a1 = u64 [sp + 0xc8]\n 10152: u64 [sp + 0x58] = a1\n 10155: a1 = u64 [sp + 0xc0]\n 10159: u64 [sp + 0x60] = a1\n 10162: a0 = a0 << 0x20\n 10165: s1 = a0 >> 0x20\n 10168: a0 = i32 [sp + 0x98]\n 10172: a1 = 0x20\n 10175: ra = 124, jump @0\n      : @137 [@dyn 62] (gas: 95)\n 10180: a1 = reverse s1\n 10182: a2 = u64 [sp + 0x58]\n 10185: a2 = reverse a2\n 10187: a3 = u64 [sp + 0x60]\n 10190: a3 = reverse a3\n 10192: a4 = a3 >> 0x38\n 10195: u8 [a0 + 0x1f] = a4\n 10198: a4 = a3 >> 0x30\n 10201: u8 [a0 + 0x1e] = a4\n 10204: a4 = a3 >> 0x28\n 10207: u8 [a0 + 0x1d] = a4\n 10210: a4 = a3 >> 0x20\n 10213: u8 [a0 + 0x1c] = a4\n 10216: a4 = a3 >> 0x18\n 10219: u8 [a0 + 0x1b] = a4\n 10222: a4 = a3 >> 0x10\n 10225: u8 [a0 + 0x1a] = a4\n 10228: a4 = a3 >> 0x8\n 10231: u8 [a0 + 0x19] = a4\n 10234: u8 [a0 + 0x18] = a3\n 10237: u8 [a0 + 0x10] = a2\n 10240: u8 [a0 + 11] = 0\n 10243: u8 [a0 + 10] = 0\n 10246: u8 [a0 + 9] = 0\n 10249: u8 [a0 + 7] = 0\n 10252: u8 [a0 + 6] = 0\n 10255: u8 [a0 + 5] = 0\n 10258: u8 [a0 + 4] = 0\n 10261: u8 [a0 + 3] = 0\n 10264: u8 [a0 + 2] = 0\n 10267: u8 [a0 + 1] = 0\n 10270: u8 [a0 + 0] = 0\n 10272: a3 = a2 >> 0x38\n 10275: u8 [a0 + 0x17] = a3\n 10278: a3 = a2 >> 0x30\n 10281: u8 [a0 + 0x16] = a3\n 10284: a3 = a2 >> 0x28\n 10287: u8 [a0 + 0x15] = a3\n 10290: a3 = a2 >> 0x20\n 10293: u8 [a0 + 0x14] = a3\n 10296: a3 = a2 >> 0x18\n 10299: u8 [a0 + 0x13] = a3\n 10302: a3 = a2 >> 0x10\n 10305: u8 [a0 + 0x12] = a3\n 10308: a2 = a2 >> 0x8\n 10311: u8 [a0 + 0x11] = a2\n 10314: u8 [a0 + 0x8] = a1\n 10317: a2 = a1 >> 0x38\n 10320: u8 [a0 + 0xf] = a2\n 10323: a2 = a1 >> 0x30\n 10326: u8 [a0 + 0xe] = a2\n 10329: a2 = a1 >> 0x28\n 10332: u8 [a0 + 0xd] = a2\n 10335: a1 = a1 >> 0x20\n 10338: u8 [a0 + 0xc] = a1\n 10341: a2 = u64 [sp + 0x80]\n 10345: a2 = a2 + 0x1\n 10348: a0 = a2 <u 0x1\n 10351: a1 = u64 [sp + 0x88]\n 10355: a1 = a1 + a0\n 10358: u64 [sp + 0x88] = a1\n 10362: u64 [sp + 0x80] = a2\n 10366: a0 = a2 | a1\n 10369: a4 = a0 <u 0x1\n 10372: a0 = u64 [sp + 0x48]\n 10375: t0 = a0 + a4\n 10378: a0 = t0 <u a0\n 10381: a1 = u64 [sp + 0x90]\n 10385: a1 = a1 + a0\n 10388: u64 [sp + 0x90] = a1\n 10392: a0 = u64 [sp + 0x98]\n 10396: t1 = a0 + 0x20\n 10399: a2 = t1 <u a0\n 10402: s1 = a0\n 10404: a4 = u64 [sp + 0x78]\n 10407: t2 = a4 + a2\n 10410: a3 = t2 <u a4\n 10413: a3 = a2 if a2 == 0\n 10416: a0 = u64 [sp + 0x38]\n 10419: s1 = s1 ^ a0\n 10422: a2 = u64 [sp + 0x68]\n 10425: a5 = u64 [sp + 0x28]\n 10428: a5 = a5 ^ a2\n 10431: a5 = a5 | s1\n 10434: a0 = u64 [sp + 0x30]\n 10437: a0 = a0 ^ a4\n 10440: a1 = u64 [sp + 0x70]\n 10443: s1 = u64 [sp + 0x20]\n 10446: s1 = s1 ^ a1\n 10449: s1 = s1 | a0\n 10452: ra = a2 + a3\n 10455: a5 = a5 | s1\n 10458: a3 = ra <u a2\n 10461: a3 = a3 + a1\n 10464: jump @134 if a5 != 0\n      : @138 (gas: 1)\n 10468: jump @140\n      : @139 (gas: 2)\n 10470: t1 = u64 [sp + 0x50]\n 10473: fallthrough\n      : @140 (gas: 11)\n 10474: a4 = u64 [sp + 0x18]\n 10477: u64 [a4] = t1\n 10479: u64 [a4 + 0x8] = t2\n 10482: u64 [a4 + 0x10] = ra\n 10485: u64 [a4 + 0x18] = a3\n 10488: sp = s0 + 0xffffffffffffff00\n 10492: ra = u64 [sp + 0xf8]\n 10496: s0 = u64 [sp + 0xf0]\n 10500: s1 = u64 [sp + 0xe8]\n 10504: sp = sp + 0x100\n 10508: ret\n      : @141 (gas: 1)\n 10510: trap\n      : @142 (gas: 18)\n 10511: sp = sp + 0xffffffffffffff00\n 10515: u64 [sp + 0xf8] = ra\n 10519: u64 [sp + 0xf0] = s0\n 10523: u64 [sp + 0xe8] = s1\n 10527: s0 = sp + 0x100\n 10531: sp = sp & 0xfffffffffffffff0\n 10534: a2 = u64 [a1]\n 10536: u64 [sp + 0x20] = a2\n 10539: a2 = u64 [a1 + 0x8]\n 10542: u64 [sp + 0x10] = a2\n 10545: a2 = u64 [a1 + 0x10]\n 10548: u64 [sp + 0x8] = a2\n 10551: a1 = u64 [a1 + 0x18]\n 10554: u64 [sp] = a1\n 10556: u64 [sp + 0x18] = a0\n 10559: a0 = 0x40\n 10562: a1 = 0x20\n 10565: ra = 126, jump @0\n      : @143 [@dyn 63] (gas: 149)\n 10570: a1 = u8 [a0 + 0x1]\n 10573: a2 = u8 [a0]\n 10575: a3 = u8 [a0 + 0x2]\n 10578: a4 = u8 [a0 + 0x3]\n 10581: a1 = a1 << 0x8\n 10584: a1 = a1 | a2\n 10587: a3 = a3 << 0x10\n 10590: a4 = a4 << 0x18\n 10593: a3 = a3 | a4\n 10596: a1 = a1 | a3\n 10599: a2 = u8 [a0 + 0x5]\n 10602: a3 = u8 [a0 + 0x4]\n 10605: a4 = u8 [a0 + 0x6]\n 10608: a5 = u8 [a0 + 0x7]\n 10611: a2 = a2 << 0x8\n 10614: a2 = a2 | a3\n 10617: a4 = a4 << 0x10\n 10620: a5 = a5 << 0x18\n 10623: a4 = a4 | a5\n 10626: a2 = a2 | a4\n 10629: a2 = a2 << 0x20\n 10632: t0 = a2 | a1\n 10635: a2 = u8 [a0 + 0x9]\n 10638: a3 = u8 [a0 + 0x8]\n 10641: a4 = u8 [a0 + 0xa]\n 10644: a5 = u8 [a0 + 0xb]\n 10647: a2 = a2 << 0x8\n 10650: a2 = a2 | a3\n 10653: a4 = a4 << 0x10\n 10656: a5 = a5 << 0x18\n 10659: a4 = a4 | a5\n 10662: a2 = a2 | a4\n 10665: a3 = u8 [a0 + 0xd]\n 10668: a4 = u8 [a0 + 0xc]\n 10671: a5 = u8 [a0 + 0xe]\n 10674: s1 = u8 [a0 + 0xf]\n 10677: a3 = a3 << 0x8\n 10680: a3 = a3 | a4\n 10683: a5 = a5 << 0x10\n 10686: s1 = s1 << 0x18\n 10689: a5 = a5 | s1\n 10692: a3 = a3 | a5\n 10695: a3 = a3 << 0x20\n 10698: a2 = a2 | a3\n 10701: a3 = u8 [a0 + 0x11]\n 10704: a4 = u8 [a0 + 0x10]\n 10707: a5 = u8 [a0 + 0x12]\n 10710: s1 = u8 [a0 + 0x13]\n 10713: a3 = a3 << 0x8\n 10716: a3 = a3 | a4\n 10719: a5 = a5 << 0x10\n 10722: s1 = s1 << 0x18\n 10725: a5 = a5 | s1\n 10728: a3 = a3 | a5\n 10731: a4 = u8 [a0 + 0x15]\n 10734: a5 = u8 [a0 + 0x14]\n 10737: s1 = u8 [a0 + 0x16]\n 10740: a1 = u8 [a0 + 0x17]\n 10743: a4 = a4 << 0x8\n 10746: a4 = a4 | a5\n 10749: s1 = s1 << 0x10\n 10752: a1 = a1 << 0x18\n 10755: a1 = a1 | s1\n 10758: a1 = a1 | a4\n 10761: a1 = a1 << 0x20\n 10764: a3 = a3 | a1\n 10767: a1 = u8 [a0 + 0x19]\n 10770: a4 = u8 [a0 + 0x18]\n 10773: a5 = u8 [a0 + 0x1a]\n 10776: s1 = u8 [a0 + 0x1b]\n 10779: a1 = a1 << 0x8\n 10782: a1 = a1 | a4\n 10785: a5 = a5 << 0x10\n 10788: s1 = s1 << 0x18\n 10791: a5 = a5 | s1\n 10794: a1 = a1 | a5\n 10797: a4 = u8 [a0 + 0x1d]\n 10800: a5 = u8 [a0 + 0x1c]\n 10803: s1 = u8 [a0 + 0x1e]\n 10806: a0 = u8 [a0 + 0x1f]\n 10809: a4 = a4 << 0x8\n 10812: a4 = a4 | a5\n 10815: s1 = s1 << 0x10\n 10818: a0 = a0 << 0x18\n 10821: a0 = a0 | s1\n 10824: a0 = a0 | a4\n 10827: a0 = a0 << 0x20\n 10830: a0 = a0 | a1\n 10833: a4 = reverse a0\n 10835: u64 [sp + 0x38] = a4\n 10838: s1 = reverse a3\n 10840: a2 = reverse a2\n 10842: u64 [sp + 0x30] = a2\n 10845: a1 = reverse t0\n 10847: u64 [sp + 0x28] = a1\n 10850: a0 = u64 [sp]\n 10852: u64 [sp + 0xb8] = a0\n 10856: a0 = u64 [sp + 0x8]\n 10859: u64 [sp + 0xb0] = a0\n 10863: a0 = u64 [sp + 0x10]\n 10866: u64 [sp + 0xa8] = a0\n 10870: a0 = u64 [sp + 0x20]\n 10873: u64 [sp + 0xa0] = a0\n 10877: u64 [sp + 0x98] = a1\n 10881: u64 [sp + 0x90] = a2\n 10885: u64 [sp + 0x88] = s1\n 10889: a0 = sp + 0xc0\n 10893: a1 = sp + 0xa0\n 10897: a2 = sp + 0x80\n 10901: u64 [sp + 0x80] = a4\n 10905: ra = 0x80\n 10909: sp = sp + 0xffffffffffffff00\n 10913: u64 [sp + 0xf8] = ra\n 10917: u64 [sp + 0xf0] = s0\n 10921: u64 [sp + 0xe8] = s1\n 10925: s0 = sp + 0x100\n 10929: sp = sp & 0xffffffffffffffe0\n 10932: u64 [sp + 0x18] = a0\n 10935: s1 = u64 [a2 + 0x10]\n 10938: a0 = u64 [a2]\n 10940: u64 [sp + 0x98] = a0\n 10944: a0 = u64 [a2 + 0x18]\n 10947: u64 [sp + 0x70] = a0\n 10950: a0 = u64 [a2 + 0x8]\n 10953: u64 [sp + 0x78] = a0\n 10956: a4 = u64 [a1 + 0x18]\n 10959: a3 = u64 [a1 + 0x10]\n 10962: a2 = u64 [a1 + 0x8]\n 10965: a0 = u64 [a1]\n 10967: u64 [sp + 0x40] = a4\n 10970: u64 [sp + 0xb8] = a4\n 10974: u64 [sp + 0x48] = a3\n 10977: u64 [sp + 0xb0] = a3\n 10981: u64 [sp + 0x50] = a2\n 10984: u64 [sp + 0xa8] = a2\n 10988: u64 [sp + 0x58] = a0\n 10991: u64 [sp + 0xa0] = a0\n 10995: u64 [sp + 216] = 0\n 10999: u64 [sp + 208] = 0\n 11003: u64 [sp + 200] = 0\n 11007: u64 [sp + 192] = 0\n 11011: u32 [sp + 224] = 0x20\n 11016: i32 a1 = sp + 0xa0\n 11020: i32 a3 = sp + 0xc0\n 11024: i32 a4 = sp + 0xe0\n 11028: a2 = 0xffffffffffffffff\n 11031: a0 = 0\n 11033: ecalli 5 // 'get_storage'\n 11035: jump @127\n      : @144 [@dyn 64] (gas: 58)\n 11038: t2 = s1\n 11040: a3 = u64 [sp + 0xc8]\n 11044: a0 = u64 [sp + 0xd8]\n 11048: u64 [sp + 0x10] = a0\n 11051: a4 = u64 [sp + 0xc0]\n 11055: t1 = u64 [sp + 0xd0]\n 11059: a5 = a3 ^ s1\n 11062: a1 = a3 <u s1\n 11065: a2 = u64 [sp + 0x38]\n 11068: s1 = a4 <u a2\n 11071: a1 = s1 if a5 == 0\n 11074: a3 = a3 - t2\n 11077: a3 = a3 - s1\n 11080: u64 [sp + 0x8] = a3\n 11083: a4 = a4 - a2\n 11086: a5 = a4 + 0x1f\n 11089: a4 = a5 <u a4\n 11092: a3 = a3 + a4\n 11095: a5 = a5 & 0xffffffffffffffe0\n 11098: a0 = a3 + t2\n 11101: a2 = a2 + a5\n 11104: u64 [sp + 0x20] = a2\n 11107: a5 = a2 <u a5\n 11110: t0 = a0 + a5\n 11113: a0 = t0 ^ a3\n 11116: a2 = t0 <u a3\n 11119: a2 = a5 if a0 == 0\n 11122: s1 = u64 [sp + 0x30]\n 11125: a0 = t1 - s1\n 11128: a5 = t1 <u s1\n 11131: t1 = s1\n 11133: ra = u64 [sp + 0x28]\n 11136: s1 = u64 [sp + 0x10]\n 11139: s1 = s1 - ra\n 11142: s1 = s1 - a5\n 11145: a5 = a0 <u a1\n 11148: s1 = s1 - a5\n 11151: a0 = a0 - a1\n 11154: a1 = u64 [sp + 0x8]\n 11157: a1 = a3 <u a1\n 11160: a1 = a4 if a4 == 0\n 11163: a1 = a1 + a0\n 11166: a0 = a1 <u a0\n 11169: a3 = a1 + t1\n 11172: a5 = a3 + a2\n 11175: a1 = a3 <u a1\n 11178: a2 = a5 <u a3\n 11181: s1 = s1 + ra\n 11184: a0 = a0 + s1\n 11187: a0 = a0 + a1\n 11190: s1 = a0 + a2\n 11193: a0 = s1 >u 0\n 11195: a1 = a5 >u 0\n 11197: a1 = a0 if s1 != 0\n 11200: a0 = a5 | s1\n 11203: a2 = t0 >u 0\n 11205: a2 = a1 if a0 != 0\n 11208: jump @148 if a2 != 0\n      : @145 (gas: 15)\n 11212: a4 = t1\n 11214: a0 = u64 [sp + 0x38]\n 11217: a1 = u64 [sp + 0x20]\n 11220: a0 = a1 <u a0\n 11223: a1 = t0 ^ t2\n 11226: a2 = t0 <u t2\n 11229: a2 = a0 if a1 == 0\n 11232: a0 = a5 <u t1\n 11235: a1 = s1 ^ ra\n 11238: a3 = s1 <u ra\n 11241: a3 = a0 if a1 == 0\n 11244: a0 = a5 ^ t1\n 11247: a0 = a0 | a1\n 11250: a3 = a2 if a0 == 0\n 11253: jump @148 if a3 != 0\n      : @146 (gas: 6)\n 11257: a0 = 0x40\n 11260: a1 = 0x20\n 11263: u64 [sp + 0x10] = t2\n 11266: u64 [sp + 0x8] = t0\n 11269: u64 [sp] = a5\n 11271: ra = 130, jump @0\n      : @147 [@dyn 65] (gas: 82)\n 11277: a1 = reverse s1\n 11279: a2 = u64 [sp]\n 11281: a2 = reverse a2\n 11283: a3 = u64 [sp + 0x8]\n 11286: a3 = reverse a3\n 11288: a4 = u64 [sp + 0x20]\n 11291: a4 = reverse a4\n 11293: u8 [a0 + 0x18] = a4\n 11296: a5 = a4 >> 0x38\n 11299: u8 [a0 + 0x1f] = a5\n 11302: a5 = a4 >> 0x30\n 11305: u8 [a0 + 0x1e] = a5\n 11308: a5 = a4 >> 0x28\n 11311: u8 [a0 + 0x1d] = a5\n 11314: a5 = a4 >> 0x20\n 11317: u8 [a0 + 0x1c] = a5\n 11320: a5 = a4 >> 0x18\n 11323: u8 [a0 + 0x1b] = a5\n 11326: a5 = a4 >> 0x10\n 11329: u8 [a0 + 0x1a] = a5\n 11332: a4 = a4 >> 0x8\n 11335: u8 [a0 + 0x19] = a4\n 11338: u8 [a0 + 0x10] = a3\n 11341: a4 = a3 >> 0x38\n 11344: u8 [a0 + 0x17] = a4\n 11347: a4 = a3 >> 0x30\n 11350: u8 [a0 + 0x16] = a4\n 11353: a4 = a3 >> 0x28\n 11356: u8 [a0 + 0x15] = a4\n 11359: a4 = a3 >> 0x20\n 11362: u8 [a0 + 0x14] = a4\n 11365: a4 = a3 >> 0x18\n 11368: u8 [a0 + 0x13] = a4\n 11371: a4 = a3 >> 0x10\n 11374: u8 [a0 + 0x12] = a4\n 11377: a3 = a3 >> 0x8\n 11380: u8 [a0 + 0x11] = a3\n 11383: u8 [a0 + 0x8] = a2\n 11386: a3 = a2 >> 0x38\n 11389: u8 [a0 + 0xf] = a3\n 11392: a3 = a2 >> 0x30\n 11395: u8 [a0 + 0xe] = a3\n 11398: a3 = a2 >> 0x28\n 11401: u8 [a0 + 0xd] = a3\n 11404: a3 = a2 >> 0x20\n 11407: u8 [a0 + 0xc] = a3\n 11410: a3 = a2 >> 0x18\n 11413: u8 [a0 + 0xb] = a3\n 11416: a3 = a2 >> 0x10\n 11419: u8 [a0 + 0xa] = a3\n 11422: a2 = a2 >> 0x8\n 11425: u8 [a0 + 0x9] = a2\n 11428: u8 [a0] = a1\n 11430: a2 = a1 >> 0x38\n 11433: u8 [a0 + 0x7] = a2\n 11436: a2 = a1 >> 0x30\n 11439: u8 [a0 + 0x6] = a2\n 11442: a2 = a1 >> 0x28\n 11445: u8 [a0 + 0x5] = a2\n 11448: a2 = a1 >> 0x20\n 11451: u8 [a0 + 0x4] = a2\n 11454: a2 = a1 >> 0x18\n 11457: u8 [a0 + 0x3] = a2\n 11460: a2 = a1 >> 0x10\n 11463: u8 [a0 + 0x2] = a2\n 11466: a1 = a1 >> 0x8\n 11469: u8 [a0 + 0x1] = a1\n 11472: a0 = u64 [sp + 0x18]\n 11475: a1 = u64 [sp + 0x38]\n 11478: u64 [a0] = a1\n 11480: a1 = u64 [sp + 0x28]\n 11483: u64 [a0 + 0x18] = a1\n 11486: a1 = u64 [sp + 0x10]\n 11489: u64 [a0 + 0x8] = a1\n 11492: a1 = u64 [sp + 0x30]\n 11495: u64 [a0 + 0x10] = a1\n 11498: sp = s0 + 0xffffffffffffff00\n 11502: ra = u64 [sp + 0xf8]\n 11506: s0 = u64 [sp + 0xf0]\n 11510: s1 = u64 [sp + 0xe8]\n 11514: sp = sp + 0x100\n 11518: ret\n      : @148 (gas: 8)\n 11520: u64 [sp + 112] = 0\n 11523: u64 [sp + 104] = 0\n 11526: u64 [sp + 96] = 0\n 11529: a0 = 0x4e487b7100000000\n 11539: a1 = sp + 0x60\n 11542: u64 [sp + 0x78] = a0\n 11545: a0 = 0\n 11547: ra = 132, jump @8\n      : @149 [@dyn 66] (gas: 7)\n 11553: u64 [sp + 88] = 0\n 11556: u64 [sp + 80] = 0\n 11559: u64 [sp + 64] = 0x41\n 11563: a0 = 0x4\n 11566: a1 = sp + 0x40\n 11569: u64 [sp + 72] = 0\n 11572: ra = 134, jump @8\n      : @150 [@dyn 67] (gas: 3)\n 11578: a1 = 0x24\n 11581: a0 = 0\n 11583: ra = 136, jump @0\n      : @151 [@dyn 68] (gas: 6)\n 11589: i32 a1 = a0 + 0\n 11591: a0 = 0x1\n 11594: a2 = 0x24\n 11597: ra = 0x8a\n 11601: ecalli 7 // 'seal_return'\n 11603: fallthrough\n      : @152 [@dyn 69] (gas: 18)\n 11604: sp = sp + 0xffffffffffffffa0\n 11607: u64 [sp + 0x58] = ra\n 11610: u64 [sp + 0x50] = s0\n 11613: u64 [sp + 0x48] = s1\n 11616: s0 = sp + 0x60\n 11619: sp = sp & 0xfffffffffffffff0\n 11622: a2 = u64 [a1]\n 11624: a3 = u64 [a1 + 0x8]\n 11627: a4 = u64 [a1 + 0x10]\n 11630: a1 = u64 [a1 + 0x18]\n 11633: s1 = a0\n 11635: u64 [sp + 0x18] = a1\n 11638: u64 [sp + 0x10] = a4\n 11641: u64 [sp + 0x8] = a3\n 11644: a0 = sp + 0x20\n 11647: a1 = sp\n 11649: u64 [sp] = a2\n 11651: ra = 140, jump @142\n      : @153 [@dyn 70] (gas: 14)\n 11657: a0 = u64 [sp + 0x30]\n 11660: a1 = u64 [sp + 0x38]\n 11663: a2 = u64 [sp + 0x20]\n 11666: a3 = u64 [sp + 0x28]\n 11669: u64 [s1 + 0x10] = a0\n 11672: u64 [s1 + 0x18] = a1\n 11675: u64 [s1] = a2\n 11677: u64 [s1 + 0x8] = a3\n 11680: sp = s0 + 0xffffffffffffffa0\n 11683: ra = u64 [sp + 0x58]\n 11686: s0 = u64 [sp + 0x50]\n 11689: s1 = u64 [sp + 0x48]\n 11692: sp = sp + 0x60\n 11695: ret\n      : @154 (gas: 7)\n 11697: a4 = u64 [sp + 0x218]\n 11701: a3 = u64 [sp + 0x210]\n 11705: a2 = u64 [sp + 0x208]\n 11709: a0 = a3 | a4\n 11712: a1 = a2 <u 0x1\n 11715: a1 = 0 if a0 != 0\n 11717: jump @157 if a1 == 0\n      : @155 (gas: 50)\n 11721: a0 = u64 [sp + 0x200]\n 11725: u64 [sp + 0x58] = a0\n 11728: a0 = a0 + 0x1\n 11731: a1 = a0 <u 0x1\n 11734: a1 = a1 + a2\n 11737: u64 [sp + 0x200] = a0\n 11741: a0 = a0 | a1\n 11744: u64 [sp + 0x208] = a1\n 11748: a0 = a0 <u 0x1\n 11751: a0 = a0 + a3\n 11754: u64 [sp + 0x210] = a0\n 11758: a0 = a0 <u a3\n 11761: a0 = a0 + a4\n 11764: u64 [sp + 0x218] = a0\n 11768: a0 = u64 [sp + 0x70]\n 11771: u64 [sp + 0x1e8] = a0\n 11775: a0 = u64 [sp + 0x78]\n 11778: u64 [sp + 0x1e0] = a0\n 11782: a0 = u64 [sp + 0x68]\n 11785: u64 [sp + 0x1f0] = a0\n 11789: s1 = u64 [sp + 0x60]\n 11792: u64 [sp + 0x1f8] = s1\n 11796: i32 a1 = sp + 0x1e0\n 11800: u64 [sp + 0x50] = a3\n 11803: i32 a3 = sp + 0x200\n 11807: u64 [sp + 0x48] = a2\n 11810: a2 = 0xffffffffffffffff\n 11813: u64 [sp + 0x40] = a4\n 11816: a4 = 0x20\n 11819: a0 = 0\n 11821: ecalli 9 // 'set_storage'\n 11823: a0 = u64 [sp + 0x40]\n 11826: u64 [sp + 0x158] = a0\n 11830: a0 = u64 [sp + 0x50]\n 11833: u64 [sp + 0x150] = a0\n 11837: a0 = u64 [sp + 0x48]\n 11840: u64 [sp + 0x148] = a0\n 11844: a0 = u64 [sp + 0x58]\n 11847: u64 [sp + 0x140] = a0\n 11851: u64 [sp + 0x178] = s1\n 11855: a0 = u64 [sp + 0x68]\n 11858: u64 [sp + 0x170] = a0\n 11862: a0 = u64 [sp + 0x70]\n 11865: u64 [sp + 0x168] = a0\n 11869: a0 = sp + 0x180\n 11873: a1 = sp + 0x160\n 11877: a2 = sp + 0x140\n 11881: a3 = u64 [sp + 0x78]\n 11884: u64 [sp + 0x160] = a3\n 11888: ra = 142, jump @40\n      : @156 [@dyn 71] (gas: 444)\n 11894: a0 = u64 [sp + 0x1b8]\n 11898: u64 [sp + 0x58] = a0\n 11901: a0 = u64 [sp + 0x1b0]\n 11905: u64 [sp + 0x50] = a0\n 11908: s1 = u64 [sp + 0x1a8]\n 11912: a0 = u64 [sp + 0x1a0]\n 11916: u64 [sp + 0x20] = a0\n 11919: a3 = u64 [sp + 0x198]\n 11923: u64 [sp + 0x60] = a3\n 11926: a2 = u64 [sp + 0x190]\n 11930: u64 [sp + 0x68] = a2\n 11933: a1 = u64 [sp + 0x188]\n 11937: u64 [sp + 0x70] = a1\n 11940: a0 = u64 [sp + 0x180]\n 11944: u64 [sp + 0x78] = a0\n 11947: u64 [sp + 0x1f8] = a3\n 11951: u64 [sp + 0x1f0] = a2\n 11955: u64 [sp + 0x1e8] = a1\n 11959: u64 [sp + 0x1e0] = a0\n 11963: u64 [sp + 536] = 0\n 11967: u64 [sp + 528] = 0\n 11971: u64 [sp + 520] = 0\n 11975: u64 [sp + 512] = 0\n 11979: u32 [sp + 448] = 0x20\n 11984: i32 a1 = sp + 0x1e0\n 11988: i32 a3 = sp + 0x200\n 11992: i32 a4 = sp + 0x1c0\n 11996: a2 = 0xffffffffffffffff\n 11999: a0 = 0\n 12001: ecalli 5 // 'get_storage'\n 12003: a2 = u64 [sp + 0x20]\n 12006: a0 = a2 >> 0x3d\n 12009: a1 = s1 << 0x3\n 12012: a0 = a0 | a1\n 12015: a1 = a2 << 0x3\n 12018: a1 = a1 <u 0x100\n 12022: t1 = a1 ^ 0x1\n 12025: a1 = a0 >u 0\n 12027: t1 = a1 if a0 != 0\n 12030: s1 = s1 >> 0x3d\n 12033: a1 = u64 [sp + 0x50]\n 12036: a0 = a1 << 0x3\n 12039: a0 = a0 | s1\n 12042: a1 = a1 >> 0x3d\n 12045: a3 = u64 [sp + 0x58]\n 12048: a3 = a3 << 0x3\n 12051: a1 = a1 | a3\n 12054: a3 = a1 >u 0\n 12056: a4 = a0 >u 0\n 12058: a4 = a3 if a1 != 0\n 12061: a0 = a0 | a1\n 12064: t1 = a4 if a0 != 0\n 12067: a0 = u64 [sp + 0x200]\n 12071: u64 [sp + 0x58] = a0\n 12074: a0 = u64 [sp + 0x208]\n 12078: u64 [sp + 0x50] = a0\n 12081: a0 = u64 [sp + 0x210]\n 12085: u64 [sp + 0x48] = a0\n 12088: a0 = u64 [sp + 0x218]\n 12092: u64 [sp + 0x40] = a0\n 12095: u8 [sp + 307] = 0xff\n 12101: u8 [sp + 303] = 0xff\n 12107: u8 [sp + 302] = 0xff\n 12113: u8 [sp + 301] = 0xff\n 12119: u8 [sp + 299] = 0xff\n 12125: u8 [sp + 295] = 0xff\n 12131: u8 [sp + 294] = 0xff\n 12137: u8 [sp + 293] = 0xff\n 12143: u8 [sp + 291] = 0xff\n 12149: a0 = 0xffffffff\n 12159: u8 [sp + 0x12c] = a0\n 12163: u8 [sp + 0x124] = a0\n 12167: a0 = 0xffffffffffff\n 12177: u8 [sp + 0x132] = a0\n 12181: u8 [sp + 0x12a] = a0\n 12185: u8 [sp + 0x122] = a0\n 12189: u8 [sp + 304] = 0xffffffffffffffff\n 12194: u8 [sp + 296] = 0xffffffffffffffff\n 12199: u8 [sp + 288] = 0xffffffffffffffff\n 12204: a0 = 0xffffffffffffff\n 12214: u8 [sp + 0x131] = a0\n 12218: u8 [sp + 0x129] = a0\n 12222: u8 [sp + 0x121] = a0\n 12226: u8 [sp + 319] = 0\n 12230: u8 [sp + 318] = 0\n 12234: u8 [sp + 317] = 0\n 12238: u8 [sp + 316] = 0\n 12242: u8 [sp + 315] = 0\n 12246: u8 [sp + 314] = 0\n 12250: u8 [sp + 313] = 0\n 12254: u8 [sp + 312] = 0\n 12258: u8 [sp + 311] = 0\n 12262: u8 [sp + 310] = 0\n 12266: u8 [sp + 309] = 0\n 12270: u8 [sp + 308] = 0\n 12274: u8 [sp + 287] = 0\n 12278: u8 [sp + 286] = 0\n 12282: u8 [sp + 285] = 0\n 12286: u8 [sp + 284] = 0\n 12290: u8 [sp + 283] = 0\n 12294: u8 [sp + 282] = 0\n 12298: u8 [sp + 281] = 0\n 12302: u8 [sp + 280] = 0\n 12306: u8 [sp + 279] = 0\n 12310: u8 [sp + 278] = 0\n 12314: u8 [sp + 277] = 0\n 12318: u8 [sp + 276] = 0\n 12322: u8 [sp + 275] = 0\n 12326: u8 [sp + 274] = 0\n 12330: u8 [sp + 273] = 0\n 12334: u8 [sp + 272] = 0\n 12338: u8 [sp + 271] = 0\n 12342: u8 [sp + 270] = 0\n 12346: u8 [sp + 269] = 0\n 12350: u8 [sp + 268] = 0\n 12354: u8 [sp + 267] = 0\n 12358: u8 [sp + 266] = 0\n 12362: u8 [sp + 265] = 0\n 12366: u8 [sp + 264] = 0\n 12370: u8 [sp + 263] = 0\n 12374: u8 [sp + 262] = 0\n 12378: u8 [sp + 261] = 0\n 12382: u8 [sp + 260] = 0\n 12386: u8 [sp + 259] = 0\n 12390: u8 [sp + 258] = 0\n 12394: u8 [sp + 257] = 0\n 12398: u8 [sp + 256] = 0\n 12402: a4 = a2 & 0x1f\n 12405: a3 = sp + 0x120\n 12409: a3 = a3 - a4\n 12412: a0 = u8 [a3 + 0x19]\n 12415: a1 = u8 [a3 + 0x18]\n 12418: a5 = u8 [a3 + 0x1a]\n 12421: s1 = u8 [a3 + 0x1b]\n 12424: a0 = a0 << 0x8\n 12427: a0 = a0 | a1\n 12430: a5 = a5 << 0x10\n 12433: s1 = s1 << 0x18\n 12436: a5 = a5 | s1\n 12439: t0 = a5 | a0\n 12442: a1 = u8 [a3 + 0x1d]\n 12445: a5 = u8 [a3 + 0x1c]\n 12448: s1 = u8 [a3 + 0x1e]\n 12451: a0 = u8 [a3 + 0x1f]\n 12454: a1 = a1 << 0x8\n 12457: a1 = a1 | a5\n 12460: s1 = s1 << 0x10\n 12463: a0 = a0 << 0x18\n 12466: a0 = a0 | s1\n 12469: a0 = a0 | a1\n 12472: a0 = a0 << 0x20\n 12475: a0 = a0 | t0\n 12478: u64 [sp + 0x20] = a0\n 12481: a0 = u8 [a3 + 0x11]\n 12484: a1 = u8 [a3 + 0x10]\n 12487: a5 = u8 [a3 + 0x12]\n 12490: s1 = u8 [a3 + 0x13]\n 12493: a0 = a0 << 0x8\n 12496: a0 = a0 | a1\n 12499: a5 = a5 << 0x10\n 12502: s1 = s1 << 0x18\n 12505: a5 = a5 | s1\n 12508: t0 = a5 | a0\n 12511: a1 = u8 [a3 + 0x15]\n 12514: a5 = u8 [a3 + 0x14]\n 12517: s1 = u8 [a3 + 0x16]\n 12520: a0 = u8 [a3 + 0x17]\n 12523: a1 = a1 << 0x8\n 12526: a1 = a1 | a5\n 12529: s1 = s1 << 0x10\n 12532: a0 = a0 << 0x18\n 12535: a0 = a0 | s1\n 12538: a0 = a0 | a1\n 12541: a0 = a0 << 0x20\n 12544: a0 = a0 | t0\n 12547: u64 [sp + 0x18] = a0\n 12550: a0 = u8 [a3 + 0x9]\n 12553: a1 = u8 [a3 + 0x8]\n 12556: a5 = u8 [a3 + 0xa]\n 12559: s1 = u8 [a3 + 0xb]\n 12562: a0 = a0 << 0x8\n 12565: a0 = a0 | a1\n 12568: a5 = a5 << 0x10\n 12571: s1 = s1 << 0x18\n 12574: a5 = a5 | s1\n 12577: a2 = a5 | a0\n 12580: a1 = u8 [a3 + 0xd]\n 12583: a5 = u8 [a3 + 0xc]\n 12586: s1 = u8 [a3 + 0xe]\n 12589: a0 = u8 [a3 + 0xf]\n 12592: a1 = a1 << 0x8\n 12595: a1 = a1 | a5\n 12598: s1 = s1 << 0x10\n 12601: a0 = a0 << 0x18\n 12604: a0 = a0 | s1\n 12607: a0 = a0 | a1\n 12610: a0 = a0 << 0x20\n 12613: ra = a0 | a2\n 12616: a0 = u8 [a3 + 0x1]\n 12619: a1 = u8 [a3]\n 12621: a2 = u8 [a3 + 0x2]\n 12624: s1 = u8 [a3 + 0x3]\n 12627: a0 = a0 << 0x8\n 12630: a0 = a0 | a1\n 12633: a2 = a2 << 0x10\n 12636: s1 = s1 << 0x18\n 12639: a2 = a2 | s1\n 12642: a0 = a0 | a2\n 12645: a1 = u8 [a3 + 0x5]\n 12648: a2 = u8 [a3 + 0x4]\n 12651: s1 = u8 [a3 + 0x6]\n 12654: a3 = u8 [a3 + 0x7]\n 12657: a1 = a1 << 0x8\n 12660: a1 = a1 | a2\n 12663: s1 = s1 << 0x10\n 12666: a3 = a3 << 0x18\n 12669: a3 = a3 | s1\n 12672: a1 = a1 | a3\n 12675: a1 = a1 << 0x20\n 12678: t2 = a1 | a0\n 12681: a1 = u64 [sp + 0x28]\n 12684: a0 = a1 >> 0x38\n 12687: u8 [sp + 0xe7] = a0\n 12691: a0 = a1 >> 0x30\n 12694: u8 [sp + 0xe6] = a0\n 12698: a0 = a1 >> 0x28\n 12701: u8 [sp + 0xe5] = a0\n 12705: a0 = a1 >> 0x20\n 12708: u8 [sp + 0xe4] = a0\n 12712: a0 = a1 >> 0x18\n 12715: u8 [sp + 0xe3] = a0\n 12719: a0 = a1 >> 0x10\n 12722: u8 [sp + 0xe2] = a0\n 12726: u8 [sp + 0xe0] = a1\n 12730: a0 = a1 >> 0x8\n 12733: u8 [sp + 0xe1] = a0\n 12737: a1 = u64 [sp + 0x30]\n 12740: a0 = a1 >> 0x38\n 12743: u8 [sp + 0xef] = a0\n 12747: a0 = a1 >> 0x30\n 12750: u8 [sp + 0xee] = a0\n 12754: a0 = a1 >> 0x28\n 12757: u8 [sp + 0xed] = a0\n 12761: a0 = a1 >> 0x20\n 12764: u8 [sp + 0xec] = a0\n 12768: a0 = a1 >> 0x18\n 12771: u8 [sp + 0xeb] = a0\n 12775: a0 = a1 >> 0x10\n 12778: u8 [sp + 0xea] = a0\n 12782: u8 [sp + 0xe8] = a1\n 12786: a0 = a1 >> 0x8\n 12789: u8 [sp + 0xe9] = a0\n 12793: a1 = u64 [sp + 0x38]\n 12796: a0 = a1 >> 0x18\n 12799: u8 [sp + 0xf3] = a0\n 12803: a0 = a1 >> 0x10\n 12806: u8 [sp + 0xf2] = a0\n 12810: u8 [sp + 0xf0] = a1\n 12814: a0 = a1 >> 0x8\n 12817: u8 [sp + 0xf1] = a0\n 12821: a0 = sp + 0xe0\n 12825: a4 = a0 - a4\n 12828: u8 [sp + 255] = 0\n 12832: u8 [sp + 254] = 0\n 12836: u8 [sp + 253] = 0\n 12840: u8 [sp + 252] = 0\n 12844: u8 [sp + 251] = 0\n 12848: u8 [sp + 250] = 0\n 12852: u8 [sp + 249] = 0\n 12856: u8 [sp + 248] = 0\n 12860: u8 [sp + 247] = 0\n 12864: u8 [sp + 246] = 0\n 12868: u8 [sp + 245] = 0\n 12872: u8 [sp + 244] = 0\n 12876: u8 [sp + 223] = 0\n 12880: u8 [sp + 222] = 0\n 12884: u8 [sp + 221] = 0\n 12888: u8 [sp + 220] = 0\n 12892: u8 [sp + 219] = 0\n 12896: u8 [sp + 218] = 0\n 12900: u8 [sp + 217] = 0\n 12904: u8 [sp + 216] = 0\n 12908: u8 [sp + 215] = 0\n 12912: u8 [sp + 214] = 0\n 12916: u8 [sp + 213] = 0\n 12920: u8 [sp + 212] = 0\n 12924: u8 [sp + 211] = 0\n 12928: u8 [sp + 210] = 0\n 12932: u8 [sp + 209] = 0\n 12936: u8 [sp + 208] = 0\n 12940: u8 [sp + 207] = 0\n 12944: u8 [sp + 206] = 0\n 12948: u8 [sp + 205] = 0\n 12952: u8 [sp + 204] = 0\n 12956: u8 [sp + 203] = 0\n 12960: u8 [sp + 202] = 0\n 12964: u8 [sp + 201] = 0\n 12968: u8 [sp + 200] = 0\n 12972: u8 [sp + 199] = 0\n 12976: u8 [sp + 198] = 0\n 12980: u8 [sp + 197] = 0\n 12984: u8 [sp + 196] = 0\n 12988: u8 [sp + 195] = 0\n 12992: u8 [sp + 194] = 0\n 12996: u8 [sp + 193] = 0\n 13000: u8 [sp + 192] = 0\n 13004: a0 = u8 [a4 + 0x19]\n 13007: a1 = u8 [a4 + 0x18]\n 13010: a2 = u8 [a4 + 0x1a]\n 13013: s1 = u8 [a4 + 0x1b]\n 13016: a0 = a0 << 0x8\n 13019: a0 = a0 | a1\n 13022: a2 = a2 << 0x10\n 13025: s1 = s1 << 0x18\n 13028: a2 = a2 | s1\n 13031: a3 = a2 | a0\n 13034: a1 = u8 [a4 + 0x1d]\n 13037: a2 = u8 [a4 + 0x1c]\n 13040: s1 = u8 [a4 + 0x1e]\n 13043: a0 = u8 [a4 + 0x1f]\n 13046: a1 = a1 << 0x8\n 13049: a1 = a1 | a2\n 13052: s1 = s1 << 0x10\n 13055: a0 = a0 << 0x18\n 13058: a0 = a0 | s1\n 13061: a0 = a0 | a1\n 13064: a0 = a0 << 0x20\n 13067: s1 = a0 | a3\n 13070: a0 = u8 [a4 + 0x11]\n 13073: a1 = u8 [a4 + 0x10]\n 13076: a2 = u8 [a4 + 0x12]\n 13079: a3 = u8 [a4 + 0x13]\n 13082: a0 = a0 << 0x8\n 13085: a0 = a0 | a1\n 13088: a2 = a2 << 0x10\n 13091: a3 = a3 << 0x18\n 13094: a2 = a2 | a3\n 13097: a5 = a2 | a0\n 13100: a1 = u8 [a4 + 0x15]\n 13103: a2 = u8 [a4 + 0x14]\n 13106: a3 = u8 [a4 + 0x16]\n 13109: a0 = u8 [a4 + 0x17]\n 13112: a1 = a1 << 0x8\n 13115: a1 = a1 | a2\n 13118: a3 = a3 << 0x10\n 13121: a0 = a0 << 0x18\n 13124: a0 = a0 | a3\n 13127: a0 = a0 | a1\n 13130: a0 = a0 << 0x20\n 13133: t0 = a0 | a5\n 13136: a0 = u8 [a4 + 0x9]\n 13139: a2 = u8 [a4 + 0x8]\n 13142: a3 = u8 [a4 + 0xa]\n 13145: a5 = u8 [a4 + 0xb]\n 13148: a0 = a0 << 0x8\n 13151: a0 = a0 | a2\n 13154: a3 = a3 << 0x10\n 13157: a5 = a5 << 0x18\n 13160: a3 = a3 | a5\n 13163: a1 = a3 | a0\n 13166: a2 = u8 [a4 + 0xd]\n 13169: a3 = u8 [a4 + 0xc]\n 13172: a5 = u8 [a4 + 0xe]\n 13175: a0 = u8 [a4 + 0xf]\n 13178: a2 = a2 << 0x8\n 13181: a2 = a2 | a3\n 13184: a5 = a5 << 0x10\n 13187: a0 = a0 << 0x18\n 13190: a0 = a0 | a5\n 13193: a0 = a0 | a2\n 13196: a0 = a0 << 0x20\n 13199: a0 = a0 | a1\n 13202: a1 = u8 [a4 + 0x1]\n 13205: a2 = u8 [a4]\n 13207: a3 = u8 [a4 + 0x2]\n 13210: a5 = u8 [a4 + 0x3]\n 13213: a1 = a1 << 0x8\n 13216: a1 = a1 | a2\n 13219: a3 = a3 << 0x10\n 13222: a5 = a5 << 0x18\n 13225: a3 = a3 | a5\n 13228: a1 = a1 | a3\n 13231: a2 = u8 [a4 + 0x5]\n 13234: a3 = u8 [a4 + 0x4]\n 13237: a5 = u8 [a4 + 0x6]\n 13240: a4 = u8 [a4 + 0x7]\n 13243: a2 = a2 << 0x8\n 13246: a2 = a2 | a3\n 13249: a5 = a5 << 0x10\n 13252: a4 = a4 << 0x18\n 13255: a4 = a4 | a5\n 13258: a2 = a2 | a4\n 13261: a2 = a2 << 0x20\n 13264: a4 = a2 | a1\n 13267: t2 = 0 if t1 != 0\n 13269: ra = 0 if t1 != 0\n 13271: a5 = u64 [sp + 0x18]\n 13274: a5 = 0 if t1 != 0\n 13276: a2 = u64 [sp + 0x20]\n 13279: a2 = 0 if t1 != 0\n 13281: a4 = 0 if t1 != 0\n 13283: a0 = 0 if t1 != 0\n 13285: t0 = 0 if t1 != 0\n 13287: s1 = 0 if t1 != 0\n 13289: a1 = u64 [sp + 0x40]\n 13292: t1 = a1 & ~a2\n 13295: a2 = a2 & s1\n 13298: a1 = u64 [sp + 0x48]\n 13301: a3 = a1 & ~a5\n 13304: a5 = t0 & a5\n 13307: a1 = u64 [sp + 0x50]\n 13310: s1 = a1 & ~ra\n 13313: a0 = a0 & ra\n 13316: a1 = u64 [sp + 0x58]\n 13319: a1 = a1 & ~t2\n 13322: a4 = a4 & t2\n 13325: a1 = a1 | a4\n 13328: a0 = a0 | s1\n 13331: a3 = a3 | a5\n 13334: a2 = t1 | a2\n 13337: a4 = u64 [sp + 0x60]\n 13340: u64 [sp + 0x1f8] = a4\n 13344: a4 = u64 [sp + 0x68]\n 13347: u64 [sp + 0x1f0] = a4\n 13351: a4 = u64 [sp + 0x70]\n 13354: u64 [sp + 0x1e8] = a4\n 13358: a4 = u64 [sp + 0x78]\n 13361: u64 [sp + 0x1e0] = a4\n 13365: u64 [sp + 0x218] = a2\n 13369: u64 [sp + 0x210] = a3\n 13373: u64 [sp + 0x208] = a0\n 13377: u64 [sp + 0x200] = a1\n 13381: i32 a1 = sp + 0x1e0\n 13385: i32 a3 = sp + 0x200\n 13389: a2 = 0xffffffffffffffff\n 13392: a4 = 0x20\n 13395: a0 = 0\n 13397: ecalli 9 // 'set_storage'\n 13399: sp = s0 + 0xfffffffffffffdc0\n 13403: ra = u64 [sp + 0x238]\n 13407: s0 = u64 [sp + 0x230]\n 13411: s1 = u64 [sp + 0x228]\n 13415: sp = sp + 0x240\n 13419: ret\n      : @157 (gas: 8)\n 13421: u64 [sp + 176] = 0\n 13425: u64 [sp + 168] = 0\n 13429: u64 [sp + 160] = 0\n 13433: a0 = 0x4e487b7100000000\n 13443: a1 = sp + 0xa0\n 13447: u64 [sp + 0xb8] = a0\n 13451: a0 = 0\n 13453: ra = 144, jump @8\n      : @158 [@dyn 72] (gas: 7)\n 13459: u64 [sp + 152] = 0\n 13463: u64 [sp + 144] = 0\n 13467: u64 [sp + 128] = 0x41\n 13472: a0 = 0x4\n 13475: a1 = sp + 0x80\n 13479: u64 [sp + 136] = 0\n 13483: ra = 146, jump @8\n      : @159 [@dyn 73] (gas: 3)\n 13489: a1 = 0x24\n 13492: a0 = 0\n 13494: ra = 148, jump @0\n      : @160 [@dyn 74] (gas: 6)\n 13500: i32 a1 = a0 + 0\n 13502: a0 = 0x1\n 13505: a2 = 0x24\n 13508: ra = 0x96\n 13512: ecalli 7 // 'seal_return'\n 13514: fallthrough\n      : @161 [@dyn 75] (gas: 16)\n 13515: sp = sp + 0xfffffffffffffec0\n 13519: u64 [sp + 0x138] = ra\n 13523: u64 [sp + 0x130] = s0\n 13527: u64 [sp + 0x128] = s1\n 13531: s0 = sp + 0x140\n 13535: sp = sp & 0xffffffffffffffe0\n 13538: a1 = u64 [a0]\n 13540: u64 [sp + 0x38] = a1\n 13543: a1 = u64 [a0 + 0x8]\n 13546: u64 [sp + 0x30] = a1\n 13549: a1 = u64 [a0 + 0x10]\n 13552: u64 [sp + 0x28] = a1\n 13555: s1 = u64 [a0 + 0x18]\n 13558: a1 = 0x20\n 13561: a0 = 0\n 13563: ra = 152, jump @0\n      : @162 [@dyn 76] (gas: 74)\n 13569: a2 = reverse s1\n 13571: a1 = u64 [sp + 0x28]\n 13574: a3 = reverse a1\n 13576: a1 = u64 [sp + 0x30]\n 13579: a5 = reverse a1\n 13581: a1 = u64 [sp + 0x38]\n 13584: a4 = reverse a1\n 13586: u8 [a0 + 0x18] = a4\n 13589: u8 [a0 + 0x10] = a5\n 13592: u8 [a0 + 0x8] = a3\n 13595: u8 [a0] = a2\n 13597: a1 = a4 >> 0x38\n 13600: u8 [a0 + 0x1f] = a1\n 13603: a1 = a4 >> 0x30\n 13606: u8 [a0 + 0x1e] = a1\n 13609: a1 = a4 >> 0x28\n 13612: u8 [a0 + 0x1d] = a1\n 13615: a1 = a4 >> 0x20\n 13618: u8 [a0 + 0x1c] = a1\n 13621: a1 = a4 >> 0x18\n 13624: u8 [a0 + 0x1b] = a1\n 13627: a1 = a4 >> 0x10\n 13630: u8 [a0 + 0x1a] = a1\n 13633: u64 [sp + 0x10] = a4\n 13636: a1 = a4 >> 0x8\n 13639: u8 [a0 + 0x19] = a1\n 13642: a1 = a5 >> 0x38\n 13645: u8 [a0 + 0x17] = a1\n 13648: a1 = a5 >> 0x30\n 13651: u8 [a0 + 0x16] = a1\n 13654: a1 = a5 >> 0x28\n 13657: u8 [a0 + 0x15] = a1\n 13660: a1 = a5 >> 0x20\n 13663: u8 [a0 + 0x14] = a1\n 13666: a1 = a5 >> 0x18\n 13669: u8 [a0 + 0x13] = a1\n 13672: a1 = a5 >> 0x10\n 13675: u8 [a0 + 0x12] = a1\n 13678: u64 [sp + 0x8] = a5\n 13681: a1 = a5 >> 0x8\n 13684: u8 [a0 + 0x11] = a1\n 13687: a1 = a3 >> 0x38\n 13690: u8 [a0 + 0xf] = a1\n 13693: a1 = a3 >> 0x30\n 13696: u8 [a0 + 0xe] = a1\n 13699: a1 = a3 >> 0x28\n 13702: u8 [a0 + 0xd] = a1\n 13705: a1 = a3 >> 0x20\n 13708: u8 [a0 + 0xc] = a1\n 13711: a1 = a3 >> 0x18\n 13714: u8 [a0 + 0xb] = a1\n 13717: a1 = a3 >> 0x10\n 13720: u8 [a0 + 0xa] = a1\n 13723: u64 [sp + 0x18] = a3\n 13726: a1 = a3 >> 0x8\n 13729: u8 [a0 + 0x9] = a1\n 13732: a1 = a2 >> 0x38\n 13735: u8 [a0 + 0x7] = a1\n 13738: a1 = a2 >> 0x30\n 13741: u8 [a0 + 0x6] = a1\n 13744: a1 = a2 >> 0x28\n 13747: u8 [a0 + 0x5] = a1\n 13750: a1 = a2 >> 0x20\n 13753: u8 [a0 + 0x4] = a1\n 13756: a1 = a2 >> 0x18\n 13759: u8 [a0 + 0x3] = a1\n 13762: a1 = a2 >> 0x10\n 13765: u8 [a0 + 0x2] = a1\n 13768: u64 [sp + 0x20] = a2\n 13771: a1 = a2 >> 0x8\n 13774: u8 [a0 + 0x1] = a1\n 13777: a0 = 0x20\n 13780: a1 = 0x20\n 13783: ra = 154, jump @0\n      : @163 [@dyn 77] (gas: 35)\n 13789: u8 [a0 + 31] = 0\n 13792: u8 [a0 + 30] = 0\n 13795: u8 [a0 + 29] = 0\n 13798: u8 [a0 + 28] = 0\n 13801: u8 [a0 + 27] = 0\n 13804: u8 [a0 + 26] = 0\n 13807: u8 [a0 + 25] = 0\n 13810: u8 [a0 + 24] = 0\n 13813: u8 [a0 + 23] = 0\n 13816: u8 [a0 + 22] = 0\n 13819: u8 [a0 + 21] = 0\n 13822: u8 [a0 + 20] = 0\n 13825: u8 [a0 + 19] = 0\n 13828: u8 [a0 + 18] = 0\n 13831: u8 [a0 + 17] = 0\n 13834: u8 [a0 + 16] = 0\n 13837: u8 [a0 + 15] = 0\n 13840: u8 [a0 + 14] = 0\n 13843: u8 [a0 + 13] = 0\n 13846: u8 [a0 + 12] = 0\n 13849: u8 [a0 + 11] = 0\n 13852: u8 [a0 + 10] = 0\n 13855: u8 [a0 + 9] = 0\n 13858: u8 [a0 + 8] = 0\n 13861: u8 [a0 + 7] = 0\n 13864: u8 [a0 + 6] = 0\n 13867: u8 [a0 + 5] = 0\n 13870: u8 [a0 + 4] = 0\n 13873: u8 [a0 + 3] = 0\n 13876: u8 [a0 + 2] = 0\n 13879: u8 [a0 + 1] = 0\n 13882: u8 [a0 + 0] = 0\n 13884: a1 = 0x40\n 13887: a0 = 0\n 13889: ra = 156, jump @0\n      : @164 [@dyn 78] (gas: 80)\n 13895: i32 a0 = a0 + 0\n 13897: i32 a2 = sp + 0xc0\n 13901: a1 = 0x40\n 13904: ecalli 6 // 'hash_keccak_256'\n 13906: a0 = u64 [sp + 0xd8]\n 13910: a1 = u64 [sp + 0xd0]\n 13914: a2 = u64 [sp + 0xc8]\n 13918: a3 = u64 [sp + 0xc0]\n 13922: a0 = reverse a0\n 13924: u64 [sp + 0x38] = a0\n 13927: a0 = reverse a1\n 13929: u64 [sp + 0x30] = a0\n 13932: a0 = reverse a2\n 13934: u64 [sp + 0x28] = a0\n 13937: s1 = reverse a3\n 13939: i32 a0 = sp + 0x80\n 13943: ecalli 3 // 'caller'\n 13945: a0 = u64 [sp + 0x88]\n 13949: a1 = i32 [sp + 0x90]\n 13953: a2 = u64 [sp + 0x80]\n 13957: a0 = reverse a0\n 13959: a3 = a0 << 0x20\n 13962: a1 = reverse a1\n 13964: a1 = a1 >> 0x20\n 13967: a3 = a3 | a1\n 13970: a0 = a0 >> 0x20\n 13973: a1 = reverse a2\n 13975: a2 = a1 << 0x20\n 13978: a0 = a0 | a2\n 13981: a1 = a1 >> 0x20\n 13984: u64 [sp + 88] = 0\n 13987: u64 [sp + 0x78] = s1\n 13990: a2 = u64 [sp + 0x28]\n 13993: u64 [sp + 0x70] = a2\n 13996: a2 = u64 [sp + 0x30]\n 13999: u64 [sp + 0x68] = a2\n 14002: a2 = u64 [sp + 0x38]\n 14005: u64 [sp + 0x60] = a2\n 14008: u64 [sp + 0x50] = a1\n 14011: u64 [sp + 0x48] = a0\n 14014: a0 = sp + 0x60\n 14017: a1 = sp + 0x40\n 14020: u64 [sp + 0x40] = a3\n 14023: ra = 0x9e\n 14027: sp = sp + 0xfffffffffffffdc0\n 14031: u64 [sp + 0x238] = ra\n 14035: u64 [sp + 0x230] = s0\n 14039: u64 [sp + 0x228] = s1\n 14043: s0 = sp + 0x240\n 14047: sp = sp & 0xffffffffffffffe0\n 14050: a2 = u64 [a1 + 0x10]\n 14053: u64 [sp + 0x38] = a2\n 14056: a2 = u64 [a1 + 0x8]\n 14059: u64 [sp + 0x30] = a2\n 14062: a1 = u64 [a1]\n 14064: u64 [sp + 0x28] = a1\n 14067: a3 = u64 [a0 + 0x18]\n 14070: a2 = u64 [a0 + 0x10]\n 14073: a1 = u64 [a0 + 0x8]\n 14076: a0 = u64 [a0]\n 14078: u64 [sp + 0x60] = a3\n 14081: u64 [sp + 0x1f8] = a3\n 14085: u64 [sp + 0x68] = a2\n 14088: u64 [sp + 0x1f0] = a2\n 14092: u64 [sp + 0x70] = a1\n 14095: u64 [sp + 0x1e8] = a1\n 14099: u64 [sp + 0x78] = a0\n 14102: u64 [sp + 0x1e0] = a0\n 14106: u64 [sp + 536] = 0\n 14110: u64 [sp + 528] = 0\n 14114: u64 [sp + 520] = 0\n 14118: u64 [sp + 512] = 0\n 14122: u32 [sp + 448] = 0x20\n 14127: i32 a1 = sp + 0x1e0\n 14131: i32 a3 = sp + 0x200\n 14135: i32 a4 = sp + 0x1c0\n 14139: a2 = 0xffffffffffffffff\n 14142: a0 = 0\n 14144: ecalli 5 // 'get_storage'\n 14146: jump @154\n      : @165 [@dyn 79] (gas: 11)\n 14149: i32 a0 = sp + 0xa0\n 14153: ecalli 3 // 'caller'\n 14155: a0 = u32 [sp + 0xb0]\n 14159: u64 [sp + 0x30] = a0\n 14162: a0 = u64 [sp + 0xa8]\n 14166: u64 [sp + 0x28] = a0\n 14169: a0 = u64 [sp + 0xa0]\n 14173: u64 [sp + 0x38] = a0\n 14176: a0 = 0x40\n 14179: a1 = 0x20\n 14182: ra = 160, jump @0\n      : @166 [@dyn 80] (gas: 100)\n 14188: a1 = u8 [a0 + 0x11]\n 14191: a2 = u8 [a0 + 0x10]\n 14194: a3 = u8 [a0 + 0x12]\n 14197: a4 = u8 [a0 + 0x13]\n 14200: a1 = a1 << 0x8\n 14203: a1 = a1 | a2\n 14206: a3 = a3 << 0x10\n 14209: a4 = a4 << 0x18\n 14212: a3 = a3 | a4\n 14215: a1 = a1 | a3\n 14218: a2 = u8 [a0 + 0x15]\n 14221: a3 = u8 [a0 + 0x14]\n 14224: a4 = u8 [a0 + 0x16]\n 14227: a5 = u8 [a0 + 0x17]\n 14230: a2 = a2 << 0x8\n 14233: a2 = a2 | a3\n 14236: a4 = a4 << 0x10\n 14239: a5 = a5 << 0x18\n 14242: a4 = a4 | a5\n 14245: a2 = a2 | a4\n 14248: a2 = a2 << 0x20\n 14251: t0 = a2 | a1\n 14254: a2 = u8 [a0 + 0x1]\n 14257: a3 = u8 [a0]\n 14259: a4 = u8 [a0 + 0x2]\n 14262: a5 = u8 [a0 + 0x3]\n 14265: a2 = a2 << 0x8\n 14268: a2 = a2 | a3\n 14271: a4 = a4 << 0x10\n 14274: a5 = a5 << 0x18\n 14277: a4 = a4 | a5\n 14280: a2 = a2 | a4\n 14283: a3 = u8 [a0 + 0x5]\n 14286: a4 = u8 [a0 + 0x4]\n 14289: a5 = u8 [a0 + 0x6]\n 14292: s1 = u8 [a0 + 0x7]\n 14295: a3 = a3 << 0x8\n 14298: a3 = a3 | a4\n 14301: a5 = a5 << 0x10\n 14304: s1 = s1 << 0x18\n 14307: a5 = a5 | s1\n 14310: a3 = a3 | a5\n 14313: a3 = a3 << 0x20\n 14316: a2 = a2 | a3\n 14319: a3 = u8 [a0 + 0x19]\n 14322: a4 = u8 [a0 + 0x18]\n 14325: a5 = u8 [a0 + 0x1a]\n 14328: s1 = u8 [a0 + 0x1b]\n 14331: a3 = a3 << 0x8\n 14334: a3 = a3 | a4\n 14337: a5 = a5 << 0x10\n 14340: s1 = s1 << 0x18\n 14343: a5 = a5 | s1\n 14346: a3 = a3 | a5\n 14349: a4 = u8 [a0 + 0x1d]\n 14352: a5 = u8 [a0 + 0x1c]\n 14355: s1 = u8 [a0 + 0x1e]\n 14358: a1 = u8 [a0 + 0x1f]\n 14361: a4 = a4 << 0x8\n 14364: a4 = a4 | a5\n 14367: s1 = s1 << 0x10\n 14370: a1 = a1 << 0x18\n 14373: a1 = a1 | s1\n 14376: a1 = a1 | a4\n 14379: a1 = a1 << 0x20\n 14382: a3 = a3 | a1\n 14385: a1 = u8 [a0 + 0x9]\n 14388: a4 = u8 [a0 + 0x8]\n 14391: a5 = u8 [a0 + 0xa]\n 14394: s1 = u8 [a0 + 0xb]\n 14397: a1 = a1 << 0x8\n 14400: a1 = a1 | a4\n 14403: a5 = a5 << 0x10\n 14406: s1 = s1 << 0x18\n 14409: a5 = a5 | s1\n 14412: a1 = a1 | a5\n 14415: a4 = u8 [a0 + 0xd]\n 14418: a5 = u8 [a0 + 0xc]\n 14421: s1 = u8 [a0 + 0xe]\n 14424: a0 = u8 [a0 + 0xf]\n 14427: a4 = a4 << 0x8\n 14430: a4 = a4 | a5\n 14433: s1 = s1 << 0x10\n 14436: a0 = a0 << 0x18\n 14439: a0 = a0 | s1\n 14442: a0 = a0 | a4\n 14445: a0 = a0 << 0x20\n 14448: a0 = a0 | a1\n 14451: a1 = reverse a0\n 14453: a0 = reverse a3\n 14455: a2 = reverse a2\n 14457: a3 = reverse t0\n 14459: a2 = a2 | a3\n 14462: a3 = a0 | a1\n 14465: a3 = a3 | a2\n 14468: a3 = a3 >> 0x20\n 14471: a1 = a1 | a2\n 14474: a1 = a1 << 0x20\n 14477: a1 = a1 | a3\n 14480: jump @169 if a1 != 0\n      : @167 (gas: 17)\n 14484: s1 = u64 [sp + 0x38]\n 14487: a1 = reverse s1\n 14489: a1 = a1 << 0x20\n 14492: a2 = u64 [sp + 0x28]\n 14495: a2 = reverse a2\n 14497: a3 = a2 >> 0x20\n 14500: a1 = a1 | a3\n 14503: u64 [sp + 0x28] = a1\n 14506: a2 = a2 << 0x20\n 14509: a1 = u64 [sp + 0x30]\n 14512: a1 = reverse a1\n 14514: a1 = a1 >> 0x20\n 14517: a1 = a1 | a2\n 14520: u64 [sp + 0x30] = a1\n 14523: i32 a0 = a0 + 0\n 14525: a1 = 0\n 14527: ra = 162, jump @0\n      : @168 [@dyn 81] (gas: 36)\n 14533: a1 = u64 [0x20000]\n 14538: a2 = u64 [0x20008]\n 14543: a3 = u64 [0x20010]\n 14548: a4 = u64 [0x20018]\n 14553: u64 [sp + 0xd8] = a1\n 14557: u64 [sp + 0xd0] = a2\n 14561: u64 [sp + 0xc8] = a3\n 14565: u64 [sp + 0xc0] = a4\n 14569: a1 = u64 [sp + 0x8]\n 14572: u64 [sp + 0xf0] = a1\n 14576: a1 = u64 [sp + 0x18]\n 14579: u64 [sp + 0xe8] = a1\n 14583: a1 = u64 [sp + 0x20]\n 14586: u64 [sp + 0xe0] = a1\n 14590: a1 = u64 [sp + 0x10]\n 14593: u64 [sp + 0xf8] = a1\n 14597: a1 = u64 [sp + 0x30]\n 14600: a1 = reverse a1\n 14602: a2 = u64 [sp + 0x28]\n 14605: a2 = reverse a2\n 14607: a3 = s1 << 0x20\n 14610: u64 [sp + 0x108] = a3\n 14614: u64 [sp + 256] = 0\n 14618: u64 [sp + 0x110] = a2\n 14622: u64 [sp + 0x118] = a1\n 14626: i32 a2 = a0 + 0\n 14628: i32 a0 = sp + 0xc0\n 14632: a1 = 0x3\n 14635: a3 = 0\n 14637: ecalli 4 // 'deposit_event'\n 14639: sp = s0 + 0xfffffffffffffec0\n 14643: ra = u64 [sp + 0x138]\n 14647: s0 = u64 [sp + 0x130]\n 14651: s1 = u64 [sp + 0x128]\n 14655: sp = sp + 0x140\n 14659: ret\n      : @169 (gas: 1)\n 14661: trap\n      : @170 [export #0: 'call'] (gas: 2)\n 14662: a0 = 0\n 14664: ra = 164, jump @10\n      : @171 [@dyn 82] [export #1: 'deploy'] (gas: 2)\n 14670: a0 = 0x1\n 14673: ra = 166, jump @10\n      : @172 [@dyn 83] (gas: 27)\n 14679: sp = sp + 0xffffffffffffff80\n 14682: u64 [sp + 0x78] = ra\n 14685: u64 [sp + 0x70] = s0\n 14688: u64 [sp + 0x68] = s1\n 14691: s0 = sp + 0x80\n 14695: sp = sp & 0xfffffffffffffff0\n 14698: t0 = u64 [a1]\n 14700: t1 = u64 [a1 + 0x8]\n 14703: t2 = u64 [a1 + 0x10]\n 14706: a1 = u64 [a1 + 0x18]\n 14709: a3 = u64 [a2]\n 14711: a4 = u64 [a2 + 0x8]\n 14714: a5 = u64 [a2 + 0x10]\n 14717: a2 = u64 [a2 + 0x18]\n 14720: s1 = a0\n 14722: u64 [sp + 0x18] = a2\n 14725: u64 [sp + 0x10] = a5\n 14728: u64 [sp + 0x8] = a4\n 14731: u64 [sp] = a3\n 14733: u64 [sp + 0x38] = a1\n 14736: u64 [sp + 0x30] = t2\n 14739: u64 [sp + 0x28] = t1\n 14742: a0 = sp + 0x40\n 14745: a1 = sp + 0x20\n 14748: a2 = sp\n 14750: u64 [sp + 0x20] = t0\n 14753: ra = 168, jump @123\n      : @173 [@dyn 84] (gas: 14)\n 14759: a0 = u64 [sp + 0x50]\n 14762: a1 = u64 [sp + 0x58]\n 14765: a2 = u64 [sp + 0x40]\n 14768: a3 = u64 [sp + 0x48]\n 14771: u64 [s1 + 0x10] = a0\n 14774: u64 [s1 + 0x18] = a1\n 14777: u64 [s1] = a2\n 14779: u64 [s1 + 0x8] = a3\n 14782: sp = s0 + 0xffffffffffffff80\n 14785: ra = u64 [sp + 0x78]\n 14788: s0 = u64 [sp + 0x70]\n 14791: s1 = u64 [sp + 0x68]\n 14794: sp = sp + 0x80\n 14798: ret\n",
				"bytecode": {
					"object": "50564d0000c642000000000000010700c13000c000400320f0882b67b4df9bcc4399201d24c429ce62787fc77e6f2a0ee5e3f39beb8e8b790480bd0b000000000e0000001c0000002a000000300000003d000000480000005700000062000000740000007f00000063616c6c5f646174615f636f707963616c6c5f646174615f6c6f616463616c6c5f646174615f73697a6563616c6c65726465706f7369745f6576656e746765745f73746f72616765686173685f6b656363616b5f3235367365616c5f72657475726e7365745f696d6d757461626c655f646174617365745f73746f7261676576616c75655f7472616e73666572726564051102b9460463616c6cb94e066465706c6f7906c0b6415402b9d065004d0152016f010302340349036c03780392034f0454048704ae04c304b00681072f08470851085f08160be50b4e0c340df40f0110f510171148125e122e133b132c1439147114fb153d17cb18aa19891b581cc11c011d281d891e2d1f941fa91fb51f1620212052216a21762184219121fa214c231c24ed24c4274a291e2b0d2c212d3a2d452d542d892d762e9334b134bc34cb340135dd35473645376c37c5384e395739a7398b791052093b3309010001ae9833c8780883881f8488e0553801000128390a200002ae8a123d082000023308300002c8870732003308300002c88707320000009511d87b10207b15187b161082897b19088289087b1982851082861883773308205010029f6f686f59821a6faa821b086fbb787b18787a10787908787898bc38787c1f98bc30787c1e98bc28787c1d98bc20787c1c98bc18787c1b98bc10787c1a98bb08787b1998ab38787b1798ab30787b1698ab28787b1598ab20787b1498ab18787b1398ab10787b1298aa08787a11989a38787a0f989a30787a0e989a28787a0d989a20787a0c989a18787a0b989a10787a0a98990878790998893878790798893078790698892878790598892078790498891878790398891078790298880878780182102082151882161095112832009511f07b10087b158475010a02013d07240002510507501004095010062b029511c07b10387b15307b16289515408411e033074033082050100896fe46171f800046171e46171d46171c46171b46171a46171946171846171746171646171546171446171346171246171146171046170f46170e46170d46170c46170b46170a4617094617084617074617064617054617044617034617024617014607491118490149110849111083170a0a01821710821818821908821ad49808d4a707d487075207370133074033082050100a02fe7c78117c79107c7a127c7b13978808d4980897aa1097bb18d4ba0ad4a8087c79157c7a147c7b167c7c17979908d4a90997bb1097cc18d4cb0bd4b909979920d489027c79017c7a7c7b027c7c03979908d4a90997bb1097cc18d4cb0bd4b9097c7a057c7b047c7c067c760797aa08d4ba0a97cc10976618d46c0cd4ca0a97aa20d4a9097c7a197c7b187c7c1a7c761b97aa08d4ba0a97cc10976618d46c0cd4ca0a7c7b1d7c7c1c7c761e7c781f97bb08d4cb0b976610978818d46808d4b808978820d48a0a7c78097c7b087c7c0a7c760b978808d4b80897cc10976618d46c0cd4c8087c7b0d7c7c0c7c760e7c770f97bb08d4cb0b976610977718d46707d4b707977720d487076f776fa66f986f29d49808d47609d48909989920d48707977720d49707510717003307330850100cd1fc837833070133090a070183666467330850100ebcfc8377330833090a01390828000251080d330730000383770a08016467330850101099fc8378330733093300120a07019511c07b10387b15309515408411e033074033082050101473fc46171f800046171e46171d46171c46171b46171a46171946171846171746171646171546171446171346171246171146171046170f46170e46170d46170c46170b46170a4617094617084617074617034617024617014607390824000246170646170546170453180457831733080a010181171c5147d45770af810051473b7ca216465247bc623f5e3a3300169511a0fe7b1058017b1550017b164801951560018411e049211801492110014921080149210001831700010a0a28ea16501018271d33001a951120ff7b10d8007b15d0007b16c8009515e0008411e049219800492190004921880049218000831780000a0a28920b33001c9511807b10787b1570951580008411e04911384911304911284911208317200a0a28221b9511f07b10087b15647533074033082050101e42fb7c78017c797c7a027c7b03978808d4980897aa1097bb18d4ba0ad4a8087c79057c7a047c7b067c7c07979908d4a90997bb1097cc18d4cb0bd4b909979920d489027c79097c7a087c7b0a7c7c0b979908d4a90997bb1097cc18d4cb0bd4b9097c7a0d7c7b0c7c7c0e7c780f97aa08d4ba0a97cc10978818d4c808d4a808978820d498037c78117c7a107c7b127c7c13978808d4a80897bb1097cc18d4cb0bd4b8087c7a157c7b147c7c167c791797aa08d4ba0a97cc10979918d4c909d4a909979920d4890a7c78197c79187c7b1a7c7c1b978808d4980897bb1097cc18d4cb0bd4b8087c791d7c7b1c7c7c1e7c771f979908d4b90997cc10977718d4c707d49707977720d487076f776fa86f396f2a7b5a187b59107b58087b57821008821595111032009511e0fe7b1018017b1510017b160801951520018411e07b174082977b17488297087b17508297107b1758829618828b18828a1082890882877b1b187b1bb8007b1a207b1ab0007b19287b19a8007b17307b17a0004921f8004921f0004921e8004921e0004821c000208318a000831ae000831bc0003309ff33070a05018217f8008212e0008219f000821ae800d3670b7b1638d87608821758d8970cdbb80c821850d38a03d8a80a821848d82808db3a08d39707d4b707db7c0851086801330820330750102055f98218186f888219206f99821a286faa821b306fbb98bc38787c1f98bc30787c1e98bc28787c1d98bc20787c1c98bc18787c1b98bc10787c1a98bc08787c19787b18787a1098ab38787b1798ab30787b1698ab28787b1598ab20787b1498ab18787b1398ab10787b1298aa08787a11787908989a38787a0f989a30787a0e989a28787a0d989a20787a0c989a18787a0b989a10787a0a9899087879097878988938787907988930787906988928787905988920787904988918787903988910787902988808787801330820330750102284f883778319e0003308200a068217e0008218e8008219f800821af0006f726f886f996faa821b50c8ab0b821c48c89c0cd89c09c89b0bd3ab06d8ab0ada690a821958c88909c89a0ad89a06821738c82707d88908c88707c867078218404918384918304918284918207b8c7b8b087b8a107b87189551e0fe821018018215100182160801951120013200492190004921880049218000140700000000717b484e951880007b179800330750102416f849117849117049116032330704951860491168501026fef73308243307501028b4f7837833070133092433002a0a07019511a07b10587b15507b16487b1782828293829708829a10828b188285108299188288088eb48e56dbb4068e80882c000185c401db8004d45b0bdbb60446114746114646114546114446114346114246114146114046113f46113e46113d46113c46113b46113a46113946113846113746113646113546113446113346113246113146113046112f46112e46112d46112c46112b46112a461129461128781920781a1878171078130898983878182798983078182698982878182598982078182498981878182398981078182298990878192198a83878181f98a83078181e98a82878181d98a82078181c98a81878181b98a81078181a98aa08781a1998783878181798783078181698782878181598782078181498781878181398781078181298770878171198373878170f98373078170e98372878170d98372078170c98371878170b98371078170a98370878170997273898773b951908c879097c97117c98107c9a127c9b13977708d4870797aa1097bb18d4ba0ad4a7077c98157c9a147c9b167c9c17978808d4a80897bb1097cc18d4cb0bd4b808978820d47800842a07d0a0087c97197c9b187c961a7c951b977708d4b707976610975518d46505d457077c9b1d7c961c7c951e7c9c1f97bb08d46b0b97551097cc18d45c0cd4cb0b97bb20d47b0297270185a33fcf370bd48b0b7c97097c98087c9c0a7c950b977708d4870797cc10975518d45c0cd4c7077c980d7c9c0c7c950e7c960f978808d4c808975510976618d46505d45808978820d47808d0a80797000185acffcfc00cd4c7007c97017c957c96027c9c03977708d4570797661097cc18d46c0cd4c7077c9c057c95047c96067c990797cc08d45c0c976610979918d46909d4c909979920d49707d0a707978801cf3808d48707d0a20894479440944b944882197b98187b9b107b90087b9782105882155082164895116032006f688219206f99821a286faa821b306fbb98bc38787c1f98bc30787c1e98bc28787c1d98bc20787c1c98bc18787c1b98bc10787c1a98bc08787c19787b1898ab38787b1798ab30787b1698ab28787b1598ab20787b1498ab18787b1398ab10787b1298ab08787b11787a10989a38787a0f989a30787a0e989a28787a0d989a20787a0c989a18787a0b989a10787a0a989a08787a09787908988938787907988930787906988928787905988920787904988918787903988910787902988908787901787833072033082050102e20f446171f46171e46171d46171c46171b46171a46171946171846171746171646171546171446171346171246171146171046170f46170e46170d46170c46170b46170a46170946170846170746170646170546170446170346170246170146073308403307501030b7f38377831940013308400a06821758018218500182194801821a40016f7c6f8b6f986fa77b17307b1738017b18287b1830017b1b207b1b28017b1c187b1c200149215801492150014921480149214001482160012083182001831a4001831b60013309ff33070a0501821348821440821238821758018218400182165001821a4801d3270bd87207821950d8690cdbb70cd34a07d8a40ad88308db7a08d39607d4b707db7c085108fa027b13a0008217187b17c0007b14a8008217207b17c8007b19b0008217287b17d0007b12b8009517e0009518c0009519a000821a307b1ad800501032b8f8821718017b1750821710017b174882160801821700017b17408217f8008218f0008219e800821ae0007b1738017b1830017b1928017b1a200149215801492150014921480149214001482160012083182001831a4001831b60013309ff33070a05821840018219480182134098373d976a03d47a0a98663d821b4897b703d4760698b73d821b5097bb03d47b0b9737038eac88770001857201dbac028eba8e6cdbba0c821a5001d4b606821b5801db6c0246219f0046219e0046219d0046219c0046219b0046219a004621990046219800462197004621960046219500462194004621930046219200462191004621900046218f0046218e0046218d0046218c0046218b0046218a0046218900462188004621870046218600462185004621840046218300462182004621810046218000781b78781a7078196878186098bc38781c7f98bc30781c7e98bc28781c7d98bc20781c7c98bc18781c7b98bc10781c7a98bb08781b7998ab38781b7798ab30781b7698ab28781b7598ab20781b7498ab18781b7398ab10781b7298aa08781a71989a38781a6f989a30781a6e989a28781a6d989a20781a6c989a18781a6b989a10781a6a98990878196998893878196798893078196698892878196598892078196498891878196398891078196298880878186184381f951960c898087c89097c8a087c8b0a7c8c0b979908d4a90997bb1097cc18d4cb0bd4b9097c8a0d7c8b0c7c8c0e7c860f97aa08d4ba0a97cc10976618d46c0cd4ca0a97aa20d4a9097c8a017c8b7c8c027c860397aa08d4ba0a97cc10976618d46c0cd4ca0a7c8b057c8c047c86067c870797bb08d4cb0b976610977718d46707d4b707977720d47a0a7c87117c8b107c8c127c8813977708d4b70797cc10978818d4c808d48707942a942994278218587b87107b89087b8a491818955180fe821078018215700182166801951180013200330750103411f0837833070133093300360a0701808910828a0882884917187b79107b7a087b783200821790008218980082198800821a8000d49808d4a707d4870752071002390724000254174307028317a0003308040a018217a0007b17188217a8007b17108217b0007b17088216b8008317a0003308240a018217a0008218a8008219b000821ab8007b1a387b19307b18287b17207b16588217087b17508217107b1748951760951840951920821a187b1a40330038951180fe7b1078017b1570017b166801951580018411e0829a7b1a48829a087b1a40829a107b1a508299187b193882897b19308289087b19288289107b19208286187b1758330820330733002c280eef8217787b178217707b17088217687b17108217607b171833074033082050103aeeee7c78117c79107c7a127c7b13978808d4980897aa1097bb18d4ba0ad4a8087c79157c7a147c7b167c7c17979908d4a90997bb1097cc18d4cb0bd4b909979920d489027c79017c7a7c7b027c7c03979908d4a90997bb1097cc18d4cb0bd4b9097c7a057c7b047c7c067c760797aa08d4ba0a97cc10976618d46c0cd4ca0a97aa20d4a9097c7a197c7b187c7c1a7c761b97aa08d4ba0a97cc10976618d46c0cd4ca0a7c7b1d7c7c1c7c761e7c781f97bb08d4cb0b976610978818d46808d4b808978820d48a0a7c78097c7b087c7c0a7c760b978808d4b80897cc10976618d46c0cd4c8087c7b0d7c7c0c7c760e7c770f97bb08d4cb0b976610977718d46707d4b707977720d487076f786fa76f996f2ad4a909d4870ad49a0a98aa20d49808978820d4a808510817003307330850103cbded837833070133090a07018376330820646750103ea7ed82186f888219086f99821a106faa821b186fbb98bc38787c1f98bc30787c1e98bc28787c1d98bc20787c1c98bc18787c1b98bc10787c1a98bc08787c19787b18787a1098ab38787b1798ab30787b1698ab28787b1598ab20787b1498ab18787b1398ab10787b1298aa08787a11787908989a38787a0f989a30787a0e989a28787a0d989a20787a0c989a18787a0b989a10787a0a98990878790978789889387879079889307879069889287879059889207879049889187879039889107879029888087878013308206467501040d7ec837833092033073300420a07019511807b10787b15707b1668951580008411e0828410828c0882920882867b1610829b7b1b18829010d3c20a7b1a38d8c20ad86b0b821338da3b0a64b38288187b18388298187b1820c94008c9a8097b1928d8a8097b1430d8400a821838821b20c98b08c9a808c99804c9c206c93609821210821818c9280a8e9b88aa2085aa01db9b0a8f498218288e8bdb490bd44808db8b0a510a546476821930d49207821838d4c808d48707987720d49808978820d4870752073383288317400a01821758821850821948821a407b67187b68107b69087b6a9551808210788215708216689511800032000033073308501044d9eb837833070133093300460a0701828910828a18828b088288d4ba0ad4980bd4ab0b98bb20d4a909979920d4b90952093c019511f07b10087b156475838733082050104894eb7c78017c797c7a027c7b03978808d4980897aa1097bb18d4ba0ad4a8087c79057c7a047c7b067c7c07979908d4a90997bb1097cc18d4cb0bd4b909979920d489027c79097c7a087c7b0a7c7c0b979908d4a90997bb1097cc18d4cb0bd4b9097c7a0d7c7b0c7c7c0e7c780f97aa08d4ba0a97cc10978818d4c808d4a808978820d498037c78117c7a107c7b127c7c13978808d4a80897bb1097cc18d4cb0bd4b8087c7a157c7b147c7c167c791797aa08d4ba0a97cc10979918d4c909d4a909979920d4890a7c78197c79187c7b1a7c7c1b978808d4980897bb1097cc18d4cb0bd4b8087c791d7c7b1c7c7c1e7c771f979908d4b90997cc10977718d4c707d49707977720d487076f776fa86f396f2a7b5a187b59107b58087b5782100882159511103200009511b0fe7b1048017b1540017b163801828b10828a18828c0882857b1cf0007b1a3001d4ac08d4b50ad48a0a98aa20d4b808978820d4a808520867057b1be8007b178297187b17100182961082980882977b1718017b15d8008357648533082050104a0aea82121801d462087b15080182191001d45909d498089888207b160001d46909979920d49808520815057c78197c79187c7a1a7c7b1b978808d4980897aa1097bb18d4ba0ad4a8087c791d7c7a1c7c7b1e7c7c1f979908d4a90997bb1097cc18d4cb0bd4b909979920d498087b1820017c78117c79107c7a127c7b13978808d4980897aa1097bb18d4ba0ad4a8087c79157c7a147c7b167c7c17979908d4a90997bb1097cc18d4cb0bd4b909979920d498087b1828017c78097c79087c7a0a7c7b0b978808d4980897aa1097bb18d4ba0ad4a8087c790d7c7a0c7c7b0e7c7c0f979908d4a90997bb1097cc18d4cb0bd4b909979920d489057c78017c797c7a027c7b03978808d4980897aa1097bb18d4ba0ad4a8087c79057c7a047c7b067c7707979908d4a90997bb10977718d4b707d49707977720d48706832733082050104cc8e88219280178791098583878780f98583078780e98582878780d98582078780c98581878780b98581078780a9858087878097875089868387878079868307878069868287878059868207878049868187878039868107878029868087878017876821a2001787a18989838787817989830787816989828787815989820787814989818787813989810787812989808649b78781198a83878781f98a83078781e98a82878781d98a82078781c98a81878781b98a81078781a98a80878781982171801957320d8730964a7821a0801c89a04d8a40ada990a821c0001c8ac00d4b60a7b15d000d4750bd4ab0bd8c00a82121001c8a20c7b1cf800510bdd02330733084921e00033096f6a7b1a20821ad0006faa7b1a18821a28016faa7b1a10821a20016faa7b1a08140be0ffffff000000007b1b288212e800821af0008215d800017b19c8007b18d0007b17d800821b3001d4b20b821628d8650c7b1af00094ac94bc8217f8007b17c0007b10b8007b14b0007b132801510c83027b12e8009557207b172001837733082050104e3ae78218000182191001d4980882191801d86909821a080194a994895109500282182001d858098215f000c895087b181801d85808da99087c790c7b1908017c790d7b1900017c790e7b19f8007c790f7b19f0007c79107b19a8007c79117b19a0007c79127b1998007c79137b1990007c79147b1988007c79157b1980007c79167b19787c79177b19707c79187b19687c79197b19607c791a7b19587c791b7b19507c791c7b19487c791d7b19407c791e7b19387c771f7b17308216e800c868087b181001d8680782183001c878087b1830018215280183573308205010505be682183078781f82183878781e82184078781d82184878781c82185078781b82185878781a821860787819821868787818821870787817821878787816821880007878158218880078781482189000787813821898007878128218a0007878118218a8007878108218f00078780f8218f80078780e8218000178780d8218080178780c46170b46170a46170946170846170746170646170546170446170346170246170146078213d8009533018837018214d000c87404d44307887b018217e000c87b0bd87b078210c800c87000821708d87307821910d39408d89409da8709821718d87b06821a20d3a008d8a00cda860cd3b707d478089557207b17f000da890cd857098216b000c896077b17e800d8670ada990a8218b800c88a0a7b1ad800d88a0a8217c000c87a0a7b1af8007b1be00082152001821a180182121001821928017b1918017b1608017b1800017b17100164378213f00064488214e80064098210d800520c6ffd821b7bb37bb4087bb0108217f8007bb71882104801821540018216380195115001320000821710018218180182190801821a0001d49808d4a707d4870752073c0439072400025417233304831720013308040a01821720017b1758821728017b1750821730017b17488216380133082033075010527ce46f688219486f99821a506faa821b586fbb98bc38787c1f98bc30787c1e98bc28787c1d98bc20787c1c98bc18787c1b98bc10787c1a98bc08787c19787b1898ab38787b1798ab30787b1698ab28787b1598ab20787b1498ab18787b1398ab10787b1298ab08787b11787a10989a38787a0f989a30787a0e989a28787a0d989a20787a0c989a18787a0b989a10787a0a989a08787a097879089889387879079889307879069889287879059889207879049889187879039889107879029889087879017878330720330820501054ade346171f46171e46171d46171c46171b46171a46171946171846171746171646171546171446171346171246171146171046170f46170e46170d46170c46170b46170a4617094617084617074617064617054617044617034617024617014607330840330750105644e38377831920013308400a06821738018218300182192801821a20016f7b6f876f986fa97b19d8007b18d0007b17c8009517e0009518c0007b1bc000501058130c8217f8007b17408217f0007b17488217e8007b17508217e0007b175833074033082050105adde27c78117c79107c7a127c7b13978808d4980897aa1097bb18d4ba0ad4a8087c79157c7a147c7b167c7c17979908d4a90997bb1097cc18d4cb0bd4b909979920d489027c79017c7a7c7b027c7c03979908d4a90997bb1097cc18d4cb0bd4b9097c7a057c7b047c7c067c760797aa08d4ba0a97cc10976618d46c0cd4ca0a97aa20d4a9097c7a197c7b187c7c1a7c761b97aa08d4ba0a97cc10976618d46c0cd4ca0a7c7b1d7c7c1c7c761e7c781f97bb08d4cb0b976610978818d46808d4b808978820d48a0a7c78097c7b087c7c0a7c760b978808d4b80897cc10976618d46c0cd4c8087c7b0d7c7c0c7c760e7c770f97bb08d4cb0b976610977718d46707d4b707977720d487076f766faa6f9b6f29d4b907d46a08d47808988820d46707977720d4870752073e0195a7207b1718d8a707c879087b1808d89808da7708c868087b1810d86807c8b7077b172083a73308207b177b1a307b19287b1b3850105c7ce146171f2046171e46171d46171c46171b46171a46171946171846171746171646171546171446171346171246171146171046170f46170e46170d46170c46170b46170a46170946170846170746170646170546170446170346170246170146078217087b17688217187b17608217407b1798008217487b1790008217507b1788008217587b1780008217107b17709517a00095188000951960821a207b1a7850105e6ef68217a8008212b8008213a000821ab000821828d3870bd8870c6484821930d89308dab80cc96a0bd86a0a821638c96206c9a606d8cb0ac9a606c9cb0bc94707c98708c99307d46808d4b709d48909d4b808989920978820d49808510817003307330850106071e0837833070133090a07018376821764685010625ce08378330764693300640a0701828918828a10828b0882887b79187b7a107b7b087b783200821730821838821928821a20d49808d4a707d487075207670139072400025417235e018317403308040a01821840821748821950821a587b1a187b19107b170864177b18501066ba14330740330820501068e4df7c78117c79107c7a127c7b13978808d4980897aa1097bb18d4ba0ad4a8087c79157c7a147c7b167c7c17979908d4a90997bb1097cc18d4cb0bd4b909979920d489027c79017c7a7c7b027c7c03979908d4a90997bb1097cc18d4cb0bd4b9097c7a057c7b047c7c067c780797aa08d4ba0a97cc10978818d4c808d4a808978820d498037c78197c7a187c7b1a7c7c1b978808d4a80897bb1097cc18d4cb0bd4b8087c7a1d7c7b1c7c7c1e7c791f97aa08d4ba0a97cc10979918d4c909d4a909979920d4890a7c78097c79087c7b0a7c7c0b978808d4980897bb1097cc18d4cb0bd4b8087c790d7c7b0c7c7c0e7c770f979908d4b90997cc10977718d4c707d49707977720d487076f786fa76f396f2ad4a909d4870ad49a0a98aa20d49808978820d4a80851081e003307330850106ab3de837833070133090a07837733006c28a0de837750106c9bde83783307330933006e0a07019511f87b103307330850107081de837833070133093300720a07014917184917104917083308607b7832009511b07b10487b15407b1638828b10828a18828c0882857b1a287b1c20d4ac08d4b50ad48a0a98aa207b1b30d4b808978820d4a8087b1718520821018297187b178296108297087b170882977b171083573308205010740bde82186f886f69821a086faa821b106fbb98bc38787c1f98bc30787c1e98bc28787c1d98bc20787c1c98bc18787c1b98bc10787c1a98bc08787c19787b18787a1098ab38787b1798ab30787b1698ab28787b1598ab20787b1498ab18787b1398ab10787b1298aa08787a11787908989a38787a0f989a30787a0e989a28787a0d989a20787a0c989a18787a0b989a10787a0a9899087879097878988938787907988930787906988928787905988920787904988918787903988910787902988808787801955720d85708821a20c88a09d8a90ada880a821830c88a0ad88a08821b28c8b808821b187bb77bb9087bba107bb818821048821540821638951150320000821770821878d4870782189800d46808d478089888207b1668d46707977720d487075207f1058216d8007b1680008217d0007b1790008217c8007b17608217c0007b17880081179800330820501076b9dc6f68821990006f998216606f6a821b88006fbb98bc38787c1f98bc30787c1e98bc28787c1d98bc20787c1c98bc18787c1b98bc10787c1a98bc08787c19787b18787a1098ab38787b1798ab30787b1698ab28787b1598ab20787b1498ab18787b1398ab10787b1298aa08787a11787908989a38787a0f989a30787a0e989a28787a0d989a20787a0c989a18787a0b989a10787a0a98990878790978789889387879079889307879069889287879059889207879049889187879039889107879029888087878013308203307501078e9db8218406f888219486f99821a506faa821b586fbb98bc38787c1f98bc30787c1e98bc28787c1d98bc20787c1c98bc18787c1b98bc10787c1a98bc08787c19787b1898ab38787b1798ab30787b1698ab28787b1598ab20787b1498ab18787b1398ab10787b1298ab08787b11787a10989a38787a0f989a30787a0e989a28787a0d989a20787a0c989a18787a0b989a10787a0a989a08787a097879089889387879079889307879069889287879059889207879049889187879039889107879029889087879017878330820330750107a18db83778319c0003308200a0601821898009587207b1750d88709821878c89804d8840ada990a821968c8a90082179000821a8800d47a0a82178000d4760bd4ab0bd8900a821370c83a0a510bb0031407e0ffffff00000000821b9800d8b7067b16408e8cda860c9a96c9c6087b18588e82d8c60c8e96c836069a66c9c6068e63da620364697b1648c9b7028218789a8c821840c98c0b7b1740d827068ebcdab60c821858d49806db630c94c295271fd8270694cbc86b02d8b20bda660b94c87b1858c8b8087b1808978b3b982605d4b60397223b987b05d42b067b163882188800888b01821260c9b2077b17209589ff7b19307b1328d3370bd83703d86907dbb3077b1710d4280b88bb0182179000d8b70382188000c93808c9b70782194894c9821b08821c58d8cb0cc8c90998b305979c3bd4c303989c05d83709d3c802d8c80bda290bd33706d42606821910da690bdabc087b189000dab307821820821928dab908821930821c38dabc09989b3b978c056483d4cb0b979c05821678c8b60682189800c88c0c7b1c60d88c0bc8b606821878d38602821878d8860cda2b0c8218d0007b18880098333b977b05d43b038218c8007b18800098773b82129000972205d4720b821968821270c8b202c89303d8930bc8b202c83c0cd83c0b821870c8b202821b6095b7207b1738d8b70bc8b6077b1730d86706dabb068217c000c8c6067b1628d8c60cc82c0c7b1c20821b78821cd8006f777b179000821780006f72821788006f777b1788006fc77b178000821350017b18607b195864b6821798007b17507b1a707b10687b14787b1398007b12487b12b000821788007b17a800821780007b17a000821790007b17b8004921d8004921d0004921c8004921c0004821e000208318a000831ac000831be0003309ff33070a0501821760821858d48707821840821950d8890894689478510872018217d0008218c8007b18588218c0007b18609777209876208117980033082050107c41d86f688219586f99821a606faa98ab38787b1f98ab30787b1e98ab28787b1d98ab20787b1c98ab18787b1b98ab10787b1a98ab08787b19787a1878791046170b46170a4617094617074617064617054617044617034617024617014607989a38787a17989a30787a16989a28787a15989a20787a14989a18787a13989a10787a1298990878791178780898893878790f98893078790e98892878790d98882078780c8219800095990188970182188800c878087b1888007b198000d48907887b01821748c8b702d8720782189000c878087b18900082179800957320d873096476821b78c89b04d8b40ada990a821738d37606821968821c28d39c0cd46c0c821730d3b707821870821620d38606d47606c8a900d46c0cd8900ac88a0a520c42fe280682135001821b187bb37bb4087bb0107bba18955100ff8210f8008215f0008216e80095110001320000951100ff7b10f8007b15f0007b16e800951500018411f082897b19208289087b19108289107b19088288187b187b171833074033082050107ebbd67c78017c797c7a027c7b03978808d4980897aa1097bb18d4ba0ad4a8087c79057c7a047c7b067c7c07979908d4a90997bb1097cc18d4cb0bd4b909979920d489027c79097c7a087c7b0a7c7c0b979908d4a90997bb1097cc18d4cb0bd4b9097c7a0d7c7b0c7c7c0e7c760f97aa08d4ba0a97cc10976618d46c0cd4ca0a97aa20d4a9097c7a117c7b107c7c127c761397aa08d4ba0a97cc10976618d46c0cd4ca0a7c7b157c7c147c76167c781797bb08d4cb0b976610978818d46808d4b808978820d48a0a7c78197c7b187c7c1a7c761b978808d4b80897cc10976618d46c0cd4c8087c7b1d7c7c1c7c761e7c771f97bb08d4cb0b976610977718d46707d4b707977720d487076f7b7b1b386fa66f997b19306f287b182882177b17b8008217087b17b0008217107b17a8008217207b17a0007b1898007b1990007b1688009517c0009518a000951980007b1b800033008000951100ff7b10f8007b15f0007b16e800951500018411e07b171882961082977b1798008297187b17708297087b1778828b18828a1082890882877b1b407b1bb8007b1a487b1ab0007b19507b19a8007b17587b17a0004921d8004921d0004921c8004921c0004821e000208318a000831ac000831be0003309ff33070a0528e0f76464821ac8008217d8007b1710821bc0008213d000d36a0cd86a08821938d89b06dac608c94a0ac96a0a7b1a08c99b0b95bc1fd8bc0bc8ba0a84cce0c84a07c8c9097b1920d8c90cc8c702d3a207d8a209da7c09821630c96307d8630c6463821028821610c90606c9c606d8870cc9c606c98707821808d88a08dabb08c87808d87807c8380ac89a0cd88a08d8ac09c80606c86707c88707c897068e678ec8db6708d46c078e29db780952093801643b821738821820d87807d34208d84209da8709d83c07d30608d8060ada870ad33c07d48707da790a520a0b013307403308207b14107b12087b1c50208200f9d36f6882196f99821a086faa821b206fbb787b1898bc38787c1f98bc30787c1e98bc28787c1d98bc20787c1c98bc18787c1b98bc10787c1a98bb08787b19787a1098ab38787b1798ab30787b1698ab28787b1598ab20787b1498ab18787b1398ab10787b1298aa08787a11787908989a38787a0f989a30787a0e989a28787a0d989a20787a0c989a18787a0b989a10787a0a98990878790978789889387879079889307879069889287879059889207879049889187879039889107879029888087878018217188218387b788218287b78188218107b78088218307b7810955100ff8210f8008215f0008216e800951100013200491170491168491160140700000000717b484e9518607b177833075020840025d349115849115049114041330704951840491148502086000cd3330824330750208800c1d2837833070133092433008a000a07019511a07b10587b15507b16489515608411f08289828a08828b1082881864767b18187b1b107b1a0895172064187b1950208c008cfb821730821838821920821a287b67107b68187b697b6a089551a08210588215508216489511603200821b1802821a100282190802d4ba0788980194785108a806821700027b1758957701887801c898087b170002d487077b180802887701c8a7077b171002d8a707c8b7077b1718028217707b17e8018217787b17e0018217687b17f0018216607b16f8018318e0017b1a50831a00027b19483309ff7b1b40330b2033070a098217407b1758018217507b1750018217487b1748018217587b1740017b1678018217687b1770018217707b176801951780019518600195194001821a787b1a600150208e0077d78217b8017b17588217b0017b17508216a8018217a0017b1720821a98017b1a60821990017b1968821888017b1870821780017b17787b1af8017b19f0017b18e8017b17e001492118024921100249210802492100024821c001208318e001831a0002831bc0013309ff33070a0582192098973d976803d48707979803888800018583018e78db780398663d821850978703d4670798883d821a5897aa03d4a8088e8a8e7bdb8a0bd48707db7b03821700027b1758821708027b1750821710027b1748821718027b174046213301ff0046212f01ff0046212e01ff0046212d01ff0046212b01ff0046212701ff0046212601ff0046212501ff0046212301ff001407ffffffff0000000078172c01781724011407ffffffffffff00007817320178172a017817220146213001ff46212801ff46212001ff1407ffffffffffffff0078173101781729017817210146213f0146213e0146213d0146213c0146213b0146213a0146213901462138014621370146213601462135014621340146211f0146211e0146211d0146211c0146211b0146211a014621190146211801462117014621160146211501462114014621130146211201462111014621100146210f0146210e0146210d0146210c0146210b0146210a0146210901462108014621070146210601462105014621040146210301462102014621010146210001849b1f951a2001c9ba0a7ca7197ca8187cac1a7ca61b977708d4870797cc10976618d46c0cd47c027ca81d7cac1c7ca61e7ca71f978808d4c808976610977718d46707d48707977720d427077b17207ca7117ca8107cac127ca613977708d4870797cc10976618d46c0cd47c027ca8157cac147ca6167ca717978808d4c808976610977718d46707d48707977720d427077b17187ca7097ca8087cac0a7ca60b977708d4870797cc10976618d46c0cd47c097ca80d7cac0c7ca60e7ca70f978808d4c808976610977718d46707d48707977720d497007ca7017ca87ca9027ca603977708d48707979910976618d46909d497077ca8057ca9047ca6067caa07978808d4980897661097aa18d46a0ad4a808978820d478048218289887387817e7009887307817e6009887287817e5009887207817e4009887187817e3009887107817e2007818e0009887087817e1008218309887387817ef009887307817ee009887287817ed009887207817ec009887187817eb009887107817ea007818e8009887087817e9008218389887187817f3009887107817f2007818f0009887087817f1009517e000c9b70b4621ff004621fe004621fd004621fc004621fb004621fa004621f9004621f8004621f7004621f6004621f5004621f4004621df004621de004621dd004621dc004621db004621da004621d9004621d8004621d7004621d6004621d5004621d4004621d3004621d2004621d1004621d0004621cf004621ce004621cd004621cc004621cb004621ca004621c9004621c8004621c7004621c6004621c5004621c4004621c3004621c2004621c1004621c0007cb7197cb8187cb91a7cb61b977708d48707979910976618d46909d4790a7cb81d7cb91c7cb61e7cb71f978808d49808976610977718d46707d48707977720d4a7067cb7117cb8107cb9127cba13977708d4870797991097aa18d4a909d4790c7cb8157cb9147cba167cb717978808d4980897aa10977718d4a707d48707977720d4c7027cb7097cb9087cba0a7cbc0b977708d4970797aa1097cc18d4ca0ad47a087cb90d7cba0c7cbc0e7cb70f979908d4a90997cc10977718d4c707d49707977720d487077cb8017cb97cba027cbc03978808d4980897aa1097cc18d4ca0ad4a8087cb9057cba047cbc067cbb07979908d4a90997cc1097bb18d4cb0bd4b909979920d4890b94349430821c18943c8219209439943b943794329436821840e09803d26909821848e0c80ad2c20c821850e00806d20707821858e04808d24b0bd4b808d46707d4ca0ad49309821b607b1bf801821b687b1bf001821b707b1be801821b787b1be0017b1918027b1a10027b1708027b1800028318e001831a00023309ff330b2033070a099551c0fd8210380282153002821628029511400232004921b0004921a8004921a000140700000000717b484e9518a0007b17b800330750209000b3cb4921980049219000492180004133070495188000492188005020920095cb3308243307502094004acb8378330701330924330096000a07019511c0fe7b1038017b1530017b162801951540018411e082787b18388278087b18308278107b182882761833082033075020980005cb6f698218286f8a8218306f8c8218386f8b787b18787c10787a08787998b83878781f98b83078781e98b82878781d98b82078781c98b81878781b98b81078781a7b1b1098b80878781998c83878781798c83078781698c82878781598c82078781498c81878781398c8107878127b1c0898c80878781198a83878780f98a83078780e98a82878780d98a82078780c98a81878780b98a81078780a7b1a1898a8087878099898387878079898307878069898287878059898207878049898187878039898107878027b192098980878780133072033082050209a0029ca46171f46171e46171d46171c46171b46171a46171946171846171746171646171546171446171346171246171146171046170f46170e46170d46170c46170b46170a4617094617084617074617064617054617044617034617024617014607330840330750209c00bfc983778319c0003308400a068217d8008218d0008219c800821ac0006f777b17386f877b17306f977b17286fa6831780000a038217880081189000821980006f77977a206f88988820d48a0a9877206f98978920d497079888204911587b16788219287b19708219307b19688219387b19607b18507b17489517609518407b1a4033009e009511c0fd7b1038027b1530027b162802951540028411e08289107b19388289087b193082887b1828827a1882791082780882777b1a607b1af8017b19687b19f0017b18707b18e8017b17787b17e001492118024921100249210802492100024821c001208318e001831a0002831bc0013309ff33070a05286ff68317a0000a038017b0007b17308217a8007b17288217a0007b17383307403308205020a0009ac87c78117c79107c7a127c7b13978808d4980897aa1097bb18d4ba0ad4a8087c79157c7a147c7b167c7c17979908d4a90997bb1097cc18d4cb0bd4b909979920d489027c79017c7a7c7b027c7c03979908d4a90997bb1097cc18d4cb0bd4b9097c7a057c7b047c7c067c760797aa08d4ba0a97cc10976618d46c0cd4ca0a97aa20d4a9097c7a197c7b187c7c1a7c761b97aa08d4ba0a97cc10976618d46c0cd4ca0a7c7b1d7c7c1c7c761e7c781f97bb08d4cb0b976610978818d46808d4b808978820d48a0a7c78097c7b087c7c0a7c760b978808d4b80897cc10976618d46c0cd4c8087c7b0d7c7c0c7c760e7c770f97bb08d4cb0b976610977718d46707d4b707977720d487076f786fa76f996f2ad4a909d4870ad49a0a98aa20d49808978820d4a8085208b5008216386f689788208219286f99989a20d4a8087b18289799208218306f88988820d498087b1830837733085020a20041c73a080000023a090800023a0a1000023a0b1800027b18d8007b19d0007b1ac8007b1bc0008218087b18f0008218187b18e8008218207b18e0008218107b18f8008218306f888219286f99976a207b1a0801492100017b1910017b18180183798317c000330803330a0a049551c0fe8210380182153001821628019511400132000033075020a400ebc73307015020a600e2c79511807b10787b15707b1668951580008411f08282828308828410828818829a829b08829c1082991864767b19187b1c107b1b087b1a7b18387b14307b132895174095182064197b12205020a80000e8821750821858821940821a487b67107b68187b697b6a0895518082107882157082166895118000320049489220248414d249525252a22a2529499224499224499224499224499224499224499224494a4a43222449928490244992244992244992244929a9494a124948922449922449922425499224499224499224499224499224499224499224499254254992ac506a15aa4342ad50a549922484244992244992244992248524514d40209088884844449490888848444494248924494a5249484992244992244992244992244992244992244992244992244992244992244992542529a58888484a92244989442211111122223522224992244992440a29a59424499224499224499224499224499224294992244992148a1411519524499224499224494a1211114544001185249284144ad224a99224a91449922449922449922449922449922449922449922449922449922449922449922449922449922449922449922449922449922449922449922449922449922449922449499224499224499224a92a49495229a524499224499224499224499224499224499224499224252149922449922449922449929442912222aa12894422222244446a9288882449922489484422121111891089442422222222222244442a224992244952249548242222222222222222222222222222222249922449922449922449922449922449922449922449922449922449922449929224499224499224499224a992948888a8504a9392544444920821522412894811114992244992242222529224294992a42425499284244992244992244952922449922449922449922449922449922449922449922449559224c90aa59642a594922449922449922449922449922449922425499224499242294d92489252922449499224499224495292529294244992949224494912ad504a9394244922a91252922449922449922449922449922449922449922449922449922449922449922455494a69444492229224494489a4884a88442489249124499224499224492449922449922449124992244992244992a4244992244992242921922449922449922449922429922449922429499224499244522489249244222a2a51a2440920113122224954444444244a8848242a2291481289442291482412892449922449922489442211252449922449922449241289442291482492244992a44822492491244992244912492492482412111111115114455412898868444492082152241289144a292549922449922449922449922449922449922449922429094992244992244992244992a4148a1411511511111122914824094992244992244992a4244992244992244992244992244992244992244992244992aa24491249922449524a122249922449922449922449929224914824928824212222494992244992244992ac506a15aa3449492a49924408494992a44212922449922449922449499224499224499224499224499224499224499224499224554992242b942a295469aa504a93a49224494992244922252925542925499224499224499224499224499224494a9224499224499224494a92244d1249922422222211915094a224499224499224499224499224499224494992244992a490524a499224499224499224499224499224499224499224494aa14823499224118924490410492929a594929424254949494a922449224992244992482429499224499224912449929224922449129124229124499224499224912449145114452645924422222222222244446a92241511892491504a4992244992244992244949922449922449922492484492241291942449922449922451a6241111d188884849929424a424499224499224499224499224499224499224499224499224499224499224494aa51489442222222222222292144992a444229188880811914a118948922449922449922429499224499224492a2951922449922492a4a04a29499224499224499224499224499224495292244992244949924444444902480a924812a4a0249a2449494a920a9224294992222229224922914412894422118924a9442291884422221241241291482412898888880811914a92444a9224492589442291200882200882208088002222841040444444444444444444444444444444444444444444444424922449922449922449922449922449922449922449922449922429499224499224499248241289442492482412894424924844221211111111111111111111111111111111111111111191244992244992244992244992244992244992244992244992a424499224499224a994aa92244992244912894422222222a988882822028828880889085250128d88889424490a4a2925294992244992244992244992244992244992244992244992204992244992244992244992948222454494528a22a294a4244992244992888888244949522291484444848848258a4422499024499224499224494a9224499224499224499224499224499224499224499224a94a92249192922425a9208410222212894422a5444414a98888684182248994a424252949528224494a924400"
				},
				"methodIdentifiers": {
					"accessLog(bytes32,uint256)": "16a27c3b",
					"getAccessors(bytes32)": "5e3f62bc",
					"logAccess(bytes32)": "af7057d4"
				}
			},
			"hash": "e2534520018f8ecb48977b42b89af13e5fbdbdbe6b10be1a1f6829627f35983c",
			"factoryDependencies": {}
		}
	}
}