{
	"contracts/EventTickets.sol": {
		"EventTickets_Simple": {
			"abi": [
				{
					"inputs": [],
					"stateMutability": "nonpayable",
					"type": "constructor"
				},
				{
					"inputs": [],
					"name": "AlreadyOwnsTicket",
					"type": "error"
				},
				{
					"inputs": [],
					"name": "EventDoesNotExist",
					"type": "error"
				},
				{
					"inputs": [],
					"name": "InsufficientPayment",
					"type": "error"
				},
				{
					"inputs": [],
					"name": "NoFeesToWithdraw",
					"type": "error"
				},
				{
					"inputs": [],
					"name": "NotOwner",
					"type": "error"
				},
				{
					"inputs": [],
					"name": "SaleEnded",
					"type": "error"
				},
				{
					"inputs": [],
					"name": "SaleNotActive",
					"type": "error"
				},
				{
					"inputs": [],
					"name": "SoldOut",
					"type": "error"
				},
				{
					"anonymous": false,
					"inputs": [
						{
							"indexed": true,
							"internalType": "uint256",
							"name": "eventId",
							"type": "uint256"
						},
						{
							"indexed": true,
							"internalType": "address",
							"name": "owner",
							"type": "address"
						},
						{
							"indexed": false,
							"internalType": "string",
							"name": "name",
							"type": "string"
						},
						{
							"indexed": false,
							"internalType": "uint256",
							"name": "price",
							"type": "uint256"
						},
						{
							"indexed": false,
							"internalType": "uint256",
							"name": "maxSupply",
							"type": "uint256"
						},
						{
							"indexed": false,
							"internalType": "uint256",
							"name": "saleStartTime",
							"type": "uint256"
						},
						{
							"indexed": false,
							"internalType": "uint256",
							"name": "saleEndTime",
							"type": "uint256"
						}
					],
					"name": "EventCreated",
					"type": "event"
				},
				{
					"anonymous": false,
					"inputs": [
						{
							"indexed": true,
							"internalType": "address",
							"name": "owner",
							"type": "address"
						},
						{
							"indexed": false,
							"internalType": "uint256",
							"name": "amount",
							"type": "uint256"
						}
					],
					"name": "FeesWithdrawn",
					"type": "event"
				},
				{
					"anonymous": false,
					"inputs": [
						{
							"indexed": true,
							"internalType": "uint256",
							"name": "eventId",
							"type": "uint256"
						},
						{
							"indexed": true,
							"internalType": "address",
							"name": "buyer",
							"type": "address"
						},
						{
							"indexed": false,
							"internalType": "uint256",
							"name": "price",
							"type": "uint256"
						}
					],
					"name": "TicketBought",
					"type": "event"
				},
				{
					"inputs": [
						{
							"internalType": "uint256",
							"name": "eventId",
							"type": "uint256"
						}
					],
					"name": "buyTicket",
					"outputs": [],
					"stateMutability": "payable",
					"type": "function"
				},
				{
					"inputs": [],
					"name": "contractOwner",
					"outputs": [
						{
							"internalType": "address",
							"name": "",
							"type": "address"
						}
					],
					"stateMutability": "view",
					"type": "function"
				},
				{
					"inputs": [
						{
							"internalType": "string",
							"name": "_eventName",
							"type": "string"
						},
						{
							"internalType": "uint256",
							"name": "_price",
							"type": "uint256"
						},
						{
							"internalType": "uint256",
							"name": "_maxSupply",
							"type": "uint256"
						},
						{
							"internalType": "uint256",
							"name": "_saleStartTime",
							"type": "uint256"
						},
						{
							"internalType": "uint256",
							"name": "_saleEndTime",
							"type": "uint256"
						}
					],
					"name": "createEvent",
					"outputs": [],
					"stateMutability": "nonpayable",
					"type": "function"
				},
				{
					"inputs": [
						{
							"internalType": "uint256",
							"name": "",
							"type": "uint256"
						}
					],
					"name": "events",
					"outputs": [
						{
							"internalType": "address",
							"name": "owner",
							"type": "address"
						},
						{
							"internalType": "string",
							"name": "name",
							"type": "string"
						},
						{
							"internalType": "uint256",
							"name": "price",
							"type": "uint256"
						},
						{
							"internalType": "uint256",
							"name": "maxSupply",
							"type": "uint256"
						},
						{
							"internalType": "uint256",
							"name": "issuedSupply",
							"type": "uint256"
						},
						{
							"internalType": "uint256",
							"name": "saleStartTime",
							"type": "uint256"
						},
						{
							"internalType": "uint256",
							"name": "saleEndTime",
							"type": "uint256"
						}
					],
					"stateMutability": "view",
					"type": "function"
				},
				{
					"inputs": [],
					"name": "getEventCount",
					"outputs": [
						{
							"internalType": "uint256",
							"name": "",
							"type": "uint256"
						}
					],
					"stateMutability": "view",
					"type": "function"
				},
				{
					"inputs": [
						{
							"internalType": "uint256",
							"name": "eventId",
							"type": "uint256"
						}
					],
					"name": "getEventDetails",
					"outputs": [
						{
							"internalType": "address",
							"name": "owner",
							"type": "address"
						},
						{
							"internalType": "string",
							"name": "name",
							"type": "string"
						},
						{
							"internalType": "uint256",
							"name": "price",
							"type": "uint256"
						},
						{
							"internalType": "uint256",
							"name": "maxSupply",
							"type": "uint256"
						},
						{
							"internalType": "uint256",
							"name": "issuedSupply",
							"type": "uint256"
						},
						{
							"internalType": "uint256",
							"name": "saleStartTime",
							"type": "uint256"
						},
						{
							"internalType": "uint256",
							"name": "saleEndTime",
							"type": "uint256"
						}
					],
					"stateMutability": "view",
					"type": "function"
				},
				{
					"inputs": [
						{
							"internalType": "uint256",
							"name": "eventId",
							"type": "uint256"
						},
						{
							"internalType": "address",
							"name": "user",
							"type": "address"
						}
					],
					"name": "hasTicket",
					"outputs": [
						{
							"internalType": "bool",
							"name": "",
							"type": "bool"
						}
					],
					"stateMutability": "view",
					"type": "function"
				},
				{
					"inputs": [],
					"name": "nextEventId",
					"outputs": [
						{
							"internalType": "uint256",
							"name": "",
							"type": "uint256"
						}
					],
					"stateMutability": "view",
					"type": "function"
				},
				{
					"inputs": [],
					"name": "withdrawFees",
					"outputs": [],
					"stateMutability": "nonpayable",
					"type": "function"
				}
			],
			"devdoc": {
				"details": "Simplified version: Manages creation and sale for events with a single ticket type. For EasyA x Polkadot Harvard Hackathon.",
				"kind": "dev",
				"methods": {},
				"title": "EventTickets_Simple",
				"version": 1
			},
			"userdoc": {
				"kind": "user",
				"methods": {
					"buyTicket(uint256)": {
						"notice": "Allows a user to buy a ticket for a specific event (single tier)."
					},
					"createEvent(string,uint256,uint256,uint256,uint256)": {
						"notice": "Creates a new event with a single ticket type."
					},
					"getEventCount()": {
						"notice": "Gets the total number of events created."
					},
					"getEventDetails(uint256)": {
						"notice": "Gets details for a specific event."
					},
					"hasTicket(uint256,address)": {
						"notice": "Checks if a user owns a ticket for a specific event."
					},
					"withdrawFees()": {
						"notice": "Allows the contract owner to withdraw all accumulated WND fees."
					}
				},
				"version": 1
			},
			"storageLayout": {
				"storage": [
					{
						"astId": 23,
						"contract": "contracts/EventTickets.sol:EventTickets_Simple",
						"label": "contractOwner",
						"offset": 0,
						"slot": "0",
						"type": "t_address"
					},
					{
						"astId": 25,
						"contract": "contracts/EventTickets.sol:EventTickets_Simple",
						"label": "nextEventId",
						"offset": 0,
						"slot": "1",
						"type": "t_uint256"
					},
					{
						"astId": 30,
						"contract": "contracts/EventTickets.sol:EventTickets_Simple",
						"label": "events",
						"offset": 0,
						"slot": "2",
						"type": "t_mapping(t_uint256,t_struct(EventInfo)21_storage)"
					}
				],
				"types": {
					"t_address": {
						"encoding": "inplace",
						"label": "address",
						"numberOfBytes": "20"
					},
					"t_bool": {
						"encoding": "inplace",
						"label": "bool",
						"numberOfBytes": "1"
					},
					"t_mapping(t_address,t_bool)": {
						"encoding": "mapping",
						"key": "t_address",
						"label": "mapping(address => bool)",
						"numberOfBytes": "32",
						"value": "t_bool"
					},
					"t_mapping(t_uint256,t_struct(EventInfo)21_storage)": {
						"encoding": "mapping",
						"key": "t_uint256",
						"label": "mapping(uint256 => struct EventTickets_Simple.EventInfo)",
						"numberOfBytes": "32",
						"value": "t_struct(EventInfo)21_storage"
					},
					"t_string_storage": {
						"encoding": "bytes",
						"label": "string",
						"numberOfBytes": "32"
					},
					"t_struct(EventInfo)21_storage": {
						"encoding": "inplace",
						"label": "struct EventTickets_Simple.EventInfo",
						"members": [
							{
								"astId": 4,
								"contract": "contracts/EventTickets.sol:EventTickets_Simple",
								"label": "owner",
								"offset": 0,
								"slot": "0",
								"type": "t_address"
							},
							{
								"astId": 6,
								"contract": "contracts/EventTickets.sol:EventTickets_Simple",
								"label": "name",
								"offset": 0,
								"slot": "1",
								"type": "t_string_storage"
							},
							{
								"astId": 8,
								"contract": "contracts/EventTickets.sol:EventTickets_Simple",
								"label": "price",
								"offset": 0,
								"slot": "2",
								"type": "t_uint256"
							},
							{
								"astId": 10,
								"contract": "contracts/EventTickets.sol:EventTickets_Simple",
								"label": "maxSupply",
								"offset": 0,
								"slot": "3",
								"type": "t_uint256"
							},
							{
								"astId": 12,
								"contract": "contracts/EventTickets.sol:EventTickets_Simple",
								"label": "issuedSupply",
								"offset": 0,
								"slot": "4",
								"type": "t_uint256"
							},
							{
								"astId": 14,
								"contract": "contracts/EventTickets.sol:EventTickets_Simple",
								"label": "saleStartTime",
								"offset": 0,
								"slot": "5",
								"type": "t_uint256"
							},
							{
								"astId": 16,
								"contract": "contracts/EventTickets.sol:EventTickets_Simple",
								"label": "saleEndTime",
								"offset": 0,
								"slot": "6",
								"type": "t_uint256"
							},
							{
								"astId": 20,
								"contract": "contracts/EventTickets.sol:EventTickets_Simple",
								"label": "userHasTicket",
								"offset": 0,
								"slot": "7",
								"type": "t_mapping(t_address,t_bool)"
							}
						],
						"numberOfBytes": "256"
					},
					"t_uint256": {
						"encoding": "inplace",
						"label": "uint256",
						"numberOfBytes": "32"
					}
				}
			},
			"evm": {
				"assembly": "// RO data = 0/0 bytes\n// RW data = 96/65648 bytes\n// Stack size = 16384 bytes\n\n// Instructions = 11751\n// Code size = 38391 bytes\n\n      : @0 (gas: 2)\n     0: i32 a2 = a0 >> 0x10\n     3: jump @6 if a2 != 0\n      : @1 (gas: 2)\n     6: a2 = 0x10001\n    11: jump @6 if a1 >=u a2\n      : @2 (gas: 4)\n    14: a1 = a1 + a0\n    17: i32 a1 = a1 + 0x1f\n    20: a1 = a1 & 0xffffffffffffffe0\n    23: jump @7 if a1 >=u 65537\n      : @3 (gas: 2)\n    29: a3 = i32 [0x20060]\n    34: jump @5 if a3 >=u a1\n      : @4 (gas: 4)\n    37: u32 [0x20060] = a1\n    42: a1 = 0x20070\n    47: a0 = a0 + a1\n    50: ret\n      : @5 (gas: 3)\n    52: a1 = 0x20070\n    57: a0 = a0 + a1\n    60: ret\n      : @6 (gas: 1)\n    62: trap\n      : @7 (gas: 1)\n    63: trap\n      : @8 (gas: 1)\n    64: jump @22 if a0 == a1\n      : @9 (gas: 9)\n    67: a3 = a1 << 0x20\n    70: a3 = a3 >> 0x20\n    73: a4 = a0 << 0x20\n    76: a4 = a4 >> 0x20\n    79: a4 = a4 + a2\n    82: a3 = a3 - a4\n    85: a4 = a2 << 0x1\n    88: a4 = -a4\n    90: jump @15 if a4 >=u a3\n      : @10 (gas: 1)\n    93: jump @19 if a0 >=u a1\n      : @11 (gas: 1)\n    96: jump @22 if a2 == 0\n      : @12 (gas: 3)\n    99: a2 = a2 + a0\n   102: a3 = a0\n   104: fallthrough\n      : @13 (gas: 6)\n   105: a4 = u8 [a1]\n   107: a1 = a1 + 0x1\n   110: a5 = a3 + 0x1\n   113: u8 [a3] = a4\n   115: a3 = a5\n   117: jump @13 if a5 != a2\n      : @14 (gas: 1)\n   120: jump @22\n      : @15 (gas: 1)\n   122: jump @22 if a2 == 0\n      : @16 (gas: 3)\n   125: a2 = a2 + a0\n   128: a3 = a0\n   130: fallthrough\n      : @17 (gas: 6)\n   131: a4 = u8 [a1]\n   133: a1 = a1 + 0x1\n   136: a5 = a3 + 0x1\n   139: u8 [a3] = a4\n   141: a3 = a5\n   143: jump @17 if a5 != a2\n      : @18 (gas: 1)\n   146: jump @22\n      : @19 (gas: 1)\n   148: jump @22 if a2 == 0\n      : @20 (gas: 2)\n   151: i32 a3 = a2 + 0xffffffffffffffff\n   154: fallthrough\n      : @21 (gas: 7)\n   155: a4 = a1 + a3\n   158: a4 = u8 [a4]\n   160: a2 = a2 + 0xffffffffffffffff\n   163: a5 = a0 + a3\n   166: u8 [a5] = a4\n   168: i32 a3 = a3 + 0xffffffffffffffff\n   171: jump @21 if a2 != 0\n      : @22 (gas: 1)\n   174: ret\n      : @23 (gas: 13)\n   176: sp = sp + 0xffffffffffffffd8\n   179: u64 [sp + 0x20] = ra\n   182: u64 [sp + 0x18] = s0\n   185: u64 [sp + 0x10] = s1\n   188: a2 = u64 [a1]\n   190: u64 [sp + 0x8] = a2\n   193: a2 = u64 [a1 + 0x8]\n   196: u64 [sp] = a2\n   198: s0 = u64 [a1 + 0x10]\n   201: s1 = u64 [a1 + 0x18]\n   204: i32 a0 = a0 + 0\n   206: a1 = 0x20\n   209: ra = 2, jump @0\n      : @24 [@dyn 1] (gas: 71)\n   214: a1 = reverse s1\n   216: a2 = reverse s0\n   218: a3 = u64 [sp]\n   220: a3 = reverse a3\n   222: a4 = u64 [sp + 0x8]\n   225: a4 = reverse a4\n   227: u8 [a0 + 0x18] = a4\n   230: u8 [a0 + 0x10] = a3\n   233: u8 [a0 + 0x8] = a2\n   236: u8 [a0] = a1\n   238: a5 = a4 >> 0x38\n   241: u8 [a0 + 0x1f] = a5\n   244: a5 = a4 >> 0x30\n   247: u8 [a0 + 0x1e] = a5\n   250: a5 = a4 >> 0x28\n   253: u8 [a0 + 0x1d] = a5\n   256: a5 = a4 >> 0x20\n   259: u8 [a0 + 0x1c] = a5\n   262: a5 = a4 >> 0x18\n   265: u8 [a0 + 0x1b] = a5\n   268: a5 = a4 >> 0x10\n   271: u8 [a0 + 0x1a] = a5\n   274: a4 = a4 >> 0x8\n   277: u8 [a0 + 0x19] = a4\n   280: a4 = a3 >> 0x38\n   283: u8 [a0 + 0x17] = a4\n   286: a4 = a3 >> 0x30\n   289: u8 [a0 + 0x16] = a4\n   292: a4 = a3 >> 0x28\n   295: u8 [a0 + 0x15] = a4\n   298: a4 = a3 >> 0x20\n   301: u8 [a0 + 0x14] = a4\n   304: a4 = a3 >> 0x18\n   307: u8 [a0 + 0x13] = a4\n   310: a4 = a3 >> 0x10\n   313: u8 [a0 + 0x12] = a4\n   316: a3 = a3 >> 0x8\n   319: u8 [a0 + 0x11] = a3\n   322: a3 = a2 >> 0x38\n   325: u8 [a0 + 0xf] = a3\n   328: a3 = a2 >> 0x30\n   331: u8 [a0 + 0xe] = a3\n   334: a3 = a2 >> 0x28\n   337: u8 [a0 + 0xd] = a3\n   340: a3 = a2 >> 0x20\n   343: u8 [a0 + 0xc] = a3\n   346: a3 = a2 >> 0x18\n   349: u8 [a0 + 0xb] = a3\n   352: a3 = a2 >> 0x10\n   355: u8 [a0 + 0xa] = a3\n   358: a2 = a2 >> 0x8\n   361: u8 [a0 + 0x9] = a2\n   364: a2 = a1 >> 0x38\n   367: u8 [a0 + 0x7] = a2\n   370: a2 = a1 >> 0x30\n   373: u8 [a0 + 0x6] = a2\n   376: a2 = a1 >> 0x28\n   379: u8 [a0 + 0x5] = a2\n   382: a2 = a1 >> 0x20\n   385: u8 [a0 + 0x4] = a2\n   388: a2 = a1 >> 0x18\n   391: u8 [a0 + 0x3] = a2\n   394: a2 = a1 >> 0x10\n   397: u8 [a0 + 0x2] = a2\n   400: a1 = a1 >> 0x8\n   403: u8 [a0 + 0x1] = a1\n   406: ra = u64 [sp + 0x20]\n   409: s0 = u64 [sp + 0x18]\n   412: s1 = u64 [sp + 0x10]\n   415: sp = sp + 0x28\n   418: ret\n      : @25 (gas: 40)\n   420: sp = sp + 0xffffffffffffffa0\n   423: u64 [sp + 0x58] = ra\n   426: u64 [sp + 0x50] = s0\n   429: u64 [sp + 0x48] = s1\n   432: s0 = sp + 0x60\n   435: sp = sp & 0xffffffffffffffe0\n   438: s1 = a0\n   440: a0 = u64 [a2 + 0x18]\n   443: a3 = u64 [a2 + 0x10]\n   446: a4 = u64 [a2 + 0x8]\n   449: a2 = u64 [a2]\n   451: u64 [sp + 0x18] = a0\n   454: u64 [sp + 0x10] = a3\n   457: u64 [sp + 0x8] = a4\n   460: u64 [sp] = a2\n   462: u64 [sp + 56] = 0\n   465: u64 [sp + 48] = 0\n   468: u64 [sp + 40] = 0\n   471: u64 [sp + 32] = 0\n   474: u32 [sp + 64] = 0x20\n   478: a0 = 0\n   480: i32 a1 = sp + 0\n   482: i32 a3 = sp + 0x20\n   485: i32 a4 = sp + 0x40\n   488: a2 = 0xffffffffffffffff\n   491: ecalli 7 // 'get_storage'\n   493: a0 = u64 [sp + 0x38]\n   496: a1 = u64 [sp + 0x30]\n   499: a2 = u64 [sp + 0x28]\n   502: a3 = u64 [sp + 0x20]\n   505: u64 [s1 + 0x18] = a0\n   508: u64 [s1 + 0x10] = a1\n   511: u64 [s1 + 0x8] = a2\n   514: u64 [s1] = a3\n   516: sp = s0 + 0xffffffffffffffa0\n   519: ra = u64 [sp + 0x58]\n   522: s0 = u64 [sp + 0x50]\n   525: s1 = u64 [sp + 0x48]\n   528: sp = sp + 0x60\n   531: ret\n      : @26 [@dyn 2] (gas: 34)\n   533: a1 = reverse s1\n   535: a2 = u64 [sp]\n   537: a2 = reverse a2\n   539: a3 = u64 [sp + 0x8]\n   542: a3 = reverse a3\n   544: a4 = u64 [sp + 0x10]\n   547: a4 = reverse a4\n   549: u64 [sp + 0x58] = a4\n   552: u64 [sp + 0x50] = a3\n   555: u64 [sp + 0x48] = a2\n   558: u64 [sp + 0x40] = a1\n   561: a1 = u64 [sp + 0x18]\n   564: a1 = reverse a1\n   566: a2 = u64 [sp + 0x20]\n   569: a2 = reverse a2\n   571: a3 = u64 [sp + 0x28]\n   574: a3 = reverse a3\n   576: a4 = u64 [sp + 0x38]\n   579: a4 = reverse a4\n   581: u64 [sp + 0x78] = a4\n   584: u64 [sp + 0x70] = a3\n   587: u64 [sp + 0x68] = a2\n   590: u64 [sp + 0x60] = a1\n   593: i32 a2 = a0 + 0\n   595: i32 a0 = sp + 0x40\n   598: a1 = 0x2\n   601: a3 = u64 [sp + 0x30]\n   604: ecalli 6 // 'deposit_event'\n   606: sp = s0 + 0xffffffffffffff60\n   610: ra = u64 [sp + 0x98]\n   614: s0 = u64 [sp + 0x90]\n   618: s1 = u64 [sp + 0x88]\n   622: sp = sp + 0xa0\n   626: ret\n      : @27 (gas: 33)\n   628: sp = sp + 0xffffffffffffff20\n   632: u64 [sp + 0xd8] = ra\n   636: u64 [sp + 0xd0] = s0\n   640: u64 [sp + 0xc8] = s1\n   644: s0 = sp + 0xe0\n   648: sp = sp & 0xffffffffffffffe0\n   651: a5 = u64 [a4]\n   653: u64 [sp + 0x40] = a5\n   656: a5 = u64 [a4 + 0x8]\n   659: u64 [sp + 0x48] = a5\n   662: a5 = u64 [a4 + 0x10]\n   665: u64 [sp + 0x50] = a5\n   668: a4 = u64 [a4 + 0x18]\n   671: u64 [sp + 0x58] = a4\n   674: a4 = u64 [a3]\n   676: u64 [sp + 0x18] = a4\n   679: a4 = u64 [a3 + 0x8]\n   682: u64 [sp + 0x20] = a4\n   685: a4 = u64 [a3 + 0x10]\n   688: u64 [sp + 0x28] = a4\n   691: a3 = u64 [a3 + 0x18]\n   694: u64 [sp + 0x30] = a3\n   697: s1 = u64 [a2]\n   699: a3 = u64 [a2 + 0x8]\n   702: u64 [sp] = a3\n   704: a3 = u64 [a2 + 0x10]\n   707: u64 [sp + 0x8] = a3\n   710: a2 = u64 [a2 + 0x18]\n   713: u64 [sp + 0x10] = a2\n   716: i32 a0 = a0 + 0\n   718: i32 a1 = a1 + 0\n   720: u64 [sp + 0x38] = a1\n   723: ra = 6, jump @0\n      : @28 [@dyn 3] (gas: 46)\n   728: a1 = reverse s1\n   730: u64 [sp + 0x78] = a1\n   733: a1 = u64 [sp]\n   735: a1 = reverse a1\n   737: u64 [sp + 0x70] = a1\n   740: a1 = u64 [sp + 0x8]\n   743: a1 = reverse a1\n   745: u64 [sp + 0x68] = a1\n   748: a1 = u64 [sp + 0x10]\n   751: a1 = reverse a1\n   753: u64 [sp + 0x60] = a1\n   756: a1 = u64 [sp + 0x18]\n   759: a1 = reverse a1\n   761: u64 [sp + 0x98] = a1\n   765: a1 = u64 [sp + 0x20]\n   768: a1 = reverse a1\n   770: u64 [sp + 0x90] = a1\n   774: a1 = u64 [sp + 0x28]\n   777: a1 = reverse a1\n   779: u64 [sp + 0x88] = a1\n   783: a1 = u64 [sp + 0x30]\n   786: a1 = reverse a1\n   788: u64 [sp + 0x80] = a1\n   792: a1 = u64 [sp + 0x40]\n   795: a1 = reverse a1\n   797: u64 [sp + 0xb8] = a1\n   801: a1 = u64 [sp + 0x48]\n   804: a1 = reverse a1\n   806: u64 [sp + 0xb0] = a1\n   810: a1 = u64 [sp + 0x50]\n   813: a1 = reverse a1\n   815: u64 [sp + 0xa8] = a1\n   819: a1 = u64 [sp + 0x58]\n   822: a1 = reverse a1\n   824: u64 [sp + 0xa0] = a1\n   828: i32 a2 = a0 + 0\n   830: i32 a0 = sp + 0x60\n   833: a1 = 0x3\n   836: a3 = u64 [sp + 0x38]\n   839: ecalli 6 // 'deposit_event'\n   841: sp = s0 + 0xffffffffffffff20\n   845: ra = u64 [sp + 0xd8]\n   849: s0 = u64 [sp + 0xd0]\n   853: s1 = u64 [sp + 0xc8]\n   857: sp = sp + 0xe0\n   861: ret\n      : @29 (gas: 6)\n   863: sp = sp + 0xfffffffffffffff0\n   866: u64 [sp + 0x8] = ra\n   869: u64 [sp] = s0\n   871: s0 = a0 & 0x1\n   874: ecalli 4 // 'call_data_size'\n   876: fallthrough\n      : @30 (gas: 2)\n   877: u32 [0x20064] = a0\n   882: jump @32 if s0 == 0\n      : @31 (gas: 1)\n   885: ra = 8, jump @33\n      : @32 [@dyn 4] (gas: 1)\n   889: ra = 10, jump @44\n      : @33 [@dyn 5] (gas: 9)\n   894: sp = sp + 0xffffffffffffff20\n   898: u64 [sp + 0xd8] = ra\n   902: u64 [sp + 0xd0] = s0\n   906: u64 [sp + 0xc8] = s1\n   910: s0 = sp + 0xe0\n   914: sp = sp & 0xffffffffffffffe0\n   917: a0 = 0x40\n   920: a1 = 0x20\n   923: ra = 12, jump @0\n      : @34 [@dyn 6] (gas: 39)\n   928: u8 [a0 + 31] = 0x80\n   933: u8 [a0 + 30] = 0\n   936: u8 [a0 + 29] = 0\n   939: u8 [a0 + 28] = 0\n   942: u8 [a0 + 27] = 0\n   945: u8 [a0 + 26] = 0\n   948: u8 [a0 + 25] = 0\n   951: u8 [a0 + 24] = 0\n   954: u8 [a0 + 23] = 0\n   957: u8 [a0 + 22] = 0\n   960: u8 [a0 + 21] = 0\n   963: u8 [a0 + 20] = 0\n   966: u8 [a0 + 19] = 0\n   969: u8 [a0 + 18] = 0\n   972: u8 [a0 + 17] = 0\n   975: u8 [a0 + 16] = 0\n   978: u8 [a0 + 15] = 0\n   981: u8 [a0 + 14] = 0\n   984: u8 [a0 + 13] = 0\n   987: u8 [a0 + 12] = 0\n   990: u8 [a0 + 11] = 0\n   993: u8 [a0 + 10] = 0\n   996: u8 [a0 + 9] = 0\n   999: u8 [a0 + 8] = 0\n  1002: u8 [a0 + 7] = 0\n  1005: u8 [a0 + 6] = 0\n  1008: u8 [a0 + 5] = 0\n  1011: u8 [a0 + 4] = 0\n  1014: u8 [a0 + 3] = 0\n  1017: u8 [a0 + 2] = 0\n  1020: u8 [a0 + 1] = 0\n  1023: u8 [a0 + 0] = 0\n  1025: u64 [sp + 56] = 0\n  1028: u64 [sp + 32] = 0\n  1031: u64 [sp + 40] = 0\n  1034: u64 [sp + 48] = 0\n  1037: i32 a0 = sp + 0x20\n  1040: ecalli 16 // 'value_transferred'\n  1042: fallthrough\n      : @35 (gas: 8)\n  1043: a0 = u64 [sp + 0x30]\n  1046: a1 = u64 [sp + 0x38]\n  1049: a2 = u64 [sp + 0x28]\n  1052: a3 = u64 [sp + 0x20]\n  1055: a1 = a1 | a2\n  1058: a0 = a0 | a3\n  1061: a0 = a0 | a1\n  1064: jump @38 if a0 == 0\n      : @36 (gas: 3)\n  1067: a0 = 0\n  1069: a1 = 0\n  1071: ra = 14, jump @0\n      : @37 [@dyn 7] (gas: 5)\n  1076: i32 a1 = a0 + 0\n  1078: a0 = 0x1\n  1081: a2 = 0\n  1083: ecalli 13 // 'seal_return'\n  1085: fallthrough\n      : @38 (gas: 55)\n  1086: i32 a0 = sp + 0x40\n  1089: ecalli 5 // 'caller'\n  1091: a0 = u64 [sp + 0x48]\n  1094: a1 = i32 [sp + 0x50]\n  1097: a2 = u64 [sp + 0x40]\n  1100: a0 = reverse a0\n  1102: a3 = a0 << 0x20\n  1105: a1 = reverse a1\n  1107: a1 = a1 >> 0x20\n  1110: a1 = a1 | a3\n  1113: u64 [sp + 0x18] = a1\n  1116: a0 = a0 >> 0x20\n  1119: s1 = reverse a2\n  1121: a1 = s1 << 0x20\n  1124: a0 = a0 | a1\n  1127: u64 [sp + 0x10] = a0\n  1130: s1 = s1 >> 0x20\n  1133: u64 [sp + 152] = 0\n  1137: u64 [sp + 144] = 0\n  1141: u64 [sp + 136] = 0\n  1145: u64 [sp + 128] = 0\n  1149: u64 [sp + 184] = 0\n  1153: u64 [sp + 176] = 0\n  1157: u64 [sp + 168] = 0\n  1161: u64 [sp + 160] = 0\n  1165: u32 [sp + 96] = 0x20\n  1169: i32 a1 = sp + 0x80\n  1173: i32 a3 = sp + 0xa0\n  1177: i32 a4 = sp + 0x60\n  1180: a2 = 0xffffffffffffffff\n  1183: a0 = 0\n  1185: ecalli 7 // 'get_storage'\n  1187: a0 = u32 [sp + 0xb4]\n  1191: a0 = a0 << 0x20\n  1194: a1 = u64 [sp + 0xb8]\n  1198: a0 = a0 | s1\n  1201: u64 [sp + 152] = 0\n  1205: u64 [sp + 144] = 0\n  1209: u64 [sp + 136] = 0\n  1213: u64 [sp + 128] = 0\n  1217: u64 [sp + 0xb8] = a1\n  1221: u64 [sp + 0xb0] = a0\n  1225: a0 = u64 [sp + 0x10]\n  1228: u64 [sp + 0xa8] = a0\n  1232: a0 = u64 [sp + 0x18]\n  1235: u64 [sp + 0xa0] = a0\n  1239: i32 a1 = sp + 0x80\n  1243: i32 a3 = sp + 0xa0\n  1247: a2 = 0xffffffffffffffff\n  1250: a4 = 0x20\n  1253: a0 = 0\n  1255: ecalli 15 // 'set_storage'\n  1257: a0 = 0x80\n  1261: a1 = 0\n  1263: ra = 16, jump @0\n      : @39 [@dyn 8] (gas: 5)\n  1268: i32 a0 = a0 + 0\n  1270: a1 = 0\n  1272: a2 = 0\n  1274: ecalli 2 // 'call_data_copy'\n  1276: fallthrough\n      : @40 (gas: 2)\n  1277: a1 = i32 [0x20068]\n  1282: jump @42 if a1 == 0\n      : @41 (gas: 4)\n  1285: a0 = 0x30070\n  1290: i32 a0 = a0 + 0\n  1292: ecalli 14 // 'set_immutable_data'\n  1294: fallthrough\n      : @42 (gas: 3)\n  1295: a0 = 0x80\n  1299: a1 = 0\n  1301: ra = 18, jump @0\n      : @43 [@dyn 9] (gas: 6)\n  1306: i32 a1 = a0 + 0\n  1308: a0 = 0\n  1310: a2 = 0\n  1312: ra = 0x14\n  1315: ecalli 13 // 'seal_return'\n  1317: fallthrough\n      : @44 [@dyn 10] (gas: 11)\n  1318: sp = sp + 0xfffffffffffff808\n  1322: u64 [sp + 0x7f0] = ra\n  1326: u64 [sp + 0x7e8] = s0\n  1330: u64 [sp + 0x7e0] = s1\n  1334: s0 = sp + 0x7f8\n  1338: sp = sp + 0xfffffffffffff978\n  1342: sp = sp & 0xffffffffffffffe0\n  1345: s1 = sp\n  1347: a0 = 0x40\n  1350: a1 = 0x20\n  1353: ra = 22, jump @0\n      : @45 [@dyn 11] (gas: 36)\n  1358: u8 [a0 + 31] = 0x80\n  1363: u8 [a0 + 30] = 0\n  1366: u8 [a0 + 29] = 0\n  1369: u8 [a0 + 28] = 0\n  1372: u8 [a0 + 27] = 0\n  1375: u8 [a0 + 26] = 0\n  1378: u8 [a0 + 25] = 0\n  1381: u8 [a0 + 24] = 0\n  1384: u8 [a0 + 23] = 0\n  1387: u8 [a0 + 22] = 0\n  1390: u8 [a0 + 21] = 0\n  1393: u8 [a0 + 20] = 0\n  1396: u8 [a0 + 19] = 0\n  1399: u8 [a0 + 18] = 0\n  1402: u8 [a0 + 17] = 0\n  1405: u8 [a0 + 16] = 0\n  1408: u8 [a0 + 15] = 0\n  1411: u8 [a0 + 14] = 0\n  1414: u8 [a0 + 13] = 0\n  1417: u8 [a0 + 12] = 0\n  1420: u8 [a0 + 11] = 0\n  1423: u8 [a0 + 10] = 0\n  1426: u8 [a0 + 9] = 0\n  1429: u8 [a0 + 8] = 0\n  1432: u8 [a0 + 7] = 0\n  1435: u8 [a0 + 3] = 0\n  1438: a1 = 0x20064\n  1443: u8 [a0 + 2] = 0\n  1446: u8 [a0 + 1] = 0\n  1449: u8 [a0 + 0] = 0\n  1451: u64 [s1 + 0x1d8] = a1\n  1455: a1 = i32 [0x20064]\n  1460: u8 [a0 + 6] = 0\n  1463: u8 [a0 + 5] = 0\n  1466: u8 [a0 + 4] = 0\n  1469: jump @47 if a1 >=u 4\n      : @46 (gas: 1)\n  1473: jump @361\n      : @47 (gas: 5)\n  1476: a0 = s1 + 0x1000\n  1480: i32 a0 = a0 + 0xfffffffffffffb00\n  1484: a1 = 0\n  1486: ecalli 3 // 'call_data_load'\n  1488: fallthrough\n      : @48 (gas: 4)\n  1489: a0 = s1 + 0x7ff\n  1493: a0 = a0 + 0x159\n  1497: a0 = i32 [a0 + 0x1c4]\n  1501: jump @73 if a0 <=s 3963147679\n      : @49 (gas: 1)\n  1509: jump @100 if a0 <=s 1197687789\n      : @50 (gas: 1)\n  1517: jump @52 if a0 != 1197687790\n      : @51 (gas: 1)\n  1524: jump @117\n      : @52 (gas: 1)\n  1527: jump @54 if a0 == 1212404401\n      : @53 (gas: 1)\n  1534: jump @201\n      : @54 (gas: 11)\n  1537: a0 = sp + 0xffffffffffffffe0\n  1540: a0 = a0 & 0xffffffffffffffe0\n  1543: u64 [s1 + 0x1d0] = a0\n  1547: sp = a0\n  1549: u64 [a0 + 24] = 0\n  1552: u64 [a0 + 16] = 0\n  1555: u64 [a0 + 8] = 0\n  1558: u64 [a0 + 0] = 0\n  1560: i32 a0 = a0 + 0\n  1562: ecalli 16 // 'value_transferred'\n  1564: fallthrough\n      : @55 (gas: 9)\n  1565: a3 = u64 [s1 + 0x1d0]\n  1569: a0 = u64 [a3 + 0x10]\n  1572: a1 = u64 [a3 + 0x18]\n  1575: a2 = u64 [a3 + 0x8]\n  1578: a3 = u64 [a3]\n  1580: a1 = a1 | a2\n  1583: a0 = a0 | a3\n  1586: a0 = a0 | a1\n  1589: jump @57 if a0 == 0\n      : @56 (gas: 1)\n  1592: jump @361\n      : @57 (gas: 3)\n  1595: a0 = u64 [s1 + 0x1d8]\n  1599: a0 = i32 [a0]\n  1601: jump @59 if a0 >u 67\n      : @58 (gas: 1)\n  1605: jump @361\n      : @59 (gas: 5)\n  1608: a0 = s1 + 0x1000\n  1612: i32 a0 = a0 + 0xfffffffffffffc00\n  1616: a1 = 0x24\n  1619: ecalli 3 // 'call_data_load'\n  1621: fallthrough\n      : @60 (gas: 14)\n  1622: a2 = s1 + 0x7ff\n  1626: a2 = a2 + 0x159\n  1630: a1 = u64 [a2 + 0x2b8]\n  1634: a3 = u64 [a2 + 0x2c0]\n  1638: a0 = 0x100000000\n  1648: a0 = a0 ^ a1\n  1651: a0 = a0 | a3\n  1654: u64 [s1 + 0x1d8] = a1\n  1658: a1 = a1 >> 0x20\n  1661: a1 = a1 <u 0x1\n  1664: u64 [s1 + 0x1d0] = a3\n  1668: a1 = 0 if a3 != 0\n  1670: a1 = 0 if a0 == 0\n  1672: jump @62 if a1 != 0\n      : @61 (gas: 1)\n  1675: jump @364\n      : @62 (gas: 21)\n  1678: a0 = u64 [a2 + 0x2b0]\n  1682: u64 [s1 + 0x1c0] = a0\n  1686: a0 = u64 [a2 + 0x2a8]\n  1690: u64 [s1 + 0x1c8] = a0\n  1694: a0 = s1 + 0x1000\n  1698: i32 a0 = a0 + 0xfffffffffffffc20\n  1702: a1 = 0x4\n  1705: ecalli 3 // 'call_data_load'\n  1707: a0 = s1 + 0x7ff\n  1711: a0 = a0 + 0x159\n  1715: a1 = u64 [a0 + 0x2c8]\n  1719: u64 [s1 + 0x1b8] = a1\n  1723: a1 = u64 [a0 + 0x2d0]\n  1727: u64 [s1 + 0x1b0] = a1\n  1731: a1 = u64 [a0 + 0x2d8]\n  1735: u64 [s1 + 0x1a8] = a1\n  1739: a0 = u64 [a0 + 0x2e0]\n  1743: u64 [s1 + 0x1a0] = a0\n  1747: a1 = 0x20\n  1750: a0 = 0\n  1752: ra = 24, jump @0\n      : @63 [@dyn 12] (gas: 71)\n  1757: a1 = u64 [s1 + 0x1a0]\n  1761: a1 = reverse a1\n  1763: a2 = u64 [s1 + 0x1a8]\n  1767: a2 = reverse a2\n  1769: a3 = u64 [s1 + 0x1b0]\n  1773: a3 = reverse a3\n  1775: a4 = u64 [s1 + 0x1b8]\n  1779: a4 = reverse a4\n  1781: a5 = a4 >> 0x38\n  1784: u8 [a0 + 0x1f] = a5\n  1787: a5 = a4 >> 0x30\n  1790: u8 [a0 + 0x1e] = a5\n  1793: a5 = a4 >> 0x28\n  1796: u8 [a0 + 0x1d] = a5\n  1799: a5 = a4 >> 0x20\n  1802: u8 [a0 + 0x1c] = a5\n  1805: a5 = a4 >> 0x18\n  1808: u8 [a0 + 0x1b] = a5\n  1811: a5 = a4 >> 0x10\n  1814: u8 [a0 + 0x1a] = a5\n  1817: a5 = a4 >> 0x8\n  1820: u8 [a0 + 0x19] = a5\n  1823: u8 [a0 + 0x18] = a4\n  1826: a4 = a3 >> 0x38\n  1829: u8 [a0 + 0x17] = a4\n  1832: a4 = a3 >> 0x30\n  1835: u8 [a0 + 0x16] = a4\n  1838: a4 = a3 >> 0x28\n  1841: u8 [a0 + 0x15] = a4\n  1844: a4 = a3 >> 0x20\n  1847: u8 [a0 + 0x14] = a4\n  1850: a4 = a3 >> 0x18\n  1853: u8 [a0 + 0x13] = a4\n  1856: a4 = a3 >> 0x10\n  1859: u8 [a0 + 0x12] = a4\n  1862: a4 = a3 >> 0x8\n  1865: u8 [a0 + 0x11] = a4\n  1868: u8 [a0 + 0x10] = a3\n  1871: a3 = a2 >> 0x38\n  1874: u8 [a0 + 0xf] = a3\n  1877: a3 = a2 >> 0x30\n  1880: u8 [a0 + 0xe] = a3\n  1883: a3 = a2 >> 0x28\n  1886: u8 [a0 + 0xd] = a3\n  1889: a3 = a2 >> 0x20\n  1892: u8 [a0 + 0xc] = a3\n  1895: a3 = a2 >> 0x18\n  1898: u8 [a0 + 0xb] = a3\n  1901: a3 = a2 >> 0x10\n  1904: u8 [a0 + 0xa] = a3\n  1907: a3 = a2 >> 0x8\n  1910: u8 [a0 + 0x9] = a3\n  1913: u8 [a0 + 0x8] = a2\n  1916: a2 = a1 >> 0x38\n  1919: u8 [a0 + 0x7] = a2\n  1922: a2 = a1 >> 0x30\n  1925: u8 [a0 + 0x6] = a2\n  1928: a2 = a1 >> 0x28\n  1931: u8 [a0 + 0x5] = a2\n  1934: a2 = a1 >> 0x20\n  1937: u8 [a0 + 0x4] = a2\n  1940: a2 = a1 >> 0x18\n  1943: u8 [a0 + 0x3] = a2\n  1946: a2 = a1 >> 0x10\n  1949: u8 [a0 + 0x2] = a2\n  1952: a2 = a1 >> 0x8\n  1955: u8 [a0 + 0x1] = a2\n  1958: u8 [a0] = a1\n  1960: a0 = 0x20\n  1963: a1 = 0x20\n  1966: ra = 26, jump @0\n      : @64 [@dyn 13] (gas: 35)\n  1971: u8 [a0 + 31] = 0x2\n  1975: u8 [a0 + 30] = 0\n  1978: u8 [a0 + 29] = 0\n  1981: u8 [a0 + 28] = 0\n  1984: u8 [a0 + 27] = 0\n  1987: u8 [a0 + 26] = 0\n  1990: u8 [a0 + 25] = 0\n  1993: u8 [a0 + 24] = 0\n  1996: u8 [a0 + 23] = 0\n  1999: u8 [a0 + 22] = 0\n  2002: u8 [a0 + 21] = 0\n  2005: u8 [a0 + 20] = 0\n  2008: u8 [a0 + 19] = 0\n  2011: u8 [a0 + 18] = 0\n  2014: u8 [a0 + 17] = 0\n  2017: u8 [a0 + 16] = 0\n  2020: u8 [a0 + 15] = 0\n  2023: u8 [a0 + 14] = 0\n  2026: u8 [a0 + 13] = 0\n  2029: u8 [a0 + 12] = 0\n  2032: u8 [a0 + 11] = 0\n  2035: u8 [a0 + 10] = 0\n  2038: u8 [a0 + 9] = 0\n  2041: u8 [a0 + 8] = 0\n  2044: u8 [a0 + 7] = 0\n  2047: u8 [a0 + 6] = 0\n  2050: u8 [a0 + 5] = 0\n  2053: u8 [a0 + 4] = 0\n  2056: u8 [a0 + 3] = 0\n  2059: u8 [a0 + 2] = 0\n  2062: u8 [a0 + 1] = 0\n  2065: u8 [a0 + 0] = 0\n  2067: a1 = 0x40\n  2070: a0 = 0\n  2072: ra = 28, jump @0\n      : @65 [@dyn 14] (gas: 32)\n  2077: a1 = sp + 0xffffffffffffffe0\n  2080: a1 = a1 & 0xffffffffffffffe0\n  2083: u64 [s1 + 0x1b8] = a1\n  2087: sp = a1\n  2089: i32 a0 = a0 + 0\n  2091: i32 a2 = a1 + 0\n  2093: a1 = 0x40\n  2096: ecalli 8 // 'hash_keccak_256'\n  2098: a3 = u64 [s1 + 0x1b8]\n  2102: a0 = u64 [a3]\n  2104: a1 = u64 [a3 + 0x8]\n  2107: a2 = u64 [a3 + 0x10]\n  2110: a3 = u64 [a3 + 0x18]\n  2113: a0 = reverse a0\n  2115: a1 = reverse a1\n  2117: a2 = reverse a2\n  2119: a3 = reverse a3\n  2121: a4 = a3 + 0x7\n  2124: u64 [s1 + 0x1b8] = a4\n  2128: a3 = a4 <u a3\n  2131: a4 = a2 + a3\n  2134: u64 [s1 + 0x1b0] = a4\n  2138: a2 = a4 <u a2\n  2141: a2 = a3 if a3 == 0\n  2144: a2 = a2 + a1\n  2147: u64 [s1 + 0x1a8] = a2\n  2151: a1 = a2 <u a1\n  2154: a0 = a0 + a1\n  2157: u64 [s1 + 0x1a0] = a0\n  2161: a1 = 0x20\n  2164: a0 = 0\n  2166: ra = 30, jump @0\n      : @66 [@dyn 15] (gas: 71)\n  2171: a1 = u64 [s1 + 0x1d0]\n  2175: a1 = reverse a1\n  2177: a2 = u64 [s1 + 0x1d8]\n  2181: a2 = reverse a2\n  2183: a3 = u64 [s1 + 0x1c0]\n  2187: a3 = reverse a3\n  2189: a4 = u64 [s1 + 0x1c8]\n  2193: a4 = reverse a4\n  2195: a5 = a4 >> 0x38\n  2198: u8 [a0 + 0x1f] = a5\n  2201: a5 = a4 >> 0x30\n  2204: u8 [a0 + 0x1e] = a5\n  2207: a5 = a4 >> 0x28\n  2210: u8 [a0 + 0x1d] = a5\n  2213: a5 = a4 >> 0x20\n  2216: u8 [a0 + 0x1c] = a5\n  2219: a5 = a4 >> 0x18\n  2222: u8 [a0 + 0x1b] = a5\n  2225: a5 = a4 >> 0x10\n  2228: u8 [a0 + 0x1a] = a5\n  2231: a5 = a4 >> 0x8\n  2234: u8 [a0 + 0x19] = a5\n  2237: u8 [a0 + 0x18] = a4\n  2240: a4 = a3 >> 0x38\n  2243: u8 [a0 + 0x17] = a4\n  2246: a4 = a3 >> 0x30\n  2249: u8 [a0 + 0x16] = a4\n  2252: a4 = a3 >> 0x28\n  2255: u8 [a0 + 0x15] = a4\n  2258: a4 = a3 >> 0x20\n  2261: u8 [a0 + 0x14] = a4\n  2264: a4 = a3 >> 0x18\n  2267: u8 [a0 + 0x13] = a4\n  2270: a4 = a3 >> 0x10\n  2273: u8 [a0 + 0x12] = a4\n  2276: a4 = a3 >> 0x8\n  2279: u8 [a0 + 0x11] = a4\n  2282: u8 [a0 + 0x10] = a3\n  2285: a3 = a2 >> 0x38\n  2288: u8 [a0 + 0xf] = a3\n  2291: a3 = a2 >> 0x30\n  2294: u8 [a0 + 0xe] = a3\n  2297: a3 = a2 >> 0x28\n  2300: u8 [a0 + 0xd] = a3\n  2303: a3 = a2 >> 0x20\n  2306: u8 [a0 + 0xc] = a3\n  2309: a3 = a2 >> 0x18\n  2312: u8 [a0 + 0xb] = a3\n  2315: a3 = a2 >> 0x10\n  2318: u8 [a0 + 0xa] = a3\n  2321: a3 = a2 >> 0x8\n  2324: u8 [a0 + 0x9] = a3\n  2327: u8 [a0 + 0x8] = a2\n  2330: a2 = a1 >> 0x38\n  2333: u8 [a0 + 0x7] = a2\n  2336: a2 = a1 >> 0x30\n  2339: u8 [a0 + 0x6] = a2\n  2342: a2 = a1 >> 0x28\n  2345: u8 [a0 + 0x5] = a2\n  2348: a2 = a1 >> 0x20\n  2351: u8 [a0 + 0x4] = a2\n  2354: a2 = a1 >> 0x18\n  2357: u8 [a0 + 0x3] = a2\n  2360: a2 = a1 >> 0x10\n  2363: u8 [a0 + 0x2] = a2\n  2366: a2 = a1 >> 0x8\n  2369: u8 [a0 + 0x1] = a2\n  2372: u8 [a0] = a1\n  2374: a0 = 0x20\n  2377: a1 = 0x20\n  2380: ra = 32, jump @0\n      : @67 [@dyn 16] (gas: 71)\n  2385: a1 = u64 [s1 + 0x1a0]\n  2389: a1 = reverse a1\n  2391: a2 = u64 [s1 + 0x1a8]\n  2395: a2 = reverse a2\n  2397: a3 = u64 [s1 + 0x1b0]\n  2401: a3 = reverse a3\n  2403: a4 = u64 [s1 + 0x1b8]\n  2407: a4 = reverse a4\n  2409: a5 = a4 >> 0x38\n  2412: u8 [a0 + 0x1f] = a5\n  2415: a5 = a4 >> 0x30\n  2418: u8 [a0 + 0x1e] = a5\n  2421: a5 = a4 >> 0x28\n  2424: u8 [a0 + 0x1d] = a5\n  2427: a5 = a4 >> 0x20\n  2430: u8 [a0 + 0x1c] = a5\n  2433: a5 = a4 >> 0x18\n  2436: u8 [a0 + 0x1b] = a5\n  2439: a5 = a4 >> 0x10\n  2442: u8 [a0 + 0x1a] = a5\n  2445: a5 = a4 >> 0x8\n  2448: u8 [a0 + 0x19] = a5\n  2451: u8 [a0 + 0x18] = a4\n  2454: u8 [a0 + 0x10] = a3\n  2457: a4 = a3 >> 0x38\n  2460: u8 [a0 + 0x17] = a4\n  2463: a4 = a3 >> 0x30\n  2466: u8 [a0 + 0x16] = a4\n  2469: a4 = a3 >> 0x28\n  2472: u8 [a0 + 0x15] = a4\n  2475: a4 = a3 >> 0x20\n  2478: u8 [a0 + 0x14] = a4\n  2481: a4 = a3 >> 0x18\n  2484: u8 [a0 + 0x13] = a4\n  2487: a4 = a3 >> 0x10\n  2490: u8 [a0 + 0x12] = a4\n  2493: a3 = a3 >> 0x8\n  2496: u8 [a0 + 0x11] = a3\n  2499: u8 [a0 + 0x8] = a2\n  2502: a3 = a2 >> 0x38\n  2505: u8 [a0 + 0xf] = a3\n  2508: a3 = a2 >> 0x30\n  2511: u8 [a0 + 0xe] = a3\n  2514: a3 = a2 >> 0x28\n  2517: u8 [a0 + 0xd] = a3\n  2520: a3 = a2 >> 0x20\n  2523: u8 [a0 + 0xc] = a3\n  2526: a3 = a2 >> 0x18\n  2529: u8 [a0 + 0xb] = a3\n  2532: a3 = a2 >> 0x10\n  2535: u8 [a0 + 0xa] = a3\n  2538: a2 = a2 >> 0x8\n  2541: u8 [a0 + 0x9] = a2\n  2544: u8 [a0] = a1\n  2546: a2 = a1 >> 0x38\n  2549: u8 [a0 + 0x7] = a2\n  2552: a2 = a1 >> 0x30\n  2555: u8 [a0 + 0x6] = a2\n  2558: a2 = a1 >> 0x28\n  2561: u8 [a0 + 0x5] = a2\n  2564: a2 = a1 >> 0x20\n  2567: u8 [a0 + 0x4] = a2\n  2570: a2 = a1 >> 0x18\n  2573: u8 [a0 + 0x3] = a2\n  2576: a2 = a1 >> 0x10\n  2579: u8 [a0 + 0x2] = a2\n  2582: a1 = a1 >> 0x8\n  2585: u8 [a0 + 0x1] = a1\n  2588: a1 = 0x40\n  2591: a0 = 0\n  2593: ra = 34, jump @0\n      : @68 [@dyn 17] (gas: 44)\n  2598: a1 = sp + 0xffffffffffffffe0\n  2601: a1 = a1 & 0xffffffffffffffe0\n  2604: u64 [s1 + 0x1d8] = a1\n  2608: sp = a1\n  2610: i32 a0 = a0 + 0\n  2612: i32 a2 = a1 + 0\n  2614: a1 = 0x40\n  2617: ecalli 8 // 'hash_keccak_256'\n  2619: a3 = u64 [s1 + 0x1d8]\n  2623: a0 = u64 [a3 + 0x18]\n  2626: a1 = u64 [a3 + 0x10]\n  2629: a2 = u64 [a3 + 0x8]\n  2632: a3 = u64 [a3]\n  2634: a0 = reverse a0\n  2636: a1 = reverse a1\n  2638: a2 = reverse a2\n  2640: a3 = reverse a3\n  2642: a4 = s1 + 0x7ff\n  2646: a4 = a4 + 0x159\n  2650: u64 [a4 + 0x4c0] = a3\n  2654: u64 [a4 + 0x4b8] = a2\n  2658: u64 [a4 + 0x4b0] = a1\n  2662: u64 [a4 + 0x4a8] = a0\n  2666: u64 [a4 + 1248] = 0\n  2670: u64 [a4 + 1240] = 0\n  2674: u64 [a4 + 1232] = 0\n  2678: u64 [a4 + 1224] = 0\n  2682: u32 [a4 + 1256] = 0x20\n  2687: a0 = s1 + 0x1000\n  2691: i32 a1 = a0 + 0xfffffffffffffe00\n  2695: a0 = s1 + 0x1000\n  2699: i32 a3 = a0 + 0xfffffffffffffe20\n  2703: a0 = s1 + 0x1000\n  2707: i32 a4 = a0 + 0xfffffffffffffe40\n  2711: a2 = 0xffffffffffffffff\n  2714: a0 = 0\n  2716: ecalli 7 // 'get_storage'\n  2718: a0 = s1 + 0x7ff\n  2722: a0 = a0 + 0x159\n  2726: a0 = u64 [a0 + 0x4c8]\n  2730: u64 [s1 + 0x1d8] = a0\n  2734: a0 = 0x40\n  2737: a1 = 0x20\n  2740: ra = 36, jump @0\n      : @69 [@dyn 18] (gas: 100)\n  2745: a1 = u8 [a0 + 0x11]\n  2748: a2 = u8 [a0 + 0x10]\n  2751: a3 = u8 [a0 + 0x12]\n  2754: a4 = u8 [a0 + 0x13]\n  2757: a1 = a1 << 0x8\n  2760: a1 = a1 | a2\n  2763: a3 = a3 << 0x10\n  2766: a4 = a4 << 0x18\n  2769: a3 = a3 | a4\n  2772: a1 = a1 | a3\n  2775: a2 = u8 [a0 + 0x15]\n  2778: a3 = u8 [a0 + 0x14]\n  2781: a4 = u8 [a0 + 0x16]\n  2784: a5 = u8 [a0 + 0x17]\n  2787: a2 = a2 << 0x8\n  2790: a2 = a2 | a3\n  2793: a4 = a4 << 0x10\n  2796: a5 = a5 << 0x18\n  2799: a4 = a4 | a5\n  2802: a2 = a2 | a4\n  2805: a2 = a2 << 0x20\n  2808: t0 = a2 | a1\n  2811: a2 = u8 [a0 + 0x1]\n  2814: a3 = u8 [a0]\n  2816: a4 = u8 [a0 + 0x2]\n  2819: a5 = u8 [a0 + 0x3]\n  2822: a2 = a2 << 0x8\n  2825: a2 = a2 | a3\n  2828: a4 = a4 << 0x10\n  2831: a5 = a5 << 0x18\n  2834: a4 = a4 | a5\n  2837: a2 = a2 | a4\n  2840: a3 = u8 [a0 + 0x5]\n  2843: a4 = u8 [a0 + 0x4]\n  2846: a5 = u8 [a0 + 0x6]\n  2849: a1 = u8 [a0 + 0x7]\n  2852: a3 = a3 << 0x8\n  2855: a3 = a3 | a4\n  2858: a5 = a5 << 0x10\n  2861: a1 = a1 << 0x18\n  2864: a1 = a1 | a5\n  2867: a1 = a1 | a3\n  2870: a1 = a1 << 0x20\n  2873: t1 = a1 | a2\n  2876: a1 = u8 [a0 + 0x19]\n  2879: a3 = u8 [a0 + 0x18]\n  2882: a4 = u8 [a0 + 0x1a]\n  2885: a5 = u8 [a0 + 0x1b]\n  2888: a1 = a1 << 0x8\n  2891: a1 = a1 | a3\n  2894: a4 = a4 << 0x10\n  2897: a5 = a5 << 0x18\n  2900: a4 = a4 | a5\n  2903: a1 = a1 | a4\n  2906: a3 = u8 [a0 + 0x1d]\n  2909: a4 = u8 [a0 + 0x1c]\n  2912: a5 = u8 [a0 + 0x1e]\n  2915: a2 = u8 [a0 + 0x1f]\n  2918: a3 = a3 << 0x8\n  2921: a3 = a3 | a4\n  2924: a5 = a5 << 0x10\n  2927: a2 = a2 << 0x18\n  2930: a2 = a2 | a5\n  2933: a2 = a2 | a3\n  2936: a2 = a2 << 0x20\n  2939: a3 = a2 | a1\n  2942: a1 = u8 [a0 + 0x9]\n  2945: a2 = u8 [a0 + 0x8]\n  2948: a4 = u8 [a0 + 0xa]\n  2951: a5 = u8 [a0 + 0xb]\n  2954: a1 = a1 << 0x8\n  2957: a1 = a1 | a2\n  2960: a4 = a4 << 0x10\n  2963: a5 = a5 << 0x18\n  2966: a4 = a4 | a5\n  2969: a1 = a1 | a4\n  2972: a2 = u8 [a0 + 0xd]\n  2975: a4 = u8 [a0 + 0xc]\n  2978: a5 = u8 [a0 + 0xe]\n  2981: a0 = u8 [a0 + 0xf]\n  2984: a2 = a2 << 0x8\n  2987: a2 = a2 | a4\n  2990: a5 = a5 << 0x10\n  2993: a0 = a0 << 0x18\n  2996: a0 = a0 | a5\n  2999: a0 = a0 | a2\n  3002: a0 = a0 << 0x20\n  3005: a0 = a0 | a1\n  3008: a1 = reverse a0\n  3010: a0 = reverse a3\n  3012: a2 = reverse t1\n  3014: a3 = reverse t0\n  3016: a2 = a2 | a3\n  3019: a3 = a0 | a1\n  3022: a3 = a3 | a2\n  3025: a3 = a3 >> 0x20\n  3028: a1 = a1 | a2\n  3031: a1 = a1 << 0x20\n  3034: a1 = a1 | a3\n  3037: jump @71 if a1 == 0\n      : @70 (gas: 1)\n  3040: jump @256\n      : @71 (gas: 7)\n  3043: a1 = u8 [s1 + 0x1d8]\n  3047: a1 = a1 >u 0\n  3049: u64 [s1 + 0x1d0] = a1\n  3053: i32 a0 = a0 + 0\n  3055: u64 [s1 + 0x1d8] = a0\n  3059: a1 = 0x20\n  3062: ra = 38, jump @0\n      : @72 [@dyn 19] (gas: 37)\n  3067: a1 = u64 [s1 + 0x1d0]\n  3071: u8 [a0 + 0x1f] = a1\n  3074: u8 [a0 + 30] = 0\n  3077: u8 [a0 + 29] = 0\n  3080: u8 [a0 + 28] = 0\n  3083: u8 [a0 + 27] = 0\n  3086: u8 [a0 + 26] = 0\n  3089: u8 [a0 + 25] = 0\n  3092: u8 [a0 + 24] = 0\n  3095: u8 [a0 + 23] = 0\n  3098: u8 [a0 + 22] = 0\n  3101: u8 [a0 + 21] = 0\n  3104: u8 [a0 + 20] = 0\n  3107: u8 [a0 + 19] = 0\n  3110: u8 [a0 + 18] = 0\n  3113: u8 [a0 + 17] = 0\n  3116: u8 [a0 + 16] = 0\n  3119: u8 [a0 + 15] = 0\n  3122: u8 [a0 + 14] = 0\n  3125: u8 [a0 + 13] = 0\n  3128: u8 [a0 + 12] = 0\n  3131: u8 [a0 + 11] = 0\n  3134: u8 [a0 + 10] = 0\n  3137: u8 [a0 + 9] = 0\n  3140: u8 [a0 + 8] = 0\n  3143: u8 [a0 + 7] = 0\n  3146: u8 [a0 + 6] = 0\n  3149: u8 [a0 + 5] = 0\n  3152: u8 [a0 + 4] = 0\n  3155: u8 [a0 + 3] = 0\n  3158: u8 [a0 + 2] = 0\n  3161: u8 [a0 + 1] = 0\n  3164: u8 [a0 + 0] = 0\n  3166: a1 = 0x20\n  3169: a0 = u64 [s1 + 0x1d8]\n  3173: ra = 0x30\n  3176: jump @0\n      : @73 (gas: 1)\n  3179: jump @87 if a0 >s 3655634779\n      : @74 (gas: 1)\n  3187: jump @89 if a0 == 2677903418\n      : @75 (gas: 1)\n  3195: jump @77 if a0 == 3462426336\n      : @76 (gas: 1)\n  3202: jump @361\n      : @77 (gas: 11)\n  3205: a0 = sp + 0xffffffffffffffe0\n  3208: a0 = a0 & 0xffffffffffffffe0\n  3211: u64 [s1 + 0x1d0] = a0\n  3215: sp = a0\n  3217: u64 [a0 + 24] = 0\n  3220: u64 [a0 + 16] = 0\n  3223: u64 [a0 + 8] = 0\n  3226: u64 [a0 + 0] = 0\n  3228: i32 a0 = a0 + 0\n  3230: ecalli 16 // 'value_transferred'\n  3232: fallthrough\n      : @78 (gas: 9)\n  3233: a3 = u64 [s1 + 0x1d0]\n  3237: a0 = u64 [a3 + 0x10]\n  3240: a1 = u64 [a3 + 0x18]\n  3243: a2 = u64 [a3 + 0x8]\n  3246: a3 = u64 [a3]\n  3248: a1 = a1 | a2\n  3251: a0 = a0 | a3\n  3254: a0 = a0 | a1\n  3257: jump @80 if a0 == 0\n      : @79 (gas: 1)\n  3260: jump @361\n      : @80 (gas: 5)\n  3263: a0 = u64 [s1 + 0x1d8]\n  3267: a0 = i32 [a0]\n  3269: a2 = s1 + 0x7ff\n  3273: a2 = a2 + 0x159\n  3277: jump @82 if a0 >u 3\n      : @81 (gas: 1)\n  3281: jump @361\n      : @82 (gas: 29)\n  3284: u64 [a2 + 1216] = 0\n  3288: u64 [a2 + 1208] = 0\n  3292: u64 [a2 + 1200] = 0\n  3296: u64 [a2 + 1192] = 0\n  3300: u64 [a2 + 1248] = 0\n  3304: u64 [a2 + 1240] = 0\n  3308: u64 [a2 + 1232] = 0\n  3312: u64 [a2 + 1224] = 0\n  3316: u32 [a2 + 1256] = 0x20\n  3321: a0 = s1 + 0x1000\n  3325: i32 a1 = a0 + 0xfffffffffffffe00\n  3329: a0 = s1 + 0x1000\n  3333: i32 a3 = a0 + 0xfffffffffffffe20\n  3337: a0 = s1 + 0x1000\n  3341: i32 a4 = a0 + 0xfffffffffffffe40\n  3345: a2 = 0xffffffffffffffff\n  3348: a0 = 0\n  3350: ecalli 7 // 'get_storage'\n  3352: a1 = s1 + 0x7ff\n  3356: a1 = a1 + 0x159\n  3360: a0 = u64 [a1 + 0x4d8]\n  3364: u64 [s1 + 0x1c8] = a0\n  3368: a0 = u64 [a1 + 0x4d0]\n  3372: u64 [s1 + 0x1d0] = a0\n  3376: a0 = u64 [a1 + 0x4c8]\n  3380: u64 [s1 + 0x1d8] = a0\n  3384: a0 = 0x40\n  3387: a1 = 0x20\n  3390: ra = 40, jump @0\n      : @83 [@dyn 20] (gas: 100)\n  3395: a1 = u8 [a0 + 0x11]\n  3398: a2 = u8 [a0 + 0x10]\n  3401: a3 = u8 [a0 + 0x12]\n  3404: a4 = u8 [a0 + 0x13]\n  3407: a1 = a1 << 0x8\n  3410: a1 = a1 | a2\n  3413: a3 = a3 << 0x10\n  3416: a4 = a4 << 0x18\n  3419: a3 = a3 | a4\n  3422: a1 = a1 | a3\n  3425: a2 = u8 [a0 + 0x15]\n  3428: a3 = u8 [a0 + 0x14]\n  3431: a4 = u8 [a0 + 0x16]\n  3434: a5 = u8 [a0 + 0x17]\n  3437: a2 = a2 << 0x8\n  3440: a2 = a2 | a3\n  3443: a4 = a4 << 0x10\n  3446: a5 = a5 << 0x18\n  3449: a4 = a4 | a5\n  3452: a2 = a2 | a4\n  3455: a2 = a2 << 0x20\n  3458: t0 = a2 | a1\n  3461: a2 = u8 [a0 + 0x1]\n  3464: a3 = u8 [a0]\n  3466: a4 = u8 [a0 + 0x2]\n  3469: a5 = u8 [a0 + 0x3]\n  3472: a2 = a2 << 0x8\n  3475: a2 = a2 | a3\n  3478: a4 = a4 << 0x10\n  3481: a5 = a5 << 0x18\n  3484: a4 = a4 | a5\n  3487: a2 = a2 | a4\n  3490: a3 = u8 [a0 + 0x5]\n  3493: a4 = u8 [a0 + 0x4]\n  3496: a5 = u8 [a0 + 0x6]\n  3499: a1 = u8 [a0 + 0x7]\n  3502: a3 = a3 << 0x8\n  3505: a3 = a3 | a4\n  3508: a5 = a5 << 0x10\n  3511: a1 = a1 << 0x18\n  3514: a1 = a1 | a5\n  3517: a1 = a1 | a3\n  3520: a1 = a1 << 0x20\n  3523: t1 = a1 | a2\n  3526: a1 = u8 [a0 + 0x19]\n  3529: a3 = u8 [a0 + 0x18]\n  3532: a4 = u8 [a0 + 0x1a]\n  3535: a5 = u8 [a0 + 0x1b]\n  3538: a1 = a1 << 0x8\n  3541: a1 = a1 | a3\n  3544: a4 = a4 << 0x10\n  3547: a5 = a5 << 0x18\n  3550: a4 = a4 | a5\n  3553: a1 = a1 | a4\n  3556: a3 = u8 [a0 + 0x1d]\n  3559: a4 = u8 [a0 + 0x1c]\n  3562: a5 = u8 [a0 + 0x1e]\n  3565: a2 = u8 [a0 + 0x1f]\n  3568: a3 = a3 << 0x8\n  3571: a3 = a3 | a4\n  3574: a5 = a5 << 0x10\n  3577: a2 = a2 << 0x18\n  3580: a2 = a2 | a5\n  3583: a2 = a2 | a3\n  3586: a2 = a2 << 0x20\n  3589: a3 = a2 | a1\n  3592: a1 = u8 [a0 + 0x9]\n  3595: a2 = u8 [a0 + 0x8]\n  3598: a4 = u8 [a0 + 0xa]\n  3601: a5 = u8 [a0 + 0xb]\n  3604: a1 = a1 << 0x8\n  3607: a1 = a1 | a2\n  3610: a4 = a4 << 0x10\n  3613: a5 = a5 << 0x18\n  3616: a4 = a4 | a5\n  3619: a1 = a1 | a4\n  3622: a2 = u8 [a0 + 0xd]\n  3625: a4 = u8 [a0 + 0xc]\n  3628: a5 = u8 [a0 + 0xe]\n  3631: a0 = u8 [a0 + 0xf]\n  3634: a2 = a2 << 0x8\n  3637: a2 = a2 | a4\n  3640: a5 = a5 << 0x10\n  3643: a0 = a0 << 0x18\n  3646: a0 = a0 | a5\n  3649: a0 = a0 | a2\n  3652: a0 = a0 << 0x20\n  3655: a0 = a0 | a1\n  3658: a1 = reverse a0\n  3660: a0 = reverse a3\n  3662: a2 = reverse t1\n  3664: a3 = reverse t0\n  3666: a2 = a2 | a3\n  3669: a3 = a0 | a1\n  3672: a3 = a3 | a2\n  3675: a3 = a3 >> 0x20\n  3678: a1 = a1 | a2\n  3681: a1 = a1 << 0x20\n  3684: a1 = a1 | a3\n  3687: jump @85 if a1 == 0\n      : @84 (gas: 1)\n  3690: jump @256\n      : @85 (gas: 8)\n  3693: a1 = u64 [s1 + 0x1c8]\n  3697: a1 = a1 << 0x20\n  3700: a1 = a1 >> 0x20\n  3703: u64 [s1 + 0x1c0] = a1\n  3707: i32 a0 = a0 + 0\n  3709: u64 [s1 + 0x1c8] = a0\n  3713: a1 = 0x20\n  3716: ra = 42, jump @0\n      : @86 [@dyn 21] (gas: 60)\n  3721: a1 = u64 [s1 + 0x1c0]\n  3725: a1 = reverse a1\n  3727: a2 = u64 [s1 + 0x1d0]\n  3731: a2 = reverse a2\n  3733: a3 = u64 [s1 + 0x1d8]\n  3737: a3 = reverse a3\n  3739: a4 = a3 >> 0x38\n  3742: u8 [a0 + 0x1f] = a4\n  3745: a4 = a3 >> 0x30\n  3748: u8 [a0 + 0x1e] = a4\n  3751: a4 = a3 >> 0x28\n  3754: u8 [a0 + 0x1d] = a4\n  3757: a4 = a3 >> 0x20\n  3760: u8 [a0 + 0x1c] = a4\n  3763: a4 = a3 >> 0x18\n  3766: u8 [a0 + 0x1b] = a4\n  3769: a4 = a3 >> 0x10\n  3772: u8 [a0 + 0x1a] = a4\n  3775: a4 = a3 >> 0x8\n  3778: u8 [a0 + 0x19] = a4\n  3781: u8 [a0 + 0x18] = a3\n  3784: u8 [a0 + 0x10] = a2\n  3787: u8 [a0 + 11] = 0\n  3790: u8 [a0 + 10] = 0\n  3793: u8 [a0 + 9] = 0\n  3796: u8 [a0 + 7] = 0\n  3799: u8 [a0 + 6] = 0\n  3802: u8 [a0 + 5] = 0\n  3805: u8 [a0 + 4] = 0\n  3808: u8 [a0 + 3] = 0\n  3811: u8 [a0 + 2] = 0\n  3814: u8 [a0 + 1] = 0\n  3817: u8 [a0 + 0] = 0\n  3819: a3 = a2 >> 0x38\n  3822: u8 [a0 + 0x17] = a3\n  3825: a3 = a2 >> 0x30\n  3828: u8 [a0 + 0x16] = a3\n  3831: a3 = a2 >> 0x28\n  3834: u8 [a0 + 0x15] = a3\n  3837: a3 = a2 >> 0x20\n  3840: u8 [a0 + 0x14] = a3\n  3843: a3 = a2 >> 0x18\n  3846: u8 [a0 + 0x13] = a3\n  3849: a3 = a2 >> 0x10\n  3852: u8 [a0 + 0x12] = a3\n  3855: a2 = a2 >> 0x8\n  3858: u8 [a0 + 0x11] = a2\n  3861: u8 [a0 + 0x8] = a1\n  3864: a2 = a1 >> 0x38\n  3867: u8 [a0 + 0xf] = a2\n  3870: a2 = a1 >> 0x30\n  3873: u8 [a0 + 0xe] = a2\n  3876: a2 = a1 >> 0x28\n  3879: u8 [a0 + 0xd] = a2\n  3882: a1 = a1 >> 0x20\n  3885: u8 [a0 + 0xc] = a1\n  3888: a1 = 0x20\n  3891: a0 = u64 [s1 + 0x1c8]\n  3895: ra = 0x30\n  3898: jump @0\n      : @87 (gas: 1)\n  3901: jump @89 if a0 == 3655634780\n      : @88 (gas: 1)\n  3908: jump @141\n      : @89 (gas: 11)\n  3911: a0 = sp + 0xffffffffffffffe0\n  3914: a0 = a0 & 0xffffffffffffffe0\n  3917: u64 [s1 + 0x1d0] = a0\n  3921: sp = a0\n  3923: u64 [a0 + 24] = 0\n  3926: u64 [a0 + 16] = 0\n  3929: u64 [a0 + 8] = 0\n  3932: u64 [a0 + 0] = 0\n  3934: i32 a0 = a0 + 0\n  3936: ecalli 16 // 'value_transferred'\n  3938: fallthrough\n      : @90 (gas: 9)\n  3939: a3 = u64 [s1 + 0x1d0]\n  3943: a0 = u64 [a3 + 0x10]\n  3946: a1 = u64 [a3 + 0x18]\n  3949: a2 = u64 [a3 + 0x8]\n  3952: a3 = u64 [a3]\n  3954: a1 = a1 | a2\n  3957: a0 = a0 | a3\n  3960: a0 = a0 | a1\n  3963: jump @92 if a0 == 0\n      : @91 (gas: 1)\n  3966: jump @361\n      : @92 (gas: 5)\n  3969: a0 = u64 [s1 + 0x1d8]\n  3973: a0 = i32 [a0]\n  3975: a2 = s1 + 0x7ff\n  3979: a2 = a2 + 0x159\n  3983: jump @94 if a0 >u 3\n      : @93 (gas: 1)\n  3987: jump @361\n      : @94 (gas: 31)\n  3990: u64 [a2 + 1216] = 0\n  3994: u64 [a2 + 1208] = 0\n  3998: u64 [a2 + 1200] = 0\n  4002: u64 [a2 + 1192] = 0x1\n  4007: u64 [a2 + 1248] = 0\n  4011: u64 [a2 + 1240] = 0\n  4015: u64 [a2 + 1232] = 0\n  4019: u64 [a2 + 1224] = 0\n  4023: u32 [a2 + 1256] = 0x20\n  4028: a0 = s1 + 0x1000\n  4032: i32 a1 = a0 + 0xfffffffffffffe00\n  4036: a0 = s1 + 0x1000\n  4040: i32 a3 = a0 + 0xfffffffffffffe20\n  4044: a0 = s1 + 0x1000\n  4048: i32 a4 = a0 + 0xfffffffffffffe40\n  4052: a2 = 0xffffffffffffffff\n  4055: a0 = 0\n  4057: ecalli 7 // 'get_storage'\n  4059: a1 = s1 + 0x7ff\n  4063: a1 = a1 + 0x159\n  4067: a0 = u64 [a1 + 0x4e0]\n  4071: u64 [s1 + 0x1c0] = a0\n  4075: a0 = u64 [a1 + 0x4d8]\n  4079: u64 [s1 + 0x1c8] = a0\n  4083: a0 = u64 [a1 + 0x4d0]\n  4087: u64 [s1 + 0x1d0] = a0\n  4091: a0 = u64 [a1 + 0x4c8]\n  4095: u64 [s1 + 0x1d8] = a0\n  4099: a0 = 0x40\n  4102: a1 = 0x20\n  4105: ra = 44, jump @0\n      : @95 [@dyn 22] (gas: 100)\n  4110: a1 = u8 [a0 + 0x11]\n  4113: a2 = u8 [a0 + 0x10]\n  4116: a3 = u8 [a0 + 0x12]\n  4119: a4 = u8 [a0 + 0x13]\n  4122: a1 = a1 << 0x8\n  4125: a1 = a1 | a2\n  4128: a3 = a3 << 0x10\n  4131: a4 = a4 << 0x18\n  4134: a3 = a3 | a4\n  4137: a1 = a1 | a3\n  4140: a2 = u8 [a0 + 0x15]\n  4143: a3 = u8 [a0 + 0x14]\n  4146: a4 = u8 [a0 + 0x16]\n  4149: a5 = u8 [a0 + 0x17]\n  4152: a2 = a2 << 0x8\n  4155: a2 = a2 | a3\n  4158: a4 = a4 << 0x10\n  4161: a5 = a5 << 0x18\n  4164: a4 = a4 | a5\n  4167: a2 = a2 | a4\n  4170: a2 = a2 << 0x20\n  4173: t0 = a2 | a1\n  4176: a2 = u8 [a0 + 0x1]\n  4179: a3 = u8 [a0]\n  4181: a4 = u8 [a0 + 0x2]\n  4184: a5 = u8 [a0 + 0x3]\n  4187: a2 = a2 << 0x8\n  4190: a2 = a2 | a3\n  4193: a4 = a4 << 0x10\n  4196: a5 = a5 << 0x18\n  4199: a4 = a4 | a5\n  4202: a2 = a2 | a4\n  4205: a3 = u8 [a0 + 0x5]\n  4208: a4 = u8 [a0 + 0x4]\n  4211: a5 = u8 [a0 + 0x6]\n  4214: a1 = u8 [a0 + 0x7]\n  4217: a3 = a3 << 0x8\n  4220: a3 = a3 | a4\n  4223: a5 = a5 << 0x10\n  4226: a1 = a1 << 0x18\n  4229: a1 = a1 | a5\n  4232: a1 = a1 | a3\n  4235: a1 = a1 << 0x20\n  4238: t1 = a1 | a2\n  4241: a1 = u8 [a0 + 0x19]\n  4244: a3 = u8 [a0 + 0x18]\n  4247: a4 = u8 [a0 + 0x1a]\n  4250: a5 = u8 [a0 + 0x1b]\n  4253: a1 = a1 << 0x8\n  4256: a1 = a1 | a3\n  4259: a4 = a4 << 0x10\n  4262: a5 = a5 << 0x18\n  4265: a4 = a4 | a5\n  4268: a1 = a1 | a4\n  4271: a3 = u8 [a0 + 0x1d]\n  4274: a4 = u8 [a0 + 0x1c]\n  4277: a5 = u8 [a0 + 0x1e]\n  4280: a2 = u8 [a0 + 0x1f]\n  4283: a3 = a3 << 0x8\n  4286: a3 = a3 | a4\n  4289: a5 = a5 << 0x10\n  4292: a2 = a2 << 0x18\n  4295: a2 = a2 | a5\n  4298: a2 = a2 | a3\n  4301: a2 = a2 << 0x20\n  4304: a3 = a2 | a1\n  4307: a1 = u8 [a0 + 0x9]\n  4310: a2 = u8 [a0 + 0x8]\n  4313: a4 = u8 [a0 + 0xa]\n  4316: a5 = u8 [a0 + 0xb]\n  4319: a1 = a1 << 0x8\n  4322: a1 = a1 | a2\n  4325: a4 = a4 << 0x10\n  4328: a5 = a5 << 0x18\n  4331: a4 = a4 | a5\n  4334: a1 = a1 | a4\n  4337: a2 = u8 [a0 + 0xd]\n  4340: a4 = u8 [a0 + 0xc]\n  4343: a5 = u8 [a0 + 0xe]\n  4346: a0 = u8 [a0 + 0xf]\n  4349: a2 = a2 << 0x8\n  4352: a2 = a2 | a4\n  4355: a5 = a5 << 0x10\n  4358: a0 = a0 << 0x18\n  4361: a0 = a0 | a5\n  4364: a0 = a0 | a2\n  4367: a0 = a0 << 0x20\n  4370: a0 = a0 | a1\n  4373: a1 = reverse a0\n  4375: a0 = reverse a3\n  4377: a2 = reverse t1\n  4379: a3 = reverse t0\n  4381: a2 = a2 | a3\n  4384: a3 = a0 | a1\n  4387: a3 = a3 | a2\n  4390: a3 = a3 >> 0x20\n  4393: a1 = a1 | a2\n  4396: a1 = a1 << 0x20\n  4399: a1 = a1 | a3\n  4402: jump @97 if a1 == 0\n      : @96 (gas: 1)\n  4405: jump @256\n      : @97 (gas: 4)\n  4408: i32 a0 = a0 + 0\n  4410: u64 [s1 + 0x1b8] = a0\n  4414: a1 = 0x20\n  4417: ra = 46, jump @0\n      : @98 [@dyn 23] (gas: 71)\n  4422: a1 = u64 [s1 + 0x1c0]\n  4426: a1 = reverse a1\n  4428: a2 = u64 [s1 + 0x1c8]\n  4432: a2 = reverse a2\n  4434: a3 = u64 [s1 + 0x1d0]\n  4438: a3 = reverse a3\n  4440: a4 = u64 [s1 + 0x1d8]\n  4444: a4 = reverse a4\n  4446: a5 = a4 >> 0x38\n  4449: u8 [a0 + 0x1f] = a5\n  4452: a5 = a4 >> 0x30\n  4455: u8 [a0 + 0x1e] = a5\n  4458: a5 = a4 >> 0x28\n  4461: u8 [a0 + 0x1d] = a5\n  4464: a5 = a4 >> 0x20\n  4467: u8 [a0 + 0x1c] = a5\n  4470: a5 = a4 >> 0x18\n  4473: u8 [a0 + 0x1b] = a5\n  4476: a5 = a4 >> 0x10\n  4479: u8 [a0 + 0x1a] = a5\n  4482: a5 = a4 >> 0x8\n  4485: u8 [a0 + 0x19] = a5\n  4488: u8 [a0 + 0x18] = a4\n  4491: u8 [a0 + 0x10] = a3\n  4494: a4 = a3 >> 0x38\n  4497: u8 [a0 + 0x17] = a4\n  4500: a4 = a3 >> 0x30\n  4503: u8 [a0 + 0x16] = a4\n  4506: a4 = a3 >> 0x28\n  4509: u8 [a0 + 0x15] = a4\n  4512: a4 = a3 >> 0x20\n  4515: u8 [a0 + 0x14] = a4\n  4518: a4 = a3 >> 0x18\n  4521: u8 [a0 + 0x13] = a4\n  4524: a4 = a3 >> 0x10\n  4527: u8 [a0 + 0x12] = a4\n  4530: a3 = a3 >> 0x8\n  4533: u8 [a0 + 0x11] = a3\n  4536: u8 [a0 + 0x8] = a2\n  4539: a3 = a2 >> 0x38\n  4542: u8 [a0 + 0xf] = a3\n  4545: a3 = a2 >> 0x30\n  4548: u8 [a0 + 0xe] = a3\n  4551: a3 = a2 >> 0x28\n  4554: u8 [a0 + 0xd] = a3\n  4557: a3 = a2 >> 0x20\n  4560: u8 [a0 + 0xc] = a3\n  4563: a3 = a2 >> 0x18\n  4566: u8 [a0 + 0xb] = a3\n  4569: a3 = a2 >> 0x10\n  4572: u8 [a0 + 0xa] = a3\n  4575: a2 = a2 >> 0x8\n  4578: u8 [a0 + 0x9] = a2\n  4581: u8 [a0] = a1\n  4583: a2 = a1 >> 0x38\n  4586: u8 [a0 + 0x7] = a2\n  4589: a2 = a1 >> 0x30\n  4592: u8 [a0 + 0x6] = a2\n  4595: a2 = a1 >> 0x28\n  4598: u8 [a0 + 0x5] = a2\n  4601: a2 = a1 >> 0x20\n  4604: u8 [a0 + 0x4] = a2\n  4607: a2 = a1 >> 0x18\n  4610: u8 [a0 + 0x3] = a2\n  4613: a2 = a1 >> 0x10\n  4616: u8 [a0 + 0x2] = a2\n  4619: a1 = a1 >> 0x8\n  4622: u8 [a0 + 0x1] = a1\n  4625: a1 = 0x20\n  4628: a0 = u64 [s1 + 0x1b8]\n  4632: ra = 48, jump @0\n      : @99 [@dyn 24] (gas: 5)\n  4637: i32 a1 = a0 + 0\n  4639: a2 = 0x20\n  4642: a0 = 0\n  4644: ecalli 13 // 'seal_return'\n  4646: fallthrough\n      : @100 (gas: 1)\n  4647: jump @102 if a0 == 3963147680\n      : @101 (gas: 1)\n  4654: jump @239\n      : @102 (gas: 11)\n  4657: a0 = sp + 0xffffffffffffffe0\n  4660: a0 = a0 & 0xffffffffffffffe0\n  4663: u64 [s1 + 0x1d0] = a0\n  4667: sp = a0\n  4669: u64 [a0 + 24] = 0\n  4672: u64 [a0 + 16] = 0\n  4675: u64 [a0 + 8] = 0\n  4678: u64 [a0 + 0] = 0\n  4680: i32 a0 = a0 + 0\n  4682: ecalli 16 // 'value_transferred'\n  4684: fallthrough\n      : @103 (gas: 9)\n  4685: a3 = u64 [s1 + 0x1d0]\n  4689: a0 = u64 [a3 + 0x10]\n  4692: a1 = u64 [a3 + 0x18]\n  4695: a2 = u64 [a3 + 0x8]\n  4698: a3 = u64 [a3]\n  4700: a1 = a1 | a2\n  4703: a0 = a0 | a3\n  4706: a0 = a0 | a1\n  4709: jump @105 if a0 == 0\n      : @104 (gas: 1)\n  4712: jump @361\n      : @105 (gas: 3)\n  4715: a0 = u64 [s1 + 0x1d8]\n  4719: a0 = i32 [a0]\n  4721: jump @107 if a0 >u 35\n      : @106 (gas: 1)\n  4725: jump @361\n      : @107 (gas: 61)\n  4728: a0 = s1 + 0x1000\n  4732: i32 a0 = a0 + 0xfffffffffffffde0\n  4736: a1 = 0x4\n  4739: ecalli 3 // 'call_data_load'\n  4741: a1 = s1 + 0x7ff\n  4745: a1 = a1 + 0x159\n  4749: a0 = u64 [a1 + 0x488]\n  4753: u64 [s1 + 0x1d8] = a0\n  4757: a0 = u64 [a1 + 0x490]\n  4761: u64 [s1 + 0x1c0] = a0\n  4765: a0 = u64 [a1 + 0x498]\n  4769: u64 [s1 + 0x1d0] = a0\n  4773: a0 = u64 [a1 + 0x4a0]\n  4777: u64 [s1 + 0x1c8] = a0\n  4781: u64 [a1 + 1216] = 0\n  4785: u64 [a1 + 1208] = 0\n  4789: u64 [a1 + 1200] = 0\n  4793: u64 [a1 + 1192] = 0x1\n  4798: u64 [a1 + 1248] = 0\n  4802: u64 [a1 + 1240] = 0\n  4806: u64 [a1 + 1232] = 0\n  4810: u64 [a1 + 1224] = 0\n  4814: u32 [a1 + 1256] = 0x20\n  4819: a0 = s1 + 0x1000\n  4823: i32 a1 = a0 + 0xfffffffffffffe00\n  4827: a0 = s1 + 0x1000\n  4831: i32 a3 = a0 + 0xfffffffffffffe20\n  4835: a0 = s1 + 0x1000\n  4839: i32 a4 = a0 + 0xfffffffffffffe40\n  4843: a2 = 0xffffffffffffffff\n  4846: a0 = 0\n  4848: ecalli 7 // 'get_storage'\n  4850: a4 = s1 + 0x7ff\n  4854: a4 = a4 + 0x159\n  4858: a0 = u64 [a4 + 0x4d0]\n  4862: a1 = u64 [a4 + 0x4c8]\n  4866: a2 = u64 [a4 + 0x4d8]\n  4870: a3 = u64 [a4 + 0x4e0]\n  4874: t0 = a4\n  4876: a5 = u64 [s1 + 0x1c0]\n  4880: a4 = a5 ^ a0\n  4883: a0 = a5 <u a0\n  4886: a5 = u64 [s1 + 0x1d8]\n  4890: a1 = a5 <u a1\n  4893: a1 = a0 if a4 != 0\n  4896: a4 = u64 [s1 + 0x1c8]\n  4900: a0 = a4 ^ a3\n  4903: a3 = a4 <u a3\n  4906: a5 = u64 [s1 + 0x1d0]\n  4910: a4 = a5 <u a2\n  4913: a4 = a3 if a0 != 0\n  4916: a2 = a2 ^ a5\n  4919: a0 = a0 | a2\n  4922: a1 = a4 if a0 != 0\n  4925: u64 [t0 + 416] = 0\n  4929: u64 [t0 + 408] = 0\n  4933: u64 [t0 + 0x188] = a1\n  4937: a0 = s1 + 0x7ff\n  4941: a0 = a0 + 0x2e1\n  4945: u64 [t0 + 400] = 0\n  4949: ra = 50, jump @464\n      : @108 [@dyn 25] (gas: 3)\n  4954: a1 = 0x20\n  4957: a0 = 0\n  4959: ra = 52, jump @0\n      : @109 [@dyn 26] (gas: 71)\n  4964: a1 = u64 [s1 + 0x1c8]\n  4968: a1 = reverse a1\n  4970: a2 = u64 [s1 + 0x1d0]\n  4974: a2 = reverse a2\n  4976: a3 = u64 [s1 + 0x1c0]\n  4980: a3 = reverse a3\n  4982: a4 = u64 [s1 + 0x1d8]\n  4986: a4 = reverse a4\n  4988: a5 = a4 >> 0x38\n  4991: u8 [a0 + 0x1f] = a5\n  4994: a5 = a4 >> 0x30\n  4997: u8 [a0 + 0x1e] = a5\n  5000: a5 = a4 >> 0x28\n  5003: u8 [a0 + 0x1d] = a5\n  5006: a5 = a4 >> 0x20\n  5009: u8 [a0 + 0x1c] = a5\n  5012: a5 = a4 >> 0x18\n  5015: u8 [a0 + 0x1b] = a5\n  5018: a5 = a4 >> 0x10\n  5021: u8 [a0 + 0x1a] = a5\n  5024: a5 = a4 >> 0x8\n  5027: u8 [a0 + 0x19] = a5\n  5030: u8 [a0 + 0x18] = a4\n  5033: a4 = a3 >> 0x38\n  5036: u8 [a0 + 0x17] = a4\n  5039: a4 = a3 >> 0x30\n  5042: u8 [a0 + 0x16] = a4\n  5045: a4 = a3 >> 0x28\n  5048: u8 [a0 + 0x15] = a4\n  5051: a4 = a3 >> 0x20\n  5054: u8 [a0 + 0x14] = a4\n  5057: a4 = a3 >> 0x18\n  5060: u8 [a0 + 0x13] = a4\n  5063: a4 = a3 >> 0x10\n  5066: u8 [a0 + 0x12] = a4\n  5069: a4 = a3 >> 0x8\n  5072: u8 [a0 + 0x11] = a4\n  5075: u8 [a0 + 0x10] = a3\n  5078: a3 = a2 >> 0x38\n  5081: u8 [a0 + 0xf] = a3\n  5084: a3 = a2 >> 0x30\n  5087: u8 [a0 + 0xe] = a3\n  5090: a3 = a2 >> 0x28\n  5093: u8 [a0 + 0xd] = a3\n  5096: a3 = a2 >> 0x20\n  5099: u8 [a0 + 0xc] = a3\n  5102: a3 = a2 >> 0x18\n  5105: u8 [a0 + 0xb] = a3\n  5108: a3 = a2 >> 0x10\n  5111: u8 [a0 + 0xa] = a3\n  5114: a3 = a2 >> 0x8\n  5117: u8 [a0 + 0x9] = a3\n  5120: u8 [a0 + 0x8] = a2\n  5123: a2 = a1 >> 0x38\n  5126: u8 [a0 + 0x7] = a2\n  5129: a2 = a1 >> 0x30\n  5132: u8 [a0 + 0x6] = a2\n  5135: a2 = a1 >> 0x28\n  5138: u8 [a0 + 0x5] = a2\n  5141: a2 = a1 >> 0x20\n  5144: u8 [a0 + 0x4] = a2\n  5147: a2 = a1 >> 0x18\n  5150: u8 [a0 + 0x3] = a2\n  5153: a2 = a1 >> 0x10\n  5156: u8 [a0 + 0x2] = a2\n  5159: a2 = a1 >> 0x8\n  5162: u8 [a0 + 0x1] = a2\n  5165: u8 [a0] = a1\n  5167: a0 = 0x20\n  5170: a1 = 0x20\n  5173: ra = 54, jump @0\n      : @110 [@dyn 27] (gas: 35)\n  5178: u8 [a0 + 31] = 0x2\n  5182: u8 [a0 + 30] = 0\n  5185: u8 [a0 + 29] = 0\n  5188: u8 [a0 + 28] = 0\n  5191: u8 [a0 + 27] = 0\n  5194: u8 [a0 + 26] = 0\n  5197: u8 [a0 + 25] = 0\n  5200: u8 [a0 + 24] = 0\n  5203: u8 [a0 + 23] = 0\n  5206: u8 [a0 + 22] = 0\n  5209: u8 [a0 + 21] = 0\n  5212: u8 [a0 + 20] = 0\n  5215: u8 [a0 + 19] = 0\n  5218: u8 [a0 + 18] = 0\n  5221: u8 [a0 + 17] = 0\n  5224: u8 [a0 + 16] = 0\n  5227: u8 [a0 + 15] = 0\n  5230: u8 [a0 + 14] = 0\n  5233: u8 [a0 + 13] = 0\n  5236: u8 [a0 + 12] = 0\n  5239: u8 [a0 + 11] = 0\n  5242: u8 [a0 + 10] = 0\n  5245: u8 [a0 + 9] = 0\n  5248: u8 [a0 + 8] = 0\n  5251: u8 [a0 + 7] = 0\n  5254: u8 [a0 + 6] = 0\n  5257: u8 [a0 + 5] = 0\n  5260: u8 [a0 + 4] = 0\n  5263: u8 [a0 + 3] = 0\n  5266: u8 [a0 + 2] = 0\n  5269: u8 [a0 + 1] = 0\n  5272: u8 [a0 + 0] = 0\n  5274: a1 = 0x40\n  5277: a0 = 0\n  5279: ra = 56, jump @0\n      : @111 [@dyn 28] (gas: 270)\n  5284: a1 = sp + 0xffffffffffffffe0\n  5287: a1 = a1 & 0xffffffffffffffe0\n  5290: u64 [s1 + 0x1d8] = a1\n  5294: sp = a1\n  5296: i32 a0 = a0 + 0\n  5298: i32 a2 = a1 + 0\n  5300: a1 = 0x40\n  5303: ecalli 8 // 'hash_keccak_256'\n  5305: a3 = u64 [s1 + 0x1d8]\n  5309: a0 = u64 [a3 + 0x18]\n  5312: a1 = u64 [a3 + 0x10]\n  5315: a2 = u64 [a3 + 0x8]\n  5318: a3 = u64 [a3]\n  5320: a5 = reverse a0\n  5322: u64 [s1 + 0x1d0] = a5\n  5326: a4 = reverse a1\n  5328: u64 [s1 + 0x1c8] = a4\n  5332: a2 = reverse a2\n  5334: u64 [s1 + 0x1c0] = a2\n  5338: a0 = reverse a3\n  5340: u64 [s1 + 0x1d8] = a0\n  5344: a1 = s1 + 0x7ff\n  5348: a1 = a1 + 0x159\n  5352: u64 [a1 + 0x4c0] = a0\n  5356: u64 [a1 + 0x4b8] = a2\n  5360: u64 [a1 + 0x4b0] = a4\n  5364: u64 [a1 + 0x4a8] = a5\n  5368: u64 [a1 + 1248] = 0\n  5372: u64 [a1 + 1240] = 0\n  5376: u64 [a1 + 1232] = 0\n  5380: u64 [a1 + 1224] = 0\n  5384: u32 [a1 + 1256] = 0x20\n  5389: a0 = s1 + 0x1000\n  5393: i32 a1 = a0 + 0xfffffffffffffe00\n  5397: a0 = s1 + 0x1000\n  5401: i32 a3 = a0 + 0xfffffffffffffe20\n  5405: a0 = s1 + 0x1000\n  5409: i32 a4 = a0 + 0xfffffffffffffe40\n  5413: a2 = 0xffffffffffffffff\n  5416: a0 = 0\n  5418: ecalli 7 // 'get_storage'\n  5420: a1 = u64 [s1 + 0x1d0]\n  5424: a0 = a1 + 0x2\n  5427: a1 = a0 <u a1\n  5430: a3 = u64 [s1 + 0x1c8]\n  5434: a2 = a3 + a1\n  5437: a3 = a2 <u a3\n  5440: a3 = a1 if a1 == 0\n  5443: a1 = u64 [s1 + 0x1c0]\n  5447: a3 = a3 + a1\n  5450: a1 = a3 <u a1\n  5453: a4 = u64 [s1 + 0x1d8]\n  5457: a1 = a1 + a4\n  5460: a4 = s1 + 0x7ff\n  5464: a4 = a4 + 0x159\n  5468: u64 [a4 + 0x4c0] = a1\n  5472: u64 [a4 + 0x4b8] = a3\n  5476: a1 = u64 [a4 + 0x4c8]\n  5480: u64 [s1 + 0x1b8] = a1\n  5484: u64 [a4 + 0x4b0] = a2\n  5488: a1 = u64 [a4 + 0x4d0]\n  5492: u64 [s1 + 0x1b0] = a1\n  5496: u64 [a4 + 0x4a8] = a0\n  5500: a0 = u32 [a4 + 0x4d8]\n  5504: u64 [s1 + 0x1a8] = a0\n  5508: u64 [a4 + 1248] = 0\n  5512: u64 [a4 + 1240] = 0\n  5516: u64 [a4 + 1232] = 0\n  5520: u64 [a4 + 1224] = 0\n  5524: u32 [a4 + 1256] = 0x20\n  5529: a0 = s1 + 0x1000\n  5533: i32 a1 = a0 + 0xfffffffffffffe00\n  5537: a0 = s1 + 0x1000\n  5541: i32 a3 = a0 + 0xfffffffffffffe20\n  5545: a0 = s1 + 0x1000\n  5549: i32 a4 = a0 + 0xfffffffffffffe40\n  5553: a2 = 0xffffffffffffffff\n  5556: a0 = 0\n  5558: ecalli 7 // 'get_storage'\n  5560: a1 = u64 [s1 + 0x1d0]\n  5564: a0 = a1 + 0x3\n  5567: a1 = a0 <u a1\n  5570: a3 = u64 [s1 + 0x1c8]\n  5574: a2 = a3 + a1\n  5577: a3 = a2 <u a3\n  5580: a3 = a1 if a1 == 0\n  5583: a1 = u64 [s1 + 0x1c0]\n  5587: a3 = a3 + a1\n  5590: a1 = a3 <u a1\n  5593: a4 = u64 [s1 + 0x1d8]\n  5597: a1 = a1 + a4\n  5600: a4 = s1 + 0x7ff\n  5604: a4 = a4 + 0x159\n  5608: u64 [a4 + 0x4c0] = a1\n  5612: a1 = u64 [a4 + 0x4c8]\n  5616: u64 [s1 + 0x1a0] = a1\n  5620: u64 [a4 + 0x4b8] = a3\n  5624: a1 = u64 [a4 + 0x4d0]\n  5628: u64 [s1 + 0x198] = a1\n  5632: u64 [a4 + 0x4b0] = a2\n  5636: a1 = u64 [a4 + 0x4d8]\n  5640: u64 [s1 + 0x190] = a1\n  5644: u64 [a4 + 0x4a8] = a0\n  5648: a0 = u64 [a4 + 0x4e0]\n  5652: u64 [s1 + 0x188] = a0\n  5656: u64 [a4 + 1248] = 0\n  5660: u64 [a4 + 1240] = 0\n  5664: u64 [a4 + 1232] = 0\n  5668: u64 [a4 + 1224] = 0\n  5672: u32 [a4 + 1256] = 0x20\n  5677: a0 = s1 + 0x1000\n  5681: i32 a1 = a0 + 0xfffffffffffffe00\n  5685: a0 = s1 + 0x1000\n  5689: i32 a3 = a0 + 0xfffffffffffffe20\n  5693: a0 = s1 + 0x1000\n  5697: i32 a4 = a0 + 0xfffffffffffffe40\n  5701: a2 = 0xffffffffffffffff\n  5704: a0 = 0\n  5706: ecalli 7 // 'get_storage'\n  5708: a1 = u64 [s1 + 0x1d0]\n  5712: a0 = a1 + 0x4\n  5715: a1 = a0 <u a1\n  5718: a3 = u64 [s1 + 0x1c8]\n  5722: a2 = a3 + a1\n  5725: a3 = a2 <u a3\n  5728: a3 = a1 if a1 == 0\n  5731: a1 = u64 [s1 + 0x1c0]\n  5735: a3 = a3 + a1\n  5738: a1 = a3 <u a1\n  5741: a4 = u64 [s1 + 0x1d8]\n  5745: a1 = a1 + a4\n  5748: a4 = s1 + 0x7ff\n  5752: a4 = a4 + 0x159\n  5756: u64 [a4 + 0x4c0] = a1\n  5760: a1 = u64 [a4 + 0x4c8]\n  5764: u64 [s1 + 0x180] = a1\n  5768: u64 [a4 + 0x4b8] = a3\n  5772: a1 = u64 [a4 + 0x4d0]\n  5776: u64 [s1 + 0x178] = a1\n  5780: u64 [a4 + 0x4b0] = a2\n  5784: a1 = u64 [a4 + 0x4d8]\n  5788: u64 [s1 + 0x170] = a1\n  5792: u64 [a4 + 0x4a8] = a0\n  5796: a0 = u64 [a4 + 0x4e0]\n  5800: u64 [s1 + 0x168] = a0\n  5804: u64 [a4 + 1248] = 0\n  5808: u64 [a4 + 1240] = 0\n  5812: u64 [a4 + 1232] = 0\n  5816: u64 [a4 + 1224] = 0\n  5820: u32 [a4 + 1256] = 0x20\n  5825: a0 = s1 + 0x1000\n  5829: i32 a1 = a0 + 0xfffffffffffffe00\n  5833: a0 = s1 + 0x1000\n  5837: i32 a3 = a0 + 0xfffffffffffffe20\n  5841: a0 = s1 + 0x1000\n  5845: i32 a4 = a0 + 0xfffffffffffffe40\n  5849: a2 = 0xffffffffffffffff\n  5852: a0 = 0\n  5854: ecalli 7 // 'get_storage'\n  5856: a1 = u64 [s1 + 0x1d0]\n  5860: a0 = a1 + 0x5\n  5863: a1 = a0 <u a1\n  5866: a3 = u64 [s1 + 0x1c8]\n  5870: a2 = a3 + a1\n  5873: a3 = a2 <u a3\n  5876: a3 = a1 if a1 == 0\n  5879: a1 = u64 [s1 + 0x1c0]\n  5883: a3 = a3 + a1\n  5886: a1 = a3 <u a1\n  5889: a4 = u64 [s1 + 0x1d8]\n  5893: a1 = a1 + a4\n  5896: a4 = s1 + 0x7ff\n  5900: a4 = a4 + 0x159\n  5904: u64 [a4 + 0x4c0] = a1\n  5908: a1 = u64 [a4 + 0x4c8]\n  5912: u64 [s1 + 0x160] = a1\n  5916: u64 [a4 + 0x4b8] = a3\n  5920: a1 = u64 [a4 + 0x4d0]\n  5924: u64 [s1 + 0x158] = a1\n  5928: u64 [a4 + 0x4b0] = a2\n  5932: a1 = u64 [a4 + 0x4d8]\n  5936: u64 [s1 + 0x150] = a1\n  5940: u64 [a4 + 0x4a8] = a0\n  5944: a0 = u64 [a4 + 0x4e0]\n  5948: u64 [s1 + 0x148] = a0\n  5952: u64 [a4 + 1248] = 0\n  5956: u64 [a4 + 1240] = 0\n  5960: u64 [a4 + 1232] = 0\n  5964: u64 [a4 + 1224] = 0\n  5968: u32 [a4 + 1256] = 0x20\n  5973: a0 = s1 + 0x1000\n  5977: i32 a1 = a0 + 0xfffffffffffffe00\n  5981: a0 = s1 + 0x1000\n  5985: i32 a3 = a0 + 0xfffffffffffffe20\n  5989: a0 = s1 + 0x1000\n  5993: i32 a4 = a0 + 0xfffffffffffffe40\n  5997: a2 = 0xffffffffffffffff\n  6000: a0 = 0\n  6002: ecalli 7 // 'get_storage'\n  6004: a1 = u64 [s1 + 0x1d0]\n  6008: a0 = a1 + 0x6\n  6011: a1 = a0 <u a1\n  6014: a3 = u64 [s1 + 0x1c8]\n  6018: a2 = a3 + a1\n  6021: a3 = a2 <u a3\n  6024: a3 = a1 if a1 == 0\n  6027: a1 = u64 [s1 + 0x1c0]\n  6031: a3 = a3 + a1\n  6034: a1 = a3 <u a1\n  6037: a4 = u64 [s1 + 0x1d8]\n  6041: a1 = a1 + a4\n  6044: a4 = s1 + 0x7ff\n  6048: a4 = a4 + 0x159\n  6052: u64 [a4 + 0x4c0] = a1\n  6056: u64 [a4 + 0x4b8] = a3\n  6060: a1 = u64 [a4 + 0x4c8]\n  6064: u64 [s1 + 0x140] = a1\n  6068: u64 [a4 + 0x4b0] = a2\n  6072: a1 = u64 [a4 + 0x4d0]\n  6076: u64 [s1 + 0x138] = a1\n  6080: u64 [a4 + 0x4a8] = a0\n  6084: a0 = u64 [a4 + 0x4d8]\n  6088: u64 [s1 + 0x130] = a0\n  6092: u32 [a4 + 1256] = 0x20\n  6097: a0 = u64 [a4 + 0x4e0]\n  6101: u64 [s1 + 0x128] = a0\n  6105: u64 [a4 + 1248] = 0\n  6109: u64 [a4 + 1240] = 0\n  6113: u64 [a4 + 1232] = 0\n  6117: u64 [a4 + 1224] = 0\n  6121: a0 = s1 + 0x1000\n  6125: i32 a1 = a0 + 0xfffffffffffffe00\n  6129: a0 = s1 + 0x1000\n  6133: i32 a3 = a0 + 0xfffffffffffffe20\n  6137: a0 = s1 + 0x1000\n  6141: i32 a4 = a0 + 0xfffffffffffffe40\n  6145: a2 = 0xffffffffffffffff\n  6148: a0 = 0\n  6150: ecalli 7 // 'get_storage'\n  6152: a5 = s1 + 0x7ff\n  6156: a5 = a5 + 0x159\n  6160: a0 = u64 [a5 + 0x4c8]\n  6164: u64 [s1 + 0x120] = a0\n  6168: a0 = u64 [a5 + 0x4d0]\n  6172: u64 [s1 + 0x118] = a0\n  6176: a0 = u64 [a5 + 0x4d8]\n  6180: u64 [s1 + 0x110] = a0\n  6184: a0 = u64 [a5 + 0x4e0]\n  6188: u64 [s1 + 0x108] = a0\n  6192: a2 = u64 [s1 + 0x1d0]\n  6196: a2 = a2 + 0x1\n  6199: a0 = a2 <u 0x1\n  6202: a1 = u64 [s1 + 0x1c8]\n  6206: a0 = a0 + a1\n  6209: a1 = a2 | a0\n  6212: a1 = a1 <u 0x1\n  6215: a3 = u64 [s1 + 0x1c0]\n  6219: a1 = a1 + a3\n  6222: a3 = a1 <u a3\n  6225: a4 = u64 [s1 + 0x1d8]\n  6229: a3 = a3 + a4\n  6232: u64 [a5 + 0x160] = a3\n  6236: u64 [a5 + 0x158] = a1\n  6240: u64 [a5 + 0x150] = a0\n  6244: a0 = s1 + 0x7ff\n  6248: a0 = a0 + 0x2c1\n  6252: a1 = s1 + 0x7ff\n  6256: a1 = a1 + 0x2a1\n  6260: u64 [a5 + 0x148] = a2\n  6264: ra = 58, jump @403\n      : @112 [@dyn 29] (gas: 13)\n  6269: a1 = s1 + 0x7ff\n  6273: a1 = a1 + 0x159\n  6277: a0 = u64 [a1 + 0x168]\n  6281: u64 [s1 + 0x1d0] = a0\n  6285: a0 = u64 [a1 + 0x170]\n  6289: u64 [s1 + 0x1c8] = a0\n  6293: a0 = u64 [a1 + 0x178]\n  6297: u64 [s1 + 0x1c0] = a0\n  6301: a0 = u64 [a1 + 0x180]\n  6305: u64 [s1 + 0x100] = a0\n  6309: a0 = 0x40\n  6312: a1 = 0x20\n  6315: ra = 60, jump @0\n      : @113 [@dyn 30] (gas: 181)\n  6320: a1 = u8 [a0 + 0x1]\n  6323: a2 = u8 [a0]\n  6325: a3 = u8 [a0 + 0x2]\n  6328: a4 = u8 [a0 + 0x3]\n  6331: a1 = a1 << 0x8\n  6334: a1 = a1 | a2\n  6337: a3 = a3 << 0x10\n  6340: a4 = a4 << 0x18\n  6343: a3 = a3 | a4\n  6346: a1 = a1 | a3\n  6349: a2 = u8 [a0 + 0x5]\n  6352: a3 = u8 [a0 + 0x4]\n  6355: a4 = u8 [a0 + 0x6]\n  6358: a5 = u8 [a0 + 0x7]\n  6361: a2 = a2 << 0x8\n  6364: a2 = a2 | a3\n  6367: a4 = a4 << 0x10\n  6370: a5 = a5 << 0x18\n  6373: a4 = a4 | a5\n  6376: a2 = a2 | a4\n  6379: a2 = a2 << 0x20\n  6382: t0 = a2 | a1\n  6385: a2 = u8 [a0 + 0x9]\n  6388: a3 = u8 [a0 + 0x8]\n  6391: a4 = u8 [a0 + 0xa]\n  6394: a5 = u8 [a0 + 0xb]\n  6397: a2 = a2 << 0x8\n  6400: a2 = a2 | a3\n  6403: a4 = a4 << 0x10\n  6406: a5 = a5 << 0x18\n  6409: a4 = a4 | a5\n  6412: a2 = a2 | a4\n  6415: a3 = u8 [a0 + 0xd]\n  6418: a4 = u8 [a0 + 0xc]\n  6421: a5 = u8 [a0 + 0xe]\n  6424: a1 = u8 [a0 + 0xf]\n  6427: a3 = a3 << 0x8\n  6430: a3 = a3 | a4\n  6433: a5 = a5 << 0x10\n  6436: a1 = a1 << 0x18\n  6439: a1 = a1 | a5\n  6442: a1 = a1 | a3\n  6445: a1 = a1 << 0x20\n  6448: t1 = a1 | a2\n  6451: a1 = u8 [a0 + 0x11]\n  6454: a3 = u8 [a0 + 0x10]\n  6457: a4 = u8 [a0 + 0x12]\n  6460: a5 = u8 [a0 + 0x13]\n  6463: a1 = a1 << 0x8\n  6466: a1 = a1 | a3\n  6469: a4 = a4 << 0x10\n  6472: a5 = a5 << 0x18\n  6475: a4 = a4 | a5\n  6478: a1 = a1 | a4\n  6481: a3 = u8 [a0 + 0x15]\n  6484: a4 = u8 [a0 + 0x14]\n  6487: a5 = u8 [a0 + 0x16]\n  6490: a2 = u8 [a0 + 0x17]\n  6493: a3 = a3 << 0x8\n  6496: a3 = a3 | a4\n  6499: a5 = a5 << 0x10\n  6502: a2 = a2 << 0x18\n  6505: a2 = a2 | a5\n  6508: a2 = a2 | a3\n  6511: a2 = a2 << 0x20\n  6514: a3 = a2 | a1\n  6517: a1 = u8 [a0 + 0x19]\n  6520: a2 = u8 [a0 + 0x18]\n  6523: a4 = u8 [a0 + 0x1a]\n  6526: a5 = u8 [a0 + 0x1b]\n  6529: a1 = a1 << 0x8\n  6532: a1 = a1 | a2\n  6535: a4 = a4 << 0x10\n  6538: a5 = a5 << 0x18\n  6541: a4 = a4 | a5\n  6544: a1 = a1 | a4\n  6547: a2 = u8 [a0 + 0x1d]\n  6550: a4 = u8 [a0 + 0x1c]\n  6553: a5 = u8 [a0 + 0x1e]\n  6556: a0 = u8 [a0 + 0x1f]\n  6559: a2 = a2 << 0x8\n  6562: a2 = a2 | a4\n  6565: a5 = a5 << 0x10\n  6568: a0 = a0 << 0x18\n  6571: a0 = a0 | a5\n  6574: a0 = a0 | a2\n  6577: a0 = a0 << 0x20\n  6580: a0 = a0 | a1\n  6583: t2 = reverse a0\n  6585: u64 [s1 + 0xe8] = t2\n  6589: a3 = reverse a3\n  6591: u64 [s1 + 0xf0] = a3\n  6595: a2 = reverse t1\n  6597: u64 [s1 + 0xf8] = a2\n  6601: a4 = reverse t0\n  6603: u64 [s1 + 0x1d8] = a4\n  6607: sp = sp + 0xffffffffffffffe8\n  6610: a0 = s1 + 0x7ff\n  6614: a0 = a0 + 0x181\n  6618: u64 [sp + 0x10] = a0\n  6621: a0 = s1 + 0x7ff\n  6625: a0 = a0 + 0x1a1\n  6629: u64 [sp + 0x8] = a0\n  6632: a0 = s1 + 0x7ff\n  6636: a0 = a0 + 0x1c1\n  6640: u64 [sp] = a0\n  6642: a0 = s1 + 0x7ff\n  6646: a0 = a0 + 0x159\n  6650: a1 = u64 [s1 + 0x108]\n  6654: u64 [a0 + 0x40] = a1\n  6657: a1 = u64 [s1 + 0x110]\n  6661: u64 [a0 + 0x38] = a1\n  6664: a1 = u64 [s1 + 0x118]\n  6668: u64 [a0 + 0x30] = a1\n  6671: a1 = u64 [s1 + 0x120]\n  6675: u64 [a0 + 0x28] = a1\n  6678: a1 = u64 [s1 + 0x128]\n  6682: u64 [a0 + 0x60] = a1\n  6685: a1 = u64 [s1 + 0x130]\n  6689: u64 [a0 + 0x58] = a1\n  6692: a1 = u64 [s1 + 0x138]\n  6696: u64 [a0 + 0x50] = a1\n  6699: a1 = u64 [s1 + 0x140]\n  6703: u64 [a0 + 0x48] = a1\n  6706: a1 = u64 [s1 + 0x148]\n  6710: u64 [a0 + 0x80] = a1\n  6714: a1 = u64 [s1 + 0x150]\n  6718: u64 [a0 + 0x78] = a1\n  6721: a1 = u64 [s1 + 0x158]\n  6725: u64 [a0 + 0x70] = a1\n  6728: a1 = u64 [s1 + 0x160]\n  6732: u64 [a0 + 0x68] = a1\n  6735: a1 = u64 [s1 + 0x168]\n  6739: u64 [a0 + 0xa0] = a1\n  6743: a1 = u64 [s1 + 0x170]\n  6747: u64 [a0 + 0x98] = a1\n  6751: a1 = u64 [s1 + 0x178]\n  6755: u64 [a0 + 0x90] = a1\n  6759: a1 = u64 [s1 + 0x180]\n  6763: u64 [a0 + 0x88] = a1\n  6767: a1 = u64 [s1 + 0x188]\n  6771: u64 [a0 + 0xc0] = a1\n  6775: a1 = u64 [s1 + 0x190]\n  6779: u64 [a0 + 0xb8] = a1\n  6783: a1 = u64 [s1 + 0x198]\n  6787: u64 [a0 + 0xb0] = a1\n  6791: a1 = u64 [s1 + 0x1a0]\n  6795: u64 [a0 + 0xa8] = a1\n  6799: a1 = u64 [s1 + 0x100]\n  6803: u64 [a0 + 0xe0] = a1\n  6807: a1 = u64 [s1 + 0x1c0]\n  6811: u64 [a0 + 0xd8] = a1\n  6815: a1 = u64 [s1 + 0x1c8]\n  6819: u64 [a0 + 0xd0] = a1\n  6823: a1 = u64 [s1 + 0x1d0]\n  6827: u64 [a0 + 0xc8] = a1\n  6831: u64 [a0 + 256] = 0\n  6835: a1 = u64 [s1 + 0x1a8]\n  6839: u64 [a0 + 0xf8] = a1\n  6843: a1 = u64 [s1 + 0x1b0]\n  6847: u64 [a0 + 0xf0] = a1\n  6851: a1 = u64 [s1 + 0x1b8]\n  6855: u64 [a0 + 0xe8] = a1\n  6859: u64 [a0 + 0x120] = a4\n  6863: u64 [a0 + 0x118] = a2\n  6867: u64 [a0 + 0x110] = a3\n  6871: t0 = a0\n  6873: a0 = s1 + 0x7ff\n  6877: a0 = a0 + 0x281\n  6881: a1 = s1 + 0x7ff\n  6885: a1 = a1 + 0x261\n  6889: a2 = s1 + 0x7ff\n  6893: a2 = a2 + 0x241\n  6897: a3 = s1 + 0x7ff\n  6901: a3 = a3 + 0x221\n  6905: a4 = s1 + 0x7ff\n  6909: a4 = a4 + 0x201\n  6913: a5 = s1 + 0x7ff\n  6917: a5 = a5 + 0x1e1\n  6921: u64 [t0 + 0x108] = t2\n  6925: ra = 62, jump @447\n      : @114 [@dyn 31] (gas: 13)\n  6930: a4 = u64 [s1 + 0xf0]\n  6934: a2 = u64 [s1 + 0xe8]\n  6938: sp = sp + 0x18\n  6941: a0 = u64 [s1 + 0x1d8]\n  6945: a0 = a0 | a4\n  6948: a3 = u64 [s1 + 0xf8]\n  6952: a1 = a2 | a3\n  6955: a1 = a1 | a0\n  6958: a1 = a1 >> 0x20\n  6961: a0 = a0 | a3\n  6964: a0 = a0 << 0x20\n  6967: a0 = a0 | a1\n  6970: jump @116 if a0 == 0\n      : @115 (gas: 1)\n  6973: jump @256\n      : @116 (gas: 9)\n  6976: t0 = a3\n  6978: a1 = s1 + 0x7ff\n  6982: a1 = a1 + 0x159\n  6986: a0 = u64 [a1 + 0x130]\n  6990: a3 = u64 [a1 + 0x140]\n  6994: u64 [s1 + 0x1d0] = a3\n  6998: t1 = u64 [a1 + 0x128]\n  7002: a3 = u64 [a1 + 0x138]\n  7006: jump @254\n      : @117 (gas: 11)\n  7009: a0 = sp + 0xffffffffffffffe0\n  7012: a0 = a0 & 0xffffffffffffffe0\n  7015: u64 [s1 + 0x1d0] = a0\n  7019: sp = a0\n  7021: u64 [a0 + 24] = 0\n  7024: u64 [a0 + 16] = 0\n  7027: u64 [a0 + 8] = 0\n  7030: u64 [a0 + 0] = 0\n  7032: i32 a0 = a0 + 0\n  7034: ecalli 16 // 'value_transferred'\n  7036: fallthrough\n      : @118 (gas: 9)\n  7037: a3 = u64 [s1 + 0x1d0]\n  7041: a0 = u64 [a3 + 0x10]\n  7044: a1 = u64 [a3 + 0x18]\n  7047: a2 = u64 [a3 + 0x8]\n  7050: a3 = u64 [a3]\n  7052: a1 = a1 | a2\n  7055: a0 = a0 | a3\n  7058: a0 = a0 | a1\n  7061: jump @120 if a0 == 0\n      : @119 (gas: 1)\n  7064: jump @361\n      : @120 (gas: 5)\n  7067: a0 = u64 [s1 + 0x1d8]\n  7071: a0 = i32 [a0]\n  7073: a2 = s1 + 0x7ff\n  7077: a2 = a2 + 0x159\n  7081: jump @122 if a0 >u 3\n      : @121 (gas: 1)\n  7085: jump @361\n      : @122 (gas: 30)\n  7088: u64 [a2 + 1216] = 0\n  7092: u64 [a2 + 1208] = 0\n  7096: u64 [a2 + 1200] = 0\n  7100: u64 [a2 + 1192] = 0\n  7104: u64 [a2 + 1248] = 0\n  7108: u64 [a2 + 1240] = 0\n  7112: u64 [a2 + 1232] = 0\n  7116: u64 [a2 + 1224] = 0\n  7120: u32 [a2 + 1256] = 0x20\n  7125: a0 = s1 + 0x1000\n  7129: i32 a1 = a0 + 0xfffffffffffffe00\n  7133: a0 = s1 + 0x1000\n  7137: i32 a3 = a0 + 0xfffffffffffffe20\n  7141: a0 = s1 + 0x1000\n  7145: i32 a4 = a0 + 0xfffffffffffffe40\n  7149: a2 = 0xffffffffffffffff\n  7152: a0 = 0\n  7154: ecalli 7 // 'get_storage'\n  7156: a1 = s1 + 0x7ff\n  7160: a1 = a1 + 0x159\n  7164: a0 = u64 [a1 + 0x4d0]\n  7168: u64 [s1 + 0x1d0] = a0\n  7172: a0 = u64 [a1 + 0x4c8]\n  7176: u64 [s1 + 0x1c8] = a0\n  7180: a0 = u32 [a1 + 0x4d8]\n  7184: u64 [s1 + 0x1c0] = a0\n  7188: a0 = s1 + 0x1000\n  7192: i32 a0 = a0 + 0xfffffffffffffb40\n  7196: ecalli 5 // 'caller'\n  7198: fallthrough\n      : @123 (gas: 27)\n  7199: a1 = s1 + 0x7ff\n  7203: a1 = a1 + 0x159\n  7207: a0 = u64 [a1 + 0x1f0]\n  7211: a2 = u64 [a1 + 0x1e8]\n  7215: a4 = u32 [a1 + 0x1f8]\n  7219: u64 [s1 + 0x1b0] = a0\n  7223: a0 = reverse a0\n  7225: a1 = a0 >> 0x20\n  7228: u64 [s1 + 0x1d8] = a2\n  7232: a2 = reverse a2\n  7234: a3 = a2 << 0x20\n  7237: a1 = a1 | a3\n  7240: a0 = a0 << 0x20\n  7243: u64 [s1 + 0x1a8] = a4\n  7247: a3 = reverse a4\n  7249: a3 = a3 >> 0x20\n  7252: a0 = a0 | a3\n  7255: a2 = a2 >> 0x20\n  7258: a3 = u64 [s1 + 0x1c0]\n  7262: a2 = a2 ^ a3\n  7265: a3 = u64 [s1 + 0x1c8]\n  7269: a0 = a0 ^ a3\n  7272: a0 = a0 | a2\n  7275: a2 = u64 [s1 + 0x1d0]\n  7279: a1 = a1 ^ a2\n  7282: a0 = a0 | a1\n  7285: jump @125 if a0 == 0\n      : @124 (gas: 1)\n  7288: jump @367\n      : @125 (gas: 7)\n  7291: a0 = sp + 0xffffffffffffffe0\n  7294: a0 = a0 & 0xffffffffffffffe0\n  7297: u64 [s1 + 0x1d0] = a0\n  7301: sp = a0\n  7303: i32 a0 = a0 + 0\n  7305: ecalli 0 // 'balance'\n  7306: fallthrough\n      : @126 (gas: 13)\n  7307: a2 = u64 [s1 + 0x1d0]\n  7311: a1 = u64 [a2 + 0x10]\n  7314: a0 = u64 [a2 + 0x18]\n  7317: a3 = u64 [a2 + 0x8]\n  7320: a2 = u64 [a2]\n  7322: u64 [s1 + 0x1b8] = a0\n  7326: u64 [s1 + 0x1c0] = a3\n  7330: a0 = a0 | a3\n  7333: u64 [s1 + 0x1d0] = a1\n  7337: u64 [s1 + 0x1c8] = a2\n  7341: a1 = a1 | a2\n  7344: a0 = a0 | a1\n  7347: jump @128 if a0 != 0\n      : @127 (gas: 1)\n  7350: jump @368\n      : @128 (gas: 21)\n  7353: ecalli 10 // 'ref_time_left'\n  7355: u64 [s1 + 0x1a0] = a0\n  7359: a1 = s1 + 0x7ff\n  7363: a1 = a1 + 0x159\n  7367: a0 = u64 [s1 + 0x1b0]\n  7371: u64 [a1 + 0x210] = a0\n  7375: a0 = u64 [s1 + 0x1d8]\n  7379: u64 [a1 + 0x208] = a0\n  7383: a0 = u64 [s1 + 0x1a8]\n  7387: u32 [a1 + 0x218] = a0\n  7391: a0 = u64 [s1 + 0x1c0]\n  7395: u64 [a1 + 0x230] = a0\n  7399: a0 = u64 [s1 + 0x1c8]\n  7403: u64 [a1 + 0x228] = a0\n  7407: a0 = u64 [s1 + 0x1d0]\n  7411: u64 [a1 + 0x238] = a0\n  7415: a0 = u64 [s1 + 0x1b8]\n  7419: u64 [a1 + 0x240] = a0\n  7423: a0 = 0\n  7425: a1 = 0\n  7427: ra = 64, jump @0\n      : @129 [@dyn 32] (gas: 4)\n  7432: u64 [s1 + 0x1d8] = a0\n  7436: a0 = 0\n  7438: a1 = 0\n  7440: ra = 66, jump @0\n      : @130 [@dyn 33] (gas: 40)\n  7445: a3 = s1 + 0x7ff\n  7449: a3 = a3 + 0x159\n  7453: u32 [a3 + 584] = 0\n  7457: a2 = u64 [s1 + 0x1a0]\n  7461: a1 = a2 >u 0x8fc\n  7465: a2 = -a1\n  7467: u64 [a3 + 0x280] = a2\n  7471: u64 [a3 + 0x278] = a2\n  7475: u64 [a3 + 0x270] = a2\n  7479: u64 [a3 + 0x268] = a2\n  7483: a2 = s1 + 0x7ff\n  7487: a2 = a2 + 0x361\n  7491: a2 = a2 << 0x20\n  7494: a2 = a2 >> 0x20\n  7497: a1 = a1 << 0x23\n  7500: t0 = a1 | a2\n  7503: a1 = s1 + 0x7ff\n  7507: a1 = a1 + 0x381\n  7511: a1 = a1 << 0x20\n  7514: a1 = a1 >> 0x20\n  7517: a2 = s1 + 0x7ff\n  7521: a2 = a2 + 0x3c1\n  7525: a2 = a2 << 0x20\n  7528: a3 = a2 | a1\n  7531: a4 = u64 [s1 + 0x1d8]\n  7535: a4 = a4 << 0x20\n  7538: a4 = a4 >> 0x20\n  7541: a0 = a0 << 0x20\n  7544: a0 = a0 >> 0x20\n  7547: a1 = s1 + 0x7ff\n  7551: a1 = a1 + 0x3a1\n  7555: a1 = a1 << 0x20\n  7558: a5 = a1 | a0\n  7561: a1 = 0xffffffffffffffff\n  7564: a2 = 0xffffffffffffffff\n  7567: a0 = t0\n  7569: ecalli 1 // 'call'\n  7571: u64 [s1 + 0x1d8] = a0\n  7575: ecalli 12 // 'return_data_size'\n  7577: fallthrough\n      : @131 (gas: 2)\n  7578: a2 = u64 [s1 + 0x1d8]\n  7582: jump @133 if a0 == 0\n      : @132 (gas: 1)\n  7585: jump @257\n      : @133 (gas: 1)\n  7588: jump @135 if a2 == 0\n      : @134 (gas: 1)\n  7591: jump @272\n      : @135 (gas: 31)\n  7594: a1 = s1 + 0x7ff\n  7598: a1 = a1 + 0x159\n  7602: u64 [a1 + 1216] = 0\n  7606: u64 [a1 + 1208] = 0\n  7610: u64 [a1 + 1200] = 0\n  7614: u64 [a1 + 1192] = 0\n  7618: u64 [a1 + 1248] = 0\n  7622: u64 [a1 + 1240] = 0\n  7626: u64 [a1 + 1232] = 0\n  7630: u64 [a1 + 1224] = 0\n  7634: u32 [a1 + 1256] = 0x20\n  7639: a0 = s1 + 0x1000\n  7643: i32 a1 = a0 + 0xfffffffffffffe00\n  7647: a0 = s1 + 0x1000\n  7651: i32 a3 = a0 + 0xfffffffffffffe20\n  7655: a0 = s1 + 0x1000\n  7659: i32 a4 = a0 + 0xfffffffffffffe40\n  7663: a2 = 0xffffffffffffffff\n  7666: a0 = 0\n  7668: ecalli 7 // 'get_storage'\n  7670: a1 = s1 + 0x7ff\n  7674: a1 = a1 + 0x159\n  7678: a0 = u64 [a1 + 0x4d8]\n  7682: u64 [s1 + 0x1a8] = a0\n  7686: a0 = u64 [a1 + 0x4d0]\n  7690: u64 [s1 + 0x1b0] = a0\n  7694: a0 = u64 [a1 + 0x4c8]\n  7698: u64 [s1 + 0x1d8] = a0\n  7702: a0 = 0x40\n  7705: a1 = 0x20\n  7708: ra = 68, jump @0\n      : @136 [@dyn 34] (gas: 100)\n  7713: a1 = u8 [a0 + 0x11]\n  7716: a2 = u8 [a0 + 0x10]\n  7719: a3 = u8 [a0 + 0x12]\n  7722: a4 = u8 [a0 + 0x13]\n  7725: a1 = a1 << 0x8\n  7728: a1 = a1 | a2\n  7731: a3 = a3 << 0x10\n  7734: a4 = a4 << 0x18\n  7737: a3 = a3 | a4\n  7740: a1 = a1 | a3\n  7743: a2 = u8 [a0 + 0x15]\n  7746: a3 = u8 [a0 + 0x14]\n  7749: a4 = u8 [a0 + 0x16]\n  7752: a5 = u8 [a0 + 0x17]\n  7755: a2 = a2 << 0x8\n  7758: a2 = a2 | a3\n  7761: a4 = a4 << 0x10\n  7764: a5 = a5 << 0x18\n  7767: a4 = a4 | a5\n  7770: a2 = a2 | a4\n  7773: a2 = a2 << 0x20\n  7776: t0 = a2 | a1\n  7779: a2 = u8 [a0 + 0x1]\n  7782: a3 = u8 [a0]\n  7784: a4 = u8 [a0 + 0x2]\n  7787: a5 = u8 [a0 + 0x3]\n  7790: a2 = a2 << 0x8\n  7793: a2 = a2 | a3\n  7796: a4 = a4 << 0x10\n  7799: a5 = a5 << 0x18\n  7802: a4 = a4 | a5\n  7805: a2 = a2 | a4\n  7808: a3 = u8 [a0 + 0x5]\n  7811: a4 = u8 [a0 + 0x4]\n  7814: a5 = u8 [a0 + 0x6]\n  7817: a1 = u8 [a0 + 0x7]\n  7820: a3 = a3 << 0x8\n  7823: a3 = a3 | a4\n  7826: a5 = a5 << 0x10\n  7829: a1 = a1 << 0x18\n  7832: a1 = a1 | a5\n  7835: a1 = a1 | a3\n  7838: a1 = a1 << 0x20\n  7841: t1 = a1 | a2\n  7844: a1 = u8 [a0 + 0x19]\n  7847: a3 = u8 [a0 + 0x18]\n  7850: a4 = u8 [a0 + 0x1a]\n  7853: a5 = u8 [a0 + 0x1b]\n  7856: a1 = a1 << 0x8\n  7859: a1 = a1 | a3\n  7862: a4 = a4 << 0x10\n  7865: a5 = a5 << 0x18\n  7868: a4 = a4 | a5\n  7871: a1 = a1 | a4\n  7874: a3 = u8 [a0 + 0x1d]\n  7877: a4 = u8 [a0 + 0x1c]\n  7880: a5 = u8 [a0 + 0x1e]\n  7883: a2 = u8 [a0 + 0x1f]\n  7886: a3 = a3 << 0x8\n  7889: a3 = a3 | a4\n  7892: a5 = a5 << 0x10\n  7895: a2 = a2 << 0x18\n  7898: a2 = a2 | a5\n  7901: a2 = a2 | a3\n  7904: a2 = a2 << 0x20\n  7907: a3 = a2 | a1\n  7910: a1 = u8 [a0 + 0x9]\n  7913: a2 = u8 [a0 + 0x8]\n  7916: a4 = u8 [a0 + 0xa]\n  7919: a5 = u8 [a0 + 0xb]\n  7922: a1 = a1 << 0x8\n  7925: a1 = a1 | a2\n  7928: a4 = a4 << 0x10\n  7931: a5 = a5 << 0x18\n  7934: a4 = a4 | a5\n  7937: a1 = a1 | a4\n  7940: a2 = u8 [a0 + 0xd]\n  7943: a4 = u8 [a0 + 0xc]\n  7946: a5 = u8 [a0 + 0xe]\n  7949: a0 = u8 [a0 + 0xf]\n  7952: a2 = a2 << 0x8\n  7955: a2 = a2 | a4\n  7958: a5 = a5 << 0x10\n  7961: a0 = a0 << 0x18\n  7964: a0 = a0 | a5\n  7967: a0 = a0 | a2\n  7970: a0 = a0 << 0x20\n  7973: a0 = a0 | a1\n  7976: a0 = reverse a0\n  7978: a3 = reverse a3\n  7980: a1 = reverse t1\n  7982: a2 = reverse t0\n  7984: a1 = a1 | a2\n  7987: a2 = a3 | a0\n  7990: a2 = a2 | a1\n  7993: a2 = a2 >> 0x20\n  7996: a0 = a0 | a1\n  7999: a0 = a0 << 0x20\n  8002: a0 = a0 | a2\n  8005: jump @138 if a0 == 0\n      : @137 (gas: 1)\n  8008: jump @256\n      : @138 (gas: 8)\n  8011: a0 = u64 [s1 + 0x1a8]\n  8015: a0 = a0 << 0x20\n  8018: a0 = a0 >> 0x20\n  8021: u64 [s1 + 0x1a0] = a0\n  8025: i32 a0 = a3 + 0\n  8027: a1 = 0x20\n  8030: u64 [s1 + 0x1a8] = a3\n  8034: ra = 70, jump @0\n      : @139 [@dyn 35] (gas: 113)\n  8039: a1 = u64 [s1 + 0x1b8]\n  8043: a1 = reverse a1\n  8045: a2 = u64 [s1 + 0x1d0]\n  8049: a2 = reverse a2\n  8051: a3 = u64 [s1 + 0x1c0]\n  8055: a3 = reverse a3\n  8057: a4 = u64 [s1 + 0x1c8]\n  8061: a4 = reverse a4\n  8063: a5 = a4 >> 0x38\n  8066: u8 [a0 + 0x1f] = a5\n  8069: a5 = a4 >> 0x30\n  8072: u8 [a0 + 0x1e] = a5\n  8075: a5 = a4 >> 0x28\n  8078: u8 [a0 + 0x1d] = a5\n  8081: a5 = a4 >> 0x20\n  8084: u8 [a0 + 0x1c] = a5\n  8087: a5 = a4 >> 0x18\n  8090: u8 [a0 + 0x1b] = a5\n  8093: a5 = a4 >> 0x10\n  8096: u8 [a0 + 0x1a] = a5\n  8099: a5 = a4 >> 0x8\n  8102: u8 [a0 + 0x19] = a5\n  8105: u8 [a0 + 0x18] = a4\n  8108: u8 [a0 + 0x10] = a3\n  8111: a4 = a3 >> 0x38\n  8114: u8 [a0 + 0x17] = a4\n  8117: a4 = a3 >> 0x30\n  8120: u8 [a0 + 0x16] = a4\n  8123: a4 = a3 >> 0x28\n  8126: u8 [a0 + 0x15] = a4\n  8129: a4 = a3 >> 0x20\n  8132: u8 [a0 + 0x14] = a4\n  8135: a4 = a3 >> 0x18\n  8138: u8 [a0 + 0x13] = a4\n  8141: a4 = a3 >> 0x10\n  8144: u8 [a0 + 0x12] = a4\n  8147: a3 = a3 >> 0x8\n  8150: u8 [a0 + 0x11] = a3\n  8153: u8 [a0 + 0x8] = a2\n  8156: a3 = a2 >> 0x38\n  8159: u8 [a0 + 0xf] = a3\n  8162: a3 = a2 >> 0x30\n  8165: u8 [a0 + 0xe] = a3\n  8168: a3 = a2 >> 0x28\n  8171: u8 [a0 + 0xd] = a3\n  8174: a3 = a2 >> 0x20\n  8177: u8 [a0 + 0xc] = a3\n  8180: a3 = a2 >> 0x18\n  8183: u8 [a0 + 0xb] = a3\n  8186: a3 = a2 >> 0x10\n  8189: u8 [a0 + 0xa] = a3\n  8192: a2 = a2 >> 0x8\n  8195: u8 [a0 + 0x9] = a2\n  8198: u8 [a0] = a1\n  8200: a2 = a1 >> 0x38\n  8203: u8 [a0 + 0x7] = a2\n  8206: a2 = a1 >> 0x30\n  8209: u8 [a0 + 0x6] = a2\n  8212: a2 = a1 >> 0x28\n  8215: u8 [a0 + 0x5] = a2\n  8218: a2 = a1 >> 0x20\n  8221: u8 [a0 + 0x4] = a2\n  8224: a2 = a1 >> 0x18\n  8227: u8 [a0 + 0x3] = a2\n  8230: a2 = a1 >> 0x10\n  8233: u8 [a0 + 0x2] = a2\n  8236: a1 = a1 >> 0x8\n  8239: u8 [a0 + 0x1] = a1\n  8242: u64 [s1 + 888] = 0\n  8246: a0 = u64 [s1 + 0x1a0]\n  8250: u64 [s1 + 0x370] = a0\n  8254: a0 = u64 [s1 + 0x1b0]\n  8258: u64 [s1 + 0x368] = a0\n  8262: a0 = u64 [0x20040]\n  8267: a1 = u64 [0x20048]\n  8272: a2 = u64 [0x20050]\n  8277: a3 = u64 [s1 + 0x1d8]\n  8281: u64 [s1 + 0x360] = a3\n  8285: u64 [s1 + 0x398] = a0\n  8289: u64 [s1 + 0x390] = a1\n  8293: u64 [s1 + 0x388] = a2\n  8297: a0 = u64 [0x20058]\n  8302: a2 = s1 + 0x380\n  8306: a3 = s1 + 0x360\n  8310: u64 [s1 + 0x380] = a0\n  8314: a0 = u64 [s1 + 0x1a8]\n  8318: ra = 0x48\n  8321: sp = sp + 0xffffffffffffff60\n  8325: u64 [sp + 0x98] = ra\n  8329: u64 [sp + 0x90] = s0\n  8333: u64 [sp + 0x88] = s1\n  8337: s0 = sp + 0xa0\n  8341: sp = sp & 0xffffffffffffffe0\n  8344: a4 = u64 [a3]\n  8346: u64 [sp + 0x38] = a4\n  8349: a4 = u64 [a3 + 0x8]\n  8352: u64 [sp + 0x28] = a4\n  8355: a4 = u64 [a3 + 0x10]\n  8358: u64 [sp + 0x20] = a4\n  8361: a3 = u64 [a3 + 0x18]\n  8364: u64 [sp + 0x18] = a3\n  8367: a3 = u64 [a2]\n  8369: u64 [sp + 0x10] = a3\n  8372: a3 = u64 [a2 + 0x8]\n  8375: u64 [sp + 0x8] = a3\n  8378: a3 = u64 [a2 + 0x10]\n  8381: u64 [sp] = a3\n  8383: s1 = u64 [a2 + 0x18]\n  8386: i32 a0 = a0 + 0\n  8388: a1 = 0x20\n  8391: u64 [sp + 0x30] = a1\n  8394: ra = 0x4\n  8397: jump @0\n      : @140 [@dyn 36] (gas: 1)\n  8400: jump @237\n      : @141 (gas: 1)\n  8403: jump @143 if a0 == 3690197961\n      : @142 (gas: 1)\n  8410: jump @361\n      : @143 (gas: 11)\n  8413: a0 = sp + 0xffffffffffffffe0\n  8416: a0 = a0 & 0xffffffffffffffe0\n  8419: u64 [s1 + 0x1d0] = a0\n  8423: sp = a0\n  8425: u64 [a0 + 24] = 0\n  8428: u64 [a0 + 16] = 0\n  8431: u64 [a0 + 8] = 0\n  8434: u64 [a0 + 0] = 0\n  8436: i32 a0 = a0 + 0\n  8438: ecalli 16 // 'value_transferred'\n  8440: fallthrough\n      : @144 (gas: 9)\n  8441: a3 = u64 [s1 + 0x1d0]\n  8445: a0 = u64 [a3 + 0x10]\n  8448: a1 = u64 [a3 + 0x18]\n  8451: a2 = u64 [a3 + 0x8]\n  8454: a3 = u64 [a3]\n  8456: a1 = a1 | a2\n  8459: a0 = a0 | a3\n  8462: a0 = a0 | a1\n  8465: jump @146 if a0 == 0\n      : @145 (gas: 1)\n  8468: jump @361\n      : @146 (gas: 3)\n  8471: a0 = u64 [s1 + 0x1d8]\n  8475: a0 = i32 [a0]\n  8477: jump @148 if a0 >u 163\n      : @147 (gas: 1)\n  8482: jump @361\n      : @148 (gas: 5)\n  8485: a0 = s1 + 0x1000\n  8489: i32 a0 = a0 + 0xfffffffffffffd00\n  8493: a1 = 0x4\n  8496: ecalli 3 // 'call_data_load'\n  8498: fallthrough\n      : @149 (gas: 9)\n  8499: a2 = s1 + 0x7ff\n  8503: a2 = a2 + 0x159\n  8507: a5 = u64 [a2 + 0x3c0]\n  8511: a3 = u64 [a2 + 0x3b8]\n  8515: a4 = u64 [a2 + 0x3b0]\n  8519: a0 = a3 | a5\n  8522: a1 = a4 <u 0x1\n  8525: a1 = 0 if a0 != 0\n  8527: jump @151 if a1 != 0\n      : @150 (gas: 1)\n  8530: jump @364\n      : @151 (gas: 19)\n  8533: a1 = u64 [a2 + 0x3a8]\n  8537: a0 = u64 [s1 + 0x1d8]\n  8541: t0 = u32 [a0]\n  8543: a0 = a1 + 0x23\n  8546: a2 = a0 <u a1\n  8549: t2 = a4 + a2\n  8552: u64 [s1 + 0x158] = a4\n  8556: a4 = t2 <u a4\n  8559: a4 = a2 if a2 == 0\n  8562: a4 = a4 + a3\n  8565: u64 [s1 + 0x160] = a3\n  8569: a2 = a4 <u a3\n  8572: u64 [s1 + 0x168] = a5\n  8576: a2 = a2 + a5\n  8579: a2 = a2 | a4\n  8582: a0 = a0 <u t0\n  8585: a0 = 0 if t2 != 0\n  8587: a0 = 0 if a2 != 0\n  8589: jump @153 if a0 != 0\n      : @152 (gas: 1)\n  8592: jump @362\n      : @153 (gas: 6)\n  8595: u64 [s1 + 0x178] = a1\n  8599: i32 a1 = a1 + 0x4\n  8602: a0 = s1 + 0x1000\n  8606: i32 a0 = a0 + 0xfffffffffffffd20\n  8610: ecalli 3 // 'call_data_load'\n  8612: fallthrough\n      : @154 (gas: 11)\n  8613: a3 = s1 + 0x7ff\n  8617: a3 = a3 + 0x159\n  8621: a0 = u64 [a3 + 0x3e0]\n  8625: a1 = u64 [a3 + 0x3d8]\n  8629: a2 = u64 [a3 + 0x3d0]\n  8633: u64 [s1 + 0x1d0] = a0\n  8637: u64 [s1 + 0x170] = a1\n  8641: a0 = a0 | a1\n  8644: a1 = a2 <u 0x1\n  8647: a1 = 0 if a0 != 0\n  8649: jump @156 if a1 != 0\n      : @155 (gas: 1)\n  8652: jump @369\n      : @156 (gas: 13)\n  8655: a1 = u64 [a3 + 0x3c8]\n  8659: a0 = a1 + 0x1f\n  8662: u64 [s1 + 0x1c0] = a1\n  8666: a1 = a0 <u a1\n  8669: u64 [s1 + 0x1c8] = a2\n  8673: a1 = a1 + a2\n  8676: a1 = a1 & 0x1\n  8679: u64 [s1 + 0x1b8] = a1\n  8683: a0 = a0 & 0xffffffffffffffe0\n  8686: u64 [s1 + 0x1b0] = a0\n  8690: a0 = 0x40\n  8693: a1 = 0x20\n  8696: ra = 74, jump @0\n      : @157 [@dyn 37] (gas: 119)\n  8701: a1 = u8 [a0 + 0x19]\n  8704: a2 = u8 [a0 + 0x18]\n  8707: a3 = u8 [a0 + 0x1a]\n  8710: a4 = u8 [a0 + 0x1b]\n  8713: a1 = a1 << 0x8\n  8716: a1 = a1 | a2\n  8719: a3 = a3 << 0x10\n  8722: a4 = a4 << 0x18\n  8725: a3 = a3 | a4\n  8728: a1 = a1 | a3\n  8731: a2 = u8 [a0 + 0x1d]\n  8734: a3 = u8 [a0 + 0x1c]\n  8737: a4 = u8 [a0 + 0x1e]\n  8740: a5 = u8 [a0 + 0x1f]\n  8743: a2 = a2 << 0x8\n  8746: a2 = a2 | a3\n  8749: a4 = a4 << 0x10\n  8752: a5 = a5 << 0x18\n  8755: a4 = a4 | a5\n  8758: a2 = a2 | a4\n  8761: a2 = a2 << 0x20\n  8764: t0 = a2 | a1\n  8767: a2 = u8 [a0 + 0x11]\n  8770: a3 = u8 [a0 + 0x10]\n  8773: a4 = u8 [a0 + 0x12]\n  8776: a5 = u8 [a0 + 0x13]\n  8779: a2 = a2 << 0x8\n  8782: a2 = a2 | a3\n  8785: a4 = a4 << 0x10\n  8788: a5 = a5 << 0x18\n  8791: a4 = a4 | a5\n  8794: a2 = a2 | a4\n  8797: a3 = u8 [a0 + 0x15]\n  8800: a4 = u8 [a0 + 0x14]\n  8803: a5 = u8 [a0 + 0x16]\n  8806: a1 = u8 [a0 + 0x17]\n  8809: a3 = a3 << 0x8\n  8812: a3 = a3 | a4\n  8815: a5 = a5 << 0x10\n  8818: a1 = a1 << 0x18\n  8821: a1 = a1 | a5\n  8824: a1 = a1 | a3\n  8827: a1 = a1 << 0x20\n  8830: t1 = a1 | a2\n  8833: a1 = u8 [a0 + 0x9]\n  8836: a3 = u8 [a0 + 0x8]\n  8839: a4 = u8 [a0 + 0xa]\n  8842: a5 = u8 [a0 + 0xb]\n  8845: a1 = a1 << 0x8\n  8848: a1 = a1 | a3\n  8851: a4 = a4 << 0x10\n  8854: a5 = a5 << 0x18\n  8857: a4 = a4 | a5\n  8860: a1 = a1 | a4\n  8863: a3 = u8 [a0 + 0xd]\n  8866: a4 = u8 [a0 + 0xc]\n  8869: a5 = u8 [a0 + 0xe]\n  8872: a2 = u8 [a0 + 0xf]\n  8875: a3 = a3 << 0x8\n  8878: a3 = a3 | a4\n  8881: a5 = a5 << 0x10\n  8884: a2 = a2 << 0x18\n  8887: a2 = a2 | a5\n  8890: a2 = a2 | a3\n  8893: a2 = a2 << 0x20\n  8896: a3 = a2 | a1\n  8899: a1 = u8 [a0 + 0x1]\n  8902: a2 = u8 [a0]\n  8904: a4 = u8 [a0 + 0x2]\n  8907: a5 = u8 [a0 + 0x3]\n  8910: a1 = a1 << 0x8\n  8913: a1 = a1 | a2\n  8916: a4 = a4 << 0x10\n  8919: a5 = a5 << 0x18\n  8922: a4 = a4 | a5\n  8925: a1 = a1 | a4\n  8928: a2 = u8 [a0 + 0x5]\n  8931: a4 = u8 [a0 + 0x4]\n  8934: a5 = u8 [a0 + 0x6]\n  8937: a0 = u8 [a0 + 0x7]\n  8940: a2 = a2 << 0x8\n  8943: a2 = a2 | a4\n  8946: a5 = a5 << 0x10\n  8949: a0 = a0 << 0x18\n  8952: a0 = a0 | a5\n  8955: a0 = a0 | a2\n  8958: a0 = a0 << 0x20\n  8961: a0 = a0 | a1\n  8964: t2 = reverse a0\n  8966: ra = reverse a3\n  8968: a3 = reverse t1\n  8970: a2 = reverse t0\n  8972: a1 = u64 [s1 + 0x1b0]\n  8976: a0 = a1 + 0x3f\n  8979: a1 = a0 <u a1\n  8982: a4 = u64 [s1 + 0x1b8]\n  8986: a1 = a1 + a4\n  8989: a0 = a0 & 0xffffffffffffffe0\n  8992: a0 = a0 + a2\n  8995: u64 [s1 + 0x188] = a2\n  8999: u64 [s1 + 0x1b8] = a0\n  9003: a2 = a0 <u a2\n  9006: a1 = a1 + a3\n  9009: a4 = a1 + a2\n  9012: a1 = a4 ^ a3\n  9015: u64 [s1 + 0x180] = a3\n  9019: a0 = a4 <u a3\n  9022: a0 = a2 if a1 == 0\n  9025: t0 = ra + a0\n  9028: a1 = t0 <u ra\n  9031: a5 = t2 + a1\n  9034: a2 = t0 >u 0\n  9036: a3 = a5 >u 0\n  9038: a3 = a2 if a5 == 0\n  9041: a2 = t0 | a5\n  9044: u64 [s1 + 0x1b0] = a4\n  9048: a4 = a4 >u 0\n  9050: a4 = a3 if a2 != 0\n  9053: jump @159 if a4 == 0\n      : @158 (gas: 1)\n  9056: jump @365\n      : @159 (gas: 7)\n  9059: a2 = a5 ^ t2\n  9062: a3 = a5 <u t2\n  9065: a1 = a3 if a2 != 0\n  9068: a3 = t0 ^ ra\n  9071: a2 = a2 | a3\n  9074: a0 = a1 if a2 != 0\n  9077: jump @161 if a0 == 0\n      : @160 (gas: 1)\n  9080: jump @365\n      : @161 (gas: 7)\n  9083: a0 = 0x40\n  9086: a1 = 0x20\n  9089: u64 [s1 + 0x198] = ra\n  9093: u64 [s1 + 0x190] = t2\n  9097: u64 [s1 + 0x1a8] = t0\n  9101: u64 [s1 + 0x1a0] = a5\n  9105: ra = 76, jump @0\n      : @162 [@dyn 38] (gas: 80)\n  9110: t0 = u64 [s1 + 0x198]\n  9114: a1 = u64 [s1 + 0x1a0]\n  9118: a1 = reverse a1\n  9120: a2 = u64 [s1 + 0x1a8]\n  9124: a2 = reverse a2\n  9126: a3 = u64 [s1 + 0x1b0]\n  9130: a3 = reverse a3\n  9132: a4 = u64 [s1 + 0x1b8]\n  9136: a4 = reverse a4\n  9138: u8 [a0 + 0x18] = a4\n  9141: a5 = a4 >> 0x38\n  9144: u8 [a0 + 0x1f] = a5\n  9147: a5 = a4 >> 0x30\n  9150: u8 [a0 + 0x1e] = a5\n  9153: a5 = a4 >> 0x28\n  9156: u8 [a0 + 0x1d] = a5\n  9159: a5 = a4 >> 0x20\n  9162: u8 [a0 + 0x1c] = a5\n  9165: a5 = a4 >> 0x18\n  9168: u8 [a0 + 0x1b] = a5\n  9171: a5 = a4 >> 0x10\n  9174: u8 [a0 + 0x1a] = a5\n  9177: a4 = a4 >> 0x8\n  9180: u8 [a0 + 0x19] = a4\n  9183: u8 [a0 + 0x10] = a3\n  9186: a4 = a3 >> 0x38\n  9189: u8 [a0 + 0x17] = a4\n  9192: a4 = a3 >> 0x30\n  9195: u8 [a0 + 0x16] = a4\n  9198: a4 = a3 >> 0x28\n  9201: u8 [a0 + 0x15] = a4\n  9204: a4 = a3 >> 0x20\n  9207: u8 [a0 + 0x14] = a4\n  9210: a4 = a3 >> 0x18\n  9213: u8 [a0 + 0x13] = a4\n  9216: a4 = a3 >> 0x10\n  9219: u8 [a0 + 0x12] = a4\n  9222: a3 = a3 >> 0x8\n  9225: u8 [a0 + 0x11] = a3\n  9228: u8 [a0 + 0x8] = a2\n  9231: a3 = a2 >> 0x38\n  9234: u8 [a0 + 0xf] = a3\n  9237: a3 = a2 >> 0x30\n  9240: u8 [a0 + 0xe] = a3\n  9243: a3 = a2 >> 0x28\n  9246: u8 [a0 + 0xd] = a3\n  9249: a3 = a2 >> 0x20\n  9252: u8 [a0 + 0xc] = a3\n  9255: a3 = a2 >> 0x18\n  9258: u8 [a0 + 0xb] = a3\n  9261: a3 = a2 >> 0x10\n  9264: u8 [a0 + 0xa] = a3\n  9267: a2 = a2 >> 0x8\n  9270: u8 [a0 + 0x9] = a2\n  9273: u8 [a0] = a1\n  9275: a2 = a1 >> 0x38\n  9278: u8 [a0 + 0x7] = a2\n  9281: a2 = a1 >> 0x30\n  9284: u8 [a0 + 0x6] = a2\n  9287: a2 = a1 >> 0x28\n  9290: u8 [a0 + 0x5] = a2\n  9293: a2 = a1 >> 0x20\n  9296: u8 [a0 + 0x4] = a2\n  9299: a2 = a1 >> 0x18\n  9302: u8 [a0 + 0x3] = a2\n  9305: a2 = a1 >> 0x10\n  9308: u8 [a0 + 0x2] = a2\n  9311: a1 = a1 >> 0x8\n  9314: a4 = u64 [s1 + 0x188]\n  9318: a2 = a4 | t0\n  9321: a3 = u64 [s1 + 0x180]\n  9325: a5 = u64 [s1 + 0x190]\n  9329: a3 = a3 | a5\n  9332: a2 = a2 | a3\n  9335: a2 = a2 >> 0x20\n  9338: a3 = a3 | t0\n  9341: a3 = a3 << 0x20\n  9344: a2 = a2 | a3\n  9347: u8 [a0 + 0x1] = a1\n  9350: jump @164 if a2 == 0\n      : @163 (gas: 1)\n  9353: jump @256\n      : @164 (gas: 4)\n  9356: i32 a0 = a4 + 0\n  9358: a1 = 0x20\n  9361: u64 [s1 + 0x1b8] = a0\n  9365: ra = 78, jump @0\n      : @165 [@dyn 39] (gas: 108)\n  9370: a1 = u64 [s1 + 0x178]\n  9374: a2 = u64 [s1 + 0x1c0]\n  9378: a2 = a2 + a1\n  9381: a1 = a2 <u a1\n  9384: a5 = u64 [s1 + 0x158]\n  9388: a3 = u64 [s1 + 0x1c8]\n  9392: a3 = a3 + a5\n  9395: a3 = a3 + a1\n  9398: a4 = a3 ^ a5\n  9401: a5 = a3 <u a5\n  9404: a5 = a1 if a4 == 0\n  9407: a1 = u64 [s1 + 0x1d0]\n  9411: t1 = reverse a1\n  9413: a4 = t1 >> 0x18\n  9416: u8 [a0 + 0x3] = a4\n  9419: a4 = t1 >> 0x10\n  9422: u8 [a0 + 0x2] = a4\n  9425: a4 = t1 >> 0x8\n  9428: u8 [a0 + 0x1] = a4\n  9431: ra = u64 [s1 + 0x170]\n  9435: t0 = u64 [s1 + 0x160]\n  9439: a4 = t0 + ra\n  9442: a5 = a5 + a4\n  9445: t0 = a4 <u t0\n  9448: t2 = a5 <u a4\n  9451: a4 = u64 [s1 + 0x168]\n  9455: a4 = a4 + a1\n  9458: a4 = a4 + t0\n  9461: t2 = t2 + a4\n  9464: t0 = a2 + 0x24\n  9467: a2 = t0 <u a2\n  9470: a4 = a3 + a2\n  9473: a3 = a4 <u a3\n  9476: a3 = a2 if a2 == 0\n  9479: u8 [a0] = t1\n  9481: a2 = u64 [s1 + 0x1d8]\n  9485: a2 = u32 [a2]\n  9487: a3 = a3 + a5\n  9490: a5 = a3 <u a5\n  9493: a5 = a5 + t2\n  9496: a2 = a2 <u t0\n  9499: t0 = a4 <u 0x1\n  9502: t2 = a2 ^ 0x1\n  9505: t2 = t0 if a4 != 0\n  9508: t0 = u64 [s1 + 0x1c0]\n  9512: a4 = a3 <u 0x1\n  9515: a2 = a5 <u 0x1\n  9518: a2 = a4 if a5 == 0\n  9521: a3 = a3 | a5\n  9524: a5 = u64 [s1 + 0x1c8]\n  9528: t2 = a2 if a3 != 0\n  9531: a2 = reverse t0\n  9533: a3 = a2 >> 0x38\n  9536: u8 [a0 + 0x1f] = a3\n  9539: a3 = a2 >> 0x30\n  9542: u8 [a0 + 0x1e] = a3\n  9545: a3 = a2 >> 0x28\n  9548: u8 [a0 + 0x1d] = a3\n  9551: a3 = a2 >> 0x20\n  9554: u8 [a0 + 0x1c] = a3\n  9557: a3 = a2 >> 0x18\n  9560: u8 [a0 + 0x1b] = a3\n  9563: a3 = a2 >> 0x10\n  9566: u8 [a0 + 0x1a] = a3\n  9569: a3 = a2 >> 0x8\n  9572: u8 [a0 + 0x19] = a3\n  9575: a3 = reverse a5\n  9577: u8 [a0 + 0x18] = a2\n  9580: a2 = a3 >> 0x38\n  9583: u8 [a0 + 0x17] = a2\n  9586: a2 = a3 >> 0x30\n  9589: u8 [a0 + 0x16] = a2\n  9592: a2 = a3 >> 0x28\n  9595: u8 [a0 + 0x15] = a2\n  9598: a2 = a3 >> 0x20\n  9601: u8 [a0 + 0x14] = a2\n  9604: a2 = a3 >> 0x18\n  9607: u8 [a0 + 0x13] = a2\n  9610: a2 = a3 >> 0x10\n  9613: u8 [a0 + 0x12] = a2\n  9616: a2 = reverse ra\n  9618: u8 [a0 + 0x10] = a3\n  9621: a3 = a3 >> 0x8\n  9624: u8 [a0 + 0x11] = a3\n  9627: a3 = a2 >> 0x38\n  9630: u8 [a0 + 0xf] = a3\n  9633: a3 = a2 >> 0x30\n  9636: u8 [a0 + 0xe] = a3\n  9639: a3 = a2 >> 0x28\n  9642: u8 [a0 + 0xd] = a3\n  9645: a3 = a2 >> 0x20\n  9648: u8 [a0 + 0xc] = a3\n  9651: a3 = a2 >> 0x18\n  9654: u8 [a0 + 0xb] = a3\n  9657: a3 = a2 >> 0x10\n  9660: u8 [a0 + 0xa] = a3\n  9663: u8 [a0 + 0x8] = a2\n  9666: a2 = a2 >> 0x8\n  9669: u8 [a0 + 0x9] = a2\n  9672: a2 = t1 >> 0x38\n  9675: u8 [a0 + 0x7] = a2\n  9678: a2 = t1 >> 0x30\n  9681: u8 [a0 + 0x6] = a2\n  9684: a2 = t1 >> 0x28\n  9687: u8 [a0 + 0x5] = a2\n  9690: a1 = t1 >> 0x20\n  9693: u8 [a0 + 0x4] = a1\n  9696: jump @167 if t2 != 0\n      : @166 (gas: 1)\n  9699: jump @361\n      : @167 (gas: 11)\n  9702: a0 = t0 | ra\n  9705: a3 = u64 [s1 + 0x1d0]\n  9709: a1 = a5 | a3\n  9712: a0 = a0 | a1\n  9715: a0 = a0 >> 0x20\n  9718: a1 = a1 | ra\n  9721: a1 = a1 << 0x20\n  9724: a0 = a0 | a1\n  9727: a1 = u64 [s1 + 0x198]\n  9731: a2 = u64 [s1 + 0x190]\n  9735: jump @169 if a0 == 0\n      : @168 (gas: 1)\n  9738: jump @256\n      : @169 (gas: 8)\n  9741: a0 = a1 | a2\n  9744: a3 = 0xffffffe0\n  9754: a1 = u64 [s1 + 0x188]\n  9758: a1 = a1 <u a3\n  9761: a2 = u64 [s1 + 0x180]\n  9765: a1 = 0 if a2 != 0\n  9767: a1 = 0 if a0 != 0\n  9769: jump @171 if a1 != 0\n      : @170 (gas: 1)\n  9772: jump @256\n      : @171 (gas: 9)\n  9775: a0 = u64 [s1 + 0x178]\n  9779: i32 a0 = a0 + 0x24\n  9782: u64 [s1 + 0x1b0] = a0\n  9786: a0 = u64 [s1 + 0x1b8]\n  9790: i32 a0 = a0 + 0x20\n  9793: i32 a1 = t0 + 0\n  9795: u64 [s1 + 0x1a8] = a1\n  9799: u64 [s1 + 0x1d8] = a3\n  9803: ra = 80, jump @0\n      : @172 [@dyn 40] (gas: 5)\n  9808: i32 a0 = a0 + 0\n  9810: a1 = u64 [s1 + 0x1a8]\n  9814: a2 = u64 [s1 + 0x1b0]\n  9818: ecalli 2 // 'call_data_copy'\n  9820: fallthrough\n      : @173 (gas: 28)\n  9821: a5 = u64 [s1 + 0x198]\n  9825: a4 = u64 [s1 + 0x180]\n  9829: a1 = u64 [s1 + 0x188]\n  9833: t0 = u64 [s1 + 0x1c0]\n  9837: t0 = t0 + a1\n  9840: a1 = t0 <u a1\n  9843: a2 = u64 [s1 + 0x1c8]\n  9847: a2 = a2 + a4\n  9850: a2 = a2 + a1\n  9853: a3 = a2 ^ a4\n  9856: a4 = a2 <u a4\n  9859: a4 = a1 if a3 == 0\n  9862: a1 = u64 [s1 + 0x170]\n  9866: a1 = a1 + a5\n  9869: a3 = a1 <u a5\n  9872: a5 = u64 [s1 + 0x190]\n  9876: a0 = u64 [s1 + 0x1d0]\n  9880: a5 = a5 + a0\n  9883: a3 = a3 + a5\n  9886: a4 = a4 + a1\n  9889: a1 = a4 <u a1\n  9892: a1 = a1 + a3\n  9895: a1 = a1 | a4\n  9898: a3 = u64 [s1 + 0x1d8]\n  9902: a3 = t0 <u a3\n  9905: a3 = 0 if a2 != 0\n  9907: a3 = 0 if a1 != 0\n  9909: jump @175 if a3 != 0\n      : @174 (gas: 1)\n  9912: jump @256\n      : @175 (gas: 3)\n  9915: i32 a0 = t0 + 0x20\n  9918: a1 = 0x20\n  9921: ra = 82, jump @0\n      : @176 [@dyn 41] (gas: 99)\n  9926: u8 [a0 + 31] = 0\n  9929: u8 [a0 + 30] = 0\n  9932: u8 [a0 + 29] = 0\n  9935: u8 [a0 + 28] = 0\n  9938: u8 [a0 + 27] = 0\n  9941: u8 [a0 + 26] = 0\n  9944: u8 [a0 + 25] = 0\n  9947: u8 [a0 + 24] = 0\n  9950: u8 [a0 + 23] = 0\n  9953: u8 [a0 + 22] = 0\n  9956: u8 [a0 + 21] = 0\n  9959: u8 [a0 + 20] = 0\n  9962: u8 [a0 + 19] = 0\n  9965: u8 [a0 + 18] = 0\n  9968: u8 [a0 + 17] = 0\n  9971: u8 [a0 + 16] = 0\n  9974: u8 [a0 + 15] = 0\n  9977: u8 [a0 + 14] = 0\n  9980: u8 [a0 + 13] = 0\n  9983: u8 [a0 + 12] = 0\n  9986: u8 [a0 + 11] = 0\n  9989: u8 [a0 + 10] = 0\n  9992: u8 [a0 + 9] = 0\n  9995: u8 [a0 + 8] = 0\n  9998: u8 [a0 + 7] = 0\n 10001: u8 [a0 + 6] = 0\n 10004: u8 [a0 + 5] = 0\n 10007: u8 [a0 + 4] = 0\n 10010: u8 [a0 + 3] = 0\n 10013: u8 [a0 + 2] = 0\n 10016: u8 [a0 + 1] = 0\n 10019: u8 [a0 + 0] = 0\n 10021: a0 = s1 + 0x1000\n 10025: i32 a0 = a0 + 0xfffffffffffffd40\n 10029: a1 = 0x24\n 10032: ecalli 3 // 'call_data_load'\n 10034: a1 = s1 + 0x7ff\n 10038: a1 = a1 + 0x159\n 10042: a0 = u64 [a1 + 0x400]\n 10046: u64 [s1 + 0xc0] = a0\n 10050: a0 = u64 [a1 + 0x3f8]\n 10054: u64 [s1 + 0xc8] = a0\n 10058: a0 = u64 [a1 + 0x3f0]\n 10062: u64 [s1 + 0xd0] = a0\n 10066: a0 = u64 [a1 + 0x3e8]\n 10070: u64 [s1 + 0xd8] = a0\n 10074: a0 = s1 + 0x1000\n 10078: i32 a0 = a0 + 0xfffffffffffffd60\n 10082: a1 = 0x44\n 10085: ecalli 3 // 'call_data_load'\n 10087: a1 = s1 + 0x7ff\n 10091: a1 = a1 + 0x159\n 10095: a0 = u64 [a1 + 0x420]\n 10099: u64 [s1 + 0x100] = a0\n 10103: a0 = u64 [a1 + 0x418]\n 10107: u64 [s1 + 0x108] = a0\n 10111: a0 = u64 [a1 + 0x410]\n 10115: u64 [s1 + 0x110] = a0\n 10119: a0 = u64 [a1 + 0x408]\n 10123: u64 [s1 + 0x118] = a0\n 10127: a0 = s1 + 0x1000\n 10131: i32 a0 = a0 + 0xfffffffffffffd80\n 10135: a1 = 0x64\n 10138: ecalli 3 // 'call_data_load'\n 10140: a1 = s1 + 0x7ff\n 10144: a1 = a1 + 0x159\n 10148: a0 = u64 [a1 + 0x440]\n 10152: u64 [s1 + 0x140] = a0\n 10156: a0 = u64 [a1 + 0x438]\n 10160: u64 [s1 + 0x148] = a0\n 10164: a0 = u64 [a1 + 0x430]\n 10168: u64 [s1 + 0x150] = a0\n 10172: a0 = u64 [a1 + 0x428]\n 10176: u64 [s1 + 0x158] = a0\n 10180: a0 = s1 + 0x1000\n 10184: i32 a0 = a0 + 0xfffffffffffffda0\n 10188: a1 = 0x84\n 10192: ecalli 3 // 'call_data_load'\n 10194: a1 = s1 + 0x7ff\n 10198: a1 = a1 + 0x159\n 10202: a0 = u64 [a1 + 0x460]\n 10206: u64 [s1 + 0x138] = a0\n 10210: a0 = u64 [a1 + 0x458]\n 10214: u64 [s1 + 0x130] = a0\n 10218: a0 = u64 [a1 + 0x450]\n 10222: u64 [s1 + 0x128] = a0\n 10226: a0 = u64 [a1 + 0x448]\n 10230: u64 [s1 + 0x120] = a0\n 10234: u64 [a1 + 0] = 0\n 10236: u64 [a1 + 4294967288] = 0\n 10239: a0 = s1 + 0x1000\n 10243: u64 [a0 + 4294965576] = 0\n 10247: a0 = s1 + 0x7ff\n 10251: a0 = a0 + 0x161\n 10255: a2 = s1 + 0x7ff\n 10259: a2 = a2 + 0x141\n 10263: a1 = s1 + 0x1000\n 10267: u64 [a1 + 4294965568] = 0\n 10271: ra = 84, jump @25\n      : @177 [@dyn 42] (gas: 14)\n 10276: a2 = s1 + 0x7ff\n 10280: a2 = a2 + 0x159\n 10284: a0 = u64 [a2 + 0x18]\n 10287: a1 = u64 [a2 + 0x10]\n 10290: u64 [s1 + 0x1d0] = a1\n 10294: a1 = u64 [a2 + 0x8]\n 10297: u64 [s1 + 0x1d8] = a1\n 10301: a0 = a0 << 0x20\n 10304: a0 = a0 >> 0x20\n 10307: u64 [s1 + 0x1c8] = a0\n 10311: a0 = s1 + 0x1000\n 10315: i32 a0 = a0 + 0xfffffffffffffdc0\n 10319: ecalli 5 // 'caller'\n 10321: fallthrough\n      : @178 (gas: 24)\n 10322: a2 = s1 + 0x7ff\n 10326: a2 = a2 + 0x159\n 10330: a0 = u64 [a2 + 0x470]\n 10334: a1 = u64 [a2 + 0x468]\n 10338: a2 = i32 [a2 + 0x478]\n 10342: a0 = reverse a0\n 10344: a3 = a0 >> 0x20\n 10347: a1 = reverse a1\n 10349: a4 = a1 << 0x20\n 10352: a3 = a3 | a4\n 10355: a0 = a0 << 0x20\n 10358: a2 = reverse a2\n 10360: a2 = a2 >> 0x20\n 10363: a0 = a0 | a2\n 10366: a1 = a1 >> 0x20\n 10369: a2 = u64 [s1 + 0x1c8]\n 10373: a1 = a1 ^ a2\n 10376: a2 = u64 [s1 + 0x1d8]\n 10380: a0 = a0 ^ a2\n 10383: a0 = a0 | a1\n 10386: a1 = u64 [s1 + 0x1d0]\n 10390: a1 = a1 ^ a3\n 10393: a0 = a0 | a1\n 10396: jump @180 if a0 == 0\n      : @179 (gas: 1)\n 10399: jump @386\n      : @180 (gas: 20)\n 10402: a0 = u64 [s1 + 0x158]\n 10406: a1 = u64 [s1 + 0x120]\n 10410: a0 = a0 <u a1\n 10413: a2 = u64 [s1 + 0x150]\n 10417: a3 = u64 [s1 + 0x128]\n 10421: a1 = a3 ^ a2\n 10424: a2 = a2 <u a3\n 10427: a2 = a0 if a1 == 0\n 10430: a4 = u64 [s1 + 0x148]\n 10434: a0 = u64 [s1 + 0x130]\n 10438: t0 = a4 <u a0\n 10441: a3 = u64 [s1 + 0x140]\n 10445: a5 = u64 [s1 + 0x138]\n 10449: a1 = a5 ^ a3\n 10452: a3 = a3 <u a5\n 10455: a3 = t0 if a1 == 0\n 10458: a0 = a0 ^ a4\n 10461: a0 = a0 | a1\n 10464: a3 = a2 if a0 == 0\n 10467: jump @182 if a3 != 0\n      : @181 (gas: 1)\n 10470: jump @283\n      : @182 (gas: 8)\n 10473: a0 = u64 [s1 + 0x118]\n 10477: a1 = u64 [s1 + 0x108]\n 10481: a0 = a0 | a1\n 10484: a1 = u64 [s1 + 0x110]\n 10488: a3 = u64 [s1 + 0x100]\n 10492: a1 = a1 | a3\n 10495: a0 = a0 | a1\n 10498: jump @184 if a0 == 0\n      : @183 (gas: 1)\n 10501: jump @297\n      : @184 (gas: 3)\n 10504: a0 = 0x40\n 10507: a1 = 0x20\n 10510: ra = 86, jump @0\n      : @185 [@dyn 43] (gas: 102)\n 10515: a1 = u8 [a0 + 0x11]\n 10518: a2 = u8 [a0 + 0x10]\n 10521: a3 = u8 [a0 + 0x12]\n 10524: a4 = u8 [a0 + 0x13]\n 10527: a1 = a1 << 0x8\n 10530: a1 = a1 | a2\n 10533: a3 = a3 << 0x10\n 10536: a4 = a4 << 0x18\n 10539: a3 = a3 | a4\n 10542: a1 = a1 | a3\n 10545: a2 = u8 [a0 + 0x15]\n 10548: a3 = u8 [a0 + 0x14]\n 10551: a4 = u8 [a0 + 0x16]\n 10554: a5 = u8 [a0 + 0x17]\n 10557: a2 = a2 << 0x8\n 10560: a2 = a2 | a3\n 10563: a4 = a4 << 0x10\n 10566: a5 = a5 << 0x18\n 10569: a4 = a4 | a5\n 10572: a2 = a2 | a4\n 10575: a2 = a2 << 0x20\n 10578: t0 = a2 | a1\n 10581: a2 = u8 [a0 + 0x1]\n 10584: a3 = u8 [a0]\n 10586: a4 = u8 [a0 + 0x2]\n 10589: a5 = u8 [a0 + 0x3]\n 10592: a2 = a2 << 0x8\n 10595: a2 = a2 | a3\n 10598: a4 = a4 << 0x10\n 10601: a5 = a5 << 0x18\n 10604: a4 = a4 | a5\n 10607: a2 = a2 | a4\n 10610: a3 = u8 [a0 + 0x5]\n 10613: a4 = u8 [a0 + 0x4]\n 10616: a5 = u8 [a0 + 0x6]\n 10619: a1 = u8 [a0 + 0x7]\n 10622: a3 = a3 << 0x8\n 10625: a3 = a3 | a4\n 10628: a5 = a5 << 0x10\n 10631: a1 = a1 << 0x18\n 10634: a1 = a1 | a5\n 10637: a1 = a1 | a3\n 10640: a1 = a1 << 0x20\n 10643: t1 = a1 | a2\n 10646: a1 = u8 [a0 + 0x19]\n 10649: a3 = u8 [a0 + 0x18]\n 10652: a4 = u8 [a0 + 0x1a]\n 10655: a5 = u8 [a0 + 0x1b]\n 10658: a1 = a1 << 0x8\n 10661: a1 = a1 | a3\n 10664: a4 = a4 << 0x10\n 10667: a5 = a5 << 0x18\n 10670: a4 = a4 | a5\n 10673: a1 = a1 | a4\n 10676: a3 = u8 [a0 + 0x1d]\n 10679: a4 = u8 [a0 + 0x1c]\n 10682: a5 = u8 [a0 + 0x1e]\n 10685: a2 = u8 [a0 + 0x1f]\n 10688: a3 = a3 << 0x8\n 10691: a3 = a3 | a4\n 10694: a5 = a5 << 0x10\n 10697: a2 = a2 << 0x18\n 10700: a2 = a2 | a5\n 10703: a2 = a2 | a3\n 10706: a2 = a2 << 0x20\n 10709: a3 = a2 | a1\n 10712: a1 = u8 [a0 + 0x9]\n 10715: a2 = u8 [a0 + 0x8]\n 10718: a4 = u8 [a0 + 0xa]\n 10721: a5 = u8 [a0 + 0xb]\n 10724: a1 = a1 << 0x8\n 10727: a1 = a1 | a2\n 10730: a4 = a4 << 0x10\n 10733: a5 = a5 << 0x18\n 10736: a4 = a4 | a5\n 10739: a1 = a1 | a4\n 10742: a2 = u8 [a0 + 0xd]\n 10745: a4 = u8 [a0 + 0xc]\n 10748: a5 = u8 [a0 + 0xe]\n 10751: a0 = u8 [a0 + 0xf]\n 10754: a2 = a2 << 0x8\n 10757: a2 = a2 | a4\n 10760: a5 = a5 << 0x10\n 10763: a0 = a0 << 0x18\n 10766: a0 = a0 | a5\n 10769: a0 = a0 | a2\n 10772: a0 = a0 << 0x20\n 10775: a0 = a0 | a1\n 10778: a2 = reverse a0\n 10780: a1 = reverse a3\n 10782: a3 = reverse t1\n 10784: a0 = reverse t0\n 10786: u64 [s1 + 0x1d0] = a0\n 10790: a0 = a0 | a3\n 10793: u64 [s1 + 0x1d8] = a1\n 10797: a1 = a1 | a2\n 10800: a1 = a1 | a0\n 10803: a1 = a1 >> 0x20\n 10806: a0 = a0 | a2\n 10809: a0 = a0 << 0x20\n 10812: a0 = a0 | a1\n 10815: jump @187 if a0 == 0\n      : @186 (gas: 1)\n 10818: jump @256\n      : @187 (gas: 6)\n 10821: a0 = i32 [s1 + 0x1d8]\n 10825: a1 = 0x20\n 10828: u64 [s1 + 0x1b8] = a0\n 10832: u64 [s1 + 0x1c8] = a2\n 10836: u64 [s1 + 0x1c0] = a3\n 10840: ra = 88, jump @0\n      : @188 [@dyn 44] (gas: 44)\n 10845: u8 [a0 + 31] = 0\n 10848: u8 [a0 + 30] = 0\n 10851: u8 [a0 + 29] = 0\n 10854: u8 [a0 + 28] = 0\n 10857: u8 [a0 + 27] = 0\n 10860: u8 [a0 + 26] = 0\n 10863: u8 [a0 + 25] = 0\n 10866: u8 [a0 + 24] = 0\n 10869: u8 [a0 + 23] = 0\n 10872: u8 [a0 + 22] = 0\n 10875: u8 [a0 + 21] = 0\n 10878: u8 [a0 + 20] = 0\n 10881: u8 [a0 + 19] = 0\n 10884: u8 [a0 + 18] = 0\n 10887: u8 [a0 + 17] = 0\n 10890: u8 [a0 + 16] = 0\n 10893: u8 [a0 + 15] = 0\n 10896: u8 [a0 + 14] = 0\n 10899: u8 [a0 + 13] = 0\n 10902: u8 [a0 + 12] = 0\n 10905: u8 [a0 + 11] = 0\n 10908: u8 [a0 + 10] = 0\n 10911: u8 [a0 + 9] = 0\n 10914: u8 [a0 + 8] = 0\n 10917: u8 [a0 + 7] = 0\n 10920: u8 [a0 + 6] = 0\n 10923: u8 [a0 + 5] = 0\n 10926: u8 [a0 + 3] = 0xa0\n 10931: u8 [a0 + 2] = 0x79\n 10935: u8 [a0 + 1] = 0xc3\n 10940: u8 [a0 + 0] = 0x8\n 10943: a1 = u64 [s1 + 0x1c8]\n 10947: a3 = u64 [s1 + 0x1c0]\n 10951: a3 = a3 | a1\n 10954: a4 = 0x100000000\n 10964: a1 = 0xfffffffc\n 10974: a2 = u64 [s1 + 0x1d8]\n 10978: a1 = a2 <u a1\n 10981: a2 = u64 [s1 + 0x1d0]\n 10985: a1 = 0 if a2 != 0\n 10987: u64 [s1 + 0x1c8] = a3\n 10991: a1 = 0 if a3 != 0\n 10993: u8 [a0 + 4] = 0\n 10996: jump @190 if a1 != 0\n      : @189 (gas: 1)\n 10999: jump @256\n      : @190 (gas: 5)\n 11002: a0 = u64 [s1 + 0x1b8]\n 11006: i32 a0 = a0 + 0x4\n 11009: a1 = 0x20\n 11012: u64 [s1 + 0x1c0] = a4\n 11016: ra = 90, jump @0\n      : @191 [@dyn 45] (gas: 41)\n 11021: u8 [a0 + 31] = 0x20\n 11025: u8 [a0 + 30] = 0\n 11028: u8 [a0 + 29] = 0\n 11031: u8 [a0 + 28] = 0\n 11034: u8 [a0 + 27] = 0\n 11037: u8 [a0 + 26] = 0\n 11040: u8 [a0 + 25] = 0\n 11043: u8 [a0 + 24] = 0\n 11046: u8 [a0 + 23] = 0\n 11049: u8 [a0 + 22] = 0\n 11052: u8 [a0 + 21] = 0\n 11055: u8 [a0 + 20] = 0\n 11058: u8 [a0 + 19] = 0\n 11061: u8 [a0 + 18] = 0\n 11064: u8 [a0 + 17] = 0\n 11067: u8 [a0 + 16] = 0\n 11070: u8 [a0 + 15] = 0\n 11073: u8 [a0 + 14] = 0\n 11076: u8 [a0 + 13] = 0\n 11079: u8 [a0 + 12] = 0\n 11082: u8 [a0 + 11] = 0\n 11085: u8 [a0 + 10] = 0\n 11088: u8 [a0 + 9] = 0\n 11091: u8 [a0 + 8] = 0\n 11094: u8 [a0 + 7] = 0\n 11097: u8 [a0 + 6] = 0\n 11100: u8 [a0 + 5] = 0\n 11103: u8 [a0 + 4] = 0\n 11106: u8 [a0 + 3] = 0\n 11109: u8 [a0 + 2] = 0\n 11112: u8 [a0 + 1] = 0\n 11115: a1 = u64 [s1 + 0x1c0]\n 11119: a1 = a1 + 0xffffffffffffffdc\n 11122: a2 = u64 [s1 + 0x1d8]\n 11126: a1 = a2 <u a1\n 11129: a2 = u64 [s1 + 0x1d0]\n 11133: a1 = 0 if a2 != 0\n 11135: a2 = u64 [s1 + 0x1c8]\n 11139: a1 = 0 if a2 != 0\n 11141: u8 [a0 + 0] = 0\n 11143: jump @193 if a1 != 0\n      : @192 (gas: 1)\n 11146: jump @256\n      : @193 (gas: 4)\n 11149: a0 = u64 [s1 + 0x1b8]\n 11153: i32 a0 = a0 + 0x24\n 11156: a1 = 0x20\n 11159: ra = 92, jump @0\n      : @194 [@dyn 46] (gas: 42)\n 11164: u8 [a0 + 31] = 0x21\n 11168: u8 [a0 + 30] = 0\n 11171: u8 [a0 + 29] = 0\n 11174: u8 [a0 + 28] = 0\n 11177: u8 [a0 + 27] = 0\n 11180: u8 [a0 + 26] = 0\n 11183: u8 [a0 + 25] = 0\n 11186: u8 [a0 + 24] = 0\n 11189: u8 [a0 + 23] = 0\n 11192: u8 [a0 + 22] = 0\n 11195: u8 [a0 + 21] = 0\n 11198: u8 [a0 + 20] = 0\n 11201: u8 [a0 + 19] = 0\n 11204: u8 [a0 + 18] = 0\n 11207: u8 [a0 + 17] = 0\n 11210: u8 [a0 + 16] = 0\n 11213: u8 [a0 + 15] = 0\n 11216: u8 [a0 + 14] = 0\n 11219: u8 [a0 + 13] = 0\n 11222: u8 [a0 + 12] = 0\n 11225: u8 [a0 + 11] = 0\n 11228: u8 [a0 + 10] = 0\n 11231: u8 [a0 + 9] = 0\n 11234: u8 [a0 + 8] = 0\n 11237: u8 [a0 + 7] = 0\n 11240: u8 [a0 + 6] = 0\n 11243: u8 [a0 + 5] = 0\n 11246: u8 [a0 + 4] = 0\n 11249: u8 [a0 + 3] = 0\n 11252: u8 [a0 + 2] = 0\n 11255: u8 [a0 + 1] = 0\n 11258: a1 = 0x100000000\n 11268: u64 [s1 + 0x1c0] = a1\n 11272: a1 = 0xffffffbc\n 11282: a2 = u64 [s1 + 0x1d8]\n 11286: a1 = a2 <u a1\n 11289: a2 = u64 [s1 + 0x1d0]\n 11293: a1 = 0 if a2 != 0\n 11295: a2 = u64 [s1 + 0x1c8]\n 11299: a1 = 0 if a2 != 0\n 11301: u8 [a0 + 0] = 0\n 11303: jump @196 if a1 != 0\n      : @195 (gas: 1)\n 11306: jump @256\n      : @196 (gas: 4)\n 11309: a0 = u64 [s1 + 0x1b8]\n 11313: i32 a0 = a0 + 0x44\n 11316: a1 = 0x20\n 11319: ra = 94, jump @0\n      : @197 [@dyn 47] (gas: 43)\n 11324: a5 = 0x20\n 11327: u8 [a0 + 0x1f] = a5\n 11330: u8 [a0 + 30] = 0x6e\n 11334: u8 [a0 + 29] = 0x61\n 11338: u8 [a0 + 28] = 0x68\n 11342: u8 [a0 + 27] = 0x74\n 11346: u8 [a0 + 0x1a] = a5\n 11349: u8 [a0 + 25] = 0x72\n 11353: u8 [a0 + 24] = 0x65\n 11357: u8 [a0 + 23] = 0x74\n 11361: u8 [a0 + 22] = 0x61\n 11365: u8 [a0 + 21] = 0x65\n 11369: u8 [a0 + 20] = 0x72\n 11373: u8 [a0 + 19] = 0x67\n 11377: u8 [a0 + 0x12] = a5\n 11380: u8 [a0 + 17] = 0x65\n 11384: u8 [a0 + 16] = 0x62\n 11388: u8 [a0 + 0xf] = a5\n 11391: u8 [a0 + 14] = 0x74\n 11395: u8 [a0 + 13] = 0x73\n 11399: u8 [a0 + 12] = 0x75\n 11403: u8 [a0 + 11] = 0x6d\n 11407: u8 [a0 + 0xa] = a5\n 11410: u8 [a0 + 9] = 0x79\n 11414: u8 [a0 + 8] = 0x6c\n 11418: a4 = 0x70\n 11421: u8 [a0 + 0x7] = a4\n 11424: u8 [a0 + 0x6] = a4\n 11427: u8 [a0 + 5] = 0x75\n 11431: u8 [a0 + 4] = 0x73\n 11435: u8 [a0 + 0x3] = a5\n 11438: u8 [a0 + 2] = 0x78\n 11442: u8 [a0 + 1] = 0x61\n 11446: a2 = u64 [s1 + 0x1c0]\n 11450: a2 = a2 + 0xffffffffffffff9c\n 11453: a3 = u64 [s1 + 0x1d8]\n 11457: a2 = a3 <u a2\n 11460: a3 = u64 [s1 + 0x1d0]\n 11464: a2 = 0 if a3 != 0\n 11466: a3 = u64 [s1 + 0x1c8]\n 11470: a2 = 0 if a3 != 0\n 11472: u8 [a0 + 0] = 0x4d\n 11475: jump @199 if a2 != 0\n      : @198 (gas: 1)\n 11478: jump @256\n      : @199 (gas: 4)\n 11481: a0 = u64 [s1 + 0x1b8]\n 11485: i32 a0 = a0 + 0x64\n 11488: a1 = 0x20\n 11491: ra = 96, jump @0\n      : @200 [@dyn 48] (gas: 33)\n 11496: u8 [a0 + 31] = 0\n 11499: u8 [a0 + 30] = 0\n 11502: u8 [a0 + 29] = 0\n 11505: u8 [a0 + 28] = 0\n 11508: u8 [a0 + 27] = 0\n 11511: u8 [a0 + 26] = 0\n 11514: u8 [a0 + 25] = 0\n 11517: u8 [a0 + 24] = 0\n 11520: u8 [a0 + 23] = 0\n 11523: u8 [a0 + 22] = 0\n 11526: u8 [a0 + 21] = 0\n 11529: u8 [a0 + 20] = 0\n 11532: u8 [a0 + 19] = 0\n 11535: u8 [a0 + 18] = 0\n 11538: u8 [a0 + 17] = 0\n 11541: u8 [a0 + 16] = 0\n 11544: u8 [a0 + 15] = 0\n 11547: u8 [a0 + 14] = 0\n 11550: u8 [a0 + 13] = 0\n 11553: u8 [a0 + 12] = 0\n 11556: u8 [a0 + 11] = 0\n 11559: u8 [a0 + 10] = 0\n 11562: u8 [a0 + 9] = 0\n 11565: u8 [a0 + 8] = 0\n 11568: u8 [a0 + 7] = 0\n 11571: u8 [a0 + 6] = 0\n 11574: u8 [a0 + 5] = 0\n 11577: u8 [a0 + 4] = 0\n 11580: u8 [a0 + 3] = 0\n 11583: u8 [a0 + 2] = 0\n 11586: u8 [a0 + 1] = 0\n 11589: u8 [a0 + 0] = 0x30\n 11592: jump @295\n      : @201 (gas: 1)\n 11595: jump @203 if a0 == 1742566602\n      : @202 (gas: 1)\n 11602: jump @361\n      : @203 (gas: 3)\n 11605: a0 = u64 [s1 + 0x1d8]\n 11609: a0 = i32 [a0]\n 11611: jump @205 if a0 >u 35\n      : @204 (gas: 1)\n 11615: jump @361\n      : @205 (gas: 59)\n 11618: a0 = s1 + 0x1000\n 11622: i32 a0 = a0 + 0xfffffffffffffc40\n 11626: a1 = 0x4\n 11629: ecalli 3 // 'call_data_load'\n 11631: a1 = s1 + 0x7ff\n 11635: a1 = a1 + 0x159\n 11639: a0 = u64 [a1 + 0x300]\n 11643: u64 [s1 + 0x1a0] = a0\n 11647: a0 = u64 [a1 + 0x2f8]\n 11651: u64 [s1 + 0x1a8] = a0\n 11655: a0 = u64 [a1 + 0x2f0]\n 11659: u64 [s1 + 0x1b0] = a0\n 11663: a0 = u64 [a1 + 0x2e8]\n 11667: u64 [s1 + 0x1b8] = a0\n 11671: u64 [a1 + 1216] = 0\n 11675: u64 [a1 + 1208] = 0\n 11679: u64 [a1 + 1200] = 0\n 11683: u64 [a1 + 1192] = 0x1\n 11688: u64 [a1 + 1248] = 0\n 11692: u64 [a1 + 1240] = 0\n 11696: u64 [a1 + 1232] = 0\n 11700: u64 [a1 + 1224] = 0\n 11704: u32 [a1 + 1256] = 0x20\n 11709: a0 = s1 + 0x1000\n 11713: i32 a1 = a0 + 0xfffffffffffffe00\n 11717: a0 = s1 + 0x1000\n 11721: i32 a3 = a0 + 0xfffffffffffffe20\n 11725: a0 = s1 + 0x1000\n 11729: i32 a4 = a0 + 0xfffffffffffffe40\n 11733: a2 = 0xffffffffffffffff\n 11736: a0 = 0\n 11738: ecalli 7 // 'get_storage'\n 11740: a3 = s1 + 0x7ff\n 11744: a3 = a3 + 0x159\n 11748: a0 = u64 [a3 + 0x4d0]\n 11752: a1 = u64 [a3 + 0x4c8]\n 11756: a2 = u64 [a3 + 0x4d8]\n 11760: a3 = u64 [a3 + 0x4e0]\n 11764: a5 = u64 [s1 + 0x1b0]\n 11768: a4 = a5 ^ a0\n 11771: a0 = a5 <u a0\n 11774: a5 = u64 [s1 + 0x1b8]\n 11778: a1 = a5 <u a1\n 11781: a1 = a0 if a4 != 0\n 11784: a4 = u64 [s1 + 0x1a0]\n 11788: a0 = a4 ^ a3\n 11791: a3 = a4 <u a3\n 11794: a5 = u64 [s1 + 0x1a8]\n 11798: a4 = a5 <u a2\n 11801: a4 = a3 if a0 != 0\n 11804: a2 = a2 ^ a5\n 11807: a0 = a0 | a2\n 11810: a1 = a4 if a0 != 0\n 11813: u64 [s1 + 1368] = 0\n 11817: u64 [s1 + 1360] = 0\n 11821: u64 [s1 + 0x540] = a1\n 11825: a0 = s1 + 0x540\n 11829: u64 [s1 + 1352] = 0\n 11833: ra = 98, jump @464\n      : @206 [@dyn 49] (gas: 3)\n 11838: a1 = 0x20\n 11841: a0 = 0\n 11843: ra = 100, jump @0\n      : @207 [@dyn 50] (gas: 71)\n 11848: a1 = u64 [s1 + 0x1a0]\n 11852: a1 = reverse a1\n 11854: a2 = u64 [s1 + 0x1a8]\n 11858: a2 = reverse a2\n 11860: a3 = u64 [s1 + 0x1b0]\n 11864: a3 = reverse a3\n 11866: a4 = u64 [s1 + 0x1b8]\n 11870: a4 = reverse a4\n 11872: a5 = a4 >> 0x38\n 11875: u8 [a0 + 0x1f] = a5\n 11878: a5 = a4 >> 0x30\n 11881: u8 [a0 + 0x1e] = a5\n 11884: a5 = a4 >> 0x28\n 11887: u8 [a0 + 0x1d] = a5\n 11890: a5 = a4 >> 0x20\n 11893: u8 [a0 + 0x1c] = a5\n 11896: a5 = a4 >> 0x18\n 11899: u8 [a0 + 0x1b] = a5\n 11902: a5 = a4 >> 0x10\n 11905: u8 [a0 + 0x1a] = a5\n 11908: a5 = a4 >> 0x8\n 11911: u8 [a0 + 0x19] = a5\n 11914: u8 [a0 + 0x18] = a4\n 11917: a4 = a3 >> 0x38\n 11920: u8 [a0 + 0x17] = a4\n 11923: a4 = a3 >> 0x30\n 11926: u8 [a0 + 0x16] = a4\n 11929: a4 = a3 >> 0x28\n 11932: u8 [a0 + 0x15] = a4\n 11935: a4 = a3 >> 0x20\n 11938: u8 [a0 + 0x14] = a4\n 11941: a4 = a3 >> 0x18\n 11944: u8 [a0 + 0x13] = a4\n 11947: a4 = a3 >> 0x10\n 11950: u8 [a0 + 0x12] = a4\n 11953: a4 = a3 >> 0x8\n 11956: u8 [a0 + 0x11] = a4\n 11959: u8 [a0 + 0x10] = a3\n 11962: a3 = a2 >> 0x38\n 11965: u8 [a0 + 0xf] = a3\n 11968: a3 = a2 >> 0x30\n 11971: u8 [a0 + 0xe] = a3\n 11974: a3 = a2 >> 0x28\n 11977: u8 [a0 + 0xd] = a3\n 11980: a3 = a2 >> 0x20\n 11983: u8 [a0 + 0xc] = a3\n 11986: a3 = a2 >> 0x18\n 11989: u8 [a0 + 0xb] = a3\n 11992: a3 = a2 >> 0x10\n 11995: u8 [a0 + 0xa] = a3\n 11998: a3 = a2 >> 0x8\n 12001: u8 [a0 + 0x9] = a3\n 12004: u8 [a0 + 0x8] = a2\n 12007: a2 = a1 >> 0x38\n 12010: u8 [a0 + 0x7] = a2\n 12013: a2 = a1 >> 0x30\n 12016: u8 [a0 + 0x6] = a2\n 12019: a2 = a1 >> 0x28\n 12022: u8 [a0 + 0x5] = a2\n 12025: a2 = a1 >> 0x20\n 12028: u8 [a0 + 0x4] = a2\n 12031: a2 = a1 >> 0x18\n 12034: u8 [a0 + 0x3] = a2\n 12037: a2 = a1 >> 0x10\n 12040: u8 [a0 + 0x2] = a2\n 12043: a2 = a1 >> 0x8\n 12046: u8 [a0 + 0x1] = a2\n 12049: u8 [a0] = a1\n 12051: a0 = 0x20\n 12054: a1 = 0x20\n 12057: ra = 102, jump @0\n      : @208 [@dyn 51] (gas: 35)\n 12062: u8 [a0 + 31] = 0x2\n 12066: u8 [a0 + 30] = 0\n 12069: u8 [a0 + 29] = 0\n 12072: u8 [a0 + 28] = 0\n 12075: u8 [a0 + 27] = 0\n 12078: u8 [a0 + 26] = 0\n 12081: u8 [a0 + 25] = 0\n 12084: u8 [a0 + 24] = 0\n 12087: u8 [a0 + 23] = 0\n 12090: u8 [a0 + 22] = 0\n 12093: u8 [a0 + 21] = 0\n 12096: u8 [a0 + 20] = 0\n 12099: u8 [a0 + 19] = 0\n 12102: u8 [a0 + 18] = 0\n 12105: u8 [a0 + 17] = 0\n 12108: u8 [a0 + 16] = 0\n 12111: u8 [a0 + 15] = 0\n 12114: u8 [a0 + 14] = 0\n 12117: u8 [a0 + 13] = 0\n 12120: u8 [a0 + 12] = 0\n 12123: u8 [a0 + 11] = 0\n 12126: u8 [a0 + 10] = 0\n 12129: u8 [a0 + 9] = 0\n 12132: u8 [a0 + 8] = 0\n 12135: u8 [a0 + 7] = 0\n 12138: u8 [a0 + 6] = 0\n 12141: u8 [a0 + 5] = 0\n 12144: u8 [a0 + 4] = 0\n 12147: u8 [a0 + 3] = 0\n 12150: u8 [a0 + 2] = 0\n 12153: u8 [a0 + 1] = 0\n 12156: u8 [a0 + 0] = 0\n 12158: a1 = 0x40\n 12161: a0 = 0\n 12163: ra = 104, jump @0\n      : @209 [@dyn 52] (gas: 63)\n 12168: a1 = sp + 0xffffffffffffffe0\n 12171: a1 = a1 & 0xffffffffffffffe0\n 12174: u64 [s1 + 0x1d8] = a1\n 12178: sp = a1\n 12180: i32 a0 = a0 + 0\n 12182: i32 a2 = a1 + 0\n 12184: a1 = 0x40\n 12187: ecalli 8 // 'hash_keccak_256'\n 12189: a3 = u64 [s1 + 0x1d8]\n 12193: a0 = u64 [a3]\n 12195: a1 = u64 [a3 + 0x8]\n 12198: a2 = u64 [a3 + 0x10]\n 12201: a3 = u64 [a3 + 0x18]\n 12204: t0 = reverse a0\n 12206: a5 = reverse a1\n 12208: a2 = reverse a2\n 12210: a1 = reverse a3\n 12212: a0 = a1 + 0x5\n 12215: u64 [s1 + 0x1c0] = a1\n 12219: a1 = a0 <u a1\n 12222: a4 = a2 + a1\n 12225: u64 [s1 + 0x1c8] = a2\n 12229: a3 = a4 <u a2\n 12232: a3 = a1 if a1 == 0\n 12235: a3 = a3 + a5\n 12238: u64 [s1 + 0x1d0] = a5\n 12242: a1 = a3 <u a5\n 12245: u64 [s1 + 0x1d8] = t0\n 12249: a1 = a1 + t0\n 12252: a2 = s1 + 0x7ff\n 12256: a2 = a2 + 0x159\n 12260: u64 [a2 + 0x4a8] = a0\n 12264: u64 [a2 + 0x4b0] = a4\n 12268: u64 [a2 + 0x4b8] = a3\n 12272: u64 [a2 + 0x4c0] = a1\n 12276: u64 [a2 + 1248] = 0\n 12280: u64 [a2 + 1240] = 0\n 12284: u64 [a2 + 1232] = 0\n 12288: u64 [a2 + 1224] = 0\n 12292: u32 [a2 + 1256] = 0x20\n 12297: a0 = s1 + 0x1000\n 12301: i32 a1 = a0 + 0xfffffffffffffe00\n 12305: a0 = s1 + 0x1000\n 12309: i32 a3 = a0 + 0xfffffffffffffe20\n 12313: a0 = s1 + 0x1000\n 12317: i32 a4 = a0 + 0xfffffffffffffe40\n 12321: a2 = 0xffffffffffffffff\n 12324: a0 = 0\n 12326: ecalli 7 // 'get_storage'\n 12328: a1 = s1 + 0x7ff\n 12332: a1 = a1 + 0x159\n 12336: a0 = u64 [a1 + 0x4c8]\n 12340: u64 [s1 + 0x198] = a0\n 12344: a0 = u64 [a1 + 0x4d0]\n 12348: u64 [s1 + 0x190] = a0\n 12352: a0 = u64 [a1 + 0x4d8]\n 12356: u64 [s1 + 0x188] = a0\n 12360: a0 = u64 [a1 + 0x4e0]\n 12364: u64 [s1 + 0x180] = a0\n 12368: a0 = s1 + 0x1000\n 12372: i32 a0 = a0 + 0xfffffffffffffc60\n 12376: ecalli 9 // 'now'\n 12378: fallthrough\n      : @210 (gas: 22)\n 12379: a4 = s1 + 0x7ff\n 12383: a4 = a4 + 0x159\n 12387: a0 = u64 [a4 + 0x320]\n 12391: t1 = u64 [a4 + 0x308]\n 12395: t0 = u64 [a4 + 0x318]\n 12399: a3 = u64 [a4 + 0x310]\n 12403: a1 = u64 [s1 + 0x180]\n 12407: a2 = a0 ^ a1\n 12410: a1 = a0 <u a1\n 12413: a0 = u64 [s1 + 0x188]\n 12417: a5 = t0 <u a0\n 12420: a5 = a1 if a2 != 0\n 12423: a1 = u64 [s1 + 0x190]\n 12427: t2 = a3 ^ a1\n 12430: a3 = a3 <u a1\n 12433: a1 = u64 [s1 + 0x198]\n 12437: a1 = t1 <u a1\n 12440: a1 = a3 if t2 != 0\n 12443: a0 = t0 ^ a0\n 12446: a0 = a0 | a2\n 12449: a1 = a5 if a0 != 0\n 12452: jump @212 if a1 == 0\n      : @211 (gas: 1)\n 12455: jump @371\n      : @212 (gas: 50)\n 12458: a1 = u64 [s1 + 0x1c0]\n 12462: a0 = a1 + 0x6\n 12465: a1 = a0 <u a1\n 12468: a3 = u64 [s1 + 0x1c8]\n 12472: a2 = a3 + a1\n 12475: a3 = a2 <u a3\n 12478: a3 = a1 if a1 == 0\n 12481: a1 = u64 [s1 + 0x1d0]\n 12485: a3 = a3 + a1\n 12488: a1 = a3 <u a1\n 12491: a5 = u64 [s1 + 0x1d8]\n 12495: a1 = a1 + a5\n 12498: u64 [a4 + 0x4a8] = a0\n 12502: u64 [a4 + 0x4b0] = a2\n 12506: u64 [a4 + 0x4b8] = a3\n 12510: u64 [a4 + 0x4c0] = a1\n 12514: u64 [a4 + 1248] = 0\n 12518: u64 [a4 + 1240] = 0\n 12522: u64 [a4 + 1232] = 0\n 12526: u64 [a4 + 1224] = 0\n 12530: u32 [a4 + 1256] = 0x20\n 12535: a0 = s1 + 0x1000\n 12539: i32 a1 = a0 + 0xfffffffffffffe00\n 12543: a0 = s1 + 0x1000\n 12547: i32 a3 = a0 + 0xfffffffffffffe20\n 12551: a0 = s1 + 0x1000\n 12555: i32 a4 = a0 + 0xfffffffffffffe40\n 12559: a2 = 0xffffffffffffffff\n 12562: a0 = 0\n 12564: ecalli 7 // 'get_storage'\n 12566: a0 = s1 + 0x7ff\n 12570: a0 = a0 + 0x159\n 12574: a0 = u64 [a0 + 0x4c8]\n 12578: u64 [s1 + 0x198] = a0\n 12582: a0 = s1 + 0x7ff\n 12586: a0 = a0 + 0x159\n 12590: a0 = u64 [a0 + 0x4d0]\n 12594: u64 [s1 + 0x190] = a0\n 12598: a0 = s1 + 0x7ff\n 12602: a0 = a0 + 0x159\n 12606: a0 = u64 [a0 + 0x4d8]\n 12610: u64 [s1 + 0x188] = a0\n 12614: a0 = s1 + 0x7ff\n 12618: a0 = a0 + 0x159\n 12622: a0 = u64 [a0 + 0x4e0]\n 12626: u64 [s1 + 0x180] = a0\n 12630: a0 = s1 + 0x1000\n 12634: i32 a0 = a0 + 0xfffffffffffffc80\n 12638: ecalli 9 // 'now'\n 12640: fallthrough\n      : @213 (gas: 22)\n 12641: a2 = s1 + 0x7ff\n 12645: a2 = a2 + 0x159\n 12649: a0 = u64 [a2 + 0x340]\n 12653: t1 = u64 [a2 + 0x328]\n 12657: t0 = u64 [a2 + 0x338]\n 12661: a3 = u64 [a2 + 0x330]\n 12665: a1 = u64 [s1 + 0x180]\n 12669: a4 = a0 ^ a1\n 12672: a1 = a0 <u a1\n 12675: a0 = u64 [s1 + 0x188]\n 12679: a5 = t0 <u a0\n 12682: a5 = a1 if a4 != 0\n 12685: a1 = u64 [s1 + 0x190]\n 12689: t2 = a3 ^ a1\n 12692: a3 = a3 <u a1\n 12695: a1 = u64 [s1 + 0x198]\n 12699: a1 = t1 <u a1\n 12702: a1 = a3 if t2 != 0\n 12705: a0 = t0 ^ a0\n 12708: a0 = a0 | a4\n 12711: a1 = a5 if a0 != 0\n 12714: jump @215 if a1 != 0\n      : @214 (gas: 1)\n 12717: jump @372\n      : @215 (gas: 99)\n 12720: a0 = u64 [s1 + 0x1c0]\n 12724: a3 = a0 + 0x4\n 12727: a0 = a3 <u a0\n 12730: a1 = u64 [s1 + 0x1c8]\n 12734: a4 = a1 + a0\n 12737: a1 = a4 <u a1\n 12740: a1 = a0 if a0 == 0\n 12743: a0 = u64 [s1 + 0x1d0]\n 12747: a1 = a1 + a0\n 12750: a0 = a1 <u a0\n 12753: a5 = u64 [s1 + 0x1d8]\n 12757: a0 = a0 + a5\n 12760: u64 [s1 + 0x198] = a3\n 12764: u64 [a2 + 0x4a8] = a3\n 12768: u64 [s1 + 0x190] = a4\n 12772: u64 [a2 + 0x4b0] = a4\n 12776: u64 [s1 + 0x188] = a1\n 12780: u64 [a2 + 0x4b8] = a1\n 12784: u64 [s1 + 0x180] = a0\n 12788: u64 [a2 + 0x4c0] = a0\n 12792: u64 [a2 + 1248] = 0\n 12796: u64 [a2 + 1240] = 0\n 12800: u64 [a2 + 1232] = 0\n 12804: u64 [a2 + 1224] = 0\n 12808: u32 [a2 + 1256] = 0x20\n 12813: a0 = s1 + 0x1000\n 12817: i32 a1 = a0 + 0xfffffffffffffe00\n 12821: a0 = s1 + 0x1000\n 12825: i32 a3 = a0 + 0xfffffffffffffe20\n 12829: a0 = s1 + 0x1000\n 12833: i32 a4 = a0 + 0xfffffffffffffe40\n 12837: a2 = 0xffffffffffffffff\n 12840: a0 = 0\n 12842: ecalli 7 // 'get_storage'\n 12844: a1 = u64 [s1 + 0x1c0]\n 12848: a0 = a1 + 0x3\n 12851: a1 = a0 <u a1\n 12854: a3 = u64 [s1 + 0x1c8]\n 12858: a2 = a3 + a1\n 12861: a3 = a2 <u a3\n 12864: a3 = a1 if a1 == 0\n 12867: a1 = u64 [s1 + 0x1d0]\n 12871: a3 = a3 + a1\n 12874: a1 = a3 <u a1\n 12877: a4 = u64 [s1 + 0x1d8]\n 12881: a1 = a1 + a4\n 12884: a4 = s1 + 0x7ff\n 12888: a4 = a4 + 0x159\n 12892: u64 [a4 + 0x4c0] = a1\n 12896: a1 = s1 + 0x7ff\n 12900: a1 = a1 + 0x159\n 12904: a1 = u64 [a1 + 0x4c8]\n 12908: u64 [s1 + 0x178] = a1\n 12912: a1 = s1 + 0x7ff\n 12916: a1 = a1 + 0x159\n 12920: u64 [a1 + 0x4b8] = a3\n 12924: a1 = s1 + 0x7ff\n 12928: a1 = a1 + 0x159\n 12932: a1 = u64 [a1 + 0x4d0]\n 12936: u64 [s1 + 0x170] = a1\n 12940: a1 = s1 + 0x7ff\n 12944: a1 = a1 + 0x159\n 12948: u64 [a1 + 0x4b0] = a2\n 12952: a1 = s1 + 0x7ff\n 12956: a1 = a1 + 0x159\n 12960: a1 = u64 [a1 + 0x4d8]\n 12964: u64 [s1 + 0x168] = a1\n 12968: a1 = s1 + 0x7ff\n 12972: a1 = a1 + 0x159\n 12976: u64 [a1 + 0x4a8] = a0\n 12980: a0 = s1 + 0x7ff\n 12984: a0 = a0 + 0x159\n 12988: a0 = u64 [a0 + 0x4e0]\n 12992: u64 [s1 + 0x160] = a0\n 12996: a0 = s1 + 0x7ff\n 13000: a0 = a0 + 0x159\n 13004: u64 [a0 + 1248] = 0\n 13008: a0 = s1 + 0x7ff\n 13012: a0 = a0 + 0x159\n 13016: u64 [a0 + 1240] = 0\n 13020: a0 = s1 + 0x7ff\n 13024: a0 = a0 + 0x159\n 13028: u64 [a0 + 1232] = 0\n 13032: a0 = s1 + 0x7ff\n 13036: a0 = a0 + 0x159\n 13040: u64 [a0 + 1224] = 0\n 13044: a0 = s1 + 0x7ff\n 13048: a0 = a0 + 0x159\n 13052: u32 [a0 + 1256] = 0x20\n 13057: a0 = s1 + 0x1000\n 13061: i32 a1 = a0 + 0xfffffffffffffe00\n 13065: a0 = s1 + 0x1000\n 13069: i32 a3 = a0 + 0xfffffffffffffe20\n 13073: a0 = s1 + 0x1000\n 13077: i32 a4 = a0 + 0xfffffffffffffe40\n 13081: a2 = 0xffffffffffffffff\n 13084: a0 = 0\n 13086: ecalli 7 // 'get_storage'\n 13088: fallthrough\n      : @216 (gas: 22)\n 13089: t0 = s1 + 0x7ff\n 13093: t0 = t0 + 0x159\n 13097: a0 = u64 [t0 + 0x4e0]\n 13101: t1 = u64 [t0 + 0x4c8]\n 13105: a2 = u64 [t0 + 0x4d8]\n 13109: a3 = u64 [t0 + 0x4d0]\n 13113: a1 = u64 [s1 + 0x160]\n 13117: a4 = a1 ^ a0\n 13120: a1 = a1 <u a0\n 13123: a0 = u64 [s1 + 0x168]\n 13127: a5 = a0 <u a2\n 13130: a5 = a1 if a4 != 0\n 13133: a1 = u64 [s1 + 0x170]\n 13137: t2 = a1 ^ a3\n 13140: a3 = a1 <u a3\n 13143: a1 = u64 [s1 + 0x178]\n 13147: a1 = a1 <u t1\n 13150: a1 = a3 if t2 != 0\n 13153: a0 = a0 ^ a2\n 13156: a0 = a0 | a4\n 13159: a1 = a5 if a0 != 0\n 13162: jump @218 if a1 != 0\n      : @217 (gas: 1)\n 13165: jump @373\n      : @218 (gas: 55)\n 13168: a0 = u64 [s1 + 0x1c0]\n 13172: a2 = a0 + 0x2\n 13175: a0 = a2 <u a0\n 13178: a1 = u64 [s1 + 0x1c8]\n 13182: a3 = a1 + a0\n 13185: a1 = a3 <u a1\n 13188: a1 = a0 if a0 == 0\n 13191: a0 = u64 [s1 + 0x1d0]\n 13195: a1 = a1 + a0\n 13198: a0 = a1 <u a0\n 13201: a4 = u64 [s1 + 0x1d8]\n 13205: a0 = a0 + a4\n 13208: u64 [s1 + 0x178] = a2\n 13212: u64 [t0 + 0x4a8] = a2\n 13216: u64 [s1 + 0x170] = a3\n 13220: u64 [t0 + 0x4b0] = a3\n 13224: u64 [s1 + 0x168] = a1\n 13228: u64 [t0 + 0x4b8] = a1\n 13232: u64 [s1 + 0x160] = a0\n 13236: u64 [t0 + 0x4c0] = a0\n 13240: u64 [t0 + 1248] = 0\n 13244: u64 [t0 + 1240] = 0\n 13248: u64 [t0 + 1232] = 0\n 13252: u64 [t0 + 1224] = 0\n 13256: u32 [t0 + 1256] = 0x20\n 13261: a0 = s1 + 0x1000\n 13265: i32 a1 = a0 + 0xfffffffffffffe00\n 13269: a0 = s1 + 0x1000\n 13273: i32 a3 = a0 + 0xfffffffffffffe20\n 13277: a0 = s1 + 0x1000\n 13281: i32 a4 = a0 + 0xfffffffffffffe40\n 13285: a2 = 0xffffffffffffffff\n 13288: a0 = 0\n 13290: ecalli 7 // 'get_storage'\n 13292: a1 = s1 + 0x7ff\n 13296: a1 = a1 + 0x159\n 13300: a0 = u64 [a1 + 0x4c8]\n 13304: u64 [s1 + 0x158] = a0\n 13308: a0 = u64 [a1 + 0x4d8]\n 13312: u64 [s1 + 0x150] = a0\n 13316: a0 = u64 [a1 + 0x4d0]\n 13320: u64 [s1 + 0x148] = a0\n 13324: a0 = u64 [a1 + 0x4e0]\n 13328: u64 [s1 + 0x140] = a0\n 13332: a0 = sp + 0xffffffffffffffe0\n 13335: a0 = a0 & 0xffffffffffffffe0\n 13338: u64 [s1 + 0x138] = a0\n 13342: sp = a0\n 13344: u64 [a0 + 24] = 0\n 13347: u64 [a0 + 16] = 0\n 13350: u64 [a0 + 8] = 0\n 13353: u64 [a0 + 0] = 0\n 13355: i32 a0 = a0 + 0\n 13357: ecalli 16 // 'value_transferred'\n 13359: fallthrough\n      : @219 (gas: 17)\n 13360: a3 = u64 [s1 + 0x138]\n 13364: a0 = u64 [a3 + 0x18]\n 13367: a1 = u64 [a3 + 0x8]\n 13370: a2 = u64 [a3]\n 13372: a3 = u64 [a3 + 0x10]\n 13375: a4 = u64 [s1 + 0x140]\n 13379: a0 = a0 ^ a4\n 13382: a4 = u64 [s1 + 0x148]\n 13386: a1 = a1 ^ a4\n 13389: a0 = a0 | a1\n 13392: a1 = u64 [s1 + 0x150]\n 13396: a1 = a1 ^ a3\n 13399: a3 = u64 [s1 + 0x158]\n 13403: a2 = a2 ^ a3\n 13406: a1 = a1 | a2\n 13409: a0 = a0 | a1\n 13412: jump @221 if a0 == 0\n      : @220 (gas: 1)\n 13415: jump @374\n      : @221 (gas: 39)\n 13418: a0 = u64 [s1 + 0x1c0]\n 13422: a1 = a0 + 0x7\n 13425: u64 [s1 + 0x158] = a1\n 13429: a0 = a1 <u a0\n 13432: a1 = u64 [s1 + 0x1c8]\n 13436: a2 = a1 + a0\n 13439: u64 [s1 + 0x1c0] = a2\n 13443: a1 = a2 <u a1\n 13446: a1 = a0 if a0 == 0\n 13449: a0 = u64 [s1 + 0x1d0]\n 13453: a1 = a1 + a0\n 13456: u64 [s1 + 0x1c8] = a1\n 13460: a0 = a1 <u a0\n 13463: a1 = u64 [s1 + 0x1d8]\n 13467: a0 = a0 + a1\n 13470: u64 [s1 + 0x1d8] = a0\n 13474: a0 = s1 + 0x1000\n 13478: i32 a0 = a0 + 0xfffffffffffffca0\n 13482: ecalli 5 // 'caller'\n 13484: a2 = s1 + 0x7ff\n 13488: a2 = a2 + 0x159\n 13492: a0 = u64 [a2 + 0x350]\n 13496: a1 = i32 [a2 + 0x358]\n 13500: a3 = u64 [a2 + 0x348]\n 13504: u64 [s1 + 0x150] = a3\n 13508: a0 = reverse a0\n 13510: a2 = a0 << 0x20\n 13513: a1 = reverse a1\n 13515: a1 = a1 >> 0x20\n 13518: a1 = a1 | a2\n 13521: u64 [s1 + 0x1d0] = a1\n 13525: a0 = a0 >> 0x20\n 13528: a1 = reverse a3\n 13530: a1 = a1 << 0x20\n 13533: a0 = a0 | a1\n 13536: u64 [s1 + 0x148] = a0\n 13540: a1 = 0x20\n 13543: a0 = 0\n 13545: ra = 106, jump @0\n      : @222 [@dyn 53] (gas: 57)\n 13550: a1 = u64 [s1 + 0x148]\n 13554: a1 = reverse a1\n 13556: a2 = u64 [s1 + 0x1d0]\n 13560: a2 = reverse a2\n 13562: a4 = u64 [s1 + 0x150]\n 13566: a3 = a4 >> 0x18\n 13569: u8 [a0 + 0xf] = a3\n 13572: a3 = a4 >> 0x10\n 13575: u8 [a0 + 0xe] = a3\n 13578: a3 = a4 >> 0x8\n 13581: u8 [a0 + 0xd] = a3\n 13584: u8 [a0 + 0xc] = a4\n 13587: u8 [a0 + 11] = 0\n 13590: u8 [a0 + 10] = 0\n 13593: u8 [a0 + 9] = 0\n 13596: u8 [a0 + 8] = 0\n 13599: u8 [a0 + 7] = 0\n 13602: u8 [a0 + 6] = 0\n 13605: u8 [a0 + 5] = 0\n 13608: u8 [a0 + 4] = 0\n 13611: u8 [a0 + 3] = 0\n 13614: u8 [a0 + 2] = 0\n 13617: u8 [a0 + 1] = 0\n 13620: u8 [a0 + 0] = 0\n 13622: u8 [a0 + 0x18] = a2\n 13625: u8 [a0 + 0x10] = a1\n 13628: a3 = a2 >> 0x38\n 13631: u8 [a0 + 0x1f] = a3\n 13634: a3 = a2 >> 0x30\n 13637: u8 [a0 + 0x1e] = a3\n 13640: a3 = a2 >> 0x28\n 13643: u8 [a0 + 0x1d] = a3\n 13646: a3 = a2 >> 0x20\n 13649: u8 [a0 + 0x1c] = a3\n 13652: a3 = a2 >> 0x18\n 13655: u8 [a0 + 0x1b] = a3\n 13658: a3 = a2 >> 0x10\n 13661: u8 [a0 + 0x1a] = a3\n 13664: a2 = a2 >> 0x8\n 13667: u8 [a0 + 0x19] = a2\n 13670: a2 = a1 >> 0x38\n 13673: u8 [a0 + 0x17] = a2\n 13676: a2 = a1 >> 0x30\n 13679: u8 [a0 + 0x16] = a2\n 13682: a2 = a1 >> 0x28\n 13685: u8 [a0 + 0x15] = a2\n 13688: a2 = a1 >> 0x20\n 13691: u8 [a0 + 0x14] = a2\n 13694: a2 = a1 >> 0x18\n 13697: u8 [a0 + 0x13] = a2\n 13700: a2 = a1 >> 0x10\n 13703: u8 [a0 + 0x12] = a2\n 13706: a1 = a1 >> 0x8\n 13709: u8 [a0 + 0x11] = a1\n 13712: a0 = 0x20\n 13715: a1 = 0x20\n 13718: ra = 108, jump @0\n      : @223 [@dyn 54] (gas: 103)\n 13723: a1 = u64 [s1 + 0x1d8]\n 13727: a1 = reverse a1\n 13729: a2 = u64 [s1 + 0x1c8]\n 13733: a2 = reverse a2\n 13735: a3 = u64 [s1 + 0x1c0]\n 13739: a3 = reverse a3\n 13741: a4 = u64 [s1 + 0x158]\n 13745: a4 = reverse a4\n 13747: a5 = a4 >> 0x38\n 13750: u64 [s1 + 0x158] = a5\n 13754: u8 [a0 + 0x1f] = a5\n 13757: a5 = a4 >> 0x30\n 13760: u64 [s1 + 0x150] = a5\n 13764: u8 [a0 + 0x1e] = a5\n 13767: a5 = a4 >> 0x28\n 13770: u64 [s1 + 0x148] = a5\n 13774: u8 [a0 + 0x1d] = a5\n 13777: a5 = a4 >> 0x20\n 13780: u64 [s1 + 0x140] = a5\n 13784: u8 [a0 + 0x1c] = a5\n 13787: a5 = a4 >> 0x18\n 13790: u64 [s1 + 0x138] = a5\n 13794: u8 [a0 + 0x1b] = a5\n 13797: a5 = a4 >> 0x10\n 13800: u64 [s1 + 0x130] = a5\n 13804: u8 [a0 + 0x1a] = a5\n 13807: a5 = a4 >> 0x8\n 13810: u64 [s1 + 0x128] = a5\n 13814: u8 [a0 + 0x19] = a5\n 13817: u64 [s1 + 0x1c0] = a4\n 13821: u8 [a0 + 0x18] = a4\n 13824: a4 = a3 >> 0x38\n 13827: u64 [s1 + 0x120] = a4\n 13831: u8 [a0 + 0x17] = a4\n 13834: a4 = a3 >> 0x30\n 13837: u64 [s1 + 0x118] = a4\n 13841: u8 [a0 + 0x16] = a4\n 13844: a4 = a3 >> 0x28\n 13847: u64 [s1 + 0x110] = a4\n 13851: u8 [a0 + 0x15] = a4\n 13854: a4 = a3 >> 0x20\n 13857: u64 [s1 + 0x108] = a4\n 13861: u8 [a0 + 0x14] = a4\n 13864: a4 = a3 >> 0x18\n 13867: u64 [s1 + 0x100] = a4\n 13871: u8 [a0 + 0x13] = a4\n 13874: a4 = a3 >> 0x10\n 13877: u64 [s1 + 0xf8] = a4\n 13881: u8 [a0 + 0x12] = a4\n 13884: a4 = a3 >> 0x8\n 13887: u64 [s1 + 0xf0] = a4\n 13891: u8 [a0 + 0x11] = a4\n 13894: u64 [s1 + 0x1c8] = a3\n 13898: u8 [a0 + 0x10] = a3\n 13901: a3 = a2 >> 0x38\n 13904: u64 [s1 + 0xe8] = a3\n 13908: u8 [a0 + 0xf] = a3\n 13911: a3 = a2 >> 0x30\n 13914: u64 [s1 + 0xe0] = a3\n 13918: u8 [a0 + 0xe] = a3\n 13921: a3 = a2 >> 0x28\n 13924: u64 [s1 + 0xd8] = a3\n 13928: u8 [a0 + 0xd] = a3\n 13931: a3 = a2 >> 0x20\n 13934: u64 [s1 + 0xd0] = a3\n 13938: u8 [a0 + 0xc] = a3\n 13941: a3 = a2 >> 0x18\n 13944: u64 [s1 + 0xc8] = a3\n 13948: u8 [a0 + 0xb] = a3\n 13951: a3 = a2 >> 0x10\n 13954: u64 [s1 + 0xc0] = a3\n 13958: u8 [a0 + 0xa] = a3\n 13961: a3 = a2 >> 0x8\n 13964: u64 [s1 + 0xb8] = a3\n 13968: u8 [a0 + 0x9] = a3\n 13971: u64 [s1 + 0x1d0] = a2\n 13975: u8 [a0 + 0x8] = a2\n 13978: a2 = a1 >> 0x38\n 13981: u64 [s1 + 0xb0] = a2\n 13985: u8 [a0 + 0x7] = a2\n 13988: a2 = a1 >> 0x30\n 13991: u64 [s1 + 0xa8] = a2\n 13995: u8 [a0 + 0x6] = a2\n 13998: a2 = a1 >> 0x28\n 14001: u64 [s1 + 0xa0] = a2\n 14005: u8 [a0 + 0x5] = a2\n 14008: a2 = a1 >> 0x20\n 14011: u64 [s1 + 0x98] = a2\n 14015: u8 [a0 + 0x4] = a2\n 14018: a2 = a1 >> 0x18\n 14021: u64 [s1 + 0x90] = a2\n 14025: u8 [a0 + 0x3] = a2\n 14028: a2 = a1 >> 0x10\n 14031: u64 [s1 + 0x88] = a2\n 14035: u8 [a0 + 0x2] = a2\n 14038: a2 = a1 >> 0x8\n 14041: u64 [s1 + 0x80] = a2\n 14045: u8 [a0 + 0x1] = a2\n 14048: u64 [s1 + 0x1d8] = a1\n 14052: u8 [a0] = a1\n 14054: a1 = 0x40\n 14057: a0 = 0\n 14059: ra = 110, jump @0\n      : @224 [@dyn 55] (gas: 38)\n 14064: a1 = sp + 0xffffffffffffffe0\n 14067: a1 = a1 & 0xffffffffffffffe0\n 14070: u64 [s1 + 0x78] = a1\n 14073: sp = a1\n 14075: i32 a0 = a0 + 0\n 14077: i32 a2 = a1 + 0\n 14079: a1 = 0x40\n 14082: ecalli 8 // 'hash_keccak_256'\n 14084: a3 = u64 [s1 + 0x78]\n 14087: a0 = u64 [a3 + 0x18]\n 14090: a1 = u64 [a3 + 0x10]\n 14093: a2 = u64 [a3 + 0x8]\n 14096: a3 = u64 [a3]\n 14098: a0 = reverse a0\n 14100: a1 = reverse a1\n 14102: a2 = reverse a2\n 14104: a3 = reverse a3\n 14106: a4 = s1 + 0x7ff\n 14110: a4 = a4 + 0x159\n 14114: u64 [a4 + 0x4c0] = a3\n 14118: u64 [a4 + 0x4b8] = a2\n 14122: u64 [a4 + 0x4b0] = a1\n 14126: u64 [a4 + 0x4a8] = a0\n 14130: u64 [a4 + 1248] = 0\n 14134: u64 [a4 + 1240] = 0\n 14138: u64 [a4 + 1232] = 0\n 14142: u64 [a4 + 1224] = 0\n 14146: u32 [a4 + 1256] = 0x20\n 14151: a0 = s1 + 0x1000\n 14155: i32 a1 = a0 + 0xfffffffffffffe00\n 14159: a0 = s1 + 0x1000\n 14163: i32 a3 = a0 + 0xfffffffffffffe20\n 14167: a0 = s1 + 0x1000\n 14171: i32 a4 = a0 + 0xfffffffffffffe40\n 14175: a2 = 0xffffffffffffffff\n 14178: a0 = 0\n 14180: ecalli 7 // 'get_storage'\n 14182: fallthrough\n      : @225 (gas: 4)\n 14183: a0 = s1 + 0x7ff\n 14187: a0 = a0 + 0x159\n 14191: a0 = u8 [a0 + 0x4c8]\n 14195: jump @227 if a0 == 0\n      : @226 (gas: 1)\n 14198: jump @375\n      : @227 (gas: 23)\n 14201: a0 = s1 + 0x1000\n 14205: i32 a0 = a0 + 0xfffffffffffffcc0\n 14209: ecalli 5 // 'caller'\n 14211: a2 = s1 + 0x7ff\n 14215: a2 = a2 + 0x159\n 14219: a0 = u64 [a2 + 0x370]\n 14223: a1 = i32 [a2 + 0x378]\n 14227: a3 = u64 [a2 + 0x368]\n 14231: u64 [s1 + 0x70] = a3\n 14234: a0 = reverse a0\n 14236: a2 = a0 << 0x20\n 14239: a1 = reverse a1\n 14241: a1 = a1 >> 0x20\n 14244: a1 = a1 | a2\n 14247: u64 [s1 + 0x78] = a1\n 14250: a0 = a0 >> 0x20\n 14253: a1 = reverse a3\n 14255: a1 = a1 << 0x20\n 14258: a0 = a0 | a1\n 14261: u64 [s1 + 0x68] = a0\n 14264: a1 = 0x20\n 14267: a0 = 0\n 14269: ra = 112, jump @0\n      : @228 [@dyn 56] (gas: 57)\n 14274: a1 = u64 [s1 + 0x68]\n 14277: a1 = reverse a1\n 14279: a2 = u64 [s1 + 0x78]\n 14282: a2 = reverse a2\n 14284: a4 = u64 [s1 + 0x70]\n 14287: a3 = a4 >> 0x18\n 14290: u8 [a0 + 0xf] = a3\n 14293: a3 = a4 >> 0x10\n 14296: u8 [a0 + 0xe] = a3\n 14299: a3 = a4 >> 0x8\n 14302: u8 [a0 + 0xd] = a3\n 14305: u8 [a0 + 0xc] = a4\n 14308: u8 [a0 + 11] = 0\n 14311: u8 [a0 + 10] = 0\n 14314: u8 [a0 + 9] = 0\n 14317: u8 [a0 + 8] = 0\n 14320: u8 [a0 + 7] = 0\n 14323: u8 [a0 + 6] = 0\n 14326: u8 [a0 + 5] = 0\n 14329: u8 [a0 + 4] = 0\n 14332: u8 [a0 + 3] = 0\n 14335: u8 [a0 + 2] = 0\n 14338: u8 [a0 + 1] = 0\n 14341: u8 [a0 + 0] = 0\n 14343: u8 [a0 + 0x18] = a2\n 14346: u8 [a0 + 0x10] = a1\n 14349: a3 = a2 >> 0x38\n 14352: u8 [a0 + 0x1f] = a3\n 14355: a3 = a2 >> 0x30\n 14358: u8 [a0 + 0x1e] = a3\n 14361: a3 = a2 >> 0x28\n 14364: u8 [a0 + 0x1d] = a3\n 14367: a3 = a2 >> 0x20\n 14370: u8 [a0 + 0x1c] = a3\n 14373: a3 = a2 >> 0x18\n 14376: u8 [a0 + 0x1b] = a3\n 14379: a3 = a2 >> 0x10\n 14382: u8 [a0 + 0x1a] = a3\n 14385: a2 = a2 >> 0x8\n 14388: u8 [a0 + 0x19] = a2\n 14391: a2 = a1 >> 0x38\n 14394: u8 [a0 + 0x17] = a2\n 14397: a2 = a1 >> 0x30\n 14400: u8 [a0 + 0x16] = a2\n 14403: a2 = a1 >> 0x28\n 14406: u8 [a0 + 0x15] = a2\n 14409: a2 = a1 >> 0x20\n 14412: u8 [a0 + 0x14] = a2\n 14415: a2 = a1 >> 0x18\n 14418: u8 [a0 + 0x13] = a2\n 14421: a2 = a1 >> 0x10\n 14424: u8 [a0 + 0x12] = a2\n 14427: a1 = a1 >> 0x8\n 14430: u8 [a0 + 0x11] = a1\n 14433: a0 = 0x20\n 14436: a1 = 0x20\n 14439: ra = 114, jump @0\n      : @229 [@dyn 57] (gas: 67)\n 14444: a1 = u64 [s1 + 0x158]\n 14448: u8 [a0 + 0x1f] = a1\n 14451: a1 = u64 [s1 + 0x150]\n 14455: u8 [a0 + 0x1e] = a1\n 14458: a1 = u64 [s1 + 0x148]\n 14462: u8 [a0 + 0x1d] = a1\n 14465: a1 = u64 [s1 + 0x140]\n 14469: u8 [a0 + 0x1c] = a1\n 14472: a1 = u64 [s1 + 0x138]\n 14476: u8 [a0 + 0x1b] = a1\n 14479: a1 = u64 [s1 + 0x130]\n 14483: u8 [a0 + 0x1a] = a1\n 14486: a1 = u64 [s1 + 0x128]\n 14490: u8 [a0 + 0x19] = a1\n 14493: a1 = u64 [s1 + 0x1c0]\n 14497: u8 [a0 + 0x18] = a1\n 14500: a1 = u64 [s1 + 0x120]\n 14504: u8 [a0 + 0x17] = a1\n 14507: a1 = u64 [s1 + 0x118]\n 14511: u8 [a0 + 0x16] = a1\n 14514: a1 = u64 [s1 + 0x110]\n 14518: u8 [a0 + 0x15] = a1\n 14521: a1 = u64 [s1 + 0x108]\n 14525: u8 [a0 + 0x14] = a1\n 14528: a1 = u64 [s1 + 0x100]\n 14532: u8 [a0 + 0x13] = a1\n 14535: a1 = u64 [s1 + 0xf8]\n 14539: u8 [a0 + 0x12] = a1\n 14542: a1 = u64 [s1 + 0xf0]\n 14546: u8 [a0 + 0x11] = a1\n 14549: a1 = u64 [s1 + 0x1c8]\n 14553: u8 [a0 + 0x10] = a1\n 14556: a1 = u64 [s1 + 0xe8]\n 14560: u8 [a0 + 0xf] = a1\n 14563: a1 = u64 [s1 + 0xe0]\n 14567: u8 [a0 + 0xe] = a1\n 14570: a1 = u64 [s1 + 0xd8]\n 14574: u8 [a0 + 0xd] = a1\n 14577: a1 = u64 [s1 + 0xd0]\n 14581: u8 [a0 + 0xc] = a1\n 14584: a1 = u64 [s1 + 0xc8]\n 14588: u8 [a0 + 0xb] = a1\n 14591: a1 = u64 [s1 + 0xc0]\n 14595: u8 [a0 + 0xa] = a1\n 14598: a1 = u64 [s1 + 0xb8]\n 14602: u8 [a0 + 0x9] = a1\n 14605: a1 = u64 [s1 + 0x1d0]\n 14609: u8 [a0 + 0x8] = a1\n 14612: a1 = u64 [s1 + 0xb0]\n 14616: u8 [a0 + 0x7] = a1\n 14619: a1 = u64 [s1 + 0xa8]\n 14623: u8 [a0 + 0x6] = a1\n 14626: a1 = u64 [s1 + 0xa0]\n 14630: u8 [a0 + 0x5] = a1\n 14633: a1 = u64 [s1 + 0x98]\n 14637: u8 [a0 + 0x4] = a1\n 14640: a1 = u64 [s1 + 0x90]\n 14644: u8 [a0 + 0x3] = a1\n 14647: a1 = u64 [s1 + 0x88]\n 14651: u8 [a0 + 0x2] = a1\n 14654: a1 = u64 [s1 + 0x80]\n 14658: u8 [a0 + 0x1] = a1\n 14661: a1 = u64 [s1 + 0x1d8]\n 14665: u8 [a0] = a1\n 14667: a1 = 0x40\n 14670: a0 = 0\n 14672: ra = 116, jump @0\n      : @230 [@dyn 58] (gas: 94)\n 14677: a1 = sp + 0xffffffffffffffe0\n 14680: a1 = a1 & 0xffffffffffffffe0\n 14683: u64 [s1 + 0x1d8] = a1\n 14687: sp = a1\n 14689: i32 a0 = a0 + 0\n 14691: i32 a2 = a1 + 0\n 14693: a1 = 0x40\n 14696: ecalli 8 // 'hash_keccak_256'\n 14698: a3 = u64 [s1 + 0x1d8]\n 14702: a0 = u64 [a3 + 0x18]\n 14705: a1 = u64 [a3 + 0x10]\n 14708: a2 = u64 [a3 + 0x8]\n 14711: a3 = u64 [a3]\n 14713: a4 = reverse a0\n 14715: u64 [s1 + 0x1d8] = a4\n 14719: a1 = reverse a1\n 14721: u64 [s1 + 0x1d0] = a1\n 14725: a2 = reverse a2\n 14727: u64 [s1 + 0x1c8] = a2\n 14731: a3 = reverse a3\n 14733: u64 [s1 + 0x1c0] = a3\n 14737: a0 = s1 + 0x7ff\n 14741: a0 = a0 + 0x159\n 14745: u64 [a0 + 0x4c0] = a3\n 14749: u64 [a0 + 0x4b8] = a2\n 14753: u64 [a0 + 0x4b0] = a1\n 14757: u64 [a0 + 0x4a8] = a4\n 14761: u64 [a0 + 1248] = 0\n 14765: u64 [a0 + 1240] = 0\n 14769: u64 [a0 + 1232] = 0\n 14773: u64 [a0 + 1224] = 0\n 14777: u32 [a0 + 1256] = 0x20\n 14782: a0 = s1 + 0x1000\n 14786: i32 a1 = a0 + 0xfffffffffffffe00\n 14790: a0 = s1 + 0x1000\n 14794: i32 a3 = a0 + 0xfffffffffffffe20\n 14798: a0 = s1 + 0x1000\n 14802: i32 a4 = a0 + 0xfffffffffffffe40\n 14806: a2 = 0xffffffffffffffff\n 14809: a0 = 0\n 14811: ecalli 7 // 'get_storage'\n 14813: a4 = s1 + 0x7ff\n 14817: a4 = a4 + 0x159\n 14821: a0 = u64 [a4 + 0x4c8]\n 14825: a1 = u64 [a4 + 0x4d0]\n 14829: a2 = u64 [a4 + 0x4d8]\n 14833: a3 = u64 [a4 + 0x4e0]\n 14837: a0 = a0 & 0xffffffffffffff00\n 14841: a0 = a0 | 0x1\n 14844: a5 = u64 [s1 + 0x1c0]\n 14848: u64 [a4 + 0x4c0] = a5\n 14852: a5 = u64 [s1 + 0x1c8]\n 14856: u64 [a4 + 0x4b8] = a5\n 14860: a5 = u64 [s1 + 0x1d0]\n 14864: u64 [a4 + 0x4b0] = a5\n 14868: a5 = u64 [s1 + 0x1d8]\n 14872: u64 [a4 + 0x4a8] = a5\n 14876: u64 [a4 + 0x4e0] = a3\n 14880: u64 [a4 + 0x4d8] = a2\n 14884: u64 [a4 + 0x4d0] = a1\n 14888: u64 [a4 + 0x4c8] = a0\n 14892: a0 = s1 + 0x1000\n 14896: i32 a1 = a0 + 0xfffffffffffffe00\n 14900: a0 = s1 + 0x1000\n 14904: i32 a3 = a0 + 0xfffffffffffffe20\n 14908: a2 = 0xffffffffffffffff\n 14911: a4 = 0x20\n 14914: a0 = 0\n 14916: ecalli 15 // 'set_storage'\n 14918: a0 = s1 + 0x7ff\n 14922: a0 = a0 + 0x159\n 14926: a1 = u64 [s1 + 0x180]\n 14930: u64 [a0 + 0x4c0] = a1\n 14934: a1 = u64 [s1 + 0x188]\n 14938: u64 [a0 + 0x4b8] = a1\n 14942: a1 = u64 [s1 + 0x190]\n 14946: u64 [a0 + 0x4b0] = a1\n 14950: a1 = u64 [s1 + 0x198]\n 14954: u64 [a0 + 0x4a8] = a1\n 14958: u64 [a0 + 1248] = 0\n 14962: u64 [a0 + 1240] = 0\n 14966: u64 [a0 + 1232] = 0\n 14970: u64 [a0 + 1224] = 0\n 14974: u32 [a0 + 1256] = 0x20\n 14979: a0 = s1 + 0x1000\n 14983: i32 a1 = a0 + 0xfffffffffffffe00\n 14987: a0 = s1 + 0x1000\n 14991: i32 a3 = a0 + 0xfffffffffffffe20\n 14995: a0 = s1 + 0x1000\n 14999: i32 a4 = a0 + 0xfffffffffffffe40\n 15003: a2 = 0xffffffffffffffff\n 15006: a0 = 0\n 15008: ecalli 7 // 'get_storage'\n 15010: fallthrough\n      : @231 (gas: 18)\n 15011: t0 = s1 + 0x7ff\n 15015: t0 = t0 + 0x159\n 15019: a0 = u64 [t0 + 0x4c8]\n 15023: a3 = u64 [t0 + 0x4e0]\n 15027: a1 = u64 [t0 + 0x4d0]\n 15031: a4 = u64 [t0 + 0x4d8]\n 15035: a0 = a0 + 0x1\n 15038: a2 = a0 <u 0x1\n 15041: a1 = a1 + a2\n 15044: a2 = a0 | a1\n 15047: a2 = a2 <u 0x1\n 15050: a2 = a2 + a4\n 15053: a4 = a2 <u a4\n 15056: a3 = a3 + a4\n 15059: a4 = a1 | a3\n 15062: a5 = a0 | a2\n 15065: a4 = a4 | a5\n 15068: jump @233 if a4 != 0\n      : @232 (gas: 1)\n 15071: jump @378\n      : @233 (gas: 57)\n 15074: a4 = u64 [s1 + 0x190]\n 15078: u64 [t0 + 0x4b0] = a4\n 15082: a4 = u64 [s1 + 0x198]\n 15086: u64 [t0 + 0x4a8] = a4\n 15090: a4 = u64 [s1 + 0x188]\n 15094: u64 [t0 + 0x4b8] = a4\n 15098: a4 = u64 [s1 + 0x180]\n 15102: u64 [t0 + 0x4c0] = a4\n 15106: u64 [t0 + 0x4c8] = a0\n 15110: u64 [t0 + 0x4d0] = a1\n 15114: u64 [t0 + 0x4d8] = a2\n 15118: u64 [t0 + 0x4e0] = a3\n 15122: a0 = s1 + 0x1000\n 15126: i32 a1 = a0 + 0xfffffffffffffe00\n 15130: a0 = s1 + 0x1000\n 15134: i32 a3 = a0 + 0xfffffffffffffe20\n 15138: a2 = 0xffffffffffffffff\n 15141: a4 = 0x20\n 15144: a0 = 0\n 15146: ecalli 15 // 'set_storage'\n 15148: a0 = u64 [s1 + 0x160]\n 15152: a1 = s1 + 0x7ff\n 15156: a1 = a1 + 0x159\n 15160: u64 [a1 + 0x4c0] = a0\n 15164: a0 = u64 [s1 + 0x168]\n 15168: u64 [a1 + 0x4b8] = a0\n 15172: a0 = u64 [s1 + 0x170]\n 15176: u64 [a1 + 0x4b0] = a0\n 15180: a0 = u64 [s1 + 0x178]\n 15184: u64 [a1 + 0x4a8] = a0\n 15188: u64 [a1 + 1248] = 0\n 15192: u64 [a1 + 1240] = 0\n 15196: u64 [a1 + 1232] = 0\n 15200: u64 [a1 + 1224] = 0\n 15204: u32 [a1 + 1256] = 0x20\n 15209: a0 = s1 + 0x1000\n 15213: i32 a1 = a0 + 0xfffffffffffffe00\n 15217: a0 = s1 + 0x1000\n 15221: i32 a3 = a0 + 0xfffffffffffffe20\n 15225: a0 = s1 + 0x1000\n 15229: i32 a4 = a0 + 0xfffffffffffffe40\n 15233: a2 = 0xffffffffffffffff\n 15236: a0 = 0\n 15238: ecalli 7 // 'get_storage'\n 15240: a1 = s1 + 0x7ff\n 15244: a1 = a1 + 0x159\n 15248: a0 = u64 [a1 + 0x4e0]\n 15252: u64 [s1 + 0x1c0] = a0\n 15256: a0 = u64 [a1 + 0x4d8]\n 15260: u64 [s1 + 0x1c8] = a0\n 15264: a0 = u64 [a1 + 0x4d0]\n 15268: u64 [s1 + 0x1d0] = a0\n 15272: a0 = u64 [a1 + 0x4c8]\n 15276: u64 [s1 + 0x1d8] = a0\n 15280: a0 = 0x40\n 15283: a1 = 0x20\n 15286: ra = 118, jump @0\n      : @234 [@dyn 59] (gas: 100)\n 15291: a1 = u8 [a0 + 0x11]\n 15294: a2 = u8 [a0 + 0x10]\n 15297: a3 = u8 [a0 + 0x12]\n 15300: a4 = u8 [a0 + 0x13]\n 15303: a1 = a1 << 0x8\n 15306: a1 = a1 | a2\n 15309: a3 = a3 << 0x10\n 15312: a4 = a4 << 0x18\n 15315: a3 = a3 | a4\n 15318: a1 = a1 | a3\n 15321: a2 = u8 [a0 + 0x15]\n 15324: a3 = u8 [a0 + 0x14]\n 15327: a4 = u8 [a0 + 0x16]\n 15330: a5 = u8 [a0 + 0x17]\n 15333: a2 = a2 << 0x8\n 15336: a2 = a2 | a3\n 15339: a4 = a4 << 0x10\n 15342: a5 = a5 << 0x18\n 15345: a4 = a4 | a5\n 15348: a2 = a2 | a4\n 15351: a2 = a2 << 0x20\n 15354: t0 = a2 | a1\n 15357: a2 = u8 [a0 + 0x1]\n 15360: a3 = u8 [a0]\n 15362: a4 = u8 [a0 + 0x2]\n 15365: a5 = u8 [a0 + 0x3]\n 15368: a2 = a2 << 0x8\n 15371: a2 = a2 | a3\n 15374: a4 = a4 << 0x10\n 15377: a5 = a5 << 0x18\n 15380: a4 = a4 | a5\n 15383: a2 = a2 | a4\n 15386: a3 = u8 [a0 + 0x5]\n 15389: a4 = u8 [a0 + 0x4]\n 15392: a5 = u8 [a0 + 0x6]\n 15395: a1 = u8 [a0 + 0x7]\n 15398: a3 = a3 << 0x8\n 15401: a3 = a3 | a4\n 15404: a5 = a5 << 0x10\n 15407: a1 = a1 << 0x18\n 15410: a1 = a1 | a5\n 15413: a1 = a1 | a3\n 15416: a1 = a1 << 0x20\n 15419: t1 = a1 | a2\n 15422: a1 = u8 [a0 + 0x19]\n 15425: a3 = u8 [a0 + 0x18]\n 15428: a4 = u8 [a0 + 0x1a]\n 15431: a5 = u8 [a0 + 0x1b]\n 15434: a1 = a1 << 0x8\n 15437: a1 = a1 | a3\n 15440: a4 = a4 << 0x10\n 15443: a5 = a5 << 0x18\n 15446: a4 = a4 | a5\n 15449: a1 = a1 | a4\n 15452: a3 = u8 [a0 + 0x1d]\n 15455: a4 = u8 [a0 + 0x1c]\n 15458: a5 = u8 [a0 + 0x1e]\n 15461: a2 = u8 [a0 + 0x1f]\n 15464: a3 = a3 << 0x8\n 15467: a3 = a3 | a4\n 15470: a5 = a5 << 0x10\n 15473: a2 = a2 << 0x18\n 15476: a2 = a2 | a5\n 15479: a2 = a2 | a3\n 15482: a2 = a2 << 0x20\n 15485: a3 = a2 | a1\n 15488: a1 = u8 [a0 + 0x9]\n 15491: a2 = u8 [a0 + 0x8]\n 15494: a4 = u8 [a0 + 0xa]\n 15497: a5 = u8 [a0 + 0xb]\n 15500: a1 = a1 << 0x8\n 15503: a1 = a1 | a2\n 15506: a4 = a4 << 0x10\n 15509: a5 = a5 << 0x18\n 15512: a4 = a4 | a5\n 15515: a1 = a1 | a4\n 15518: a2 = u8 [a0 + 0xd]\n 15521: a4 = u8 [a0 + 0xc]\n 15524: a5 = u8 [a0 + 0xe]\n 15527: a0 = u8 [a0 + 0xf]\n 15530: a2 = a2 << 0x8\n 15533: a2 = a2 | a4\n 15536: a5 = a5 << 0x10\n 15539: a0 = a0 << 0x18\n 15542: a0 = a0 | a5\n 15545: a0 = a0 | a2\n 15548: a0 = a0 << 0x20\n 15551: a0 = a0 | a1\n 15554: a0 = reverse a0\n 15556: a3 = reverse a3\n 15558: a1 = reverse t1\n 15560: a2 = reverse t0\n 15562: a1 = a1 | a2\n 15565: a2 = a3 | a0\n 15568: a2 = a2 | a1\n 15571: a2 = a2 >> 0x20\n 15574: a0 = a0 | a1\n 15577: a0 = a0 << 0x20\n 15580: a0 = a0 | a2\n 15583: jump @256 if a0 != 0\n      : @235 (gas: 4)\n 15587: i32 a0 = a3 + 0\n 15589: a1 = 0x20\n 15592: u64 [s1 + 0x198] = a3\n 15596: ra = 120, jump @0\n      : @236 [@dyn 60] (gas: 112)\n 15601: a1 = u64 [s1 + 0x1c0]\n 15605: a1 = reverse a1\n 15607: a2 = u64 [s1 + 0x1c8]\n 15611: a2 = reverse a2\n 15613: a3 = u64 [s1 + 0x1d0]\n 15617: a3 = reverse a3\n 15619: a4 = u64 [s1 + 0x1d8]\n 15623: a4 = reverse a4\n 15625: a5 = a4 >> 0x38\n 15628: u8 [a0 + 0x1f] = a5\n 15631: a5 = a4 >> 0x30\n 15634: u8 [a0 + 0x1e] = a5\n 15637: a5 = a4 >> 0x28\n 15640: u8 [a0 + 0x1d] = a5\n 15643: a5 = a4 >> 0x20\n 15646: u8 [a0 + 0x1c] = a5\n 15649: a5 = a4 >> 0x18\n 15652: u8 [a0 + 0x1b] = a5\n 15655: a5 = a4 >> 0x10\n 15658: u8 [a0 + 0x1a] = a5\n 15661: a5 = a4 >> 0x8\n 15664: u8 [a0 + 0x19] = a5\n 15667: u8 [a0 + 0x18] = a4\n 15670: u8 [a0 + 0x10] = a3\n 15673: a4 = a3 >> 0x38\n 15676: u8 [a0 + 0x17] = a4\n 15679: a4 = a3 >> 0x30\n 15682: u8 [a0 + 0x16] = a4\n 15685: a4 = a3 >> 0x28\n 15688: u8 [a0 + 0x15] = a4\n 15691: a4 = a3 >> 0x20\n 15694: u8 [a0 + 0x14] = a4\n 15697: a4 = a3 >> 0x18\n 15700: u8 [a0 + 0x13] = a4\n 15703: a4 = a3 >> 0x10\n 15706: u8 [a0 + 0x12] = a4\n 15709: a3 = a3 >> 0x8\n 15712: u8 [a0 + 0x11] = a3\n 15715: u8 [a0 + 0x8] = a2\n 15718: a3 = a2 >> 0x38\n 15721: u8 [a0 + 0xf] = a3\n 15724: a3 = a2 >> 0x30\n 15727: u8 [a0 + 0xe] = a3\n 15730: a3 = a2 >> 0x28\n 15733: u8 [a0 + 0xd] = a3\n 15736: a3 = a2 >> 0x20\n 15739: u8 [a0 + 0xc] = a3\n 15742: a3 = a2 >> 0x18\n 15745: u8 [a0 + 0xb] = a3\n 15748: a3 = a2 >> 0x10\n 15751: u8 [a0 + 0xa] = a3\n 15754: a2 = a2 >> 0x8\n 15757: u8 [a0 + 0x9] = a2\n 15760: u8 [a0] = a1\n 15762: a2 = a1 >> 0x38\n 15765: u8 [a0 + 0x7] = a2\n 15768: a2 = a1 >> 0x30\n 15771: u8 [a0 + 0x6] = a2\n 15774: a2 = a1 >> 0x28\n 15777: u8 [a0 + 0x5] = a2\n 15780: a2 = a1 >> 0x20\n 15783: u8 [a0 + 0x4] = a2\n 15786: a2 = a1 >> 0x18\n 15789: u8 [a0 + 0x3] = a2\n 15792: a2 = a1 >> 0x10\n 15795: u8 [a0 + 0x2] = a2\n 15798: a1 = a1 >> 0x8\n 15801: u8 [a0 + 0x1] = a1\n 15804: a0 = s1 + 0x1000\n 15808: i32 a0 = a0 + 0xfffffffffffffce0\n 15812: ecalli 5 // 'caller'\n 15814: a2 = s1 + 0x7ff\n 15818: a2 = a2 + 0x159\n 15822: a0 = u64 [a2 + 0x390]\n 15826: a1 = i32 [a2 + 0x398]\n 15830: a2 = u64 [a2 + 0x388]\n 15834: a3 = reverse a0\n 15836: a0 = a3 << 0x20\n 15839: a1 = reverse a1\n 15841: a1 = a1 >> 0x20\n 15844: t0 = a1 | a0\n 15847: a3 = a3 >> 0x20\n 15850: a2 = reverse a2\n 15852: a1 = a2 << 0x20\n 15855: a1 = a1 | a3\n 15858: a2 = a2 >> 0x20\n 15861: u64 [s1 + 1144] = 0\n 15865: a0 = u64 [s1 + 0x1a0]\n 15869: u64 [s1 + 0x498] = a0\n 15873: a0 = u64 [s1 + 0x1a8]\n 15877: u64 [s1 + 0x490] = a0\n 15881: a0 = u64 [s1 + 0x1b0]\n 15885: u64 [s1 + 0x488] = a0\n 15889: a0 = u64 [s1 + 0x1b8]\n 15893: u64 [s1 + 0x480] = a0\n 15897: a3 = u64 [0x20020]\n 15902: a4 = u64 [0x20028]\n 15907: a5 = u64 [0x20030]\n 15912: a0 = u64 [0x20038]\n 15917: u64 [s1 + 0x4b8] = a3\n 15921: u64 [s1 + 0x4b0] = a4\n 15925: u64 [s1 + 0x4a8] = a5\n 15929: u64 [s1 + 0x4a0] = a0\n 15933: u64 [s1 + 0x470] = a2\n 15937: u64 [s1 + 0x468] = a1\n 15941: a1 = 0x20\n 15944: a2 = s1 + 0x4a0\n 15948: a3 = s1 + 0x480\n 15952: a4 = s1 + 0x460\n 15956: u64 [s1 + 0x460] = t0\n 15960: a0 = u64 [s1 + 0x198]\n 15964: ra = 122, jump @27\n      : @237 [@dyn 61] (gas: 3)\n 15969: a0 = 0\n 15971: a1 = 0\n 15973: ra = 124, jump @0\n      : @238 [@dyn 62] (gas: 5)\n 15978: i32 a1 = a0 + 0\n 15980: a0 = 0\n 15982: a2 = 0\n 15984: ecalli 13 // 'seal_return'\n 15986: fallthrough\n      : @239 (gas: 1)\n 15987: jump @241 if a0 == 192484400\n      : @240 (gas: 1)\n 15994: jump @361\n      : @241 (gas: 11)\n 15997: a0 = sp + 0xffffffffffffffe0\n 16000: a0 = a0 & 0xffffffffffffffe0\n 16003: u64 [s1 + 0x1d0] = a0\n 16007: sp = a0\n 16009: u64 [a0 + 24] = 0\n 16012: u64 [a0 + 16] = 0\n 16015: u64 [a0 + 8] = 0\n 16018: u64 [a0 + 0] = 0\n 16020: i32 a0 = a0 + 0\n 16022: ecalli 16 // 'value_transferred'\n 16024: fallthrough\n      : @242 (gas: 9)\n 16025: a3 = u64 [s1 + 0x1d0]\n 16029: a0 = u64 [a3 + 0x10]\n 16032: a1 = u64 [a3 + 0x18]\n 16035: a2 = u64 [a3 + 0x8]\n 16038: a3 = u64 [a3]\n 16040: a1 = a1 | a2\n 16043: a0 = a0 | a3\n 16046: a0 = a0 | a1\n 16049: jump @244 if a0 == 0\n      : @243 (gas: 1)\n 16052: jump @361\n      : @244 (gas: 3)\n 16055: a0 = u64 [s1 + 0x1d8]\n 16059: a0 = i32 [a0]\n 16061: jump @246 if a0 >u 35\n      : @245 (gas: 1)\n 16065: jump @361\n      : @246 (gas: 17)\n 16068: a0 = s1 + 0x1000\n 16072: i32 a0 = a0 + 0xfffffffffffffb20\n 16076: a1 = 0x4\n 16079: ecalli 3 // 'call_data_load'\n 16081: a0 = s1 + 0x7ff\n 16085: a0 = a0 + 0x159\n 16089: a1 = u64 [a0 + 0x1c8]\n 16093: u64 [s1 + 0x1d8] = a1\n 16097: a1 = u64 [a0 + 0x1d0]\n 16101: u64 [s1 + 0x1d0] = a1\n 16105: a1 = u64 [a0 + 0x1d8]\n 16109: u64 [s1 + 0x1c8] = a1\n 16113: a0 = u64 [a0 + 0x1e0]\n 16117: u64 [s1 + 0x1c0] = a0\n 16121: a1 = 0x20\n 16124: a0 = 0\n 16126: ra = 126, jump @0\n      : @247 [@dyn 63] (gas: 71)\n 16131: a1 = u64 [s1 + 0x1c0]\n 16135: a1 = reverse a1\n 16137: a2 = u64 [s1 + 0x1c8]\n 16141: a2 = reverse a2\n 16143: a3 = u64 [s1 + 0x1d0]\n 16147: a3 = reverse a3\n 16149: a4 = u64 [s1 + 0x1d8]\n 16153: a4 = reverse a4\n 16155: a5 = a4 >> 0x38\n 16158: u8 [a0 + 0x1f] = a5\n 16161: a5 = a4 >> 0x30\n 16164: u8 [a0 + 0x1e] = a5\n 16167: a5 = a4 >> 0x28\n 16170: u8 [a0 + 0x1d] = a5\n 16173: a5 = a4 >> 0x20\n 16176: u8 [a0 + 0x1c] = a5\n 16179: a5 = a4 >> 0x18\n 16182: u8 [a0 + 0x1b] = a5\n 16185: a5 = a4 >> 0x10\n 16188: u8 [a0 + 0x1a] = a5\n 16191: a5 = a4 >> 0x8\n 16194: u8 [a0 + 0x19] = a5\n 16197: u8 [a0 + 0x18] = a4\n 16200: a4 = a3 >> 0x38\n 16203: u8 [a0 + 0x17] = a4\n 16206: a4 = a3 >> 0x30\n 16209: u8 [a0 + 0x16] = a4\n 16212: a4 = a3 >> 0x28\n 16215: u8 [a0 + 0x15] = a4\n 16218: a4 = a3 >> 0x20\n 16221: u8 [a0 + 0x14] = a4\n 16224: a4 = a3 >> 0x18\n 16227: u8 [a0 + 0x13] = a4\n 16230: a4 = a3 >> 0x10\n 16233: u8 [a0 + 0x12] = a4\n 16236: a4 = a3 >> 0x8\n 16239: u8 [a0 + 0x11] = a4\n 16242: u8 [a0 + 0x10] = a3\n 16245: a3 = a2 >> 0x38\n 16248: u8 [a0 + 0xf] = a3\n 16251: a3 = a2 >> 0x30\n 16254: u8 [a0 + 0xe] = a3\n 16257: a3 = a2 >> 0x28\n 16260: u8 [a0 + 0xd] = a3\n 16263: a3 = a2 >> 0x20\n 16266: u8 [a0 + 0xc] = a3\n 16269: a3 = a2 >> 0x18\n 16272: u8 [a0 + 0xb] = a3\n 16275: a3 = a2 >> 0x10\n 16278: u8 [a0 + 0xa] = a3\n 16281: a3 = a2 >> 0x8\n 16284: u8 [a0 + 0x9] = a3\n 16287: u8 [a0 + 0x8] = a2\n 16290: a2 = a1 >> 0x38\n 16293: u8 [a0 + 0x7] = a2\n 16296: a2 = a1 >> 0x30\n 16299: u8 [a0 + 0x6] = a2\n 16302: a2 = a1 >> 0x28\n 16305: u8 [a0 + 0x5] = a2\n 16308: a2 = a1 >> 0x20\n 16311: u8 [a0 + 0x4] = a2\n 16314: a2 = a1 >> 0x18\n 16317: u8 [a0 + 0x3] = a2\n 16320: a2 = a1 >> 0x10\n 16323: u8 [a0 + 0x2] = a2\n 16326: a2 = a1 >> 0x8\n 16329: u8 [a0 + 0x1] = a2\n 16332: u8 [a0] = a1\n 16334: a0 = 0x20\n 16337: a1 = 0x20\n 16340: ra = 128, jump @0\n      : @248 [@dyn 64] (gas: 35)\n 16346: u8 [a0 + 31] = 0x2\n 16350: u8 [a0 + 30] = 0\n 16353: u8 [a0 + 29] = 0\n 16356: u8 [a0 + 28] = 0\n 16359: u8 [a0 + 27] = 0\n 16362: u8 [a0 + 26] = 0\n 16365: u8 [a0 + 25] = 0\n 16368: u8 [a0 + 24] = 0\n 16371: u8 [a0 + 23] = 0\n 16374: u8 [a0 + 22] = 0\n 16377: u8 [a0 + 21] = 0\n 16380: u8 [a0 + 20] = 0\n 16383: u8 [a0 + 19] = 0\n 16386: u8 [a0 + 18] = 0\n 16389: u8 [a0 + 17] = 0\n 16392: u8 [a0 + 16] = 0\n 16395: u8 [a0 + 15] = 0\n 16398: u8 [a0 + 14] = 0\n 16401: u8 [a0 + 13] = 0\n 16404: u8 [a0 + 12] = 0\n 16407: u8 [a0 + 11] = 0\n 16410: u8 [a0 + 10] = 0\n 16413: u8 [a0 + 9] = 0\n 16416: u8 [a0 + 8] = 0\n 16419: u8 [a0 + 7] = 0\n 16422: u8 [a0 + 6] = 0\n 16425: u8 [a0 + 5] = 0\n 16428: u8 [a0 + 4] = 0\n 16431: u8 [a0 + 3] = 0\n 16434: u8 [a0 + 2] = 0\n 16437: u8 [a0 + 1] = 0\n 16440: u8 [a0 + 0] = 0\n 16442: a1 = 0x40\n 16445: a0 = 0\n 16447: ra = 130, jump @0\n      : @249 [@dyn 65] (gas: 68)\n 16453: a1 = sp + 0xffffffffffffffe0\n 16456: a1 = a1 & 0xffffffffffffffe0\n 16459: u64 [s1 + 0x1d8] = a1\n 16463: sp = a1\n 16465: i32 a0 = a0 + 0\n 16467: i32 a2 = a1 + 0\n 16469: a1 = 0x40\n 16472: ecalli 8 // 'hash_keccak_256'\n 16474: a3 = u64 [s1 + 0x1d8]\n 16478: a0 = u64 [a3 + 0x18]\n 16481: a1 = u64 [a3 + 0x10]\n 16484: a2 = u64 [a3 + 0x8]\n 16487: a3 = u64 [a3]\n 16489: a5 = reverse a0\n 16491: u64 [s1 + 0x1c8] = a5\n 16495: a4 = reverse a1\n 16497: u64 [s1 + 0x1d0] = a4\n 16501: a2 = reverse a2\n 16503: u64 [s1 + 0x1c0] = a2\n 16507: a0 = reverse a3\n 16509: u64 [s1 + 0x1d8] = a0\n 16513: a1 = s1 + 0x7ff\n 16517: a1 = a1 + 0x159\n 16521: u64 [a1 + 0x4c0] = a0\n 16525: u64 [a1 + 0x4b8] = a2\n 16529: u64 [a1 + 0x4b0] = a4\n 16533: u64 [a1 + 0x4a8] = a5\n 16537: u64 [a1 + 1248] = 0\n 16541: u64 [a1 + 1240] = 0\n 16545: u64 [a1 + 1232] = 0\n 16549: u64 [a1 + 1224] = 0\n 16553: u32 [a1 + 1256] = 0x20\n 16558: a0 = s1 + 0x1000\n 16562: i32 a1 = a0 + 0xfffffffffffffe00\n 16566: a0 = s1 + 0x1000\n 16570: i32 a3 = a0 + 0xfffffffffffffe20\n 16574: a0 = s1 + 0x1000\n 16578: i32 a4 = a0 + 0xfffffffffffffe40\n 16582: a2 = 0xffffffffffffffff\n 16585: a0 = 0\n 16587: ecalli 7 // 'get_storage'\n 16589: a1 = s1 + 0x7ff\n 16593: a1 = a1 + 0x159\n 16597: a0 = u64 [a1 + 0x4c8]\n 16601: u64 [s1 + 0x1b8] = a0\n 16605: a0 = u64 [a1 + 0x4d0]\n 16609: u64 [s1 + 0x1b0] = a0\n 16613: a0 = u32 [a1 + 0x4d8]\n 16617: u64 [s1 + 0x1a8] = a0\n 16621: a2 = u64 [s1 + 0x1c8]\n 16625: a2 = a2 + 0x1\n 16628: a0 = a2 <u 0x1\n 16631: a1 = u64 [s1 + 0x1d0]\n 16635: a0 = a0 + a1\n 16638: a1 = a2 | a0\n 16641: a1 = a1 <u 0x1\n 16644: a3 = u64 [s1 + 0x1c0]\n 16648: a1 = a1 + a3\n 16651: a3 = a1 <u a3\n 16654: a4 = u64 [s1 + 0x1d8]\n 16658: a3 = a3 + a4\n 16661: u64 [s1 + 0x318] = a3\n 16665: u64 [s1 + 0x310] = a1\n 16669: u64 [s1 + 0x308] = a0\n 16673: a0 = s1 + 0x320\n 16677: a1 = s1 + 0x300\n 16681: u64 [s1 + 0x300] = a2\n 16685: ra = 132, jump @403\n      : @250 [@dyn 66] (gas: 213)\n 16691: a0 = u64 [s1 + 0x320]\n 16695: u64 [s1 + 0x1a0] = a0\n 16699: a0 = u64 [s1 + 0x328]\n 16703: u64 [s1 + 0x198] = a0\n 16707: a0 = u64 [s1 + 0x330]\n 16711: u64 [s1 + 0x190] = a0\n 16715: a0 = u64 [s1 + 0x338]\n 16719: u64 [s1 + 0x188] = a0\n 16723: a1 = u64 [s1 + 0x1c8]\n 16727: a0 = a1 + 0x2\n 16730: a1 = a0 <u a1\n 16733: a3 = u64 [s1 + 0x1d0]\n 16737: a2 = a3 + a1\n 16740: a3 = a2 <u a3\n 16743: a3 = a1 if a1 == 0\n 16746: a1 = u64 [s1 + 0x1c0]\n 16750: a3 = a3 + a1\n 16753: a1 = a3 <u a1\n 16756: a4 = u64 [s1 + 0x1d8]\n 16760: a1 = a1 + a4\n 16763: a4 = s1 + 0x7ff\n 16767: a4 = a4 + 0x159\n 16771: u64 [a4 + 0x4c0] = a1\n 16775: u64 [a4 + 0x4b8] = a3\n 16779: u64 [a4 + 0x4b0] = a2\n 16783: u64 [a4 + 0x4a8] = a0\n 16787: u64 [a4 + 1248] = 0\n 16791: u64 [a4 + 1240] = 0\n 16795: u64 [a4 + 1232] = 0\n 16799: u64 [a4 + 1224] = 0\n 16803: u32 [a4 + 1256] = 0x20\n 16808: a0 = s1 + 0x1000\n 16812: i32 a1 = a0 + 0xfffffffffffffe00\n 16816: a0 = s1 + 0x1000\n 16820: i32 a3 = a0 + 0xfffffffffffffe20\n 16824: a0 = s1 + 0x1000\n 16828: i32 a4 = a0 + 0xfffffffffffffe40\n 16832: a2 = 0xffffffffffffffff\n 16835: a0 = 0\n 16837: ecalli 7 // 'get_storage'\n 16839: a1 = u64 [s1 + 0x1c8]\n 16843: a0 = a1 + 0x3\n 16846: a1 = a0 <u a1\n 16849: a3 = u64 [s1 + 0x1d0]\n 16853: a2 = a3 + a1\n 16856: a3 = a2 <u a3\n 16859: a3 = a1 if a1 == 0\n 16862: a1 = u64 [s1 + 0x1c0]\n 16866: a3 = a3 + a1\n 16869: a1 = a3 <u a1\n 16872: a4 = u64 [s1 + 0x1d8]\n 16876: a1 = a1 + a4\n 16879: a4 = s1 + 0x7ff\n 16883: a4 = a4 + 0x159\n 16887: u64 [a4 + 0x4c0] = a1\n 16891: a1 = u64 [a4 + 0x4c8]\n 16895: u64 [s1 + 0x180] = a1\n 16899: u64 [a4 + 0x4b8] = a3\n 16903: a1 = u64 [a4 + 0x4d0]\n 16907: u64 [s1 + 0x178] = a1\n 16911: u64 [a4 + 0x4b0] = a2\n 16915: a1 = u64 [a4 + 0x4d8]\n 16919: u64 [s1 + 0x170] = a1\n 16923: u64 [a4 + 0x4a8] = a0\n 16927: a0 = u64 [a4 + 0x4e0]\n 16931: u64 [s1 + 0x168] = a0\n 16935: u64 [a4 + 1248] = 0\n 16939: u64 [a4 + 1240] = 0\n 16943: u64 [a4 + 1232] = 0\n 16947: u64 [a4 + 1224] = 0\n 16951: u32 [a4 + 1256] = 0x20\n 16956: a0 = s1 + 0x1000\n 16960: i32 a1 = a0 + 0xfffffffffffffe00\n 16964: a0 = s1 + 0x1000\n 16968: i32 a3 = a0 + 0xfffffffffffffe20\n 16972: a0 = s1 + 0x1000\n 16976: i32 a4 = a0 + 0xfffffffffffffe40\n 16980: a2 = 0xffffffffffffffff\n 16983: a0 = 0\n 16985: ecalli 7 // 'get_storage'\n 16987: a1 = u64 [s1 + 0x1c8]\n 16991: a0 = a1 + 0x4\n 16994: a1 = a0 <u a1\n 16997: a3 = u64 [s1 + 0x1d0]\n 17001: a2 = a3 + a1\n 17004: a3 = a2 <u a3\n 17007: a3 = a1 if a1 == 0\n 17010: a1 = u64 [s1 + 0x1c0]\n 17014: a3 = a3 + a1\n 17017: a1 = a3 <u a1\n 17020: a4 = u64 [s1 + 0x1d8]\n 17024: a1 = a1 + a4\n 17027: a4 = s1 + 0x7ff\n 17031: a4 = a4 + 0x159\n 17035: u64 [a4 + 0x4c0] = a1\n 17039: a1 = u64 [a4 + 0x4c8]\n 17043: u64 [s1 + 0x160] = a1\n 17047: u64 [a4 + 0x4b8] = a3\n 17051: a1 = u64 [a4 + 0x4d0]\n 17055: u64 [s1 + 0x158] = a1\n 17059: u64 [a4 + 0x4b0] = a2\n 17063: a1 = u64 [a4 + 0x4d8]\n 17067: u64 [s1 + 0x150] = a1\n 17071: u64 [a4 + 0x4a8] = a0\n 17075: a0 = u64 [a4 + 0x4e0]\n 17079: u64 [s1 + 0x148] = a0\n 17083: u64 [a4 + 1248] = 0\n 17087: u64 [a4 + 1240] = 0\n 17091: u64 [a4 + 1232] = 0\n 17095: u64 [a4 + 1224] = 0\n 17099: u32 [a4 + 1256] = 0x20\n 17104: a0 = s1 + 0x1000\n 17108: i32 a1 = a0 + 0xfffffffffffffe00\n 17112: a0 = s1 + 0x1000\n 17116: i32 a3 = a0 + 0xfffffffffffffe20\n 17120: a0 = s1 + 0x1000\n 17124: i32 a4 = a0 + 0xfffffffffffffe40\n 17128: a2 = 0xffffffffffffffff\n 17131: a0 = 0\n 17133: ecalli 7 // 'get_storage'\n 17135: a1 = u64 [s1 + 0x1c8]\n 17139: a0 = a1 + 0x5\n 17142: a1 = a0 <u a1\n 17145: a3 = u64 [s1 + 0x1d0]\n 17149: a2 = a3 + a1\n 17152: a3 = a2 <u a3\n 17155: a3 = a1 if a1 == 0\n 17158: a1 = u64 [s1 + 0x1c0]\n 17162: a3 = a3 + a1\n 17165: a1 = a3 <u a1\n 17168: a4 = u64 [s1 + 0x1d8]\n 17172: a1 = a1 + a4\n 17175: a4 = s1 + 0x7ff\n 17179: a4 = a4 + 0x159\n 17183: u64 [a4 + 0x4c0] = a1\n 17187: a1 = u64 [a4 + 0x4c8]\n 17191: u64 [s1 + 0x140] = a1\n 17195: u64 [a4 + 0x4b8] = a3\n 17199: a1 = u64 [a4 + 0x4d0]\n 17203: u64 [s1 + 0x138] = a1\n 17207: u64 [a4 + 0x4b0] = a2\n 17211: a1 = u64 [a4 + 0x4d8]\n 17215: u64 [s1 + 0x130] = a1\n 17219: u64 [a4 + 0x4a8] = a0\n 17223: a0 = u64 [a4 + 0x4e0]\n 17227: u64 [s1 + 0x128] = a0\n 17231: u64 [a4 + 1248] = 0\n 17235: u64 [a4 + 1240] = 0\n 17239: u64 [a4 + 1232] = 0\n 17243: u64 [a4 + 1224] = 0\n 17247: u32 [a4 + 1256] = 0x20\n 17252: a0 = s1 + 0x1000\n 17256: i32 a1 = a0 + 0xfffffffffffffe00\n 17260: a0 = s1 + 0x1000\n 17264: i32 a3 = a0 + 0xfffffffffffffe20\n 17268: a0 = s1 + 0x1000\n 17272: i32 a4 = a0 + 0xfffffffffffffe40\n 17276: a2 = 0xffffffffffffffff\n 17279: a0 = 0\n 17281: ecalli 7 // 'get_storage'\n 17283: a1 = u64 [s1 + 0x1c8]\n 17287: a0 = a1 + 0x6\n 17290: a1 = a0 <u a1\n 17293: a3 = u64 [s1 + 0x1d0]\n 17297: a2 = a3 + a1\n 17300: a3 = a2 <u a3\n 17303: a3 = a1 if a1 == 0\n 17306: a1 = u64 [s1 + 0x1c0]\n 17310: a3 = a3 + a1\n 17313: a1 = a3 <u a1\n 17316: a4 = u64 [s1 + 0x1d8]\n 17320: a1 = a1 + a4\n 17323: a4 = s1 + 0x7ff\n 17327: a4 = a4 + 0x159\n 17331: u64 [a4 + 0x4c0] = a1\n 17335: u64 [a4 + 0x4b8] = a3\n 17339: a1 = u64 [a4 + 0x4c8]\n 17343: u64 [s1 + 0x1d0] = a1\n 17347: u64 [a4 + 0x4b0] = a2\n 17351: a1 = u64 [a4 + 0x4d0]\n 17355: u64 [s1 + 0x1c8] = a1\n 17359: u64 [a4 + 0x4a8] = a0\n 17363: a0 = u64 [a4 + 0x4d8]\n 17367: u64 [s1 + 0x1c0] = a0\n 17371: u32 [a4 + 1256] = 0x20\n 17376: a0 = u64 [a4 + 0x4e0]\n 17380: u64 [s1 + 0x120] = a0\n 17384: u64 [a4 + 1248] = 0\n 17388: u64 [a4 + 1240] = 0\n 17392: u64 [a4 + 1232] = 0\n 17396: u64 [a4 + 1224] = 0\n 17400: a0 = s1 + 0x1000\n 17404: i32 a1 = a0 + 0xfffffffffffffe00\n 17408: a0 = s1 + 0x1000\n 17412: i32 a3 = a0 + 0xfffffffffffffe20\n 17416: a0 = s1 + 0x1000\n 17420: i32 a4 = a0 + 0xfffffffffffffe40\n 17424: a2 = 0xffffffffffffffff\n 17427: a0 = 0\n 17429: ecalli 7 // 'get_storage'\n 17431: a1 = s1 + 0x7ff\n 17435: a1 = a1 + 0x159\n 17439: a0 = u64 [a1 + 0x4c8]\n 17443: u64 [s1 + 0x118] = a0\n 17447: a0 = u64 [a1 + 0x4d0]\n 17451: u64 [s1 + 0x110] = a0\n 17455: a0 = u64 [a1 + 0x4d8]\n 17459: u64 [s1 + 0x108] = a0\n 17463: a0 = u64 [a1 + 0x4e0]\n 17467: u64 [s1 + 0x100] = a0\n 17471: a0 = 0x40\n 17474: a1 = 0x20\n 17477: ra = 134, jump @0\n      : @251 [@dyn 67] (gas: 169)\n 17483: a1 = u8 [a0 + 0x1]\n 17486: a2 = u8 [a0]\n 17488: a3 = u8 [a0 + 0x2]\n 17491: a4 = u8 [a0 + 0x3]\n 17494: a1 = a1 << 0x8\n 17497: a1 = a1 | a2\n 17500: a3 = a3 << 0x10\n 17503: a4 = a4 << 0x18\n 17506: a3 = a3 | a4\n 17509: a1 = a1 | a3\n 17512: a2 = u8 [a0 + 0x5]\n 17515: a3 = u8 [a0 + 0x4]\n 17518: a4 = u8 [a0 + 0x6]\n 17521: a5 = u8 [a0 + 0x7]\n 17524: a2 = a2 << 0x8\n 17527: a2 = a2 | a3\n 17530: a4 = a4 << 0x10\n 17533: a5 = a5 << 0x18\n 17536: a4 = a4 | a5\n 17539: a2 = a2 | a4\n 17542: a2 = a2 << 0x20\n 17545: t0 = a2 | a1\n 17548: a2 = u8 [a0 + 0x9]\n 17551: a3 = u8 [a0 + 0x8]\n 17554: a4 = u8 [a0 + 0xa]\n 17557: a5 = u8 [a0 + 0xb]\n 17560: a2 = a2 << 0x8\n 17563: a2 = a2 | a3\n 17566: a4 = a4 << 0x10\n 17569: a5 = a5 << 0x18\n 17572: a4 = a4 | a5\n 17575: a2 = a2 | a4\n 17578: a3 = u8 [a0 + 0xd]\n 17581: a4 = u8 [a0 + 0xc]\n 17584: a5 = u8 [a0 + 0xe]\n 17587: a1 = u8 [a0 + 0xf]\n 17590: a3 = a3 << 0x8\n 17593: a3 = a3 | a4\n 17596: a5 = a5 << 0x10\n 17599: a1 = a1 << 0x18\n 17602: a1 = a1 | a5\n 17605: a1 = a1 | a3\n 17608: a1 = a1 << 0x20\n 17611: t1 = a1 | a2\n 17614: a1 = u8 [a0 + 0x11]\n 17617: a3 = u8 [a0 + 0x10]\n 17620: a4 = u8 [a0 + 0x12]\n 17623: a5 = u8 [a0 + 0x13]\n 17626: a1 = a1 << 0x8\n 17629: a1 = a1 | a3\n 17632: a4 = a4 << 0x10\n 17635: a5 = a5 << 0x18\n 17638: a4 = a4 | a5\n 17641: a1 = a1 | a4\n 17644: a3 = u8 [a0 + 0x15]\n 17647: a4 = u8 [a0 + 0x14]\n 17650: a5 = u8 [a0 + 0x16]\n 17653: a2 = u8 [a0 + 0x17]\n 17656: a3 = a3 << 0x8\n 17659: a3 = a3 | a4\n 17662: a5 = a5 << 0x10\n 17665: a2 = a2 << 0x18\n 17668: a2 = a2 | a5\n 17671: a2 = a2 | a3\n 17674: a2 = a2 << 0x20\n 17677: a3 = a2 | a1\n 17680: a1 = u8 [a0 + 0x19]\n 17683: a2 = u8 [a0 + 0x18]\n 17686: a4 = u8 [a0 + 0x1a]\n 17689: a5 = u8 [a0 + 0x1b]\n 17692: a1 = a1 << 0x8\n 17695: a1 = a1 | a2\n 17698: a4 = a4 << 0x10\n 17701: a5 = a5 << 0x18\n 17704: a4 = a4 | a5\n 17707: a1 = a1 | a4\n 17710: a2 = u8 [a0 + 0x1d]\n 17713: a4 = u8 [a0 + 0x1c]\n 17716: a5 = u8 [a0 + 0x1e]\n 17719: a0 = u8 [a0 + 0x1f]\n 17722: a2 = a2 << 0x8\n 17725: a2 = a2 | a4\n 17728: a5 = a5 << 0x10\n 17731: a0 = a0 << 0x18\n 17734: a0 = a0 | a5\n 17737: a0 = a0 | a2\n 17740: a0 = a0 << 0x20\n 17743: a0 = a0 | a1\n 17746: t2 = reverse a0\n 17748: u64 [s1 + 0xe8] = t2\n 17752: a2 = reverse a3\n 17754: u64 [s1 + 0xf0] = a2\n 17758: a1 = reverse t1\n 17760: u64 [s1 + 0xf8] = a1\n 17764: a3 = reverse t0\n 17766: u64 [s1 + 0x1d8] = a3\n 17770: sp = sp + 0xffffffffffffffe8\n 17773: a0 = s1 + 0x1e0\n 17777: u64 [sp + 0x10] = a0\n 17780: a0 = s1 + 0x200\n 17784: u64 [sp + 0x8] = a0\n 17787: a0 = s1 + 0x220\n 17791: u64 [sp] = a0\n 17793: a0 = u64 [s1 + 0x100]\n 17797: u64 [s1 + 0x1f8] = a0\n 17801: a0 = u64 [s1 + 0x108]\n 17805: u64 [s1 + 0x1f0] = a0\n 17809: a0 = u64 [s1 + 0x110]\n 17813: u64 [s1 + 0x1e8] = a0\n 17817: a0 = u64 [s1 + 0x118]\n 17821: u64 [s1 + 0x1e0] = a0\n 17825: a0 = u64 [s1 + 0x120]\n 17829: u64 [s1 + 0x218] = a0\n 17833: a0 = u64 [s1 + 0x1c0]\n 17837: u64 [s1 + 0x210] = a0\n 17841: a0 = u64 [s1 + 0x1c8]\n 17845: u64 [s1 + 0x208] = a0\n 17849: a0 = u64 [s1 + 0x1d0]\n 17853: u64 [s1 + 0x200] = a0\n 17857: a0 = u64 [s1 + 0x128]\n 17861: u64 [s1 + 0x238] = a0\n 17865: a0 = u64 [s1 + 0x130]\n 17869: u64 [s1 + 0x230] = a0\n 17873: a0 = u64 [s1 + 0x138]\n 17877: u64 [s1 + 0x228] = a0\n 17881: a0 = u64 [s1 + 0x140]\n 17885: u64 [s1 + 0x220] = a0\n 17889: a0 = u64 [s1 + 0x148]\n 17893: u64 [s1 + 0x258] = a0\n 17897: a0 = u64 [s1 + 0x150]\n 17901: u64 [s1 + 0x250] = a0\n 17905: a0 = u64 [s1 + 0x158]\n 17909: u64 [s1 + 0x248] = a0\n 17913: a0 = u64 [s1 + 0x160]\n 17917: u64 [s1 + 0x240] = a0\n 17921: a0 = u64 [s1 + 0x168]\n 17925: u64 [s1 + 0x278] = a0\n 17929: a0 = u64 [s1 + 0x170]\n 17933: u64 [s1 + 0x270] = a0\n 17937: a0 = u64 [s1 + 0x178]\n 17941: u64 [s1 + 0x268] = a0\n 17945: a0 = u64 [s1 + 0x180]\n 17949: u64 [s1 + 0x260] = a0\n 17953: a0 = u64 [s1 + 0x188]\n 17957: u64 [s1 + 0x298] = a0\n 17961: a0 = u64 [s1 + 0x190]\n 17965: u64 [s1 + 0x290] = a0\n 17969: a0 = u64 [s1 + 0x198]\n 17973: u64 [s1 + 0x288] = a0\n 17977: a0 = u64 [s1 + 0x1a0]\n 17981: u64 [s1 + 0x280] = a0\n 17985: u64 [s1 + 696] = 0\n 17989: a0 = u64 [s1 + 0x1a8]\n 17993: u64 [s1 + 0x2b0] = a0\n 17997: a0 = u64 [s1 + 0x1b0]\n 18001: u64 [s1 + 0x2a8] = a0\n 18005: a0 = u64 [s1 + 0x1b8]\n 18009: u64 [s1 + 0x2a0] = a0\n 18013: u64 [s1 + 0x2d8] = a3\n 18017: u64 [s1 + 0x2d0] = a1\n 18021: u64 [s1 + 0x2c8] = a2\n 18025: a0 = s1 + 0x2e0\n 18029: a1 = s1 + 0x2c0\n 18033: a2 = s1 + 0x2a0\n 18037: a3 = s1 + 0x280\n 18041: a4 = s1 + 0x260\n 18045: a5 = s1 + 0x240\n 18049: u64 [s1 + 0x2c0] = t2\n 18053: ra = 136, jump @447\n      : @252 [@dyn 68] (gas: 13)\n 18059: a4 = u64 [s1 + 0xf0]\n 18063: a2 = u64 [s1 + 0xe8]\n 18067: sp = sp + 0x18\n 18070: a0 = u64 [s1 + 0x1d8]\n 18074: a0 = a0 | a4\n 18077: a3 = u64 [s1 + 0xf8]\n 18081: a1 = a2 | a3\n 18084: a1 = a1 | a0\n 18087: a1 = a1 >> 0x20\n 18090: a0 = a0 | a3\n 18093: a0 = a0 << 0x20\n 18096: a0 = a0 | a1\n 18099: jump @256 if a0 != 0\n      : @253 (gas: 7)\n 18102: t0 = a3\n 18104: a0 = u64 [s1 + 0x2e8]\n 18108: a1 = u64 [s1 + 0x2f8]\n 18112: u64 [s1 + 0x1d0] = a1\n 18116: t1 = u64 [s1 + 0x2e0]\n 18120: a3 = u64 [s1 + 0x2f0]\n 18124: fallthrough\n      : @254 (gas: 26)\n 18125: t2 = a0 ^ a4\n 18128: a5 = a0 <u a4\n 18131: ra = t1 <u a2\n 18134: a5 = ra if t2 == 0\n 18137: a1 = a3 - t0\n 18140: t2 = a1 - a5\n 18143: a1 = a1 <u a5\n 18146: u64 [s1 + 0x1c8] = a1\n 18150: a3 = a3 <u t0\n 18153: a5 = u64 [s1 + 0x1d8]\n 18157: a1 = u64 [s1 + 0x1d0]\n 18161: a5 = a1 - a5\n 18164: a5 = a5 - a3\n 18167: a1 = u64 [s1 + 0x1c8]\n 18171: a5 = a5 - a1\n 18174: a0 = a0 - a4\n 18177: a0 = a0 - ra\n 18180: a1 = t1 - a2\n 18183: a0 = a0 | a5\n 18186: a3 = a1 | t2\n 18189: a3 = a3 | a0\n 18192: a0 = a0 | t2\n 18195: a3 = a3 >> 0x20\n 18198: a0 = a0 << 0x20\n 18201: a0 = a0 | a3\n 18204: jump @256 if a0 != 0\n      : @255 (gas: 1)\n 18207: jump @380\n      : @256 (gas: 1)\n 18210: trap\n      : @257 (gas: 10)\n 18211: ecalli 12 // 'return_data_size'\n 18213: a1 = a0 + 0x1f\n 18216: u64 [s1 + 0x170] = a0\n 18220: a0 = a1 <u a0\n 18223: u64 [s1 + 0x1a8] = a0\n 18227: a1 = a1 & 0xffffffffffffffe0\n 18230: u64 [s1 + 0x1a0] = a1\n 18234: a0 = 0x40\n 18237: a1 = 0x20\n 18240: ra = 138, jump @0\n      : @258 [@dyn 69] (gas: 118)\n 18246: a1 = u8 [a0 + 0x11]\n 18249: a2 = u8 [a0 + 0x10]\n 18252: a3 = u8 [a0 + 0x12]\n 18255: a4 = u8 [a0 + 0x13]\n 18258: a1 = a1 << 0x8\n 18261: a1 = a1 | a2\n 18264: a3 = a3 << 0x10\n 18267: a4 = a4 << 0x18\n 18270: a3 = a3 | a4\n 18273: a1 = a1 | a3\n 18276: a2 = u8 [a0 + 0x15]\n 18279: a3 = u8 [a0 + 0x14]\n 18282: a4 = u8 [a0 + 0x16]\n 18285: a5 = u8 [a0 + 0x17]\n 18288: a2 = a2 << 0x8\n 18291: a2 = a2 | a3\n 18294: a4 = a4 << 0x10\n 18297: a5 = a5 << 0x18\n 18300: a4 = a4 | a5\n 18303: a2 = a2 | a4\n 18306: a2 = a2 << 0x20\n 18309: t0 = a2 | a1\n 18312: a2 = u8 [a0 + 0x19]\n 18315: a3 = u8 [a0 + 0x18]\n 18318: a4 = u8 [a0 + 0x1a]\n 18321: a5 = u8 [a0 + 0x1b]\n 18324: a2 = a2 << 0x8\n 18327: a2 = a2 | a3\n 18330: a4 = a4 << 0x10\n 18333: a5 = a5 << 0x18\n 18336: a4 = a4 | a5\n 18339: a2 = a2 | a4\n 18342: a3 = u8 [a0 + 0x1d]\n 18345: a4 = u8 [a0 + 0x1c]\n 18348: a5 = u8 [a0 + 0x1e]\n 18351: a1 = u8 [a0 + 0x1f]\n 18354: a3 = a3 << 0x8\n 18357: a3 = a3 | a4\n 18360: a5 = a5 << 0x10\n 18363: a1 = a1 << 0x18\n 18366: a1 = a1 | a5\n 18369: a1 = a1 | a3\n 18372: a1 = a1 << 0x20\n 18375: t1 = a1 | a2\n 18378: a1 = u8 [a0 + 0x9]\n 18381: a3 = u8 [a0 + 0x8]\n 18384: a4 = u8 [a0 + 0xa]\n 18387: a5 = u8 [a0 + 0xb]\n 18390: a1 = a1 << 0x8\n 18393: a1 = a1 | a3\n 18396: a4 = a4 << 0x10\n 18399: a5 = a5 << 0x18\n 18402: a4 = a4 | a5\n 18405: a1 = a1 | a4\n 18408: a3 = u8 [a0 + 0xd]\n 18411: a4 = u8 [a0 + 0xc]\n 18414: a5 = u8 [a0 + 0xe]\n 18417: a2 = u8 [a0 + 0xf]\n 18420: a3 = a3 << 0x8\n 18423: a3 = a3 | a4\n 18426: a5 = a5 << 0x10\n 18429: a2 = a2 << 0x18\n 18432: a2 = a2 | a5\n 18435: a2 = a2 | a3\n 18438: a2 = a2 << 0x20\n 18441: a3 = a2 | a1\n 18444: a1 = u8 [a0 + 0x1]\n 18447: a2 = u8 [a0]\n 18449: a4 = u8 [a0 + 0x2]\n 18452: a5 = u8 [a0 + 0x3]\n 18455: a1 = a1 << 0x8\n 18458: a1 = a1 | a2\n 18461: a4 = a4 << 0x10\n 18464: a5 = a5 << 0x18\n 18467: a4 = a4 | a5\n 18470: a1 = a1 | a4\n 18473: a2 = u8 [a0 + 0x5]\n 18476: a4 = u8 [a0 + 0x4]\n 18479: a5 = u8 [a0 + 0x6]\n 18482: a0 = u8 [a0 + 0x7]\n 18485: a2 = a2 << 0x8\n 18488: a2 = a2 | a4\n 18491: a5 = a5 << 0x10\n 18494: a0 = a0 << 0x18\n 18497: a0 = a0 | a5\n 18500: a0 = a0 | a2\n 18503: a0 = a0 << 0x20\n 18506: a0 = a0 | a1\n 18509: t2 = reverse a0\n 18511: ra = reverse a3\n 18513: a3 = reverse t1\n 18515: a4 = reverse t0\n 18517: a1 = u64 [s1 + 0x1a0]\n 18521: a0 = a1 + 0x3f\n 18524: a1 = a0 <u a1\n 18527: a2 = u64 [s1 + 0x1a8]\n 18531: a1 = a1 + a2\n 18534: a0 = a0 & 0xffffffffffffffe0\n 18537: a2 = a1 + a4\n 18540: u64 [s1 + 0x1b0] = a3\n 18544: t0 = a0 + a3\n 18547: a0 = t0 <u a0\n 18550: a5 = a2 + a0\n 18553: a2 = a5 ^ a1\n 18556: a1 = a5 <u a1\n 18559: a1 = a0 if a2 == 0\n 18562: a3 = ra + a1\n 18565: t1 = a3 <u ra\n 18568: a0 = t2 + t1\n 18571: a1 = a3 >u 0\n 18573: a2 = a0 >u 0\n 18575: a2 = a1 if a0 == 0\n 18578: u64 [s1 + 0x1a8] = a3\n 18582: u64 [s1 + 0x1a0] = a0\n 18586: a1 = a3 | a0\n 18589: a3 = a5 >u 0\n 18591: a3 = a2 if a1 != 0\n 18594: jump @260 if a3 == 0\n      : @259 (gas: 1)\n 18597: jump @382\n      : @260 (gas: 14)\n 18600: a0 = u64 [s1 + 0x1b0]\n 18604: a1 = t0 <u a0\n 18607: a2 = a5 ^ a4\n 18610: a3 = a5 <u a4\n 18613: a3 = a1 if a2 == 0\n 18616: a0 = u64 [s1 + 0x1a0]\n 18620: a1 = a0 ^ t2\n 18623: a2 = a0 <u t2\n 18626: t1 = a2 if a1 != 0\n 18629: a2 = u64 [s1 + 0x1a8]\n 18633: a2 = a2 ^ ra\n 18636: a1 = a1 | a2\n 18639: t1 = a3 if a1 == 0\n 18642: jump @262 if t1 == 0\n      : @261 (gas: 1)\n 18645: jump @382\n      : @262 (gas: 8)\n 18648: a0 = 0x40\n 18651: a1 = 0x20\n 18654: u64 [s1 + 0x198] = a4\n 18658: u64 [s1 + 0x190] = t2\n 18662: u64 [s1 + 0x188] = ra\n 18666: u64 [s1 + 0x180] = t0\n 18670: u64 [s1 + 0x178] = a5\n 18674: ra = 140, jump @0\n      : @263 [@dyn 70] (gas: 80)\n 18680: t1 = u64 [s1 + 0x188]\n 18684: t0 = u64 [s1 + 0x190]\n 18688: a1 = u64 [s1 + 0x1a0]\n 18692: a1 = reverse a1\n 18694: a2 = u64 [s1 + 0x1a8]\n 18698: a2 = reverse a2\n 18700: a3 = u64 [s1 + 0x178]\n 18704: a3 = reverse a3\n 18706: a4 = u64 [s1 + 0x180]\n 18710: a4 = reverse a4\n 18712: u8 [a0 + 0x18] = a4\n 18715: a5 = a4 >> 0x38\n 18718: u8 [a0 + 0x1f] = a5\n 18721: a5 = a4 >> 0x30\n 18724: u8 [a0 + 0x1e] = a5\n 18727: a5 = a4 >> 0x28\n 18730: u8 [a0 + 0x1d] = a5\n 18733: a5 = a4 >> 0x20\n 18736: u8 [a0 + 0x1c] = a5\n 18739: a5 = a4 >> 0x18\n 18742: u8 [a0 + 0x1b] = a5\n 18745: a5 = a4 >> 0x10\n 18748: u8 [a0 + 0x1a] = a5\n 18751: a5 = u64 [s1 + 0x1b0]\n 18755: a4 = a4 >> 0x8\n 18758: u8 [a0 + 0x19] = a4\n 18761: u8 [a0 + 0x10] = a3\n 18764: a4 = a3 >> 0x38\n 18767: u8 [a0 + 0x17] = a4\n 18770: a4 = a3 >> 0x30\n 18773: u8 [a0 + 0x16] = a4\n 18776: a4 = a3 >> 0x28\n 18779: u8 [a0 + 0x15] = a4\n 18782: a4 = a3 >> 0x20\n 18785: u8 [a0 + 0x14] = a4\n 18788: a4 = a3 >> 0x18\n 18791: u8 [a0 + 0x13] = a4\n 18794: a4 = a3 >> 0x10\n 18797: u8 [a0 + 0x12] = a4\n 18800: a4 = u64 [s1 + 0x198]\n 18804: a3 = a3 >> 0x8\n 18807: u8 [a0 + 0x11] = a3\n 18810: u8 [a0 + 0x8] = a2\n 18813: a3 = a2 >> 0x38\n 18816: u8 [a0 + 0xf] = a3\n 18819: a3 = a2 >> 0x30\n 18822: u8 [a0 + 0xe] = a3\n 18825: a3 = a2 >> 0x28\n 18828: u8 [a0 + 0xd] = a3\n 18831: a3 = a2 >> 0x20\n 18834: u8 [a0 + 0xc] = a3\n 18837: a3 = a2 >> 0x18\n 18840: u8 [a0 + 0xb] = a3\n 18843: a3 = a2 >> 0x10\n 18846: u8 [a0 + 0xa] = a3\n 18849: a2 = a2 >> 0x8\n 18852: u8 [a0 + 0x9] = a2\n 18855: u8 [a0] = a1\n 18857: a2 = a1 >> 0x38\n 18860: u8 [a0 + 0x7] = a2\n 18863: a2 = a1 >> 0x30\n 18866: u8 [a0 + 0x6] = a2\n 18869: a2 = a1 >> 0x28\n 18872: u8 [a0 + 0x5] = a2\n 18875: a2 = a1 >> 0x20\n 18878: u8 [a0 + 0x4] = a2\n 18881: a2 = a1 >> 0x18\n 18884: u8 [a0 + 0x3] = a2\n 18887: a2 = a1 >> 0x10\n 18890: u8 [a0 + 0x2] = a2\n 18893: a1 = a1 >> 0x8\n 18896: a2 = a5 | t1\n 18899: a3 = a4 | t0\n 18902: a2 = a2 | a3\n 18905: a2 = a2 >> 0x20\n 18908: a3 = a3 | t1\n 18911: a3 = a3 << 0x20\n 18914: a2 = a2 | a3\n 18917: u8 [a0 + 0x1] = a1\n 18920: jump @256 if a2 != 0\n      : @264 (gas: 4)\n 18924: i32 a0 = a5 + 0\n 18926: a1 = 0x20\n 18929: u64 [s1 + 0x1a8] = a0\n 18933: ra = 142, jump @0\n      : @265 [@dyn 71] (gas: 43)\n 18939: a1 = u64 [s1 + 0x170]\n 18943: a1 = reverse a1\n 18945: a2 = a1 >> 0x38\n 18948: u8 [a0 + 0x1f] = a2\n 18951: a2 = a1 >> 0x30\n 18954: u8 [a0 + 0x1e] = a2\n 18957: a2 = a1 >> 0x28\n 18960: u8 [a0 + 0x1d] = a2\n 18963: a2 = a1 >> 0x20\n 18966: u8 [a0 + 0x1c] = a2\n 18969: a2 = a1 >> 0x18\n 18972: u8 [a0 + 0x1b] = a2\n 18975: a2 = a1 >> 0x10\n 18978: u8 [a0 + 0x1a] = a2\n 18981: a2 = a1 >> 0x8\n 18984: u8 [a0 + 0x19] = a2\n 18987: u8 [a0 + 0x18] = a1\n 18990: u8 [a0 + 23] = 0\n 18993: u8 [a0 + 22] = 0\n 18996: u8 [a0 + 21] = 0\n 18999: u8 [a0 + 20] = 0\n 19002: u8 [a0 + 19] = 0\n 19005: u8 [a0 + 18] = 0\n 19008: u8 [a0 + 17] = 0\n 19011: u8 [a0 + 16] = 0\n 19014: u8 [a0 + 15] = 0\n 19017: u8 [a0 + 14] = 0\n 19020: u8 [a0 + 13] = 0\n 19023: u8 [a0 + 12] = 0\n 19026: u8 [a0 + 11] = 0\n 19029: u8 [a0 + 10] = 0\n 19032: u8 [a0 + 9] = 0\n 19035: u8 [a0 + 8] = 0\n 19038: u8 [a0 + 7] = 0\n 19041: u8 [a0 + 6] = 0\n 19044: u8 [a0 + 5] = 0\n 19047: u8 [a0 + 4] = 0\n 19050: u8 [a0 + 3] = 0\n 19053: u8 [a0 + 2] = 0\n 19056: u8 [a0 + 1] = 0\n 19059: u8 [a0 + 0] = 0\n 19061: ecalli 12 // 'return_data_size'\n 19063: fallthrough\n      : @266 (gas: 10)\n 19064: a1 = u64 [s1 + 0x190]\n 19068: a2 = u64 [s1 + 0x188]\n 19072: a1 = a1 | a2\n 19075: a2 = 0xffffffe0\n 19085: a3 = u64 [s1 + 0x1b0]\n 19089: a2 = a3 <u a2\n 19092: a3 = u64 [s1 + 0x198]\n 19096: a2 = 0 if a3 != 0\n 19098: a2 = 0 if a1 != 0\n 19100: jump @256 if a2 == 0\n      : @267 (gas: 3)\n 19104: a3 = a0\n 19106: a0 = a0 >> 0x20\n 19109: jump @256 if a0 != 0\n      : @268 (gas: 6)\n 19113: a0 = u64 [s1 + 0x1a8]\n 19117: i32 a0 = a0 + 0x20\n 19120: i32 a1 = a3 + 0\n 19122: u64 [s1 + 0x1b0] = a1\n 19126: u64 [s1 + 0x1a8] = a3\n 19130: ra = 144, jump @0\n      : @269 [@dyn 72] (gas: 10)\n 19136: a1 = s1 + 0x7ff\n 19140: a1 = a1 + 0x159\n 19144: a2 = u64 [s1 + 0x1a8]\n 19148: u32 [a1 + 0x288] = a2\n 19152: i32 a0 = a0 + 0\n 19154: a1 = s1 + 0x1000\n 19158: i32 a1 = a1 + 0xfffffffffffffbe0\n 19162: a2 = 0\n 19164: ecalli 11 // 'return_data_copy'\n 19166: fallthrough\n      : @270 (gas: 6)\n 19167: a0 = s1 + 0x7ff\n 19171: a0 = a0 + 0x159\n 19175: a0 = i32 [a0 + 0x288]\n 19179: a2 = u64 [s1 + 0x1d8]\n 19183: a1 = u64 [s1 + 0x1b0]\n 19187: jump @256 if a0 <u a1\n      : @271 (gas: 1)\n 19191: jump @133\n      : @272 (gas: 3)\n 19194: a0 = 0x40\n 19197: a1 = 0x20\n 19200: ra = 146, jump @0\n      : @273 [@dyn 73] (gas: 100)\n 19206: a1 = u8 [a0 + 0x11]\n 19209: a2 = u8 [a0 + 0x10]\n 19212: a3 = u8 [a0 + 0x12]\n 19215: a4 = u8 [a0 + 0x13]\n 19218: a1 = a1 << 0x8\n 19221: a1 = a1 | a2\n 19224: a3 = a3 << 0x10\n 19227: a4 = a4 << 0x18\n 19230: a3 = a3 | a4\n 19233: a1 = a1 | a3\n 19236: a2 = u8 [a0 + 0x15]\n 19239: a3 = u8 [a0 + 0x14]\n 19242: a4 = u8 [a0 + 0x16]\n 19245: a5 = u8 [a0 + 0x17]\n 19248: a2 = a2 << 0x8\n 19251: a2 = a2 | a3\n 19254: a4 = a4 << 0x10\n 19257: a5 = a5 << 0x18\n 19260: a4 = a4 | a5\n 19263: a2 = a2 | a4\n 19266: a2 = a2 << 0x20\n 19269: t0 = a2 | a1\n 19272: a2 = u8 [a0 + 0x1]\n 19275: a3 = u8 [a0]\n 19277: a4 = u8 [a0 + 0x2]\n 19280: a5 = u8 [a0 + 0x3]\n 19283: a2 = a2 << 0x8\n 19286: a2 = a2 | a3\n 19289: a4 = a4 << 0x10\n 19292: a5 = a5 << 0x18\n 19295: a4 = a4 | a5\n 19298: a2 = a2 | a4\n 19301: a3 = u8 [a0 + 0x5]\n 19304: a4 = u8 [a0 + 0x4]\n 19307: a5 = u8 [a0 + 0x6]\n 19310: a1 = u8 [a0 + 0x7]\n 19313: a3 = a3 << 0x8\n 19316: a3 = a3 | a4\n 19319: a5 = a5 << 0x10\n 19322: a1 = a1 << 0x18\n 19325: a1 = a1 | a5\n 19328: a1 = a1 | a3\n 19331: a1 = a1 << 0x20\n 19334: t1 = a1 | a2\n 19337: a1 = u8 [a0 + 0x19]\n 19340: a3 = u8 [a0 + 0x18]\n 19343: a4 = u8 [a0 + 0x1a]\n 19346: a5 = u8 [a0 + 0x1b]\n 19349: a1 = a1 << 0x8\n 19352: a1 = a1 | a3\n 19355: a4 = a4 << 0x10\n 19358: a5 = a5 << 0x18\n 19361: a4 = a4 | a5\n 19364: a1 = a1 | a4\n 19367: a3 = u8 [a0 + 0x1d]\n 19370: a4 = u8 [a0 + 0x1c]\n 19373: a5 = u8 [a0 + 0x1e]\n 19376: a2 = u8 [a0 + 0x1f]\n 19379: a3 = a3 << 0x8\n 19382: a3 = a3 | a4\n 19385: a5 = a5 << 0x10\n 19388: a2 = a2 << 0x18\n 19391: a2 = a2 | a5\n 19394: a2 = a2 | a3\n 19397: a2 = a2 << 0x20\n 19400: a3 = a2 | a1\n 19403: a1 = u8 [a0 + 0x9]\n 19406: a2 = u8 [a0 + 0x8]\n 19409: a4 = u8 [a0 + 0xa]\n 19412: a5 = u8 [a0 + 0xb]\n 19415: a1 = a1 << 0x8\n 19418: a1 = a1 | a2\n 19421: a4 = a4 << 0x10\n 19424: a5 = a5 << 0x18\n 19427: a4 = a4 | a5\n 19430: a1 = a1 | a4\n 19433: a2 = u8 [a0 + 0xd]\n 19436: a4 = u8 [a0 + 0xc]\n 19439: a5 = u8 [a0 + 0xe]\n 19442: a0 = u8 [a0 + 0xf]\n 19445: a2 = a2 << 0x8\n 19448: a2 = a2 | a4\n 19451: a5 = a5 << 0x10\n 19454: a0 = a0 << 0x18\n 19457: a0 = a0 | a5\n 19460: a0 = a0 | a2\n 19463: a0 = a0 << 0x20\n 19466: a0 = a0 | a1\n 19469: a4 = reverse a0\n 19471: a2 = reverse a3\n 19473: a5 = reverse t1\n 19475: a3 = reverse t0\n 19477: a0 = a3 | a5\n 19480: a1 = a2 | a4\n 19483: a1 = a1 | a0\n 19486: a1 = a1 >> 0x20\n 19489: a0 = a0 | a4\n 19492: a0 = a0 << 0x20\n 19495: a0 = a0 | a1\n 19498: jump @256 if a0 != 0\n      : @274 (gas: 8)\n 19502: i32 a0 = a2 + 0\n 19504: a1 = 0x20\n 19507: u64 [s1 + 0x1b8] = a0\n 19511: u64 [s1 + 0x1d8] = a2\n 19515: u64 [s1 + 0x1d0] = a3\n 19519: u64 [s1 + 0x1c8] = a4\n 19523: u64 [s1 + 0x1c0] = a5\n 19527: ra = 148, jump @0\n      : @275 [@dyn 74] (gas: 43)\n 19533: u8 [a0 + 31] = 0\n 19536: u8 [a0 + 30] = 0\n 19539: u8 [a0 + 29] = 0\n 19542: u8 [a0 + 28] = 0\n 19545: u8 [a0 + 27] = 0\n 19548: u8 [a0 + 26] = 0\n 19551: u8 [a0 + 25] = 0\n 19554: u8 [a0 + 24] = 0\n 19557: u8 [a0 + 23] = 0\n 19560: u8 [a0 + 22] = 0\n 19563: u8 [a0 + 21] = 0\n 19566: u8 [a0 + 20] = 0\n 19569: u8 [a0 + 19] = 0\n 19572: u8 [a0 + 18] = 0\n 19575: u8 [a0 + 17] = 0\n 19578: u8 [a0 + 16] = 0\n 19581: u8 [a0 + 15] = 0\n 19584: u8 [a0 + 14] = 0\n 19587: u8 [a0 + 13] = 0\n 19590: u8 [a0 + 12] = 0\n 19593: u8 [a0 + 11] = 0\n 19596: u8 [a0 + 10] = 0\n 19599: u8 [a0 + 9] = 0\n 19602: u8 [a0 + 8] = 0\n 19605: u8 [a0 + 7] = 0\n 19608: u8 [a0 + 6] = 0\n 19611: u8 [a0 + 5] = 0\n 19614: u8 [a0 + 3] = 0xa0\n 19619: u8 [a0 + 2] = 0x79\n 19623: u8 [a0 + 1] = 0xc3\n 19628: u8 [a0 + 0] = 0x8\n 19631: a1 = u64 [s1 + 0x1c8]\n 19635: a3 = u64 [s1 + 0x1c0]\n 19639: a3 = a3 | a1\n 19642: a4 = 0x100000000\n 19652: a1 = 0xfffffffc\n 19662: a2 = u64 [s1 + 0x1d8]\n 19666: a1 = a2 <u a1\n 19669: a2 = u64 [s1 + 0x1d0]\n 19673: a1 = 0 if a2 != 0\n 19675: a1 = 0 if a3 != 0\n 19677: u8 [a0 + 4] = 0\n 19680: jump @256 if a1 == 0\n      : @276 (gas: 6)\n 19684: a0 = u64 [s1 + 0x1b8]\n 19688: i32 a0 = a0 + 0x4\n 19691: a1 = 0x20\n 19694: u64 [s1 + 0x1c8] = a3\n 19698: u64 [s1 + 0x1c0] = a4\n 19702: ra = 150, jump @0\n      : @277 [@dyn 75] (gas: 41)\n 19708: a4 = u64 [s1 + 0x1c8]\n 19712: a3 = u64 [s1 + 0x1d0]\n 19716: a2 = u64 [s1 + 0x1d8]\n 19720: u8 [a0 + 31] = 0x20\n 19724: u8 [a0 + 30] = 0\n 19727: u8 [a0 + 29] = 0\n 19730: u8 [a0 + 28] = 0\n 19733: u8 [a0 + 27] = 0\n 19736: u8 [a0 + 26] = 0\n 19739: u8 [a0 + 25] = 0\n 19742: u8 [a0 + 24] = 0\n 19745: u8 [a0 + 23] = 0\n 19748: u8 [a0 + 22] = 0\n 19751: u8 [a0 + 21] = 0\n 19754: u8 [a0 + 20] = 0\n 19757: u8 [a0 + 19] = 0\n 19760: u8 [a0 + 18] = 0\n 19763: u8 [a0 + 17] = 0\n 19766: u8 [a0 + 16] = 0\n 19769: u8 [a0 + 15] = 0\n 19772: u8 [a0 + 14] = 0\n 19775: u8 [a0 + 13] = 0\n 19778: u8 [a0 + 12] = 0\n 19781: u8 [a0 + 11] = 0\n 19784: u8 [a0 + 10] = 0\n 19787: u8 [a0 + 9] = 0\n 19790: u8 [a0 + 8] = 0\n 19793: u8 [a0 + 7] = 0\n 19796: u8 [a0 + 6] = 0\n 19799: u8 [a0 + 5] = 0\n 19802: u8 [a0 + 4] = 0\n 19805: u8 [a0 + 3] = 0\n 19808: u8 [a0 + 2] = 0\n 19811: u8 [a0 + 1] = 0\n 19814: a1 = u64 [s1 + 0x1c0]\n 19818: a1 = a1 + 0xffffffffffffffdc\n 19821: a1 = a2 <u a1\n 19824: a1 = 0 if a3 != 0\n 19826: a1 = 0 if a4 != 0\n 19828: u8 [a0 + 0] = 0\n 19830: jump @256 if a1 == 0\n      : @278 (gas: 4)\n 19834: a0 = u64 [s1 + 0x1b8]\n 19838: i32 a0 = a0 + 0x24\n 19841: a1 = 0x20\n 19844: ra = 152, jump @0\n      : @279 [@dyn 76] (gas: 40)\n 19850: u8 [a0 + 31] = 0xf\n 19854: u8 [a0 + 30] = 0\n 19857: u8 [a0 + 29] = 0\n 19860: u8 [a0 + 28] = 0\n 19863: u8 [a0 + 27] = 0\n 19866: u8 [a0 + 26] = 0\n 19869: u8 [a0 + 25] = 0\n 19872: u8 [a0 + 24] = 0\n 19875: u8 [a0 + 23] = 0\n 19878: u8 [a0 + 22] = 0\n 19881: u8 [a0 + 21] = 0\n 19884: u8 [a0 + 20] = 0\n 19887: u8 [a0 + 19] = 0\n 19890: u8 [a0 + 18] = 0\n 19893: u8 [a0 + 17] = 0\n 19896: u8 [a0 + 16] = 0\n 19899: u8 [a0 + 15] = 0\n 19902: u8 [a0 + 14] = 0\n 19905: u8 [a0 + 13] = 0\n 19908: u8 [a0 + 12] = 0\n 19911: u8 [a0 + 11] = 0\n 19914: u8 [a0 + 10] = 0\n 19917: u8 [a0 + 9] = 0\n 19920: u8 [a0 + 8] = 0\n 19923: u8 [a0 + 7] = 0\n 19926: u8 [a0 + 6] = 0\n 19929: u8 [a0 + 5] = 0\n 19932: u8 [a0 + 4] = 0\n 19935: u8 [a0 + 3] = 0\n 19938: u8 [a0 + 2] = 0\n 19941: u8 [a0 + 1] = 0\n 19944: a1 = 0xffffffbc\n 19954: a2 = u64 [s1 + 0x1d8]\n 19958: a1 = a2 <u a1\n 19961: a2 = u64 [s1 + 0x1d0]\n 19965: a1 = 0 if a2 != 0\n 19967: a2 = u64 [s1 + 0x1c8]\n 19971: a1 = 0 if a2 != 0\n 19973: u8 [a0 + 0] = 0\n 19975: jump @256 if a1 == 0\n      : @280 (gas: 4)\n 19979: a0 = u64 [s1 + 0x1b8]\n 19983: i32 a0 = a0 + 0x44\n 19986: a1 = 0x20\n 19989: ra = 154, jump @0\n      : @281 [@dyn 77] (gas: 36)\n 19995: u8 [a0 + 31] = 0\n 19998: u8 [a0 + 30] = 0\n 20001: u8 [a0 + 29] = 0\n 20004: u8 [a0 + 28] = 0\n 20007: u8 [a0 + 27] = 0\n 20010: u8 [a0 + 26] = 0\n 20013: u8 [a0 + 25] = 0\n 20016: u8 [a0 + 24] = 0\n 20019: u8 [a0 + 23] = 0\n 20022: u8 [a0 + 22] = 0\n 20025: u8 [a0 + 21] = 0\n 20028: u8 [a0 + 20] = 0\n 20031: u8 [a0 + 19] = 0\n 20034: u8 [a0 + 18] = 0\n 20037: u8 [a0 + 17] = 0\n 20040: u8 [a0 + 16] = 0\n 20043: u8 [a0 + 15] = 0\n 20046: u8 [a0 + 14] = 0x64\n 20050: u8 [a0 + 13] = 0x65\n 20054: u8 [a0 + 12] = 0x6c\n 20058: u8 [a0 + 11] = 0x69\n 20062: u8 [a0 + 10] = 0x61\n 20066: u8 [a0 + 9] = 0x66\n 20070: u8 [a0 + 8] = 0x20\n 20074: a4 = 0x72\n 20077: u8 [a0 + 0x7] = a4\n 20080: u8 [a0 + 6] = 0x65\n 20084: u8 [a0 + 5] = 0x66\n 20088: u8 [a0 + 4] = 0x73\n 20092: u8 [a0 + 3] = 0x6e\n 20096: u8 [a0 + 2] = 0x61\n 20100: u8 [a0 + 0x1] = a4\n 20103: u8 [a0 + 0] = 0x54\n 20106: a1 = 0x64\n 20109: a0 = u64 [s1 + 0x1b8]\n 20113: ra = 156, jump @0\n      : @282 [@dyn 78] (gas: 5)\n 20119: i32 a1 = a0 + 0\n 20121: a0 = 0x1\n 20124: a2 = 0x64\n 20127: ecalli 13 // 'seal_return'\n 20129: fallthrough\n      : @283 (gas: 3)\n 20130: a0 = 0x40\n 20133: a1 = 0x20\n 20136: ra = 158, jump @0\n      : @284 [@dyn 79] (gas: 100)\n 20142: a1 = u8 [a0 + 0x11]\n 20145: a2 = u8 [a0 + 0x10]\n 20148: a3 = u8 [a0 + 0x12]\n 20151: a4 = u8 [a0 + 0x13]\n 20154: a1 = a1 << 0x8\n 20157: a1 = a1 | a2\n 20160: a3 = a3 << 0x10\n 20163: a4 = a4 << 0x18\n 20166: a3 = a3 | a4\n 20169: a1 = a1 | a3\n 20172: a2 = u8 [a0 + 0x15]\n 20175: a3 = u8 [a0 + 0x14]\n 20178: a4 = u8 [a0 + 0x16]\n 20181: a5 = u8 [a0 + 0x17]\n 20184: a2 = a2 << 0x8\n 20187: a2 = a2 | a3\n 20190: a4 = a4 << 0x10\n 20193: a5 = a5 << 0x18\n 20196: a4 = a4 | a5\n 20199: a2 = a2 | a4\n 20202: a2 = a2 << 0x20\n 20205: t0 = a2 | a1\n 20208: a2 = u8 [a0 + 0x1]\n 20211: a3 = u8 [a0]\n 20213: a4 = u8 [a0 + 0x2]\n 20216: a5 = u8 [a0 + 0x3]\n 20219: a2 = a2 << 0x8\n 20222: a2 = a2 | a3\n 20225: a4 = a4 << 0x10\n 20228: a5 = a5 << 0x18\n 20231: a4 = a4 | a5\n 20234: a2 = a2 | a4\n 20237: a3 = u8 [a0 + 0x5]\n 20240: a4 = u8 [a0 + 0x4]\n 20243: a5 = u8 [a0 + 0x6]\n 20246: a1 = u8 [a0 + 0x7]\n 20249: a3 = a3 << 0x8\n 20252: a3 = a3 | a4\n 20255: a5 = a5 << 0x10\n 20258: a1 = a1 << 0x18\n 20261: a1 = a1 | a5\n 20264: a1 = a1 | a3\n 20267: a1 = a1 << 0x20\n 20270: t1 = a1 | a2\n 20273: a1 = u8 [a0 + 0x19]\n 20276: a3 = u8 [a0 + 0x18]\n 20279: a4 = u8 [a0 + 0x1a]\n 20282: a5 = u8 [a0 + 0x1b]\n 20285: a1 = a1 << 0x8\n 20288: a1 = a1 | a3\n 20291: a4 = a4 << 0x10\n 20294: a5 = a5 << 0x18\n 20297: a4 = a4 | a5\n 20300: a1 = a1 | a4\n 20303: a3 = u8 [a0 + 0x1d]\n 20306: a4 = u8 [a0 + 0x1c]\n 20309: a5 = u8 [a0 + 0x1e]\n 20312: a2 = u8 [a0 + 0x1f]\n 20315: a3 = a3 << 0x8\n 20318: a3 = a3 | a4\n 20321: a5 = a5 << 0x10\n 20324: a2 = a2 << 0x18\n 20327: a2 = a2 | a5\n 20330: a2 = a2 | a3\n 20333: a2 = a2 << 0x20\n 20336: a3 = a2 | a1\n 20339: a1 = u8 [a0 + 0x9]\n 20342: a2 = u8 [a0 + 0x8]\n 20345: a4 = u8 [a0 + 0xa]\n 20348: a5 = u8 [a0 + 0xb]\n 20351: a1 = a1 << 0x8\n 20354: a1 = a1 | a2\n 20357: a4 = a4 << 0x10\n 20360: a5 = a5 << 0x18\n 20363: a4 = a4 | a5\n 20366: a1 = a1 | a4\n 20369: a2 = u8 [a0 + 0xd]\n 20372: a4 = u8 [a0 + 0xc]\n 20375: a5 = u8 [a0 + 0xe]\n 20378: a0 = u8 [a0 + 0xf]\n 20381: a2 = a2 << 0x8\n 20384: a2 = a2 | a4\n 20387: a5 = a5 << 0x10\n 20390: a0 = a0 << 0x18\n 20393: a0 = a0 | a5\n 20396: a0 = a0 | a2\n 20399: a0 = a0 << 0x20\n 20402: a0 = a0 | a1\n 20405: a4 = reverse a0\n 20407: a3 = reverse a3\n 20409: a5 = reverse t1\n 20411: a2 = reverse t0\n 20413: a0 = a2 | a5\n 20416: a1 = a3 | a4\n 20419: a1 = a1 | a0\n 20422: a1 = a1 >> 0x20\n 20425: a0 = a0 | a4\n 20428: a0 = a0 << 0x20\n 20431: a0 = a0 | a1\n 20434: jump @256 if a0 != 0\n      : @285 (gas: 8)\n 20438: i32 a0 = a3 + 0\n 20440: a1 = 0x20\n 20443: u64 [s1 + 0x1b8] = a0\n 20447: u64 [s1 + 0x1d8] = a2\n 20451: u64 [s1 + 0x1d0] = a3\n 20455: u64 [s1 + 0x1c8] = a4\n 20459: u64 [s1 + 0x1c0] = a5\n 20463: ra = 160, jump @0\n      : @286 [@dyn 80] (gas: 43)\n 20469: u8 [a0 + 31] = 0\n 20472: u8 [a0 + 30] = 0\n 20475: u8 [a0 + 29] = 0\n 20478: u8 [a0 + 28] = 0\n 20481: u8 [a0 + 27] = 0\n 20484: u8 [a0 + 26] = 0\n 20487: u8 [a0 + 25] = 0\n 20490: u8 [a0 + 24] = 0\n 20493: u8 [a0 + 23] = 0\n 20496: u8 [a0 + 22] = 0\n 20499: u8 [a0 + 21] = 0\n 20502: u8 [a0 + 20] = 0\n 20505: u8 [a0 + 19] = 0\n 20508: u8 [a0 + 18] = 0\n 20511: u8 [a0 + 17] = 0\n 20514: u8 [a0 + 16] = 0\n 20517: u8 [a0 + 15] = 0\n 20520: u8 [a0 + 14] = 0\n 20523: u8 [a0 + 13] = 0\n 20526: u8 [a0 + 12] = 0\n 20529: u8 [a0 + 11] = 0\n 20532: u8 [a0 + 10] = 0\n 20535: u8 [a0 + 9] = 0\n 20538: u8 [a0 + 8] = 0\n 20541: u8 [a0 + 7] = 0\n 20544: u8 [a0 + 6] = 0\n 20547: u8 [a0 + 5] = 0\n 20550: u8 [a0 + 3] = 0xa0\n 20555: u8 [a0 + 2] = 0x79\n 20559: u8 [a0 + 1] = 0xc3\n 20564: u8 [a0 + 0] = 0x8\n 20567: a1 = u64 [s1 + 0x1c8]\n 20571: a3 = u64 [s1 + 0x1c0]\n 20575: a3 = a3 | a1\n 20578: a4 = 0x100000000\n 20588: a1 = 0xfffffffc\n 20598: a2 = u64 [s1 + 0x1d0]\n 20602: a1 = a2 <u a1\n 20605: a2 = u64 [s1 + 0x1d8]\n 20609: a1 = 0 if a2 != 0\n 20611: a1 = 0 if a3 != 0\n 20613: u8 [a0 + 4] = 0\n 20616: jump @256 if a1 == 0\n      : @287 (gas: 6)\n 20620: a0 = u64 [s1 + 0x1b8]\n 20624: i32 a0 = a0 + 0x4\n 20627: a1 = 0x20\n 20630: u64 [s1 + 0x1c8] = a3\n 20634: u64 [s1 + 0x1c0] = a4\n 20638: ra = 162, jump @0\n      : @288 [@dyn 81] (gas: 41)\n 20644: u8 [a0 + 31] = 0x20\n 20648: u8 [a0 + 30] = 0\n 20651: u8 [a0 + 29] = 0\n 20654: u8 [a0 + 28] = 0\n 20657: u8 [a0 + 27] = 0\n 20660: u8 [a0 + 26] = 0\n 20663: u8 [a0 + 25] = 0\n 20666: u8 [a0 + 24] = 0\n 20669: u8 [a0 + 23] = 0\n 20672: u8 [a0 + 22] = 0\n 20675: u8 [a0 + 21] = 0\n 20678: u8 [a0 + 20] = 0\n 20681: u8 [a0 + 19] = 0\n 20684: u8 [a0 + 18] = 0\n 20687: u8 [a0 + 17] = 0\n 20690: u8 [a0 + 16] = 0\n 20693: u8 [a0 + 15] = 0\n 20696: u8 [a0 + 14] = 0\n 20699: u8 [a0 + 13] = 0\n 20702: u8 [a0 + 12] = 0\n 20705: u8 [a0 + 11] = 0\n 20708: u8 [a0 + 10] = 0\n 20711: u8 [a0 + 9] = 0\n 20714: u8 [a0 + 8] = 0\n 20717: u8 [a0 + 7] = 0\n 20720: u8 [a0 + 6] = 0\n 20723: u8 [a0 + 5] = 0\n 20726: u8 [a0 + 4] = 0\n 20729: u8 [a0 + 3] = 0\n 20732: u8 [a0 + 2] = 0\n 20735: u8 [a0 + 1] = 0\n 20738: a1 = u64 [s1 + 0x1c0]\n 20742: a1 = a1 + 0xffffffffffffffdc\n 20745: a2 = u64 [s1 + 0x1d0]\n 20749: a1 = a2 <u a1\n 20752: a2 = u64 [s1 + 0x1d8]\n 20756: a1 = 0 if a2 != 0\n 20758: a2 = u64 [s1 + 0x1c8]\n 20762: a1 = 0 if a2 != 0\n 20764: u8 [a0 + 0] = 0\n 20766: jump @256 if a1 == 0\n      : @289 (gas: 4)\n 20770: a0 = u64 [s1 + 0x1b8]\n 20774: i32 a0 = a0 + 0x24\n 20777: a1 = 0x20\n 20780: ra = 164, jump @0\n      : @290 [@dyn 82] (gas: 41)\n 20786: a4 = u64 [s1 + 0x1c8]\n 20790: a3 = u64 [s1 + 0x1d0]\n 20794: a2 = u64 [s1 + 0x1d8]\n 20798: u8 [a0 + 31] = 0x26\n 20802: u8 [a0 + 30] = 0\n 20805: u8 [a0 + 29] = 0\n 20808: u8 [a0 + 28] = 0\n 20811: u8 [a0 + 27] = 0\n 20814: u8 [a0 + 26] = 0\n 20817: u8 [a0 + 25] = 0\n 20820: u8 [a0 + 24] = 0\n 20823: u8 [a0 + 23] = 0\n 20826: u8 [a0 + 22] = 0\n 20829: u8 [a0 + 21] = 0\n 20832: u8 [a0 + 20] = 0\n 20835: u8 [a0 + 19] = 0\n 20838: u8 [a0 + 18] = 0\n 20841: u8 [a0 + 17] = 0\n 20844: u8 [a0 + 16] = 0\n 20847: u8 [a0 + 15] = 0\n 20850: u8 [a0 + 14] = 0\n 20853: u8 [a0 + 13] = 0\n 20856: u8 [a0 + 12] = 0\n 20859: u8 [a0 + 11] = 0\n 20862: u8 [a0 + 10] = 0\n 20865: u8 [a0 + 9] = 0\n 20868: u8 [a0 + 8] = 0\n 20871: u8 [a0 + 7] = 0\n 20874: u8 [a0 + 6] = 0\n 20877: u8 [a0 + 5] = 0\n 20880: u8 [a0 + 4] = 0\n 20883: u8 [a0 + 3] = 0\n 20886: u8 [a0 + 2] = 0\n 20889: u8 [a0 + 1] = 0\n 20892: a5 = 0x100000000\n 20902: a1 = 0xffffffbc\n 20912: a1 = a3 <u a1\n 20915: a1 = 0 if a2 != 0\n 20917: a1 = 0 if a4 != 0\n 20919: u8 [a0 + 0] = 0\n 20921: jump @256 if a1 == 0\n      : @291 (gas: 5)\n 20925: a0 = u64 [s1 + 0x1b8]\n 20929: i32 a0 = a0 + 0x44\n 20932: a1 = 0x20\n 20935: u64 [s1 + 0x1c0] = a5\n 20939: ra = 166, jump @0\n      : @292 [@dyn 83] (gas: 42)\n 20945: u8 [a0 + 31] = 0x72\n 20949: u8 [a0 + 26] = 0x72\n 20953: u8 [a0 + 23] = 0x66\n 20957: u8 [a0 + 19] = 0x62\n 20961: u8 [a0 + 28] = 0x73\n 20965: u8 [a0 + 16] = 0x73\n 20969: u8 [a0 + 15] = 0x75\n 20973: u8 [a0 + 7] = 0x64\n 20977: u8 [a0 + 6] = 0x6e\n 20981: u8 [a0 + 27] = 0x20\n 20985: u8 [a0 + 21] = 0x20\n 20989: u8 [a0 + 18] = 0x20\n 20993: u8 [a0 + 13] = 0x20\n 20997: u8 [a0 + 8] = 0x20\n 21001: u8 [a0 + 4] = 0x20\n 21005: u8 [a0 + 2] = 0x6c\n 21009: u8 [a0 + 30] = 0x61\n 21013: u8 [a0 + 22] = 0x61\n 21017: u8 [a0 + 1] = 0x61\n 21021: u8 [a0 + 0] = 0x53\n 21024: u8 [a0 + 29] = 0x74\n 21028: a1 = u64 [s1 + 0x1c0]\n 21032: a1 = a1 + 0xffffffffffffff9c\n 21035: a2 = u64 [s1 + 0x1d0]\n 21039: a1 = a2 <u a1\n 21042: a4 = 0x65\n 21045: u8 [a0 + 0x19] = a4\n 21048: u8 [a0 + 24] = 0x74\n 21052: u8 [a0 + 0x14] = a4\n 21055: u8 [a0 + 17] = 0x74\n 21059: a2 = u64 [s1 + 0x1d8]\n 21063: a1 = 0 if a2 != 0\n 21065: u8 [a0 + 14] = 0x6d\n 21069: u8 [a0 + 0xc] = a4\n 21072: u8 [a0 + 11] = 0x6d\n 21076: a2 = u64 [s1 + 0x1c8]\n 21080: a1 = 0 if a2 != 0\n 21082: u8 [a0 + 10] = 0x69\n 21086: u8 [a0 + 9] = 0x74\n 21090: u8 [a0 + 0x5] = a4\n 21093: u8 [a0 + 0x3] = a4\n 21096: jump @256 if a1 == 0\n      : @293 (gas: 4)\n 21100: a0 = u64 [s1 + 0x1b8]\n 21104: i32 a0 = a0 + 0x64\n 21107: a1 = 0x20\n 21110: ra = 168, jump @0\n      : @294 [@dyn 84] (gas: 33)\n 21116: u8 [a0 + 31] = 0\n 21119: u8 [a0 + 30] = 0\n 21122: u8 [a0 + 29] = 0\n 21125: u8 [a0 + 28] = 0\n 21128: u8 [a0 + 27] = 0\n 21131: u8 [a0 + 26] = 0\n 21134: u8 [a0 + 25] = 0\n 21137: u8 [a0 + 24] = 0\n 21140: u8 [a0 + 23] = 0\n 21143: u8 [a0 + 22] = 0\n 21146: u8 [a0 + 21] = 0\n 21149: u8 [a0 + 20] = 0\n 21152: u8 [a0 + 19] = 0\n 21155: u8 [a0 + 18] = 0\n 21158: u8 [a0 + 17] = 0\n 21161: u8 [a0 + 16] = 0\n 21164: u8 [a0 + 15] = 0\n 21167: u8 [a0 + 14] = 0\n 21170: u8 [a0 + 13] = 0\n 21173: u8 [a0 + 12] = 0\n 21176: u8 [a0 + 11] = 0\n 21179: u8 [a0 + 10] = 0\n 21182: u8 [a0 + 9] = 0\n 21185: u8 [a0 + 8] = 0\n 21188: u8 [a0 + 7] = 0\n 21191: u8 [a0 + 6] = 0\n 21194: u8 [a0 + 5] = 0x65\n 21198: u8 [a0 + 4] = 0x6d\n 21202: u8 [a0 + 3] = 0x69\n 21206: u8 [a0 + 2] = 0x74\n 21210: u8 [a0 + 1] = 0x20\n 21214: u8 [a0 + 0] = 0x74\n 21217: fallthrough\n      : @295 (gas: 3)\n 21218: a1 = 0x84\n 21222: a0 = u64 [s1 + 0x1b8]\n 21226: ra = 170, jump @0\n      : @296 [@dyn 85] (gas: 5)\n 21232: i32 a1 = a0 + 0\n 21234: a0 = 0x1\n 21237: a2 = 0x84\n 21241: ecalli 13 // 'seal_return'\n 21243: fallthrough\n      : @297 (gas: 13)\n 21244: a0 = s1 + 0x1000\n 21248: u64 [a0 + 4294965496] = 0\n 21252: a0 = s1 + 0x1000\n 21256: u64 [a0 + 4294965488] = 0\n 21260: a0 = s1 + 0x1000\n 21264: u64 [a0 + 4294965480] = 0\n 21268: a0 = s1 + 0x7ff\n 21272: a0 = a0 + 0x101\n 21276: a2 = s1 + 0x7ff\n 21280: a2 = a2 + 0xe1\n 21284: a3 = s1 + 0x1000\n 21288: u64 [a3 + 4294965472] = 0x1\n 21293: ra = 172, jump @25\n      : @298 [@dyn 86] (gas: 15)\n 21299: a0 = s1 + 0x1000\n 21303: a0 = u64 [a0 + 0xfffffffffffff918]\n 21307: u64 [s1 + 0x78] = a0\n 21310: a0 = s1 + 0x1000\n 21314: a0 = u64 [a0 + 0xfffffffffffff910]\n 21318: u64 [s1 + 0x70] = a0\n 21321: a0 = s1 + 0x1000\n 21325: a0 = u64 [a0 + 0xfffffffffffff908]\n 21329: u64 [s1 + 0x68] = a0\n 21332: a0 = s1 + 0x1000\n 21336: a0 = u64 [a0 + 0xfffffffffffff900]\n 21340: u64 [s1 + 0x60] = a0\n 21343: a1 = 0x20\n 21346: a0 = 0\n 21348: ra = 174, jump @0\n      : @299 [@dyn 87] (gas: 71)\n 21354: a1 = u64 [s1 + 0x78]\n 21357: a1 = reverse a1\n 21359: a2 = u64 [s1 + 0x70]\n 21362: a2 = reverse a2\n 21364: a3 = u64 [s1 + 0x68]\n 21367: a3 = reverse a3\n 21369: a4 = u64 [s1 + 0x60]\n 21372: a4 = reverse a4\n 21374: a5 = a4 >> 0x38\n 21377: u8 [a0 + 0x1f] = a5\n 21380: a5 = a4 >> 0x30\n 21383: u8 [a0 + 0x1e] = a5\n 21386: a5 = a4 >> 0x28\n 21389: u8 [a0 + 0x1d] = a5\n 21392: a5 = a4 >> 0x20\n 21395: u8 [a0 + 0x1c] = a5\n 21398: a5 = a4 >> 0x18\n 21401: u8 [a0 + 0x1b] = a5\n 21404: a5 = a4 >> 0x10\n 21407: u8 [a0 + 0x1a] = a5\n 21410: a5 = a4 >> 0x8\n 21413: u8 [a0 + 0x19] = a5\n 21416: u8 [a0 + 0x18] = a4\n 21419: a4 = a3 >> 0x38\n 21422: u8 [a0 + 0x17] = a4\n 21425: a4 = a3 >> 0x30\n 21428: u8 [a0 + 0x16] = a4\n 21431: a4 = a3 >> 0x28\n 21434: u8 [a0 + 0x15] = a4\n 21437: a4 = a3 >> 0x20\n 21440: u8 [a0 + 0x14] = a4\n 21443: a4 = a3 >> 0x18\n 21446: u8 [a0 + 0x13] = a4\n 21449: a4 = a3 >> 0x10\n 21452: u8 [a0 + 0x12] = a4\n 21455: a4 = a3 >> 0x8\n 21458: u8 [a0 + 0x11] = a4\n 21461: u8 [a0 + 0x10] = a3\n 21464: a3 = a2 >> 0x38\n 21467: u8 [a0 + 0xf] = a3\n 21470: a3 = a2 >> 0x30\n 21473: u8 [a0 + 0xe] = a3\n 21476: a3 = a2 >> 0x28\n 21479: u8 [a0 + 0xd] = a3\n 21482: a3 = a2 >> 0x20\n 21485: u8 [a0 + 0xc] = a3\n 21488: a3 = a2 >> 0x18\n 21491: u8 [a0 + 0xb] = a3\n 21494: a3 = a2 >> 0x10\n 21497: u8 [a0 + 0xa] = a3\n 21500: a3 = a2 >> 0x8\n 21503: u8 [a0 + 0x9] = a3\n 21506: u8 [a0 + 0x8] = a2\n 21509: a2 = a1 >> 0x38\n 21512: u8 [a0 + 0x7] = a2\n 21515: a2 = a1 >> 0x30\n 21518: u8 [a0 + 0x6] = a2\n 21521: a2 = a1 >> 0x28\n 21524: u8 [a0 + 0x5] = a2\n 21527: a2 = a1 >> 0x20\n 21530: u8 [a0 + 0x4] = a2\n 21533: a2 = a1 >> 0x18\n 21536: u8 [a0 + 0x3] = a2\n 21539: a2 = a1 >> 0x10\n 21542: u8 [a0 + 0x2] = a2\n 21545: a2 = a1 >> 0x8\n 21548: u8 [a0 + 0x1] = a2\n 21551: u8 [a0] = a1\n 21553: a0 = 0x20\n 21556: a1 = 0x20\n 21559: ra = 176, jump @0\n      : @300 [@dyn 88] (gas: 35)\n 21565: u8 [a0 + 31] = 0x2\n 21569: u8 [a0 + 30] = 0\n 21572: u8 [a0 + 29] = 0\n 21575: u8 [a0 + 28] = 0\n 21578: u8 [a0 + 27] = 0\n 21581: u8 [a0 + 26] = 0\n 21584: u8 [a0 + 25] = 0\n 21587: u8 [a0 + 24] = 0\n 21590: u8 [a0 + 23] = 0\n 21593: u8 [a0 + 22] = 0\n 21596: u8 [a0 + 21] = 0\n 21599: u8 [a0 + 20] = 0\n 21602: u8 [a0 + 19] = 0\n 21605: u8 [a0 + 18] = 0\n 21608: u8 [a0 + 17] = 0\n 21611: u8 [a0 + 16] = 0\n 21614: u8 [a0 + 15] = 0\n 21617: u8 [a0 + 14] = 0\n 21620: u8 [a0 + 13] = 0\n 21623: u8 [a0 + 12] = 0\n 21626: u8 [a0 + 11] = 0\n 21629: u8 [a0 + 10] = 0\n 21632: u8 [a0 + 9] = 0\n 21635: u8 [a0 + 8] = 0\n 21638: u8 [a0 + 7] = 0\n 21641: u8 [a0 + 6] = 0\n 21644: u8 [a0 + 5] = 0\n 21647: u8 [a0 + 4] = 0\n 21650: u8 [a0 + 3] = 0\n 21653: u8 [a0 + 2] = 0\n 21656: u8 [a0 + 1] = 0\n 21659: u8 [a0 + 0] = 0\n 21661: a1 = 0x40\n 21664: a0 = 0\n 21666: ra = 178, jump @0\n      : @301 [@dyn 89] (gas: 34)\n 21672: a1 = sp + 0xffffffffffffffe0\n 21675: a1 = a1 & 0xffffffffffffffe0\n 21678: u64 [s1 + 0x1c0] = a1\n 21682: sp = a1\n 21684: i32 a0 = a0 + 0\n 21686: i32 a2 = a1 + 0\n 21688: a1 = 0x40\n 21691: ecalli 8 // 'hash_keccak_256'\n 21693: a3 = u64 [s1 + 0x1c0]\n 21697: a0 = u64 [a3 + 0x18]\n 21700: a1 = u64 [a3 + 0x10]\n 21703: a2 = u64 [a3 + 0x8]\n 21706: a3 = u64 [a3]\n 21708: a4 = reverse a0\n 21710: u64 [s1 + 0xe0] = a4\n 21714: a0 = reverse a1\n 21716: u64 [s1 + 0xe8] = a0\n 21720: a1 = reverse a2\n 21722: u64 [s1 + 0xf8] = a1\n 21726: a2 = reverse a3\n 21728: u64 [s1 + 0xf0] = a2\n 21732: a3 = s1 + 0x1000\n 21736: u64 [a3 + 0xfffffffffffff8b8] = a2\n 21740: a2 = s1 + 0x1000\n 21744: u64 [a2 + 0xfffffffffffff8b0] = a1\n 21748: a1 = s1 + 0x1000\n 21752: u64 [a1 + 0xfffffffffffff8a8] = a0\n 21756: a0 = s1 + 0x7ff\n 21760: a0 = a0 + 0xc1\n 21764: a2 = s1 + 0x7ff\n 21768: a2 = a2 + 0xa1\n 21772: a1 = s1 + 0x1000\n 21776: u64 [a1 + 0xfffffffffffff8a0] = a4\n 21780: ra = 180, jump @25\n      : @302 [@dyn 90] (gas: 34)\n 21786: a0 = s1 + 0x1000\n 21790: a0 = u32 [a0 + 0xfffffffffffff8d4]\n 21794: a0 = a0 << 0x20\n 21797: a1 = s1 + 0x1000\n 21801: a1 = u64 [a1 + 0xfffffffffffff8d8]\n 21805: a2 = u64 [s1 + 0x1c8]\n 21809: a0 = a0 | a2\n 21812: a2 = s1 + 0x7ff\n 21816: a2 = a2 + 0x159\n 21820: a3 = u64 [s1 + 0xf0]\n 21824: u64 [a2 + 0x4c0] = a3\n 21828: a3 = u64 [s1 + 0xf8]\n 21832: u64 [a2 + 0x4b8] = a3\n 21836: a3 = u64 [s1 + 0xe8]\n 21840: u64 [a2 + 0x4b0] = a3\n 21844: a3 = u64 [s1 + 0xe0]\n 21848: u64 [a2 + 0x4a8] = a3\n 21852: u64 [a2 + 0x4e0] = a1\n 21856: a1 = u64 [s1 + 0x1d0]\n 21860: u64 [a2 + 0x4d0] = a1\n 21864: a1 = u64 [s1 + 0x1d8]\n 21868: u64 [a2 + 0x4c8] = a1\n 21872: u64 [a2 + 0x4d8] = a0\n 21876: a0 = s1 + 0x1000\n 21880: i32 a1 = a0 + 0xfffffffffffffe00\n 21884: a0 = s1 + 0x1000\n 21888: i32 a3 = a0 + 0xfffffffffffffe20\n 21892: a2 = 0xffffffffffffffff\n 21895: a4 = 0x20\n 21898: a0 = 0\n 21900: ecalli 15 // 'set_storage'\n 21902: a1 = 0x20\n 21905: a0 = u64 [s1 + 0x1b8]\n 21909: ra = 182, jump @0\n      : @303 [@dyn 91] (gas: 80)\n 21915: a1 = u8 [a0 + 0x9]\n 21918: a2 = u8 [a0 + 0x8]\n 21921: a3 = u8 [a0 + 0xa]\n 21924: a4 = u8 [a0 + 0xb]\n 21927: a1 = a1 << 0x8\n 21930: a1 = a1 | a2\n 21933: a3 = a3 << 0x10\n 21936: a4 = a4 << 0x18\n 21939: a3 = a3 | a4\n 21942: a1 = a1 | a3\n 21945: a2 = u8 [a0 + 0xd]\n 21948: a3 = u8 [a0 + 0xc]\n 21951: a4 = u8 [a0 + 0xe]\n 21954: a5 = u8 [a0 + 0xf]\n 21957: a2 = a2 << 0x8\n 21960: a2 = a2 | a3\n 21963: a4 = a4 << 0x10\n 21966: a5 = a5 << 0x18\n 21969: a4 = a4 | a5\n 21972: a2 = a2 | a4\n 21975: a2 = a2 << 0x20\n 21978: t0 = a2 | a1\n 21981: a1 = u8 [a0 + 0x1]\n 21984: a2 = u8 [a0]\n 21986: a3 = u8 [a0 + 0x2]\n 21989: a4 = u8 [a0 + 0x3]\n 21992: a1 = a1 << 0x8\n 21995: a1 = a1 | a2\n 21998: a3 = a3 << 0x10\n 22001: a4 = a4 << 0x18\n 22004: a3 = a3 | a4\n 22007: a1 = a1 | a3\n 22010: a2 = u8 [a0 + 0x5]\n 22013: a3 = u8 [a0 + 0x4]\n 22016: a4 = u8 [a0 + 0x6]\n 22019: a5 = u8 [a0 + 0x7]\n 22022: a2 = a2 << 0x8\n 22025: a2 = a2 | a3\n 22028: a4 = a4 << 0x10\n 22031: a5 = a5 << 0x18\n 22034: a4 = a4 | a5\n 22037: a2 = a2 | a4\n 22040: a2 = a2 << 0x20\n 22043: t1 = a2 | a1\n 22046: a1 = u8 [a0 + 0x11]\n 22049: a2 = u8 [a0 + 0x10]\n 22052: a3 = u8 [a0 + 0x12]\n 22055: a4 = u8 [a0 + 0x13]\n 22058: a1 = a1 << 0x8\n 22061: a1 = a1 | a2\n 22064: a3 = a3 << 0x10\n 22067: a4 = a4 << 0x18\n 22070: a3 = a3 | a4\n 22073: a1 = a1 | a3\n 22076: a2 = u8 [a0 + 0x15]\n 22079: a3 = u8 [a0 + 0x14]\n 22082: a4 = u8 [a0 + 0x16]\n 22085: a5 = u8 [a0 + 0x17]\n 22088: a2 = a2 << 0x8\n 22091: a2 = a2 | a3\n 22094: a4 = a4 << 0x10\n 22097: a5 = a5 << 0x18\n 22100: a4 = a4 | a5\n 22103: a2 = a2 | a4\n 22106: a2 = a2 << 0x20\n 22109: a1 = a1 | a2\n 22112: u64 [s1 + 0x38] = a1\n 22115: a1 = reverse a1\n 22117: u64 [s1 + 0x40] = t1\n 22120: a3 = reverse t1\n 22122: u64 [s1 + 0x48] = t0\n 22125: a2 = reverse t0\n 22127: u64 [s1 + 0xb0] = a2\n 22131: u64 [s1 + 0xa0] = a3\n 22135: a2 = a2 | a3\n 22138: u64 [s1 + 0xa8] = a1\n 22142: a1 = a1 <u 0x1\n 22145: u64 [s1 + 0x178] = a2\n 22149: a1 = 0 if a2 != 0\n 22151: jump @305 if a1 != 0\n      : @304 (gas: 1)\n 22154: jump @387\n      : @305 (gas: 55)\n 22157: a1 = u8 [a0 + 0x19]\n 22160: a2 = u8 [a0 + 0x18]\n 22163: a3 = u8 [a0 + 0x1a]\n 22166: a4 = u8 [a0 + 0x1b]\n 22169: a1 = a1 << 0x8\n 22172: t0 = a1 | a2\n 22175: a3 = a3 << 0x10\n 22178: a4 = a4 << 0x18\n 22181: a3 = a3 | a4\n 22184: a2 = u8 [a0 + 0x1d]\n 22187: a4 = u8 [a0 + 0x1c]\n 22190: a5 = u64 [s1 + 0xe0]\n 22194: a1 = a5 + 0x1\n 22197: t0 = a3 | t0\n 22200: a2 = a2 << 0x8\n 22203: a2 = a2 | a4\n 22206: a3 = u8 [a0 + 0x1e]\n 22209: a0 = u8 [a0 + 0x1f]\n 22212: a4 = a1 <u 0x1\n 22215: a5 = u64 [s1 + 0xe8]\n 22219: a4 = a4 + a5\n 22222: a3 = a3 << 0x10\n 22225: a0 = a0 << 0x18\n 22228: a0 = a0 | a3\n 22231: u64 [s1 + 0x98] = a1\n 22235: a3 = a1 | a4\n 22238: t1 = a4\n 22240: u64 [s1 + 0x90] = a4\n 22244: a3 = a3 <u 0x1\n 22247: a4 = u64 [s1 + 0xf8]\n 22251: a5 = a4 + a3\n 22254: u64 [s1 + 0x88] = a5\n 22258: a0 = a0 | a2\n 22261: a2 = a5 <u a4\n 22264: a3 = u64 [s1 + 0xf0]\n 22268: a3 = a3 + a2\n 22271: u64 [s1 + 0x80] = a3\n 22275: a0 = a0 << 0x20\n 22278: a0 = a0 | t0\n 22281: u64 [s1 + 0x30] = a0\n 22284: a0 = reverse a0\n 22286: u64 [s1 + 0xb8] = a0\n 22290: a0 = s1 + 0x1000\n 22294: u64 [a0 + 0xfffffffffffff860] = a1\n 22298: a0 = s1 + 0x1000\n 22302: u64 [a0 + 0xfffffffffffff868] = t1\n 22306: a0 = s1 + 0x1000\n 22310: u64 [a0 + 0xfffffffffffff870] = a5\n 22314: a0 = s1 + 0x7ff\n 22318: a0 = a0 + 0x81\n 22322: a2 = s1 + 0x7ff\n 22326: a2 = a2 + 0x61\n 22329: a1 = s1 + 0x1000\n 22333: u64 [a1 + 0xfffffffffffff878] = a3\n 22337: ra = 184, jump @25\n      : @306 [@dyn 92] (gas: 21)\n 22343: a0 = s1 + 0x1000\n 22347: a2 = u64 [a0 + 0xfffffffffffff880]\n 22351: a0 = s1 + 0x1000\n 22355: a0 = u64 [a0 + 0xfffffffffffff888]\n 22359: a1 = s1 + 0x1000\n 22363: a1 = u64 [a1 + 0xfffffffffffff890]\n 22367: a3 = s1 + 0x1000\n 22371: a3 = u64 [a3 + 0xfffffffffffff898]\n 22375: a4 = s1 + 0x1000\n 22379: u64 [a4 + 0xfffffffffffff838] = a3\n 22383: a3 = s1 + 0x1000\n 22387: u64 [a3 + 0xfffffffffffff830] = a1\n 22391: a1 = s1 + 0x1000\n 22395: u64 [a1 + 0xfffffffffffff828] = a0\n 22399: a0 = s1 + 0x7ff\n 22403: a0 = a0 + 0x41\n 22406: a1 = s1 + 0x7ff\n 22410: a1 = a1 + 0x21\n 22413: a3 = s1 + 0x1000\n 22417: u64 [a3 + 0xfffffffffffff820] = a2\n 22421: ra = 186, jump @389\n      : @307 [@dyn 93] (gas: 28)\n 22427: a0 = s1 + 0x1000\n 22431: a2 = u64 [a0 + 0xfffffffffffff858]\n 22435: a0 = s1 + 0x1000\n 22439: a3 = u64 [a0 + 0xfffffffffffff850]\n 22443: a0 = s1 + 0x1000\n 22447: a5 = u64 [a0 + 0xfffffffffffff840]\n 22451: a0 = s1 + 0x1000\n 22455: a4 = u64 [a0 + 0xfffffffffffff848]\n 22459: a0 = a3 | a2\n 22462: a1 = a5 <u 0x20\n 22465: a1 = 0 if a4 != 0\n 22467: a1 = 0 if a0 != 0\n 22469: a0 = u64 [s1 + 0x80]\n 22473: a0 = reverse a0\n 22475: u64 [s1 + 0x168] = a0\n 22479: a0 = u64 [s1 + 0x88]\n 22483: a0 = reverse a0\n 22485: u64 [s1 + 0x160] = a0\n 22489: a0 = u64 [s1 + 0x90]\n 22493: a0 = reverse a0\n 22495: u64 [s1 + 0x58] = a0\n 22498: a0 = u64 [s1 + 0x98]\n 22502: a0 = reverse a0\n 22504: u64 [s1 + 0x50] = a0\n 22507: a0 = u64 [s1 + 0xb8]\n 22511: a0 = a0 <u 0x20\n 22514: u64 [s1 + 0x170] = a0\n 22518: jump @315 if a1 != 0\n      : @308 (gas: 7)\n 22522: a1 = 0x20\n 22525: a0 = 0\n 22527: u64 [s1 + 0x1c0] = a2\n 22531: u64 [s1 + 0x1c8] = a3\n 22535: u64 [s1 + 0x1b8] = a4\n 22539: u64 [s1 + 0x1b0] = a5\n 22543: ra = 188, jump @0\n      : @309 [@dyn 94] (gas: 67)\n 22549: a2 = u64 [s1 + 0x50]\n 22552: u8 [a0 + 0x18] = a2\n 22555: a1 = a2 >> 0x38\n 22558: u8 [a0 + 0x1f] = a1\n 22561: a1 = a2 >> 0x30\n 22564: u8 [a0 + 0x1e] = a1\n 22567: a1 = a2 >> 0x28\n 22570: u8 [a0 + 0x1d] = a1\n 22573: a1 = a2 >> 0x20\n 22576: u8 [a0 + 0x1c] = a1\n 22579: a1 = a2 >> 0x18\n 22582: u8 [a0 + 0x1b] = a1\n 22585: a1 = a2 >> 0x10\n 22588: u8 [a0 + 0x1a] = a1\n 22591: a1 = a2 >> 0x8\n 22594: u8 [a0 + 0x19] = a1\n 22597: a2 = u64 [s1 + 0x58]\n 22600: u8 [a0 + 0x10] = a2\n 22603: a1 = a2 >> 0x38\n 22606: u8 [a0 + 0x17] = a1\n 22609: a1 = a2 >> 0x30\n 22612: u8 [a0 + 0x16] = a1\n 22615: a1 = a2 >> 0x28\n 22618: u8 [a0 + 0x15] = a1\n 22621: a1 = a2 >> 0x20\n 22624: u8 [a0 + 0x14] = a1\n 22627: a1 = a2 >> 0x18\n 22630: u8 [a0 + 0x13] = a1\n 22633: a1 = a2 >> 0x10\n 22636: u8 [a0 + 0x12] = a1\n 22639: a1 = a2 >> 0x8\n 22642: u8 [a0 + 0x11] = a1\n 22645: a2 = u64 [s1 + 0x160]\n 22649: u8 [a0 + 0x8] = a2\n 22652: a1 = a2 >> 0x38\n 22655: u8 [a0 + 0xf] = a1\n 22658: a1 = a2 >> 0x30\n 22661: u8 [a0 + 0xe] = a1\n 22664: a1 = a2 >> 0x28\n 22667: u8 [a0 + 0xd] = a1\n 22670: a1 = a2 >> 0x20\n 22673: u8 [a0 + 0xc] = a1\n 22676: a1 = a2 >> 0x18\n 22679: u8 [a0 + 0xb] = a1\n 22682: a1 = a2 >> 0x10\n 22685: u8 [a0 + 0xa] = a1\n 22688: a1 = a2 >> 0x8\n 22691: u8 [a0 + 0x9] = a1\n 22694: a2 = u64 [s1 + 0x168]\n 22698: u8 [a0] = a2\n 22700: a1 = a2 >> 0x38\n 22703: u8 [a0 + 0x7] = a1\n 22706: a1 = a2 >> 0x30\n 22709: u8 [a0 + 0x6] = a1\n 22712: a1 = a2 >> 0x28\n 22715: u8 [a0 + 0x5] = a1\n 22718: a1 = a2 >> 0x20\n 22721: u8 [a0 + 0x4] = a1\n 22724: a1 = a2 >> 0x18\n 22727: u8 [a0 + 0x3] = a1\n 22730: a1 = a2 >> 0x10\n 22733: u8 [a0 + 0x2] = a1\n 22736: a1 = a2 >> 0x8\n 22739: u8 [a0 + 0x1] = a1\n 22742: a1 = 0x20\n 22745: a0 = 0\n 22747: ra = 190, jump @0\n      : @310 [@dyn 95] (gas: 9)\n 22753: a1 = sp + 0xffffffffffffffe0\n 22756: a1 = a1 & 0xffffffffffffffe0\n 22759: u64 [s1 + 0x1d0] = a1\n 22763: sp = a1\n 22765: i32 a0 = a0 + 0\n 22767: i32 a2 = a1 + 0\n 22769: a1 = 0x20\n 22772: ecalli 8 // 'hash_keccak_256'\n 22774: fallthrough\n      : @311 (gas: 120)\n 22775: a0 = u64 [s1 + 0xb8]\n 22779: a1 = a0 + 0x1f\n 22782: a0 = a1 <u a0\n 22785: a5 = u64 [s1 + 0xa8]\n 22789: a3 = a5 + a0\n 22792: a2 = a3 <u a5\n 22795: a2 = a0 if a0 == 0\n 22798: a4 = u64 [s1 + 0xb0]\n 22802: a2 = a2 + a4\n 22805: u64 [s1 + 0x1a8] = a2\n 22809: a2 = a2 << 0x3b\n 22812: a4 = a3 >> 0x5\n 22815: a2 = a2 | a4\n 22818: a0 = u64 [s1 + 0x1d0]\n 22822: t0 = u64 [a0 + 0x18]\n 22825: a3 = a3 << 0x3b\n 22828: a0 = u64 [a0 + 0x10]\n 22831: a1 = a1 >> 0x5\n 22834: a3 = a3 | a1\n 22837: t2 = reverse t0\n 22839: a4 = reverse a0\n 22841: a1 = u64 [s1 + 0x170]\n 22845: a1 = 0 if a5 != 0\n 22847: a0 = u64 [s1 + 0x178]\n 22851: a1 = 0 if a0 != 0\n 22853: a2 = 0 if a1 != 0\n 22855: a3 = 0 if a1 != 0\n 22857: a3 = a3 + t2\n 22860: u64 [s1 + 0x1d8] = a3\n 22864: a0 = a3 <u t2\n 22867: a3 = a4 + a0\n 22870: t0 = a3 + a2\n 22873: a3 = t0 ^ a4\n 22876: a2 = t0 <u a4\n 22879: a2 = a0 if a3 == 0\n 22882: u64 [s1 + 0x28] = a2\n 22885: a0 = u64 [s1 + 0x1b0]\n 22889: ra = a0 + 0x1f\n 22892: a2 = ra <u a0\n 22895: a3 = u64 [s1 + 0x1b8]\n 22899: a0 = a3 + a2\n 22902: a3 = a0 <u a3\n 22905: a3 = a2 if a2 == 0\n 22908: t1 = u64 [s1 + 0x1c8]\n 22912: a2 = t1 + a3\n 22915: u64 [s1 + 0x1b0] = a2\n 22919: a2 = a2 << 0x3b\n 22922: a5 = a0 >> 0x5\n 22925: a2 = a2 | a5\n 22928: a0 = a0 << 0x3b\n 22931: a5 = ra >> 0x5\n 22934: ra = u64 [s1 + 0x1d8]\n 22938: a0 = a0 | a5\n 22941: a3 = t2 + a0\n 22944: a0 = a3 <u t2\n 22947: a5 = a4 + a0\n 22950: a2 = a2 + a5\n 22953: t2 = a3\n 22955: a3 = a2 ^ a4\n 22958: a4 = a2 <u a4\n 22961: a4 = a0 if a3 == 0\n 22964: u64 [s1 + 0x20] = a4\n 22967: a0 = t0 ^ a2\n 22970: u64 [s1 + 0x1b8] = a2\n 22974: a2 = t0 <u a2\n 22977: t1 = ra <u t2\n 22980: t1 = a2 if a0 != 0\n 22983: a2 = u64 [s1 + 0x1a8]\n 22987: a0 = u64 [s1 + 0xb0]\n 22991: a0 = a2 <u a0\n 22994: a4 = u64 [s1 + 0xa0]\n 22998: a4 = a4 + a0\n 23001: a2 = a2 >> 0x5\n 23004: a0 = a4 << 0x3b\n 23007: a0 = a0 | a2\n 23010: a2 = u64 [s1 + 0x1d0]\n 23014: a3 = u64 [a2]\n 23016: a2 = u64 [a2 + 0x8]\n 23019: a4 = a4 >> 0x5\n 23022: a0 = 0 if a1 != 0\n 23024: a4 = 0 if a1 != 0\n 23026: a1 = reverse a2\n 23028: a2 = reverse a3\n 23030: a4 = a4 + a2\n 23033: a0 = a0 + a1\n 23036: a3 = a0 <u a1\n 23039: a3 = a3 + a4\n 23042: a4 = u64 [s1 + 0x28]\n 23045: a4 = a4 + a0\n 23048: u64 [s1 + 0x1d0] = a4\n 23052: a0 = a4 <u a0\n 23055: a5 = a3 + a0\n 23058: a0 = u64 [s1 + 0x1c8]\n 23062: a4 = u64 [s1 + 0x1b0]\n 23066: a0 = a4 <u a0\n 23069: a3 = u64 [s1 + 0x1c0]\n 23073: a0 = a0 + a3\n 23076: a3 = a4 >> 0x5\n 23079: a4 = a0 << 0x3b\n 23082: a3 = a3 | a4\n 23085: a0 = a0 >> 0x5\n 23088: a0 = a0 + a2\n 23091: a3 = a3 + a1\n 23094: a1 = a3 <u a1\n 23097: a0 = a0 + a1\n 23100: a4 = u64 [s1 + 0x20]\n 23103: a4 = a4 + a3\n 23106: a1 = a4 <u a3\n 23109: a3 = u64 [s1 + 0x1d0]\n 23113: a2 = a0 + a1\n 23116: a0 = a3 <u a4\n 23119: a1 = a5 ^ a2\n 23122: u64 [s1 + 0x1a8] = a2\n 23126: a2 = a5 <u a2\n 23129: a2 = a0 if a1 == 0\n 23132: u64 [s1 + 0x1b0] = a4\n 23136: a0 = a3 ^ a4\n 23139: a0 = a0 | a1\n 23142: t1 = a2 if a0 != 0\n 23145: jump @315 if t1 == 0\n      : @312 (gas: 2)\n 23149: u64 [s1 + 0x1a0] = t2\n 23153: fallthrough\n      : @313 (gas: 23)\n 23154: u64 [s1 + 0x1d0] = a3\n 23158: u64 [s1 + 0x1c0] = a5\n 23162: u64 [s1 + 0x1c8] = t0\n 23166: u64 [s1 + 0x1d8] = ra\n 23170: a0 = s1 + 0x7ff\n 23174: a0 = a0 + 0x159\n 23178: u64 [a0 + 0x4b0] = t0\n 23182: u64 [a0 + 0x4a8] = ra\n 23186: u64 [a0 + 0x4b8] = a3\n 23190: u64 [a0 + 0x4c0] = a5\n 23194: u64 [a0 + 1248] = 0\n 23198: u64 [a0 + 1240] = 0\n 23202: u64 [a0 + 1232] = 0\n 23206: u64 [a0 + 1224] = 0\n 23210: a0 = s1 + 0x1000\n 23214: i32 a1 = a0 + 0xfffffffffffffe00\n 23218: a0 = s1 + 0x1000\n 23222: i32 a3 = a0 + 0xfffffffffffffe20\n 23226: a2 = 0xffffffffffffffff\n 23229: a4 = 0x20\n 23232: a0 = 0\n 23234: ecalli 15 // 'set_storage'\n 23236: fallthrough\n      : @314 (gas: 29)\n 23237: a5 = u64 [s1 + 0x1c0]\n 23241: t2 = u64 [s1 + 0x1a0]\n 23245: t0 = u64 [s1 + 0x1c8]\n 23249: ra = u64 [s1 + 0x1d8]\n 23253: ra = ra + 0x1\n 23256: a0 = ra <u 0x1\n 23259: t0 = t0 + a0\n 23262: a0 = ra | t0\n 23265: a0 = a0 <u 0x1\n 23268: a1 = u64 [s1 + 0x1d0]\n 23272: a0 = a0 + a1\n 23275: a1 = a0 <u a1\n 23278: a5 = a5 + a1\n 23281: a1 = ra <u t2\n 23284: a3 = u64 [s1 + 0x1b8]\n 23288: a2 = t0 ^ a3\n 23291: a3 = t0 <u a3\n 23294: a3 = a1 if a2 == 0\n 23297: a1 = u64 [s1 + 0x1b0]\n 23301: t1 = a0 <u a1\n 23304: a4 = u64 [s1 + 0x1a8]\n 23308: a2 = a5 ^ a4\n 23311: a4 = a5 <u a4\n 23314: a4 = t1 if a2 == 0\n 23317: a1 = a1 ^ a0\n 23320: a1 = a1 | a2\n 23323: a4 = a3 if a1 == 0\n 23326: a3 = a0\n 23328: jump @313 if a4 != 0\n      : @315 (gas: 13)\n 23332: t2 = u64 [s1 + 0xa8]\n 23336: a0 = t2 >u 0\n 23338: a1 = u64 [s1 + 0x170]\n 23342: a1 = a1 ^ 0x1\n 23345: a1 = a0 if t2 != 0\n 23348: a3 = u64 [s1 + 0xb0]\n 23352: a0 = a3 >u 0\n 23354: a4 = u64 [s1 + 0xa0]\n 23358: a2 = a4 >u 0\n 23360: a2 = a0 if a4 == 0\n 23363: a0 = u64 [s1 + 0x178]\n 23367: a2 = a1 if a0 == 0\n 23370: jump @321 if a2 == 0\n      : @316 (gas: 6)\n 23374: a0 = u64 [s1 + 0xb8]\n 23378: a0 = a0 & 0xffffffffffffffe0\n 23381: u64 [s1 + 0x48] = a0\n 23384: a1 = 0x20\n 23387: a0 = 0\n 23389: ra = 192, jump @0\n      : @317 [@dyn 96] (gas: 67)\n 23395: a2 = u64 [s1 + 0x50]\n 23398: u8 [a0 + 0x18] = a2\n 23401: a1 = a2 >> 0x38\n 23404: u8 [a0 + 0x1f] = a1\n 23407: a1 = a2 >> 0x30\n 23410: u8 [a0 + 0x1e] = a1\n 23413: a1 = a2 >> 0x28\n 23416: u8 [a0 + 0x1d] = a1\n 23419: a1 = a2 >> 0x20\n 23422: u8 [a0 + 0x1c] = a1\n 23425: a1 = a2 >> 0x18\n 23428: u8 [a0 + 0x1b] = a1\n 23431: a1 = a2 >> 0x10\n 23434: u8 [a0 + 0x1a] = a1\n 23437: a1 = a2 >> 0x8\n 23440: u8 [a0 + 0x19] = a1\n 23443: a2 = u64 [s1 + 0x58]\n 23446: u8 [a0 + 0x10] = a2\n 23449: a1 = a2 >> 0x38\n 23452: u8 [a0 + 0x17] = a1\n 23455: a1 = a2 >> 0x30\n 23458: u8 [a0 + 0x16] = a1\n 23461: a1 = a2 >> 0x28\n 23464: u8 [a0 + 0x15] = a1\n 23467: a1 = a2 >> 0x20\n 23470: u8 [a0 + 0x14] = a1\n 23473: a1 = a2 >> 0x18\n 23476: u8 [a0 + 0x13] = a1\n 23479: a1 = a2 >> 0x10\n 23482: u8 [a0 + 0x12] = a1\n 23485: a1 = a2 >> 0x8\n 23488: u8 [a0 + 0x11] = a1\n 23491: a2 = u64 [s1 + 0x160]\n 23495: u8 [a0 + 0x8] = a2\n 23498: a1 = a2 >> 0x38\n 23501: u8 [a0 + 0xf] = a1\n 23504: a1 = a2 >> 0x30\n 23507: u8 [a0 + 0xe] = a1\n 23510: a1 = a2 >> 0x28\n 23513: u8 [a0 + 0xd] = a1\n 23516: a1 = a2 >> 0x20\n 23519: u8 [a0 + 0xc] = a1\n 23522: a1 = a2 >> 0x18\n 23525: u8 [a0 + 0xb] = a1\n 23528: a1 = a2 >> 0x10\n 23531: u8 [a0 + 0xa] = a1\n 23534: a1 = a2 >> 0x8\n 23537: u8 [a0 + 0x9] = a1\n 23540: a2 = u64 [s1 + 0x168]\n 23544: u8 [a0] = a2\n 23546: a1 = a2 >> 0x38\n 23549: u8 [a0 + 0x7] = a1\n 23552: a1 = a2 >> 0x30\n 23555: u8 [a0 + 0x6] = a1\n 23558: a1 = a2 >> 0x28\n 23561: u8 [a0 + 0x5] = a1\n 23564: a1 = a2 >> 0x20\n 23567: u8 [a0 + 0x4] = a1\n 23570: a1 = a2 >> 0x18\n 23573: u8 [a0 + 0x3] = a1\n 23576: a1 = a2 >> 0x10\n 23579: u8 [a0 + 0x2] = a1\n 23582: a1 = a2 >> 0x8\n 23585: u8 [a0 + 0x1] = a1\n 23588: a1 = 0x20\n 23591: a0 = 0\n 23593: ra = 194, jump @0\n      : @318 [@dyn 97] (gas: 9)\n 23599: a1 = sp + 0xffffffffffffffe0\n 23602: a1 = a1 & 0xffffffffffffffe0\n 23605: u64 [s1 + 0x1d8] = a1\n 23609: sp = a1\n 23611: i32 a0 = a0 + 0\n 23613: i32 a2 = a1 + 0\n 23615: a1 = 0x20\n 23618: ecalli 8 // 'hash_keccak_256'\n 23620: fallthrough\n      : @319 (gas: 15)\n 23621: a3 = u64 [s1 + 0x1d8]\n 23625: a0 = u64 [a3]\n 23627: a1 = u64 [a3 + 0x8]\n 23630: a2 = u64 [a3 + 0x10]\n 23633: a3 = u64 [a3 + 0x18]\n 23636: a0 = reverse a0\n 23638: u64 [s1 + 0x1c0] = a0\n 23642: a0 = reverse a1\n 23644: u64 [s1 + 0x1a0] = a0\n 23648: a0 = reverse a2\n 23650: u64 [s1 + 0x1c8] = a0\n 23654: a0 = reverse a3\n 23656: u64 [s1 + 0x1d0] = a0\n 23660: a0 = u64 [s1 + 0x48]\n 23663: jump @323 if a0 != 0\n      : @320 (gas: 6)\n 23666: a2 = 0\n 23668: u64 [s1 + 472] = 0\n 23672: t1 = u64 [s1 + 0x188]\n 23676: t0 = u64 [s1 + 0x180]\n 23680: a1 = 0x20\n 23683: jump @329\n      : @321 (gas: 9)\n 23686: a0 = u64 [s1 + 0x40]\n 23689: a1 = u64 [s1 + 0x38]\n 23692: a0 = a0 | a1\n 23695: a1 = u64 [s1 + 0x48]\n 23698: a2 = u64 [s1 + 0x30]\n 23701: a1 = a1 | a2\n 23704: a0 = a0 | a1\n 23707: a1 = u64 [s1 + 0x188]\n 23711: jump @335 if a0 != 0\n      : @322 (gas: 5)\n 23715: u64 [s1 + 472] = 0\n 23719: u64 [s1 + 464] = 0\n 23723: u64 [s1 + 456] = 0\n 23727: u64 [s1 + 448] = 0\n 23731: jump @337\n      : @323 (gas: 125)\n 23734: u64 [s1 + 424] = 0\n 23738: u64 [s1 + 432] = 0\n 23742: u64 [s1 + 472] = 0\n 23746: a1 = u64 [s1 + 0x188]\n 23750: t0 = a1 + 0x20\n 23753: a0 = t0 <u a1\n 23756: t1 = a1\n 23758: a3 = u64 [s1 + 0x180]\n 23762: a2 = a3 + a0\n 23765: a1 = a2 <u a3\n 23768: ra = a3\n 23770: a1 = a0 if a0 == 0\n 23773: a0 = u64 [s1 + 0x198]\n 23777: a1 = a1 + a0\n 23780: a0 = a1 <u a0\n 23783: t2 = u64 [s1 + 0x190]\n 23787: t2 = t2 + a0\n 23790: a4 = a1 >u 0\n 23792: a5 = t2 >u 0\n 23794: a5 = a4 if t2 == 0\n 23797: a4 = 0x100000000\n 23807: a3 = t0\n 23809: a0 = maxu(t0, a4)\n 23812: t0 = a4 if a5 == 0\n 23815: a3 = a4 if a2 == 0\n 23818: a0 = a3 if a2 != 0\n 23821: a3 = a1 | t2\n 23824: a0 = t0 if a3 != 0\n 23827: a4 = a2\n 23829: a4 = 0 if a5 == 0\n 23831: a4 = a2 if a3 == 0\n 23834: a2 = ra ^ 0xffffffffffffffff\n 23837: a4 = a4 + a2\n 23840: a3 = t1 ^ 0xffffffffffffffff\n 23843: a0 = a0 + a3\n 23846: a5 = a0 <u a3\n 23849: a3 = a4 + a5\n 23852: a4 = a3 ^ a2\n 23855: a2 = a3 <u a2\n 23858: a2 = a5 if a4 == 0\n 23861: a5 = a1\n 23863: a5 = 0 if t2 == 0\n 23865: a5 = a1 if t2 == 0\n 23868: a1 = u64 [s1 + 0x198]\n 23872: a1 = a1 ^ 0xffffffffffffffff\n 23875: u64 [s1 + 0x178] = a1\n 23879: a5 = a5 + a1\n 23882: t1 = a5 + a2\n 23885: a1 = t1 << 0x3b\n 23888: a2 = a3 >> 0x5\n 23891: ra = a2 | a1\n 23894: a3 = a3 << 0x3b\n 23897: a0 = a0 >> 0x5\n 23900: a3 = a3 | a0\n 23903: a4 = u64 [s1 + 0x48]\n 23906: a0 = a4 <u 0x1\n 23909: a1 = -a0\n 23911: a2 = a0 << 0x3b\n 23914: a0 = a4 + 0xffffffffffffffff\n 23917: a0 = a0 >> 0x5\n 23920: a0 = a0 - a2\n 23923: u64 [s1 + 0x1b8] = a0\n 23927: a4 = ra ^ a1\n 23930: t0 = ra <u a1\n 23933: u64 [s1 + 0x168] = a1\n 23937: a0 = a3 <u a0\n 23940: a0 = t0 if a4 != 0\n 23943: u64 [s1 + 0x170] = a0\n 23947: a0 = u64 [s1 + 0x190]\n 23951: a4 = a0 ^ 0xffffffffffffffff\n 23954: t2 = t2 + a4\n 23957: a0 = u64 [s1 + 0x178]\n 23961: a4 = a5 <u a0\n 23964: a4 = a4 + t2\n 23967: a5 = t1 <u a5\n 23970: a5 = a5 + a4\n 23973: t0 = t1 >> 0x5\n 23976: a4 = a5 << 0x3b\n 23979: a4 = t0 | a4\n 23982: a5 = a5 >> 0x5\n 23985: t0 = a1 >> 0x5\n 23988: t1 = t0 - a2\n 23991: a2 = a4 <u t1\n 23994: t2 = a5 ^ t0\n 23997: a0 = a5 <u t0\n 24000: a0 = a2 if t2 == 0\n 24003: a2 = a4 ^ t1\n 24006: a2 = a2 | t2\n 24009: a1 = u64 [s1 + 0x170]\n 24013: a0 = a1 if a2 == 0\n 24016: a2 = u64 [s1 + 0x1b8]\n 24020: a3 = a2 if a0 == 0\n 24023: a1 = u64 [s1 + 0x168]\n 24027: ra = a1 if a0 == 0\n 24030: a5 = t0 if a0 == 0\n 24033: a4 = t1 if a0 == 0\n 24036: t0 = u64 [s1 + 0x180]\n 24040: t1 = u64 [s1 + 0x188]\n 24044: a0 = a4 >> 0x3b\n 24047: a5 = a5 << 0x5\n 24050: a0 = a0 | a5\n 24053: t2 = u64 [s1 + 0x1b0]\n 24057: a2 = ra >> 0x3b\n 24060: a4 = a4 << 0x5\n 24063: a2 = a2 | a4\n 24066: a4 = a3 >> 0x3b\n 24069: a1 = ra << 0x5\n 24072: a1 = a1 | a4\n 24075: a3 = a3 << 0x5\n 24078: a4 = a3 + 0x40\n 24081: u64 [s1 + 0x178] = a4\n 24085: a3 = a4 <u a3\n 24088: a4 = a1 + a3\n 24091: u64 [s1 + 0x170] = a4\n 24095: a1 = a4 <u a1\n 24098: a1 = a3 if a3 == 0\n 24101: a1 = a1 + a2\n 24104: u64 [s1 + 0x168] = a1\n 24108: a1 = a1 <u a2\n 24111: a3 = u64 [s1 + 0x1a8]\n 24115: a0 = a0 + a1\n 24118: u64 [s1 + 0x160] = a0\n 24122: a4 = 0x20\n 24125: ra = u64 [s1 + 0x1a0]\n 24129: fallthrough\n      : @324 (gas: 28)\n 24130: u64 [s1 + 0x1a0] = a4\n 24134: a0 = t1 + a4\n 24137: a1 = a0 <u t1\n 24140: u64 [s1 + 0x1a8] = a3\n 24144: a2 = t0 + a3\n 24147: a2 = a2 + a1\n 24150: a3 = a2 ^ t0\n 24153: a4 = a2 <u t0\n 24156: a4 = a1 if a3 == 0\n 24159: u64 [s1 + 0x1b0] = t2\n 24163: a3 = u64 [s1 + 0x198]\n 24167: a1 = a3 + t2\n 24170: t0 = a1 <u a3\n 24173: a5 = u64 [s1 + 0x190]\n 24177: a3 = u64 [s1 + 0x1d8]\n 24181: a5 = a5 + a3\n 24184: a5 = a5 + t0\n 24187: a4 = a4 + a1\n 24190: a1 = a4 <u a1\n 24193: a1 = a1 + a5\n 24196: a1 = a1 | a2\n 24199: a2 = a0 | a4\n 24202: a2 = a2 | a1\n 24205: a1 = a1 | a4\n 24208: a2 = a2 >> 0x20\n 24211: a1 = a1 << 0x20\n 24214: a1 = a1 | a2\n 24217: jump @326 if a1 == 0\n      : @325 (gas: 1)\n 24220: jump @256\n      : @326 (gas: 5)\n 24223: i32 a0 = a0 + 0\n 24225: a1 = 0x20\n 24228: u64 [s1 + 0x1d8] = a3\n 24232: u64 [s1 + 0x1b8] = ra\n 24236: ra = 196, jump @0\n      : @327 [@dyn 98] (gas: 115)\n 24242: a1 = u8 [a0 + 0x1]\n 24245: a2 = u8 [a0]\n 24247: a3 = u8 [a0 + 0x2]\n 24250: a4 = u8 [a0 + 0x3]\n 24253: a1 = a1 << 0x8\n 24256: a1 = a1 | a2\n 24259: a3 = a3 << 0x10\n 24262: a4 = a4 << 0x18\n 24265: a3 = a3 | a4\n 24268: a1 = a1 | a3\n 24271: a2 = u8 [a0 + 0x5]\n 24274: a3 = u8 [a0 + 0x4]\n 24277: a4 = u8 [a0 + 0x6]\n 24280: a5 = u8 [a0 + 0x7]\n 24283: a2 = a2 << 0x8\n 24286: a2 = a2 | a3\n 24289: a4 = a4 << 0x10\n 24292: a5 = a5 << 0x18\n 24295: a4 = a4 | a5\n 24298: a2 = a2 | a4\n 24301: a2 = a2 << 0x20\n 24304: t0 = a2 | a1\n 24307: a2 = u8 [a0 + 0x9]\n 24310: a3 = u8 [a0 + 0x8]\n 24313: a4 = u8 [a0 + 0xa]\n 24316: a5 = u8 [a0 + 0xb]\n 24319: a2 = a2 << 0x8\n 24322: a2 = a2 | a3\n 24325: a4 = a4 << 0x10\n 24328: a5 = a5 << 0x18\n 24331: a4 = a4 | a5\n 24334: a2 = a2 | a4\n 24337: a3 = u8 [a0 + 0xd]\n 24340: a4 = u8 [a0 + 0xc]\n 24343: a5 = u8 [a0 + 0xe]\n 24346: a1 = u8 [a0 + 0xf]\n 24349: a3 = a3 << 0x8\n 24352: a3 = a3 | a4\n 24355: a5 = a5 << 0x10\n 24358: a1 = a1 << 0x18\n 24361: a1 = a1 | a5\n 24364: a1 = a1 | a3\n 24367: a1 = a1 << 0x20\n 24370: t1 = a1 | a2\n 24373: a1 = u8 [a0 + 0x11]\n 24376: a3 = u8 [a0 + 0x10]\n 24379: a4 = u8 [a0 + 0x12]\n 24382: a5 = u8 [a0 + 0x13]\n 24385: a1 = a1 << 0x8\n 24388: a1 = a1 | a3\n 24391: a4 = a4 << 0x10\n 24394: a5 = a5 << 0x18\n 24397: a4 = a4 | a5\n 24400: a1 = a1 | a4\n 24403: a3 = u8 [a0 + 0x15]\n 24406: a4 = u8 [a0 + 0x14]\n 24409: a5 = u8 [a0 + 0x16]\n 24412: a2 = u8 [a0 + 0x17]\n 24415: a3 = a3 << 0x8\n 24418: a3 = a3 | a4\n 24421: a5 = a5 << 0x10\n 24424: a2 = a2 << 0x18\n 24427: a2 = a2 | a5\n 24430: a2 = a2 | a3\n 24433: a2 = a2 << 0x20\n 24436: a3 = a2 | a1\n 24439: a1 = u8 [a0 + 0x19]\n 24442: a2 = u8 [a0 + 0x18]\n 24445: a4 = u8 [a0 + 0x1a]\n 24448: a5 = u8 [a0 + 0x1b]\n 24451: a1 = a1 << 0x8\n 24454: a1 = a1 | a2\n 24457: a4 = a4 << 0x10\n 24460: a5 = a5 << 0x18\n 24463: a4 = a4 | a5\n 24466: a1 = a1 | a4\n 24469: a2 = u8 [a0 + 0x1d]\n 24472: a4 = u8 [a0 + 0x1c]\n 24475: a5 = u8 [a0 + 0x1e]\n 24478: a0 = u8 [a0 + 0x1f]\n 24481: a2 = a2 << 0x8\n 24484: a2 = a2 | a4\n 24487: a5 = a5 << 0x10\n 24490: a0 = a0 << 0x18\n 24493: a0 = a0 | a5\n 24496: a0 = a0 | a2\n 24499: a0 = a0 << 0x20\n 24502: a0 = a0 | a1\n 24505: a1 = reverse t0\n 24507: a2 = s1 + 0x7ff\n 24511: a2 = a2 + 0x159\n 24515: u64 [a2 + 0x4e0] = a1\n 24519: a1 = reverse t1\n 24521: u64 [a2 + 0x4d8] = a1\n 24525: a1 = reverse a3\n 24527: u64 [a2 + 0x4d0] = a1\n 24531: a0 = reverse a0\n 24533: u64 [a2 + 0x4c8] = a0\n 24537: a0 = u64 [s1 + 0x1c0]\n 24541: u64 [a2 + 0x4c0] = a0\n 24545: a0 = u64 [s1 + 0x1b8]\n 24549: u64 [a2 + 0x4b8] = a0\n 24553: a0 = u64 [s1 + 0x1c8]\n 24557: u64 [a2 + 0x4b0] = a0\n 24561: a0 = u64 [s1 + 0x1d0]\n 24565: u64 [a2 + 0x4a8] = a0\n 24569: a0 = s1 + 0x1000\n 24573: i32 a1 = a0 + 0xfffffffffffffe00\n 24577: a0 = s1 + 0x1000\n 24581: i32 a3 = a0 + 0xfffffffffffffe20\n 24585: a2 = 0xffffffffffffffff\n 24588: a4 = 0x20\n 24591: a0 = 0\n 24593: ecalli 15 // 'set_storage'\n 24595: fallthrough\n      : @328 (gas: 48)\n 24596: t0 = u64 [s1 + 0x180]\n 24600: t1 = u64 [s1 + 0x188]\n 24604: a2 = u64 [s1 + 0x1d0]\n 24608: a2 = a2 + 0x1\n 24611: a0 = a2 <u 0x1\n 24614: a1 = u64 [s1 + 0x1c8]\n 24618: a1 = a1 + a0\n 24621: u64 [s1 + 0x1d0] = a2\n 24625: u64 [s1 + 0x1c8] = a1\n 24629: a0 = a2 | a1\n 24632: a0 = a0 <u 0x1\n 24635: a1 = u64 [s1 + 0x1b8]\n 24639: ra = a1 + a0\n 24642: t2 = ra <u a1\n 24645: a0 = u64 [s1 + 0x1a0]\n 24649: a1 = a0 + 0x20\n 24652: a0 = a1 <u a0\n 24655: a3 = u64 [s1 + 0x1a8]\n 24659: a2 = a3 + a0\n 24662: a3 = a2 <u a3\n 24665: a3 = a0 if a0 == 0\n 24668: a4 = u64 [s1 + 0x1b0]\n 24672: a0 = a4 + a3\n 24675: a3 = a0 <u a4\n 24678: a5 = u64 [s1 + 0x1d8]\n 24682: a5 = a5 + a3\n 24685: a3 = u64 [s1 + 0x168]\n 24689: a3 = a3 ^ a0\n 24692: a4 = u64 [s1 + 0x178]\n 24696: a4 = a4 ^ a1\n 24699: a3 = a3 | a4\n 24702: u64 [s1 + 0x1d8] = a5\n 24706: a4 = u64 [s1 + 0x160]\n 24710: a4 = a4 ^ a5\n 24713: a5 = u64 [s1 + 0x170]\n 24717: a5 = a5 ^ a2\n 24720: a4 = a4 | a5\n 24723: a3 = a3 | a4\n 24726: u64 [s1 + 0x1b8] = a3\n 24730: a4 = u64 [s1 + 0x1c0]\n 24734: a4 = a4 + t2\n 24737: u64 [s1 + 0x1c0] = a4\n 24741: a4 = a1\n 24743: a3 = a2\n 24745: t2 = a0\n 24747: u64 [s1 + 0x1a0] = ra\n 24751: a5 = u64 [s1 + 0x1b8]\n 24755: jump @324 if a5 != 0\n      : @329 (gas: 13)\n 24759: u64 [s1 + 0x1b0] = a2\n 24763: u64 [s1 + 0x1b8] = a1\n 24767: a1 = u64 [s1 + 0xb8]\n 24771: a2 = u64 [s1 + 0x48]\n 24774: t2 = a1\n 24776: a2 = a2 ^ a1\n 24779: a4 = u64 [s1 + 0xb0]\n 24783: a2 = a2 | a4\n 24786: a5 = u64 [s1 + 0xa8]\n 24790: ra = u64 [s1 + 0xa0]\n 24794: a3 = a5 | ra\n 24797: a2 = a2 | a3\n 24800: jump @334 if a2 == 0\n      : @330 (gas: 27)\n 24804: ra = u64 [s1 + 0x1b8]\n 24808: ra = ra + t1\n 24811: a3 = ra <u t1\n 24814: a1 = u64 [s1 + 0x1b0]\n 24818: a1 = a1 + t0\n 24821: a1 = a1 + a3\n 24824: a4 = a1 ^ t0\n 24827: a5 = a1 <u t0\n 24830: a5 = a3 if a4 == 0\n 24833: t0 = u64 [s1 + 0x198]\n 24837: a0 = a0 + t0\n 24840: a3 = a0 <u t0\n 24843: a4 = u64 [s1 + 0x190]\n 24847: a2 = u64 [s1 + 0x1d8]\n 24851: a4 = a4 + a2\n 24854: a3 = a3 + a4\n 24857: a5 = a5 + a0\n 24860: a0 = a5 <u a0\n 24863: a0 = a0 + a3\n 24866: a0 = a0 | a1\n 24869: a1 = ra | a5\n 24872: a1 = a1 | a0\n 24875: a0 = a0 | a5\n 24878: a1 = a1 >> 0x20\n 24881: a0 = a0 << 0x20\n 24884: a0 = a0 | a1\n 24887: jump @332 if a0 == 0\n      : @331 (gas: 1)\n 24890: jump @256\n      : @332 (gas: 3)\n 24893: i32 a0 = ra + 0\n 24895: a1 = 0x20\n 24898: ra = 198, jump @0\n      : @333 [@dyn 99] (gas: 286)\n 24904: a1 = u8 [a0 + 0x19]\n 24907: a2 = u8 [a0 + 0x18]\n 24910: a3 = u8 [a0 + 0x1a]\n 24913: a4 = u8 [a0 + 0x1b]\n 24916: a1 = a1 << 0x8\n 24919: a1 = a1 | a2\n 24922: a3 = a3 << 0x10\n 24925: a4 = a4 << 0x18\n 24928: a3 = a3 | a4\n 24931: a1 = a1 | a3\n 24934: a2 = u8 [a0 + 0x1d]\n 24937: a3 = u8 [a0 + 0x1c]\n 24940: a4 = u8 [a0 + 0x1e]\n 24943: a5 = u8 [a0 + 0x1f]\n 24946: a2 = a2 << 0x8\n 24949: a2 = a2 | a3\n 24952: a4 = a4 << 0x10\n 24955: a5 = a5 << 0x18\n 24958: a4 = a4 | a5\n 24961: a2 = a2 | a4\n 24964: a2 = a2 << 0x20\n 24967: a1 = a1 | a2\n 24970: u64 [s1 + 0x1d8] = a1\n 24974: a1 = u8 [a0 + 0x11]\n 24977: a2 = u8 [a0 + 0x10]\n 24980: a3 = u8 [a0 + 0x12]\n 24983: a4 = u8 [a0 + 0x13]\n 24986: a1 = a1 << 0x8\n 24989: a1 = a1 | a2\n 24992: a3 = a3 << 0x10\n 24995: a4 = a4 << 0x18\n 24998: a3 = a3 | a4\n 25001: a1 = a1 | a3\n 25004: a2 = u8 [a0 + 0x15]\n 25007: a3 = u8 [a0 + 0x14]\n 25010: a4 = u8 [a0 + 0x16]\n 25013: a5 = u8 [a0 + 0x17]\n 25016: a2 = a2 << 0x8\n 25019: a2 = a2 | a3\n 25022: a4 = a4 << 0x10\n 25025: a5 = a5 << 0x18\n 25028: a4 = a4 | a5\n 25031: a2 = a2 | a4\n 25034: a2 = a2 << 0x20\n 25037: a1 = a1 | a2\n 25040: u64 [s1 + 0x1b8] = a1\n 25044: a1 = u8 [a0 + 0x9]\n 25047: a2 = u8 [a0 + 0x8]\n 25050: a3 = u8 [a0 + 0xa]\n 25053: a4 = u8 [a0 + 0xb]\n 25056: a1 = a1 << 0x8\n 25059: a1 = a1 | a2\n 25062: a3 = a3 << 0x10\n 25065: a4 = a4 << 0x18\n 25068: a3 = a3 | a4\n 25071: a1 = a1 | a3\n 25074: a2 = u8 [a0 + 0xd]\n 25077: a3 = u8 [a0 + 0xc]\n 25080: a4 = u8 [a0 + 0xe]\n 25083: a5 = u8 [a0 + 0xf]\n 25086: a2 = a2 << 0x8\n 25089: a2 = a2 | a3\n 25092: a4 = a4 << 0x10\n 25095: a5 = a5 << 0x18\n 25098: a4 = a4 | a5\n 25101: a2 = a2 | a4\n 25104: a2 = a2 << 0x20\n 25107: t2 = a2 | a1\n 25110: a1 = u8 [a0 + 0x1]\n 25113: a2 = u8 [a0]\n 25115: a4 = u8 [a0 + 0x2]\n 25118: a5 = u8 [a0 + 0x3]\n 25121: a1 = a1 << 0x8\n 25124: a1 = a1 | a2\n 25127: a4 = a4 << 0x10\n 25130: a5 = a5 << 0x18\n 25133: a4 = a4 | a5\n 25136: a1 = a1 | a4\n 25139: a2 = u8 [a0 + 0x5]\n 25142: a4 = u8 [a0 + 0x4]\n 25145: a5 = u8 [a0 + 0x6]\n 25148: a0 = u8 [a0 + 0x7]\n 25151: a2 = a2 << 0x8\n 25154: a2 = a2 | a4\n 25157: a5 = a5 << 0x10\n 25160: a0 = a0 << 0x18\n 25163: a0 = a0 | a5\n 25166: a0 = a0 | a2\n 25169: a0 = a0 << 0x20\n 25172: ra = a0 | a1\n 25175: u8 [s1 + 2015] = 0\n 25179: u8 [s1 + 2014] = 0\n 25183: u8 [s1 + 2013] = 0\n 25187: u8 [s1 + 2012] = 0\n 25191: u8 [s1 + 2011] = 0\n 25195: u8 [s1 + 2010] = 0\n 25199: u8 [s1 + 2009] = 0\n 25203: u8 [s1 + 2008] = 0\n 25207: u8 [s1 + 2007] = 0\n 25211: u8 [s1 + 2006] = 0\n 25215: u8 [s1 + 2005] = 0\n 25219: u8 [s1 + 2004] = 0\n 25223: u8 [s1 + 2003] = 0\n 25227: u8 [s1 + 2002] = 0\n 25231: u8 [s1 + 2001] = 0\n 25235: u8 [s1 + 2000] = 0\n 25239: u8 [s1 + 1999] = 0\n 25243: u8 [s1 + 1998] = 0\n 25247: u8 [s1 + 1997] = 0\n 25251: u8 [s1 + 1996] = 0\n 25255: u8 [s1 + 1995] = 0\n 25259: u8 [s1 + 1994] = 0\n 25263: u8 [s1 + 1993] = 0\n 25267: u8 [s1 + 1992] = 0\n 25271: u8 [s1 + 1991] = 0\n 25275: u8 [s1 + 1990] = 0\n 25279: u8 [s1 + 1989] = 0\n 25283: u8 [s1 + 1988] = 0\n 25287: u8 [s1 + 1987] = 0\n 25291: u8 [s1 + 1986] = 0\n 25295: u8 [s1 + 1985] = 0\n 25299: u8 [s1 + 1984] = 0\n 25303: u8 [s1 + 1983] = 0xff\n 25309: u8 [s1 + 1982] = 0xff\n 25315: u8 [s1 + 1981] = 0xff\n 25321: u8 [s1 + 1979] = 0xff\n 25327: u8 [s1 + 1976] = 0xffffffffffffffff\n 25332: u8 [s1 + 1975] = 0xff\n 25338: u8 [s1 + 1974] = 0xff\n 25344: u8 [s1 + 1973] = 0xff\n 25350: u8 [s1 + 1971] = 0xff\n 25356: u8 [s1 + 1968] = 0xffffffffffffffff\n 25361: u8 [s1 + 1967] = 0xff\n 25367: u8 [s1 + 1966] = 0xff\n 25373: u8 [s1 + 1965] = 0xff\n 25379: u8 [s1 + 1963] = 0xff\n 25385: u8 [s1 + 1960] = 0xffffffffffffffff\n 25390: u8 [s1 + 1959] = 0xff\n 25396: u8 [s1 + 1958] = 0xff\n 25402: u8 [s1 + 1957] = 0xff\n 25408: u8 [s1 + 1955] = 0xff\n 25414: u8 [s1 + 1952] = 0xffffffffffffffff\n 25419: a2 = 0xffffffff\n 25429: u8 [s1 + 0x7bc] = a2\n 25433: u8 [s1 + 0x7b4] = a2\n 25437: u8 [s1 + 0x7ac] = a2\n 25441: u8 [s1 + 0x7a4] = a2\n 25445: a2 = 0xffffffffffff\n 25455: u8 [s1 + 0x7ba] = a2\n 25459: a1 = 0xffffffffffffff\n 25469: u8 [s1 + 0x7b9] = a1\n 25473: u8 [s1 + 0x7b2] = a2\n 25477: u8 [s1 + 0x7b1] = a1\n 25481: u8 [s1 + 0x7aa] = a2\n 25485: u8 [s1 + 0x7a9] = a1\n 25489: u8 [s1 + 0x7a2] = a2\n 25493: u8 [s1 + 0x7a1] = a1\n 25497: a4 = u64 [s1 + 0xb8]\n 25501: a4 = a4 & 0x1f\n 25504: a1 = s1 + 0x7a0\n 25508: a4 = a4 + a1\n 25511: a1 = u8 [a4 + 0x19]\n 25514: a2 = u8 [a4 + 0x18]\n 25517: a5 = u8 [a4 + 0x1a]\n 25520: a3 = u8 [a4 + 0x1b]\n 25523: a1 = a1 << 0x8\n 25526: a1 = a1 | a2\n 25529: a5 = a5 << 0x10\n 25532: a3 = a3 << 0x18\n 25535: a3 = a3 | a5\n 25538: a1 = a1 | a3\n 25541: a2 = u8 [a4 + 0x1d]\n 25544: a3 = u8 [a4 + 0x1c]\n 25547: a5 = u8 [a4 + 0x1e]\n 25550: a0 = u8 [a4 + 0x1f]\n 25553: a2 = a2 << 0x8\n 25556: a2 = a2 | a3\n 25559: a5 = a5 << 0x10\n 25562: a0 = a0 << 0x18\n 25565: a0 = a0 | a5\n 25568: a0 = a0 | a2\n 25571: a0 = a0 << 0x20\n 25574: t1 = a0 | a1\n 25577: a0 = u8 [a4 + 0x11]\n 25580: a1 = u8 [a4 + 0x10]\n 25583: a2 = u8 [a4 + 0x12]\n 25586: a3 = u8 [a4 + 0x13]\n 25589: a0 = a0 << 0x8\n 25592: a0 = a0 | a1\n 25595: a2 = a2 << 0x10\n 25598: a3 = a3 << 0x18\n 25601: a2 = a2 | a3\n 25604: a5 = a2 | a0\n 25607: a1 = u8 [a4 + 0x15]\n 25610: a2 = u8 [a4 + 0x14]\n 25613: a3 = u8 [a4 + 0x16]\n 25616: a0 = u8 [a4 + 0x17]\n 25619: a1 = a1 << 0x8\n 25622: a1 = a1 | a2\n 25625: a3 = a3 << 0x10\n 25628: a0 = a0 << 0x18\n 25631: a0 = a0 | a3\n 25634: a0 = a0 | a1\n 25637: a0 = a0 << 0x20\n 25640: t0 = a0 | a5\n 25643: a0 = u8 [a4 + 0x9]\n 25646: a2 = u8 [a4 + 0x8]\n 25649: a3 = u8 [a4 + 0xa]\n 25652: a5 = u8 [a4 + 0xb]\n 25655: a0 = a0 << 0x8\n 25658: a0 = a0 | a2\n 25661: a3 = a3 << 0x10\n 25664: a5 = a5 << 0x18\n 25667: a3 = a3 | a5\n 25670: a1 = a3 | a0\n 25673: a2 = u8 [a4 + 0xd]\n 25676: a3 = u8 [a4 + 0xc]\n 25679: a5 = u8 [a4 + 0xe]\n 25682: a0 = u8 [a4 + 0xf]\n 25685: a2 = a2 << 0x8\n 25688: a2 = a2 | a3\n 25691: a5 = a5 << 0x10\n 25694: a0 = a0 << 0x18\n 25697: a0 = a0 | a5\n 25700: a0 = a0 | a2\n 25703: a0 = a0 << 0x20\n 25706: a2 = a0 | a1\n 25709: a0 = u8 [a4 + 0x1]\n 25712: a1 = u8 [a4]\n 25714: a3 = u8 [a4 + 0x2]\n 25717: a5 = u8 [a4 + 0x3]\n 25720: a0 = a0 << 0x8\n 25723: a0 = a0 | a1\n 25726: a3 = a3 << 0x10\n 25729: a5 = a5 << 0x18\n 25732: a3 = a3 | a5\n 25735: a0 = a0 | a3\n 25738: a1 = u8 [a4 + 0x5]\n 25741: a3 = u8 [a4 + 0x4]\n 25744: a5 = u8 [a4 + 0x6]\n 25747: a4 = u8 [a4 + 0x7]\n 25750: a1 = a1 << 0x8\n 25753: a1 = a1 | a3\n 25756: a5 = a5 << 0x10\n 25759: a4 = a4 << 0x18\n 25762: a4 = a4 | a5\n 25765: a1 = a1 | a4\n 25768: a1 = a1 << 0x20\n 25771: a0 = a0 | a1\n 25774: a1 = u64 [s1 + 0x1d8]\n 25778: a1 = reverse a1\n 25780: a0 = a1 & ~a0\n 25783: a1 = u64 [s1 + 0x1b8]\n 25787: a1 = reverse a1\n 25789: a1 = a1 & ~a2\n 25792: a2 = reverse t2\n 25794: a2 = a2 & ~t0\n 25797: a3 = reverse ra\n 25799: a3 = a3 & ~t1\n 25802: a4 = s1 + 0x7ff\n 25806: a4 = a4 + 0x159\n 25810: a5 = u64 [s1 + 0x1c0]\n 25814: u64 [a4 + 0x4c0] = a5\n 25818: a5 = u64 [s1 + 0x1a0]\n 25822: u64 [a4 + 0x4b8] = a5\n 25826: a5 = u64 [s1 + 0x1c8]\n 25830: u64 [a4 + 0x4b0] = a5\n 25834: a5 = u64 [s1 + 0x1d0]\n 25838: u64 [a4 + 0x4a8] = a5\n 25842: u64 [a4 + 0x4e0] = a3\n 25846: u64 [a4 + 0x4d8] = a2\n 25850: u64 [a4 + 0x4d0] = a1\n 25854: u64 [a4 + 0x4c8] = a0\n 25858: a0 = s1 + 0x1000\n 25862: i32 a1 = a0 + 0xfffffffffffffe00\n 25866: a0 = s1 + 0x1000\n 25870: i32 a3 = a0 + 0xfffffffffffffe20\n 25874: a2 = 0xffffffffffffffff\n 25877: a4 = 0x20\n 25880: a0 = 0\n 25882: ecalli 15 // 'set_storage'\n 25884: a5 = u64 [s1 + 0xa8]\n 25888: t2 = u64 [s1 + 0xb8]\n 25892: a4 = u64 [s1 + 0xb0]\n 25896: ra = u64 [s1 + 0xa0]\n 25900: fallthrough\n      : @334 (gas: 26)\n 25901: a0 = a4 >> 0x3f\n 25904: a1 = ra << 0x1\n 25907: a0 = a0 | a1\n 25910: a1 = a5 >> 0x3f\n 25913: a2 = a4 << 0x1\n 25916: a1 = a1 | a2\n 25919: a2 = t2 >> 0x3f\n 25922: a3 = a5 << 0x1\n 25925: a2 = a2 | a3\n 25928: a3 = t2 << 0x1\n 25931: a3 = a3 + 0x1\n 25934: a5 = s1 + 0x7ff\n 25938: a5 = a5 + 0x159\n 25942: a4 = u64 [s1 + 0x90]\n 25946: u64 [a5 + 0x4b0] = a4\n 25950: a4 = u64 [s1 + 0x98]\n 25954: u64 [a5 + 0x4a8] = a4\n 25958: a4 = u64 [s1 + 0x88]\n 25962: u64 [a5 + 0x4b8] = a4\n 25966: a4 = u64 [s1 + 0x80]\n 25970: u64 [a5 + 0x4c0] = a4\n 25974: u64 [a5 + 0x4c8] = a3\n 25978: u64 [a5 + 0x4d0] = a2\n 25982: u64 [a5 + 0x4d8] = a1\n 25986: u64 [a5 + 0x4e0] = a0\n 25990: jump @338\n      : @335 (gas: 3)\n 25993: i32 a0 = a1 + 0x20\n 25996: a1 = 0x20\n 25999: ra = 200, jump @0\n      : @336 [@dyn 100] (gas: 100)\n 26005: t2 = u64 [s1 + 0xa8]\n 26009: a1 = u8 [a0 + 0x19]\n 26012: a2 = u8 [a0 + 0x18]\n 26015: a3 = u8 [a0 + 0x1a]\n 26018: a4 = u8 [a0 + 0x1b]\n 26021: a1 = a1 << 0x8\n 26024: a1 = a1 | a2\n 26027: a3 = a3 << 0x10\n 26030: a4 = a4 << 0x18\n 26033: a3 = a3 | a4\n 26036: a1 = a1 | a3\n 26039: a2 = u8 [a0 + 0x1d]\n 26042: a3 = u8 [a0 + 0x1c]\n 26045: a4 = u8 [a0 + 0x1e]\n 26048: a5 = u8 [a0 + 0x1f]\n 26051: a2 = a2 << 0x8\n 26054: a2 = a2 | a3\n 26057: a4 = a4 << 0x10\n 26060: a5 = a5 << 0x18\n 26063: a4 = a4 | a5\n 26066: a2 = a2 | a4\n 26069: a2 = a2 << 0x20\n 26072: t0 = a2 | a1\n 26075: a2 = u8 [a0 + 0x11]\n 26078: a3 = u8 [a0 + 0x10]\n 26081: a4 = u8 [a0 + 0x12]\n 26084: a5 = u8 [a0 + 0x13]\n 26087: a2 = a2 << 0x8\n 26090: a2 = a2 | a3\n 26093: a4 = a4 << 0x10\n 26096: a5 = a5 << 0x18\n 26099: a4 = a4 | a5\n 26102: a2 = a2 | a4\n 26105: a3 = u8 [a0 + 0x15]\n 26108: a4 = u8 [a0 + 0x14]\n 26111: a5 = u8 [a0 + 0x16]\n 26114: a1 = u8 [a0 + 0x17]\n 26117: a3 = a3 << 0x8\n 26120: a3 = a3 | a4\n 26123: a5 = a5 << 0x10\n 26126: a1 = a1 << 0x18\n 26129: a1 = a1 | a5\n 26132: a1 = a1 | a3\n 26135: a1 = a1 << 0x20\n 26138: t1 = a1 | a2\n 26141: a1 = u8 [a0 + 0x9]\n 26144: a3 = u8 [a0 + 0x8]\n 26147: a4 = u8 [a0 + 0xa]\n 26150: a5 = u8 [a0 + 0xb]\n 26153: a1 = a1 << 0x8\n 26156: a1 = a1 | a3\n 26159: a4 = a4 << 0x10\n 26162: a5 = a5 << 0x18\n 26165: a4 = a4 | a5\n 26168: a1 = a1 | a4\n 26171: a3 = u8 [a0 + 0xd]\n 26174: a4 = u8 [a0 + 0xc]\n 26177: a5 = u8 [a0 + 0xe]\n 26180: a2 = u8 [a0 + 0xf]\n 26183: a3 = a3 << 0x8\n 26186: a3 = a3 | a4\n 26189: a5 = a5 << 0x10\n 26192: a2 = a2 << 0x18\n 26195: a2 = a2 | a5\n 26198: a2 = a2 | a3\n 26201: a2 = a2 << 0x20\n 26204: a3 = a2 | a1\n 26207: a1 = u8 [a0 + 0x1]\n 26210: a2 = u8 [a0]\n 26212: a4 = u8 [a0 + 0x2]\n 26215: a5 = u8 [a0 + 0x3]\n 26218: a1 = a1 << 0x8\n 26221: a1 = a1 | a2\n 26224: a4 = a4 << 0x10\n 26227: a5 = a5 << 0x18\n 26230: a4 = a4 | a5\n 26233: a1 = a1 | a4\n 26236: a2 = u8 [a0 + 0x5]\n 26239: a4 = u8 [a0 + 0x4]\n 26242: a5 = u8 [a0 + 0x6]\n 26245: a0 = u8 [a0 + 0x7]\n 26248: a2 = a2 << 0x8\n 26251: a2 = a2 | a4\n 26254: a4 = u64 [s1 + 0xa0]\n 26258: a5 = a5 << 0x10\n 26261: a0 = a0 << 0x18\n 26264: a0 = a0 | a5\n 26267: a0 = a0 | a2\n 26270: a0 = a0 << 0x20\n 26273: a0 = a0 | a1\n 26276: a0 = reverse a0\n 26278: u64 [s1 + 0x1c0] = a0\n 26282: a0 = reverse a3\n 26284: u64 [s1 + 0x1c8] = a0\n 26288: a0 = reverse t1\n 26290: u64 [s1 + 0x1d0] = a0\n 26294: a0 = reverse t0\n 26296: u64 [s1 + 0x1d8] = a0\n 26300: a3 = u64 [s1 + 0xb0]\n 26304: fallthrough\n      : @337 (gas: 232)\n 26305: a0 = a4 << 0x1\n 26308: a4 = a3 >> 0x3f\n 26311: a0 = a0 | a4\n 26314: u64 [s1 + 0x1b8] = a0\n 26318: a0 = a3 << 0x1\n 26321: a5 = t2 >> 0x3f\n 26324: a0 = a0 | a5\n 26327: u64 [s1 + 0x1b0] = a0\n 26331: a0 = t2 << 0x1\n 26334: a5 = u64 [s1 + 0xb8]\n 26338: a1 = a5 >> 0x3f\n 26341: a4 = a0 | a1\n 26344: u8 [s1 + 2047] = 0xff\n 26350: u8 [s1 + 2046] = 0xff\n 26356: u8 [s1 + 2045] = 0xff\n 26362: u8 [s1 + 2043] = 0xff\n 26368: u8 [s1 + 2039] = 0xff\n 26374: u8 [s1 + 2038] = 0xff\n 26380: u8 [s1 + 2037] = 0xff\n 26386: u8 [s1 + 2035] = 0xff\n 26392: u8 [s1 + 2031] = 0xff\n 26398: u8 [s1 + 2030] = 0xff\n 26404: u8 [s1 + 2029] = 0xff\n 26410: u8 [s1 + 2027] = 0xff\n 26416: u8 [s1 + 2023] = 0xff\n 26422: u8 [s1 + 2022] = 0xff\n 26428: u8 [s1 + 2021] = 0xff\n 26434: u8 [s1 + 2019] = 0xff\n 26440: a2 = 0xffffffff\n 26450: u8 [s1 + 0x7fc] = a2\n 26454: u8 [s1 + 0x7f4] = a2\n 26458: u8 [s1 + 0x7ec] = a2\n 26462: u8 [s1 + 0x7e4] = a2\n 26466: a2 = 0xffffffffffff\n 26476: u8 [s1 + 0x7fa] = a2\n 26480: u8 [s1 + 0x7f2] = a2\n 26484: u8 [s1 + 0x7ea] = a2\n 26488: u8 [s1 + 0x7e2] = a2\n 26492: u8 [s1 + 2040] = 0xffffffffffffffff\n 26497: u8 [s1 + 2032] = 0xffffffffffffffff\n 26502: u8 [s1 + 2024] = 0xffffffffffffffff\n 26507: u8 [s1 + 2016] = 0xffffffffffffffff\n 26512: a1 = 0xffffffffffffff\n 26522: u8 [s1 + 0x7f9] = a1\n 26526: u8 [s1 + 0x7f1] = a1\n 26530: u8 [s1 + 0x7e9] = a1\n 26534: u8 [s1 + 0x7e1] = a1\n 26538: a1 = a5 & 0x1f\n 26541: a2 = s1 + 0x7e0\n 26545: a1 = a1 + a2\n 26548: a0 = s1 + 0x1000\n 26552: u8 [a0 + 4294965279] = 0\n 26556: a0 = s1 + 0x1000\n 26560: u8 [a0 + 4294965278] = 0\n 26564: a0 = s1 + 0x1000\n 26568: u8 [a0 + 4294965277] = 0\n 26572: a0 = s1 + 0x1000\n 26576: u8 [a0 + 4294965276] = 0\n 26580: a0 = s1 + 0x1000\n 26584: u8 [a0 + 4294965275] = 0\n 26588: a0 = s1 + 0x1000\n 26592: u8 [a0 + 4294965274] = 0\n 26596: a0 = s1 + 0x1000\n 26600: u8 [a0 + 4294965273] = 0\n 26604: a0 = s1 + 0x1000\n 26608: u8 [a0 + 4294965272] = 0\n 26612: a0 = s1 + 0x1000\n 26616: u8 [a0 + 4294965271] = 0\n 26620: a0 = s1 + 0x1000\n 26624: u8 [a0 + 4294965270] = 0\n 26628: a0 = s1 + 0x1000\n 26632: u8 [a0 + 4294965269] = 0\n 26636: a0 = s1 + 0x1000\n 26640: u8 [a0 + 4294965268] = 0\n 26644: a0 = s1 + 0x1000\n 26648: u8 [a0 + 4294965267] = 0\n 26652: a0 = s1 + 0x1000\n 26656: u8 [a0 + 4294965266] = 0\n 26660: a0 = s1 + 0x1000\n 26664: u8 [a0 + 4294965265] = 0\n 26668: a0 = s1 + 0x1000\n 26672: u8 [a0 + 4294965264] = 0\n 26676: a0 = s1 + 0x1000\n 26680: u8 [a0 + 4294965263] = 0\n 26684: a0 = s1 + 0x1000\n 26688: u8 [a0 + 4294965262] = 0\n 26692: a0 = s1 + 0x1000\n 26696: u8 [a0 + 4294965261] = 0\n 26700: a0 = s1 + 0x1000\n 26704: u8 [a0 + 4294965260] = 0\n 26708: a0 = s1 + 0x1000\n 26712: u8 [a0 + 4294965259] = 0\n 26716: a0 = s1 + 0x1000\n 26720: u8 [a0 + 4294965258] = 0\n 26724: a0 = s1 + 0x1000\n 26728: u8 [a0 + 4294965257] = 0\n 26732: a0 = s1 + 0x1000\n 26736: u8 [a0 + 4294965256] = 0\n 26740: a0 = s1 + 0x1000\n 26744: u8 [a0 + 4294965255] = 0\n 26748: a0 = s1 + 0x1000\n 26752: u8 [a0 + 4294965254] = 0\n 26756: a0 = s1 + 0x1000\n 26760: u8 [a0 + 4294965253] = 0\n 26764: a0 = s1 + 0x1000\n 26768: u8 [a0 + 4294965252] = 0\n 26772: a0 = s1 + 0x1000\n 26776: u8 [a0 + 4294965251] = 0\n 26780: a0 = s1 + 0x1000\n 26784: u8 [a0 + 4294965250] = 0\n 26788: a0 = s1 + 0x1000\n 26792: u8 [a0 + 4294965249] = 0\n 26796: a0 = s1 + 0x1000\n 26800: u8 [a0 + 4294965248] = 0\n 26804: t0 = u8 [a1 + 0x1]\n 26807: a3 = u8 [a1]\n 26809: a2 = u8 [a1 + 0x2]\n 26812: t1 = u8 [a1 + 0x3]\n 26815: t0 = t0 << 0x8\n 26818: a3 = t0 | a3\n 26821: a2 = a2 << 0x10\n 26824: t1 = t1 << 0x18\n 26827: a2 = t1 | a2\n 26830: t0 = a2 | a3\n 26833: a3 = u8 [a1 + 0x5]\n 26836: t1 = u8 [a1 + 0x4]\n 26839: a2 = u8 [a1 + 0x6]\n 26842: t2 = u8 [a1 + 0x7]\n 26845: a3 = a3 << 0x8\n 26848: a3 = a3 | t1\n 26851: a2 = a2 << 0x10\n 26854: t2 = t2 << 0x18\n 26857: a2 = t2 | a2\n 26860: a2 = a2 | a3\n 26863: a2 = a2 << 0x20\n 26866: t1 = a2 | t0\n 26869: t2 = u8 [a1 + 0x9]\n 26872: t0 = u8 [a1 + 0x8]\n 26875: a2 = u8 [a1 + 0xa]\n 26878: a3 = u8 [a1 + 0xb]\n 26881: t2 = t2 << 0x8\n 26884: t0 = t2 | t0\n 26887: a2 = a2 << 0x10\n 26890: a3 = a3 << 0x18\n 26893: a2 = a2 | a3\n 26896: t0 = a2 | t0\n 26899: a3 = u8 [a1 + 0xd]\n 26902: t2 = u8 [a1 + 0xc]\n 26905: a2 = u8 [a1 + 0xe]\n 26908: ra = u8 [a1 + 0xf]\n 26911: a3 = a3 << 0x8\n 26914: a3 = a3 | t2\n 26917: a2 = a2 << 0x10\n 26920: ra = ra << 0x18\n 26923: a2 = ra | a2\n 26926: a2 = a2 | a3\n 26929: a2 = a2 << 0x20\n 26932: t2 = a2 | t0\n 26935: t0 = u8 [a1 + 0x11]\n 26938: ra = u8 [a1 + 0x10]\n 26941: a2 = u8 [a1 + 0x12]\n 26944: a3 = u8 [a1 + 0x13]\n 26947: t0 = t0 << 0x8\n 26950: t0 = t0 | ra\n 26953: a2 = a2 << 0x10\n 26956: a3 = a3 << 0x18\n 26959: a2 = a2 | a3\n 26962: t0 = a2 | t0\n 26965: a3 = u8 [a1 + 0x15]\n 26968: ra = u8 [a1 + 0x14]\n 26971: a2 = u8 [a1 + 0x16]\n 26974: a0 = u8 [a1 + 0x17]\n 26977: a3 = a3 << 0x8\n 26980: a3 = a3 | ra\n 26983: a2 = a2 << 0x10\n 26986: a0 = a0 << 0x18\n 26989: a0 = a0 | a2\n 26992: a0 = a0 | a3\n 26995: a0 = a0 << 0x20\n 26998: t0 = a0 | t0\n 27001: ra = u8 [a1 + 0x19]\n 27004: a2 = u8 [a1 + 0x18]\n 27007: a3 = u8 [a1 + 0x1a]\n 27010: a0 = u8 [a1 + 0x1b]\n 27013: ra = ra << 0x8\n 27016: a2 = ra | a2\n 27019: a3 = a3 << 0x10\n 27022: a0 = a0 << 0x18\n 27025: a0 = a0 | a3\n 27028: ra = a0 | a2\n 27031: a2 = u8 [a1 + 0x1d]\n 27034: a3 = u8 [a1 + 0x1c]\n 27037: a0 = u8 [a1 + 0x1e]\n 27040: a1 = u8 [a1 + 0x1f]\n 27043: a2 = a2 << 0x8\n 27046: a2 = a2 | a3\n 27049: a0 = a0 << 0x10\n 27052: a1 = a1 << 0x18\n 27055: a0 = a0 | a1\n 27058: a0 = a0 | a2\n 27061: a0 = a0 << 0x20\n 27064: a0 = a0 | ra\n 27067: a1 = u64 [s1 + 0x1c0]\n 27071: a0 = a1 & ~a0\n 27074: a1 = u64 [s1 + 0x1c8]\n 27078: a1 = a1 & ~t0\n 27081: a2 = u64 [s1 + 0x1d0]\n 27085: a2 = a2 & ~t2\n 27088: a3 = u64 [s1 + 0x1d8]\n 27092: a3 = a3 & ~t1\n 27095: a5 = a5 << 0x1\n 27098: a3 = a3 | a5\n 27101: a2 = a2 | a4\n 27104: a4 = u64 [s1 + 0x1b0]\n 27108: a1 = a1 | a4\n 27111: a4 = u64 [s1 + 0x1b8]\n 27115: a0 = a0 | a4\n 27118: a5 = s1 + 0x7ff\n 27122: a5 = a5 + 0x159\n 27126: a4 = u64 [s1 + 0x90]\n 27130: u64 [a5 + 0x4b0] = a4\n 27134: a4 = u64 [s1 + 0x98]\n 27138: u64 [a5 + 0x4a8] = a4\n 27142: a4 = u64 [s1 + 0x88]\n 27146: u64 [a5 + 0x4b8] = a4\n 27150: a4 = u64 [s1 + 0x80]\n 27154: u64 [a5 + 0x4c0] = a4\n 27158: u64 [a5 + 0x4e0] = a0\n 27162: u64 [a5 + 0x4d8] = a1\n 27166: u64 [a5 + 0x4d0] = a2\n 27170: u64 [a5 + 0x4c8] = a3\n 27174: fallthrough\n      : @338 (gas: 151)\n 27175: a0 = s1 + 0x1000\n 27179: i32 a1 = a0 + 0xfffffffffffffe00\n 27183: a0 = s1 + 0x1000\n 27187: i32 a3 = a0 + 0xfffffffffffffe20\n 27191: a2 = 0xffffffffffffffff\n 27194: a4 = 0x20\n 27197: a0 = 0\n 27199: ecalli 15 // 'set_storage'\n 27201: a1 = u64 [s1 + 0xe0]\n 27205: a0 = a1 + 0x2\n 27208: a1 = a0 <u a1\n 27211: a3 = u64 [s1 + 0xe8]\n 27215: a2 = a3 + a1\n 27218: a3 = a2 <u a3\n 27221: a3 = a1 if a1 == 0\n 27224: a4 = s1 + 0x7ff\n 27228: a4 = a4 + 0x159\n 27232: u64 [a4 + 0x4a8] = a0\n 27236: u64 [a4 + 0x4b0] = a2\n 27240: a0 = u64 [s1 + 0xf8]\n 27244: a3 = a3 + a0\n 27247: u64 [a4 + 0x4b8] = a3\n 27251: a0 = a3 <u a0\n 27254: a1 = u64 [s1 + 0xf0]\n 27258: a0 = a0 + a1\n 27261: u64 [a4 + 0x4c0] = a0\n 27265: a0 = u64 [s1 + 0xd8]\n 27269: u64 [a4 + 0x4c8] = a0\n 27273: a0 = u64 [s1 + 0xd0]\n 27277: u64 [a4 + 0x4d0] = a0\n 27281: a0 = u64 [s1 + 0xc8]\n 27285: u64 [a4 + 0x4d8] = a0\n 27289: a0 = u64 [s1 + 0xc0]\n 27293: u64 [a4 + 0x4e0] = a0\n 27297: a0 = s1 + 0x1000\n 27301: i32 a1 = a0 + 0xfffffffffffffe00\n 27305: a0 = s1 + 0x1000\n 27309: i32 a3 = a0 + 0xfffffffffffffe20\n 27313: a2 = 0xffffffffffffffff\n 27316: a4 = 0x20\n 27319: a0 = 0\n 27321: ecalli 15 // 'set_storage'\n 27323: a1 = u64 [s1 + 0xe0]\n 27327: a0 = a1 + 0x3\n 27330: a1 = a0 <u a1\n 27333: a3 = u64 [s1 + 0xe8]\n 27337: a2 = a3 + a1\n 27340: a3 = a2 <u a3\n 27343: a3 = a1 if a1 == 0\n 27346: a1 = u64 [s1 + 0xf8]\n 27350: a3 = a3 + a1\n 27353: a1 = a3 <u a1\n 27356: a4 = u64 [s1 + 0xf0]\n 27360: a1 = a1 + a4\n 27363: a4 = s1 + 0x7ff\n 27367: a4 = a4 + 0x159\n 27371: u64 [a4 + 0x4c0] = a1\n 27375: u64 [a4 + 0x4b8] = a3\n 27379: u64 [a4 + 0x4b0] = a2\n 27383: u64 [a4 + 0x4a8] = a0\n 27387: a0 = u64 [s1 + 0x100]\n 27391: u64 [a4 + 0x4e0] = a0\n 27395: a0 = u64 [s1 + 0x108]\n 27399: u64 [a4 + 0x4d8] = a0\n 27403: a0 = u64 [s1 + 0x110]\n 27407: u64 [a4 + 0x4d0] = a0\n 27411: a0 = u64 [s1 + 0x118]\n 27415: u64 [a4 + 0x4c8] = a0\n 27419: a0 = s1 + 0x1000\n 27423: i32 a1 = a0 + 0xfffffffffffffe00\n 27427: a0 = s1 + 0x1000\n 27431: i32 a3 = a0 + 0xfffffffffffffe20\n 27435: a2 = 0xffffffffffffffff\n 27438: a4 = 0x20\n 27441: a0 = 0\n 27443: ecalli 15 // 'set_storage'\n 27445: a1 = u64 [s1 + 0xe0]\n 27449: a0 = a1 + 0x5\n 27452: a1 = a0 <u a1\n 27455: a3 = u64 [s1 + 0xe8]\n 27459: a2 = a3 + a1\n 27462: a3 = a2 <u a3\n 27465: a3 = a1 if a1 == 0\n 27468: a1 = u64 [s1 + 0xf8]\n 27472: a3 = a3 + a1\n 27475: a1 = a3 <u a1\n 27478: a4 = u64 [s1 + 0xf0]\n 27482: a1 = a1 + a4\n 27485: a4 = s1 + 0x7ff\n 27489: a4 = a4 + 0x159\n 27493: u64 [a4 + 0x4c0] = a1\n 27497: u64 [a4 + 0x4b8] = a3\n 27501: u64 [a4 + 0x4b0] = a2\n 27505: u64 [a4 + 0x4a8] = a0\n 27509: a0 = u64 [s1 + 0x140]\n 27513: u64 [a4 + 0x4e0] = a0\n 27517: a0 = u64 [s1 + 0x148]\n 27521: u64 [a4 + 0x4d8] = a0\n 27525: a0 = u64 [s1 + 0x150]\n 27529: u64 [a4 + 0x4d0] = a0\n 27533: a0 = u64 [s1 + 0x158]\n 27537: u64 [a4 + 0x4c8] = a0\n 27541: a0 = s1 + 0x1000\n 27545: i32 a1 = a0 + 0xfffffffffffffe00\n 27549: a0 = s1 + 0x1000\n 27553: i32 a3 = a0 + 0xfffffffffffffe20\n 27557: a2 = 0xffffffffffffffff\n 27560: a4 = 0x20\n 27563: a0 = 0\n 27565: ecalli 15 // 'set_storage'\n 27567: a1 = u64 [s1 + 0xe0]\n 27571: a0 = a1 + 0x6\n 27574: a1 = a0 <u a1\n 27577: a3 = u64 [s1 + 0xe8]\n 27581: a2 = a3 + a1\n 27584: a3 = a2 <u a3\n 27587: a3 = a1 if a1 == 0\n 27590: a1 = u64 [s1 + 0xf8]\n 27594: a3 = a3 + a1\n 27597: a1 = a3 <u a1\n 27600: a4 = u64 [s1 + 0xf0]\n 27604: a1 = a1 + a4\n 27607: a4 = s1 + 0x7ff\n 27611: a4 = a4 + 0x159\n 27615: u64 [a4 + 0x4c0] = a1\n 27619: u64 [a4 + 0x4b8] = a3\n 27623: u64 [a4 + 0x4b0] = a2\n 27627: u64 [a4 + 0x4a8] = a0\n 27631: a0 = u64 [s1 + 0x138]\n 27635: u64 [a4 + 0x4e0] = a0\n 27639: a0 = u64 [s1 + 0x130]\n 27643: u64 [a4 + 0x4d8] = a0\n 27647: a0 = u64 [s1 + 0x128]\n 27651: u64 [a4 + 0x4d0] = a0\n 27655: a0 = u64 [s1 + 0x120]\n 27659: u64 [a4 + 0x4c8] = a0\n 27663: a0 = s1 + 0x1000\n 27667: i32 a1 = a0 + 0xfffffffffffffe00\n 27671: a0 = s1 + 0x1000\n 27675: i32 a3 = a0 + 0xfffffffffffffe20\n 27679: a2 = 0xffffffffffffffff\n 27682: a4 = 0x20\n 27685: a0 = 0\n 27687: ecalli 15 // 'set_storage'\n 27689: u64 [s1 + 1912] = 0\n 27693: u64 [s1 + 1904] = 0\n 27697: u64 [s1 + 1896] = 0\n 27701: a0 = s1 + 0x780\n 27705: a2 = s1 + 0x760\n 27709: u64 [s1 + 1888] = 0x1\n 27714: ra = 202, jump @25\n      : @339 [@dyn 101] (gas: 11)\n 27720: a2 = u64 [s1 + 0x780]\n 27724: a0 = u64 [s1 + 0x788]\n 27728: a1 = u64 [s1 + 0x790]\n 27732: a3 = u64 [s1 + 0x798]\n 27736: u64 [s1 + 0x738] = a3\n 27740: u64 [s1 + 0x730] = a1\n 27744: u64 [s1 + 0x728] = a0\n 27748: a0 = s1 + 0x740\n 27752: a1 = s1 + 0x720\n 27756: u64 [s1 + 0x720] = a2\n 27760: ra = 204, jump @478\n      : @340 [@dyn 102] (gas: 29)\n 27766: a0 = u64 [s1 + 0x740]\n 27770: a1 = u64 [s1 + 0x748]\n 27774: a2 = u64 [s1 + 0x750]\n 27778: a3 = u64 [s1 + 0x758]\n 27782: a4 = s1 + 0x7ff\n 27786: a4 = a4 + 0x159\n 27790: u64 [a4 + 1216] = 0\n 27794: u64 [a4 + 1208] = 0\n 27798: u64 [a4 + 1200] = 0\n 27802: u64 [a4 + 1192] = 0x1\n 27807: u64 [a4 + 0x4e0] = a3\n 27811: u64 [a4 + 0x4d8] = a2\n 27815: u64 [a4 + 0x4d0] = a1\n 27819: u64 [a4 + 0x4c8] = a0\n 27823: a0 = s1 + 0x1000\n 27827: i32 a1 = a0 + 0xfffffffffffffe00\n 27831: a0 = s1 + 0x1000\n 27835: i32 a3 = a0 + 0xfffffffffffffe20\n 27839: a2 = 0xffffffffffffffff\n 27842: a4 = 0x20\n 27845: a0 = 0\n 27847: ecalli 15 // 'set_storage'\n 27849: u64 [s1 + 1784] = 0\n 27853: u64 [s1 + 1776] = 0\n 27857: u64 [s1 + 1768] = 0\n 27861: a0 = s1 + 0x700\n 27865: a2 = s1 + 0x6e0\n 27869: u64 [s1 + 1760] = 0\n 27873: ra = 206, jump @25\n      : @341 [@dyn 103] (gas: 9)\n 27879: a0 = u64 [s1 + 0x710]\n 27883: u64 [s1 + 0x1a8] = a0\n 27887: a0 = u64 [s1 + 0x708]\n 27891: u64 [s1 + 0x1b0] = a0\n 27895: a0 = u64 [s1 + 0x700]\n 27899: u64 [s1 + 0x1b8] = a0\n 27903: a0 = 0x40\n 27906: a1 = 0x20\n 27909: ra = 208, jump @0\n      : @342 [@dyn 104] (gas: 102)\n 27915: a1 = u8 [a0 + 0x11]\n 27918: a2 = u8 [a0 + 0x10]\n 27921: a3 = u8 [a0 + 0x12]\n 27924: a4 = u8 [a0 + 0x13]\n 27927: a1 = a1 << 0x8\n 27930: a1 = a1 | a2\n 27933: a3 = a3 << 0x10\n 27936: a4 = a4 << 0x18\n 27939: a3 = a3 | a4\n 27942: a1 = a1 | a3\n 27945: a2 = u8 [a0 + 0x15]\n 27948: a3 = u8 [a0 + 0x14]\n 27951: a4 = u8 [a0 + 0x16]\n 27954: a5 = u8 [a0 + 0x17]\n 27957: a2 = a2 << 0x8\n 27960: a2 = a2 | a3\n 27963: a4 = a4 << 0x10\n 27966: a5 = a5 << 0x18\n 27969: a4 = a4 | a5\n 27972: a2 = a2 | a4\n 27975: a2 = a2 << 0x20\n 27978: t0 = a2 | a1\n 27981: a2 = u8 [a0 + 0x1]\n 27984: a3 = u8 [a0]\n 27986: a4 = u8 [a0 + 0x2]\n 27989: a5 = u8 [a0 + 0x3]\n 27992: a2 = a2 << 0x8\n 27995: a2 = a2 | a3\n 27998: a4 = a4 << 0x10\n 28001: a5 = a5 << 0x18\n 28004: a4 = a4 | a5\n 28007: a2 = a2 | a4\n 28010: a3 = u8 [a0 + 0x5]\n 28013: a4 = u8 [a0 + 0x4]\n 28016: a5 = u8 [a0 + 0x6]\n 28019: a1 = u8 [a0 + 0x7]\n 28022: a3 = a3 << 0x8\n 28025: a3 = a3 | a4\n 28028: a5 = a5 << 0x10\n 28031: a1 = a1 << 0x18\n 28034: a1 = a1 | a5\n 28037: a1 = a1 | a3\n 28040: a1 = a1 << 0x20\n 28043: t1 = a1 | a2\n 28046: a1 = u8 [a0 + 0x19]\n 28049: a3 = u8 [a0 + 0x18]\n 28052: a4 = u8 [a0 + 0x1a]\n 28055: a5 = u8 [a0 + 0x1b]\n 28058: a1 = a1 << 0x8\n 28061: a1 = a1 | a3\n 28064: a4 = a4 << 0x10\n 28067: a5 = a5 << 0x18\n 28070: a4 = a4 | a5\n 28073: a1 = a1 | a4\n 28076: a3 = u8 [a0 + 0x1d]\n 28079: a4 = u8 [a0 + 0x1c]\n 28082: a5 = u8 [a0 + 0x1e]\n 28085: a2 = u8 [a0 + 0x1f]\n 28088: a3 = a3 << 0x8\n 28091: a3 = a3 | a4\n 28094: a5 = a5 << 0x10\n 28097: a2 = a2 << 0x18\n 28100: a2 = a2 | a5\n 28103: a2 = a2 | a3\n 28106: a2 = a2 << 0x20\n 28109: a3 = a2 | a1\n 28112: a1 = u8 [a0 + 0x9]\n 28115: a2 = u8 [a0 + 0x8]\n 28118: a4 = u8 [a0 + 0xa]\n 28121: a5 = u8 [a0 + 0xb]\n 28124: a1 = a1 << 0x8\n 28127: a1 = a1 | a2\n 28130: a4 = a4 << 0x10\n 28133: a5 = a5 << 0x18\n 28136: a4 = a4 | a5\n 28139: a1 = a1 | a4\n 28142: a2 = u8 [a0 + 0xd]\n 28145: a4 = u8 [a0 + 0xc]\n 28148: a5 = u8 [a0 + 0xe]\n 28151: a0 = u8 [a0 + 0xf]\n 28154: a2 = a2 << 0x8\n 28157: a2 = a2 | a4\n 28160: a5 = a5 << 0x10\n 28163: a0 = a0 << 0x18\n 28166: a0 = a0 | a5\n 28169: a0 = a0 | a2\n 28172: a0 = a0 << 0x20\n 28175: a0 = a0 | a1\n 28178: a2 = reverse a0\n 28180: a1 = reverse a3\n 28182: a3 = reverse t1\n 28184: a0 = reverse t0\n 28186: u64 [s1 + 0x1d0] = a0\n 28190: a0 = a0 | a3\n 28193: u64 [s1 + 0x1d8] = a1\n 28197: a1 = a1 | a2\n 28200: a1 = a1 | a0\n 28203: a1 = a1 >> 0x20\n 28206: a0 = a0 | a2\n 28209: a0 = a0 << 0x20\n 28212: a0 = a0 | a1\n 28215: jump @344 if a0 == 0\n      : @343 (gas: 1)\n 28218: jump @256\n      : @344 (gas: 6)\n 28221: a0 = i32 [s1 + 0x1d8]\n 28225: a1 = 0x20\n 28228: u64 [s1 + 0x1a0] = a0\n 28232: u64 [s1 + 0x1c8] = a2\n 28236: u64 [s1 + 0x1c0] = a3\n 28240: ra = 210, jump @0\n      : @345 [@dyn 105] (gas: 61)\n 28246: u8 [a0 + 31] = 0xa0\n 28251: u8 [a0 + 30] = 0\n 28254: u8 [a0 + 29] = 0\n 28257: u8 [a0 + 28] = 0\n 28260: u8 [a0 + 27] = 0\n 28263: u8 [a0 + 26] = 0\n 28266: u8 [a0 + 25] = 0\n 28269: u8 [a0 + 24] = 0\n 28272: u8 [a0 + 23] = 0\n 28275: u8 [a0 + 22] = 0\n 28278: u8 [a0 + 21] = 0\n 28281: u8 [a0 + 20] = 0\n 28284: u8 [a0 + 19] = 0\n 28287: u8 [a0 + 18] = 0\n 28290: u8 [a0 + 17] = 0\n 28293: u8 [a0 + 16] = 0\n 28296: u8 [a0 + 15] = 0\n 28299: u8 [a0 + 14] = 0\n 28302: u8 [a0 + 13] = 0\n 28305: u8 [a0 + 12] = 0\n 28308: u8 [a0 + 11] = 0\n 28311: u8 [a0 + 10] = 0\n 28314: u8 [a0 + 9] = 0\n 28317: u8 [a0 + 8] = 0\n 28320: u8 [a0 + 7] = 0\n 28323: u8 [a0 + 6] = 0\n 28326: u8 [a0 + 5] = 0\n 28329: u8 [a0 + 4] = 0\n 28332: u8 [a0 + 3] = 0\n 28335: u8 [a0 + 2] = 0\n 28338: u8 [a0 + 1] = 0\n 28341: u8 [a0 + 0] = 0\n 28343: a1 = u64 [s1 + 0x1d8]\n 28347: a0 = a1 + 0xa0\n 28351: a1 = a0 <u a1\n 28354: a3 = u64 [s1 + 0x1d0]\n 28358: a2 = a3 + a1\n 28361: a3 = a2 <u a3\n 28364: a3 = a1 if a1 == 0\n 28367: a1 = u64 [s1 + 0x1c8]\n 28371: a3 = a3 + a1\n 28374: a1 = u64 [s1 + 0x1c8]\n 28378: a1 = a3 <u a1\n 28381: a4 = u64 [s1 + 0x1c0]\n 28385: a4 = a4 + a1\n 28388: u64 [s1 + 0x688] = a2\n 28392: u64 [s1 + 0x680] = a0\n 28396: a0 = u64 [s1 + 0x190]\n 28400: u64 [s1 + 0x6b8] = a0\n 28404: a0 = u64 [s1 + 0x198]\n 28408: u64 [s1 + 0x6b0] = a0\n 28412: a0 = u64 [s1 + 0x180]\n 28416: u64 [s1 + 0x6a8] = a0\n 28420: a0 = u64 [s1 + 0x188]\n 28424: u64 [s1 + 0x6a0] = a0\n 28428: u64 [s1 + 0x690] = a3\n 28432: a0 = s1 + 0x6c0\n 28436: a1 = s1 + 0x6a0\n 28440: a2 = s1 + 0x680\n 28444: u64 [s1 + 0x698] = a4\n 28448: ra = 212, jump @433\n      : @346 [@dyn 106] (gas: 11)\n 28454: a0 = u64 [s1 + 0x1c8]\n 28458: a1 = u64 [s1 + 0x1c0]\n 28462: a1 = a1 | a0\n 28465: a0 = 0xffffffe0\n 28475: a2 = u64 [s1 + 0x1d8]\n 28479: a0 = a2 <u a0\n 28482: a2 = u64 [s1 + 0x1d0]\n 28486: a0 = 0 if a2 != 0\n 28488: u64 [s1 + 0x198] = a1\n 28492: a0 = 0 if a1 != 0\n 28494: jump @348 if a0 != 0\n      : @347 (gas: 1)\n 28497: jump @256\n      : @348 (gas: 12)\n 28500: a0 = u64 [s1 + 0x6d8]\n 28504: u64 [s1 + 0x180] = a0\n 28508: a0 = u64 [s1 + 0x6d0]\n 28512: u64 [s1 + 0x178] = a0\n 28516: a0 = u64 [s1 + 0x6c8]\n 28520: u64 [s1 + 0x188] = a0\n 28524: a0 = u64 [s1 + 0x6c0]\n 28528: u64 [s1 + 0x190] = a0\n 28532: a0 = u64 [s1 + 0x1a0]\n 28536: i32 a0 = a0 + 0x20\n 28539: a1 = 0x20\n 28542: ra = 214, jump @0\n      : @349 [@dyn 107] (gas: 77)\n 28548: a1 = u64 [s1 + 0xc0]\n 28552: a1 = reverse a1\n 28554: a2 = u64 [s1 + 0xc8]\n 28558: a2 = reverse a2\n 28560: a3 = u64 [s1 + 0xd0]\n 28564: a3 = reverse a3\n 28566: a4 = u64 [s1 + 0xd8]\n 28570: a4 = reverse a4\n 28572: a5 = a4 >> 0x38\n 28575: u8 [a0 + 0x1f] = a5\n 28578: a5 = a4 >> 0x30\n 28581: u8 [a0 + 0x1e] = a5\n 28584: a5 = a4 >> 0x28\n 28587: u8 [a0 + 0x1d] = a5\n 28590: a5 = a4 >> 0x20\n 28593: u8 [a0 + 0x1c] = a5\n 28596: a5 = a4 >> 0x18\n 28599: u8 [a0 + 0x1b] = a5\n 28602: a5 = a4 >> 0x10\n 28605: u8 [a0 + 0x1a] = a5\n 28608: a5 = a4 >> 0x8\n 28611: u8 [a0 + 0x19] = a5\n 28614: u8 [a0 + 0x18] = a4\n 28617: u8 [a0 + 0x10] = a3\n 28620: a4 = a3 >> 0x38\n 28623: u8 [a0 + 0x17] = a4\n 28626: a4 = a3 >> 0x30\n 28629: u8 [a0 + 0x16] = a4\n 28632: a4 = a3 >> 0x28\n 28635: u8 [a0 + 0x15] = a4\n 28638: a4 = a3 >> 0x20\n 28641: u8 [a0 + 0x14] = a4\n 28644: a4 = a3 >> 0x18\n 28647: u8 [a0 + 0x13] = a4\n 28650: a4 = a3 >> 0x10\n 28653: u8 [a0 + 0x12] = a4\n 28656: a3 = a3 >> 0x8\n 28659: u8 [a0 + 0x11] = a3\n 28662: u8 [a0 + 0x8] = a2\n 28665: a3 = a2 >> 0x38\n 28668: u8 [a0 + 0xf] = a3\n 28671: a3 = a2 >> 0x30\n 28674: u8 [a0 + 0xe] = a3\n 28677: a3 = a2 >> 0x28\n 28680: u8 [a0 + 0xd] = a3\n 28683: a3 = a2 >> 0x20\n 28686: u8 [a0 + 0xc] = a3\n 28689: a3 = a2 >> 0x18\n 28692: u8 [a0 + 0xb] = a3\n 28695: a3 = a2 >> 0x10\n 28698: u8 [a0 + 0xa] = a3\n 28701: a2 = a2 >> 0x8\n 28704: u8 [a0 + 0x9] = a2\n 28707: u8 [a0] = a1\n 28709: a2 = a1 >> 0x38\n 28712: u8 [a0 + 0x7] = a2\n 28715: a2 = a1 >> 0x30\n 28718: u8 [a0 + 0x6] = a2\n 28721: a2 = a1 >> 0x28\n 28724: u8 [a0 + 0x5] = a2\n 28727: a2 = a1 >> 0x20\n 28730: u8 [a0 + 0x4] = a2\n 28733: a2 = a1 >> 0x18\n 28736: u8 [a0 + 0x3] = a2\n 28739: a2 = a1 >> 0x10\n 28742: u8 [a0 + 0x2] = a2\n 28745: a1 = a1 >> 0x8\n 28748: a4 = 0x100000000\n 28758: a2 = 0xffffffc0\n 28768: a3 = u64 [s1 + 0x1d8]\n 28772: a2 = a3 <u a2\n 28775: a3 = u64 [s1 + 0x1d0]\n 28779: a2 = 0 if a3 != 0\n 28781: a3 = u64 [s1 + 0x198]\n 28785: a2 = 0 if a3 != 0\n 28787: u8 [a0 + 0x1] = a1\n 28790: jump @351 if a2 != 0\n      : @350 (gas: 1)\n 28793: jump @256\n      : @351 (gas: 5)\n 28796: a0 = u64 [s1 + 0x1a0]\n 28800: i32 a0 = a0 + 0x40\n 28803: a1 = 0x20\n 28806: u64 [s1 + 0x170] = a4\n 28810: ra = 216, jump @0\n      : @352 [@dyn 108] (gas: 77)\n 28816: a1 = u64 [s1 + 0x100]\n 28820: a1 = reverse a1\n 28822: a2 = u64 [s1 + 0x108]\n 28826: a2 = reverse a2\n 28828: a3 = u64 [s1 + 0x110]\n 28832: a3 = reverse a3\n 28834: a4 = u64 [s1 + 0x118]\n 28838: a4 = reverse a4\n 28840: a5 = a4 >> 0x38\n 28843: u8 [a0 + 0x1f] = a5\n 28846: a5 = a4 >> 0x30\n 28849: u8 [a0 + 0x1e] = a5\n 28852: a5 = a4 >> 0x28\n 28855: u8 [a0 + 0x1d] = a5\n 28858: a5 = a4 >> 0x20\n 28861: u8 [a0 + 0x1c] = a5\n 28864: a5 = a4 >> 0x18\n 28867: u8 [a0 + 0x1b] = a5\n 28870: a5 = a4 >> 0x10\n 28873: u8 [a0 + 0x1a] = a5\n 28876: a5 = a4 >> 0x8\n 28879: u8 [a0 + 0x19] = a5\n 28882: u8 [a0 + 0x18] = a4\n 28885: u8 [a0 + 0x10] = a3\n 28888: a4 = a3 >> 0x38\n 28891: u8 [a0 + 0x17] = a4\n 28894: a4 = a3 >> 0x30\n 28897: u8 [a0 + 0x16] = a4\n 28900: a4 = a3 >> 0x28\n 28903: u8 [a0 + 0x15] = a4\n 28906: a4 = a3 >> 0x20\n 28909: u8 [a0 + 0x14] = a4\n 28912: a4 = a3 >> 0x18\n 28915: u8 [a0 + 0x13] = a4\n 28918: a4 = a3 >> 0x10\n 28921: u8 [a0 + 0x12] = a4\n 28924: a3 = a3 >> 0x8\n 28927: u8 [a0 + 0x11] = a3\n 28930: u8 [a0 + 0x8] = a2\n 28933: a3 = a2 >> 0x38\n 28936: u8 [a0 + 0xf] = a3\n 28939: a3 = a2 >> 0x30\n 28942: u8 [a0 + 0xe] = a3\n 28945: a3 = a2 >> 0x28\n 28948: u8 [a0 + 0xd] = a3\n 28951: a3 = a2 >> 0x20\n 28954: u8 [a0 + 0xc] = a3\n 28957: a3 = a2 >> 0x18\n 28960: u8 [a0 + 0xb] = a3\n 28963: a3 = a2 >> 0x10\n 28966: u8 [a0 + 0xa] = a3\n 28969: a2 = a2 >> 0x8\n 28972: u8 [a0 + 0x9] = a2\n 28975: u8 [a0] = a1\n 28977: a2 = a1 >> 0x38\n 28980: u8 [a0 + 0x7] = a2\n 28983: a2 = a1 >> 0x30\n 28986: u8 [a0 + 0x6] = a2\n 28989: a2 = a1 >> 0x28\n 28992: u8 [a0 + 0x5] = a2\n 28995: a2 = a1 >> 0x20\n 28998: u8 [a0 + 0x4] = a2\n 29001: a2 = a1 >> 0x18\n 29004: u8 [a0 + 0x3] = a2\n 29007: a2 = a1 >> 0x10\n 29010: u8 [a0 + 0x2] = a2\n 29013: a1 = a1 >> 0x8\n 29016: a2 = u64 [s1 + 0x170]\n 29020: a2 = a2 + 0xffffffffffffffa0\n 29023: a3 = u64 [s1 + 0x1d8]\n 29027: a2 = a3 <u a2\n 29030: a3 = u64 [s1 + 0x1d0]\n 29034: a2 = 0 if a3 != 0\n 29036: a3 = u64 [s1 + 0x198]\n 29040: a2 = 0 if a3 != 0\n 29042: u8 [a0 + 0x1] = a1\n 29045: jump @354 if a2 != 0\n      : @353 (gas: 1)\n 29048: jump @256\n      : @354 (gas: 4)\n 29051: a0 = u64 [s1 + 0x1a0]\n 29055: i32 a0 = a0 + 0x60\n 29058: a1 = 0x20\n 29061: ra = 218, jump @0\n      : @355 [@dyn 109] (gas: 76)\n 29067: a1 = u64 [s1 + 0x140]\n 29071: a1 = reverse a1\n 29073: a2 = u64 [s1 + 0x148]\n 29077: a2 = reverse a2\n 29079: a3 = u64 [s1 + 0x150]\n 29083: a3 = reverse a3\n 29085: a4 = u64 [s1 + 0x158]\n 29089: a4 = reverse a4\n 29091: a5 = a4 >> 0x38\n 29094: u8 [a0 + 0x1f] = a5\n 29097: a5 = a4 >> 0x30\n 29100: u8 [a0 + 0x1e] = a5\n 29103: a5 = a4 >> 0x28\n 29106: u8 [a0 + 0x1d] = a5\n 29109: a5 = a4 >> 0x20\n 29112: u8 [a0 + 0x1c] = a5\n 29115: a5 = a4 >> 0x18\n 29118: u8 [a0 + 0x1b] = a5\n 29121: a5 = a4 >> 0x10\n 29124: u8 [a0 + 0x1a] = a5\n 29127: a5 = a4 >> 0x8\n 29130: u8 [a0 + 0x19] = a5\n 29133: u8 [a0 + 0x18] = a4\n 29136: u8 [a0 + 0x10] = a3\n 29139: a4 = a3 >> 0x38\n 29142: u8 [a0 + 0x17] = a4\n 29145: a4 = a3 >> 0x30\n 29148: u8 [a0 + 0x16] = a4\n 29151: a4 = a3 >> 0x28\n 29154: u8 [a0 + 0x15] = a4\n 29157: a4 = a3 >> 0x20\n 29160: u8 [a0 + 0x14] = a4\n 29163: a4 = a3 >> 0x18\n 29166: u8 [a0 + 0x13] = a4\n 29169: a4 = a3 >> 0x10\n 29172: u8 [a0 + 0x12] = a4\n 29175: a3 = a3 >> 0x8\n 29178: u8 [a0 + 0x11] = a3\n 29181: u8 [a0 + 0x8] = a2\n 29184: a3 = a2 >> 0x38\n 29187: u8 [a0 + 0xf] = a3\n 29190: a3 = a2 >> 0x30\n 29193: u8 [a0 + 0xe] = a3\n 29196: a3 = a2 >> 0x28\n 29199: u8 [a0 + 0xd] = a3\n 29202: a3 = a2 >> 0x20\n 29205: u8 [a0 + 0xc] = a3\n 29208: a3 = a2 >> 0x18\n 29211: u8 [a0 + 0xb] = a3\n 29214: a3 = a2 >> 0x10\n 29217: u8 [a0 + 0xa] = a3\n 29220: a2 = a2 >> 0x8\n 29223: u8 [a0 + 0x9] = a2\n 29226: u8 [a0] = a1\n 29228: a2 = a1 >> 0x38\n 29231: u8 [a0 + 0x7] = a2\n 29234: a2 = a1 >> 0x30\n 29237: u8 [a0 + 0x6] = a2\n 29240: a2 = a1 >> 0x28\n 29243: u8 [a0 + 0x5] = a2\n 29246: a2 = a1 >> 0x20\n 29249: u8 [a0 + 0x4] = a2\n 29252: a2 = a1 >> 0x18\n 29255: u8 [a0 + 0x3] = a2\n 29258: a2 = a1 >> 0x10\n 29261: u8 [a0 + 0x2] = a2\n 29264: a1 = a1 >> 0x8\n 29267: a2 = 0xffffff80\n 29277: a3 = u64 [s1 + 0x1d8]\n 29281: a2 = a3 <u a2\n 29284: a3 = u64 [s1 + 0x1d0]\n 29288: a2 = 0 if a3 != 0\n 29290: a3 = u64 [s1 + 0x198]\n 29294: a2 = 0 if a3 != 0\n 29296: u8 [a0 + 0x1] = a1\n 29299: jump @357 if a2 != 0\n      : @356 (gas: 1)\n 29302: jump @256\n      : @357 (gas: 4)\n 29305: a0 = u64 [s1 + 0x1a0]\n 29309: i32 a0 = a0 + 0x80\n 29313: a1 = 0x20\n 29316: ra = 220, jump @0\n      : @358 [@dyn 110] (gas: 102)\n 29322: a1 = u64 [s1 + 0x120]\n 29326: a1 = reverse a1\n 29328: a2 = a1 >> 0x38\n 29331: u8 [a0 + 0x1f] = a2\n 29334: a2 = a1 >> 0x30\n 29337: u8 [a0 + 0x1e] = a2\n 29340: a2 = a1 >> 0x28\n 29343: u8 [a0 + 0x1d] = a2\n 29346: a2 = a1 >> 0x20\n 29349: u8 [a0 + 0x1c] = a2\n 29352: a2 = a1 >> 0x18\n 29355: u8 [a0 + 0x1b] = a2\n 29358: a2 = a1 >> 0x10\n 29361: u8 [a0 + 0x1a] = a2\n 29364: a2 = a1 >> 0x8\n 29367: u8 [a0 + 0x19] = a2\n 29370: u8 [a0 + 0x18] = a1\n 29373: a1 = u64 [s1 + 0x128]\n 29377: a1 = reverse a1\n 29379: a2 = a1 >> 0x38\n 29382: u8 [a0 + 0x17] = a2\n 29385: a2 = a1 >> 0x30\n 29388: u8 [a0 + 0x16] = a2\n 29391: a2 = a1 >> 0x28\n 29394: u8 [a0 + 0x15] = a2\n 29397: a2 = a1 >> 0x20\n 29400: u8 [a0 + 0x14] = a2\n 29403: a2 = a1 >> 0x18\n 29406: u8 [a0 + 0x13] = a2\n 29409: a2 = a1 >> 0x10\n 29412: u8 [a0 + 0x12] = a2\n 29415: u8 [a0 + 0x10] = a1\n 29418: a1 = a1 >> 0x8\n 29421: u8 [a0 + 0x11] = a1\n 29424: a1 = u64 [s1 + 0x130]\n 29428: a1 = reverse a1\n 29430: a2 = a1 >> 0x38\n 29433: u8 [a0 + 0xf] = a2\n 29436: a2 = a1 >> 0x30\n 29439: u8 [a0 + 0xe] = a2\n 29442: a2 = a1 >> 0x28\n 29445: u8 [a0 + 0xd] = a2\n 29448: a2 = a1 >> 0x20\n 29451: u8 [a0 + 0xc] = a2\n 29454: a2 = a1 >> 0x18\n 29457: u8 [a0 + 0xb] = a2\n 29460: a2 = a1 >> 0x10\n 29463: u8 [a0 + 0xa] = a2\n 29466: u8 [a0 + 0x8] = a1\n 29469: a1 = a1 >> 0x8\n 29472: u8 [a0 + 0x9] = a1\n 29475: a1 = u64 [s1 + 0x138]\n 29479: a2 = reverse a1\n 29481: a1 = a2 >> 0x38\n 29484: u8 [a0 + 0x7] = a1\n 29487: a1 = a2 >> 0x30\n 29490: u8 [a0 + 0x6] = a1\n 29493: a1 = a2 >> 0x28\n 29496: u8 [a0 + 0x5] = a1\n 29499: a1 = a2 >> 0x20\n 29502: u8 [a0 + 0x4] = a1\n 29505: a1 = a2 >> 0x18\n 29508: u8 [a0 + 0x3] = a1\n 29511: a1 = a2 >> 0x10\n 29514: u8 [a0 + 0x2] = a1\n 29517: a1 = u64 [s1 + 0x1d8]\n 29521: a3 = u64 [s1 + 0x190]\n 29525: ra = a3 <u a1\n 29528: t0 = u64 [s1 + 0x1d0]\n 29532: a3 = u64 [s1 + 0x188]\n 29536: a5 = a3 ^ t0\n 29539: a4 = a3 <u t0\n 29542: a4 = ra if a5 == 0\n 29545: t1 = u64 [s1 + 0x1c8]\n 29549: a5 = u64 [s1 + 0x178]\n 29553: t2 = a5 - t1\n 29556: a1 = a5 <u t1\n 29559: u64 [s1 + 0x1c8] = a1\n 29563: a5 = u64 [s1 + 0x1c0]\n 29567: t1 = u64 [s1 + 0x180]\n 29571: a5 = t1 - a5\n 29574: a1 = u64 [s1 + 0x1c8]\n 29578: a1 = a5 - a1\n 29581: a5 = t2 <u a4\n 29584: a5 = a1 - a5\n 29587: t1 = t2 - a4\n 29590: a4 = a3 - t0\n 29593: a4 = a4 - ra\n 29596: a1 = u64 [s1 + 0x1d8]\n 29600: a3 = u64 [s1 + 0x190]\n 29604: a1 = a3 - a1\n 29607: a4 = a4 | a5\n 29610: a5 = a1 | t1\n 29613: a5 = a5 | a4\n 29616: a3 = a4 | t1\n 29619: a5 = a5 >> 0x20\n 29622: a3 = a3 << 0x20\n 29625: a3 = a3 | a5\n 29628: u8 [a0] = a2\n 29630: a2 = a2 >> 0x8\n 29633: u8 [a0 + 0x1] = a2\n 29636: jump @360 if a3 == 0\n      : @359 (gas: 1)\n 29639: jump @256\n      : @360 (gas: 33)\n 29642: a0 = 0xffffffff\n 29652: a2 = u64 [s1 + 0x1a8]\n 29656: t0 = a2 & a0\n 29659: a2 = u64 [s1 + 0x1b0]\n 29663: a2 = a2 & 0xffffffffffffffff\n 29666: a0 = u64 [s1 + 0x1b8]\n 29670: a3 = a0 & 0xffffffffffffffff\n 29673: u64 [s1 + 1592] = 0\n 29677: a0 = u64 [s1 + 0x60]\n 29680: u64 [s1 + 0x640] = a0\n 29684: u64 [s1 + 0x620] = a3\n 29688: a0 = u64 [s1 + 0x68]\n 29691: u64 [s1 + 0x648] = a0\n 29695: a3 = u64 [0x20000]\n 29700: a4 = u64 [0x20008]\n 29705: a5 = u64 [0x20010]\n 29710: a0 = u64 [0x20018]\n 29715: u64 [s1 + 0x678] = a3\n 29719: u64 [s1 + 0x670] = a4\n 29723: u64 [s1 + 0x668] = a5\n 29727: u64 [s1 + 0x660] = a0\n 29731: u64 [s1 + 0x628] = a2\n 29735: a0 = u64 [s1 + 0x70]\n 29738: u64 [s1 + 0x650] = a0\n 29742: u64 [s1 + 0x630] = t0\n 29746: a2 = s1 + 0x660\n 29750: a3 = s1 + 0x640\n 29754: a4 = s1 + 0x620\n 29758: a0 = u64 [s1 + 0x78]\n 29761: u64 [s1 + 0x658] = a0\n 29765: a0 = u64 [s1 + 0x1a0]\n 29769: ra = 0x7a\n 29772: jump @27\n      : @361 (gas: 4)\n 29775: a0 = 0\n 29777: a1 = 0\n 29779: ra = 0xde\n 29783: jump @0\n      : @362 (gas: 2)\n 29786: a1 = 0\n 29788: ra = 222, jump @0\n      : @363 [@dyn 111] (gas: 7)\n 29794: i32 a1 = a0 + 0\n 29796: a0 = 0x1\n 29799: a2 = 0\n 29801: ecalli 13 // 'seal_return'\n 29803: a0 = 0\n 29805: ra = 0xde\n 29809: jump @0\n      : @364 (gas: 3)\n 29812: a0 = 0\n 29814: ra = 0xde\n 29818: jump @0\n      : @365 (gas: 8)\n 29821: u64 [s1 + 1488] = 0\n 29825: u64 [s1 + 1480] = 0\n 29829: u64 [s1 + 1472] = 0\n 29833: a0 = 0x4e487b7100000000\n 29843: a1 = s1 + 0x5c0\n 29847: u64 [s1 + 0x5d8] = a0\n 29851: a0 = 0\n 29853: ra = 224, jump @23\n      : @366 [@dyn 112] (gas: 8)\n 29859: u64 [s1 + 1464] = 0\n 29863: u64 [s1 + 1456] = 0\n 29867: u64 [s1 + 1440] = 0x41\n 29872: a0 = 0x4\n 29875: a1 = s1 + 0x5a0\n 29879: u64 [s1 + 1448] = 0\n 29883: ra = 0xee\n 29887: jump @23\n      : @367 (gas: 9)\n 29890: u64 [s1 + 1008] = 0\n 29894: u64 [s1 + 1000] = 0\n 29898: u64 [s1 + 992] = 0\n 29902: a0 = 0x30cd747100000000\n 29912: a1 = s1 + 0x3e0\n 29916: u64 [s1 + 0x3f8] = a0\n 29920: a0 = 0\n 29922: ra = 0xe4\n 29926: jump @23\n      : @368 (gas: 9)\n 29929: u64 [s1 + 848] = 0\n 29933: u64 [s1 + 840] = 0\n 29937: u64 [s1 + 832] = 0\n 29941: a0 = 0x6806da6800000000\n 29951: a1 = s1 + 0x340\n 29955: u64 [s1 + 0x358] = a0\n 29959: a0 = 0\n 29961: ra = 0xe4\n 29965: jump @23\n      : @369 (gas: 8)\n 29968: u64 [s1 + 1424] = 0\n 29972: u64 [s1 + 1416] = 0\n 29976: u64 [s1 + 1408] = 0\n 29980: a0 = 0x4e487b7100000000\n 29990: a1 = s1 + 0x580\n 29994: u64 [s1 + 0x598] = a0\n 29998: a0 = 0\n 30000: ra = 226, jump @23\n      : @370 [@dyn 113] (gas: 8)\n 30006: u64 [s1 + 1400] = 0\n 30010: u64 [s1 + 1392] = 0\n 30014: u64 [s1 + 1376] = 0x41\n 30019: a0 = 0x4\n 30022: a1 = s1 + 0x560\n 30026: u64 [s1 + 1384] = 0\n 30030: ra = 0xee\n 30034: jump @23\n      : @371 (gas: 9)\n 30037: u64 [s1 + 1040] = 0\n 30041: u64 [s1 + 1032] = 0\n 30045: u64 [s1 + 1024] = 0\n 30049: a0 = 0xb7b2409700000000\n 30059: a1 = s1 + 0x400\n 30063: u64 [s1 + 0x418] = a0\n 30067: a0 = 0\n 30069: ra = 0xe4\n 30073: jump @23\n      : @372 (gas: 9)\n 30076: u64 [s1 + 1328] = 0\n 30080: u64 [s1 + 1320] = 0\n 30084: u64 [s1 + 1312] = 0\n 30088: a0 = 0xbd8a3eb00000000\n 30098: a1 = s1 + 0x520\n 30102: u64 [s1 + 0x538] = a0\n 30106: a0 = 0\n 30108: ra = 0xe4\n 30112: jump @23\n      : @373 (gas: 9)\n 30115: u64 [s1 + 1296] = 0\n 30119: u64 [s1 + 1288] = 0\n 30123: u64 [s1 + 1280] = 0\n 30127: a0 = 0x52df9fe500000000\n 30137: a1 = s1 + 0x500\n 30141: u64 [s1 + 0x518] = a0\n 30145: a0 = 0\n 30147: ra = 0xe4\n 30151: jump @23\n      : @374 (gas: 9)\n 30154: u64 [s1 + 1264] = 0\n 30158: u64 [s1 + 1256] = 0\n 30162: u64 [s1 + 1248] = 0\n 30166: a0 = 0xcd1c886700000000\n 30176: a1 = s1 + 0x4e0\n 30180: u64 [s1 + 0x4f8] = a0\n 30184: a0 = 0\n 30186: ra = 0xe4\n 30190: jump @23\n      : @375 (gas: 8)\n 30193: u64 [s1 + 1232] = 0\n 30197: u64 [s1 + 1224] = 0\n 30201: u64 [s1 + 1216] = 0\n 30205: a0 = 0x1a43bf6300000000\n 30215: a1 = s1 + 0x4c0\n 30219: u64 [s1 + 0x4d8] = a0\n 30223: a0 = 0\n 30225: ra = 228, jump @23\n      : @376 [@dyn 114] (gas: 3)\n 30231: a1 = 0x4\n 30234: a0 = 0\n 30236: ra = 230, jump @0\n      : @377 [@dyn 115] (gas: 5)\n 30242: i32 a1 = a0 + 0\n 30244: a0 = 0x1\n 30247: a2 = 0x4\n 30250: ecalli 13 // 'seal_return'\n 30252: fallthrough\n      : @378 (gas: 8)\n 30253: u64 [s1 + 1104] = 0\n 30257: u64 [s1 + 1096] = 0\n 30261: u64 [s1 + 1088] = 0\n 30265: a0 = 0x4e487b7100000000\n 30275: a1 = s1 + 0x440\n 30279: u64 [s1 + 0x458] = a0\n 30283: a0 = 0\n 30285: ra = 232, jump @23\n      : @379 [@dyn 116] (gas: 8)\n 30291: u64 [s1 + 1080] = 0\n 30295: u64 [s1 + 1072] = 0\n 30299: u64 [s1 + 1056] = 0x11\n 30304: a0 = 0x4\n 30307: a1 = s1 + 0x420\n 30311: u64 [s1 + 1064] = 0\n 30315: ra = 0xee\n 30319: jump @23\n      : @380 (gas: 4)\n 30322: i32 a0 = a2 + 0\n 30324: i32 a1 = a1 + 0\n 30326: u64 [s1 + 0x1d8] = a1\n 30330: ra = 234, jump @0\n      : @381 [@dyn 117] (gas: 5)\n 30336: i32 a1 = a0 + 0\n 30338: a0 = 0\n 30340: a2 = u64 [s1 + 0x1d8]\n 30344: ecalli 13 // 'seal_return'\n 30346: fallthrough\n      : @382 (gas: 8)\n 30347: u64 [s1 + 976] = 0\n 30351: u64 [s1 + 968] = 0\n 30355: u64 [s1 + 960] = 0\n 30359: a0 = 0x4e487b7100000000\n 30369: a1 = s1 + 0x3c0\n 30373: u64 [s1 + 0x3d8] = a0\n 30377: a0 = 0\n 30379: ra = 236, jump @23\n      : @383 [@dyn 118] (gas: 7)\n 30385: u64 [s1 + 952] = 0\n 30389: u64 [s1 + 944] = 0\n 30393: u64 [s1 + 928] = 0x41\n 30398: a0 = 0x4\n 30401: a1 = s1 + 0x3a0\n 30405: u64 [s1 + 936] = 0\n 30409: ra = 238, jump @23\n      : @384 [@dyn 119] (gas: 3)\n 30415: a1 = 0x24\n 30418: a0 = 0\n 30420: ra = 240, jump @0\n      : @385 [@dyn 120] (gas: 5)\n 30426: i32 a1 = a0 + 0\n 30428: a0 = 0x1\n 30431: a2 = 0x24\n 30434: ecalli 13 // 'seal_return'\n 30436: fallthrough\n      : @386 (gas: 14)\n 30437: a0 = s1 + 0x1000\n 30441: u64 [a0 + 4294965552] = 0\n 30445: a0 = s1 + 0x1000\n 30449: u64 [a0 + 4294965544] = 0\n 30453: a0 = s1 + 0x1000\n 30457: u64 [a0 + 4294965536] = 0\n 30461: a0 = 0x30cd747100000000\n 30471: a1 = s1 + 0x7ff\n 30475: a1 = a1 + 0x121\n 30479: a2 = s1 + 0x1000\n 30483: u64 [a2 + 0xfffffffffffff938] = a0\n 30487: a0 = 0\n 30489: ra = 0xe4\n 30493: jump @23\n      : @387 (gas: 8)\n 30496: u64 [s1 + 1552] = 0\n 30500: u64 [s1 + 1544] = 0\n 30504: u64 [s1 + 1536] = 0\n 30508: a0 = 0x4e487b7100000000\n 30518: a1 = s1 + 0x600\n 30522: u64 [s1 + 0x618] = a0\n 30526: a0 = 0\n 30528: ra = 242, jump @23\n      : @388 [@dyn 121] (gas: 8)\n 30534: u64 [s1 + 1528] = 0\n 30538: u64 [s1 + 1520] = 0\n 30542: u64 [s1 + 1504] = 0x41\n 30547: a0 = 0x4\n 30550: a1 = s1 + 0x5e0\n 30554: u64 [s1 + 1512] = 0\n 30558: ra = 0xee\n 30562: jump @23\n      : @389 (gas: 33)\n 30565: sp = sp + 0xffffffffffffffa0\n 30568: u64 [sp + 0x58] = ra\n 30571: u64 [sp + 0x50] = s0\n 30574: u64 [sp + 0x48] = s1\n 30577: s0 = sp + 0x60\n 30580: sp = sp & 0xfffffffffffffff0\n 30583: a2 = u64 [a1 + 0x10]\n 30586: a5 = u64 [a1 + 0x8]\n 30589: a4 = u64 [a1]\n 30591: a1 = u64 [a1 + 0x18]\n 30594: t0 = a2 << 0x3f\n 30597: a3 = a5 >> 0x1\n 30600: t0 = a3 | t0\n 30603: a3 = a1 << 0x3f\n 30606: a2 = a2 >> 0x1\n 30609: a3 = a3 | a2\n 30612: a5 = a5 << 0x3f\n 30615: a2 = a4 >> 0x1\n 30618: a5 = a5 | a2\n 30621: t1 = a1 >> 0x1\n 30624: a4 = a4 & 0x1\n 30627: a1 = -a4\n 30629: s1 = a4 <u 0x1\n 30632: a2 = a5 & 0x7f\n 30635: t2 = a1 & a3\n 30638: a3 = a1 & t0\n 30641: a2 = a5 if a4 != 0\n 30644: a4 = a1 & t1\n 30647: a1 = a2 <u 0x20\n 30650: a1 = 0 if a3 != 0\n 30652: a5 = t2 | a4\n 30655: a1 = 0 if a5 != 0\n 30657: jump @391 if s1 != a1\n      : @390 (gas: 10)\n 30660: u64 [a0] = a2\n 30662: u64 [a0 + 0x8] = a3\n 30665: u64 [a0 + 0x10] = t2\n 30668: u64 [a0 + 0x18] = a4\n 30671: sp = s0 + 0xffffffffffffffa0\n 30674: ra = u64 [sp + 0x58]\n 30677: s0 = u64 [sp + 0x50]\n 30680: s1 = u64 [sp + 0x48]\n 30683: sp = sp + 0x60\n 30686: ret\n      : @391 (gas: 8)\n 30688: u64 [sp + 48] = 0\n 30691: u64 [sp + 40] = 0\n 30694: u64 [sp + 32] = 0\n 30697: a0 = 0x4e487b7100000000\n 30707: a1 = sp + 0x20\n 30710: u64 [sp + 0x38] = a0\n 30713: a0 = 0\n 30715: ra = 244, jump @23\n      : @392 [@dyn 122] (gas: 7)\n 30721: u64 [sp + 24] = 0\n 30724: u64 [sp + 16] = 0\n 30727: u64 [sp + 0] = 0x22\n 30730: a0 = 0x4\n 30733: a1 = sp\n 30735: u64 [sp + 8] = 0\n 30738: ra = 246, jump @23\n      : @393 [@dyn 123] (gas: 3)\n 30744: a1 = 0x24\n 30747: a0 = 0\n 30749: ra = 248, jump @0\n      : @394 [@dyn 124] (gas: 6)\n 30755: i32 a1 = a0 + 0\n 30757: a0 = 0x1\n 30760: a2 = 0x24\n 30763: ra = 0xfa\n 30767: ecalli 13 // 'seal_return'\n 30769: fallthrough\n      : @395 [@dyn 125] (gas: 45)\n 30770: sp = sp + 0xffffffffffffff80\n 30773: u64 [sp + 0x78] = ra\n 30776: u64 [sp + 0x70] = s0\n 30779: u64 [sp + 0x68] = s1\n 30782: s0 = sp + 0x80\n 30786: sp = sp & 0xfffffffffffffff0\n 30789: a4 = u64 [a1]\n 30791: t1 = u64 [a0 + 0x8]\n 30794: a5 = u64 [a1 + 0x8]\n 30797: ra = u64 [a0]\n 30799: s1 = a4 + 0x1f\n 30802: t2 = s1 <u a4\n 30805: a2 = a5 + t2\n 30808: s1 = s1 & 0xffffffffffffffe0\n 30811: u64 [sp + 0x18] = ra\n 30814: ra = ra + s1\n 30817: a4 = ra <u s1\n 30820: a3 = a2 + t1\n 30823: t0 = a3 + a4\n 30826: a3 = t0 ^ a2\n 30829: s1 = t0 <u a2\n 30832: s1 = a4 if a3 == 0\n 30835: a4 = u64 [a0 + 0x18]\n 30838: a2 = a2 <u a5\n 30841: a3 = u64 [a1 + 0x10]\n 30844: a0 = u64 [a0 + 0x10]\n 30847: a1 = u64 [a1 + 0x18]\n 30850: a2 = t2 if t2 == 0\n 30853: a2 = a2 + a3\n 30856: a3 = a2 <u a3\n 30859: a5 = a2 + a0\n 30862: t2 = a5 + s1\n 30865: a2 = a5 <u a2\n 30868: s1 = t2 <u a5\n 30871: a1 = a1 + a4\n 30874: a1 = a1 + a3\n 30877: a1 = a1 + a2\n 30880: s1 = s1 + a1\n 30883: a1 = s1 >u 0\n 30885: a2 = t2 >u 0\n 30887: a2 = a1 if s1 != 0\n 30890: a1 = t2 | s1\n 30893: a3 = t0 >u 0\n 30895: a3 = a2 if a1 != 0\n 30898: jump @399 if a3 != 0\n      : @396 (gas: 13)\n 30902: a1 = u64 [sp + 0x18]\n 30905: a1 = ra <u a1\n 30908: a2 = t0 ^ t1\n 30911: a3 = t0 <u t1\n 30914: a3 = a1 if a2 == 0\n 30917: a1 = t2 <u a0\n 30920: a2 = s1 ^ a4\n 30923: a4 = s1 <u a4\n 30926: a4 = a1 if a2 == 0\n 30929: a0 = t2 ^ a0\n 30932: a0 = a0 | a2\n 30935: a4 = a3 if a0 == 0\n 30938: jump @399 if a4 != 0\n      : @397 (gas: 6)\n 30942: a0 = 0x40\n 30945: a1 = 0x20\n 30948: u64 [sp + 0x18] = ra\n 30951: u64 [sp + 0x10] = t0\n 30954: u64 [sp + 0x8] = t2\n 30957: ra = 252, jump @0\n      : @398 [@dyn 126] (gas: 73)\n 30963: a1 = reverse s1\n 30965: a2 = u64 [sp + 0x8]\n 30968: a2 = reverse a2\n 30970: a3 = u64 [sp + 0x10]\n 30973: a3 = reverse a3\n 30975: a4 = u64 [sp + 0x18]\n 30978: a4 = reverse a4\n 30980: u8 [a0 + 0x18] = a4\n 30983: a5 = a4 >> 0x38\n 30986: u8 [a0 + 0x1f] = a5\n 30989: a5 = a4 >> 0x30\n 30992: u8 [a0 + 0x1e] = a5\n 30995: a5 = a4 >> 0x28\n 30998: u8 [a0 + 0x1d] = a5\n 31001: a5 = a4 >> 0x20\n 31004: u8 [a0 + 0x1c] = a5\n 31007: a5 = a4 >> 0x18\n 31010: u8 [a0 + 0x1b] = a5\n 31013: a5 = a4 >> 0x10\n 31016: u8 [a0 + 0x1a] = a5\n 31019: a4 = a4 >> 0x8\n 31022: u8 [a0 + 0x19] = a4\n 31025: u8 [a0 + 0x10] = a3\n 31028: a4 = a3 >> 0x38\n 31031: u8 [a0 + 0x17] = a4\n 31034: a4 = a3 >> 0x30\n 31037: u8 [a0 + 0x16] = a4\n 31040: a4 = a3 >> 0x28\n 31043: u8 [a0 + 0x15] = a4\n 31046: a4 = a3 >> 0x20\n 31049: u8 [a0 + 0x14] = a4\n 31052: a4 = a3 >> 0x18\n 31055: u8 [a0 + 0x13] = a4\n 31058: a4 = a3 >> 0x10\n 31061: u8 [a0 + 0x12] = a4\n 31064: a3 = a3 >> 0x8\n 31067: u8 [a0 + 0x11] = a3\n 31070: u8 [a0 + 0x8] = a2\n 31073: a3 = a2 >> 0x38\n 31076: u8 [a0 + 0xf] = a3\n 31079: a3 = a2 >> 0x30\n 31082: u8 [a0 + 0xe] = a3\n 31085: a3 = a2 >> 0x28\n 31088: u8 [a0 + 0xd] = a3\n 31091: a3 = a2 >> 0x20\n 31094: u8 [a0 + 0xc] = a3\n 31097: a3 = a2 >> 0x18\n 31100: u8 [a0 + 0xb] = a3\n 31103: a3 = a2 >> 0x10\n 31106: u8 [a0 + 0xa] = a3\n 31109: a2 = a2 >> 0x8\n 31112: u8 [a0 + 0x9] = a2\n 31115: u8 [a0] = a1\n 31117: a2 = a1 >> 0x38\n 31120: u8 [a0 + 0x7] = a2\n 31123: a2 = a1 >> 0x30\n 31126: u8 [a0 + 0x6] = a2\n 31129: a2 = a1 >> 0x28\n 31132: u8 [a0 + 0x5] = a2\n 31135: a2 = a1 >> 0x20\n 31138: u8 [a0 + 0x4] = a2\n 31141: a2 = a1 >> 0x18\n 31144: u8 [a0 + 0x3] = a2\n 31147: a2 = a1 >> 0x10\n 31150: u8 [a0 + 0x2] = a2\n 31153: a1 = a1 >> 0x8\n 31156: u8 [a0 + 0x1] = a1\n 31159: sp = s0 + 0xffffffffffffff80\n 31162: ra = u64 [sp + 0x78]\n 31165: s0 = u64 [sp + 0x70]\n 31168: s1 = u64 [sp + 0x68]\n 31171: sp = sp + 0x80\n 31175: ret\n      : @399 (gas: 8)\n 31177: u64 [sp + 80] = 0\n 31180: u64 [sp + 72] = 0\n 31183: u64 [sp + 64] = 0\n 31186: a0 = 0x4e487b7100000000\n 31196: a1 = sp + 0x40\n 31199: u64 [sp + 0x58] = a0\n 31202: a0 = 0\n 31204: ra = 254, jump @23\n      : @400 [@dyn 127] (gas: 7)\n 31210: u64 [sp + 56] = 0\n 31213: u64 [sp + 48] = 0\n 31216: u64 [sp + 32] = 0x41\n 31220: a0 = 0x4\n 31223: a1 = sp + 0x20\n 31226: u64 [sp + 40] = 0\n 31229: ra = 256, jump @23\n      : @401 [@dyn 128] (gas: 3)\n 31235: a1 = 0x24\n 31238: a0 = 0\n 31240: ra = 258, jump @0\n      : @402 [@dyn 129] (gas: 6)\n 31246: i32 a1 = a0 + 0\n 31248: a0 = 0x1\n 31251: a2 = 0x24\n 31254: ra = 0x104\n 31258: ecalli 13 // 'seal_return'\n 31260: fallthrough\n      : @403 [@dyn 130] (gas: 19)\n 31261: sp = sp + 0xfffffffffffffda0\n 31265: u64 [sp + 0x258] = ra\n 31269: u64 [sp + 0x250] = s0\n 31273: u64 [sp + 0x248] = s1\n 31277: s0 = sp + 0x260\n 31281: sp = sp & 0xffffffffffffffe0\n 31284: s1 = sp\n 31286: a2 = u64 [a1]\n 31288: u64 [s1 + 0x178] = a2\n 31292: a2 = u64 [a1 + 0x8]\n 31295: u64 [s1 + 0x170] = a2\n 31299: a2 = u64 [a1 + 0x10]\n 31302: u64 [s1 + 0x168] = a2\n 31306: a1 = u64 [a1 + 0x18]\n 31309: u64 [s1 + 0x160] = a1\n 31313: u64 [s1 + 0x10] = a0\n 31316: a0 = 0x40\n 31319: a1 = 0x20\n 31322: ra = 262, jump @0\n      : @404 [@dyn 131] (gas: 84)\n 31328: a1 = u8 [a0 + 0x18]\n 31331: u64 [s1 + 0x60] = a1\n 31334: a1 = u8 [a0 + 0x19]\n 31337: u64 [s1 + 0x40] = a1\n 31340: a1 = u8 [a0 + 0x1a]\n 31343: u64 [s1 + 0x50] = a1\n 31346: a1 = u8 [a0 + 0x1b]\n 31349: u64 [s1 + 0x48] = a1\n 31352: a1 = u8 [a0 + 0x1c]\n 31355: u64 [s1 + 0x78] = a1\n 31358: a1 = u8 [a0 + 0x1d]\n 31361: u64 [s1 + 0x58] = a1\n 31364: a1 = u8 [a0 + 0x1e]\n 31367: u64 [s1 + 0x70] = a1\n 31370: a1 = u8 [a0 + 0x1f]\n 31373: u64 [s1 + 0x68] = a1\n 31376: a1 = u8 [a0 + 0x10]\n 31379: u64 [s1 + 0xa0] = a1\n 31383: a1 = u8 [a0 + 0x11]\n 31386: u64 [s1 + 0x80] = a1\n 31390: a1 = u8 [a0 + 0x12]\n 31393: u64 [s1 + 0x90] = a1\n 31397: a1 = u8 [a0 + 0x13]\n 31400: u64 [s1 + 0x88] = a1\n 31404: a1 = u8 [a0 + 0x14]\n 31407: u64 [s1 + 0xb8] = a1\n 31411: a1 = u8 [a0 + 0x15]\n 31414: u64 [s1 + 0x98] = a1\n 31418: a1 = u8 [a0 + 0x16]\n 31421: u64 [s1 + 0xb0] = a1\n 31425: a1 = u8 [a0 + 0x17]\n 31428: u64 [s1 + 0xa8] = a1\n 31432: a1 = u8 [a0 + 0x8]\n 31435: u64 [s1 + 0xe0] = a1\n 31439: a1 = u8 [a0 + 0x9]\n 31442: u64 [s1 + 0xc0] = a1\n 31446: a1 = u8 [a0 + 0xa]\n 31449: u64 [s1 + 0xd0] = a1\n 31453: a1 = u8 [a0 + 0xb]\n 31456: u64 [s1 + 0xc8] = a1\n 31460: a1 = u8 [a0 + 0xc]\n 31463: u64 [s1 + 0xf8] = a1\n 31467: a1 = u8 [a0 + 0xd]\n 31470: u64 [s1 + 0xd8] = a1\n 31474: a1 = u8 [a0 + 0xe]\n 31477: u64 [s1 + 0xf0] = a1\n 31481: a1 = u8 [a0 + 0xf]\n 31484: u64 [s1 + 0xe8] = a1\n 31488: a1 = u8 [a0]\n 31490: u64 [s1 + 0x140] = a1\n 31494: a1 = u8 [a0 + 0x1]\n 31497: u64 [s1 + 0x120] = a1\n 31501: a1 = u8 [a0 + 0x2]\n 31504: u64 [s1 + 0x130] = a1\n 31508: a1 = u8 [a0 + 0x3]\n 31511: u64 [s1 + 0x128] = a1\n 31515: a1 = u8 [a0 + 0x4]\n 31518: u64 [s1 + 0x158] = a1\n 31522: a1 = u8 [a0 + 0x5]\n 31525: u64 [s1 + 0x138] = a1\n 31529: a1 = u8 [a0 + 0x6]\n 31532: u64 [s1 + 0x150] = a1\n 31536: a0 = u8 [a0 + 0x7]\n 31539: u64 [s1 + 0x148] = a0\n 31543: u32 [s1 + 576] = 0x20\n 31548: a0 = u64 [s1 + 0x160]\n 31552: u64 [s1 + 0x218] = a0\n 31556: a0 = u64 [s1 + 0x168]\n 31560: u64 [s1 + 0x210] = a0\n 31564: a0 = u64 [s1 + 0x170]\n 31568: u64 [s1 + 0x208] = a0\n 31572: a0 = u64 [s1 + 0x178]\n 31576: u64 [s1 + 0x200] = a0\n 31580: u64 [s1 + 568] = 0\n 31584: u64 [s1 + 560] = 0\n 31588: u64 [s1 + 552] = 0\n 31592: u64 [s1 + 544] = 0\n 31596: i32 a1 = s1 + 0x200\n 31600: i32 a3 = s1 + 0x220\n 31604: i32 a4 = s1 + 0x240\n 31608: a2 = 0xffffffffffffffff\n 31611: a0 = 0\n 31613: ecalli 7 // 'get_storage'\n 31615: fallthrough\n      : @405 (gas: 32)\n 31616: t1 = u64 [s1 + 0x230]\n 31620: t2 = u64 [s1 + 0x228]\n 31624: t0 = u64 [s1 + 0x238]\n 31628: a5 = u64 [s1 + 0x220]\n 31632: a0 = t1 << 0x3f\n 31635: a1 = t2 >> 0x1\n 31638: a0 = a0 | a1\n 31641: a1 = t0 << 0x3f\n 31644: a2 = t1 >> 0x1\n 31647: a1 = a1 | a2\n 31650: a2 = t2 << 0x3f\n 31653: a3 = a5 >> 0x1\n 31656: a4 = a3 | a2\n 31659: a2 = t0 >> 0x1\n 31662: u64 [s1 + 0x18] = a5\n 31665: a5 = a5 & 0x1\n 31668: a3 = -a5\n 31670: ra = a3 & a1\n 31673: a1 = a3 & a0\n 31676: a2 = a2 & a3\n 31679: a3 = a4 & 0x7f\n 31682: a4 = a3 if a5 == 0\n 31685: u64 [s1 + 0x118] = a4\n 31689: a0 = a4 <u 0x20\n 31692: u64 [s1 + 0x108] = a1\n 31696: a0 = 0 if a1 != 0\n 31698: u64 [s1 + 0x110] = ra\n 31702: u64 [s1 + 0x100] = a2\n 31706: a1 = ra | a2\n 31709: a0 = 0 if a1 != 0\n 31711: a1 = a5 <u 0x1\n 31714: jump @429 if a1 != a0\n      : @406 (gas: 108)\n 31718: u64 [s1 + 0x38] = a5\n 31721: u64 [s1 + 0x8] = a3\n 31724: u64 [s1 + 0x20] = t2\n 31727: u64 [s1 + 0x28] = t1\n 31730: u64 [s1 + 0x30] = t0\n 31733: a0 = u64 [s1 + 0x40]\n 31736: a0 = a0 << 0x8\n 31739: a1 = u64 [s1 + 0x60]\n 31742: a0 = a0 | a1\n 31745: a1 = u64 [s1 + 0x50]\n 31748: a1 = a1 << 0x10\n 31751: a2 = u64 [s1 + 0x48]\n 31754: a2 = a2 << 0x18\n 31757: a1 = a1 | a2\n 31760: a0 = a0 | a1\n 31763: a1 = u64 [s1 + 0x58]\n 31766: a1 = a1 << 0x8\n 31769: a2 = u64 [s1 + 0x78]\n 31772: a1 = a1 | a2\n 31775: a2 = u64 [s1 + 0x70]\n 31778: a2 = a2 << 0x10\n 31781: a3 = u64 [s1 + 0x68]\n 31784: a3 = a3 << 0x18\n 31787: a2 = a2 | a3\n 31790: a1 = a1 | a2\n 31793: a1 = a1 << 0x20\n 31796: t0 = a1 | a0\n 31799: a1 = u64 [s1 + 0x80]\n 31803: a1 = a1 << 0x8\n 31806: a0 = u64 [s1 + 0xa0]\n 31810: a1 = a1 | a0\n 31813: a2 = u64 [s1 + 0x90]\n 31817: a2 = a2 << 0x10\n 31820: a3 = u64 [s1 + 0x88]\n 31824: a3 = a3 << 0x18\n 31827: a2 = a2 | a3\n 31830: a1 = a1 | a2\n 31833: a2 = u64 [s1 + 0x98]\n 31837: a2 = a2 << 0x8\n 31840: a0 = u64 [s1 + 0xb8]\n 31844: a2 = a2 | a0\n 31847: a3 = u64 [s1 + 0xb0]\n 31851: a3 = a3 << 0x10\n 31854: a4 = u64 [s1 + 0xa8]\n 31858: a4 = a4 << 0x18\n 31861: a3 = a3 | a4\n 31864: a2 = a2 | a3\n 31867: a2 = a2 << 0x20\n 31870: a1 = a1 | a2\n 31873: a2 = u64 [s1 + 0xc0]\n 31877: a2 = a2 << 0x8\n 31880: a0 = u64 [s1 + 0xe0]\n 31884: a2 = a2 | a0\n 31887: a3 = u64 [s1 + 0xd0]\n 31891: a3 = a3 << 0x10\n 31894: a4 = u64 [s1 + 0xc8]\n 31898: a4 = a4 << 0x18\n 31901: a3 = a3 | a4\n 31904: a2 = a2 | a3\n 31907: a3 = u64 [s1 + 0xd8]\n 31911: a3 = a3 << 0x8\n 31914: a0 = u64 [s1 + 0xf8]\n 31918: a3 = a3 | a0\n 31921: a4 = u64 [s1 + 0xf0]\n 31925: a4 = a4 << 0x10\n 31928: a5 = u64 [s1 + 0xe8]\n 31932: a5 = a5 << 0x18\n 31935: a4 = a4 | a5\n 31938: a3 = a3 | a4\n 31941: a3 = a3 << 0x20\n 31944: a2 = a2 | a3\n 31947: a3 = u64 [s1 + 0x120]\n 31951: a3 = a3 << 0x8\n 31954: a0 = u64 [s1 + 0x140]\n 31958: a3 = a3 | a0\n 31961: a4 = u64 [s1 + 0x130]\n 31965: a4 = a4 << 0x10\n 31968: a5 = u64 [s1 + 0x128]\n 31972: a5 = a5 << 0x18\n 31975: a4 = a4 | a5\n 31978: a3 = a3 | a4\n 31981: a4 = u64 [s1 + 0x138]\n 31985: a4 = a4 << 0x8\n 31988: a0 = u64 [s1 + 0x158]\n 31992: a4 = a4 | a0\n 31995: a5 = u64 [s1 + 0x150]\n 31999: a5 = a5 << 0x10\n 32002: a0 = u64 [s1 + 0x148]\n 32006: a0 = a0 << 0x18\n 32009: a0 = a0 | a5\n 32012: a0 = a0 | a4\n 32015: a0 = a0 << 0x20\n 32018: a0 = a0 | a3\n 32021: a3 = reverse a0\n 32023: a2 = reverse a2\n 32025: a1 = reverse a1\n 32027: a4 = reverse t0\n 32029: a0 = a4 | a2\n 32032: u64 [s1 + 0xd0] = a3\n 32036: u64 [s1 + 0xc8] = a1\n 32040: a1 = a1 | a3\n 32043: a0 = a0 | a1\n 32046: a0 = a0 >> 0x20\n 32049: u64 [s1 + 0xd8] = a2\n 32053: a1 = a1 | a2\n 32056: a1 = a1 << 0x20\n 32059: a0 = a0 | a1\n 32062: jump @426 if a0 != 0\n      : @407 (gas: 5)\n 32066: i32 a0 = a4 + 0\n 32068: a1 = 0x20\n 32071: u64 [s1 + 0x158] = a0\n 32075: u64 [s1 + 0xc0] = a4\n 32079: ra = 264, jump @0\n      : @408 [@dyn 132] (gas: 70)\n 32085: a1 = u64 [s1 + 0x118]\n 32089: a1 = reverse a1\n 32091: a2 = a1 >> 0x38\n 32094: u8 [a0 + 0x1f] = a2\n 32097: a2 = a1 >> 0x30\n 32100: u8 [a0 + 0x1e] = a2\n 32103: a2 = a1 >> 0x28\n 32106: u8 [a0 + 0x1d] = a2\n 32109: a2 = a1 >> 0x20\n 32112: u8 [a0 + 0x1c] = a2\n 32115: a2 = a1 >> 0x18\n 32118: u8 [a0 + 0x1b] = a2\n 32121: a2 = a1 >> 0x10\n 32124: u8 [a0 + 0x1a] = a2\n 32127: a2 = a1 >> 0x8\n 32130: u8 [a0 + 0x19] = a2\n 32133: a2 = u64 [s1 + 0x108]\n 32137: a2 = reverse a2\n 32139: u8 [a0 + 0x18] = a1\n 32142: a1 = a2 >> 0x38\n 32145: u8 [a0 + 0x17] = a1\n 32148: a1 = a2 >> 0x30\n 32151: u8 [a0 + 0x16] = a1\n 32154: a1 = a2 >> 0x28\n 32157: u8 [a0 + 0x15] = a1\n 32160: a1 = a2 >> 0x20\n 32163: u8 [a0 + 0x14] = a1\n 32166: a1 = a2 >> 0x18\n 32169: u8 [a0 + 0x13] = a1\n 32172: a1 = a2 >> 0x10\n 32175: u8 [a0 + 0x12] = a1\n 32178: a1 = u64 [s1 + 0x110]\n 32182: a1 = reverse a1\n 32184: u8 [a0 + 0x10] = a2\n 32187: a2 = a2 >> 0x8\n 32190: u8 [a0 + 0x11] = a2\n 32193: a2 = a1 >> 0x38\n 32196: u8 [a0 + 0xf] = a2\n 32199: a2 = a1 >> 0x30\n 32202: u8 [a0 + 0xe] = a2\n 32205: a2 = a1 >> 0x28\n 32208: u8 [a0 + 0xd] = a2\n 32211: a2 = a1 >> 0x20\n 32214: u8 [a0 + 0xc] = a2\n 32217: a2 = a1 >> 0x18\n 32220: u8 [a0 + 0xb] = a2\n 32223: a2 = a1 >> 0x10\n 32226: u8 [a0 + 0xa] = a2\n 32229: a2 = u64 [s1 + 0x100]\n 32233: a2 = reverse a2\n 32235: u8 [a0 + 0x8] = a1\n 32238: a1 = a1 >> 0x8\n 32241: u8 [a0 + 0x9] = a1\n 32244: a1 = a2 >> 0x38\n 32247: u8 [a0 + 0x7] = a1\n 32250: a1 = a2 >> 0x30\n 32253: u8 [a0 + 0x6] = a1\n 32256: a1 = a2 >> 0x28\n 32259: u8 [a0 + 0x5] = a1\n 32262: a1 = a2 >> 0x20\n 32265: u8 [a0 + 0x4] = a1\n 32268: a1 = a2 >> 0x18\n 32271: u8 [a0 + 0x3] = a1\n 32274: a1 = a2 >> 0x10\n 32277: u8 [a0 + 0x2] = a1\n 32280: u8 [a0] = a2\n 32282: a2 = a2 >> 0x8\n 32285: u8 [a0 + 0x1] = a2\n 32288: a0 = u64 [s1 + 0x38]\n 32291: jump @412 if a0 != 0\n      : @409 (gas: 10)\n 32295: a0 = u64 [s1 + 0xd8]\n 32299: a1 = u64 [s1 + 0xd0]\n 32303: a0 = a0 | a1\n 32306: a1 = 0xffffffe0\n 32316: a2 = u64 [s1 + 0xc0]\n 32320: a1 = a2 <u a1\n 32323: a2 = u64 [s1 + 0xc8]\n 32327: a1 = 0 if a2 != 0\n 32329: a1 = 0 if a0 != 0\n 32331: jump @426 if a1 == 0\n      : @410 (gas: 7)\n 32335: a0 = u64 [s1 + 0x18]\n 32338: a0 = a0 & 0xffffffffffffff00\n 32342: u64 [s1 + 0x170] = a0\n 32346: a0 = u64 [s1 + 0x158]\n 32350: i32 a0 = a0 + 0x20\n 32353: a1 = 0x20\n 32356: ra = 266, jump @0\n      : @411 [@dyn 133] (gas: 74)\n 32362: t0 = 0\n 32364: t1 = 0\n 32366: u64 [s1 + 376] = 0\n 32370: a1 = u64 [s1 + 0x170]\n 32374: a3 = reverse a1\n 32376: a4 = a3 >> 0x30\n 32379: u8 [a0 + 0x1e] = a4\n 32382: a4 = a3 >> 0x28\n 32385: u8 [a0 + 0x1d] = a4\n 32388: a4 = a3 >> 0x20\n 32391: u8 [a0 + 0x1c] = a4\n 32394: a4 = a3 >> 0x18\n 32397: u8 [a0 + 0x1b] = a4\n 32400: a4 = a3 >> 0x10\n 32403: u8 [a0 + 0x1a] = a4\n 32406: a1 = u64 [s1 + 0x20]\n 32409: a4 = reverse a1\n 32411: u8 [a0 + 0x18] = a3\n 32414: a3 = a3 >> 0x8\n 32417: u8 [a0 + 0x19] = a3\n 32420: a3 = a4 >> 0x38\n 32423: u8 [a0 + 0x17] = a3\n 32426: a3 = a4 >> 0x30\n 32429: u8 [a0 + 0x16] = a3\n 32432: a3 = a4 >> 0x28\n 32435: u8 [a0 + 0x15] = a3\n 32438: a3 = a4 >> 0x20\n 32441: u8 [a0 + 0x14] = a3\n 32444: a3 = a4 >> 0x18\n 32447: u8 [a0 + 0x13] = a3\n 32450: a3 = a4 >> 0x10\n 32453: u8 [a0 + 0x12] = a3\n 32456: a1 = u64 [s1 + 0x28]\n 32459: a3 = reverse a1\n 32461: u8 [a0 + 0x10] = a4\n 32464: a4 = a4 >> 0x8\n 32467: u8 [a0 + 0x11] = a4\n 32470: a4 = a3 >> 0x38\n 32473: u8 [a0 + 0xf] = a4\n 32476: a4 = a3 >> 0x30\n 32479: u8 [a0 + 0xe] = a4\n 32482: a4 = a3 >> 0x28\n 32485: u8 [a0 + 0xd] = a4\n 32488: a4 = a3 >> 0x20\n 32491: u8 [a0 + 0xc] = a4\n 32494: a4 = a3 >> 0x18\n 32497: u8 [a0 + 0xb] = a4\n 32500: a4 = a3 >> 0x10\n 32503: u8 [a0 + 0xa] = a4\n 32506: a1 = u64 [s1 + 0x30]\n 32509: a4 = reverse a1\n 32511: u8 [a0 + 31] = 0\n 32514: u8 [a0 + 0x8] = a3\n 32517: a3 = a3 >> 0x8\n 32520: u8 [a0 + 0x9] = a3\n 32523: u8 [a0] = a4\n 32525: a3 = a4 >> 0x38\n 32528: u8 [a0 + 0x7] = a3\n 32531: a3 = a4 >> 0x30\n 32534: u8 [a0 + 0x6] = a3\n 32537: a3 = a4 >> 0x28\n 32540: u8 [a0 + 0x5] = a3\n 32543: a3 = a4 >> 0x20\n 32546: u8 [a0 + 0x4] = a3\n 32549: a3 = a4 >> 0x18\n 32552: u8 [a0 + 0x3] = a3\n 32555: a3 = a4 >> 0x10\n 32558: u8 [a0 + 0x2] = a3\n 32561: a4 = a4 >> 0x8\n 32564: u8 [a0 + 0x1] = a4\n 32567: a0 = u64 [s1 + 0x8]\n 32570: a0 = a0 >u 0\n 32572: ra = a0 << 0x5\n 32575: jump @422\n      : @412 (gas: 3)\n 32578: a1 = 0x20\n 32581: a0 = 0\n 32583: ra = 268, jump @0\n      : @413 [@dyn 134] (gas: 71)\n 32589: a1 = u64 [s1 + 0x160]\n 32593: a1 = reverse a1\n 32595: a2 = u64 [s1 + 0x168]\n 32599: a2 = reverse a2\n 32601: a3 = u64 [s1 + 0x170]\n 32605: a3 = reverse a3\n 32607: a4 = u64 [s1 + 0x178]\n 32611: a4 = reverse a4\n 32613: u8 [a0 + 0x18] = a4\n 32616: a5 = a4 >> 0x38\n 32619: u8 [a0 + 0x1f] = a5\n 32622: a5 = a4 >> 0x30\n 32625: u8 [a0 + 0x1e] = a5\n 32628: a5 = a4 >> 0x28\n 32631: u8 [a0 + 0x1d] = a5\n 32634: a5 = a4 >> 0x20\n 32637: u8 [a0 + 0x1c] = a5\n 32640: a5 = a4 >> 0x18\n 32643: u8 [a0 + 0x1b] = a5\n 32646: a5 = a4 >> 0x10\n 32649: u8 [a0 + 0x1a] = a5\n 32652: a4 = a4 >> 0x8\n 32655: u8 [a0 + 0x19] = a4\n 32658: u8 [a0 + 0x10] = a3\n 32661: a4 = a3 >> 0x38\n 32664: u8 [a0 + 0x17] = a4\n 32667: a4 = a3 >> 0x30\n 32670: u8 [a0 + 0x16] = a4\n 32673: a4 = a3 >> 0x28\n 32676: u8 [a0 + 0x15] = a4\n 32679: a4 = a3 >> 0x20\n 32682: u8 [a0 + 0x14] = a4\n 32685: a4 = a3 >> 0x18\n 32688: u8 [a0 + 0x13] = a4\n 32691: a4 = a3 >> 0x10\n 32694: u8 [a0 + 0x12] = a4\n 32697: a3 = a3 >> 0x8\n 32700: u8 [a0 + 0x11] = a3\n 32703: u8 [a0 + 0x8] = a2\n 32706: a3 = a2 >> 0x38\n 32709: u8 [a0 + 0xf] = a3\n 32712: a3 = a2 >> 0x30\n 32715: u8 [a0 + 0xe] = a3\n 32718: a3 = a2 >> 0x28\n 32721: u8 [a0 + 0xd] = a3\n 32724: a3 = a2 >> 0x20\n 32727: u8 [a0 + 0xc] = a3\n 32730: a3 = a2 >> 0x18\n 32733: u8 [a0 + 0xb] = a3\n 32736: a3 = a2 >> 0x10\n 32739: u8 [a0 + 0xa] = a3\n 32742: a2 = a2 >> 0x8\n 32745: u8 [a0 + 0x9] = a2\n 32748: u8 [a0] = a1\n 32750: a2 = a1 >> 0x38\n 32753: u8 [a0 + 0x7] = a2\n 32756: a2 = a1 >> 0x30\n 32759: u8 [a0 + 0x6] = a2\n 32762: a2 = a1 >> 0x28\n 32765: u8 [a0 + 0x5] = a2\n 32768: a2 = a1 >> 0x20\n 32771: u8 [a0 + 0x4] = a2\n 32774: a2 = a1 >> 0x18\n 32777: u8 [a0 + 0x3] = a2\n 32780: a2 = a1 >> 0x10\n 32783: u8 [a0 + 0x2] = a2\n 32786: a1 = a1 >> 0x8\n 32789: u8 [a0 + 0x1] = a1\n 32792: a1 = 0x20\n 32795: a0 = 0\n 32797: ra = 270, jump @0\n      : @414 [@dyn 135] (gas: 9)\n 32804: a1 = sp + 0xffffffffffffffe0\n 32807: a1 = a1 & 0xffffffffffffffe0\n 32810: sp = a1\n 32812: i32 a0 = a0 + 0\n 32814: u64 [s1 + 0x158] = a1\n 32818: i32 a2 = a1 + 0\n 32820: a1 = 0x20\n 32823: ecalli 8 // 'hash_keccak_256'\n 32825: fallthrough\n      : @415 (gas: 9)\n 32826: a0 = u64 [s1 + 0x18]\n 32829: a0 = a0 <u 0x2\n 32832: a1 = u64 [s1 + 0x20]\n 32835: a0 = 0 if a1 != 0\n 32837: a1 = u64 [s1 + 0x30]\n 32840: a2 = u64 [s1 + 0x28]\n 32843: a1 = a1 | a2\n 32846: a0 = 0 if a1 != 0\n 32848: jump @417 if a0 == 0\n      : @416 (gas: 5)\n 32851: ra = 0\n 32853: t0 = 0\n 32855: t1 = 0\n 32857: u64 [s1 + 376] = 0\n 32861: jump @422\n      : @417 (gas: 30)\n 32864: u64 [s1 + 360] = 0\n 32868: u64 [s1 + 352] = 0\n 32872: u64 [s1 + 368] = 0\n 32876: u64 [s1 + 376] = 0\n 32880: a0 = u64 [s1 + 0x158]\n 32884: a4 = u64 [a0]\n 32886: a1 = u64 [s1 + 0xc0]\n 32890: a2 = a1 + 0x20\n 32893: u64 [s1 + 0xf8] = a2\n 32897: a1 = a2 <u a1\n 32900: a2 = u64 [s1 + 0xc8]\n 32904: a3 = a2 + a1\n 32907: u64 [s1 + 0xf0] = a3\n 32911: a3 = a3 <u a2\n 32914: a3 = a1 if a1 == 0\n 32917: a1 = u64 [a0 + 0x8]\n 32920: a2 = u64 [a0 + 0x10]\n 32923: a0 = u64 [a0 + 0x18]\n 32926: a5 = reverse a4\n 32928: a4 = reverse a1\n 32930: a2 = reverse a2\n 32932: t2 = reverse a0\n 32934: a0 = u64 [s1 + 0xd8]\n 32938: a3 = a3 + a0\n 32941: u64 [s1 + 0xe8] = a3\n 32945: a0 = a3 <u a0\n 32948: a1 = u64 [s1 + 0xd0]\n 32952: a0 = a0 + a1\n 32955: u64 [s1 + 0xe0] = a0\n 32959: fallthrough\n      : @418 (gas: 20)\n 32960: u64 [s1 + 0x140] = a4\n 32964: u64 [s1 + 0x210] = a4\n 32968: u64 [s1 + 0x150] = a2\n 32972: u64 [s1 + 0x208] = a2\n 32976: u64 [s1 + 0x148] = t2\n 32980: u64 [s1 + 0x200] = t2\n 32984: u64 [s1 + 0x158] = a5\n 32988: u64 [s1 + 0x218] = a5\n 32992: u64 [s1 + 568] = 0\n 32996: u64 [s1 + 560] = 0\n 33000: u64 [s1 + 552] = 0\n 33004: u64 [s1 + 544] = 0\n 33008: u32 [s1 + 576] = 0x20\n 33013: i32 a1 = s1 + 0x200\n 33017: i32 a3 = s1 + 0x220\n 33021: i32 a4 = s1 + 0x240\n 33025: a2 = 0xffffffffffffffff\n 33028: a0 = 0\n 33030: ecalli 7 // 'get_storage'\n 33032: fallthrough\n      : @419 (gas: 30)\n 33033: a1 = u64 [s1 + 0xf8]\n 33037: a0 = u64 [s1 + 0x168]\n 33041: a0 = a0 + a1\n 33044: a1 = a0 <u a1\n 33047: a4 = u64 [s1 + 0xf0]\n 33051: a2 = u64 [s1 + 0x160]\n 33055: a2 = a2 + a4\n 33058: a2 = a2 + a1\n 33061: a3 = a2 ^ a4\n 33064: a4 = a2 <u a4\n 33067: a4 = a1 if a3 == 0\n 33070: a3 = u64 [s1 + 0xe8]\n 33074: a1 = u64 [s1 + 0x170]\n 33078: a1 = a1 + a3\n 33081: t0 = a1 <u a3\n 33084: a5 = u64 [s1 + 0x178]\n 33088: a3 = u64 [s1 + 0xe0]\n 33092: a5 = a5 + a3\n 33095: a3 = a5 + t0\n 33098: a4 = a4 + a1\n 33101: a1 = a4 <u a1\n 33104: a1 = a1 + a3\n 33107: a1 = a1 | a2\n 33110: a2 = a0 | a4\n 33113: a2 = a2 | a1\n 33116: a1 = a1 | a4\n 33119: a2 = a2 >> 0x20\n 33122: a1 = a1 << 0x20\n 33125: a1 = a1 | a2\n 33128: jump @426 if a1 != 0\n      : @420 (gas: 11)\n 33132: a1 = u64 [s1 + 0x238]\n 33136: u64 [s1 + 0x130] = a1\n 33140: a1 = u64 [s1 + 0x230]\n 33144: u64 [s1 + 0x138] = a1\n 33148: a1 = u64 [s1 + 0x228]\n 33152: u64 [s1 + 0x128] = a1\n 33156: a1 = u64 [s1 + 0x220]\n 33160: u64 [s1 + 0x120] = a1\n 33164: i32 a0 = a0 + 0\n 33166: a1 = 0x20\n 33169: ra = 272, jump @0\n      : @421 [@dyn 136] (gas: 114)\n 33176: a1 = u64 [s1 + 0x120]\n 33180: a1 = reverse a1\n 33182: a2 = a1 >> 0x38\n 33185: u8 [a0 + 0x1f] = a2\n 33188: a2 = a1 >> 0x30\n 33191: u8 [a0 + 0x1e] = a2\n 33194: a2 = a1 >> 0x28\n 33197: u8 [a0 + 0x1d] = a2\n 33200: a2 = a1 >> 0x20\n 33203: u8 [a0 + 0x1c] = a2\n 33206: a2 = a1 >> 0x18\n 33209: u8 [a0 + 0x1b] = a2\n 33212: a2 = a1 >> 0x10\n 33215: u8 [a0 + 0x1a] = a2\n 33218: a2 = a1 >> 0x8\n 33221: u8 [a0 + 0x19] = a2\n 33224: a2 = u64 [s1 + 0x128]\n 33228: a2 = reverse a2\n 33230: u8 [a0 + 0x18] = a1\n 33233: a1 = a2 >> 0x38\n 33236: u8 [a0 + 0x17] = a1\n 33239: a1 = a2 >> 0x30\n 33242: u8 [a0 + 0x16] = a1\n 33245: a1 = a2 >> 0x28\n 33248: u8 [a0 + 0x15] = a1\n 33251: a1 = a2 >> 0x20\n 33254: u8 [a0 + 0x14] = a1\n 33257: a1 = a2 >> 0x18\n 33260: u8 [a0 + 0x13] = a1\n 33263: a1 = a2 >> 0x10\n 33266: u8 [a0 + 0x12] = a1\n 33269: a1 = u64 [s1 + 0x130]\n 33273: a1 = reverse a1\n 33275: a3 = u64 [s1 + 0x138]\n 33279: a3 = reverse a3\n 33281: u8 [a0 + 0x10] = a2\n 33284: a2 = a2 >> 0x8\n 33287: u8 [a0 + 0x11] = a2\n 33290: u8 [a0 + 0x8] = a3\n 33293: a2 = a3 >> 0x38\n 33296: u8 [a0 + 0xf] = a2\n 33299: a2 = a3 >> 0x30\n 33302: u8 [a0 + 0xe] = a2\n 33305: a2 = a3 >> 0x28\n 33308: u8 [a0 + 0xd] = a2\n 33311: a2 = a3 >> 0x20\n 33314: u8 [a0 + 0xc] = a2\n 33317: a2 = a3 >> 0x18\n 33320: u8 [a0 + 0xb] = a2\n 33323: a2 = a3 >> 0x10\n 33326: u8 [a0 + 0xa] = a2\n 33329: a3 = a3 >> 0x8\n 33332: u8 [a0 + 0x9] = a3\n 33335: u8 [a0] = a1\n 33337: a2 = a1 >> 0x38\n 33340: u8 [a0 + 0x7] = a2\n 33343: a2 = a1 >> 0x30\n 33346: u8 [a0 + 0x6] = a2\n 33349: a2 = a1 >> 0x28\n 33352: u8 [a0 + 0x5] = a2\n 33355: a2 = a1 >> 0x20\n 33358: u8 [a0 + 0x4] = a2\n 33361: a2 = a1 >> 0x18\n 33364: u8 [a0 + 0x3] = a2\n 33367: a2 = a1 >> 0x10\n 33370: u8 [a0 + 0x2] = a2\n 33373: a1 = a1 >> 0x8\n 33376: u8 [a0 + 0x1] = a1\n 33379: t2 = u64 [s1 + 0x148]\n 33383: t2 = t2 + 0x1\n 33386: a0 = t2 <u 0x1\n 33389: a2 = u64 [s1 + 0x150]\n 33393: a2 = a2 + a0\n 33396: a0 = u64 [s1 + 0x168]\n 33400: ra = a0 + 0x20\n 33403: a1 = ra <u a0\n 33406: a0 = u64 [s1 + 0x160]\n 33410: t0 = a0 + a1\n 33413: a3 = t0 <u a0\n 33416: a3 = a1 if a1 == 0\n 33419: a0 = u64 [s1 + 0x170]\n 33423: t1 = a0 + a3\n 33426: a3 = t1 <u a0\n 33429: a4 = u64 [s1 + 0x178]\n 33433: a4 = a4 + a3\n 33436: a0 = u64 [s1 + 0x110]\n 33440: a1 = t1 <u a0\n 33443: u64 [s1 + 0x170] = a1\n 33447: a1 = u64 [s1 + 0x118]\n 33451: a5 = ra <u a1\n 33454: a3 = u64 [s1 + 0x108]\n 33458: a1 = t0 ^ a3\n 33461: a3 = t0 <u a3\n 33464: a3 = a5 if a1 == 0\n 33467: a5 = u64 [s1 + 0x100]\n 33471: a1 = a4 ^ a5\n 33474: u64 [s1 + 0x178] = a4\n 33478: a5 = a4 <u a5\n 33481: a4 = u64 [s1 + 0x170]\n 33485: a5 = a4 if a1 == 0\n 33488: a4 = t1 ^ a0\n 33491: a1 = a1 | a4\n 33494: a4 = t2 | a2\n 33497: a4 = a4 <u 0x1\n 33500: a0 = u64 [s1 + 0x140]\n 33504: a4 = a4 + a0\n 33507: a0 = a4 <u a0\n 33510: a3 = a5 if a1 != 0\n 33513: a5 = u64 [s1 + 0x158]\n 33517: a5 = a5 + a0\n 33520: u64 [s1 + 0x168] = ra\n 33524: u64 [s1 + 0x160] = t0\n 33528: u64 [s1 + 0x170] = t1\n 33532: jump @418 if a3 != 0\n      : @422 (gas: 37)\n 33536: a3 = ra + 0x3f\n 33539: a0 = a3 <u ra\n 33542: a4 = t0 + a0\n 33545: a1 = a4 <u t0\n 33548: a1 = a0 if a0 == 0\n 33551: a1 = a1 + t1\n 33554: a0 = a1 <u t1\n 33557: a2 = u64 [s1 + 0x178]\n 33561: a0 = a0 + a2\n 33564: a3 = a3 & 0xffffffffffffffe0\n 33567: t1 = u64 [s1 + 0xc0]\n 33571: a2 = a3 + t1\n 33574: u64 [s1 + 0x170] = a2\n 33578: a2 = a2 <u a3\n 33581: t0 = u64 [s1 + 0xc8]\n 33585: a3 = a4 + t0\n 33588: a3 = a3 + a2\n 33591: a5 = a3 ^ a4\n 33594: a4 = a3 <u a4\n 33597: a4 = a2 if a5 == 0\n 33600: t2 = u64 [s1 + 0xd8]\n 33604: a2 = a1 + t2\n 33607: a4 = a4 + a2\n 33610: a5 = a4 <u a2\n 33613: a1 = a2 <u a1\n 33616: ra = u64 [s1 + 0xd0]\n 33620: a0 = a0 + ra\n 33623: a0 = a0 + a1\n 33626: a5 = a5 + a0\n 33629: a0 = a5 >u 0\n 33631: a1 = a4 >u 0\n 33633: a1 = a0 if a5 != 0\n 33636: a0 = a4 | a5\n 33639: u64 [s1 + 0x178] = a3\n 33643: a2 = a3 >u 0\n 33645: a2 = a1 if a0 != 0\n 33648: jump @427 if a2 != 0\n      : @423 (gas: 14)\n 33652: a0 = u64 [s1 + 0x170]\n 33656: a0 = a0 <u t1\n 33659: a2 = u64 [s1 + 0x178]\n 33663: a1 = a2 ^ t0\n 33666: a2 = a2 <u t0\n 33669: a2 = a0 if a1 == 0\n 33672: a0 = a4 <u t2\n 33675: a1 = a5 ^ ra\n 33678: a3 = a5 <u ra\n 33681: a3 = a0 if a1 == 0\n 33684: a0 = a4 ^ t2\n 33687: a0 = a0 | a1\n 33690: a3 = a2 if a0 == 0\n 33693: jump @427 if a3 != 0\n      : @424 (gas: 5)\n 33697: a0 = 0x40\n 33700: a1 = 0x20\n 33703: u64 [s1 + 0x168] = a5\n 33707: u64 [s1 + 0x160] = a4\n 33711: ra = 274, jump @0\n      : @425 [@dyn 137] (gas: 83)\n 33718: a1 = u64 [s1 + 0x170]\n 33722: a1 = reverse a1\n 33724: a2 = a1 >> 0x38\n 33727: u8 [a0 + 0x1f] = a2\n 33730: a2 = a1 >> 0x30\n 33733: u8 [a0 + 0x1e] = a2\n 33736: a2 = a1 >> 0x28\n 33739: u8 [a0 + 0x1d] = a2\n 33742: a2 = a1 >> 0x20\n 33745: u8 [a0 + 0x1c] = a2\n 33748: a2 = a1 >> 0x18\n 33751: u8 [a0 + 0x1b] = a2\n 33754: a2 = a1 >> 0x10\n 33757: u8 [a0 + 0x1a] = a2\n 33760: a2 = u64 [s1 + 0x178]\n 33764: a2 = reverse a2\n 33766: u8 [a0 + 0x18] = a1\n 33769: a1 = a1 >> 0x8\n 33772: u8 [a0 + 0x19] = a1\n 33775: a1 = a2 >> 0x38\n 33778: u8 [a0 + 0x17] = a1\n 33781: a1 = a2 >> 0x30\n 33784: u8 [a0 + 0x16] = a1\n 33787: a1 = a2 >> 0x28\n 33790: u8 [a0 + 0x15] = a1\n 33793: a1 = a2 >> 0x20\n 33796: u8 [a0 + 0x14] = a1\n 33799: a1 = a2 >> 0x18\n 33802: u8 [a0 + 0x13] = a1\n 33805: a1 = a2 >> 0x10\n 33808: u8 [a0 + 0x12] = a1\n 33811: a1 = u64 [s1 + 0x160]\n 33815: a1 = reverse a1\n 33817: u8 [a0 + 0x10] = a2\n 33820: a2 = a2 >> 0x8\n 33823: u8 [a0 + 0x11] = a2\n 33826: a2 = a1 >> 0x38\n 33829: u8 [a0 + 0xf] = a2\n 33832: a2 = a1 >> 0x30\n 33835: u8 [a0 + 0xe] = a2\n 33838: a2 = a1 >> 0x28\n 33841: u8 [a0 + 0xd] = a2\n 33844: a2 = a1 >> 0x20\n 33847: u8 [a0 + 0xc] = a2\n 33850: a2 = a1 >> 0x18\n 33853: u8 [a0 + 0xb] = a2\n 33856: a2 = a1 >> 0x10\n 33859: u8 [a0 + 0xa] = a2\n 33862: a2 = u64 [s1 + 0x168]\n 33866: a2 = reverse a2\n 33868: u8 [a0 + 0x8] = a1\n 33871: a1 = a1 >> 0x8\n 33874: u8 [a0 + 0x9] = a1\n 33877: a1 = a2 >> 0x38\n 33880: u8 [a0 + 0x7] = a1\n 33883: a1 = a2 >> 0x30\n 33886: u8 [a0 + 0x6] = a1\n 33889: a1 = a2 >> 0x28\n 33892: u8 [a0 + 0x5] = a1\n 33895: a1 = a2 >> 0x20\n 33898: u8 [a0 + 0x4] = a1\n 33901: a1 = a2 >> 0x18\n 33904: u8 [a0 + 0x3] = a1\n 33907: a1 = a2 >> 0x10\n 33910: u8 [a0 + 0x2] = a1\n 33913: u8 [a0] = a2\n 33915: a2 = a2 >> 0x8\n 33918: u8 [a0 + 0x1] = a2\n 33921: a0 = u64 [s1 + 0x10]\n 33924: a1 = u64 [s1 + 0xc0]\n 33928: u64 [a0] = a1\n 33930: a1 = u64 [s1 + 0xd0]\n 33934: u64 [a0 + 0x18] = a1\n 33937: a1 = u64 [s1 + 0xc8]\n 33941: u64 [a0 + 0x8] = a1\n 33944: a1 = u64 [s1 + 0xd8]\n 33948: u64 [a0 + 0x10] = a1\n 33951: sp = s0 + 0xfffffffffffffda0\n 33955: ra = u64 [sp + 0x258]\n 33959: s0 = u64 [sp + 0x250]\n 33963: s1 = u64 [sp + 0x248]\n 33967: sp = sp + 0x260\n 33971: ret\n      : @426 (gas: 1)\n 33973: trap\n      : @427 (gas: 8)\n 33974: u64 [s1 + 496] = 0\n 33978: u64 [s1 + 488] = 0\n 33982: u64 [s1 + 480] = 0\n 33986: a0 = 0x4e487b7100000000\n 33996: a1 = s1 + 0x1e0\n 34000: u64 [s1 + 0x1f8] = a0\n 34004: a0 = 0\n 34006: ra = 276, jump @23\n      : @428 [@dyn 138] (gas: 8)\n 34013: u64 [s1 + 472] = 0\n 34017: u64 [s1 + 464] = 0\n 34021: u64 [s1 + 448] = 0x41\n 34026: a0 = 0x4\n 34029: a1 = s1 + 0x1c0\n 34033: u64 [s1 + 456] = 0\n 34037: ra = 0x118\n 34041: jump @23\n      : @429 (gas: 8)\n 34045: u64 [s1 + 432] = 0\n 34049: u64 [s1 + 424] = 0\n 34053: u64 [s1 + 416] = 0\n 34057: a0 = 0x4e487b7100000000\n 34067: a1 = s1 + 0x1a0\n 34071: u64 [s1 + 0x1b8] = a0\n 34075: a0 = 0\n 34077: ra = 278, jump @23\n      : @430 [@dyn 139] (gas: 7)\n 34084: u64 [s1 + 408] = 0\n 34088: u64 [s1 + 400] = 0\n 34092: u64 [s1 + 384] = 0x22\n 34097: a0 = 0x4\n 34100: a1 = s1 + 0x180\n 34104: u64 [s1 + 392] = 0\n 34108: ra = 280, jump @23\n      : @431 [@dyn 140] (gas: 3)\n 34115: a1 = 0x24\n 34118: a0 = 0\n 34120: ra = 282, jump @0\n      : @432 [@dyn 141] (gas: 6)\n 34127: i32 a1 = a0 + 0\n 34129: a0 = 0x1\n 34132: a2 = 0x24\n 34135: ra = 0x11c\n 34139: ecalli 13 // 'seal_return'\n 34141: fallthrough\n      : @433 [@dyn 142] (gas: 16)\n 34142: sp = sp + 0xffffffffffffff80\n 34145: u64 [sp + 0x78] = ra\n 34148: u64 [sp + 0x70] = s0\n 34151: u64 [sp + 0x68] = s1\n 34154: a5 = u64 [a1 + 0x10]\n 34157: s1 = u64 [a1 + 0x18]\n 34160: a4 = u64 [a1 + 0x8]\n 34163: s0 = u64 [a1]\n 34165: a1 = a4 | s1\n 34168: a3 = s0 | a5\n 34171: a3 = a3 | a1\n 34174: a3 = a3 >> 0x20\n 34177: a1 = a1 | a5\n 34180: a1 = a1 << 0x20\n 34183: a1 = a1 | a3\n 34186: jump @446 if a1 != 0\n      : @434 (gas: 16)\n 34190: u64 [sp + 0x30] = s1\n 34193: u64 [sp + 0x38] = a5\n 34196: u64 [sp + 0x40] = a4\n 34199: u64 [sp + 0x8] = a0\n 34202: a0 = u64 [a2 + 0x18]\n 34205: u64 [sp + 0x60] = a0\n 34208: s1 = u64 [a2 + 0x10]\n 34211: a0 = u64 [a2 + 0x8]\n 34214: u64 [sp + 0x58] = a0\n 34217: a0 = u64 [a2]\n 34219: u64 [sp + 0x50] = a0\n 34222: u64 [sp + 0x28] = s0\n 34225: i32 a0 = s0 + 0\n 34227: a1 = 0x20\n 34230: u64 [sp + 0x10] = a0\n 34233: ra = 286, jump @0\n      : @435 [@dyn 143] (gas: 12)\n 34240: t0 = u64 [sp + 0x50]\n 34243: a1 = t0 | s1\n 34246: a2 = u64 [sp + 0x60]\n 34249: a3 = u64 [sp + 0x58]\n 34252: a2 = a2 | a3\n 34255: a1 = a1 | a2\n 34258: a1 = a1 >> 0x20\n 34261: u64 [sp + 0x48] = s1\n 34264: a2 = a2 | s1\n 34267: a2 = a2 << 0x20\n 34270: a1 = a1 | a2\n 34273: jump @446 if a1 != 0\n      : @436 (gas: 94)\n 34277: a1 = u8 [a0 + 0x19]\n 34280: a2 = u8 [a0 + 0x18]\n 34283: a3 = u8 [a0 + 0x1a]\n 34286: a4 = u8 [a0 + 0x1b]\n 34289: a1 = a1 << 0x8\n 34292: a1 = a1 | a2\n 34295: a3 = a3 << 0x10\n 34298: a4 = a4 << 0x18\n 34301: a3 = a3 | a4\n 34304: a1 = a1 | a3\n 34307: a2 = u8 [a0 + 0x1d]\n 34310: a3 = u8 [a0 + 0x1c]\n 34313: a4 = u8 [a0 + 0x1e]\n 34316: a5 = u8 [a0 + 0x1f]\n 34319: a2 = a2 << 0x8\n 34322: a2 = a2 | a3\n 34325: a4 = a4 << 0x10\n 34328: a5 = a5 << 0x18\n 34331: a4 = a4 | a5\n 34334: a2 = a2 | a4\n 34337: a2 = a2 << 0x20\n 34340: a1 = a1 | a2\n 34343: u64 [sp + 0x20] = a1\n 34346: a1 = u8 [a0 + 0x11]\n 34349: a2 = u8 [a0 + 0x10]\n 34352: a3 = u8 [a0 + 0x12]\n 34355: a4 = u8 [a0 + 0x13]\n 34358: a1 = a1 << 0x8\n 34361: a1 = a1 | a2\n 34364: a3 = a3 << 0x10\n 34367: a4 = a4 << 0x18\n 34370: a3 = a3 | a4\n 34373: a1 = a1 | a3\n 34376: a2 = u8 [a0 + 0x15]\n 34379: a3 = u8 [a0 + 0x14]\n 34382: a4 = u8 [a0 + 0x16]\n 34385: a5 = u8 [a0 + 0x17]\n 34388: a2 = a2 << 0x8\n 34391: a2 = a2 | a3\n 34394: a4 = a4 << 0x10\n 34397: a5 = a5 << 0x18\n 34400: a4 = a4 | a5\n 34403: a2 = a2 | a4\n 34406: a2 = a2 << 0x20\n 34409: a1 = a1 | a2\n 34412: u64 [sp + 0x18] = a1\n 34415: a1 = u8 [a0 + 0x9]\n 34418: a2 = u8 [a0 + 0x8]\n 34421: a3 = u8 [a0 + 0xa]\n 34424: a4 = u8 [a0 + 0xb]\n 34427: a1 = a1 << 0x8\n 34430: a1 = a1 | a2\n 34433: a3 = a3 << 0x10\n 34436: a4 = a4 << 0x18\n 34439: a3 = a3 | a4\n 34442: a1 = a1 | a3\n 34445: a2 = u8 [a0 + 0xd]\n 34448: a3 = u8 [a0 + 0xc]\n 34451: a4 = u8 [a0 + 0xe]\n 34454: a5 = u8 [a0 + 0xf]\n 34457: a2 = a2 << 0x8\n 34460: a2 = a2 | a3\n 34463: a4 = a4 << 0x10\n 34466: a5 = a5 << 0x18\n 34469: a4 = a4 | a5\n 34472: a2 = a2 | a4\n 34475: a2 = a2 << 0x20\n 34478: s0 = a2 | a1\n 34481: a1 = u8 [a0 + 0x1]\n 34484: a2 = u8 [a0]\n 34486: a3 = u8 [a0 + 0x2]\n 34489: a4 = u8 [a0 + 0x3]\n 34492: a1 = a1 << 0x8\n 34495: a1 = a1 | a2\n 34498: a3 = a3 << 0x10\n 34501: a4 = a4 << 0x18\n 34504: a3 = a3 | a4\n 34507: a1 = a1 | a3\n 34510: a2 = u8 [a0 + 0x5]\n 34513: a3 = u8 [a0 + 0x4]\n 34516: a4 = u8 [a0 + 0x6]\n 34519: a0 = u8 [a0 + 0x7]\n 34522: a2 = a2 << 0x8\n 34525: a2 = a2 | a3\n 34528: a4 = a4 << 0x10\n 34531: a0 = a0 << 0x18\n 34534: a0 = a0 | a4\n 34537: a0 = a0 | a2\n 34540: a0 = a0 << 0x20\n 34543: s1 = a0 | a1\n 34546: i32 a0 = t0 + 0\n 34548: a1 = 0x20\n 34551: u64 [sp] = a0\n 34553: ra = 288, jump @0\n      : @437 [@dyn 144] (gas: 72)\n 34560: a1 = s0 >> 0x38\n 34563: u8 [a0 + 0xf] = a1\n 34566: a1 = s0 >> 0x30\n 34569: u8 [a0 + 0xe] = a1\n 34572: a1 = s0 >> 0x28\n 34575: u8 [a0 + 0xd] = a1\n 34578: a1 = s0 >> 0x20\n 34581: u8 [a0 + 0xc] = a1\n 34584: a1 = s0 >> 0x18\n 34587: u8 [a0 + 0xb] = a1\n 34590: a1 = s0 >> 0x10\n 34593: u8 [a0 + 0xa] = a1\n 34596: a1 = s0 >> 0x8\n 34599: u8 [a0 + 0x9] = a1\n 34602: a1 = s1 >> 0x38\n 34605: u8 [a0 + 0x7] = a1\n 34608: a1 = s1 >> 0x30\n 34611: u8 [a0 + 0x6] = a1\n 34614: a1 = s1 >> 0x28\n 34617: u8 [a0 + 0x5] = a1\n 34620: a1 = s1 >> 0x20\n 34623: u8 [a0 + 0x4] = a1\n 34626: a1 = s1 >> 0x18\n 34629: u8 [a0 + 0x3] = a1\n 34632: a1 = s1 >> 0x10\n 34635: u8 [a0 + 0x2] = a1\n 34638: a1 = s1 >> 0x8\n 34641: u8 [a0 + 0x1] = a1\n 34644: t0 = u64 [sp + 0x18]\n 34647: a1 = t0 >> 0x38\n 34650: u8 [a0 + 0x17] = a1\n 34653: a1 = t0 >> 0x30\n 34656: u8 [a0 + 0x16] = a1\n 34659: a1 = t0 >> 0x28\n 34662: u8 [a0 + 0x15] = a1\n 34665: a1 = t0 >> 0x20\n 34668: u8 [a0 + 0x14] = a1\n 34671: a1 = t0 >> 0x18\n 34674: u8 [a0 + 0x13] = a1\n 34677: a1 = t0 >> 0x10\n 34680: u8 [a0 + 0x12] = a1\n 34683: a1 = t0 >> 0x8\n 34686: u8 [a0 + 0x11] = a1\n 34689: a5 = u64 [sp + 0x20]\n 34692: a1 = a5 >> 0x38\n 34695: u8 [a0 + 0x1f] = a1\n 34698: a1 = a5 >> 0x30\n 34701: u8 [a0 + 0x1e] = a1\n 34704: a1 = a5 >> 0x28\n 34707: u8 [a0 + 0x1d] = a1\n 34710: a1 = a5 >> 0x20\n 34713: u8 [a0 + 0x1c] = a1\n 34716: a1 = a5 >> 0x18\n 34719: u8 [a0 + 0x1b] = a1\n 34722: a1 = a5 >> 0x10\n 34725: u8 [a0 + 0x1a] = a1\n 34728: a1 = a5 >> 0x8\n 34731: u8 [a0 + 0x19] = a1\n 34734: a1 = u64 [sp + 0x48]\n 34737: a2 = u64 [sp + 0x60]\n 34740: a2 = a2 | a1\n 34743: a1 = 0xffffffe0\n 34753: a3 = u64 [sp + 0x50]\n 34756: a3 = a3 <u a1\n 34759: a4 = u64 [sp + 0x58]\n 34762: a3 = 0 if a4 != 0\n 34764: a3 = 0 if a2 != 0\n 34766: u8 [a0 + 0x10] = t0\n 34769: u8 [a0 + 0x8] = s0\n 34772: u8 [a0] = s1\n 34774: u8 [a0 + 0x18] = a5\n 34777: jump @446 if a3 == 0\n      : @438 (gas: 9)\n 34781: a0 = u64 [sp + 0x38]\n 34784: a3 = u64 [sp + 0x30]\n 34787: a0 = a0 | a3\n 34790: a3 = u64 [sp + 0x28]\n 34793: a1 = a3 <u a1\n 34796: a3 = u64 [sp + 0x40]\n 34799: a1 = 0 if a3 != 0\n 34801: a1 = 0 if a0 != 0\n 34803: jump @446 if a1 == 0\n      : @439 (gas: 15)\n 34807: a1 = reverse s1\n 34809: a3 = reverse s0\n 34811: a4 = reverse t0\n 34813: s1 = reverse a5\n 34815: a0 = s1 | a3\n 34818: u64 [sp + 0x40] = a1\n 34821: u64 [sp + 0x30] = a4\n 34824: a1 = a1 | a4\n 34827: a0 = a0 | a1\n 34830: a0 = a0 >> 0x20\n 34833: u64 [sp + 0x38] = a3\n 34836: a1 = a1 | a3\n 34839: a1 = a1 << 0x20\n 34842: a0 = a0 | a1\n 34845: jump @446 if a0 != 0\n      : @440 (gas: 8)\n 34849: a0 = u64 [sp]\n 34851: i32 a0 = a0 + 0x20\n 34854: a1 = u64 [sp + 0x10]\n 34857: i32 a1 = a1 + 0x20\n 34860: u64 [sp + 0x28] = a1\n 34863: i32 s0 = s1 + 0\n 34865: a1 = s0\n 34867: ra = 290, jump @0\n      : @441 [@dyn 145] (gas: 4)\n 34874: u64 [sp + 0x20] = a0\n 34877: a0 = u64 [sp + 0x28]\n 34880: a1 = s0\n 34882: ra = 292, jump @0\n      : @442 [@dyn 146] (gas: 4)\n 34889: a1 = a0\n 34891: a0 = u64 [sp + 0x20]\n 34894: a2 = s1\n 34896: ra = 294, jump @8\n      : @443 [@dyn 147] (gas: 28)\n 34903: a0 = u64 [sp + 0x50]\n 34906: a0 = a0 + s1\n 34909: u64 [sp + 0x28] = s1\n 34912: a1 = a0 <u s1\n 34915: a2 = u64 [sp + 0x58]\n 34918: a4 = u64 [sp + 0x30]\n 34921: a2 = a2 + a4\n 34924: a2 = a2 + a1\n 34927: a3 = a2 ^ a4\n 34930: a4 = a2 <u a4\n 34933: a4 = a1 if a3 == 0\n 34936: s1 = u64 [sp + 0x48]\n 34939: a5 = u64 [sp + 0x38]\n 34942: a1 = a5 + s1\n 34945: a4 = a4 + a1\n 34948: a3 = a4 <u a1\n 34951: a1 = a1 <u a5\n 34954: a5 = u64 [sp + 0x60]\n 34957: s0 = u64 [sp + 0x40]\n 34960: a5 = a5 + s0\n 34963: a1 = a1 + a5\n 34966: a1 = a1 + a3\n 34969: a1 = a1 | a4\n 34972: a3 = 0xffffffe0\n 34982: a3 = a0 <u a3\n 34985: a3 = 0 if a2 != 0\n 34987: a3 = 0 if a1 != 0\n 34989: jump @446 if a3 == 0\n      : @444 (gas: 3)\n 34993: i32 a0 = a0 + 0x20\n 34996: a1 = 0x20\n 34999: ra = 296, jump @0\n      : @445 [@dyn 148] (gas: 65)\n 35006: u8 [a0 + 31] = 0\n 35009: u8 [a0 + 30] = 0\n 35012: u8 [a0 + 29] = 0\n 35015: u8 [a0 + 28] = 0\n 35018: u8 [a0 + 27] = 0\n 35021: u8 [a0 + 26] = 0\n 35024: u8 [a0 + 25] = 0\n 35027: u8 [a0 + 24] = 0\n 35030: u8 [a0 + 23] = 0\n 35033: u8 [a0 + 22] = 0\n 35036: u8 [a0 + 21] = 0\n 35039: u8 [a0 + 20] = 0\n 35042: u8 [a0 + 19] = 0\n 35045: u8 [a0 + 18] = 0\n 35048: u8 [a0 + 17] = 0\n 35051: u8 [a0 + 16] = 0\n 35054: u8 [a0 + 15] = 0\n 35057: u8 [a0 + 14] = 0\n 35060: u8 [a0 + 13] = 0\n 35063: u8 [a0 + 12] = 0\n 35066: u8 [a0 + 11] = 0\n 35069: u8 [a0 + 10] = 0\n 35072: u8 [a0 + 9] = 0\n 35075: u8 [a0 + 8] = 0\n 35078: u8 [a0 + 7] = 0\n 35081: u8 [a0 + 6] = 0\n 35084: u8 [a0 + 5] = 0\n 35087: u8 [a0 + 4] = 0\n 35090: u8 [a0 + 3] = 0\n 35093: u8 [a0 + 2] = 0\n 35096: u8 [a0 + 1] = 0\n 35099: u8 [a0 + 0] = 0\n 35101: a0 = u64 [sp + 0x28]\n 35104: a0 = a0 + 0x1f\n 35107: s0 = 0x1ffffffe0\n 35117: a0 = a0 & s0\n 35120: a1 = u64 [sp + 0x50]\n 35123: a0 = a0 + a1\n 35126: a1 = a0 <u a1\n 35129: a3 = u64 [sp + 0x58]\n 35132: a2 = a3 + a1\n 35135: a3 = a2 <u a3\n 35138: a3 = a1 if a1 == 0\n 35141: a3 = a3 + s1\n 35144: a1 = a3 <u s1\n 35147: a4 = u64 [sp + 0x60]\n 35150: a1 = a1 + a4\n 35153: a4 = a0 + 0x20\n 35156: a0 = a4 <u a0\n 35159: a5 = a2 + a0\n 35162: a2 = a5 <u a2\n 35165: a2 = a0 if a0 == 0\n 35168: a2 = a2 + a3\n 35171: a0 = a2 <u a3\n 35174: a0 = a0 + a1\n 35177: a1 = u64 [sp + 0x8]\n 35180: u64 [a1] = a4\n 35182: u64 [a1 + 0x8] = a5\n 35185: u64 [a1 + 0x10] = a2\n 35188: u64 [a1 + 0x18] = a0\n 35191: ra = u64 [sp + 0x78]\n 35194: s0 = u64 [sp + 0x70]\n 35197: s1 = u64 [sp + 0x68]\n 35200: sp = sp + 0x80\n 35204: ret\n      : @446 (gas: 1)\n 35206: trap\n      : @447 (gas: 23)\n 35207: sp = sp + 0xfffffffffffffe80\n 35211: u64 [sp + 0x178] = ra\n 35215: u64 [sp + 0x170] = s0\n 35219: u64 [sp + 0x168] = s1\n 35223: s0 = sp + 0x180\n 35227: sp = sp & 0xfffffffffffffff0\n 35230: t1 = u64 [a1 + 0x10]\n 35233: t0 = u64 [a1 + 0x18]\n 35236: s1 = u64 [a1 + 0x8]\n 35239: a1 = u64 [a1]\n 35241: u64 [sp + 0xf0] = s1\n 35245: u64 [sp + 0xd0] = t0\n 35249: t0 = s1 | t0\n 35252: u64 [sp + 0xf8] = a1\n 35256: s1 = a1 | t1\n 35259: s1 = s1 | t0\n 35262: s1 = s1 >> 0x20\n 35265: u64 [sp + 0xd8] = t1\n 35269: a1 = t0 | t1\n 35272: a1 = a1 << 0x20\n 35275: a1 = a1 | s1\n 35278: u64 [sp + 0x40] = a0\n 35281: jump @463 if a1 != 0\n      : @448 (gas: 62)\n 35285: a0 = u64 [s0 + 0x10]\n 35288: a1 = u64 [a0 + 0x18]\n 35291: u64 [sp + 0x18] = a1\n 35294: a1 = u64 [s0 + 0x8]\n 35297: s1 = u64 [a0 + 0x10]\n 35300: u64 [sp] = s1\n 35302: s1 = u64 [a0 + 0x8]\n 35305: u64 [sp + 0x8] = s1\n 35308: a0 = u64 [a0]\n 35310: u64 [sp + 0x10] = a0\n 35313: a0 = u64 [a1 + 0x18]\n 35316: u64 [sp + 0x38] = a0\n 35319: a0 = u64 [s0]\n 35321: s1 = u64 [a1 + 0x10]\n 35324: u64 [sp + 0x20] = s1\n 35327: s1 = u64 [a1 + 0x8]\n 35330: u64 [sp + 0x28] = s1\n 35333: a1 = u64 [a1]\n 35335: u64 [sp + 0x30] = a1\n 35338: a1 = u64 [a0 + 0x18]\n 35341: u64 [sp + 0x48] = a1\n 35344: a1 = u64 [a0 + 0x10]\n 35347: u64 [sp + 0x50] = a1\n 35350: a1 = u64 [a0 + 0x8]\n 35353: u64 [sp + 0x58] = a1\n 35356: a0 = u64 [a0]\n 35358: u64 [sp + 0x60] = a0\n 35361: a0 = u64 [a5 + 0x18]\n 35364: u64 [sp + 0x68] = a0\n 35367: a0 = u64 [a5 + 0x10]\n 35370: u64 [sp + 0x70] = a0\n 35373: a0 = u64 [a5 + 0x8]\n 35376: u64 [sp + 0x78] = a0\n 35379: a0 = u64 [a5]\n 35381: u64 [sp + 0x80] = a0\n 35385: a0 = u64 [a4 + 0x18]\n 35388: u64 [sp + 0x88] = a0\n 35392: a0 = u64 [a4 + 0x10]\n 35395: u64 [sp + 0x90] = a0\n 35399: a0 = u64 [a4 + 0x8]\n 35402: u64 [sp + 0x98] = a0\n 35406: a0 = u64 [a4]\n 35408: u64 [sp + 0xa0] = a0\n 35412: a0 = u64 [a3 + 0x18]\n 35415: u64 [sp + 0xb0] = a0\n 35419: a0 = u64 [a3 + 0x10]\n 35422: u64 [sp + 0xb8] = a0\n 35426: a0 = u64 [a3 + 0x8]\n 35429: u64 [sp + 0xc0] = a0\n 35433: a0 = u64 [a2 + 0x10]\n 35436: a1 = u64 [a3]\n 35438: u64 [sp + 0xa8] = a1\n 35442: a1 = u64 [a2 + 0x8]\n 35445: u64 [sp + 0xc8] = a1\n 35449: a1 = u64 [a2]\n 35451: u64 [sp + 0xe0] = a1\n 35455: a0 = a0 << 0x20\n 35458: s1 = a0 >> 0x20\n 35461: a0 = i32 [sp + 0xf8]\n 35465: a1 = 0x20\n 35468: u64 [sp + 0xe8] = a0\n 35472: ra = 298, jump @0\n      : @449 [@dyn 149] (gas: 68)\n 35479: a1 = reverse s1\n 35481: a2 = u64 [sp + 0xc8]\n 35485: a2 = reverse a2\n 35487: a3 = u64 [sp + 0xe0]\n 35491: a3 = reverse a3\n 35493: a4 = a3 >> 0x38\n 35496: u8 [a0 + 0x1f] = a4\n 35499: a4 = a3 >> 0x30\n 35502: u8 [a0 + 0x1e] = a4\n 35505: a4 = a3 >> 0x28\n 35508: u8 [a0 + 0x1d] = a4\n 35511: a4 = a3 >> 0x20\n 35514: u8 [a0 + 0x1c] = a4\n 35517: a4 = a3 >> 0x18\n 35520: u8 [a0 + 0x1b] = a4\n 35523: a4 = a3 >> 0x10\n 35526: u8 [a0 + 0x1a] = a4\n 35529: a4 = a3 >> 0x8\n 35532: u8 [a0 + 0x19] = a4\n 35535: u8 [a0 + 0x18] = a3\n 35538: u8 [a0 + 0x10] = a2\n 35541: u8 [a0 + 11] = 0\n 35544: u8 [a0 + 10] = 0\n 35547: u8 [a0 + 9] = 0\n 35550: u8 [a0 + 7] = 0\n 35553: u8 [a0 + 6] = 0\n 35556: u8 [a0 + 5] = 0\n 35559: u8 [a0 + 4] = 0\n 35562: u8 [a0 + 3] = 0\n 35565: u8 [a0 + 2] = 0\n 35568: u8 [a0 + 1] = 0\n 35571: u8 [a0 + 0] = 0\n 35573: a3 = a2 >> 0x38\n 35576: u8 [a0 + 0x17] = a3\n 35579: a3 = a2 >> 0x30\n 35582: u8 [a0 + 0x16] = a3\n 35585: a3 = a2 >> 0x28\n 35588: u8 [a0 + 0x15] = a3\n 35591: a3 = a2 >> 0x20\n 35594: u8 [a0 + 0x14] = a3\n 35597: a3 = a2 >> 0x18\n 35600: u8 [a0 + 0x13] = a3\n 35603: a3 = a2 >> 0x10\n 35606: u8 [a0 + 0x12] = a3\n 35609: a2 = a2 >> 0x8\n 35612: u8 [a0 + 0x11] = a2\n 35615: u8 [a0 + 0x8] = a1\n 35618: a2 = a1 >> 0x38\n 35621: u8 [a0 + 0xf] = a2\n 35624: a2 = a1 >> 0x30\n 35627: u8 [a0 + 0xe] = a2\n 35630: a2 = a1 >> 0x28\n 35633: u8 [a0 + 0xd] = a2\n 35636: a1 = a1 >> 0x20\n 35639: a2 = u64 [sp + 0xd8]\n 35643: a4 = u64 [sp + 0xd0]\n 35647: a4 = a4 | a2\n 35650: a2 = 0x100000000\n 35660: u64 [sp + 0xc8] = a2\n 35664: a2 = 0xffffffe0\n 35674: a3 = u64 [sp + 0xf8]\n 35678: a2 = a3 <u a2\n 35681: a3 = u64 [sp + 0xf0]\n 35685: a2 = 0 if a3 != 0\n 35687: u64 [sp + 0xe0] = a4\n 35691: a2 = 0 if a4 != 0\n 35693: u8 [a0 + 0xc] = a1\n 35696: jump @463 if a2 == 0\n      : @450 (gas: 4)\n 35700: a0 = u64 [sp + 0xe8]\n 35704: i32 a0 = a0 + 0x20\n 35707: a1 = 0x20\n 35710: ra = 300, jump @0\n      : @451 [@dyn 150] (gas: 60)\n 35717: u8 [a0 + 31] = 0xe0\n 35722: u8 [a0 + 30] = 0\n 35725: u8 [a0 + 29] = 0\n 35728: u8 [a0 + 28] = 0\n 35731: u8 [a0 + 27] = 0\n 35734: u8 [a0 + 26] = 0\n 35737: u8 [a0 + 25] = 0\n 35740: u8 [a0 + 24] = 0\n 35743: u8 [a0 + 23] = 0\n 35746: u8 [a0 + 22] = 0\n 35749: u8 [a0 + 21] = 0\n 35752: u8 [a0 + 20] = 0\n 35755: u8 [a0 + 19] = 0\n 35758: u8 [a0 + 18] = 0\n 35761: u8 [a0 + 17] = 0\n 35764: u8 [a0 + 16] = 0\n 35767: u8 [a0 + 15] = 0\n 35770: u8 [a0 + 14] = 0\n 35773: u8 [a0 + 13] = 0\n 35776: u8 [a0 + 12] = 0\n 35779: u8 [a0 + 11] = 0\n 35782: u8 [a0 + 10] = 0\n 35785: u8 [a0 + 9] = 0\n 35788: u8 [a0 + 8] = 0\n 35791: u8 [a0 + 7] = 0\n 35794: u8 [a0 + 6] = 0\n 35797: u8 [a0 + 5] = 0\n 35800: u8 [a0 + 4] = 0\n 35803: u8 [a0 + 3] = 0\n 35806: u8 [a0 + 2] = 0\n 35809: u8 [a0 + 1] = 0\n 35812: u8 [a0 + 0] = 0\n 35814: a1 = u64 [sp + 0xf8]\n 35818: a0 = a1 + 0xe0\n 35822: a1 = a0 <u a1\n 35825: s1 = u64 [sp + 0xf0]\n 35829: a2 = s1 + a1\n 35832: a3 = a2 <u s1\n 35835: a3 = a1 if a1 == 0\n 35838: a1 = u64 [sp + 0xd8]\n 35842: a3 = a3 + a1\n 35845: a1 = a3 <u a1\n 35848: a4 = u64 [sp + 0xd0]\n 35852: a4 = a4 + a1\n 35855: u64 [sp + 0x108] = a2\n 35859: u64 [sp + 0x100] = a0\n 35863: a0 = u64 [sp + 0xb0]\n 35867: u64 [sp + 0x138] = a0\n 35871: a0 = u64 [sp + 0xb8]\n 35875: u64 [sp + 0x130] = a0\n 35879: a0 = u64 [sp + 0xc0]\n 35883: u64 [sp + 0x128] = a0\n 35887: a0 = u64 [sp + 0xa8]\n 35891: u64 [sp + 0x120] = a0\n 35895: u64 [sp + 0x110] = a3\n 35899: a0 = sp + 0x140\n 35903: a1 = sp + 0x120\n 35907: a2 = sp + 0x100\n 35911: u64 [sp + 0x118] = a4\n 35915: ra = 302, jump @433\n      : @452 [@dyn 151] (gas: 8)\n 35921: a0 = u64 [sp + 0xc8]\n 35925: a0 = a0 + 0xffffffffffffffc0\n 35928: a1 = u64 [sp + 0xf8]\n 35932: a0 = a1 <u a0\n 35935: a0 = 0 if s1 != 0\n 35937: a1 = u64 [sp + 0xe0]\n 35941: a0 = 0 if a1 != 0\n 35943: jump @463 if a0 == 0\n      : @453 (gas: 12)\n 35947: a0 = u64 [sp + 0x158]\n 35951: u64 [sp + 0xd0] = a0\n 35955: a0 = u64 [sp + 0x150]\n 35959: u64 [sp + 0xd8] = a0\n 35963: a0 = u64 [sp + 0x148]\n 35967: u64 [sp + 0xc8] = a0\n 35971: a0 = u64 [sp + 0x140]\n 35975: u64 [sp + 0xc0] = a0\n 35979: a0 = u64 [sp + 0xe8]\n 35983: i32 a0 = a0 + 0x40\n 35986: a1 = 0x20\n 35989: ra = 304, jump @0\n      : @454 [@dyn 152] (gas: 77)\n 35996: a1 = u64 [sp + 0x88]\n 36000: a1 = reverse a1\n 36002: a2 = u64 [sp + 0x90]\n 36006: a2 = reverse a2\n 36008: a3 = u64 [sp + 0x98]\n 36012: a3 = reverse a3\n 36014: a4 = u64 [sp + 0xa0]\n 36018: a4 = reverse a4\n 36020: a5 = a4 >> 0x38\n 36023: u8 [a0 + 0x1f] = a5\n 36026: a5 = a4 >> 0x30\n 36029: u8 [a0 + 0x1e] = a5\n 36032: a5 = a4 >> 0x28\n 36035: u8 [a0 + 0x1d] = a5\n 36038: a5 = a4 >> 0x20\n 36041: u8 [a0 + 0x1c] = a5\n 36044: a5 = a4 >> 0x18\n 36047: u8 [a0 + 0x1b] = a5\n 36050: a5 = a4 >> 0x10\n 36053: u8 [a0 + 0x1a] = a5\n 36056: a5 = a4 >> 0x8\n 36059: u8 [a0 + 0x19] = a5\n 36062: u8 [a0 + 0x18] = a4\n 36065: u8 [a0 + 0x10] = a3\n 36068: a4 = a3 >> 0x38\n 36071: u8 [a0 + 0x17] = a4\n 36074: a4 = a3 >> 0x30\n 36077: u8 [a0 + 0x16] = a4\n 36080: a4 = a3 >> 0x28\n 36083: u8 [a0 + 0x15] = a4\n 36086: a4 = a3 >> 0x20\n 36089: u8 [a0 + 0x14] = a4\n 36092: a4 = a3 >> 0x18\n 36095: u8 [a0 + 0x13] = a4\n 36098: a4 = a3 >> 0x10\n 36101: u8 [a0 + 0x12] = a4\n 36104: a3 = a3 >> 0x8\n 36107: u8 [a0 + 0x11] = a3\n 36110: u8 [a0 + 0x8] = a2\n 36113: a3 = a2 >> 0x38\n 36116: u8 [a0 + 0xf] = a3\n 36119: a3 = a2 >> 0x30\n 36122: u8 [a0 + 0xe] = a3\n 36125: a3 = a2 >> 0x28\n 36128: u8 [a0 + 0xd] = a3\n 36131: a3 = a2 >> 0x20\n 36134: u8 [a0 + 0xc] = a3\n 36137: a3 = a2 >> 0x18\n 36140: u8 [a0 + 0xb] = a3\n 36143: a3 = a2 >> 0x10\n 36146: u8 [a0 + 0xa] = a3\n 36149: a2 = a2 >> 0x8\n 36152: u8 [a0 + 0x9] = a2\n 36155: u8 [a0] = a1\n 36157: a2 = a1 >> 0x38\n 36160: u8 [a0 + 0x7] = a2\n 36163: a2 = a1 >> 0x30\n 36166: u8 [a0 + 0x6] = a2\n 36169: a2 = a1 >> 0x28\n 36172: u8 [a0 + 0x5] = a2\n 36175: a2 = a1 >> 0x20\n 36178: u8 [a0 + 0x4] = a2\n 36181: a2 = a1 >> 0x18\n 36184: u8 [a0 + 0x3] = a2\n 36187: a2 = a1 >> 0x10\n 36190: u8 [a0 + 0x2] = a2\n 36193: a1 = a1 >> 0x8\n 36196: s1 = 0x100000000\n 36206: a2 = 0xffffffa0\n 36216: a3 = u64 [sp + 0xf8]\n 36220: a2 = a3 <u a2\n 36223: a3 = u64 [sp + 0xf0]\n 36227: a2 = 0 if a3 != 0\n 36229: a3 = u64 [sp + 0xe0]\n 36233: a2 = 0 if a3 != 0\n 36235: u8 [a0 + 0x1] = a1\n 36238: jump @463 if a2 == 0\n      : @455 (gas: 4)\n 36242: a0 = u64 [sp + 0xe8]\n 36246: i32 a0 = a0 + 0x60\n 36249: a1 = 0x20\n 36252: ra = 306, jump @0\n      : @456 [@dyn 153] (gas: 76)\n 36259: a1 = u64 [sp + 0x68]\n 36262: a1 = reverse a1\n 36264: a2 = u64 [sp + 0x70]\n 36267: a2 = reverse a2\n 36269: a3 = u64 [sp + 0x78]\n 36272: a3 = reverse a3\n 36274: a4 = u64 [sp + 0x80]\n 36278: a4 = reverse a4\n 36280: a5 = a4 >> 0x38\n 36283: u8 [a0 + 0x1f] = a5\n 36286: a5 = a4 >> 0x30\n 36289: u8 [a0 + 0x1e] = a5\n 36292: a5 = a4 >> 0x28\n 36295: u8 [a0 + 0x1d] = a5\n 36298: a5 = a4 >> 0x20\n 36301: u8 [a0 + 0x1c] = a5\n 36304: a5 = a4 >> 0x18\n 36307: u8 [a0 + 0x1b] = a5\n 36310: a5 = a4 >> 0x10\n 36313: u8 [a0 + 0x1a] = a5\n 36316: a5 = a4 >> 0x8\n 36319: u8 [a0 + 0x19] = a5\n 36322: u8 [a0 + 0x18] = a4\n 36325: u8 [a0 + 0x10] = a3\n 36328: a4 = a3 >> 0x38\n 36331: u8 [a0 + 0x17] = a4\n 36334: a4 = a3 >> 0x30\n 36337: u8 [a0 + 0x16] = a4\n 36340: a4 = a3 >> 0x28\n 36343: u8 [a0 + 0x15] = a4\n 36346: a4 = a3 >> 0x20\n 36349: u8 [a0 + 0x14] = a4\n 36352: a4 = a3 >> 0x18\n 36355: u8 [a0 + 0x13] = a4\n 36358: a4 = a3 >> 0x10\n 36361: u8 [a0 + 0x12] = a4\n 36364: a3 = a3 >> 0x8\n 36367: u8 [a0 + 0x11] = a3\n 36370: u8 [a0 + 0x8] = a2\n 36373: a3 = a2 >> 0x38\n 36376: u8 [a0 + 0xf] = a3\n 36379: a3 = a2 >> 0x30\n 36382: u8 [a0 + 0xe] = a3\n 36385: a3 = a2 >> 0x28\n 36388: u8 [a0 + 0xd] = a3\n 36391: a3 = a2 >> 0x20\n 36394: u8 [a0 + 0xc] = a3\n 36397: a3 = a2 >> 0x18\n 36400: u8 [a0 + 0xb] = a3\n 36403: a3 = a2 >> 0x10\n 36406: u8 [a0 + 0xa] = a3\n 36409: a2 = a2 >> 0x8\n 36412: u8 [a0 + 0x9] = a2\n 36415: u8 [a0] = a1\n 36417: a2 = a1 >> 0x38\n 36420: u8 [a0 + 0x7] = a2\n 36423: a2 = a1 >> 0x30\n 36426: u8 [a0 + 0x6] = a2\n 36429: a2 = a1 >> 0x28\n 36432: u8 [a0 + 0x5] = a2\n 36435: a2 = a1 >> 0x20\n 36438: u8 [a0 + 0x4] = a2\n 36441: a2 = a1 >> 0x18\n 36444: u8 [a0 + 0x3] = a2\n 36447: a2 = a1 >> 0x10\n 36450: u8 [a0 + 0x2] = a2\n 36453: a1 = a1 >> 0x8\n 36456: a2 = s1 + 0xffffffffffffff80\n 36459: a3 = u64 [sp + 0xf8]\n 36463: a2 = a3 <u a2\n 36466: a3 = u64 [sp + 0xf0]\n 36470: a2 = 0 if a3 != 0\n 36472: a3 = u64 [sp + 0xe0]\n 36476: a2 = 0 if a3 != 0\n 36478: u8 [a0 + 0x1] = a1\n 36481: jump @463 if a2 == 0\n      : @457 (gas: 4)\n 36485: a0 = u64 [sp + 0xe8]\n 36489: i32 a0 = a0 + 0x80\n 36493: a1 = 0x20\n 36496: ra = 308, jump @0\n      : @458 [@dyn 154] (gas: 77)\n 36503: a1 = u64 [sp + 0x48]\n 36506: a1 = reverse a1\n 36508: a2 = u64 [sp + 0x50]\n 36511: a2 = reverse a2\n 36513: a3 = u64 [sp + 0x58]\n 36516: a3 = reverse a3\n 36518: a4 = u64 [sp + 0x60]\n 36521: a4 = reverse a4\n 36523: a5 = a4 >> 0x38\n 36526: u8 [a0 + 0x1f] = a5\n 36529: a5 = a4 >> 0x30\n 36532: u8 [a0 + 0x1e] = a5\n 36535: a5 = a4 >> 0x28\n 36538: u8 [a0 + 0x1d] = a5\n 36541: a5 = a4 >> 0x20\n 36544: u8 [a0 + 0x1c] = a5\n 36547: a5 = a4 >> 0x18\n 36550: u8 [a0 + 0x1b] = a5\n 36553: a5 = a4 >> 0x10\n 36556: u8 [a0 + 0x1a] = a5\n 36559: a5 = a4 >> 0x8\n 36562: u8 [a0 + 0x19] = a5\n 36565: u8 [a0 + 0x18] = a4\n 36568: u8 [a0 + 0x10] = a3\n 36571: a4 = a3 >> 0x38\n 36574: u8 [a0 + 0x17] = a4\n 36577: a4 = a3 >> 0x30\n 36580: u8 [a0 + 0x16] = a4\n 36583: a4 = a3 >> 0x28\n 36586: u8 [a0 + 0x15] = a4\n 36589: a4 = a3 >> 0x20\n 36592: u8 [a0 + 0x14] = a4\n 36595: a4 = a3 >> 0x18\n 36598: u8 [a0 + 0x13] = a4\n 36601: a4 = a3 >> 0x10\n 36604: u8 [a0 + 0x12] = a4\n 36607: a3 = a3 >> 0x8\n 36610: u8 [a0 + 0x11] = a3\n 36613: u8 [a0 + 0x8] = a2\n 36616: a3 = a2 >> 0x38\n 36619: u8 [a0 + 0xf] = a3\n 36622: a3 = a2 >> 0x30\n 36625: u8 [a0 + 0xe] = a3\n 36628: a3 = a2 >> 0x28\n 36631: u8 [a0 + 0xd] = a3\n 36634: a3 = a2 >> 0x20\n 36637: u8 [a0 + 0xc] = a3\n 36640: a3 = a2 >> 0x18\n 36643: u8 [a0 + 0xb] = a3\n 36646: a3 = a2 >> 0x10\n 36649: u8 [a0 + 0xa] = a3\n 36652: a2 = a2 >> 0x8\n 36655: u8 [a0 + 0x9] = a2\n 36658: u8 [a0] = a1\n 36660: a2 = a1 >> 0x38\n 36663: u8 [a0 + 0x7] = a2\n 36666: a2 = a1 >> 0x30\n 36669: u8 [a0 + 0x6] = a2\n 36672: a2 = a1 >> 0x28\n 36675: u8 [a0 + 0x5] = a2\n 36678: a2 = a1 >> 0x20\n 36681: u8 [a0 + 0x4] = a2\n 36684: a2 = a1 >> 0x18\n 36687: u8 [a0 + 0x3] = a2\n 36690: a2 = a1 >> 0x10\n 36693: u8 [a0 + 0x2] = a2\n 36696: a1 = a1 >> 0x8\n 36699: s1 = 0x100000000\n 36709: a2 = 0xffffff60\n 36719: a3 = u64 [sp + 0xf8]\n 36723: a2 = a3 <u a2\n 36726: a3 = u64 [sp + 0xf0]\n 36730: a2 = 0 if a3 != 0\n 36732: a3 = u64 [sp + 0xe0]\n 36736: a2 = 0 if a3 != 0\n 36738: u8 [a0 + 0x1] = a1\n 36741: jump @463 if a2 == 0\n      : @459 (gas: 4)\n 36745: a0 = u64 [sp + 0xe8]\n 36749: i32 a0 = a0 + 0xa0\n 36753: a1 = 0x20\n 36756: ra = 310, jump @0\n      : @460 [@dyn 155] (gas: 76)\n 36763: a1 = u64 [sp + 0x38]\n 36766: a1 = reverse a1\n 36768: a2 = u64 [sp + 0x20]\n 36771: a2 = reverse a2\n 36773: a3 = u64 [sp + 0x28]\n 36776: a3 = reverse a3\n 36778: a4 = u64 [sp + 0x30]\n 36781: a4 = reverse a4\n 36783: a5 = a4 >> 0x38\n 36786: u8 [a0 + 0x1f] = a5\n 36789: a5 = a4 >> 0x30\n 36792: u8 [a0 + 0x1e] = a5\n 36795: a5 = a4 >> 0x28\n 36798: u8 [a0 + 0x1d] = a5\n 36801: a5 = a4 >> 0x20\n 36804: u8 [a0 + 0x1c] = a5\n 36807: a5 = a4 >> 0x18\n 36810: u8 [a0 + 0x1b] = a5\n 36813: a5 = a4 >> 0x10\n 36816: u8 [a0 + 0x1a] = a5\n 36819: a5 = a4 >> 0x8\n 36822: u8 [a0 + 0x19] = a5\n 36825: u8 [a0 + 0x18] = a4\n 36828: u8 [a0 + 0x10] = a3\n 36831: a4 = a3 >> 0x38\n 36834: u8 [a0 + 0x17] = a4\n 36837: a4 = a3 >> 0x30\n 36840: u8 [a0 + 0x16] = a4\n 36843: a4 = a3 >> 0x28\n 36846: u8 [a0 + 0x15] = a4\n 36849: a4 = a3 >> 0x20\n 36852: u8 [a0 + 0x14] = a4\n 36855: a4 = a3 >> 0x18\n 36858: u8 [a0 + 0x13] = a4\n 36861: a4 = a3 >> 0x10\n 36864: u8 [a0 + 0x12] = a4\n 36867: a3 = a3 >> 0x8\n 36870: u8 [a0 + 0x11] = a3\n 36873: u8 [a0 + 0x8] = a2\n 36876: a3 = a2 >> 0x38\n 36879: u8 [a0 + 0xf] = a3\n 36882: a3 = a2 >> 0x30\n 36885: u8 [a0 + 0xe] = a3\n 36888: a3 = a2 >> 0x28\n 36891: u8 [a0 + 0xd] = a3\n 36894: a3 = a2 >> 0x20\n 36897: u8 [a0 + 0xc] = a3\n 36900: a3 = a2 >> 0x18\n 36903: u8 [a0 + 0xb] = a3\n 36906: a3 = a2 >> 0x10\n 36909: u8 [a0 + 0xa] = a3\n 36912: a2 = a2 >> 0x8\n 36915: u8 [a0 + 0x9] = a2\n 36918: u8 [a0] = a1\n 36920: a2 = a1 >> 0x38\n 36923: u8 [a0 + 0x7] = a2\n 36926: a2 = a1 >> 0x30\n 36929: u8 [a0 + 0x6] = a2\n 36932: a2 = a1 >> 0x28\n 36935: u8 [a0 + 0x5] = a2\n 36938: a2 = a1 >> 0x20\n 36941: u8 [a0 + 0x4] = a2\n 36944: a2 = a1 >> 0x18\n 36947: u8 [a0 + 0x3] = a2\n 36950: a2 = a1 >> 0x10\n 36953: u8 [a0 + 0x2] = a2\n 36956: a1 = a1 >> 0x8\n 36959: a2 = s1 + 0xffffffffffffff40\n 36963: a3 = u64 [sp + 0xf8]\n 36967: a2 = a3 <u a2\n 36970: a3 = u64 [sp + 0xf0]\n 36974: a2 = 0 if a3 != 0\n 36976: a3 = u64 [sp + 0xe0]\n 36980: a2 = 0 if a3 != 0\n 36982: u8 [a0 + 0x1] = a1\n 36985: jump @463 if a2 == 0\n      : @461 (gas: 4)\n 36989: a0 = u64 [sp + 0xe8]\n 36993: i32 a0 = a0 + 0xc0\n 36997: a1 = 0x20\n 37000: ra = 312, jump @0\n      : @462 [@dyn 156] (gas: 83)\n 37007: a1 = u64 [sp + 0x18]\n 37010: a1 = reverse a1\n 37012: a2 = u64 [sp]\n 37014: a2 = reverse a2\n 37016: a3 = u64 [sp + 0x8]\n 37019: a3 = reverse a3\n 37021: a4 = u64 [sp + 0x10]\n 37024: a4 = reverse a4\n 37026: a5 = a4 >> 0x38\n 37029: u8 [a0 + 0x1f] = a5\n 37032: a5 = a4 >> 0x30\n 37035: u8 [a0 + 0x1e] = a5\n 37038: a5 = a4 >> 0x28\n 37041: u8 [a0 + 0x1d] = a5\n 37044: a5 = a4 >> 0x20\n 37047: u8 [a0 + 0x1c] = a5\n 37050: a5 = a4 >> 0x18\n 37053: u8 [a0 + 0x1b] = a5\n 37056: a5 = a4 >> 0x10\n 37059: u8 [a0 + 0x1a] = a5\n 37062: a5 = a4 >> 0x8\n 37065: u8 [a0 + 0x19] = a5\n 37068: u8 [a0 + 0x18] = a4\n 37071: u8 [a0 + 0x10] = a3\n 37074: a4 = a3 >> 0x38\n 37077: u8 [a0 + 0x17] = a4\n 37080: a4 = a3 >> 0x30\n 37083: u8 [a0 + 0x16] = a4\n 37086: a4 = a3 >> 0x28\n 37089: u8 [a0 + 0x15] = a4\n 37092: a4 = a3 >> 0x20\n 37095: u8 [a0 + 0x14] = a4\n 37098: a4 = a3 >> 0x18\n 37101: u8 [a0 + 0x13] = a4\n 37104: a4 = a3 >> 0x10\n 37107: u8 [a0 + 0x12] = a4\n 37110: a3 = a3 >> 0x8\n 37113: u8 [a0 + 0x11] = a3\n 37116: u8 [a0 + 0x8] = a2\n 37119: a3 = a2 >> 0x38\n 37122: u8 [a0 + 0xf] = a3\n 37125: a3 = a2 >> 0x30\n 37128: u8 [a0 + 0xe] = a3\n 37131: a3 = a2 >> 0x28\n 37134: u8 [a0 + 0xd] = a3\n 37137: a3 = a2 >> 0x20\n 37140: u8 [a0 + 0xc] = a3\n 37143: a3 = a2 >> 0x18\n 37146: u8 [a0 + 0xb] = a3\n 37149: a3 = a2 >> 0x10\n 37152: u8 [a0 + 0xa] = a3\n 37155: a2 = a2 >> 0x8\n 37158: u8 [a0 + 0x9] = a2\n 37161: u8 [a0] = a1\n 37163: a2 = a1 >> 0x38\n 37166: u8 [a0 + 0x7] = a2\n 37169: a2 = a1 >> 0x30\n 37172: u8 [a0 + 0x6] = a2\n 37175: a2 = a1 >> 0x28\n 37178: u8 [a0 + 0x5] = a2\n 37181: a2 = a1 >> 0x20\n 37184: u8 [a0 + 0x4] = a2\n 37187: a2 = a1 >> 0x18\n 37190: u8 [a0 + 0x3] = a2\n 37193: a2 = a1 >> 0x10\n 37196: u8 [a0 + 0x2] = a2\n 37199: a1 = a1 >> 0x8\n 37202: u8 [a0 + 0x1] = a1\n 37205: a0 = u64 [sp + 0x40]\n 37208: a1 = u64 [sp + 0xc0]\n 37212: u64 [a0] = a1\n 37214: a1 = u64 [sp + 0xd0]\n 37218: u64 [a0 + 0x18] = a1\n 37221: a1 = u64 [sp + 0xc8]\n 37225: u64 [a0 + 0x8] = a1\n 37228: a1 = u64 [sp + 0xd8]\n 37232: u64 [a0 + 0x10] = a1\n 37235: sp = s0 + 0xfffffffffffffe80\n 37239: ra = u64 [sp + 0x178]\n 37243: s0 = u64 [sp + 0x170]\n 37247: s1 = u64 [sp + 0x168]\n 37251: sp = sp + 0x180\n 37255: ret\n      : @463 (gas: 1)\n 37257: trap\n      : @464 (gas: 12)\n 37258: sp = sp + 0xffffffffffffffd0\n 37261: u64 [sp + 0x28] = ra\n 37264: u64 [sp + 0x20] = s0\n 37267: u64 [sp + 0x18] = s1\n 37270: a1 = u64 [a0 + 0x10]\n 37273: a2 = u64 [a0 + 0x18]\n 37276: a3 = u64 [a0 + 0x8]\n 37279: a0 = u64 [a0]\n 37281: a2 = a2 | a3\n 37284: a0 = a0 | a1\n 37287: a0 = a0 | a2\n 37290: jump @466 if a0 == 0\n      : @465 (gas: 5)\n 37293: ra = u64 [sp + 0x28]\n 37296: s0 = u64 [sp + 0x20]\n 37299: s1 = u64 [sp + 0x18]\n 37302: sp = sp + 0x30\n 37305: ret\n      : @466 (gas: 3)\n 37307: a0 = 0x40\n 37310: a1 = 0x20\n 37313: ra = 314, jump @0\n      : @467 [@dyn 157] (gas: 102)\n 37320: a1 = u8 [a0 + 0x11]\n 37323: a2 = u8 [a0 + 0x10]\n 37326: a3 = u8 [a0 + 0x12]\n 37329: a4 = u8 [a0 + 0x13]\n 37332: a1 = a1 << 0x8\n 37335: a1 = a1 | a2\n 37338: a3 = a3 << 0x10\n 37341: a4 = a4 << 0x18\n 37344: a3 = a3 | a4\n 37347: a1 = a1 | a3\n 37350: a2 = u8 [a0 + 0x15]\n 37353: a3 = u8 [a0 + 0x14]\n 37356: a4 = u8 [a0 + 0x16]\n 37359: a5 = u8 [a0 + 0x17]\n 37362: a2 = a2 << 0x8\n 37365: a2 = a2 | a3\n 37368: a4 = a4 << 0x10\n 37371: a5 = a5 << 0x18\n 37374: a4 = a4 | a5\n 37377: a2 = a2 | a4\n 37380: a2 = a2 << 0x20\n 37383: a1 = a1 | a2\n 37386: a2 = u8 [a0 + 0x1]\n 37389: a3 = u8 [a0]\n 37391: a4 = u8 [a0 + 0x2]\n 37394: a5 = u8 [a0 + 0x3]\n 37397: a2 = a2 << 0x8\n 37400: a2 = a2 | a3\n 37403: a4 = a4 << 0x10\n 37406: a5 = a5 << 0x18\n 37409: a4 = a4 | a5\n 37412: a2 = a2 | a4\n 37415: a3 = u8 [a0 + 0x5]\n 37418: a4 = u8 [a0 + 0x4]\n 37421: a5 = u8 [a0 + 0x6]\n 37424: s1 = u8 [a0 + 0x7]\n 37427: a3 = a3 << 0x8\n 37430: a3 = a3 | a4\n 37433: a5 = a5 << 0x10\n 37436: s1 = s1 << 0x18\n 37439: a5 = a5 | s1\n 37442: a3 = a3 | a5\n 37445: a3 = a3 << 0x20\n 37448: a2 = a2 | a3\n 37451: a3 = u8 [a0 + 0x19]\n 37454: a4 = u8 [a0 + 0x18]\n 37457: a5 = u8 [a0 + 0x1a]\n 37460: s1 = u8 [a0 + 0x1b]\n 37463: a3 = a3 << 0x8\n 37466: a3 = a3 | a4\n 37469: a5 = a5 << 0x10\n 37472: s1 = s1 << 0x18\n 37475: a5 = a5 | s1\n 37478: a3 = a3 | a5\n 37481: a4 = u8 [a0 + 0x1d]\n 37484: a5 = u8 [a0 + 0x1c]\n 37487: s1 = u8 [a0 + 0x1e]\n 37490: s0 = u8 [a0 + 0x1f]\n 37493: a4 = a4 << 0x8\n 37496: a4 = a4 | a5\n 37499: s1 = s1 << 0x10\n 37502: s0 = s0 << 0x18\n 37505: s0 = s0 | s1\n 37508: a4 = a4 | s0\n 37511: a4 = a4 << 0x20\n 37514: a3 = a3 | a4\n 37517: a4 = u8 [a0 + 0x9]\n 37520: a5 = u8 [a0 + 0x8]\n 37523: s1 = u8 [a0 + 0xa]\n 37526: s0 = u8 [a0 + 0xb]\n 37529: a4 = a4 << 0x8\n 37532: a4 = a4 | a5\n 37535: s1 = s1 << 0x10\n 37538: s0 = s0 << 0x18\n 37541: s0 = s0 | s1\n 37544: a4 = a4 | s0\n 37547: a5 = u8 [a0 + 0xd]\n 37550: s1 = u8 [a0 + 0xc]\n 37553: s0 = u8 [a0 + 0xe]\n 37556: a0 = u8 [a0 + 0xf]\n 37559: a5 = a5 << 0x8\n 37562: a5 = a5 | s1\n 37565: s0 = s0 << 0x10\n 37568: a0 = a0 << 0x18\n 37571: a0 = a0 | s0\n 37574: a0 = a0 | a5\n 37577: a0 = a0 << 0x20\n 37580: a0 = a0 | a4\n 37583: s0 = reverse a0\n 37585: a3 = reverse a3\n 37587: s1 = reverse a2\n 37589: a0 = reverse a1\n 37591: u64 [sp + 0x8] = a0\n 37594: a0 = a0 | s1\n 37597: u64 [sp + 0x10] = a3\n 37600: a1 = a3 | s0\n 37603: a1 = a1 | a0\n 37606: a1 = a1 >> 0x20\n 37609: a0 = a0 | s0\n 37612: a0 = a0 << 0x20\n 37615: a0 = a0 | a1\n 37618: jump @474 if a0 != 0\n      : @468 (gas: 4)\n 37622: a0 = i32 [sp + 0x10]\n 37625: a1 = 0x20\n 37628: u64 [sp] = a0\n 37630: ra = 316, jump @0\n      : @469 [@dyn 158] (gas: 41)\n 37637: u8 [a0 + 31] = 0\n 37640: u8 [a0 + 30] = 0\n 37643: u8 [a0 + 29] = 0\n 37646: u8 [a0 + 28] = 0\n 37649: u8 [a0 + 27] = 0\n 37652: u8 [a0 + 26] = 0\n 37655: u8 [a0 + 25] = 0\n 37658: u8 [a0 + 24] = 0\n 37661: u8 [a0 + 23] = 0\n 37664: u8 [a0 + 22] = 0\n 37667: u8 [a0 + 21] = 0\n 37670: u8 [a0 + 20] = 0\n 37673: u8 [a0 + 19] = 0\n 37676: u8 [a0 + 18] = 0\n 37679: u8 [a0 + 17] = 0\n 37682: u8 [a0 + 16] = 0\n 37685: u8 [a0 + 15] = 0\n 37688: u8 [a0 + 14] = 0\n 37691: u8 [a0 + 13] = 0\n 37694: u8 [a0 + 12] = 0\n 37697: u8 [a0 + 11] = 0\n 37700: u8 [a0 + 10] = 0\n 37703: u8 [a0 + 9] = 0\n 37706: u8 [a0 + 8] = 0\n 37709: u8 [a0 + 7] = 0\n 37712: u8 [a0 + 6] = 0\n 37715: u8 [a0 + 5] = 0\n 37718: u8 [a0 + 3] = 0xa0\n 37723: u8 [a0 + 2] = 0x79\n 37727: u8 [a0 + 1] = 0xc3\n 37732: u8 [a0 + 0] = 0x8\n 37735: s1 = s1 | s0\n 37738: s0 = 0x100000000\n 37748: a1 = 0xfffffffc\n 37758: a2 = u64 [sp + 0x10]\n 37761: a1 = a2 <u a1\n 37764: a2 = u64 [sp + 0x8]\n 37767: a1 = 0 if a2 != 0\n 37769: a1 = 0 if s1 != 0\n 37771: u8 [a0 + 4] = 0\n 37774: jump @474 if a1 == 0\n      : @470 (gas: 4)\n 37778: a0 = u64 [sp]\n 37780: i32 a0 = a0 + 0x4\n 37783: a1 = 0x20\n 37786: ra = 318, jump @0\n      : @471 [@dyn 159] (gas: 39)\n 37793: u8 [a0 + 31] = 0x20\n 37797: u8 [a0 + 30] = 0\n 37800: u8 [a0 + 29] = 0\n 37803: u8 [a0 + 28] = 0\n 37806: u8 [a0 + 27] = 0\n 37809: u8 [a0 + 26] = 0\n 37812: u8 [a0 + 25] = 0\n 37815: u8 [a0 + 24] = 0\n 37818: u8 [a0 + 23] = 0\n 37821: u8 [a0 + 22] = 0\n 37824: u8 [a0 + 21] = 0\n 37827: u8 [a0 + 20] = 0\n 37830: u8 [a0 + 19] = 0\n 37833: u8 [a0 + 18] = 0\n 37836: u8 [a0 + 17] = 0\n 37839: u8 [a0 + 16] = 0\n 37842: u8 [a0 + 15] = 0\n 37845: u8 [a0 + 14] = 0\n 37848: u8 [a0 + 13] = 0\n 37851: u8 [a0 + 12] = 0\n 37854: u8 [a0 + 11] = 0\n 37857: u8 [a0 + 10] = 0\n 37860: u8 [a0 + 9] = 0\n 37863: u8 [a0 + 8] = 0\n 37866: u8 [a0 + 7] = 0\n 37869: u8 [a0 + 6] = 0\n 37872: u8 [a0 + 5] = 0\n 37875: u8 [a0 + 4] = 0\n 37878: u8 [a0 + 3] = 0\n 37881: u8 [a0 + 2] = 0\n 37884: u8 [a0 + 1] = 0\n 37887: a1 = s0 + 0xffffffffffffffdc\n 37890: a2 = u64 [sp + 0x10]\n 37893: a1 = a2 <u a1\n 37896: a2 = u64 [sp + 0x8]\n 37899: a1 = 0 if a2 != 0\n 37901: a1 = 0 if s1 != 0\n 37903: u8 [a0 + 0] = 0\n 37905: jump @474 if a1 == 0\n      : @472 (gas: 4)\n 37909: a0 = u64 [sp]\n 37911: i32 a0 = a0 + 0x24\n 37914: a1 = 0x20\n 37917: ra = 320, jump @0\n      : @473 [@dyn 160] (gas: 39)\n 37924: u8 [a0 + 31] = 0x14\n 37928: u8 [a0 + 30] = 0\n 37931: u8 [a0 + 29] = 0\n 37934: u8 [a0 + 28] = 0\n 37937: u8 [a0 + 27] = 0\n 37940: u8 [a0 + 26] = 0\n 37943: u8 [a0 + 25] = 0\n 37946: u8 [a0 + 24] = 0\n 37949: u8 [a0 + 23] = 0\n 37952: u8 [a0 + 22] = 0\n 37955: u8 [a0 + 21] = 0\n 37958: u8 [a0 + 20] = 0\n 37961: u8 [a0 + 19] = 0\n 37964: u8 [a0 + 18] = 0\n 37967: u8 [a0 + 17] = 0\n 37970: u8 [a0 + 16] = 0\n 37973: u8 [a0 + 15] = 0\n 37976: u8 [a0 + 14] = 0\n 37979: u8 [a0 + 13] = 0\n 37982: u8 [a0 + 12] = 0\n 37985: u8 [a0 + 11] = 0\n 37988: u8 [a0 + 10] = 0\n 37991: u8 [a0 + 9] = 0\n 37994: u8 [a0 + 8] = 0\n 37997: u8 [a0 + 7] = 0\n 38000: u8 [a0 + 6] = 0\n 38003: u8 [a0 + 5] = 0\n 38006: u8 [a0 + 4] = 0\n 38009: u8 [a0 + 3] = 0\n 38012: u8 [a0 + 2] = 0\n 38015: u8 [a0 + 1] = 0\n 38018: a1 = 0xffffffbc\n 38028: a2 = u64 [sp + 0x10]\n 38031: a1 = a2 <u a1\n 38034: a2 = u64 [sp + 0x8]\n 38037: a1 = 0 if a2 != 0\n 38039: a1 = 0 if s1 != 0\n 38041: u8 [a0 + 0] = 0\n 38043: jump @475 if a1 != 0\n      : @474 (gas: 1)\n 38046: trap\n      : @475 (gas: 4)\n 38047: s0 = u64 [sp]\n 38049: i32 a0 = s0 + 0x44\n 38052: a1 = 0x20\n 38055: ra = 322, jump @0\n      : @476 [@dyn 161] (gas: 38)\n 38062: u8 [a0 + 31] = 0\n 38065: u8 [a0 + 30] = 0\n 38068: u8 [a0 + 29] = 0\n 38071: u8 [a0 + 28] = 0\n 38074: u8 [a0 + 27] = 0\n 38077: u8 [a0 + 26] = 0\n 38080: u8 [a0 + 25] = 0\n 38083: u8 [a0 + 24] = 0\n 38086: u8 [a0 + 23] = 0\n 38089: u8 [a0 + 22] = 0\n 38092: u8 [a0 + 21] = 0\n 38095: u8 [a0 + 20] = 0\n 38098: u8 [a0 + 19] = 0x74\n 38102: u8 [a0 + 18] = 0x73\n 38106: u8 [a0 + 17] = 0x69\n 38110: u8 [a0 + 16] = 0x78\n 38114: u8 [a0 + 15] = 0x65\n 38118: s1 = 0x20\n 38121: u8 [a0 + 0xe] = s1\n 38124: u8 [a0 + 13] = 0x74\n 38128: a4 = 0x6f\n 38131: u8 [a0 + 0xc] = a4\n 38134: a5 = 0x6e\n 38137: u8 [a0 + 0xb] = a5\n 38140: u8 [a0 + 0xa] = s1\n 38143: u8 [a0 + 9] = 0x73\n 38147: u8 [a0 + 8] = 0x65\n 38151: u8 [a0 + 0x7] = a4\n 38154: u8 [a0 + 6] = 0x64\n 38158: u8 [a0 + 0x5] = s1\n 38161: u8 [a0 + 4] = 0x74\n 38165: u8 [a0 + 0x3] = a5\n 38168: u8 [a0 + 2] = 0x65\n 38172: u8 [a0 + 1] = 0x76\n 38176: u8 [a0 + 0] = 0x45\n 38179: a1 = 0x64\n 38182: a0 = s0\n 38184: ra = 324, jump @0\n      : @477 [@dyn 162] (gas: 6)\n 38191: i32 a1 = a0 + 0\n 38193: a0 = 0x1\n 38196: a2 = 0x64\n 38199: ra = 0x146\n 38203: ecalli 13 // 'seal_return'\n 38205: fallthrough\n      : @478 [@dyn 163] (gas: 16)\n 38206: a2 = u64 [a1]\n 38208: t0 = u64 [a1 + 0x18]\n 38211: a3 = u64 [a1 + 0x8]\n 38214: a5 = u64 [a1 + 0x10]\n 38217: a4 = a2 + 0x1\n 38220: a2 = a4 <u 0x1\n 38223: a2 = a2 + a3\n 38226: a3 = a4 | a2\n 38229: a3 = a3 <u 0x1\n 38232: a3 = a3 + a5\n 38235: a5 = a3 <u a5\n 38238: a5 = a5 + t0\n 38241: t0 = a2 | a5\n 38244: a1 = a4 | a3\n 38247: a1 = a1 | t0\n 38250: jump @480 if a1 == 0\n      : @479 (gas: 5)\n 38253: u64 [a0] = a4\n 38255: u64 [a0 + 0x8] = a2\n 38258: u64 [a0 + 0x10] = a3\n 38261: u64 [a0 + 0x18] = a5\n 38264: ret\n      : @480 (gas: 13)\n 38266: sp = sp + 0xffffffffffffffb0\n 38269: u64 [sp + 0x48] = ra\n 38272: u64 [sp + 0x40] = s0\n 38275: s0 = sp + 0x50\n 38278: sp = sp & 0xfffffffffffffff0\n 38281: u64 [sp + 48] = 0\n 38284: u64 [sp + 40] = 0\n 38287: u64 [sp + 32] = 0\n 38290: a0 = 0x4e487b7100000000\n 38300: a1 = sp + 0x20\n 38303: u64 [sp + 0x38] = a0\n 38306: a0 = 0\n 38308: ra = 328, jump @23\n      : @481 [@dyn 164] (gas: 7)\n 38315: u64 [sp + 24] = 0\n 38318: u64 [sp + 16] = 0\n 38321: u64 [sp + 0] = 0x11\n 38324: a0 = 0x4\n 38327: a1 = sp\n 38329: u64 [sp + 8] = 0\n 38332: ra = 330, jump @23\n      : @482 [@dyn 165] (gas: 3)\n 38339: a1 = 0x24\n 38342: a0 = 0\n 38344: ra = 332, jump @0\n      : @483 [@dyn 166] (gas: 7)\n 38351: i32 a1 = a0 + 0\n 38353: a0 = 0x1\n 38356: a2 = 0x24\n 38359: ecalli 13 // 'seal_return'\n 38361: a0 = 0\n 38363: ra = 0x14e\n 38367: jump @29\n      : @484 [export #0: 'call'] (gas: 2)\n 38371: a0 = 0\n 38373: ra = 334, jump @29\n      : @485 [@dyn 167] [export #1: 'deploy'] (gas: 2)\n 38380: a0 = 0x1\n 38383: ra = 336, jump @29\n      : @486 [@dyn 168] (gas: 1)\n 38390: trap\n",
				"bytecode": {
					"object": "50564d0000b1ab000000000000010700c17000c0004003602dd6bbd6f93fa8b601e536b36e5d30961bcafc24b51723e42a819591bed5e95a4341f691b3093d91ca8e7efd12935d219d9c7846c60160a0ad4fc35b51dc0921958886be139c81c0de96ebac0ee493eb5c4e401dfa4264979a488c5ab64bf1550481101100000000070000000b0000001900000027000000350000003b000000480000005300000062000000650000007200000082000000920000009d000000af000000ba00000062616c616e636563616c6c63616c6c5f646174615f636f707963616c6c5f646174615f6c6f616463616c6c5f646174615f73697a6563616c6c65726465706f7369745f6576656e746765745f73746f72616765686173685f6b656363616b5f3235366e6f777265665f74696d655f6c65667472657475726e5f646174615f636f707972657475726e5f646174615f73697a657365616c5f72657475726e7365745f696d6d757461626c655f646174617365745f73746f7261676576616c75655f7472616e73666572726564051302c0e3950463616c6cc0ec95066465706c6f7906c00caa80a802c0f795d6001502d80279037e03a0033404f4041a0526054e05dd06b3071d087b085109260ab90afb0b430d890e0e1046111d125a1364133a14a4147d18b018121b081d151d211e671fd020fd2196239a245026c626242813295d2a0d2b9c2b3c2ce82c3e2e482e1e2f882fee349b35f036c2376c385539bb3bf13c613e6a3e033fda3f454033414b448b464647f848fb49c04a064b4d4cfc4c8a4d1b4e974eae4ef54fa4503251d1517c52f05233536a533d54a8541a559b5547579b571558e158635b2f5cb25e48619565486c766ce76c0b6d566e266f846f90708b718a726274a37436751776227653768076b176cf76da7646770178187823783278f378ea79037a0e7a1d7a607a557d6a7e4d7f24809881b683dd84248543854f855e85c08500873a8849885788be88978a858b518c9c8ca38d978e9b8f8f90c8910593a1932494ae942f953e95ab95c395cf95ec95f6958b791052093b3309010001ae9833c8780883881f8488e0553801000128390a600002ae8a123d086000023308700002c8870732003308700002c8870732000000aa876e978a2098aa20977b2098bb20c89b0bc9ba0a979b019abbaeab20ae873751094ec87909647a017c8b95880195ac0178ab64caab9cf42836510934c87909647a017c8b95880195ac0178ab64caab9cf4281c51091a839aff01c8a80b7cbb9599ffc8a70c78cb83aaff5209f032009511d87b10207b15187b161082897b19088289087b1982851082861883773308205010022fff6f686f59821a6faa821b086fbb787b18787a10787908787898bc38787c1f98bc30787c1e98bc28787c1d98bc20787c1c98bc18787c1b98bc10787c1a98bb08787b1998ab38787b1798ab30787b1698ab28787b1598ab20787b1498ab18787b1398ab10787b1298aa08787a11989a38787a0f989a30787a0e989a28787a0d989a20787a0c989a18787a0b989a10787a0a98990878790998893878790798893078790698892878790598892078790498891878790398891078790298880878780182102082151882161095112832009511a07b10587b15507b16489515608411e06476829718829a10829b0882997b17187b1a107b1b087b194911384911304911284911204811402033078318831a20831b403309ff0a07821738821830821928821a207b67187b68107b69087b6a9551a082105882155082164895116032006f6882196f99821a086faa821b106fbb7b1b587b1a507b19487b18408218186f888219206f99821a286faa821b386fbb7b1b787b1a707b19687b18608379831740330802821a300a06955160ff8210980082159000821688009511a0003200951120ff7b10d8007b15d0007b16c8009515e0008411e082bc7b1c4082bc087b1c4882bc107b1c5082bb187b1b5882ab7b1b1882ab087b1b2082ab107b1b2882aa187b1a308296829a087b1a829a107b1a088299187b1910837783887b18385010062dfd6f687b187882186f887b18708218086f887b18688218106f887b18608218186f887b1898008218206f887b1890008218286f887b1888008218306f887b1880008218406f887b18b8008218486f887b18b0008218506f887b18a8008218586f887b18a0008379831760330803821a380a06955120ff8210d8008215d0008216c8009511e00032009511f07b10087b158475010a04013d076400025105075010080950100aad01951120ff7b10d8007b15d0007b16c8009515e0008411e033074033082050100c65fc46171f800046171e46171d46171c46171b46171a46171946171846171746171646171546171446171346171246171146171046170f46170e46170d46170c46170b46170a46170946170846170746170646170546170446170346170246170146074911384911204911284911308317200a1001821730821838821928821a20d49808d4a707d487075107163307330850100ed1fb837833070133090a0d018317400a058217488118508219406f77977a206f88988820d4a8087b18189877206f96976820d487077b1710986620492198004921900049218800492180004921b8004921b0004921a8004921a0004811602083188000831aa000831b603309ff33070a078017b4009777208218b800d46707492198004921900049218800492180007b18b8007b17b0008217107b17a8008217187b17a00083188000831aa0003309ff330b2033070a0f33078000330850101011fb8377330833090a0201390868000251080d330770000383770a0e01330780003308501012ebfa8378330733093300140a0d01951108f87b10f0077b15e8077b16e0079515f807951178f98411e06416330740330820501016b7fa46171f800046171e46171d46171c46171b46171a46171946171846171746171646171546171446171346171246171146171046170f46170e46170d46170c46170b46170a461709461708461707461703330864000246170246170146077b68d801390864000246170646170546170455180407288e6e95670010837700fb33080a03019567ff07957759018177c40158479fd538ec8e065847ed436347420c5247ee4363470a286d155147b1d243480a284d279517e08477e07b67d0016471491718491710491708490783770a1001826ad00182a71082a81882a90882aad49808d4a707d4870751070628176e8267d801817756174307280a6e95670010837700fc3308240a03019569ff07959959018298b802829ac00214070000000001000000d38707d4a7077b68d8019888208888017b6ad00194a8937852080628e96d8297b0027b67c0018297a8027b67c80195670010837720fc3308040a039567ff07957759018278c8027b68b8018278d0027b68b0018278d8027b68a8018277e0027b67a001330820330750101828f98268a0016f888269a8016f99826ab0016faa826bb8016fbb98bc38787c1f98bc30787c1e98bc28787c1d98bc20787c1c98bc18787c1b98bc10787c1a98bc08787c19787b1898ab38787b1798ab30787b1698ab28787b1598ab20787b1498ab18787b1398ab10787b1298ab08787b11787a10989a38787a0f989a30787a0e989a28787a0d989a20787a0c989a18787a0b989a10787a0a989a08787a09787908988938787907988930787906988928787905988920787904988918787903988910787902988908787901787833072033082050101a52f846171f0246171e46171d46171c46171b46171a46171946171846171746171646171546171446171346171246171146171046170f46170e46170d46170c46170b46170a4617094617084617074617064617054617044617034617024617014607330840330750101ce8f79518e08488e07b68b8016481837783893308400a08826ab80182a782a80882a91082aa186f776f886f996faa95ab077b6bb801d8ab0ac8a90b7b6bb001d89b09daaa09c889097b69a801d88908c887077b67a001330820330750101e8af78268d0016f888269d8016f99826ac0016faa826bc8016fbb98bc38787c1f98bc30787c1e98bc28787c1d98bc20787c1c98bc18787c1b98bc10787c1a98bc08787c19787b1898ab38787b1798ab30787b1698ab28787b1598ab20787b1498ab18787b1398ab10787b1298ab08787b11787a10989a38787a0f989a30787a0e989a28787a0d989a20787a0c989a18787a0b989a10787a0a989a08787a097879089889387879079889307879069889287879059889207879049889187879039889107879029889087879017878330720330820501020b4f68268a0016f888269a8016f99826ab0016faa826bb8016fbb98bc38787c1f98bc30787c1e98bc28787c1d98bc20787c1c98bc18787c1b98bc10787c1a98bc08787c19787b18787a1098ab38787b1798ab30787b1698ab28787b1598ab20787b1498ab18787b1398ab10787b1298aa08787a11787908989a38787a0f989a30787a0e989a28787a0d989a20787a0c989a18787a0b989a10787a0a98990878790978789889387879079889307879069889287879059889207879049889187879039889107879029888087878013308403307501022dff59518e08488e07b68d8016481837783893308400a08826ad80182a71882a81082a90882aa6f776f886f996faa956bff0795bb59017bbac0047bb9b8047bb8b0047bb7a804492be004492bd804492bd004492bc804482be8042095670010837800fe95670010837a20fe95670010837b40fe3309ff33070a079567ff07957759018277c8047b67d8013307403308205010244cf57c78117c79107c7a127c7b13978808d4980897aa1097bb18d4ba0ad4a8087c79157c7a147c7b167c7c17979908d4a90997bb1097cc18d4cb0bd4b909979920d489027c79017c7a7c7b027c7c03979908d4a90997bb1097cc18d4cb0bd4b9097c7a057c7b047c7c067c780797aa08d4ba0a97cc10978818d4c808d4a808978820d498037c78197c7a187c7b1a7c7c1b978808d4a80897bb1097cc18d4cb0bd4b8087c7a1d7c7b1c7c7c1e7c791f97aa08d4ba0a97cc10979918d4c909d4a909979920d4890a7c78097c79087c7b0a7c7c0b978808d4980897bb1097cc18d4cb0bd4b8087c790d7c7b0c7c7c0e7c770f979908d4b90997cc10977718d4c707d49707977720d487076f786fa76f396f2ad4a909d4870ad49a0a98aa20d49808978820d4a80851080628423b7c68d8018e887b68d00183777b67d8013308205010260af48268d00178781f46171e46171d46171c46171b46171a46171946171846171746171646171546171446171346171246171146171046170f46170e46170d46170c46170b46170a46170946170846170746170646170546170446170346170246170146073308208267d8013300302898f35a475b8fe4d9d20251473a909d9fd4025147e06e60ce0a28cd679517e08477e07b67d0016471491718491710491708490783770a1001826ad00182a71082a81882a90882aad49808d4a707d487075107062893678267d80181779569ff079599590156170307287e674929c0044929b8044929b0044929a8044929e0044929d8044929d0044929c8044829e8042095670010837800fe95670010837a20fe95670010837b40fe3309ff33070a079568ff07958859018287d8047b67c8018287d0047b67d0018287c8047b67d801330740330820501028c2f27c78117c79107c7a127c7b13978808d4980897aa1097bb18d4ba0ad4a8087c79157c7a147c7b167c7c17979908d4a90997bb1097cc18d4cb0bd4b909979920d489027c79017c7a7c7b027c7c03979908d4a90997bb1097cc18d4cb0bd4b9097c7a057c7b047c7c067c780797aa08d4ba0a97cc10978818d4c808d4a808978820d498037c78197c7a187c7b1a7c7c1b978808d4a80897bb1097cc18d4cb0bd4b8087c7a1d7c7b1c7c7c1e7c791f97aa08d4ba0a97cc10979918d4c909d4a909979920d4890a7c78097c79087c7b0a7c7c0b978808d4980897bb1097cc18d4cb0bd4b8087c790d7c7b0c7c7c0e7c770f979908d4b90997cc10977718d4c707d49707977720d487076f786fa76f396f2ad4a909d4870ad49a0a98aa20d49808978820d4a80851080628b8388268c8019788209888207b68c00183777b67c80133082050102a7cf18268c0016f888269d0016f99826ad8016faa98ab38787b1f98ab30787b1e98ab28787b1d98ab20787b1c98ab18787b1b98ab10787b1a98ab08787b19787a1878791046170b46170a4617094617074617064617054617044617034617024617014607989a38787a17989a30787a16989a28787a15989a20787a14989a18787a13989a10787a1298990878791178780898893878790f98893078790e98892878790d98882078780c3308208267c80133003028c6f051475c8fe4d90a288f119517e08477e07b67d0016471491718491710491708490783770a1001826ad00182a71082a81882a90882aad49808d4a707d4870751070628d1648267d80181779569ff07959959015617030728bc644929c0044929b8044929b0044929a804014929e0044929d8044929d0044929c8044829e8042095670010837800fe95670010837a20fe95670010837b40fe3309ff33070a079568ff07958859018287e0047b67c0018287d8047b67c8018287d0047b67d0018287c8047b67d80133074033082050102cf7ef7c78117c79107c7a127c7b13978808d4980897aa1097bb18d4ba0ad4a8087c79157c7a147c7b167c7c17979908d4a90997bb1097cc18d4cb0bd4b909979920d489027c79017c7a7c7b027c7c03979908d4a90997bb1097cc18d4cb0bd4b9097c7a057c7b047c7c067c780797aa08d4ba0a97cc10978818d4c808d4a808978820d498037c78197c7a187c7b1a7c7c1b978808d4a80897bb1097cc18d4cb0bd4b8087c7a1d7c7b1c7c7c1e7c791f97aa08d4ba0a97cc10979918d4c909d4a909979920d4890a7c78097c79087c7b0a7c7c0b978808d4980897bb1097cc18d4cb0bd4b8087c790d7c7b0c7c7c0e7c770f979908d4b90997cc10977718d4c707d49707977720d487076f786fa76f396f2ad4a909d4870ad49a0a98aa20d49808978820d4a80851080628ed3583777b67b80133082050102ebfee8268c0016f888269c8016f99826ad0016faa826bd8016fbb98bc38787c1f98bc30787c1e98bc28787c1d98bc20787c1c98bc18787c1b98bc10787c1a98bc08787c19787b18787a1098ab38787b1798ab30787b1698ab28787b1598ab20787b1498ab18787b1398ab10787b1298aa08787a11787908989a38787a0f989a30787a0e989a28787a0d989a20787a0c989a18787a0b989a10787a0a98990878790978789889387879079889307879069889287879059889207879049889187879039889107879029888087878013308208267b801501030e8ed837833092033070a0d015147a0d538ec0a28452c9517e08477e07b67d0016471491718491710491708490783770a1001826ad00182a71082a81882a90882aad49808d4a707d4870751070628e7618267d80181775617230728da61956700108377e0fd3308040a039568ff0795885901828788047b67d801828790047b67c001828798047b67d0018287a0047b67c8014928c0044928b8044928b0044928a804014928e0044928d8044928d0044928c8044828e8042095670010837800fe95670010837a20fe95670010837b40fe3309ff33070a07956bff0795bb590182b7d00482b8c80482b9d80482bae00464b2826cc001d37c0bd87c07826cd801d88c08dbb708826bc801d3ab07d8ab0a826cd001d89c0bdb7a0bd3c909d49707db7b084922a001492298017b2888019567ff079577e10249229001501032357e3308203307501034a1ec8268c8016f888269d0016f99826ac0016faa826bd8016fbb98bc38787c1f98bc30787c1e98bc28787c1d98bc20787c1c98bc18787c1b98bc10787c1a98bc08787c19787b1898ab38787b1798ab30787b1698ab28787b1598ab20787b1498ab18787b1398ab10787b1298ab08787b11787a10989a38787a0f989a30787a0e989a28787a0d989a20787a0c989a18787a0b989a10787a0a989a08787a097879089889387879079889307879069889287879059889207879049889187879039889107879029889087879017878330720330820501036cbeb46171f0246171e46171d46171c46171b46171a46171946171846171746171646171546171446171346171246171146171046170f46170e46170d46170c46170b46170a4617094617084617074617064617054617044617034617024617014607330840330750103861eb9518e08488e07b68d8016481837783893308400a08826ad80182a71882a81082a90882aa6f7c7b6cd0016f8b7b6bc8016f997b69c0016fa77b67d8019568ff07958859017b87c0047b89b8047b8bb0047b8ca8044928e0044928d8044928d0044928c8044828e8042095670010837800fe95670010837a20fe95670010837b40fe3309ff33070a078268d001958702d88708826ac801c88a09d8a90ada880a8268c001c88a0ad88a08826bd801c8b808956bff0795bb59017bb8c0047bbab80482b8c8047b68b8017bb9b00482b8d0047b68b0017bb7a80480b7d8047b67a801492be004492bd804492bd004492bc804482be8042095670010837800fe95670010837a20fe95670010837b40fe3309ff33070a078268d001958703d88708826ac801c88a09d8a90ada880a8268c001c88a0ad88a08826bd801c8b808956bff0795bb59017bb8c00482b8c8047b68a0017bbab80482b8d0047b6898017bb9b00482b8d8047b6890017bb7a80482b7e0047b678801492be004492bd804492bd004492bc804482be8042095670010837800fe95670010837a20fe95670010837b40fe3309ff33070a078268d001958704d88708826ac801c88a09d8a90ada880a8268c001c88a0ad88a08826bd801c8b808956bff0795bb59017bb8c00482b8c8047b6880017bbab80482b8d0047b6878017bb9b00482b8d8047b6870017bb7a80482b7e0047b676801492be004492bd804492bd004492bc804482be8042095670010837800fe95670010837a20fe95670010837b40fe3309ff33070a078268d001958705d88708826ac801c88a09d8a90ada880a8268c001c88a0ad88a08826bd801c8b808956bff0795bb59017bb8c00482b8c8047b6860017bbab80482b8d0047b6858017bb9b00482b8d8047b6850017bb7a80482b7e0047b674801492be004492bd804492bd004492bc804482be8042095670010837800fe95670010837a20fe95670010837b40fe3309ff33070a078268d001958706d88708826ac801c88a09d8a90ada880a8268c001c88a0ad88a08826bd801c8b808956bff0795bb59017bb8c0047bbab80482b8c8047b6840017bb9b00482b8d0047b6838017bb7a80482b7d8047b673001482be8042082b7e0047b672801492be004492bd804492bd004492bc80495670010837800fe95670010837a20fe95670010837b40fe3309ff33070a07956cff0795cc590182c7c8047b67200182c7d0047b67180182c7d8047b67100182c7e0047b6708018269d0019599018897018268c801c88707d47908888801826ac001c8a808d8a80a826bd801c8ba0a7bca60017bc858017bc750019567ff079577c1029568ff079588a1027bc9480150103aa5619568ff0795885901828768017b67d001828770017b67c801828778017b67c001828780017b67000133074033082050103c55e77c78017c797c7a027c7b03978808d4980897aa1097bb18d4ba0ad4a8087c79057c7a047c7b067c7c07979908d4a90997bb1097cc18d4cb0bd4b909979920d489027c79097c7a087c7b0a7c7c0b979908d4a90997bb1097cc18d4cb0bd4b9097c7a0d7c7b0c7c7c0e7c780f97aa08d4ba0a97cc10978818d4c808d4a808978820d498037c78117c7a107c7b127c7c13978808d4a80897bb1097cc18d4cb0bd4b8087c7a157c7b147c7c167c791797aa08d4ba0a97cc10979918d4c909d4a909979920d4890a7c78197c79187c7b1a7c7c1b978808d4980897bb1097cc18d4cb0bd4b8087c791d7c7b1c7c7c1e7c771f979908d4b90997cc10977718d4c707d49707977720d487076f747b64e8006faa7b6af0006f397b69f8006f2b7b6bd8019511e89567ff07957781017b17109567ff079577a1017b17089567ff079577c1017b179567ff0795775901826808017b7840826810017b7838826818017b7830826820017b7828826828017b7860826830017b7858826838017b7850826840017b7848826848017b788000826850017b7878826858017b7870826860017b7868826868017b78a000826870017b789800826878017b789000826880017b788800826888017b78c000826890017b78b800826898017b78b0008268a0017b78a800826800017b78e0008268c0017b78d8008268c8017b78d0008268d0017b78c800492700018268a8017b78f8008268b0017b78f0008268b8017b78e8007b7b20017b7918017b7a100164729567ff07957781029568ff07958861029569ff0795994102956aff0795aa2102956bff0795bb0102956cff0795cce1017b24080150103e7a6e826bf0008269e8009511188267d801d4b707826af800d4a908d47808988820d4a707977720d4870751070628e52b64a29568ff079588590182873001828a40017b6ad00182832801828a3801286f2b9517e08477e07b67d0016471491718491710491708490783770a1001826ad00182a71082a81882a90882aad49808d4a707d4870751070628b7588267d80181779569ff07959959015617030728a2584929c0044929b8044929b0044929a8044929e0044929d8044929d0044929c8044829e8042095670010837800fe95670010837a20fe95670010837b40fe3309ff33070a079568ff07958859018287d0047b67d0018287c8047b67c8018087d8047b67c00195670010837740fb0a05019568ff07958859018287f0018289e801808bf8017b67b0016f779878207b69d8016f99979a20d4a8089777207b6ba8016fba98aa20d4a707989920826ac001d3a909826ac801d3a707d497078269d001d39808d48707510706284a589517e08477e07b67d001647183770a018269d001829810829718829a0882997b67b8017b6ac001d4a7077b68d0017b69c801d49808d487075207062833580a0a7b67a0019568ff07958859018267b0017b8710028267d8017b8708028267a8017a8718028267c0017b8730028267c8017b8728028267d0017b8738028267b8017b87400233073308501040fde27b67d80133073308501042f0e2956aff0795aa5901482a48028269a0018e98fc089a897ba980027ba978027ba970027ba968029569ff0795996103979920989920978823d498029568ff07958881039788209888209569ff079599c103979920d4890a826bd80197bb2098bb209777209877209568ff079588a103978820d4780c3308ff3309ff64270a017b67d8010a0c018269d80151070628822951090628532d9568ff07958859014928c0044928b8044928b0044928a8044928e0044928d8044928d0044928c8044828e8042095670010837800fe95670010837a20fe95670010837b40fe3309ff33070a079568ff07958859018287d8047b67a8018287d0047b67b0018287c8047b67d801330740330820501044e4e17c78117c79107c7a127c7b13978808d4980897aa1097bb18d4ba0ad4a8087c79157c7a147c7b167c7c17979908d4a90997bb1097cc18d4cb0bd4b909979920d489027c79017c7a7c7b027c7c03979908d4a90997bb1097cc18d4cb0bd4b9097c7a057c7b047c7c067c780797aa08d4ba0a97cc10978818d4c808d4a808978820d498037c78197c7a187c7b1a7c7c1b978808d4a80897bb1097cc18d4cb0bd4b8087c7a1d7c7b1c7c7c1e7c791f97aa08d4ba0a97cc10979918d4c909d4a909979920d4890a7c78097c79087c7b0a7c7c0b978808d4980897bb1097cc18d4cb0bd4b8087c790d7c7b0c7c7c0e7c770f979908d4b90997cc10977718d4c707d49707977720d487076f776faa6f386f29d49808d47a09d48909989920d48707977720d4970751070628da278267a8019777209877207b67a00183a73308207b6aa8015010469ee08268b8016f888269d0016f99826ac0016faa826bc8016fbb98bc38787c1f98bc30787c1e98bc28787c1d98bc20787c1c98bc18787c1b98bc10787c1a98bc08787c19787b18787a1098ab38787b1798ab30787b1698ab28787b1598ab20787b1498ab18787b1398ab10787b1298aa08787a11787908989a38787a0f989a30787a0e989a28787a0d989a20787a0c989a18787a0b989a10787a0a9899087879097878988938787907988930787906988928787905988920787904988918787903988910787902988808787801492678038267a0017b6770038267b0017b6768033a074000023a084800023a09500002826ad8017b6a60037b6798037b6890037b6988033a0758000295698003956a60037b6780038267a801330048951160ff7b1098007b1590007b1688009515a0008411e082ab7b1b3882ab087b1b2882ab107b1b2082aa187b1a18829a7b1a10829a087b1a08829a107b1a82961883773308207b18303300042833df28911d5147c9f3f3db0a2875539517e08477e07b67d0016471491718491710491708490783770a1001826ad00182a71082a81882a90882aad49808d4a707d48707510706283b538267d80181775627a30008282d5395670010837700fd3308040a03019569ff0795995901829cc003829ab803829bb003d4ca0788b80194785208062822538298a8038267d8018072958723d88709c89b047b6b5801d8b40bda990bc8ab0b7b6a6001d8ab097b6c6801c8c909d4b909d827079447949752070628ca527b68780183880495670010837720fd0a0301956aff0795aa590182a7e00382a8d80382a9d0037b67d0017b687001d48707889801947852080628445382a8c80395871f7b68c001d887087b69c801c898088488017b68b8018477e07b67b00133074033082050104a08de7c78197c79187c7a1a7c7b1b978808d4980897aa1097bb18d4ba0ad4a8087c791d7c7a1c7c7b1e7c7c1f979908d4a90997bb1097cc18d4cb0bd4b909979920d489027c79117c7a107c7b127c7c13979908d4a90997bb1097cc18d4cb0bd4b9097c7a157c7b147c7c167c781797aa08d4ba0a97cc10978818d4c808d4a808978820d498037c78097c7a087c7b0a7c7c0b978808d4a80897bb1097cc18d4cb0bd4b8087c7a0d7c7b0c7c7c0e7c790f97aa08d4ba0a97cc10979918d4c909d4a909979920d4890a7c78017c797c7b027c7c03978808d4980897bb1097cc18d4cb0bd4b8087c79057c7b047c7c067c7707979908d4b90997cc10977718d4c707d49707977720d487076f746fa06f3a6f298268b00195873fd88708826bb801c8b8088477e0c897077b6988017b67b801d89709c8a808c8980bd3ab087b6a8001d8ab07da8907c87002d80208c8840c8e298ecadac90ad4c2097b6bb0018ebbdb9a0b510b06281d51d34c09d84c0adb9a08d3020ad4a909db98075107062805513307403308207b6098017b6490017b62a8017b6ca00150104c6fdc826298018268a0016f888269a8016f99826ab0016faa826bb8016fbb787b1898bc38787c1f98bc30787c1e98bc28787c1d98bc20787c1c98bc18787c1b98bc10787c1a98bb08787b19787a1098ab38787b1798ab30787b1698ab28787b1598ab20787b1498ab18787b1398ab10787b1298aa08787a11787908989a38787a0f989a30787a0e989a28787a0d989a20787a0c989a18787a0b989a10787a0a9899087879097878988938787907988930787906988928787905988920787904988918787903988910787902988808826b8801d42b09826a8001826c9001d4ca0ad4a909989920d42a0a97aa20d4a90978780151090628992283b73308207b67b80150104e6bdb826878018269c001c88909d88908826c5801826ac801c8ca0ac88a0ad3ca0bd8ca0cdab80c8268d0016f83983b18787b03983b10787b02983b08787b018260700182626001c8020bc8bc0cd82b02d8bc04826b6801c88b0bc82b0bc8b404959224d89209c89a0bd8ab0ada990a78738269d8018099c8ca0ad8ca0cc84c0cd8290988b201859401dbb2048262c00188ab0188c901dacb09d4ca0a826cc801dba9046f29989a38787a1f989a30787a1e989a28787a1d989a20787a1c989a18787a1b989a10787a1a989a08787a196fca78791898a93878791798a93078791698a92878791598a92078791498a91878791398a9107879126f09787a1098aa08787a11989a38787a0f989a30787a0e989a28787a0d989a20787a0c989a18787a0b989a10787a0a787908989908787909983938787907983930787906983928787905983820787804520406286c4ed40207826ad001d4ac08d48707987720d40808978820d487078268980182699001510706281821d49807140ae0ffffff0000000082688801d8a808826980019498947852080628f620826778018377247b67b0018267b80183772083287b68a8017b6ad801501050b5d983778268a8018269b0010a0201826c9801826b8001826888018262c001c88202d882088269c801c8b909c88909d3b90ad8b90bdaa80b82687001c8c808d8c80a826c90018267d001c87c0cc8ca0ac88b0bd88b08c8a808d4b808826ad801d8a20a949a948a520a06286a208327203308205010523fd946171f46171e46171d46171c46171b46171a46171946171846171746171646171546171446171346171246171146171046170f46170e46170d46170c46170b46170a461709461708461707461706461705461704461703461702461701460795670010837740fd3308240a039568ff0795885901828700047b67c0008287f8037b67c8008287f0037b67d0008287e8037b67d80095670010837760fd3308440a039568ff0795885901828720047b670001828718047b670801828710047b671001828708047b67180195670010837780fd3308640a039568ff0795885901828740047b674001828738047b674801828730047b675001828728047b675801956700108377a0fd330884000a039568ff0795885901828760047b673801828758047b673001828750047b672801828748047b67200149084918f895670010492748f99567ff07957761019569ff079599410195680010492840f950105485d99569ff07959959018297188298107b68d0018298087b68d8019777209877207b67c801956700108377c0fd0a05019569ff07959959018297700482986804819978046f77987a206f88978b20d4ba0a9777206f99989920d497079888208269c801d398088269d801d39707d487078268d001d3a808d4870751070628464e8267580182682001d8870782695001826a2801d39a08d8a909da8709826b480182673001d87b02826a4001826c3801d3ac08d8ca0ada820ad3b707d48707da790a520a0628bc258267180182680801d4870782681001826a0001d4a808d4870751070628f729330740330820501056f2d67c78117c79107c7a127c7b13978808d4980897aa1097bb18d4ba0ad4a8087c79157c7a147c7b167c7c17979908d4a90997bb1097cc18d4cb0bd4b909979920d489027c79017c7a7c7b027c7c03979908d4a90997bb1097cc18d4cb0bd4b9097c7a057c7b047c7c067c780797aa08d4ba0a97cc10978818d4c808d4a808978820d498037c78197c7a187c7b1a7c7c1b978808d4a80897bb1097cc18d4cb0bd4b8087c7a1d7c7b1c7c7c1e7c791f97aa08d4ba0a97cc10979918d4c909d4a909979920d4890a7c78097c79087c7b0a7c7c0b978808d4980897bb1097cc18d4cb0bd4b8087c790d7c7b0c7c7c0e7c770f979908d4b90997cc10977718d4c707d49707977720d487076f796fa86f3a6f277b67d001d4a7077b68d801d49808d47808988820d49707977720d4870751070628e01c8167d8013308207b67b8017b69c8017b6ac001501058a8d546171f46171e46171d46171c46171b46171a46171946171846171746171646171546171446171346171246171146171046170f46170e46170d46170c46170b46170a461709461708461707461706461705461703a00046170279461701c3004607088268c801826ac001d48a0a140b00000000010000001408fcffffff000000008269d801d889088269d00194987b6ac80194a8461704520806282b1c8267b8018377043308207b6bc00150105af8d446171f2046171e46171d46171c46171b46171a46171946171846171746171646171546171446171346171246171146171046170f46170e46170d46170c46170b46170a4617094617084617074617064617054617044617034617024617018268c0019588dc8269d801d889088269d00194988269c8019498460752080628981b8267b80183772433082050105c69d446171f2146171e46171d46171c46171b46171a46171946171846171746171646171546171446171346171246171146171046170f46170e46170d46170c46170b46170a461709461708461707461706461705461704461703461702461701140800000000010000007b68c0011408bcffffff000000008269d801d889088269d00194988269c8019498460752080628f81a8267b80183774433082050105ec9d3330c20787c1f46171e6e46171d6146171c6846171b74787c1a46171972461718654617177446171661461715654617147246171367787c124617116546171062787c0f46170e7446170d7346170c7546170b6d787c0a461709794617086c330b70787b07787b064617057546170473787c0346170278461701618269c00195999c826ad801d89a09826ad00194a9826ac80194a946074d520906284c1a8267b8018377643308205010601dd346171f46171e46171d46171c46171b46171a46171946171846171746171646171546171446171346171246171146171046170f46170e46170d46170c46170b46170a461709461708461707461706461705461704461703461702461701460730289a255147ca74dd670a28fd468267d80181775617230728f04695670010837740fc3308040a039568ff0795885901828700037b67a0018287f8027b67a8018287f0027b67b0018287e8027b67b8014928c0044928b8044928b0044928a804014928e0044928d8044928d0044928c8044828e8042095670010837800fe95670010837a20fe95670010837b40fe3309ff33070a07956aff0795aa590182a7d00482a8c80482a9d80482aae004826cb001d37c0bd87c07826cb801d88c08dbb708826ba001d3ab07d8ab0a826ca801d89c0bdb7a0bd3c909d49707db7b0849265805492650057b684005956740054926480550106251633308203307501064bdd18268a0016f888269a8016f99826ab0016faa826bb8016fbb98bc38787c1f98bc30787c1e98bc28787c1d98bc20787c1c98bc18787c1b98bc10787c1a98bc08787c19787b1898ab38787b1798ab30787b1698ab28787b1598ab20787b1498ab18787b1398ab10787b1298ab08787b11787a10989a38787a0f989a30787a0e989a28787a0d989a20787a0c989a18787a0b989a10787a0a989a08787a097879089889387879079889307879069889287879059889207879049889187879039889107879029889087879017878330720330820501066e7d046171f0246171e46171d46171c46171b46171a46171946171846171746171646171546171446171346171246171146171046170f46170e46170d46170c46170b46170a461709461708461707461706461705461704461703461702461701460733084033075010687dd09518e08488e07b68d8016481837783893308400a08826ad80182a782a80882a91082aa186f726f8c6f996fa89587057b68c001d88708c8890b7b69c801d89b0ada880ac8ca0a7b6cd001d8ca087b62d801c828089569ff07959959017b97a8047b9bb0047b9ab8047b98c0044929e0044929d8044929d0044929c8044829e8042095670010837800fe95670010837a20fe95670010837b40fe3309ff33070a079568ff07958859018287c8047b6798018287d0047b6790018287d8047b6788018287e0047b67800195670010837760fc0a0901956bff0795bb590182b7200382b3080382b2180382ba100382688001d38709d8870882678801d8720cdb980c82689001d38a04d88a0a82689801d88308db4a08d37207d49707db7c0851080628ae448268c001958706d88708826ac801c88a09d8a90ada880a8268d001c88a0ad88a08826cd801c8c8087bb7a8047bb9b0047bbab8047bb8c004492be004492bd804492bd004492bc804482be8042095670010837800fe95670010837a20fe95670010837b40fe3309ff33070a079567ff07957759018277c8047b6798019567ff07957759018277d0047b6790019567ff07957759018277d8047b6788019567ff07957759018277e0047b67800195670010837780fc0a09019569ff0795995901829740038293280382923803829a300382688001d3870bd8870882678801d8720cdbb80c82689001d38a04d88a0a82689801d88308db4a08d37207d4b707db7c0852080628cf438267c001957a04d87a078268c801c8780bd88b08da77088267d001c87808d87807826cd801c8c7077b6a98017b9aa8047b6b90017b9bb0047b6888017b98b8047b6780017b97c0044929e0044929d8044929d0044929c8044829e8042095670010837800fe95670010837a20fe95670010837b40fe3309ff33070a078268c001958703d88708826ac801c88a09d8a90ada880a8268d001c88a0ad88a08826bd801c8b808956bff0795bb59017bb8c0049568ff07958859018288c8047b6878019568ff07958859017b8ab8049568ff07958859018288d0047b6870019568ff07958859017b89b0049568ff07958859018288d8047b6868019568ff07958859017b87a8049567ff07957759018277e0047b6760019567ff07957759014927e0049567ff07957759014927d8049567ff07957759014927d0049567ff07957759014927c8049567ff07957759014827e8042095670010837800fe95670010837a20fe95670010837b40fe3309ff33070a07019562ff07952259018227e0048223c8048229d804822ad00482686001d3780bd8780882676801d8970cdbb80c82687001d3a804d8a80a82687801d83808db4a08d39707d4b707db7c085208062836428267c001957902d879078268c801c8780ad88a08da77088267d001c87808d87807826bd801c8b7077b6978017b29a8047b6a70017b2ab0047b6868017b28b8047b6760017b27c0044922e0044922d8044922d0044922c8044822e8042095670010837800fe95670010837a20fe95670010837b40fe3309ff33070a079568ff07958859018287c8047b6758018287d8047b6750018287d0047b6748018287e0047b6740019517e08477e07b6738016471491718491710491708490783770a1001826a380182a71882a80882a982aa10826b4001d3b707826b4801d3b808d4870782685001d3a808826a5801d3a909d49808d487075107062863418267c0019578077b685801d878078268c801c878097b69c001d88908da77088267d001c878087b68c801d878078268d801c887077b67d801956700108377a0fc0a059569ff07959959018297500381985803829a48037b6a50016f779779206f88988820d498087b68d0019877206fa8978820d487077b674801330820330750106a17cb826848016f888269d0016f99826b500198ba18787a0f98ba10787a0e98ba08787a0d787b0c46170b46170a4617094617084617074617064617054617044617034617024617014607787918787810989a38787a1f989a30787a1e989a28787a1d989a20787a1c989a18787a1b989a10787a1a98990878791998893878791798893078791698892878791598892078791498891878791398891078791298880878781133072033082050106c6aca8268d8016f888269c8016f99826ac0016faa826b58016fbb98bc387b6c5801787c1f98bc307b6c5001787c1e98bc287b6c4801787c1d98bc207b6c4001787c1c98bc187b6c3801787c1b98bc107b6c3001787c1a98bc087b6c2801787c197b6bc001787b1898ab387b6b2001787b1798ab307b6b1801787b1698ab287b6b1001787b1598ab207b6b0801787b1498ab187b6b0001787b1398ab107b6bf800787b1298ab087b6bf000787b117b6ac801787a10989a387b6ae800787a0f989a307b6ae000787a0e989a287b6ad800787a0d989a207b6ad000787a0c989a187b6ac800787a0b989a107b6ac000787a0a989a087b6ab800787a097b69d0017879089889387b69b0007879079889307b69a8007879069889287b69a0007879059889207b6998007879049889187b6990007879039889107b6988007879029889087b6980007879017b68d8017878330840330750106e15c99518e08488e07b68786481837783893308400a08826a7882a71882a81082a90882aa6f776f886f996faa956bff0795bb59017bbac0047bb9b8047bb8b0047bb7a804492be004492bd804492bd004492bc804482be8042095670010837800fe95670010837a20fe95670010837b40fe3309ff33070a07019567ff07957759017c77c804510706287b3e956700108377c0fc0a059569ff07959959018297700381987803829a68037b6a706f779779206f88988820d498087b68789877206fa8978820d487077b6768330820330750107043c88268686f888269786f99826b7098ba18787a0f98ba10787a0e98ba08787a0d787b0c46170b46170a4617094617084617074617064617054617044617034617024617014607787918787810989a38787a1f989a30787a1e989a28787a1d989a20787a1c989a18787a1b989a10787a1a98990878791998893878791798893078791698892878791598892078791498891878791398891078791298880878781133072033082050107299c78268580178781f8268500178781e8268480178781d8268400178781c8268380178781b8268300178781a826828017878198268c00178781882682001787817826818017878168268100178781582680801787814826800017878138268f8007878128268f0007878118268c8017878108268e80078780f8268e00078780e8268d80078780d8268d00078780c8268c80078780b8268c00078780a8268b8007878098268d0017878088268b0007878078268a8007878068268a000787805826898007878048268900078780382688800787802826880007878018268d80178783308403307501074b0c69518e08488e07b68d8016481837783893308400a08826ad80182a71882a81082a90882aa6f7b7b6bd8016f887b68d0016f997b69c8016faa7b6ac0019567ff07957759017b7ac0047b79b8047b78b0047b7ba8044927e0044927d8044927d0044927c8044827e8042095670010837800fe95670010837a20fe95670010837b40fe3309ff33070a07956bff0795bb590182b7c80482b8d00482b9d80482bae004847700ff867701826cc0017bbcc004826cc8017bbcb804826cd0017bbcb004826cd8017bbca8047bbae0047bb9d8047bb8d0047bb7c80495670010837800fe95670010837a20fe3309ff330b2033070a0f9567ff0795775901826880017b78c004826888017b78b804826890017b78b004826898017b78a8044927e0044927d8044927d0044927c8044827e8042095670010837800fe95670010837a20fe95670010837b40fe3309ff33070a07019562ff07952259018227c804822ae0048228d004822bd804957701887901c89808d48709889901c8b909d8b90bc8ba0ad4a80bd4970cd4cb0b520b06284e3b826b90017b2bb004826b98017b2ba804826b88017b2bb804826b80017b2bc0047b27c8047b28d0047b29d8047b2ae00495670010837800fe95670010837a20fe3309ff330b2033070a0f826760019568ff07958859017b87c004826768017b87b804826770017b87b004826778017b87a8044928e0044928d8044928d0044928c8044828e8042095670010837800fe95670010837a20fe95670010837b40fe3309ff33070a079568ff07958859018287e0047b67c0018287d8047b67c8018287d0047b67d0018287c8047b67d8013307403308205010764ac47c78117c79107c7a127c7b13978808d4980897aa1097bb18d4ba0ad4a8087c79157c7a147c7b167c7c17979908d4a90997bb1097cc18d4cb0bd4b909979920d489027c79017c7a7c7b027c7c03979908d4a90997bb1097cc18d4cb0bd4b9097c7a057c7b047c7c067c780797aa08d4ba0a97cc10978818d4c808d4a808978820d498037c78197c7a187c7b1a7c7c1b978808d4a80897bb1097cc18d4cb0bd4b8087c7a1d7c7b1c7c7c1e7c791f97aa08d4ba0a97cc10979918d4c909d4a909979920d4890a7c78097c79087c7b0a7c7c0b978808d4980897bb1097cc18d4cb0bd4b8087c790d7c7b0c7c7c0e7c770f979908d4b90997cc10977718d4c707d49707977720d487076f776faa6f386f29d49808d47a09d48909989920d48707977720d497075207430a83a73308207b6a980150107814c38268c0016f888269c8016f99826ad0016faa826bd8016fbb98bc38787c1f98bc30787c1e98bc28787c1d98bc20787c1c98bc18787c1b98bc10787c1a98bc08787c19787b18787a1098ab38787b1798ab30787b1698ab28787b1598ab20787b1498ab18787b1398ab10787b1298aa08787a11787908989a38787a0f989a30787a0e989a28787a0d989a20787a0c989a18787a0b989a10787a0a9899087879097878988938787907988930787906988928787905988920787904988918787903988910787902988808787801956700108377e0fc0a059569ff07959959018297900381989803829988036f7a97a7206f88988820d4780298aa206f99979820d4a808989920492678048267a0017b6798048267a8017b6790048267b0017b6788048267b8017b6780043a0a2000023a0b2800023a0c3000023a073800027b6ab8047b6bb0047b6ca8047b67a0047b6970047b6868043308209569a004956a8004956b60047b6260048267980150107a18c43307330850107c9bc18378330733090a0d0151473014790b0a28d5359517e08477e07b67d0016471491718491710491708490783770a1001826ad00182a71082a81882a90882aad49808d4a707d48707510706289b358267d801817756172307288e3595670010837720fb3308040a039567ff07957759018278c8017b68d8018278d0017b68d0018278d8017b68c8018277e0017b67c001330820330750107e02c18268c0016f888269c8016f99826ad0016faa826bd8016fbb98bc38787c1f98bc30787c1e98bc28787c1d98bc20787c1c98bc18787c1b98bc10787c1a98bc08787c19787b1898ab38787b1798ab30787b1698ab28787b1598ab20787b1498ab18787b1398ab10787b1298ab08787b11787a10989a38787a0f989a30787a0e989a28787a0d989a20787a0c989a18787a0b989a10787a0a989a08787a097879089889387879079889307879069889287879059889207879049889187879039889107879029889087879017878330720330820502080002cc046171f0246171e46171d46171c46171b46171a46171946171846171746171646171546171446171346171246171146171046170f46170e46170d46170c46170b46170a4617094617084617074617064617054617044617034617024617014607330840330750208200c1bf9518e08488e07b68d8016481837783893308400a08826ad80182a71882a81082a90882aa6f7c7b6cc8016f8b7b6bd0016f997b69c0016fa77b67d8019568ff07958859017b87c0047b89b8047b8bb0047b8ca8044928e0044928d8044928d0044928c8044828e8042095670010837800fe95670010837a20fe95670010837b40fe3309ff33070a079568ff07958859018287c8047b67b8018287d0047b67b0018087d8047b67a8018269c8019599018897018268d001c88707d47908888801826ac001c8a808d8a80a826bd801c8ba0a7b6a18037b6810037b67080395672003956800037b69000350208400f038826720037b67a001826728037b679801826730037b679001826738037b6788018268c801958702d88708826ad001c88a09d8a90ada880a8268c001c88a0ad88a08826bd801c8b808956bff0795bb59017bb8c0047bbab8047bb9b0047bb7a804492be004492bd804492bd004492bc804482be8042095670010837800fe95670010837a20fe95670010837b40fe3309ff33070a078268c801958703d88708826ad001c88a09d8a90ada880a8268c001c88a0ad88a08826bd801c8b808956bff0795bb59017bb8c00482b8c8047b6880017bbab80482b8d0047b6878017bb9b00482b8d8047b6870017bb7a80482b7e0047b676801492be004492bd804492bd004492bc804482be8042095670010837800fe95670010837a20fe95670010837b40fe3309ff33070a078268c801958704d88708826ad001c88a09d8a90ada880a8268c001c88a0ad88a08826bd801c8b808956bff0795bb59017bb8c00482b8c8047b6860017bbab80482b8d0047b6858017bb9b00482b8d8047b6850017bb7a80482b7e0047b674801492be004492bd804492bd004492bc804482be8042095670010837800fe95670010837a20fe95670010837b40fe3309ff33070a078268c801958705d88708826ad001c88a09d8a90ada880a8268c001c88a0ad88a08826bd801c8b808956bff0795bb59017bb8c00482b8c8047b6840017bbab80482b8d0047b6838017bb9b00482b8d8047b6830017bb7a80482b7e0047b672801492be004492bd804492bd004492bc804482be8042095670010837800fe95670010837a20fe95670010837b40fe3309ff33070a078268c801958706d88708826ad001c88a09d8a90ada880a8268c001c88a0ad88a08826bd801c8b808956bff0795bb59017bb8c0047bbab80482b8c8047b68d0017bb9b00482b8d0047b68c8017bb7a80482b7d8047b67c001482be8042082b7e0047b672001492be004492bd804492bd004492bc80495670010837800fe95670010837a20fe95670010837b40fe3309ff33070a079568ff07958859018287c8047b6718018287d0047b6710018287d8047b6708018287e0047b67000133074033082050208600bbbb7c78017c797c7a027c7b03978808d4980897aa1097bb18d4ba0ad4a8087c79057c7a047c7b067c7c07979908d4a90997bb1097cc18d4cb0bd4b909979920d489027c79097c7a087c7b0a7c7c0b979908d4a90997bb1097cc18d4cb0bd4b9097c7a0d7c7b0c7c7c0e7c780f97aa08d4ba0a97cc10978818d4c808d4a808978820d498037c78117c7a107c7b127c7c13978808d4a80897bb1097cc18d4cb0bd4b8087c7a157c7b147c7c167c791797aa08d4ba0a97cc10979918d4c909d4a909979920d4890a7c78197c79187c7b1a7c7c1b978808d4980897bb1097cc18d4cb0bd4b8087c791d7c7b1c7c7c1e7c771f979908d4b90997cc10977718d4c707d49707977720d487076f747b64e8006fa97b69f0006f387b68f8006f2a7b6ad8019511e89567e0017b1710956700027b1708956720027b17826700017b67f801826708017b67f001826710017b67e801826718017b67e001826720017b6718028267c0017b6710028267c8017b6708028267d0017b670002826728017b673802826730017b673002826738017b672802826740017b672002826748017b675802826750017b675002826758017b674802826760017b674002826768017b677802826770017b677002826778017b676802826780017b676002826788017b679802826790017b679002826798017b6788028267a0017b6780024926b8028267a8017b67b0028267b0017b67a8028267b8017b67a0027b6ad8027b68d0027b69c8029567e0029568c0029569a002956a8002956b6002956c40027b64c002502088000243826bf0008269e8009511188267d801d4b707826af800d4a908d47808988820d4a707977720d4870752076f64a28267e8028268f8027b68d0018263e002826af00201d3b704d8b70cd89300da400cc92a08c9c804d8c8087b68c801d82a0a826cd8018268d001c9c80cc9ac0c8268c801c98c0cc9b707c90707c99308d4c707d4480ad47a0ad4470798aa20977720d4a70752070628532f000a0c95781f7b677001d878077b67a8018488e07b68a00133074033082050208a00c0b87c78117c79107c7a127c7b13978808d4980897aa1097bb18d4ba0ad4a8087c79157c7a147c7b167c7c17979908d4a90997bb1097cc18d4cb0bd4b909979920d489027c79197c7a187c7b1a7c7c1b979908d4a90997bb1097cc18d4cb0bd4b9097c7a1d7c7b1c7c7c1e7c781f97aa08d4ba0a97cc10978818d4c808d4a808978820d498037c78097c7a087c7b0a7c7c0b978808d4a80897bb1097cc18d4cb0bd4b8087c7a0d7c7b0c7c7c0e7c790f97aa08d4ba0a97cc10979918d4c909d4a909979920d4890a7c78017c797c7b027c7c03978808d4980897bb1097cc18d4cb0bd4b8087c79057c7b047c7c067c7707979908d4b90997cc10977718d4c707d49707977720d487076f746fa06f3a6f2b8268a00195873fd887088269a801c898088477e0c8b8097b6ab001c8a702d87207c8790cd38c09d88c08da9708c8800ad80a03c834078ea88e79da78097b6aa8017b67a001d47a088ecadb890a510a0628e62d8267b001d87208d3bc09d8bc0ada980a8267a001d34708d84709db89038269a801d30909d49808da8a0351030628b62d3307403308207b6b98017b6490017b6088017b6280017b6c780150208c000eb782638801826290018268a0016f888269a8016f99826a78016faa826b80016fbb787b1898bc38787c1f98bc30787c1e98bc28787c1d98bc20787c1c98bc18787c1b98bc10787c1a826cb00198bb08787b19787a1098ab38787b1798ab30787b1698ab28787b1598ab20787b1498ab18787b1398ab10787b12826b980198aa08787a11787908989a38787a0f989a30787a0e989a28787a0d989a20787a0c989a18787a0b989a10787a0a9899087879097878988938787907988930787906988928787905988920787904988918787903988910787902988808d43c09d42b0ad4a909989920d43a0a97aa20d4a90978780152093afd83c73308207b67a80150208e000bb6826870016f8898893878791f98893078791e98892878791d98892078791c98891878791b98891078791a98890878791978781846171746171646171546171446171346171246171146171046170f46170e46170d46170c46170b46170a46170946170846170746170646170546170446170346170246170146070a0c018268900182698801d498081409e0ffffff00000000826ab001d89a09826a980194a99489510986fc647a98772052077dfc8267a80183772083a87b68b0017b6aa8015020900046b59568ff07958859018269a8017a8988028377956800108388e0fb33090a0b019567ff0795775901817788028269d8018268b001ac872ffc28add23307403308205020920000b57c78117c79107c7a127c7b13978808d4980897aa1097bb18d4ba0ad4a8087c79157c7a147c7b167c7c17979908d4a90997bb1097cc18d4cb0bd4b909979920d489027c79017c7a7c7b027c7c03979908d4a90997bb1097cc18d4cb0bd4b9097c7a057c7b047c7c067c780797aa08d4ba0a97cc10978818d4c808d4a808978820d498037c78197c7a187c7b1a7c7c1b978808d4a80897bb1097cc18d4cb0bd4b8087c7a1d7c7b1c7c7c1e7c791f97aa08d4ba0a97cc10979918d4c909d4a909979920d4890a7c78097c79087c7b0a7c7c0b978808d4980897bb1097cc18d4cb0bd4b8087c790d7c7b0c7c7c0e7c770f979908d4b90997cc10977718d4c707d49707977720d487076f7b6fa96f3c6f2ad4ca07d4b908d47808988820d4b707977720d487075207f8fa83973308207b67b8017b69d8017b6ad0017b6bc8017b6cc00150209400b9b346171f46171e46171d46171c46171b46171a46171946171846171746171646171546171446171346171246171146171046170f46170e46170d46170c46170b46170a461709461708461707461706461705461703a00046170279461701c3004607088268c801826ac001d48a0a140b00000000010000001408fcffffff000000008269d801d889088269d001949894a8461704510842fa8267b8018377043308207b6ac8017b6bc001502096000ab3826bc801826ad0018269d80146171f2046171e46171d46171c46171b46171a46171946171846171746171646171546171446171346171246171146171046170f46170e46170d46170c46170b46170a4617094617084617074617064617054617044617034617024617018268c0019588dcd8890894a894b846075108acf98267b801837724330820502098007cb246171f0f46171e46171d46171c46171b46171a46171946171846171746171646171546171446171346171246171146171046170f46170e46170d46170c46170b46170a4617094617084617074617064617054617044617034617024617011408bcffffff000000008269d801d889088269d00194988269c8019498460751081bf98267b80183774433082050209a00ebb146171f46171e46171d46171c46171b46171a46171946171846171746171646171546171446171346171246171146171046170f46170e6446170d6546170c6c46170b6946170a614617096646170820330b72787b074617066546170566461704734617036e46170261787b014607543308648267b80150209c006fb183783307013309640a0d0133074033082050209e0058b17c78117c79107c7a127c7b13978808d4980897aa1097bb18d4ba0ad4a8087c79157c7a147c7b167c7c17979908d4a90997bb1097cc18d4cb0bd4b909979920d489027c79017c7a7c7b027c7c03979908d4a90997bb1097cc18d4cb0bd4b9097c7a057c7b047c7c067c780797aa08d4ba0a97cc10978818d4c808d4a808978820d498037c78197c7a187c7b1a7c7c1b978808d4a80897bb1097cc18d4cb0bd4b8087c7a1d7c7b1c7c7c1e7c791f97aa08d4ba0a97cc10979918d4c909d4a909979920d4890a7c78097c79087c7b0a7c7c0b978808d4980897bb1097cc18d4cb0bd4b8087c790d7c7b0c7c7c0e7c770f979908d4b90997cc10977718d4c707d49707977720d487076f7b6faa6f3c6f29d4c907d4ba08d47808988820d4b707977720d48707520750f783a73308207b67b8017b69d8017b6ad0017b6bc8017b6cc0015020a00011b046171f46171e46171d46171c46171b46171a46171946171846171746171646171546171446171346171246171146171046170f46170e46170d46170c46170b46170a461709461708461707461706461705461703a00046170279461701c3004607088268c801826ac001d48a0a140b00000000010000001408fcffffff000000008269d001d889088269d801949894a846170451089af68267b8018377043308207b6ac8017b6bc0015020a20062af46171f2046171e46171d46171c46171b46171a46171946171846171746171646171546171446171346171246171146171046170f46170e46170d46170c46170b46170a4617094617084617074617064617054617044617034617024617018268c0019588dc8269d001d889088269d80194988269c80194984607510804f68267b8018377243308205020a400d4ae826bc801826ad0018269d80146171f2646171e46171d46171c46171b46171a46171946171846171746171646171546171446171346171246171146171046170f46170e46170d46170c46170b46170a461709461708461707461706461705461704461703461702461701140c00000000010000001408bcffffff00000000d88a08949894b84607510869f58267b8018377443308207b6cc0015020a60035ae46171f7246171a72461717664617136246171c734617107346170f75461707644617066e46171b20461715204617122046170d2046170820461704204617026c46171e61461716614617016146075346171d748268c00195889c8269d001d88908330b65787b1946171874787b14461711748269d801949846170e6d787b0c46170b6d8269c801949846170a6946170974787b05787b035108baf48267b8018377643308205020a8008aad46171f46171e46171d46171c46171b46171a46171946171846171746171646171546171446171346171246171146171046170f46170e46170d46170c46170b46170a461709461708461707461706461705654617046d46170369461702744617012046077401330884008267b8015020aa0016ad8378330701330984000a0d01956700104927f8f8956700104927f0f8956700104927e8f89567ff07957701019569ff079599e100956a0010492ae0f8015020ac0077ae95670010827718f97b677895670010827710f97b677095670010827708f97b676895670010827700f97b676033082033075020ae009cac8268786f888269706f99826a686faa826b606fbb98bc38787c1f98bc30787c1e98bc28787c1d98bc20787c1c98bc18787c1b98bc10787c1a98bc08787c19787b1898ab38787b1798ab30787b1698ab28787b1598ab20787b1498ab18787b1398ab10787b1298ab08787b11787a10989a38787a0f989a30787a0e989a28787a0d989a20787a0c989a18787a0b989a10787a0a989a08787a0978790898893878790798893078790698892878790598892078790498891878790398891078790298890878790178783307203308205020b000c9ab46171f0246171e46171d46171c46171b46171a46171946171846171746171646171546171446171346171246171146171046170f46170e46170d46170c46170b46170a461709461708461707461706461705461704461703461702461701460733084033075020b2005eab9518e08488e07b68c0016481837783893308400a08826ac00182a71882a81082a90882aa6f7b7b6be0006f877b67e8006f987b68f8006fa97b69f000956a00107ba9b8f8956900107b98b0f8956800107b87a8f89567ff079577c1009569ff079599a100956800107b8ba0f85020b40090ac956700108077d4f8977720956800108288d8f88269c801d497079569ff0795995901826af0007b9ac004826af8007b9ab804826ae8007b9ab004826ae0007b9aa8047b98e0048268d0017b98d0048268d8017b98c8047b97d80495670010837800fe95670010837a20fe3309ff330b2033070a0f3308208267b8015020b6006baa7c78097c79087c7a0a7c7b0b978808d4980897aa1097bb18d4ba0ad4a8087c790d7c7a0c7c7b0e7c7c0f979908d4a90997bb1097cc18d4cb0bd4b909979920d489027c78017c797c7a027c7b03978808d4980897aa1097bb18d4ba0ad4a8087c79057c7a047c7b067c7c07979908d4a90997bb1097cc18d4cb0bd4b909979920d489037c78117c79107c7a127c7b13978808d4980897aa1097bb18d4ba0ad4a8087c79157c7a147c7b167c7c17979908d4a90997bb1097cc18d4cb0bd4b909979920d498087b68386f887b63406f3a7b62486f297b69b0007b6aa000d4a9097b68a8008888017b69780194985208062896207c78197c79187c7a1a7c7b1b978808d4980297aa1097bb18d4ba0a7c791d7c7b1c826ce00095c801d42a02979908d4b9097c7a1e7c771f888b01826ce800c8cb0b97aa10977718d4a7077b689800d4b80a64b37b6b900088aa01826bf800c8ab0c7b6c8800d49707d8bc09826af000c89a0a7b6a8000977720d427077b67306f777b67b800956700107b7860f8956700107b7368f8956700107b7c70f89567ff07957781009569ff07959961956800107b8a78f85020b80063aa95670010827980f895670010827788f895680010828890f8956a001082aa98f8956b00107bba38f8956a00107ba830f8956800107b8728f89567ff079577419568ff07958821956a00107ba920f85020ba00d01f95670010827958f895670010827a50f895670010827c40f895670010827b48f8d49a0788c82094b89478826780006f777b676801826788006f777b676001826790006f777b6758826798006f777b67508267b8008877207b67700152082e0333082033077b69c0017b6ac8017b6bb8017b6cb0015020bc00f1a782695078791898983878781f98983078781e98982878781d98982078781c98981878781b98981078781a9898087878198269587879109898387878179898307878169898287878159898207878149898187878139898107878129898087878118269600178790898983878780f98983078780e98982878780d98982078780c98981878780b98981078780a98980878780982696801787998983878780798983078780698982878780598982078780498981878780398981078780298980878780133082033075020be0025a79518e08488e07b68d0016481837783893308200a08018267b80095781fd87807826ca800c87c0ad8ca09da7709826bb000c8b9097b69a80197993b98ab05d4b9098267d00182721897aa3b827710988805d48a0a6f246f7b8268700194c88267780194789489948ac84a0a7b6ad801d84a07c87b0ac89a02d3b20ad8b209daa7097b69288267b00195701fd87009826ab801c89a07d8a70ada990a8263c801c8a3097b69b00197993b987c05d4c90997773b980c058260d801d4c707c8740ad84a07c87b0cc8c90964a4d3b90ad8b90bdaa70b7b6b20d392077b69b801d89209d84003db79038269a8018267b000d87907826ba000c87b0b98990597b73bd497078269d001829a82990898bb059487948b6f986fa9c89b0bc88707d8870ac8ba0a826b28c87b0b7b6bd001d87b07c87a0c8267c801826bb001d87b07826ac001c8a70798ba05977b3bd4ba0a987705c89707c88a0ad88a08c88707826b20c8ab0bd8ab08826ad001c88709d8ba07d39c087b69a801d89c09da87097b6bb001d3ba07d48707db79035103bb007b64a001017b6ad0017b6cc0017b62c8017b60d8019567ff07957759017b72b0047b70a8047b7ab8047b7cc0044927e0044927d8044927d0044927c80495670010837800fe95670010837a20fe3309ff330b2033070a0f01826cc0018264a0018262c8018260d801950001880701c87202d420078877018268d001c88707d88708c88c0cd84008826ab801d3a209d8a20ada980a8268b001d88703826ba801d3bc09d8bc0bda930bd37808d49808da8a0b647a520b52ff8264a8008e4782687001858801db4708826ab0008ea7826ba0008eb9dab70982677801da780951093c018267b8008477e07b674833082033075020c000a3a482695078791898983878781f98983078781e98982878781d98982078781c98981878781b98981078781a9898087878198269587879109898387878179898307878169898287878159898207878149898187878139898107878129898087878118269600178790898983878780f98983078780e98982878780d98982078780c98981878780b98981078780a98980878780982696801787998983878780798983078780698982878780598982078780498981878780398981078780298980878780133082033075020c200d7a39518e08488e07b68d8016481837783893308200a0801826ad80182a782a80882a91082aa186f777b67c0016f877b67a0016f977b67c8016fa77b67d00182674852074733094926d8018263880182628001330820283404826740826838d48707826848826930d49808d48707826888015207ea084926d8014926d0014926c8014926c001280e0a4926a8014926b0014926d80182688801958220d882076483826a8001c87a09d8a90864a0da770882679801c87808d8780782649001c874048e8b8e4cda4b0c140b0000000001000000642ae4b207dacb02da9b0adb9a07d4480adba207649b93cbdaa90b8509ffc89b0b853affc8a707d8a70cc8cb0ad39a0bd89a09dabc09648c934cda480c826898018588ff7b687801c88c0cc89c0397383b98a905d4890097aa3b987705d47a0a826b4888b7019a7897793b95b7ff987705c997077b67b801d3800bd880027b686801d87a07dbb2077b67700182679001857bffc8b40482677801d87c0bc84b0bd8c30cc8bc0c98320597cb3bd4b20b98cc05988205c99203d83b09d32c04d82c07da4907d33b09d4490982687001da98078269b801da790a82686801da7800da720cda730b826280018263880198b73b97cc05d4c7078264b00198093b97bb05d4b90998ab3b970805d4b80897aa0595ab407b6b7801d8ab0ac8a80b7b6b7001d88b08daaa08c898087b686801d89808826aa801c887077b676001330b208260a001017b6ba001c8b307d837087b6aa801c8a209c88909d3290ad8290bdaa80b7b64b001826a9801c84a08d8a802826c9001826ad801c8ac0cc82c0cc88b0bd88b08c8c808d49808d4b709d48909d4b808989920978820d498085108062886e883773308207b6ad8017b60b8015020c40054a17c78017c797c7a027c7b03978808d4980897aa1097bb18d4ba0ad4a8087c79057c7a047c7b067c7c07979908d4a90997bb1097cc18d4cb0bd4b909979920d489027c79097c7a087c7b0a7c7c0b979908d4a90997bb1097cc18d4cb0bd4b9097c7a0d7c7b0c7c7c0e7c780f97aa08d4ba0a97cc10978818d4c808d4a808978820d498037c78117c7a107c7b127c7c13978808d4a80897bb1097cc18d4cb0bd4b8087c7a157c7b147c7c167c791797aa08d4ba0a97cc10979918d4c909d4a909979920d4890a7c78197c79187c7b1a7c7c1b978808d4980897bb1097cc18d4cb0bd4b8087c791d7c7b1c7c7c1e7c771f979908d4b90997cc10977718d4c707d49707977720d487076f289569ff07959959017b98e0046f387b98d8046fa87b98d0046f777b97c8048267c0017b97c0048267b8017b97b8048267c8017b97b0048267d0017b97a80495670010837800fe95670010837a20fe3309ff330b2033070a0f0182628001826388018269d0019599018897018268c801c878087b69d0017b68c801d489078877018268b801c87800d880048267a001957820d87807826aa801c87a09d8a90ada770a826bb001c8ab07d8b70a826cd801c8ac0c826a6801d37a0a826b7801d38b0bd4ba0a7b6cd801826b6001d3cb0b826c7001d39c0cd4cb0bd4ba0a7b6ab801826bc001c84b0b7b6bc001648b649a64747b60a001826cb801520c8ffd7b69b0017b68b8018268b8008269486484d38909826bb000d4b909826ca8008260a000d40c0ad4a90951094d048260b801c83000d8300a8268b001c82808c8a808d3280bd8280cdaba0c82629801c82707d8270a826b90018269d801c89b0bc8ba0ac87c0cd87c07c8a707d48707d4c008d47808d4c707988820977720d4870751070628e8e583073308205020c600be9e7c78197c79187c7a1a7c7b1b978808d4980897aa1097bb18d4ba0ad4a8087c791d7c7a1c7c7b1e7c7c1f979908d4a90997bb1097cc18d4cb0bd4b909979920d498087b68d8017c78117c79107c7a127c7b13978808d4980897aa1097bb18d4ba0ad4a8087c79157c7a147c7b167c7c17979908d4a90997bb1097cc18d4cb0bd4b909979920d498087b68b8017c78097c79087c7a0a7c7b0b978808d4980897aa1097bb18d4ba0ad4a8087c790d7c7a0c7c7b0e7c7c0f979908d4a90997bb1097cc18d4cb0bd4b909979920d489047c78017c797c7b027c7c03978808d4980897bb1097cc18d4cb0bd4b8087c79057c7b047c7c067c7707979908d4b90997cc10977718d4c707d49707977720d487004626df074626de074626dd074626dc074626db074626da074626d9074626d8074626d7074626d6074626d5074626d4074626d3074626d2074626d1074626d0074626cf074626ce074626cd074626cc074626cb074626ca074626c9074626c8074626c7074626c6074626c5074626c4074626c3074626c2074626c1074626c0074626bf07ff004626be07ff004626bd07ff004626bb07ff004626b807ff4626b707ff004626b607ff004626b507ff004626b307ff004626b007ff4626af07ff004626ae07ff004626ad07ff004626ab07ff004626a807ff4626a707ff004626a607ff004626a507ff004626a307ff004626a007ff1409ffffffff000000007869bc077869b4077869ac077869a4071409ffffffffffff00007869ba071408ffffffffffffff007868b9077869b2077868b1077869aa077868a9077869a2077868a107826bb80084bb1f9568a007c88b0b7cb8197cb9187cbc1a7cba1b978808d4980897cc1097aa18d4ca0ad4a8087cb91d7cba1c7cbc1e7cb71f979908d4a90997cc10977718d4c707d49707977720d487037cb7117cb8107cb9127cba13977708d4870797991097aa18d4a909d4790c7cb8157cb9147cba167cb717978808d4980897aa10977718d4a707d48707977720d4c7027cb7097cb9087cba0a7cbc0b977708d4970797aa1097cc18d4ca0ad47a087cb90d7cba0c7cbc0e7cb70f979908d4a90997cc10977718d4c707d49707977720d487097cb7017cb87cba027cbc03977708d4870797aa1097cc18d4ca0ad4a7077cb8057cba047cbc067cbb07978808d4a80897cc1097bb18d4cb0bd4b808978820d487078268d8016f88e078078268b8016f88e098086f49e029096f0ae03a0a956bff0795bb5901826cc0017bbcc004826ca0017bbcb804826cc8017bbcb004826cd0017bbca8047bbae0047bb9d8047bb8d0047bb7c80495670010837800fe95670010837a20fe3309ff330b2033070a0f826ca8008264b800826bb0008260a0000198b73f970801d4870798c83f97b901d4980898493f97ca01d4a909974a0195aa01956cff0795cc5901826b90007bcbb004826b98007bcba804826b88007bcbb804826b80007bcbc0047bcac8047bc9d0047bc8d8047bc7e00428a1048387203308205020c800719a8264a8007c78197c79187c7a1a7c7b1b978808d4980897aa1097bb18d4ba0ad4a8087c791d7c7a1c7c7b1e7c7c1f979908d4a90997bb1097cc18d4cb0bd4b909979920d489027c79117c7a107c7b127c7c13979908d4a90997bb1097cc18d4cb0bd4b9097c7a157c7b147c7c167c781797aa08d4ba0a97cc10978818d4c808d4a808978820d498037c78097c7a087c7b0a7c7c0b978808d4a80897bb1097cc18d4cb0bd4b8087c7a0d7c7b0c7c7c0e7c790f97aa08d4ba0a97cc10979918d4c909d4a909979920d4890a7c78017c797c7b027c7c03978808d4980897bb1097cc18d4cb0bd4b8087c79057c7b047c7c067c7707979908d4b909826ba00097cc10977718d4c707d49707977720d487076f777b67c0016fa77b67c8016f377b67d0016f277b67d801826ab0000197b70198ab3fd4b7077b67b80197a701984c3fd4c7077b67b001974701826cb80098c83fd4870b4626ff07ff004626fe07ff004626fd07ff004626fb07ff004626f707ff004626f607ff004626f507ff004626f307ff004626ef07ff004626ee07ff004626ed07ff004626eb07ff004626e707ff004626e607ff004626e507ff004626e307ff001409ffffffff000000007869fc077869f4077869ec077869e4071409ffffffffffff00007869fa077869f2077869ea077869e2074626f807ff4626f007ff4626e807ff4626e007ff1408ffffffffffffff007868f9077868f1077868e9077868e10784c81f9569e007c898089567001046271ff89567001046271ef89567001046271df89567001046271cf89567001046271bf89567001046271af895670010462719f895670010462718f895670010462717f895670010462716f895670010462715f895670010462714f895670010462713f895670010462712f895670010462711f895670010462710f89567001046270ff89567001046270ef89567001046270df89567001046270cf89567001046270bf89567001046270af895670010462709f895670010462708f895670010462707f895670010462706f895670010462705f895670010462704f895670010462703f895670010462702f895670010462701f895670010462700f87c82017c8a7c89027c8303972208d4a20a979910973318d49309d4a9027c8a057c83047c89067c840797aa08d43a0a979910974418d49409d4a909979920d429037c84097c82087c890a7c8a0b974408d4240297991097aa18d4a909d429027c8a0d7c840c7c890e7c800f97aa08d44a0a979910970018d49009d4a909979920d429047c82117c80107c89127c8a13972208d4020297991097aa18d4a909d429027c8a157c80147c89167c871797aa08d40a0a979910977718d49707d4a707977720d427027c80197c89187c8a1a7c871b970008d4900997aa10977718d4a707d497007c891d7c8a1c7c871e7c881f979908d4a909977710978818d48707d49707977720d407078268c001e078078268c801e028088269d001e04909826ad801e03a0a97cc01d4ca0ad4b909826bb001d4b808826bb801d4b707956cff0795cc5901826b90007bcbb004826b98007bcba804826b88007bcbb804826b80007bcbc0047bc7e0047bc8d8047bc9d0047bcac8040195670010837800fe95670010837a20fe3309ff330b2033070a0f8268e000958702d88708826ae800c88a09d8a90ada880a956bff0795bb59017bb7a8047bb9b0048267f800c87a0a7bbab804d87a078268f000c887077bb7c0048267d8007bb7c8048267d0007bb7d0048267c8007bb7d8048267c0007bb7e00495670010837800fe95670010837a20fe3309ff330b2033070a0f8268e000958703d88708826ae800c88a09d8a90ada880a8268f800c88a0ad88a08826bf000c8b808956bff0795bb59017bb8c0047bbab8047bb9b0047bb7a804826700017bb7e004826708017bb7d804826710017bb7d004826718017bb7c80495670010837800fe95670010837a20fe3309ff330b2033070a0f8268e000958705d88708826ae800c88a09d8a90ada880a8268f800c88a0ad88a08826bf000c8b808956bff0795bb59017bb8c0047bbab8047bb9b0047bb7a804826740017bb7e004826748017bb7d804826750017bb7d004826758017bb7c80495670010837800fe95670010837a20fe3309ff330b2033070a0f8268e000958706d88708826ae800c88a09d8a90ada880a8268f800c88a0ad88a08826bf000c8b808956bff0795bb59017bb8c0047bbab8047bb9b0047bb7a804826738017bb7e004826730017bb7d804826728017bb7d004826720017bb7c80495670010837800fe95670010837a20fe3309ff330b2033070a0f492678074926700749266807956780079569600749266007015020ca006295826980078267880782689007826a98077b6a38077b6830077b67280795674007956820077b6920075020cc00ce28826740078268480782695007826a5807956bff0795bb5901492bc004492bb804492bb004492ba804017bbae0047bb9d8047bb8d0047bb7c80495670010837800fe95670010837a20fe3309ff330b2033070a0f4926f8064926f0064926e806956700079569e0064926e0065020ce00c394826710077b67a801826708077b67b001826700077b67b8013307403308205020d000fb927c78117c79107c7a127c7b13978808d4980897aa1097bb18d4ba0ad4a8087c79157c7a147c7b167c7c17979908d4a90997bb1097cc18d4cb0bd4b909979920d489027c79017c7a7c7b027c7c03979908d4a90997bb1097cc18d4cb0bd4b9097c7a057c7b047c7c067c780797aa08d4ba0a97cc10978818d4c808d4a808978820d498037c78197c7a187c7b1a7c7c1b978808d4a80897bb1097cc18d4cb0bd4b8087c7a1d7c7b1c7c7c1e7c791f97aa08d4ba0a97cc10979918d4c909d4a909979920d4890a7c78097c79087c7b0a7c7c0b978808d4980897bb1097cc18d4cb0bd4b8087c790d7c7b0c7c7c0e7c770f979908d4b90997cc10977718d4c707d49707977720d487076f796fa86f3a6f277b67d001d4a7077b68d801d49808d47808988820d49707977720d4870751070628e8d88167d8013308207b67a0017b69c8017b6ac0015020d200b09146171fa00046171e46171d46171c46171b46171a46171946171846171746171646171546171446171346171246171146171046170f46170e46170d46170c46170b46170a46170946170846170746170646170546170446170346170246170146078268d8019587a000d88708826ad001c88a09d8a90ada880a8268c801c88a0a8268c801d88a08826bc001c88b0b7b6988067b678006826790017b67b806826798017b67b006826780017b67a806826788017b67a0067b6a90069567c0069568a006956980067b6b98065020d4003e168267c8018268c001d478081407e0ffffff000000008269d801d879078269d00194977b689801948752070628d1d78267d8067b6780018267d0067b6778018267c8067b6788018267c0067b6790018267a0018377203308205020d60082908268c0006f888269c8006f99826ad0006faa826bd8006fbb98bc38787c1f98bc30787c1e98bc28787c1d98bc20787c1c98bc18787c1b98bc10787c1a98bc08787c19787b18787a1098ab38787b1798ab30787b1698ab28787b1598ab20787b1498ab18787b1398ab10787b1298aa08787a11787908989a38787a0f989a30787a0e989a28787a0d989a20787a0c989a18787a0b989a10787a0a9899087879097878988938787907988930787906988928787905988920787904988918787903988910787902988808140b00000000010000001409c0ffffff00000000826ad801d89a09826ad00194a9826a980194a978780152090628a9d68267a0018377403308207b6b70015020d800768f826800016f88826908016f99826a10016faa826b18016fbb98bc38787c1f98bc30787c1e98bc28787c1d98bc20787c1c98bc18787c1b98bc10787c1a98bc08787c19787b18787a1098ab38787b1798ab30787b1698ab28787b1598ab20787b1498ab18787b1398ab10787b1298aa08787a11787908989a38787a0f989a30787a0e989a28787a0d989a20787a0c989a18787a0b989a10787a0a9899087879097878988938787907988930787906988928787905988920787904988918787903988910787902988808826970019599a0826ad801d89a09826ad00194a9826a980194a978780152090628aad58267a0018377603308205020da007b8e826840016f88826948016f99826a50016faa826b58016fbb98bc38787c1f98bc30787c1e98bc28787c1d98bc20787c1c98bc18787c1b98bc10787c1a98bc08787c19787b18787a1098ab38787b1798ab30787b1698ab28787b1598ab20787b1498ab18787b1398ab10787b1298aa08787a11787908989a38787a0f989a30787a0e989a28787a0d989a20787a0c989a18787a0b989a10787a0a9899087879097878988938787907988930787906988928787905988920787904988918787903988910787902988808140980ffffff00000000826ad801d89a09826ad00194a9826a980194a978780152090628acd48267a001837780003308205020dc007c8d826820016f8898893878791f98893078791e98892878791d98892078791c98891878791b98891078791a988908787919787818826828016f88988938787917988930787916988928787915988920787914988918787913988910787912787810988808787811826830016f8898893878790f98893078790e98892878790d98892078790c98891878790b98891078790a787808988808787809826838016f899898387878079898307878069898287878059898207878049898187878039898107878028268d801826a9001d88a008262d001826a8801d32a0cd82a0bdac00b8263c801826c7801c93c04d83c087b68c801826cc00182638001c9c30c8268c801c98c08d8b40cc9c80cc9b403c92a0bc90b0b8268d801826a9001c98a08d4cb0bd4380cd4bc0cd43b0a98cc2097aa20d4ca0a7879989908787901510a06285bd31407ffffffff000000008269a801d279028269b0018499ff8267b801847aff492638068267607b6740067b6a20068267687b6748063a0a0000023a0b0800023a0c1000023a071800027b6a78067b6b70067b6c68067b6760067b6928068267707b6750067b62300695696006956a4006956b20068267787b6758068267a00133007a28288e330733083300de0028a98b33085020de00a48b837833070133090a0d33073300de00288f8b33073300de0028868b4926d0054926c8054926c005140700000000717b484e9568c0057b67d80533075020e000138c4926b8054926b0054926a005413307049568a0054926a8053300ee0028f18b4926f0034926e8034926e0031407000000007174cd309568e0037b67f80333073300e40028ca8b49265003492648034926400314070000000068da0668956840037b67580333073300e40028a38b492690054926880549268005140700000000717b484e956880057b67980533075020e200808b4926780549267005492660054133070495686005492668053300ee00285e8b4926100449260804492600041407000000009740b2b7956800047b67180433073300e40028378b492630054926280549262005140700000000eba3d80b956820057b67380533073300e40028108b492610054926080549260005140700000000e59fdf52956800057b67180533073300e40028e98a4926f0044926e8044926e00414070000000067881ccd9568e0047b67f80433073300e40028c28a4926d0044926c8044926c00414070000000063bf431a9568c0047b67d80433075020e4009f8a33080433075020e600e48983783307013309040a0d01492650044926480449264004140700000000717b484e956840047b67580433075020e800638a4926380449263004492620041133070495682004492628043300ee0028418a839783887b68d8015020ea008689837833078269d8010a0d014926d0034926c8034926c003140700000000717b484e9568c0037b67d80333075020ec00058a4926b8034926b0034926a003413307049568a0034926a8035020ee00e78933082433075020f0002c8983783307013309240a0d0195670010492730f995670010492728f995670010492720f91407000000007174cd309568ff0795882101956900107b9738f933073300e400289389492610064926080649260006140700000000717b484e956800067b67180633075020f20070894926f8054926f0054926e005413307049568e0054926e8053300ee00284e899511a07b10587b15507b16489515608411f0828910828c08828b82881897923f98ca01d42a02978a3f989901d49a0a97cc3f98b901d49c0c98830184bb019ab888b60184c97fd2a804d2280adbbc09d2380b88982094a8d4b40c94c8ab861f7b797b7a087b74107b7b189551a08210588215508216489511603200491130491128491120140700000000717b484e9518207b173833075020f400b58849111849111049012233070464184911085020f6009e8833082433075020f800e38783783307013309243300fa000a0d019511807b10787b15707b1668951580008411f0828b827308828c08827095b61fd8b604c84c098466e07b1018c86000d8600bc8390ac8ba02d3920ad89206daab06827b18d8c909828a10827710828818da4409c8a909d8a90ac8790cc86c04d89c09d8c406c8b808c8a808c89808c886068e688e49db6809d464088e2adb890a520a1701821818d88008d33209d8320ada980ad87408d3b609d8b60bda980bd37407d49707da7a0b520bef003307403308207b10187b12107b14085020fc0013876f688219086f99821a106faa821b186fbb787b1898bc38787c1f98bc30787c1e98bc28787c1d98bc20787c1c98bc18787c1b98bc10787c1a98bb08787b19787a1098ab38787b1798ab30787b1698ab28787b1598ab20787b1498ab18787b1398ab10787b1298aa08787a11787908989a38787a0f989a30787a0e989a28787a0d989a20787a0c989a18787a0b989a10787a0a9899087879097878988938787907988930787906988928787905988920787904988918787903988910787902988808787801955180821078821570821668951180003200491150491148491140140700000000717b484e9518407b175833075020fe00cc864911384911304911204133070495182049112850200001b386330824330750200201f8858378330701330924330004010a0d019511a0fd7b1058027b1550027b164802951560028411e0641682897b6978018289087b6970018289107b6968018288187b6860017b671033074033082050200601a6857c78187b68607c78197b68407c781a7b68507c781b7b68487c781c7b68787c781d7b68587c781e7b68707c781f7b68687c78107b68a0007c78117b6880007c78127b6890007c78137b6888007c78147b68b8007c78157b6898007c78167b68b0007c78177b68a8007c78087b68e0007c78097b68c0007c780a7b68d0007c780b7b68c8007c780c7b68f8007c780d7b68d8007c780e7b68f0007c780f7b68e8007c787b6840017c78017b6820017c78027b6830017c78037b6828017c78047b6858017c78057b6838017c78067b6850017c77077b6748014826400220826760017b671802826768017b671002826770017b670802826778017b6700024926380249263002492628024926200283680002836a2002836b40023309ff33070a0701826330028264280282623802826c200297373f984801d4870797283f983901d4980897493f98ca01d49a0b9829017b6c1884cc019acad28a00d27a08d2a90984ba7fdaca0b7b6b180188b7207b68080194877b6010017b690001d49008948788c801ab781b097b6c387b6a087b64207b63287b6230826740977708826860d48707826850978810826948979918d49808d48707826858978808826978d49808826970979910826a6897aa18d4a909d49808978820d47802826880009788088267a000d4780882699000979910826a880097aa18d4a909d49808826998009799088267b800d47909826ab00097aa10826ba80097bb18d4ba0ad4a909979920d498088269c0009799088267e000d47909826ad00097aa10826bc80097bb18d4ba0ad4a909826ad80097aa088267f800d47a0a826bf00097bb10826ce80097cc18d4cb0bd4ba0a97aa20d4a909826a200197aa0882674001d47a0a826b300197bb10826c280197cc18d4cb0bd4ba0a826b380197bb0882675801d47b0b826c500197cc1082674801977718d4c707d4b707977720d4a7076f7a6f996f886f2bd49b077b6ad0007b68c800d4a808d487079877207b69d800d49808978820d487075207770783b73308207b6758017b6bc00050200801b182826818016f8898893878791f98893078791e98892878791d98892078791c98891878791b98891078791a988908787919826908016f99787818989838787817989830787816989828787815989820787814989818787813989810787812826810016f8878791098990878791198893878790f98893078790e98892878790d98892078790c98891878790b98891078790a826900016f99787808988808787809989838787807989830787806989828787805989820787804989818787803989810787802787998990878790182673852071f018267d8008268d000d487071408e0ffffff000000008269c000d889088269c8009498947851086a06826718847700ff7b6770018267580183772033082050200a019c813302330349267801826870016f8a98ab30787b1e98ab28787b1d98ab20787b1c98ab18787b1b98ab10787b1a8268206f8b787a1898aa08787a1998ba38787a1798ba30787a1698ba28787a1598ba20787a1498ba18787a1398ba10787a128268286f8a787b1098bb08787b1198ab38787b0f98ab30787b0e98ab28787b0d98ab20787b0c98ab18787b0b98ab10787b0a8268306f8b46171f787a0898aa08787a09787b98ba38787a0798ba30787a0698ba28787a0598ba20787a0498ba18787a0398ba10787a0298bb08787b018267088e7797700528c103330820330750200c01b980826860016f88826968016f99826a70016faa826b78016fbb787b1898bc38787c1f98bc30787c1e98bc28787c1d98bc20787c1c98bc18787c1b98bc10787c1a98bb08787b19787a1098ab38787b1798ab30787b1698ab28787b1598ab20787b1498ab18787b1398ab10787b1298aa08787a11787908989a38787a0f989a30787a0e989a28787a0d989a20787a0c989a18787a0b989a10787a0a9899087879097878988938787907988930787906988928787905988920787904988918787903988910787902988808787801330820330750200e01e37fff9518e08488e0648183777b68580183893308200a08018267188877028268209487826830826928d4980894875107103300330233034926780128a3024926680149266001492670014926780182675801827b8268c0009589207b69f800d889088269c800c8890a7b6af000d89a0ada880a8278088279108277186fbc6f8b6f996f748267d800c87a0a7b6ae800d87a078268d000c887077b67e000017b6b40017b6b10027b6950017b6908027b6448017b6400027b6c58017b6c180249263802492630024926280249262002482640022083680002836a2002836b40023309ff33070a07018268f80082676801c88707d88708826bf00082696001c8b909c88909d3b90ad8b90bdaa80b826ae80082687001c8a808d8a802826c7801826ae000c8ac0cc82c0ac88b0bd88b08c8a808d49808d4b709d48909d4b808989920978820d4980852084d03826838027b683001826830027b683801826828027b682801826820027b6820018377330820502010016f7eff826820016f8898893878791f98893078791e98892878791d98892078791c98891878791b98891078791a988908787919826928016f99787818989838787817989830787816989828787815989820787814989818787813989810787812826830016f88826a38016faa787910989908787911787a0898a93878790f98a93078790e98a92878790d98a92078790c98a91878790b98a91078790a98aa08787a0978789889387879079889307879069889287879059889207879049889187879039889107879029888087878018264480195440188470182695001c8790982676801957020d8700882676001c88702d8720ada880a82677001c8a703d8730a826b7801c8ab0b82671001d873087b68700182681801d8800c826a0801d3a208d8a20ada8c0a826c0001d3cb087b6b7801d8cb0c826b7001da8b0cd3730bd4b808d4940b88bb0182674001c87b0bd87b07db8c0a826c5801c87c0c7b6068017b6260017b637001520ac4fd950a3fd80a07c8720bd82b08da7708c83808d8380782697801c8970784aae08263c000c83a097b697001d8a9098262c800c82b0ac89a0ad3ba0cd8ba0bdac90b8264d800c84809c89b0bd89b0cd889088260d000c80707c88707c87c0c8ec78eb8dbc708d4cb077b6a78018ea9db78095209460182677001d8370782697801d32908d82909da8709d84b07d30c08d80c0ada870ad34b07d48707da790a520a19013307403308207b6c68017b6b600150201201517cff826870016f8898893878791f98893078791e98892878791d98892078791c98891878791b98891078791a826978016f99787818988808787819989838787817989830787816989828787815989820787814989818787813989810787812826860016f8878791098990878791198893878790f98893078790e98892878790d98892078790c98891878790b98891078790a826968016f9978780898880878780998983878780798983078780698982878780598982078780498981878780398981078780278799899087879018267108268c0007b788268d0007b78188268c8007b78088268d8007b78109551a0fd821058028215500282164802951160023200004926f0014926e8014926e001140700000000717b484e9568e0017b67f801330750201401da7bff4926d8014926d0014926c001413307049568c0014926c8013300180128b77bff4926b0014926a8014926a001140700000000717b484e9568a0017b67b801330750201601937bff49269801492690014926800122330704956880014926880150201801747bff330824330750201a01b87aff837833070133092433001c010a0d019511807b10787b15707b1668828c10828618828b088285d46b08d4c50ad48a0a98aa20d4c808978820d4a8085208fc037b16307b1c387b1b407b17088297187b17608296108297087b175882977b17507b152883573308207b171050201e01477aff821250d46208821960821a58d4a909d498089888207b1648d46909979920d498085208a5037c78197c79187c7a1a7c7b1b978808d4980897aa1097bb18d4ba0ad4a8087c791d7c7a1c7c7b1e7c7c1f979908d4a90997bb1097cc18d4cb0bd4b909979920d498087b18207c78117c79107c7a127c7b13978808d4980897aa1097bb18d4ba0ad4a8087c79157c7a147c7b167c7c17979908d4a90997bb1097cc18d4cb0bd4b909979920d498087b18187c78097c79087c7a0a7c7b0b978808d4980897aa1097bb18d4ba0ad4a8087c790d7c7a0c7c7b0e7c7c0f979908d4a90997bb1097cc18d4cb0bd4b909979920d489057c78017c797c7a027c7b03978808d4980897aa1097bb18d4ba0ad4a8087c79057c7a047c7b067c7707979908d4a90997bb10977718d4b707d49707977720d4870683273308207b17502020010779ff98583878780f98583078780e98582878780d98582078780c98581878780b98581078780a985808787809986838787807986830787806986828787805986820787804986818787803986810787802986808787801821218982838787817982830787816982828787815982820787814982818787813982810787812982808787811821c2098c83878781f98c83078781e98c82878781d98c82078781c98c81878781b98c81078781a98c808787819821848821960d489091408e0ffffff00000000821a50d88a0a821b5894ba949a7872107875087876787c18510aad01821738821a30d4a707821a28d88a08821a4094a89478510893016f686f5a6f2b6fc6d4a6077b18407b1b30d4b808d487079877207b1a38d4a808978820d487075207690182178377208218108388207b18288365645850202201cd77ff7b1720821728645850202401be77ff6478821720646950202601f077ff821750c867077b1628d86708821958821b30c8b909c88909d3b90ad8b90bdaa80b821648821c38c86c08c88b0bd88b0ad8c808821c60821540c85c0cc8c808c8a808d4b808140ae0ffffff00000000d8a70a949a948a510ad900837720330820502028014977ff46171f46171e46171d46171c46171b46171a46171946171846171746171646171546171446171346171246171146171046170f46170e46170d46170c46170b46170a461709461708461707461706461705461704461703461702461701460782172895771f1405e0ffffff01000000d25707821850c88707d88708821a58c88a09d8a90ada880ac86a0ad86a08821b60c8b808957b20d87b07c8790cd89c09da7709c8a909d8a907c887078218087b8b7b8c087b89107b871882107882157082166895118000320000951180fe7b1078017b1570017b166801951580018411f082831082821882860882887b16f0007b12d000d426027b18f800d43806d426069866207b13d800d43208978820d468087b17405208b8078257108278187b18188258088276107b168276087b160882777b17108287187b173882578286107b16208286087b162882887b18308278187b18488278107b18508278087b185882777b176082c7187b176882c7107b177082c7087b177882c77b17800082b7187b17880082b7107b17900082b7087b17980082b77b17a00082a7187b17b00082a7107b17b80082a7087b17c00082971082a87b18a8008298087b18c80082987b18e0009777209876208117f8003308207b17e80050202a017075ff6f688219c8006f99821ae0006faa98ab38787b1f98ab30787b1e98ab28787b1d98ab20787b1c98ab18787b1b98ab10787b1a98ab08787b19787a1878791046170b46170a4617094617074617064617054617044617034617024617014607989a38787a17989a30787a16989a28787a15989a20787a14989a18787a13989a10787a1298990878791178780898893878790f98893078790e98892878790d9888208219d800821bd000d49b0b140900000000010000007b19c8001409e0ffffff00000000821af800d89a09821af00094a97b1be00094b978780c510919068217e80083772033082050202c018274ff46171fe00046171e46171d46171c46171b46171a46171946171846171746171646171546171446171346171246171146171046170f46170e46170d46170c46170b46170a46170946170846170746170646170546170446170346170246170146078218f8009587e000d887088216f000c88609d8690ada880a8218d800c88a0ad88a08821bd000c88b0b7b1908017b1700018217b0007b1738018217b8007b1730018217c0007b1728018217a8007b1720017b1a10019517400195182001951900017b1b180150202e0113f98217c8009577c08218f800d8780794678218e000948751072205821758017b17d000821750017b17d800821748017b17c800821740017b17c0008217e800837740330820502030016b73ff821888006f88821990006f99821a98006faa821ba0006fbb98bc38787c1f98bc30787c1e98bc28787c1d98bc20787c1c98bc18787c1b98bc10787c1a98bc08787c19787b18787a1098ab38787b1798ab30787b1698ab28787b1598ab20787b1498ab18787b1398ab10787b1298aa08787a11787908989a38787a0f989a30787a0e989a28787a0d989a20787a0c989a18787a0b989a10787a0a9899087879097878988938787907988930787906988928787905988920787904988918787903988910787902988808140600000000010000001409a0ffffff00000000821af800d89a09821af00094a9821ae00094a97878015109fb038217e800837760330820502032016472ff8218686f888219706f99821a786faa821b80006fbb98bc38787c1f98bc30787c1e98bc28787c1d98bc20787c1c98bc18787c1b98bc10787c1a98bc08787c19787b18787a1098ab38787b1798ab30787b1698ab28787b1598ab20787b1498ab18787b1398ab10787b1298aa08787a11787908989a38787a0f989a30787a0e989a28787a0d989a20787a0c989a18787a0b989a10787a0a9899087879097878988938787907988930787906988928787905988920787904988918787903988910787902988808956980821af800d89a09821af00094a9821ae00094a9787801510908038217e80083778000330820502034017071ff8218486f888219506f99821a586faa821b606fbb98bc38787c1f98bc30787c1e98bc28787c1d98bc20787c1c98bc18787c1b98bc10787c1a98bc08787c19787b18787a1098ab38787b1798ab30787b1698ab28787b1598ab20787b1498ab18787b1398ab10787b1298aa08787a11787908989a38787a0f989a30787a0e989a28787a0d989a20787a0c989a18787a0b989a10787a0a989908787909787898893878790798893078790698892878790598892078790498891878790398891078790298880814060000000001000000140960ffffff00000000821af800d89a09821af00094a9821ae00094a9787801510904028217e8008377a000330820502036016c70ff8218386f888219206f99821a286faa821b306fbb98bc38787c1f98bc30787c1e98bc28787c1d98bc20787c1c98bc18787c1b98bc10787c1a98bc08787c19787b18787a1098ab38787b1798ab30787b1698ab28787b1598ab20787b1498ab18787b1398ab10787b1298aa08787a11787908989a38787a0f989a30787a0e989a28787a0d989a20787a0c989a18787a0b989a10787a0a9899087879097878988938787907988930787906988928787905988920787904988918787903988910787902988808956940ff821af800d89a09821af00094a9821ae00094a9787801510910018217e8008377c00033082050203801786fff8218186f8882196f99821a086faa821b106fbb98bc38787c1f98bc30787c1e98bc28787c1d98bc20787c1c98bc18787c1b98bc10787c1a98bc08787c19787b18787a1098ab38787b1798ab30787b1698ab28787b1598ab20787b1498ab18787b1398ab10787b1298aa08787a11787908989a38787a0f989a30787a0e989a28787a0d989a20787a0c989a18787a0b989a10787a0a98990878790978789889387879079889307879069889287879059889207879049889187879039889107879029888087878018217408218c0007b788218d0007b78188218c8007b78088218d8007b7810955180fe821078018215700182166801951180013200009511d07b10287b15207b1618827810827918827a088277d4a909d48707d49707510711821028821520821618951130320033074033082050203a013f6eff7c78117c79107c7a127c7b13978808d4980897aa1097bb18d4ba0ad4a8087c79157c7a147c7b167c7c17979908d4a90997bb1097cc18d4cb0bd4b909979920d498087c79017c7a7c7b027c7c03979908d4a90997bb1097cc18d4cb0bd4b9097c7a057c7b047c7c067c760797aa08d4ba0a97cc10976618d46c0cd4ca0a97aa20d4a9097c7a197c7b187c7c1a7c761b97aa08d4ba0a97cc10976618d46c0cd4ca0a7c7b1d7c7c1c7c761e7c751f97bb08d4cb0b976610975518d46505d45b0b97bb20d4ba0a7c7b097c7c087c760a7c750b97bb08d4cb0b976610975518d46505d45b0b7c7c0d7c760c7c750e7c770f97cc08d46c0c975510977718d45707d4c707977720d4b7076f756faa6f966f877b1708d467077b1a10d45a08d47808988820d45707977720d487075207ac018117103308207b1750203c01026dff46171f46171e46171d46171c46171b46171a46171946171846171746171646171546171446171346171246171146171046170f46170e46170d46170c46170b46170a461709461708461707461706461705461703a00046170279461701c300460708d45606140500000000010000001408fcffffff00000000821910d889088219089498946846170451081001821783770433082050203e01666cff46171f2046171e46171d46171c46171b46171a46171946171846171746171646171546171446171346171246171146171046170f46170e46170d46170c46170b46170a4617094617084617074617064617054617044617034617024617019558dc821910d8890882190894989468460751088d00821783772433082050204001e36bff46171f1446171e46171d46171c46171b46171a46171946171846171746171646171546171446171346171246171146171046170f46170e46170d46170c46170b46170a4617094617084617074617064617054617044617034617024617011408bcffffff00000000821910d8890882190894989468460752080400821583574433082050204201596bff46171f46171e46171d46171c46171b46171a4617194617184617174617164617154617144617137446171273461711694617107846170f6533062078760e46170d74330b6f787b0c330c6e787c0b78760a4617097346170865787b074617066478760546170474787c034617026546170176460745330864645750204401d86aff8378330701330964330046010a0d018289828218828a08828c10959b0188b901c8a909d49b0a88aa01c8ca0ad8ca0cc82c0cd4c902d4ab08d428085108107b7b7b79087b7a107b7c1832009511b07b10487b15409515508411f0491130491128491120140700000000717b484e9518207b17383307502048010c6bff491118491110490111330704641849110850204a01f46aff330824330750204c01386aff83783307013309240a0d330733004e0128806dff330750204e017a6dff33070150205001706dff0049489220248414d249922425494b2a252da9944c49494952525242554a5292244992244992244992244992244992244992244992942449494a529244252949929424a94a2949524a29494a5244441411112949929424494a495209a592929222458a142952a44851922222a2a43424424444240921499224499224499224499292244d9224a9506a4a524a9292242222222222928a44222222128988a4a2503524d42854694444444a4248922449922449922449488a902412512322202090409228493592942489221169444400492451494444448a8888888848218aa22849922449922449922449922449922449922449922449498824499224499224499224494a21892a4549aa12492489245288a2284a9224499224499224499224499224499224499224495212a2288a92244992244992244992244992244992242549922449924212558a2455454444444484888888544444129224499224499224494992244992244992244992244992244992244992244992245549922489a24888244992244992244992244952220908082489925423494992282212111111112222225211111111494892244992244992242549922449922449922449922449922449922449922449925425499224922812a2284a9224499224499224494a9224499224499224892490244a528d242549a2884844848888101111918a8888888848429224499224499224294992244992244992244992244992244992244992244992a42a499224454214455192244992244992244992244992244992a4244992244912a1d44092284935929424892211292222222222224244448888884845444414492491449224222222a410455194244992244992244992244992244992244992244992a424449224499224499224499224a590449522494551141111111111212222221549248924121111111111111111222222529144924822111111111111111111212222221549248924121111111111111111112222225291449248221111111111111111112122222215492489241211111111111122222222222252111111111191449248221111111121222222222209294992244992244992244992244992244992244992244992244992244992244992a2288a44242211454422914824128944442291888888888888888888888888888888888822222222222222442412499224454444449228493592942489222211111111212222221511111111d1888888122589924422892449a28e24452422498a88888888888888880a512122228a8888489288242289248948928a46924444444444848888885444444444129224499224499224494992244992244992244992244992244992244992244992245549922489244a84288aa2244992244992244992244992244992244949922449924444440821222242444422222225499292a494240924899254234949922824228d8888a424a224912412492a894434222222929248249248242149922449922449922449922449922449922449922449922449499224499224495215492489489248925412254992244922224244511425499224499224499224499224499224494a92244992442292244952224424114992284992882489244992a224491249122949922449929224499224254992244992244992244922499288240144a29248448a084534222289244924114992442a494292244992244992244992242922454444444444a4888888888888141111111111114544444444948888888810914422898846444429494922914492442422494422922449221291244948922449922449922425499224499224499224499224499224499224499224499254452249922412112149922449922449922449889088041040248a9244122192244992244992244992248944a2a8249210499224499224499224499204100144a2a824929044442422222212918888442489484424124549220949922449922449922449922409248a44a488888888888808111121222222151111114924914492242222420a511445499224499224499224499224499224499224499224494a422449922449922449922449520a4954294a529548224924121111111111222222521111111111118d88888824924822499244124922894444444484888888544444444444444444442322222289249248922491449248221111111111112122222215492489241211111111111111111111111111111111111111111122222252232222228924924892249144924822111111111111212222221511111111914449aa919448249148924422914822914844141111514a2225914214459224499224495292244992244992244992244988a2284a24914412492491442289249248228924924824914412492491441289249248228924924822510a49aa942455454444444484888888d48848228a88889492a42429a494244992244992a4244992244992244992244992108944229148241289442291482412894422914824128944229148244a21892a45928aa2282222222222424444442a2222221211111111111111915444444444444444888888488d88884892244992444444444444444424151111111111111122222252111111111149489224499224499224254992244992244992244992244992244992244992244992542549922811a2288a922449922449922449922449922449922425499224491251444494929424222222224208212222221111112a540d248992542349499228129122222222225288a2284a9224499224499224499224499224499224499224495212449224499224499224499224a520892a45928aa2282222222222424444442a222222229248124924222222888888888824924412898888888808111111a94822492491888888888888888888101111918a2492441289888888888888888808111111a94822492491888888888888888888101111918a2492441289888888888808111111111111a9888888888824484992244992244992244992244992244992244992244992244992244992244992144551241289222222222222222222222222222222222222222222222222222222222222222222884824922449111131499244229248922449922c914824419224499224499224499224499224499224499224499224499292244992244992a42a924812499224a944a424912491249224494444041151144549922449924892244992249124499224499292244992244992245122889224499224499224499224499224a9110920121525224504111145d488888824419224499224499224294992244992244992244992244992244992244992244992a42a4992448988882049922449922449922449889088041040242a1149441011912449922449922449922449245544124492244992244992244992240144a2a88824489224499224494444442411119124829226419224499224499224294992244992244992244992244992244992244992244992a42a4992448988882049922449922449922449889088041040242a11494410499224499224499224499244225154441244442449922449922449922449124000a9229208222222222222222222221189249188221145241149902449922449922449924444444604251a11111111112188484422129114a49452922449922449922449922449922449922449922449929220922449922449922449922429054954299254144511111111111111442422121111111111111111119154224892244992244992242549922449922449922449922449922429a58844a22449922449244992489248914824914852444444444422828888888888888848242288888888482a8a28a2448944a48888204992244992244992244992249224499224499424499224490a92a8d248224924924492a4a2a81249922492481289244924494a924492884492444955922491442492244992249244124922464444444444444444243522224912491249229124491145124589442429489224499224499224499224892449922449122549922449928224aa344a521445911411499224898888484444522425924825809224a9244992a41289244992a42489249288249224499224492291481291249224492289249148244612499288242249922449921211a424499224499224499224499224499224499224499224499224499224499224498a88a228222222222222921a1149242289249248124924124944224944a28a8888488944241149244922894892244992a40449922449922449924492244992244992249124499224499224494a922449922449928888888888888888888888888888888820088210044110822008421004410820222280082022222222912449922449922449922449922449922449922449922449922425499224499224499428a5444444444444444444241511314992244944444444444444922092244992244992244992244992244992244992244992244992942449922449244952144511934492482441100441100441100441100401444404101111420801444424121111111111111111111111111111111111111111111111111111111111111191922449922449922449922449922449922449922449922449922449922449922489442291249148444444444444c48888a42289241111914824222222222222928a24924412898888888888888888482a9248124924222222222222222222a94822492491888888888888888888a422222204111111111141444444448488888888a422222282888888244892244992244992242549922449922449922449922449922449922449922449925445224992241211414892244992244992244992a4884492482412111111111111114144028844511211111111491045519424499224499224499224499224499224294992244912400091284a1249045114454992244992244992244992244992244992922449922491481425892488a2284a92244992244992244992244992244992942449922409201245492212444992244992244a922449922451922449922489922449922422114922928848244912912449529204108944221189104288888844444422928a14942a5224220288288808898844440011452222808822111140444144484424220288281211014414898800228a4444001145222280888214943422028828880889885404158d8800220a22422282149434222222808888221111404441444844244992a42449922429499294529224494902480a92a4042928892649a4a424499224499224499224a9a4449224499244922428a594244992244992244992244992244992242949922449922489920490142491244841493422225291482492044992244992248944229148241289442291482412452291482412891011111111111111a91111499224495292241245a44492244992244992244992482412492291482449229148248944229124894422912412894492a42a114922499488204a92244992244a92244992444992244992244a92244992242589880410898a4444125444499224494a9224499224294992244992a42429499224499294a4208aa2284992244992244992244992244992244952922449922429905494262949a9221111512412892449552412891111111111112122522392882449441291244992241111111151025192244992245192244992248a92244992244992922449922489241249248924128948248944224912492211114992249248249224912491a492281189244992249288409424499224519224499224899224499224499424499224494a124522918888684404105120222422222202882810111211488192689224294992449224494a4a02499224492249922449922449922449922449922449922449922449922449529224499224499294024992244992244992244992244992244992244992244992009254522249928aaa244992244a920a24054a81244992244992244912402a9240922449922449922449922429092049922449922449529224d1888848922212492249224952529292a424495292242912894491482452248a241281a2284992244992244992242949922449922449928804100144a228114920244992244992244992244952442249249188888888888888082291a28888888888241045519424499224499224499224499224499224294992244912400091284a44124829454992244992244992244992244992244992922449922489445122228194524a92244992244992244992244992244992942449922409208048142522124829a524499224499224499224499224499224494992244992884451222281542925499224499224499224499224499224494a92244992245124128988882649929224494a024992244992244992a4244992244992244992244992244992244992244992244992aa244992445220499224499224499224498890041040924a940422499224499224499224499224a9a2241049922449922449922449920490a4ca92409224499244444412499288442211498192684992244992a4242549920490144892124881928a28904000"
				},
				"methodIdentifiers": {
					"buyTicket(uint256)": "67dd74ca",
					"contractOwner()": "ce606ee0",
					"createEvent(string,uint256,uint256,uint256,uint256)": "dbf3f3c9",
					"events(uint256)": "0b791430",
					"getEventCount()": "d9e48f5c",
					"getEventDetails(uint256)": "ec38d5a0",
					"hasTicket(uint256,address)": "4843d2b1",
					"nextEventId()": "9f9d903a",
					"withdrawFees()": "476343ee"
				}
			},
			"hash": "14f0e3a56b98ffeed40322aae52f35e4f6deff7696cd306954e701485749f14e",
			"factoryDependencies": {}
		}
	}
}